:100000000C94B80E0C94D70E0C94D70E0C94D70EFB
:100010000C94D70E0C94D70E0C94D70E0C94D70ECC
:100020000C94D70E0C94171E0C94D70E0C94D70E6C
:100030000C94D70E0C9447470C94D70E0C94D70E03
:100040000C94D70E0C94D70E0C942F470C94D70E0B
:100050000C949B480C94D70E0C94D70E0C94D70E8E
:100060000C94D70E0C94D70E0C94D70E0C94D70E7C
:100070000C94D70E0C94D70E0C94D70E0C94D70E6C
:100080000C94D70E0C94D70E0C94D70E6B1D6D1DCF
:10009000701D761D781D7C1D7F1D821DBA1D851D5E
:1000A000881D8B1DBA1DBA1D8E1DBA1DBA1DBA1D25
:1000B000BA1D911D941DBA1DBA1DBA1DBA1DBA1DD7
:1000C000BA1DBA1DBA1DBA1DBA1DBA1D971D9A1DBB
:1000D000BA1DBA1DBA1DBA1DBA1D9D1D436F6D70A4
:1000E0006F6E656E74205465737465720050726F24
:1000F00062696E672E2E2E0054696D656F757400EF
:100100004E6F20636F6D706F6E656E7400666F75F5
:100110006E642100646F6E65210053656C656374C5
:1001200000546573740041646A7573746D656E7410
:100130000053617665004C6F61640053686F7720EF
:1001400056616C7565730052656D6F76650043721C
:10015000656174650053686F7274204369726375DA
:1001600069742100426174746572793F004572724E
:100170006F7221004578697400436865636B73751D
:100180006D00424A54005343520054726961630047
:10019000505554004279652100487A005553425623
:1001A000003C4D656E7520546573743E0050574D8C
:1001B00000537175617265205761766500467265FE
:1001C000712E20436F756E746572004C6F676963A2
:1001D0002050726F626500526F7461727920456EB3
:1001E000636F646572005475726E2072696768741B
:1001F00021004F70746F20436F75706C6572004EF4
:100200006F6E650043545200537461727400436111
:1002100070204C65616B6167650043686172676956
:100220006E6700526C0052680044697363686172C3
:1002300067696E67004F666600436F6E74696E751E
:100240006974790050686F746F64696F6465006EDB
:100250006F007265760076312E35306D004D4F534C
:1002600000464554002D636800656E682E00646585
:10027000702E004947425400436773004E504E00B1
:10028000504E50006846450056626500565F475420
:10029000004963656F005666004300567468004964
:1002A0005F5200565400567265660052682D005227
:1002B000682B0052692D0052692B002B526C2D00C7
:1002C0002B52682D0031322031332032330043303D
:1002D000005230005663630041436F6D700023315C
:1002E000002332004964737300495F6C00526473E9
:1002F00000565F4753286F666629004553520049F0
:100300006600745F6F6E00745F6F666600495F0021
:10031000684645720054544C00434D4F530052748C
:10032000005231005232002D032D002D012D002DE1
:10033000022D002D06072D0066706E056D006B4DB9
:10034000EE59CB52AD4C6047BC42A43E003BBF3798
:10035000D0342932C02F8C2D872BAC29F5275E266F
:10036000E52485233D220A21EA1FDC1EDD1DED1C4C
:100370000A1C331B681AA719F01841189B17FD16A1
:100380006516D5154A15C6144714CD135813E71230
:100390007B121312AE114E11F0100000BA03870346
:1003A00058032E030703E402C302A402880281114A
:1003B000530F940D260CF40AF00911095008A607F2
:1003C0000F0789061006A3053F05E40491044304C2
:1003D000FC03B9037A033F030703D1029E026D02B7
:1003E0003E020F02E101B20182014E010F01010044
:1003F0000800400000010004010203040564006ECF
:1004000000780082009600A000B400C800DC00F074
:10041000000E012C014A0168018601A401D601FEEB
:100420000130026C02A802EE0234038E03000020A9
:100430006900F880FCE0FFC0051F000F78D39CFF27
:10044000FF8813E40C88132823E02E983A04104008
:1004500008208001020400010200000000000000EA
:10046000000000000000000000000000000000008C
:100470000000000000000000000000000082008674
:10048000008E009E00BE00FF03BE009E008E008610
:10049000008200000000000000000000008200C296
:1004A00000E200F200FA00FF03FA00F200E200C2EC
:1004B00000820000000000000000000000860186AD
:1004C00001860186018601870386018601860186F1
:1004D0000186010000000000000000780084000296
:1004E00001020102010201020184004800480048A3
:1004F0000086010000000000000000000000000075
:10050000000000820082008200820082008200C619
:1005100000BA0002000200020000000000FE030218
:1005200000020002000200030002000200020002BA
:1005300000FE0300000000000000000000FF0100BA
:1005400001000100010001000300010001000100A1
:1005500001FF010000000000004400000000001046
:100560000038002800480044008400FE0002010218
:1005700001010200000000000044000000000078BB
:100580000084000201020102010201020102018451
:10059000007800000000000000440000000000821D
:1005A0000082008200820082008200820082004479
:1005B000003C0000000000000000001C002200229F
:1005C000002200120012001200220042008200826B
:1005D0000072000000000000000000000024000085
:1005E0000000003C004000400078004400420062EF
:1005F00000DC0000000000000000000000240000FB
:100600000000003800440082008200820082004422
:10061000003800000000000000000000002400007E
:1006200000000042004200420042004200420062DC
:10063000005C000000000000000000100028001016
:1006400000000000000000000000000000000000AA
:10065000000000000000000000000000000000009A
:10066000000000000000000000000000000000008A
:10067000000000000000000000000010001000104A
:1006800000100010001000100010001000000010FA
:10069000001000000000000000000044004400447E
:1006A0000044000000000000000000000000000006
:1006B00000000000000000000000009000900048D2
:1006C000004800FE0148002400FF0124002400121D
:1006D0000012000000000000002000F8002C0024A0
:1006E000002400280030006000E000A000A000A46A
:1006F000007C0020000000000000000E02110191AB
:100700000051004E0020001000C8012802240222DF
:1007100002C1010000000000000000380044004455
:1007200000640038000C001202310221014101C2B4
:1007300000FC01000000000000000010001000108C
:100740000010000000000000000000000000000099
:100750000000000000000000000000800160003088
:100760000010000800080008000800080008001039
:10077000003000600080010000000006001800301A
:1007800000200040004000400040004000400020A9
:10079000003000180006000000000010001000D615
:1007A000006C002800380028000000000000000055
:1007B0000000000000000000000000000000000039
:1007C0000000001000100010001000FF01100010C9
:1007D0000010000000000000000000000000000009
:1007E00000000000000000000000000000000018F1
:1007F00000180010001000080000000000000000B9
:10080000000000000000000000FC000000000000EC
:1008100000000000000000000000000000000000D8
:1008200000000000000000000000000000000018B0
:10083000001800000000000000000000018000809F
:1008400000400040002000200010001000080008B8
:1008500000040004000200000000003800440044CE
:1008600000820082008200820082008200440044F4
:10087000003800000000000000000010001E001002
:1008800000100010001000100010001000100010E8
:1008900000FE0000000000000000003E004200409A
:1008A000004000400020002000100008000400026A
:1008B000007E0000000000000000003C00400040FE
:1008C0000040004000380040004000400040004030
:1008D000003C000000000000000000200030002864
:1008E0000028002400220022002100FF0020002018
:1008F00000200000000000000000007C0004000454
:100900000004001C00200040004000400040002087
:10091000001C00000000000000000078000400043B
:100920000002003A004600820082008200820044F9
:100930000038000000000000000000FE00800040C1
:10094000002000200010001000080008000800042B
:1009500000040000000000000000007C0082008213
:10096000008200640018006400420082008200429D
:10097000003C00000000000000000038004400823D
:1009800000820082008200C400B800800040004065
:10099000003C00000000000000000000000000001B
:1009A00000000018001800000000000000000018FF
:1009B000001800000000000000000000000000001F
:1009C00000000018001800000000000000000018DF
:1009D00000180010001000080000000000000000D7
:1009E0000000000001C00030000C000C003000C00E
:1009F00000000100000000000000000000000000F6
:100A000000000000000000FE0100000000FE0100E8
:100A100000000000000000000000000000000000D6
:100A200000000002000C003000C000C00030000CCC
:100A300000020000000000000000007E00C20082F2
:100A4000008000400020001000080008000000089E
:100A5000000800000000000000000078008400E2B0
:100A600000930089008900C900C900E900B203466B
:100A7000007C0000000000000000000000000010EA
:100A80000038002800480044008400FE00020102F3
:100A90000101020000000000000000000000007ED4
:100AA000008200820042003E0042008200820082FA
:100AB000007E00000000000000000000000000F8C0
:100AC0000086000200010001000100010002000692
:100AD00000F8000000000000000000000000003EE0
:100AE0000042008200820082008200820082004276
:100AF000003E00000000000000000000000000FEBA
:100B00000002000200020002007E00020002000259
:100B100000FE00000000000000000000000000FED9
:100B20000002000200020002007E00020002000239
:100B3000000200000000000000000000000000F0C3
:100B4000010C01040002000200C201020104010CB8
:100B500001F0010000000000000000000000008221
:100B6000008200820082008200FE008200820082F9
:100B7000008200000000000000000000000000FEF5
:100B800000100010001000100010001000100010E5
:100B900000FE0000000000000000000000000078DF
:100BA0000040004000400040004000400040004045
:100BB000003C000000000000000000000000008277
:100BC000004200220012000E000A001200620082A1
:100BD0000002010000000000000000000000000210
:100BE00000020002000200020002000200020002F5
:100BF00000FE00000000000000000000000000C334
:100C000000C300C700A500A500AD009900990081B0
:100C100000810000000000000000000000000082D1
:100C20000086008A008A0092009200A200A200C200
:100C300000820000000000000000000000000078BA
:100C4000008400020102010201020102010201848A
:100C50000078000000000000000000000000007E9E
:100C60000082008200820042003E00020002000278
:100C700000020000000000000000000000000078FA
:100C8000008400020102010201020102010201844A
:100C90000078004000800100000000000000003EDD
:100CA0000042004200420022001E001200220042C8
:100CB000008200000000000000000000000000FCB6
:100CC000008200020006001800600080008000C260
:100CD000003E00000000000000000000000000FFD7
:100CE0000110001000100010001000100010001083
:100CF0000010000000000000000000000000008262
:100D00000082008200820082008200820082004411
:100D1000003C000000000000000000000000000196
:100D200002020102018400840044004800480030AF
:100D30000030000000000000000000000000000182
:100D40000201021201320132012A014A01CC00CC17
:100D5000008400000000000000000000000000010E
:100D60000202018400480030003000480084000284
:100D7000010102000000000000000000000000016E
:100D8000020201840044002800100010001000102E
:100D9000001000000000000000000000000000FE45
:100DA0000100018000400020001000080004000243
:100DB00000FE010000000000000000F8000800082C
:100DC00000080008000800080008000800080008E3
:100DD0000008000800F80000000000020004000401
:100DE0000008000800100010002000200040004013
:100DF00000800080000001000000003E0020002074
:100E000000200020002000200020002000200020E2
:100E100000200020003E00000000002000200030E4
:100E2000005000580048008800840084000201003F
:100E300000000000000000000000000000000000B2
:100E400000000000000000000000000000000000A2
:100E5000000000FF03000000001000200000000060
:100E60000000000000000000000000000000000082
:100E70000000000000000000000000000000000072
:100E80000000003C00400040007800440042006246
:100E900000DC000000000000000000020002000270
:100EA0000002007A00460082008200820082004632
:100EB000003A0000000000000000000000000000F8
:100EC000000000F80004000200020002000200041A
:100ED00000F800000000000000000080008000809A
:100EE000008000B800C4008200820082008200C43A
:100EF00000BC000000000000000000000000000036
:100F0000000000780084008200FE0002000200045D
:100F100000F8000000000000000000E001180008D8
:100F2000000800FE0108000800080008000800088A
:100F300000080000000000000000000000000000A9
:100F4000000000B800C4008200820082008200C459
:100F500000BC00800040003C0000000200020002D3
:100F600000020072008A00860082008200820082F5
:100F700000820000000000000000001800180000BF
:100F80000000001E001000100010001000100010E3
:100F900000100000000000000000003000300000E1
:100FA0000000003C00200020002000200020002045
:100FB000002000200020001E0000000200020002AD
:100FC0000002008200620012000E000A003200429D
:100FD00000820000000000000000003C0020002013
:100FE0000020002000200020002000200020002001
:100FF00000200000000000000000000000000000D1
:10100000000000CD00330111011101110111011186
:1010100001110100000000000000000000000000BD
:1010200000000072008E0086008200820082008232
:10103000008200000000000000000000000000002E
:1010400000000038004400820082008200820044D8
:101050000038000000000000000000000000000058
:101060000000007A00460082008200820082004672
:10107000003A000200020002000000000000000030
:10108000000000B800C4008200820082008200C418
:1010900000BC008000800080000000000000000014
:1010A000000000E40094008C00040004000400042C
:1010B000000400000000000000000000000000002C
:1010C0000000007C00020002000C003000400042E2
:1010D000003E0000000000000000000000000008CA
:1010E000000800FE000800080008000800080008CA
:1010F00000F0000000000000000000000000000000
:1011000000000042004200420042004200420062F1
:10111000005C000000000000000000000000000073
:1011200000000001018200820042004400240028E7
:101130000018000000000000000000000000000097
:1011400000000001021102320132014A014A01CCC1
:10115000008400000000000000000000000000000B
:101160000000000201840048003000300048008484
:10117000000201000000000000000000000000006C
:1011800000000001020201020184004C004800300E
:101190000030001000080007000000000000000000
:1011A000000000FE01800040002000100008000444
:1011B00000FE010000000000000000E00010001030
:1011C0000010001000100010000C001000100010A3
:1011D0000010001000E000000000001000100010DF
:1011E000001000100010001000100010001000107F
:1011F00000100010001000000000001C0020002063
:10120000002000200020002000C00020002000203E
:1012100000200020001C0000000000000000000072
:10122000000000000000000E023102C101000000B9
:10123000000000000000000000FF03EF03E103EFE7
:1012400003EF03EF03EF03EF03EF03EF03EF03EF0E
:10125000030103FF03FF03FF03FF03C103BD03BF3C
:1012600003BF03BF03DF03DF03EF03F703FB03FD4C
:10127000038103FF03FF03FF03FF03C303BF03BF98
:1012800003BF03BF03C703BF03BF03BF03BF03BF46
:1012900003C303FF03FF03FF03FF03FF03FF03FF7A
:1012A00003FF037B0333038703CF03870333037BEE
:1012B00003FF03FF03FF03FF03000000000000FF24
:1012C00003FF03030003000300030003000300FF08
:1012D00003FF03000000000000000000000000FF0A
:1012E00003FF030300FB01FB01FB01FB010300FF04
:1012F00003FF03000000000000000000000000FFEA
:1013000000FF00800080030003000380038000FFD3
:1013100000FF00000000000000000000000000FFCF
:1013200000FF008000BF033F033F03BF038000FFB7
:1013300000FF00000000000000FF0102030405069A
:10134000076F70717273747576FFFFFFFFFFFFFF09
:10135000FFFFFFFFFFFFFFFFFF1011121314151611
:101360001718191A1B1C1D1E1F2021222324252695
:101370002728292A2B2C2D2E2F3031323334353685
:101380003738393A3B3C3D3E3F4041424344454675
:101390004748494A4B4C4D4E4F5051525354555665
:1013A0005758595A5B5C5D5E5F6061626364656655
:1013B0006768696A6B6C6D6EFFFFFFFFFFFFFFFFE1
:1013C000FFFFFFFFFFFFFFFFFFFFFFFFFFFFFFFF2D
:1013D000FFFFFFFFFFFFFFFFFFFFFFFFFFFFFFFF1D
:1013E000FFFFFFFFFFFFFFFFFF0FFFFFFFFF05FFF7
:1013F000FFFFFFFFFFFFFFFFFFFFFFFFFF08FFFFF4
:10140000FFFFFFFFFFFFFFFFFFFFFFFFFFFFFF09E2
:10141000FFFFFFFFFF0AFFFF0BFFFFFFFF0CFFFFB8
:10142000FFFFFFFFFFFFFFFFFFFFFFFFFFFFFF0DBE
:10143000FFFFFFFFFF0EFFFFFF0000100000001086
:101440000E000010010000900000009000000090CD
:1014500000001890000018900000180801001804FF
:101460000E0018020000180100009800000058004B
:101470000000380000FE1F00000038000000580087
:10148000001E98040022180700221807002298075F
:10149000001E18880F221890002218900022009039
:1014A000001E0090070000900000009000000090D7
:1014B000000000900F0000000000001000000090ED
:1014C0000F000090000000900000009000000090CD
:1014D0000700189000001890000018890000188775
:1014E0000F0018070000180F0000980000005800B7
:1014F0000000380000FE1F00000038000000580007
:10150000001E980000221801002218020022180470
:10151000001E18080E2218100122189000220090B8
:10152000001E0090000000900000009000000010DD
:10153000010000100E0000000000001000000090EC
:101540000300009004000090080000900800009044
:1015500008003090080030900800F69F04003680A4
:1015600003003600001C06000022060000023602BE
:10157000000236030002F61F003A3613002236122C
:1015800000220610001C0610000036100000361065
:1015900000FEF71F07003090080030900000009018
:1015A0000000001007000010080000100800009064
:1015B00008000010070000000000001000000010EC
:1015C000070000900800009000000090000000104C
:1015D000070030100800301008FEF79F0800361092
:1015E00007003610001C06100022061000023611FB
:1015F000000236130002F61F003A360300223601BD
:1016000000220600001C0600000036000000360024
:101610000000F69F03003090040030900800009016
:10162000080000900800009008000090080000905A
:101630000400009003000000000000100000009073
:101640000300009004000090080000900800009043
:1016500008003090080030900800F69F04003680A3
:1016600003003600001C360000223600000236025D
:10167000000236030002F61F003A3613002236122B
:1016800000223610001C3610000036100000361004
:1016900000FEF71F07003090080030900000009017
:1016A0000000001007000010080000100800009063
:1016B00008000010070000000000001000000010EB
:1016C000070000900800009000000090000000104B
:1016D000070030100800301008FEF79F0800361091
:1016E00007003610001C361000223610000236119A
:1016F000000236130002F61F003A360300223601BC
:1017000000223600001C36000000360000003600C3
:101710000000F69F03003090040030900800009015
:101720000800009008000090080000900800009059
:101730000400009003000000000000100000009072
:101740000300009004000090080000900800009042
:101750000800309008003090080030900400F09F9E
:10176000031C300000223000000230000002300074
:1017700000023000003A3000002230000022300029
:10178000001C3000000031000000330000FEFF1F8D
:1017900000003310070031900800309000000090E6
:1017A0000000001007000010080000100800009062
:1017B00008000010070000000000001000000010EA
:1017C000070000900800009000000090000000104A
:1017D00007003010080032100800339008FEFF1F89
:1017E0000700330000003200001C300000223000EF
:1017F000000230000002300000023000003A3000E9
:101800000022300000223000001C30000000F01FD9
:1018100000003090030030900400309008000090E9
:101820000800009008000090080000900800009058
:1018300004000090030000000000001000000010F1
:101840000E000010010000900000009000000090C9
:101850000000309000003090000036100100360883
:101860000E00360400003602000036010000B6000B
:101870000000760000FE3700000076000000B60091
:10188000001C36090022360E0002360E0002360F0A
:10189000000236900F3A30900022309000220090E3
:1018A000001C0090070000900000009000000090D5
:1018B000000000900F0000000000001000000090E9
:1018C0000F000090000000900000009000000090C9
:1018D0000700309000003090000036920000368EF5
:1018E0000F00360E0000361E000036010000B60064
:1018F0000000760000FE3700000076000000B60011
:10190000001C3601002236020002360400023608AE
:10191000000236100E3A3010012230900022009062
:10192000001C0090000000900000009000000010DB
:10193000010000100E00000000000071000000898E
:101940000000008900000089000000F90000008903
:101950000000008900000089000000010000000173
:101960000000FFFF0100FEFF0000FC7F0000F83FC9
:101970000000F01F0000E00F001CC00700228003E1
:10198000000200010002FFFF013AFFFF0122800177
:1019900000224001001C20E1000010110000080995
:1019A00000FE070900000009000000090000001106
:1019B000000000E1000000000000000100000049FC
:1019C00000000049000000490000004900000049F3
:1019D00000000049000000010000000100C0FFFFFE
:1019E00007C0FFFF070008FE03001CFE03001CFCED
:1019F00001003EFC01003EF800007FF800007F700F
:101A0000008CFF700092FF2000C2FFFF07DAFFFF8B
:101A100007120801000C040100000211000001116E
:101A200000FE001100000011000000110000001174
:101A300000000001000000000000007100000089AB
:101A4000000000890000008900FE07F900000889F5
:101A500000001089001C2089002240010002800142
:101A60000002FFFF013AFEFF0022FC7F0022F83F48
:101A7000001CF01F0000E00F0000C0070000800302
:101A8000000000010000FFFF0100FFFF0100000156
:101A900000000001000000E100000011000000094A
:101AA000000000090000000900000009000000110A
:101AB000000000E1000000000000001000000090A5
:101AC00004000090040000900400009004000090C6
:101AD0000400309004003090043E30100040F21FAB
:101AE000008033000080330000C033000000340069
:101AF000003E3800000230000002300000023000DA
:101B0000001E300000023000000230000002F01F12
:101B1000003E3010000030100100301001000010B5
:101B20000100001001000010010000100100001071
:101B30000100001000000000000000000000000094
:101B4000000000000000F0010000FC070000FE0F94
:101B500000000F1E0000071C0080033800800338BF
:101B600000800338000000380000001C0000001E48
:101B70000000000F000080070000C0030000E0012B
:101B80000000F0000000F0000000F0000000F00095
:101B90000000000000000000000060000000F000F5
:101BA0000000F000000060000000000000000000E5
:101BB0000000000000000000000000480400004891
:101BC00002000048010000C8000000480100004871
:101BD0000200004804000408000004080000040893
:101BE0000000FCFF1F0000081000001C1000003E59
:101BF0001000007F000080FF0000C0FF0100E0FF38
:101C00000300F0FF0700F8FF0F00FCFF1F000008B3
:101C100000000008000000080000008803000048E1
:101C200004000048040000C8070000480400004801
:101C300004000048040000000000000000008000D4
:101C40000000800000008000000080000000800094
:101C50000000800000008000000080000000800084
:101C6000000080000000FF7F0000000000C0FFFFB8
:101C700001C0FFFF01C0FFFF01C0FFFF01C0FFFF68
:101C8000010000000000FF7F0000800000008000D5
:101C90000000800000008000000080000000800044
:101CA0000000800000008000000080000000800034
:101CB0000000000000000000000000001100000013
:101CC000110000C0170000001100E03F11002020AB
:101CD00010003FE01F0021201000E13F101C010018
:101CE000102401001044F13F10441120104411E071
:101CF0001F241120001C11200000112000FE1F20B5
:101D0000000010200000102000001020000010E053
:101D10001F0010201000F03F100000001000000015
:101D2000100000001000000010000000100000C0B3
:101D3000170000001000000000050A0605060A054D
:101D40000A0609060A050A0609060A050A06090618
:101D50000A050A0605060A050A06050A06090A060C
:101D6000090A06000000000000000000110A060039
:101D700011241FBECFEFD0E4DEBFCDBF11E0A0E045
:101D8000B1E0E6EEFAE900E00BBF02C007900D9269
:101D9000A630B107D9F712E0A6E0B1E001C01D926C
:101DA000AD30B107E1F70E941A170C94714D0C94F5
:101DB0000000982F8091BA01981719F48091BD0105
:101DC00008958091BB01981719F48091BE01089580
:101DD0008091BF0108950E94A94B8FEF97E09093E7
:101DE0002E0180932D0181E00E94662884E991E014
:101DF0000E942B2AF89488E10FB6F8948093600033
:101E0000109260000FBE469883B7817F846083BFC5
:101E100083B7816083BF889583B78E7F83BF089522
:101E200082E00E94662880E091E00E942B2A8DE0EB
:101E300091E00E94662B8EE08093100183E00E9467
:101E4000042B8091B8018F5F8093B8010895CF93E0
:101E5000DF9388EC8093AD0183E00E941423EC01B2
:101E60008B5C9840835F9140C8F46091B20170919F
:101E7000B30180E090E024EC39E040E050E00E94C3
:101E8000374C9E0140E050E00E94964C3093B301E5
:101E90002093B2018091AB01846003C08091AB01BB
:101EA0008B7F8093AB018EE10E9414239093B1014C
:101EB0008093B00188EC8093AD018EE10E941423E1
:101EC0002091F801332727FD3095280F391F3093D3
:101ED000B1012093B00189E18093AD01DF91CF91F1
:101EE00008951F938091B601882359F080EE97E002
:101EF00090932E0180932D018CE991E00E94512A4C
:101F000029C08091B4019091B50129E180309207F8
:101F100040F480E098EF90932E0180932D018CE0A7
:101F20000AC0885E9C4148F480EE9FEF90932E019A
:101F300080932D018DE01EE008C080EE97E0909325
:101F40002E0180932D018DE01FE00E94BF4A812F5A
:101F50000E94BF4A0E94842980EE97E090932E0150
:101F600080932D018091B4019091B5016AE070E0F9
:101F70000E946F4C80E090E04EEF26E50E947328AF
:101F80001F91089585E00E941423A0E0B0E0BC01F9
:101F9000CD012EEB3FE040E050E00E94374C28EEB0
:101FA00033E040E050E00E94964C31990DC0205142
:101FB0003E4F3093B5012093B40181E08093B60188
:101FC00084E68093B70108952E5D3E4F3093B501AE
:101FD0002093B4011092B60184E68093B70120509B
:101FE000394180F480EE97E090932E0180932D018B
:101FF0000E94A94B0E94710F88EB9BE00E94D41DA8
:102000000E94EB0E0895FC018181608140E00E94F6
:10201000E131609160017091610180916201909164
:10202000630140915F0126E40E94732808950E9495
:1020300084298091080182FF03C089E692E002C0F2
:102040008EE692E00E940A2A08950E9484298091D7
:10205000080180FF02C08EE401C080E50E94BF4AF3
:1020600085E692E00E940A2A08951F93162F0E9487
:10207000882981E00E94BF4A812F0E9488291F91F0
:1020800008950F931F93CF93DF938091080180FFF2
:1020900005C00091BC011091BB0104C00091BB01BF
:1020A0001091BC01802F612F0E94FC33EC0100973E
:1020B00031F00E948429802F612F0E943510809179
:1020C000080183FD50C08091C3019091C401892B08
:1020D00081F08BE992E00E94582B6091C3017091CE
:1020E000C401882777FD8095982F4DEF26E50E9443
:1020F0004A2988E792E00E94582B6091D4017091A0
:10210000D5018091D6019091D7014091D80126E464
:102110000E9473288091C1019091C201892B71F0B6
:102120008DEE92E00E94582B6091C1017091C20126
:1021300080E090E04EEF24E00E947328209799F011
:102140000E94DF2A81E00E94BF4A0E94842986E91A
:1021500092E00E94512A6A817B8180E090E04DEFFD
:1021600026E50E947328DF91CF911F910F9108956A
:102170000F931F93062F142F442319F00E948829D0
:1021800002C00E94A52983E393E00E940A2A11233A
:1021900021F0802F0E94882903C0802F0E94A5294A
:1021A0000E94842960911501709116018091170198
:1021B000909118014091140124E00E9473281F910E
:1021C0000F91089580E00E94A52981E00E94A52931
:1021D00082E00E94A5298DE30E94BF4A80E00E9410
:1021E000882981E00E94882982E00E948829089538
:1021F00080E991E060EE7FEF0E94182A0E94DF2ABA
:102200000E94E21083EA92E00E94582B60914F01F5
:102210007091500180E090E04DEF26E50E94732818
:1022200086E992E00E94582B60914D0170914E0119
:1022300080E090E04DEF26E50E947328089580919C
:102240000701823219F486E891E002C08AE891E041
:1022500060EE7FEF0E94182A0E94DF2A0E94E2109F
:102260008091C1019091C201892B71F08CE892E0BC
:102270000E94582B6091C1017091C20180E090E0F2
:102280004DEF26E50E94732808950E94EC2783E70E
:1022900092E00E940A2A0E9425100E9417100E94B4
:1022A000F9270E94DF2A0E94E2100E94411008953F
:1022B000EF920F931F93CF93DF93EC016091CF01C7
:1022C0007091D0018091D1019091D2014091D301C0
:1022D00002E310E020E030E057EFE52E0E94051900
:1022E00087FD10C0CE010E94582B6091CF017091E4
:1022F000D0018091D1019091D2014091D30121E48C
:102300000E947328DF91CF911F910F91EF90089554
:102310000E94EC278091080184FF05C08DE592E0C2
:102320000E940A2A03C08AE40E94BF4A81E692E022
:102330000E940A2A0E9425108091080184FF02C091
:102340000E9417100E94F9270E94DF2A0E94E210C3
:102350008091080184FF02C00E9441108091080111
:1023600083FF1EC084EE92E00E9458118091C50147
:102370009091C601892BA1F081EF92E00E94582B29
:102380000E94DF2A0E9484296091C5017091C601D4
:10239000882777FD8095982F4DEF26E50E944A29E2
:1023A0000895A0E0B0E0E7EDF1E10C94DB4C809102
:1023B000080180FF0CC0CCE7D2E0E090BA01F090B9
:1023C000BC010091BB011F2DAE2CB02E0BC0C0E88C
:1023D000D2E0E090BC01F090BA011091BB010E2D4B
:1023E000A12EBF2C82E891E060EE7FEF0E944B2A85
:1023F000CE0160EE7FEF0E94182A8091080182FFD3
:1024000003C08BE20E94BF4A0E94DF2A0E94E210B2
:10241000812F602F0E94FC33EC01009731F00E9465
:102420008429812F602F0E9435108F2D6E2D49E158
:102430000E94A02E813061F40E94DF2A8091BA01AF
:102440006091BC0141E00E94B81084E080933101AA
:1024500084E892E00E94582B6091C7017091C801F6
:102460008091C9019091CA0140E020E00E94732848
:102470000E9484298091C00180FF02C085E603C0CC
:1024800081FF03C083E60E94BF4A8DE093E00E9473
:10249000712B8091C00180FF02C083E403C081FFE3
:1024A00003C085E40E94BF4A0E9484296091C5014F
:1024B0007091C601882777FD8095982F4AEF21E417
:1024C0000E944A29CD2BE1F48091CB019091CC015F
:1024D000A091CD01B091CE010097A105B10581F089
:1024E00080E193E00E94582B6091CB017091CC0168
:1024F0008091CD019091CE0140E020E00E947328B0
:102500008E2D6F2D0E94FC33EC01009719F400E032
:1025100010E030C088E892E00E94582B0A811B81AD
:102520002C813D81C090C701D090C801E090C901C5
:10253000F090CA0144E6C416D104E104F10498F015
:10254000C801821B930B63E070E00E94834C4AEF4A
:10255000C416D104E104F10418F4061B170B03C0E0
:102560008B01020F131FB80180E090E04DEF26E5CC
:102570000E94732881E992E00E94581181E0053F92
:102580001807E0F08A2D6B2D0E94FC33EC010097B8
:10259000A9F08A819B81825C914080F40E94DF2AAD
:1025A0008A2D6B2D0E9435100E9484296A817B81BF
:1025B00080E090E04DEF26E50E947328CDB7DEB7AE
:1025C000EAE00C94F74CA1E0B0E0E9EEF2E10C9403
:1025D000DB4C0E94EC2780910C01813059F4F09083
:1025E000880167E8A62E61E0B62E00E010E055E015
:1025F000E52E21C1823039F510918701D0908D01EF
:102600001D1549F4C0908801D0908E0181E0898326
:1026100045E0F42E52C0F090880180918E01F816AA
:1026200059F4C12E37E8A32E31E0B32E85010A5F9D
:102630001F4F25E0E22E03C1181709F0F1C0FD1469
:1026400009F0EEC034C0833041F520E046E0249F1D
:1026500050011124E7E8F1E0AE0EBF1E30E0349FD8
:102660008001112409571E4F231741F0F501918174
:10267000F8018081981711F425E035E03F5F333091
:1026800070F32F5F233018F3253010F400E010E0D2
:10269000F501F18093E0E92ECEC08BE293E00E9439
:1026A000512A80910C01805D0E94BF4ACBC0F12E5F
:1026B000198285E0C82E05E0D02E1330A0F4809159
:1026C00088010E94A5298FE293E00E940A2A812FA7
:1026D0000E94A529E12E17E8A12E11E0B12E850157
:1026E0000A5F1F4F16C0E12EB7E8AB2EB1E0BB2E3C
:1026F00085010A5F1F4FF50180810E94A5298BE2A9
:1027000093E00E940A2A8F2D0E94A5290115110528
:1027100099F0EF1441F0F3E0FE1528F0F801F18094
:102720008BE293E004C0F801F0808FE293E00E9416
:102730000A2A8F2D0E94A5290E94F927F4E0FC1592
:10274000F0F08C2D6D2D49E10E94A02E8130B9F45E
:102750000E94842982E08E1518F080E892E002C081
:102760008CE792E00E940A2A8FE30E94BF4A0E94EF
:10277000DF2A8C2D6D2D40E00E94B810198286E969
:1027800092E00E94582BF5016281738180E090E015
:102790004DEF26E50E9473280E948429011511053A
:1027A00019F5F501848195818A3F910578F488E2D5
:1027B0000E94BF4AF5016481758180E090E040E0AD
:1027C00020E00E94732889E20E94BF4AF5018181BE
:1027D000608140E00E948F2381E00E947D358FE977
:1027E00092E00E94581109C0F8016281738180E073
:1027F00090E04DEF26E50E947328F981F13011F544
:1028000089E992E00E94582BC5010E94031001152E
:102810001105C1F00E948429C8010E94031012C052
:10282000A7E8AA2EA1E0BA2E85010A5F1F4FF5E0A6
:10283000EF2EE5E0FE2E75E0C72E65E0D62E81E096
:10284000898359CF2196EAE00C94F74CEF920F93CD
:102850001F93CF93DF9360916E0170916F01809110
:1028600070019091710100916001109161012091BE
:1028700062013091630140916D01E0905F010E941F
:102880000519813019F4CBE6D1E002C0CDE5D1E0E5
:1028900060917C0170917D0180917E0190917F011A
:1028A0000B811C812D813E8140917B01EA800E9439
:1028B0000519813011F4C9E7D1E00E94EC27888125
:1028C0000E94A52987E293E00E940A2A89810E943A
:1028D000A5290E94F9270E94DF2A6B817C818D81C6
:1028E0009E814A8126E40E947328CE010E946C32A8
:1028F0008C018FEF0F3F180749F00E948429B8011F
:1029000080E090E04EEF24E00E9473288B859C8548
:10291000892B61F089EE92E00E94582B6B857C85B3
:1029200080E090E04D8521E40E947328DF91CF91F3
:102930001F910F91EF900895809108018130C9F4A3
:1029400084E691E00E940A2A0E94DF2A80910D010C
:102950000E94A5290E9442290E94842960910E01AB
:1029600070910F0180E090E04DEF26E50E94732802
:102970000895823011F40E94100F08956F927F9293
:102980008F929F92AF92BF92DF92EF92FF920F933E
:102990001F93DF93CF9300D00F92CDB7DEB7A090F7
:1029A0002D01B0902E0189836A834B834E010894D8
:1029B000811C911CE0E0EE2EE1E0FE2E840174E02B
:1029C000672E712C6C0E7D1E802F8819F801D08027
:1029D000DD20A1F00E94A5290E944229F7018081F3
:1029E000918190932E0180932D018D2D0E94BF4ADD
:1029F000B0922E01A0922D010E9484290F5F1F4FDB
:102A000082E090E0E80EF91E06151705E9F60F9032
:102A10000F900F90CF91DF911F910F91FF90EF904A
:102A2000DF90BF90AF909F908F907F906F900895B0
:102A3000AF92BF92CF92DF92EF92FF920F931F93CC
:102A4000A22E0E947724182F0E94DF2A85E40E947C
:102A5000BF4ABB24CC24DD24C601B50140E020E000
:102A60000E94572A0E9484291123F1F00091280125
:102A70008091CF019091D0016091D301A7010E9474
:102A80000F28123099F40E94DF2A802F60912901CB
:102A90000E9433498091D4019091D5016091D80171
:102AA000A7010E940F2802C00E9446291F910F9182
:102AB000FF90EF90DF90CF90BF90AF900895AF92CE
:102AC000BF92CF92DF92EF920F931F93A22E102FFF
:102AD0000E947724082F0E94DF2A85E40E94BF4AC3
:102AE000BB24CC24DD24C601B50140E020E00E94D7
:102AF000572A0E948429812F6AE00E94564C682F31
:102B000070E080E090E040E01A3008F441E025E217
:102B10000E94572A0E9484290023F1F01091280175
:102B20008091CF019091D0016091D3014E2D0E94F0
:102B30002329023099F40E94DF2A812F6091290114
:102B40000E9433498091D4019091D5016091D801C0
:102B50004E2D0E94232902C00E9446291F910F91E9
:102B6000EF90DF90CF90BF90AF900895A0E0B0E0DD
:102B7000ECEBF5E10C94D64C80910B01813049F4DB
:102B800010911201B2E1CB2EB1E0DB2EAA24BB24BE
:102B900062C0833041F0A2E1CA2EA1E0DA2EF7E054
:102BA000AF2EB12C4BC060911C0170911D01809122
:102BB0001E0190911F0100911501109116012091A5
:102BC00017013091180140911B01E09014010E94FF
:102BD0000519813019F4C9E1D1E002C0C2E1D1E0A8
:102BE000609123017091240180912501909126012B
:102BF0000B811C812D813E8140912201EA800E943F
:102C00000519813011F4C0E2D1E081E0C231D8076A
:102C100031F4E7E0CE2ED12CCC0EDD1E04C072E1E3
:102C2000C72E71E0D72E67E0A62EB12CAC0CBD1CD0
:102C3000AC16BD0629F45EE0A52EB12CAC0CBD1C73
:102C4000F6011081F5018081181729F0818118178C
:102C500011F0F60111810E94EC27F60180818117A5
:102C600011F4F60181810E94A52983E393E00E947B
:102C70000A2A812F0E94A529A114B10461F083E3DF
:102C800093E00E940A2AF5018081811711F4F50171
:102C900081810E94A5290E94F9270E94DF2AF6015E
:102CA0006381748185819681428124E00E9473282A
:102CB000A114B10409F472C00E948429F501638152
:102CC000748185819681428124E00E947328F601F7
:102CD0006381748185819681F50103811481258149
:102CE0003681F6014281F501E2800E948F19582E4B
:102CF000F60163817481858196814281252D0E9430
:102D00006A193B014C01F5016381748185819681CB
:102D10004281252D0E946A197B018C01E60CF71C6B
:102D2000081D191DE114F1040105110509F47DC008
:102D30008EE193E00E94582BC801B701452D24E095
:102D40000E94732881E293E00E94582B44E6A42E4F
:102D5000B12CC12CD12CC401B30124E630E040E0F9
:102D600050E00E94374CA80197010E94964C7901CF
:102D70008A01C801B70140E025E20E9473280E9441
:102D8000842984E293E00E94512AAE18BF08C00A49
:102D9000D10AC601B50140E025E212C0C6010E9479
:102DA0000A3D813081F40E9484296091FD01709177
:102DB000FE018091FF01909100024091FC0128E406
:102DC0000E94732832C0F6016381748185819681E7
:102DD000428128E102E334E0E32E0E945F15F60110
:102DE0006381748185819681428128E1B6E0EB2E72
:102DF000B6EFFB2E0E941815F60163817481858160
:102E00009681428128E10AE0A4E0EA2E0E945F1543
:102E1000F6016381748185819681428128E1F0E227
:102E2000EF2EF9E6FF2E0E941815CDB7DEB7EFE0C2
:102E30000C94F24CEF92FF920F931F93CF93DF937A
:102E400080E487B988B980E185BF87E880937A00FC
:102E500014B7187084B7877F84BF88E10FB6F894E1
:102E600080936000109260000FBE81E08093AB0100
:102E700082E08093AC010E9475480E945C480E94E9
:102E8000044C1123C9F00E94A94B80E098EF909365
:102E90002E0180932D0182E00E94662888EF90E049
:102EA0000E942B2A8DE691E00E94662B80ED97E030
:102EB0000E94D41D469885C1189B02C010E00FC027
:102EC00084E190E00E94D41D189905C01F5F15365B
:102ED000B9F713E07EC1103108F07AC111E00E9409
:102EE000B74B109227018FEF97E090932E018093BC
:102EF0002D0142983A9A133019F40E94261E04C0FC
:102F000081E061E00E94CA2282E00E9466288CED86
:102F100090E00E942B2A86E592E00E94662B80EECC
:102F200097E090932E0180932D018CED95E00E9407
:102F3000D41D1092B80189E18093AD0181E08093A6
:102F4000AE018093AF018CE993E19093B30180933C
:102F5000B2012FE088E190E00FB6F894A895809335
:102F600060000FBE209360007894EE24E39403E0A9
:102F700012E0F12EC1EAD1E010920701109208018F
:102F80001092090110920A0110920C0110920B018B
:102F90001092C0011092C2011092C1011092C4019E
:102FA0001092C3011092C6011092C5011092C70180
:102FB0001092C8011092C9011092CA011092CB015F
:102FC0001092CC011092CD011092CE011092CF013F
:102FD0001092D0011092D1011092D20110924E01A4
:102FE00010924D011092500110924F011092360133
:102FF000E09238010093310111B8F09227010E944C
:10300000A94B0E94270F0E94C20F0E94710F81E0FE
:103010000E94662880912A01815080932A018DEEBA
:1030200090E00E942B2A80912A018F5F80932A01D1
:103030000E94D326809107018130E1F180E061E0B8
:1030400042E00E94BE2581E060E042E00E94BE2591
:1030500080E062E041E00E94BE2582E060E041E065
:103060000E94BE2581E062E040E00E94BE2582E031
:1030700061E040E00E94BE250E947E250E94C83388
:1030800080910701882311F08A30A1F40E948429DD
:1030900083E40E94BF4A82E060E040E00E94E131A8
:1030A00082E061E041E00E94E13181E060E042E0E5
:1030B0000E94E1310E94A94B0093270180E00E9409
:1030C000BC1D809107018E3111F18F3160F48A307F
:1030D00069F18B3018F4813079F513C08B3049F1E8
:1030E000843151F511C08132D9F0823228F48F3108
:1030F00089F0803209F511C0823291F08332E1F417
:1031000012C00E949C141AC00E94E31217C00E94B1
:10311000D11114C00E94881111C00E9445110EC027
:103120000E941F110BC00E94F81008C00E94B61523
:1031300005C00E94261402C00E94100F8091070152
:103140008E3130F080913101882311F00E94042BE0
:10315000809107018A3010F01092B80182E00E943D
:103160008A48109227010E94C92AD0933E01C09339
:103170003D0188EB9BE06EE30E944F1A182F8823D5
:1031800029F48091B801853050F40CC0833049F0A7
:10319000823029F0853029F0843621F4DFCF17E61C
:1031A00001C015E681E00E948A48153629F40E9484
:1031B0005E1D8936E1F7D2CF173609F0DDCE0E94C9
:1031C000EB0E80E090E0CDB7DEB7E6E00C94FB4C70
:1031D00012E08091AB018E7F8093AB0180CE1F9374
:1031E00011E00BC02AE030E040E050E00E94964C35
:1031F000C901DA01BC01CD011F5F6A30710581058B
:10320000910580F7812F1F9108956F927F928F9281
:103210009F92AF92BF92CF92DF92EF92FF920F9365
:103220001F933B014C01F42E580169010E2D0E94A1
:10323000EF18182FC601B5010E94EF186114710430
:103240008104910491F1A114B104C104D10431F1BC
:10325000EF2CE10E800F8E1534F1E81669F51E2D66
:103260001F19E01A0BC0C601B5012AE030E040E0AA
:1032700050E00E94374C5B016C01E394E1169CF333
:103280000BC0C401B3012AE030E040E050E00E94EE
:10329000374C3B014C011F5F1E159CF3A614B7046D
:1032A000C804D90410F481E008C06A147B048C04BB
:1032B0009D0410F080E001C08FEF1F910F91FF90EF
:1032C000EF90DF90CF90BF90AF909F908F907F90C6
:1032D0006F9008950F931F93142F022F9B01AC0141
:1032E00017C0101754F4B901CA012AE030E040E0D9
:1032F00050E00E94964C1F5F0BC0B901CA012AE042
:1033000030E040E050E00E94374C9B01AC0111508E
:10331000101739F7B901CA011F910F910895AF92A3
:10332000BF92CF92DF92EF92FF920F931F93F42EF2
:10333000580169010E2D0E94EF181F2D180FC601AC
:10334000B5010E94EF188E0D811744F4812F8F195B
:1033500085308CF04F2D4450480F10C0982F9E1987
:10336000181734F495304CF04E2D4450490F06C0D8
:103370001F19911714F44F2D01C0402F842F1F9156
:103380000F91FF90EF90DF90CF90BF90AF90089596
:10339000382FE82FF92F01C031969E2F931B84916F
:1033A0008823D1F7892F0895681781F480EE9FEF65
:1033B00090932E0180932D018AE20E94BF4A80EEF5
:1033C00097E090932E0180932D0108950E94842907
:1033D000089503C00E941E4CA895189BFBCF84EF54
:1033E00091E00E94D41D08951F9317B187B1877E85
:1033F00087B90E94244C86B184FD02C030E001C030
:1034000032E083FD316017B980913A01813031F4A7
:103410003093390110923A0110923C0180913C01A5
:10342000882329F08A3F18F48F5F80933C01209114
:10343000390130933901231779F1832F822780FFD7
:103440008695813031F5220F82E790E002C0959594
:1034500087952A95E2F78370831711F095E001C0F4
:1034600094E080913B018F5F80933B0180913A0112
:10347000981729F081E080933B0180933C01909361
:103480003A0180913B01843038F010923B01892F42
:1034900004C081E080933A0180E01F910895A4E088
:1034A000B0E0E5E5FAE10C94D34C6C01162F81E015
:1034B00080933A0110923B018093370162FF08C06C
:1034C0008091AB0180FF03C0CC24DD2401C01C7FB0
:1034D00080912D0190912E019A83898380EE9FEF38
:1034E00090932E0180932D0115FF21C020913D0165
:1034F000822F90913E01FC0101C031969E2F921BBC
:1035000084918823D1F7915080912A01981778F4FB
:10351000A82EA91A1C7F8A2D60912B010E94334985
:1035200080913D0190913E010E940A2A01C0AA2487
:10353000E12FF0E0FC83EB834F01F3E08F2299242D
:103540008114910409F4C0C081E00E94324BBCC0D8
:10355000C114D10451F083E0C816D10410F400E086
:1035600004C0EEEFFFEFCE0EDF1E18993CC08EE1D7
:1035700090E00E94D41D10E009C0189909C01F5F97
:103580001B3130F48AE090E00E94D41D0023A9F79B
:103590001B3118F072E0F72E24C08B819C81892B9F
:1035A00019F4FF24F3941DC082E390E00E94D41D1F
:1035B000FF24F39414E118990DC08EE190E00E946D
:1035C000D41D189907C088EC90E00E94D41D63E0D8
:1035D000F62E11E011508AE090E00E94D41D1123D4
:1035E00051F700E067C00E94F419882361F1EE20D2
:1035F00011F4F82E03C08F1509F084C0E394809174
:103600003C016E2D0E94564C282F829DC001112432
:1036100054E0969587955A95E1F7893208F088E24B
:10362000982F969596959695933010F443E0342E06
:10363000E31421F09CE0B90EB20E05C087E0891BAF
:10364000809337015FC0EE2029F080913C018B15FB
:1036500008F058C08091AC0183FF03C034E6F32E1C
:1036600051C082E090E00E94D41D1F5F812F68E26C
:103670000E94564C992369F48091B701823020F062
:1036800081508093B70105C06114710411F00E944C
:10369000C20F183C79F44114510459F0013029F457
:1036A00080E00E94324B02E004C081E00E94324B75
:1036B00001E010E08091AC0180FF21C08091AC015D
:1036C0008E7F8093AC011EC0FF2401E010E022E356
:1036D000B22EEE2492E0392E4B805C80E2E04E2246
:1036E00055246B807C80F0E16F22772488E1282EBE
:1036F0008B819C81887090709C838B8329CF002361
:1037000009F026CFE981FA81F0932E01E0932D0193
:103710008114910419F080E00E94324BAA2041F0FC
:103720008A2D60912B010E94334980E00E94414B19
:10373000F09236018F2D2496E2E10C94EF4CA0E03C
:10374000B0E0E5EAFBE10C94D44C182F362E3A0198
:103750004901C82ECA94D0902B01DA940E94EC271C
:103760000E9442290E94F927FF24EE2402E04D2CFA
:103770004A94512EBC2CBD18B394A02EAD1881E0F4
:10378000D81611F40F5FEF2CCE2DD0E0CC0FDD1F3B
:10379000C60DD71D10E02EC0612F6E5F81E00E9424
:1037A000334981E0D81629F0812F8E0D6F2D0E94AC
:1037B000D4190230D0F081E0381629F4888199813B
:1037C0000E940A2A09C0FE016591749180E090E090
:1037D00040E020E00E9473288114910419F0C40194
:1037E0000E940A2A80E00E94414B1F5FC11608F424
:1037F0001D2D22961D1580F281E0D81649F4809186
:103800002A0160912B010E9433498CE30E94BF4A38
:1038100080E090E060E10E944F1A813011F41F2D8A
:103820003FC0843019F41F2D01E01DC0853019F010
:103830001F2D01E033C0FF2039F4CD1408F43FC040
:10384000EB2C1C2D02E039C01F2D11501E15C1F5A7
:10385000EE20B1F1FD1410F4EE2401C0EA0C81E079
:10386000F816D1F402E01C1531F41D1508F00F5FB5
:1038700010E0EE2422C0912F9F5F842D8E0D9817AB
:10388000D9F49C15C8F4852D891B8D1510F0E12EF7
:1038900001C0EB2C0F5F10C08F2D02E0823069F465
:1038A0000E94A94B84EF91E00E94D41D812FCDB7D7
:1038B000DEB7E1E10C94F04C192FF12E60CF1C2DF6
:1038C00001E0FBCFA3E3B0E0E8E6FCE10C94E34CBD
:1038D0008DEA91E09B8B8A8B86E0898381EB91E076
:1038E0009D8B8C8B87E08A838BEC91E09F8B8E8BFA
:1038F00080E28B8389E392E0998F888F81E28C83C9
:103900008BEF92E09B8F8A8F89E08D838EE092E02F
:103910009D8F8C8F83E18E838DEB91E09F8F8E8FB7
:103920008AE08F8387ED91E099A388A38BE0888755
:1039300082EF91E09BA38AA38EE0898784E492E0E2
:103940009DA38CA387E28A8781E291E09FA38EA347
:1039500081E08B8786E291E099A788A782E08C8737
:1039600081E391E09BA78AA783E08D8786E391E0BE
:103970009DA78CA784E08E878BE391E09FA78EA7FD
:1039800085E08F8785E392E099AB88AB84E1888BF3
:1039900084E791E09BAB8AAB198A0E94A94B8AE12C
:1039A00091E060EE7FEF0E94182A81E161E0AE01B4
:1039B0004E5E5F4F20E030E00E949F1BFE01E80F4B
:1039C000F11D8181E396E2E00C94FF4CA9E0B0E0A8
:1039D000ECEEFCE10C94E24C182F8EED92E09D830E
:1039E0008C8381EE92E09F838E8384E791E09987B8
:1039F00088870E94A94B123019F481E391E002C03C
:103A000086E391E060EE7FEF0E94182A83E061E098
:103A1000AE014C5F5F4F20E030E00E949F1B91E0C1
:103A2000998392E09A831B82FE01E80FF11D618168
:103A3000662319F0812F0E94CA222996E3E00C9494
:103A4000FE4C0F931F93CF93DF93082F882321F40D
:103A5000C7E4D1E010E003C0CEE4D1E013E00E945F
:103A6000BE268117A1F00E94A94B82E00E94662821
:103A7000CE010E942B2A85E591E00E94662B0E94D0
:103A8000BE26811731F488EC90E00E94D41D81E0BD
:103A90000AC084E690E060E10E944F1A013079F795
:103AA000882369F380E0DF91CF911F910F910895F2
:103AB00088EB9BE065E10E944F1A08951F930E94D6
:103AC000621CE82FF0E0E832F10508F053C0EA5B31
:103AD000FF4F0C940A4D19E641C00E945C1E02C0C3
:103AE0000E943820182F882359F136C082E001C087
:103AF00081E00E94E61C3EC00E94951F3BC00E94D0
:103B00008E4538C00E94834435C00E943A4432C07A
:103B10000E945B472FC00E94E4432CC00E94A74133
:103B200029C00E949C4026C00E94EB0E23C00E9428
:103B3000523E20C00E944F401DC00E94BA3F1AC092
:103B40000E94A94B81E00E9466288DE691E00E94C8
:103B50002B2A0E94581D0BC0893649F40E94A94B9C
:103B600081E00E94662884E191E00E942B2A812F47
:103B70001F91089511E0FBCF0F931F93082F882307
:103B800011F414E601C018EC10FF02C0429801C005
:103B9000429A0E94284C002311F40E94284C115094
:103BA00099F71F910F9108951F93BC011092B100D6
:103BB0001092B20082E08093B000809370000FB644
:103BC00007FC1FC0789410E01DC0A8952F3F310559
:103BD0004105510519F010F09FEF01C0922F91504F
:103BE0009093B3009F5F6093B10002C0000000009B
:103BF0008091B1008823D1F7291B3109410951096E
:103C00000CC011E080E090E024E130E040E050E0C2
:103C10000E94374C9B01AC0167E02115310541053D
:103C2000510599F6112309F4F8941F9108951F92F4
:103C30000F920FB60F9211241092B1000F900FBE89
:103C40000F901F9018958150860F089588EC90E092
:103C50009093EC018093EB018CED90E09093EE015A
:103C60008093ED0184E190E09093F0018093EF0167
:103C70009093F2018093F1019093F4018093F3010A
:103C80008BE28093F5018093F6018093F701109207
:103C9000F8011092F9011092FA010895EBEEF1E0AB
:103CA00090E08191980F81E0EB3FF807D1F79923DD
:103CB00009F491E0892F0895A0E0B0E0E2E6FEE18A
:103CC0000C94D34C81E00E94211D882319F4BAE0A2
:103CD000DB2E02C0DD24D39488249924AA24BB249B
:103CE000C0E0D0E0A8E06A2EF0E27F2EE0E85E2E91
:103CF00012C1CC24C39474E4472E60E1362E50E503
:103D0000252E0E94A94B0E94EC2784E50E94BF4A01
:103D10008D2D805D0E94BF4A0E94F9270E94842950
:103D200083E0D81609F462C08D1540F081E0D81602
:103D300089F082E0D81609F0AFC022C085E0D8161D
:103D400009F484C0D81608F47AC086E0D81609F0C1
:103D5000A3C08CC08EE10E9414238EE10E94142324
:103D60007C0186EA92E00E940A2A0E94DF2A00E093
:103D700010E0C801B7014DEF26E50E94732864C02A
:103D80008BEB92E00E94512A85EC92E00E940A2A75
:103D90006091B2017091B30180E090E020E733E0E0
:103DA00040E050E00E94374C24EF36E040E050E025
:103DB0000E94B84C79018A0184E08BB984E18AB908
:103DC00082E00E947D23EC01CE19DF094AB881E030
:103DD0000E947D235C01AE18BF083BB82AB880E082
:103DE0000E947D234C018E189F0856C080EC92E003
:103DF0000E94512A85EC92E00E940A2A0091B201A9
:103E00001091B301169507956BB888E28AB982E0E4
:103E10000E947D23EC01C01BD10B88E88AB981E0A8
:103E20000E947D235C01A01AB10A7BB880EA8AB99E
:103E300080E00E947D234C01801A910A2DC080E011
:103E40000E94211D34E6C32E80E027C08BEA92E059
:103E50000E940A2A1BB86AB880E00E947D234C01A8
:103E60007AB881E00E947D235C0111C08FEA92E064
:103E70000E940A2A6BB86AB880E00E947D234C0138
:103E80007BB87AB881E00E947D235C015BB85AB8A8
:103E900082E00E947D23EC0181E01AB81BB88823E0
:103EA00009F10E94DF2AB401882777FD8095982FB9
:103EB00040E020E00E944A290E948429B501882719
:103EC00077FD8095982F40E020E00E944A290E94CB
:103ED0008429BE01882777FD8095982F40E020E057
:103EE0000E944A2984E6C81681F088EE93E060E1DA
:103EF0000E944F1A882349F0823029F424E6C22E0A
:103F000094E6D92E02C084E6C82EC39485E08C15B1
:103F100008F0F7CED39486E08D1508F0EACE81E064
:103F2000CDB7DEB7E2E10C94EF4C81E0809327013E
:103F30000E94A94B83EB92E00E94512A6091EB0111
:103F40007091EC0180E090E04FEF24E00E94732834
:103F500087EB92E00E94582B6091ED017091EE0189
:103F600080E090E04FEF24E00E9473288EEC92E016
:103F70000E94582B6091F50170E080E090E040E0F5
:103F800020E00E9473280E9484296091F60170E06D
:103F900080E090E040E020E00E9473280E948429A5
:103FA0006091F70170E080E090E044EF26E40E9429
:103FB000732881ED92E00E94582B6091EF0170917F
:103FC000F00180E090E04EEF20E00E9473280E9414
:103FD00084296091F1017091F20180E090E04EEF50
:103FE00020E00E9473280E94DF2A0E9484296091A9
:103FF000F3017091F40180E090E04EEF24E00E9424
:10400000732886EA92E00E94582B6091B00170916B
:10401000B10180E090E04DEF26E50E94732884ED29
:1040200092E00E94582B6091B2017091B30180E040
:1040300090E04DEF26E50E9473288091AB0182FF4E
:1040400005C00E9484298AE20E94BF4A88ED92E05E
:104050000E94582B6091F901772767FD7095872F93
:10406000972F4DEF26E50E944A290E94581D08957A
:10407000ADE0B0E0EEE3F0E20C94D34C81E00E94BE
:10408000211D882319F46AE0D62E02C0DD24D394C2
:10409000EE24FF2400E010E01D861C86BB2444248F
:1040A0005524222433241B861A86AA2419861886AE
:1040B0001F821E821D821C821B82882499241A82E0
:1040C000662477241982A0C10E94A94B0E94EC2784
:1040D00081E40E94BF4A8D2D805D0E94BF4A0E94EC
:1040E000F9270E94842923E0D21609F483C02D15F4
:1040F00040F031E0D31689F082E0D81609F04AC1C9
:1041000035C095E0D91609F4AAC0D91608F479C0CB
:10411000E6E0DE1609F03EC1E2C086EA92E00E94C7
:10412000512A88ED92E00E940A2A0E94E22EF9812B
:10413000F80FF9830E94DF2A6091F801772767FD65
:104140007095872F972F4DEF26E50E944A290E94F0
:1041500084296091F901772767FD7095872F972F44
:104160004DEF26E50E944A2980E015C181ED92E0DD
:104170000E94512A85EC92E00E940A2A81E060E0C8
:1041800040E00E948F2380E00E947C2B7C018639D6
:10419000910538F4888599858E0D9F1D99878887AC
:1041A000A39482E060E040E00E948F2380E00E94C0
:1041B0007C2B8C018639910538F4EE81FF81E80F64
:1041C000F91FFF83EE83A39482E061E040E00E9448
:1041D0008F2380E00E947C2B9D878C8786399105F8
:1041E00008F0D8C02C813D81280F391F3D832C83D6
:1041F000A394D0C080E00E94211D80E054E6C52E2B
:10420000CAC083EB92E00E940A2A12B831E031B9A9
:1042100084E08BB98AB980E00E9486237C0192E019
:1042200091B9E0E1EBB9EAB981E00E9486238C0103
:10423000F4E0F1B920E42BB92AB982E00E94862388
:104240009D878C87C701800F911F880E991E8C85D2
:104250009D85880E991E9B819D5F9B839BC087EBEC
:1042600092E00E940A2A1BB8E1E0E2B9E1B9F4E069
:10427000FAB9E090B201F090B30180E00E94862389
:10428000E81AF90A22E022B921B930E13AB90091DD
:10429000B2011091B30181E00E948623081B190B23
:1042A00084E082B981B990E49AB9E091B201F091C9
:1042B000B301FD87EC8782E00E9486232C853D8533
:1042C000281B390B3D872C87C701800F911F680E73
:1042D000791E620E731E3A813D5F3A835BC08EEC9D
:1042E00092E00E94512A85EC92E00E940A2A81E025
:1042F00060E040E00E94E13180915F01843F89F4F9
:104300008091640190916501A0916601B09167016F
:1043100085369105A105B10520F47C01480E591E92
:10432000B39482E060E041E00E94E13180916D0150
:10433000843F89F48091720190917301A09174017E
:10434000B091750185369105A105B10520F48C0168
:10435000280E391EB39482E061E042E00E94E13110
:1043600080917B01843FB1F4809180019091810123
:10437000A0918201B091830185369105A105B10517
:1043800048F49D878C87EA85FB85E80FF91FFB873A
:10439000EA87B39481E011B812B81AB81BB8882321
:1043A000E9F00E94DF2AB70180E090E040E020E0E1
:1043B0000E9473280E948429B80180E090E040E0C8
:1043C00020E00E9473280E9484292C853D85B90134
:1043D00080E090E040E020E00E94732834E6C316BD
:1043E00069F088EE93E060E10E944F1A882331F073
:1043F000823011F444E6D42E34E6C32EC39485E013
:104400008C1508F061CED39496E09D1518F0CC245D
:10441000C394F5CFEFE0BE1611F0BB2418C0C20163
:1044200065E070E00E946F4C6093F501C10165E0AA
:1044300070E00E946F4C6093F6018A859B8565E071
:1044400070E00E946F4C6093F701BB24B394FFE0CF
:10445000AF16F9F48885998565E070E00E946F4C8D
:104460007093F0016093EF018E819F8165E070E0B1
:104470000E946F4C7093F2016093F1018C819D81D9
:1044800065E070E00E946F4C7093F4016093F3015B
:10449000B3942B812F3009F06EC03A813F3009F080
:1044A0006AC0C40165E070E00E946F4C8B01C301DB
:1044B00065E070E00E946F4C4B014091B201509159
:1044C000B301CA01880F991F840F951F801B910BA0
:1044D000861B970B6C01EE24FF2420E030E0C9011D
:1044E000B80120EA39E041E050E00E94374CA701D2
:1044F00096010E94964CB901CA016B5F7F4F8F4FA6
:104500009F4F2AE030E040E050E00E94964CC90105
:10451000DA018A3F9105A105B10528F43093EC0139
:104520002093EB01B394B40180E090E020EA39E0FD
:1045300041E050E00E94374CA70196010E94964C42
:10454000B901CA016B5F7F4F8F4F9F4F2AE030E068
:1045500040E050E00E94964CC901DA018831E1E068
:104560009E07E0E0AE07E0E0BE0728F43093EE01DE
:104570002093ED01B394F981F53009F0BB240E943A
:10458000951F80E024E0B21609F481E02D96E2E167
:104590000C94EF4CFF920F931F93CF93DF93F82E61
:1045A000623019F401E110E002C000E010E0CBEE4F
:1045B000D1E00E944E1E8093FB0182E0F81629F4A0
:1045C000C80168810E94534D04C0C8010E944B4D30
:1045D000888381E0CB3FD80721F021960F5F1F4FE2
:1045E000ECCF82E0F816D9F00E944E1E9091FB01AC
:1045F0009923A9F0981799F00E94A94B82E00E9494
:10460000662889E791E00E942B2A8DE691E00E94BE
:10461000662B80ED97E00E94D41D0E94261ECDB728
:10462000DEB7E5E00C94FC4CFF920F931F93182F1C
:104630001F71106410937C00012F007C8091AF01EA
:10464000081721F00E94284C0093AF0180917A0056
:10465000806480937A0080917A0086FDFCCFF09090
:10466000AD017091AE0160E020E030E040E050E04C
:1046700021C080917A00806480937A0080917A00D2
:1046800086FDFCCF8091780090917900A0E0B0E0A9
:10469000280F391F4A1F5B1F643059F484E0203013
:1046A000380738F4003829F0713019F41F73106896
:1046B000C1CF6F5F6F15E8F2003829F46091B00147
:1046C0007091B10104C06091B2017091B30180E0BA
:1046D00090E00E94374C2AE09695879577956795EC
:1046E0002A95D1F72F2D30E040E050E00E94964C03
:1046F000C9011F910F91FF9008951F93182F0E94D9
:104700001D4C812F0E9414231F9108951F93182F71
:104710000E941F4C812F0E9414231F910895CF9354
:10472000DF938093D9016093DA014093DB01A82FD6
:10473000B0E08DE494E0FC01EA0FFB1FE491E0930C
:10474000DF01262F30E0FC01E20FF31FE491E0933C
:10475000E00150E0840F951FFC0184918093E101FA
:1047600080E594E0FC01EA0FFB1FE491E093E20195
:10477000FC01E20FF31FE491E093E301840F951F26
:10478000FC0184918093E40183E594E0FC01EA0F4D
:10479000FB1FE491E093E501FC01E20FF31FE491BC
:1047A000E093E601840F951FFC0184918093E7015B
:1047B000C6E5D4E0AC0FBD1FFD0184918093E801F4
:1047C0002C0F3D1FF90164916093E901C40FD51FBF
:1047D000FE0184918093EA01DF91CF910895809149
:1047E000DC016091DD014091DE010E948F2308957C
:1047F0008091D9018093DC018091DA018093DD0101
:104800008091DB018093DE01089593E0981B892F4E
:10481000861B0895EF92FF920F931F93CF93DF9320
:10482000AC01613049F4ECE9F3E088EE93E0C2E3D7
:10483000D0E027E030E018C0623049F4E0E4F3E073
:104840008CE291E0C9E1D0E02CE230E00DC06330B1
:1048500019F020E030E045C0EEEAF3E088EC90E0AB
:10486000C9E1D0E02EE130E04817590718F400E024
:1048700010E003C08A01081B190BC801BE010E9489
:104880006F4C862F90E02817390708F4622F862F87
:1048900090E0880F991F8E0F9F1FFC012591349186
:1048A0000296FC01E590F4902E193F09C801BE0163
:1048B0000E946F4CAE01481B842F90E0FC012E9F9C
:1048C000C0012F9F900D3E9F900D11249E013695A3
:1048D0002795820F931FBE010E946F4C9B012E0DE6
:1048E0003F1DC901CDB7DEB7E6E00C94FB4CA3E059
:1048F000B0E0EDE7F4E20C94D34C6B017C01642E44
:104900000983283179F07724F4C0C701B6012AE081
:1049100030E040E050E00E94964CC901DA016C01A1
:104920007D01639420EAC21626E8D20621E0E20661
:1049300020E0F20650F70BC0C701B6012AE030E0D4
:1049400040E050E00E94374C6B017C016A9430E1FA
:10495000C31637E2D30630E0E30630E0F30660F337
:1049600016012701C701B6012AE030E040E050E01F
:104970000E94964CC901DA016C017D01639448EEF6
:10498000C41643E0D40640E0E40640E0F40650F7E5
:104990002DEF33E040E01B821A82F901659174919A
:1049A0006817790778F44F5F483139F47B836A835D
:1049B00078EEC72E73E0D72E06C02E5F3F4F7B8365
:1049C0006A83EBCF6B01EA81FB81BF0180E090E05D
:1049D00024E630E040E050E00E94374C7B018C013F
:1049E000F9818F2E9924AA24BB24A50194010E9449
:1049F000374C28EE33E040E050E00E94964C2E0DFC
:104A00003F1D401F511F221533054405550510F465
:104A1000772420C02981223310F4262D0AC08A81F0
:104A20009B816AE070E00E946F4C7B836A83262D35
:104A30002F5F4A815B81CA01A0E0B0E08093CF0183
:104A40009093D001A093D101B093D2012093D301D0
:104A500077247394B60180E090E024E630E040E0F3
:104A600050E00E94374C7B018C01A50194010E940B
:104A7000374C28EE33E040E050E00E94964CE21ABA
:104A8000F30A040B150B2E143F044006510688F15F
:104A900058EEC51653E0D50611F0462D05C0462D3B
:104AA0004F5F64E6C62ED12C8981823338F0C6016F
:104AB0006AE070E00E946F4C6B014F5FB60180E0CE
:104AC00090E0772059F46093CF017093D0018093E8
:104AD000D1019093D2014093D3010AC06093D401D5
:104AE0007093D5018093D6019093D7014093D8015C
:104AF0007394872D2396E2E10C94EF4C90910A0178
:104B00009923E1F08091090180FD18C081FD04C066
:104B1000809107018E3190F49093070180914A01B2
:104B20008093BA0180914B018093BB0180914C012D
:104B30008093BC01809111018093100108951F930F
:104B4000182F60FF03C08BB1812B03C09BB18095F0
:104B500089238BB98AB1812B8AB963FF03C00E9474
:104B6000234C02C00E941E4C8AB1912F909589233C
:104B70008AB98BB198239BB91F910895CF93DF9386
:104B8000982F80910701813009F4BEC0A895892F24
:104B90000E948F231BB88091E0018AB98091E501C2
:104BA00081B982B98091E10160E10E949F258091E5
:104BB000E9010E948623EC018091E1019091E001DE
:104BC000892B8AB98091E9010E9486239C018091FA
:104BD000E0018AB92C173D0720F42530310508F48F
:104BE000E90123E0C13DD20708F18091E10161E1D3
:104BF0000E949F258091E9010E948623EC0180910B
:104C0000E1018BB99091E001892B8AB98091E9018A
:104C10000E9486239C011BB88091E0018AB92C1761
:104C20003D0720F42530310508F4E901C031D105F4
:104C300038F080910901882319F4CE010E948C3646
:104C400083E0C13DD80708F042C080910901882364
:104C5000D9F48091E0018AB91BB88091E50181B94E
:104C600082B90E941F4C8091E1019091E001892B53
:104C70008AB98091E9010E9486238F559D4020F0DA
:104C800082E0BE010E94D33880910901882339F562
:104C90008091E60181B912B88091E1019091DF0124
:104CA000892B8AB98BB98091E8010E9486238054B0
:104CB0009640A8F40E94EA35882389F48091070180
:104CC000813269F081E0BE010E94D33808C0809132
:104CD0000901882311F40E942B340E94F93A809133
:104CE0000701882311F08A3019F40E94522C08C061
:104CF0008F3131F48091080184FF02C00E9410348A
:104D000011B812B81AB81BB8DF91CF910895CF939C
:104D1000DF9340E00E948F2311B88091DF018BB9AF
:104D20009091E001892B8AB98091E8010E94862345
:104D3000EC018091E9010E9414232091B20130918D
:104D4000B30136952795B9016E5170406C177D07F8
:104D500078F4A901425E5F4FC417D50748F468177D
:104D6000790730F420E08417950718F421E001C09A
:104D700020E01AB8822FDF91CF9108950F931F93EF
:104D800080E061E00E948726082F80E062E00E94B8
:104D90008726182F81E062E00E948726100F810F7E
:104DA0001F910F9108956F927F928F929F92BF9261
:104DB000CF92DF92EF92FF920F931F93DF93CF93E7
:104DC00000D000D000D0CDB7DEB711B812B81BB8F4
:104DD0008CEF8AB980E00E9414239A83898381E052
:104DE0000E9414239C838B8382E00E9414239E8361
:104DF0008D83FF24F39408E2E02E12E0D12ECC2420
:104E00003E010894611C711CB1E08B2E912CD3944F
:104E100083E0D81609F4DD240D2D10E08C2D90E0F0
:104E20000D2C02C0959587950A94E2F780FD70C01D
:104E3000F801EA5AFB4FB4908B2D0E9414239C0179
:104E4000F801EE0FFF1FE60DF71D808191812817F5
:104E5000390770F4318320838E2D90E08F199109EA
:104E6000449784F4EAEEEE1568F0F4E1EF0E0AC020
:104E70002A30310528F488E2E81611F4F0E5EF2E27
:104E8000F39402C0FF24F3942330310548F4C401A5
:104E9000002E02C0880F991F0A94E2F7C82A0AC0A0
:104EA0002052334038F481B1F801ED5AFB4FE491C0
:104EB000E82BE1B9F7E0CF1671F1EF1420F581E0AE
:104EC0008093070180930801D0920D01F801ED5AFB
:104ED000FB4FE49181B1E095E823E1B9F801E05B93
:104EE000FB4F2491035B1B4FF80184919AB1822BF5
:104EF000809589238AB98B2D0E94142390930F01EA
:104F000080930E0108C0A89582E390E00E94D41D12
:104F1000FF2009F07CCF1AB811B826960FB6F89486
:104F2000DEBF0FBECDBFCF91DF911F910F91FF90DC
:104F3000EF90DF90CF90BF909F908F907F906F9079
:104F40000895EF92FF920F931F93E82EF62E11B85B
:104F500012B81AB81BB840E00E948F238091E50177
:104F600081B98091E9010E9414238C018091E601AE
:104F700081B98091E8010E9414230817190728F4C9
:104F80008F2D6E2D40E00E948F238091E50181B925
:104F90008091E0018AB901E08091E9010E94142327
:104FA0009C0181E02039380740F481B19091E601FD
:104FB000892B81B92832310540F00F5F033329F086
:104FC00084E690E00E94D41DE7CF11B81AB81F9173
:104FD0000F91FF90EF900895EFE2F1E092918291AE
:104FE0009093300180932F0180EE9FEF9183808317
:104FF000089580912F019091300190932E0180931C
:105000002D010895EFE2F1E09291829190933001A9
:1050100080932F0180EE9FEF918380830895A0E01D
:10502000B0E0E5E1F8E20C94DE4CE62EEA0101E5A1
:1050300011E0B8014AE050E00E94354DF8010190BE
:105040000020E9F78F010150104001551140D02E8A
:10505000FF2480E090E014C0EF2DF0E0EF5AFE4F07
:1050600080818053E82FF0E0EE0FFF1FE35DFB4FE0
:1050700005911491C80163E00E94DC49F394C801D2
:10508000FD1450F3E7FC0BC0EE2DFF27E7FDF09574
:10509000EE0FFF1FE35DFB4F859194910BC0FFEF77
:1050A000EF1619F48CE197EE05C02EEFE21611F41D
:1050B00086E096EF63E00E94DC49CE0164E00E9446
:1050C000DC49CDB7DEB7E7E00C94FA4C60912B01D8
:1050D000861710F061E003C0681B66956F5F81E082
:1050E0000E94334908959F92AF92BF92CF92DF9270
:1050F000EF92FF920F931F936B017C01042F922E6E
:1051000015C085E090E0A0E0B0E0C80ED91EEA1E10
:10511000FB1EC701B6012AE030E040E050E00E94EB
:10512000964CC901DA016C017D010F5F90E1C9164F
:1051300097E2D90690E0E90690E0F90610F7013F02
:105140001CF4AA24BB241AC0202F215F822F63E005
:105150000E94624CE82F822F63E00E94624CB92EBD
:10516000992321F0EF5F83E0891BB82EE83010F01F
:10517000AA2404C0F0E0E85CFC4FA49080912D01CB
:1051800090912E019093300180932F0180EE9FEF3C
:1051900090932E0180932D0101E511E0C601B80125
:1051A0004AE050E00E94354DD8010D900020E9F70B
:1051B0008D010150104001551140E02E0B191016C1
:1051C0005CF080E30E94BF4A8EE20E94BF4A002347
:1051D00019F080E30E94BF4ABB2009F40FEF015091
:1051E000FF24C02EDD24C7FCD0940FC00F2D10E08B
:1051F000F801EF5AFE4F80810E94BF4A0C151D0531
:1052000019F48EE20E94BF4AF394FE1478F3809161
:105210002F019091300190932E0180932D01AA20AF
:1052200019F08A2D0E94BF4A992019F0892D0E94F9
:10523000BF4A1F910F91FF90EF90DF90CF90BF90EA
:10524000AF909F900895FC01362F242F862F845F06
:1052500063E00E94624C913071F4E436F10558F439
:10526000CF01880F991F43E0EE0FFF1F4A95E1F72A
:10527000E80FF91F3150BF0180E090E0432F0E94FA
:10528000732808958AE30E94BF4A08958DE20E9420
:10529000BF4A0895CF92DF92EF92FF920F931F9330
:1052A0007B018C01D42EC22E97FF21C080912D014D
:1052B00090912E019093300180932F0180EE9FEF0B
:1052C00090932E0180932D018DE20E94BF4A809120
:1052D0002F019091300190932E0180932D01109514
:1052E0000095F094E094E11CF11C011D111DC80112
:1052F000B7014D2D2C2D0E9473281F910F91FF9007
:10530000EF90DF90CF90089580E20E94BF4A089509
:105310000F931F9300912D0110912E01E82FF0E0C3
:10532000EE0FFF1FE050FF4F2081318130932E019F
:1053300020932D010E94D90E0E94BF4A10932E0186
:1053400000932D011F910F9108950F931F930091CA
:105350002D0110912E01E82FF0E0EE0FFF1FE0501D
:10536000FF4F2081318130932E0120932D018F5CDE
:105370000E94BF4A10932E0100932D011F910F919F
:1053800008951F93182FE091100183E0E89FE02D0E
:105390001124F0E0E75CF24EE60FF11D84918823C2
:1053A000B9F190913401915060913501282F30E08E
:1053B00084FF04C0809133018695680FA901427073
:1053C000507021FF0DC025FF06C0809132018695E7
:1053D000980F9F5F03C080913201980F23FD6150A9
:1053E00022FF07C0809133018150680F452B09F0DF
:1053F0006F5F892F0E943349812F0E94D90E883711
:1054000021F4812F0E94882903C0812F0E94A529A1
:105410001F910895CF93DF93EC0103C00E94BF4A10
:105420002196FE0184918823C9F7DF91CF910895D9
:105430000F931F9300912D0110912E0170932E0157
:1054400060932D010E940A2A10932E0100932D01D2
:105450001F910F9108950F931F93182F092FFC018F
:1054600001C031969E2F911B84918823D1F78091A2
:105470002A01891710F481E003C0891B86958F5F8C
:10548000609129010E943349812F902F0E940A2A9E
:105490001F910F9108950E94182A80E20E94BF4A2E
:1054A00008950E940A2A80E20E94BF4A0895DF926E
:1054B000EF92FF920F931F93F42ED22E20912D0185
:1054C00030912E013093300120932F0120EE3FEFD9
:1054D00030932E0120932D0101E511E0A8012AE06F
:1054E00030E00E94104DF80101900020E9F78F0193
:1054F0000150104001551140E02EFF2011F404E648
:105500000DC00F1530F00F1911F0FF2407C0FF2454
:1055100001C0F01A80E30E94BF4A00E010E014C00E
:10552000101751F48EE20E94BF4A04C080E30E942B
:10553000BF4AFA94FF20D1F7E12FF0E0EF5AFE4F77
:1055400080810E94BF4A1F5F1E1550F380912F017A
:105550009091300190932E0180932D01DD2019F060
:105560008D2D0E94BF4A1F910F91FF90EF90DF9009
:10557000089583E00E94414B81E063E00E9433493B
:10558000089582E00E94414B81E062E00E9433492D
:1055900008951F931091290180912B01181769F428
:1055A0000E94581D812F0E94414B81E0612F0E9473
:1055B000334984EF91E00E94D41D1F9108951F93F9
:1055C000909127016091290180912B016817B1F416
:1055D000192F90FF02C00E94581D11FF0CC010919E
:1055E0002B0104C0812F0E94414B11501230D0F783
:1055F00081E062E005C00E94A94B04C06F5F81E0BA
:105600000E9433491F910895FF920F931F93382FE3
:1056100080913301982F9F5F20912B018D5F281778
:1056200008F442C080912A01803118F0930F92173C
:1056300038F0209329010E94DF2A93E033E005C06F
:10564000982F9F5F80913201981B90933401309383
:105650003501F09029018091BA0160E00E94C129D2
:105660008091BB0161E00E94C1298091BC0162E090
:105670000E94C12900912D0110912E0180EE9FEF13
:1056800090932E0180932D0180913401609135011A
:105690000E943349809110010E94424A10932E01CA
:1056A00000932D01F09229011F910F91FF90089511
:1056B0000F931F938C010E94DF2AC8010E940A2ABF
:1056C00080E20E94BF4A1F910F9108950F931F938C
:1056D0008C010E94DF2AC8010E942B2A1F910F9182
:1056E00008950F931F938C010E94DF2AC8010E9426
:1056F0000A2A1F910F910895A0E0B0E0E2E8FBE2D2
:105700000C94D64C582E0E94D326809107018130EC
:1057100019F400E010E0B2C012B88091E60181B93E
:105720008091DF018BB98AB90E941E4C61E066242A
:1057300077244301862F90E0EC01C170D07060FFA8
:1057400003C08091E80102C08091E901A8958068BA
:1057500080937C000E94284C80917A008064809322
:105760007A0080917A0086FDFCCFAA24EE24FF24E3
:10577000870180917A00806480937A0080917A001A
:1057800086FDFCCF8091780090917900A0E0B0E098
:10579000E80EF91E0A1F1B1F0E94254CA39484E6E5
:1057A000A81639F72091B0013091B10140E050E0E6
:1057B000C801B7010E94374C7B018C019AE0169515
:1057C0000795F794E7949A95D1F762E0CD2B09F409
:1057D0005BC0C701D8013C014D01ACCF6091B20163
:1057E0007091B30180E090E024E630E040E050E0CA
:1057F0000E94374C66197709880999090E94374C2D
:105800005B016C016E187F08800A910AC401B30124
:1058100028EE33E040E050E00E94374C7B018C01E1
:105820002091ED013091EE012057354E40E050E0DF
:10583000C601B5010E94964CC801B7010E94964C62
:10584000890181E05816B9F48091D9016091DA019B
:105850000E94231EE82FF0E0EE0FFF1FE151FE4FE4
:105860000190F081E02DE017F10718F40E1B1F0BDB
:1058700002C000E010E080E88093AF01C801CDB71E
:10588000DEB7EFE00C94F24C1BB88091E5019091EB
:10589000E601892B81B9E614F7040805190508F417
:1058A0009DCFE7CFA0E0B0E0E8E5FCE20C94D44C5B
:1058B000A89512B88091E60181B98091DF018AB97B
:1058C0008BB98091E9010E9486237C018091E801D7
:1058D0000E9414234C011BB88091E2018AB9809187
:1058E000E8010E948623459708F025C28091E201D5
:1058F0008BB98091E8010E9486232C018091E501FB
:1059000081B982B91BB88091E0018AB98091E80120
:105910000E9486238C018091E9010E9414233C019E
:105920008091E3018AB98091E9010E948623EC010C
:1059300020E3821621E1920628F482E648165104FB
:1059400008F0F9C12CE6421623E1520608F0F3C133
:1059500089EA6816710408F06EC0C632D10508F4F1
:10596000EAC1B20180E090E020EF3BE247E050E086
:105970000E94374CE090B201F090B30197012419D6
:10598000350940E050E00E94964C59016A01EC1A3A
:10599000FD0A00E010E0C801B70120EF3BE247E05C
:1059A00050E00E94374C9E0140E050E00E94964C2F
:1059B000B901CA012EED421623E0520670F442E00E
:1059C000AA0CBB1CCC1CDD1C4A95D1F7A60EB71E39
:1059D000C81ED91EC601B5010EC0CE5DD340B0F4BD
:1059E00032E0660F771F881F991F3A95D1F76A0D2D
:1059F0007B1D8C1D9D1D25E030E040E050E00E94A5
:105A0000964CC901DA01BC01CD0108C06A0D7B1DAD
:105A10008C1D9D1D9695879577956795625A7E4F4B
:105A20008F4F9F4F2AE030E040E050E00E94374C1B
:105A30003B014C01A0C08E149F0408F490C00615D1
:105A4000170508F48CC0C091B201D091B3018C1637
:105A50009D0619F40894810891082091ED01309178
:105A6000EE012057354E40E050E0B4016E197F0939
:105A700080E090E00E94374CC819D9099E0140E0AF
:105A800050E00E94964C59016A012091EB0130913F
:105A9000EC012057354E40E050E006191709B801D7
:105AA00080E090E00E94374C930140E050E00E947B
:105AB000964C79018A018EED881683E0980640F4B1
:105AC00092E0AA0CBB1CCC1CDD1C9A95D1F715C02A
:105AD0002EED621623E07206B8F588EFE81684E230
