:100000000C94BD060C94DA060C94DA060C94DA060D
:100010000C94DA060C94DA060C94DA060C94731439
:100020000C94DA060C94DA060C94DA060C94DA06D0
:100030000C94DA060C94DA060C94DA060C94DA06C0
:100040000C94DA060C94DA060C94DA060C94DA06B0
:100050000C94DA060C94DA060C94DA060C94DA06A0
:100060000C94DA060C94DA06EB13ED13F013F61386
:10007000F813FC13FF1302142E142E142E142E1436
:1000800005142E142E142E142E142E142E142E1489
:1000900008142E142E142E142E142E142E142E1476
:1000A0002E142E142E142E140B140E142E142E1483
:1000B0002E142E142E141114436F6D706F6E656E16
:1000C00074205465737465720050726F62696E6754
:1000D0002E2E2E0054696D656F7574004E6F20636F
:1000E0006F6D706F6E656E7400666F756E64210063
:1000F000646F6E65210053656C65637400546573AD
:10010000740041646A7573746D656E740053617632
:1001100065004C6F61640053686F772056616C75A1
:1001200065730052656D6F76650043726561746535
:100130000053686F7274204369726375697421009B
:10014000426174746572793F004572726F7221006A
:100150004578697400436865636B73756D00424A46
:100160005400534352005472696163005055540067
:100170004279652100487A003C4D656E75205465D2
:1001800073743E0050574D0053717561726520576E
:10019000617665004C6F6769632050726F6265001D
:1001A000436F6E7472617374004F666600436F6EC6
:1001B00074696E756974790050686F746F64696FE3
:1001C0006465006E6F007265760076312E35306D95
:1001D000004D4F5300464554002D636800656E681E
:1001E0002E006465702E0049474254004367730037
:1001F0004E504E00504E5000684645005662650015
:10020000565F4754004963656F00566600430056C9
:10021000746800495F520056540056726566005279
:10022000682D0052682B0052692D0052692B002B5B
:10023000526C2D002B52682D003132203133203288
:1002400033004330005230005663630041436F6D0A
:1002500070002331002332004964737300495F6CDE
:100260000052647300565F4753286F666629004941
:100270005F00684645720054544C00434D4F530094
:10028000527400523100523200565F6C002D032D23
:10029000002D012D002D022D002D06072D0066706A
:1002A0006E056D006B4DEE59CB52AD4C6047BC42B4
:1002B000A43E003BBF37D0342932C02F8C2D872B72
:1002C000AC29F5275E26E52485233D220A21EA1F75
:1002D000DC1EDD1DED1C0A1C331B681AA719F01863
:1002E00041189B17FD166516D5154A15C6144714F7
:1002F000CD135813E7127B121312AE114E11F010EA
:100300000000BA03870358032E030703E402C30265
:10031000A40288028111530F940D260CF40AF009EF
:1003200011095008A6070F0789061006A3053F0507
:10033000E40491044304FC03B9037A033F03070375
:10034000D1029E026D023E020F02E101B201820162
:100350004E010F01010008004000000100040102ED
:100360000304058813E40C88132823E02E983A012F
:10037000041002082002040801020300000000002B
:10038000000000087F3E1C087F7F08087F7F081C54
:100390003E7F08087F7F00007F7F084C5E720272FC
:1003A0005E4C00C07E3E201E3E2000087F41414141
:1003B0004141414141414141417F087D7E1311133B
:1003C0007E7D001D3E6341633E1D003F7F414041F5
:1003D0007F3F00FFFF4949497F3600317A4A4A7E14
:1003E0003D4000183D6642663D18003E7E4140217A
:1003F0007E7E0000000205020000000000000000F8
:1004000000000000066F6F06000000000B070000F0
:100410000B0700367F7F367F7F3600042E2A6B2A3B
:100420003A10006373381C0E676300367F49793BCE
:100430006A48000000070B0000000000001C3E633B
:10044000410000000041633E1C000000150A1F1F10
:100450000A15000018187E7E1818000000B0700001
:100460000000000808080808080800000060600094
:100470000000006070381C0E0703001C3E634163DF
:100480003E1C0000427F7F400000006273515949CA
:100490004F46002263414949773600181C16137FE6
:1004A0007F100027674545457D38003C7E4B494914
:1004B000793000030371790D070300367F494949FC
:1004C0007F3600064F4949693F1E000000006666FE
:1004D000000000000000A66600000000081C366353
:1004E0000000003636363636363600004163361C9C
:1004F0000800000203696D070600003E635D555D5C
:100500006B2E007C7E1311137E7C007F7F4949494E
:100510007F36001C3E6341416322007F7F4141637F
:100520003E1C007F7F4949494941007F7F090909F5
:100530000901001C3E6341497979007F7F08080862
:100540007F7F000000417F7F4100003070404040CD
:100550007F3F007F7F183C366341007F7F404040F3
:100560004040007F7F0E1C0E7F7F007F7F0E1C3877
:100570007F7F001C3E6341633E1C007F7F11111191
:100580001F0E003E7F4151713F5E007F7F09193988
:100590006F4600266F4949497B32000001017F7F89
:1005A0000101003F7F4040407F3F000F1F387038FF
:1005B0001F0F003F7F4038407F3F0063773E1C3E67
:1005C00077630000070F78780F07006171795D4F3E
:1005D000474300007F7F414100000003070E1C38A5
:1005E0007060000041417F7F000000080C06030698
:1005F0000C080080808080808080000000070B0055
:10060000000000307A4A4A7E3C40007F7F444262CC
:100610007E3C00183C6642426624003C7E424244D6
:100620007F7F003C7E4A4A4A6E2C0000087E7F098C
:100630000A00001C3EA2A292FE7C007F7F04020200
:100640007E7C000000487B7B4000000040C088FBAF
:100650007B0000007F7F08346642000000017F7F3E
:100660000000007E7E027E047E7C007E7E04020608
:100670007C7800183C6642663C1800FEFE2242422E
:100680007E3C003C7E424222FEFE007E7E04020250
:100690000E0C00246E4A4A4A7A300004043F7F441C
:1006A0006420003E7E4040207E7E000E1E30603082
:1006B0001E0E003E7E4030407E3E0062761C081CCE
:1006C0007662001E3EA0A090FE7E004262725A4EEC
:1006D000460000083E7741410000000000007F7F97
:1006E00000000000004141773E08001C1C1C7F3EBA
:1006F0001C0800FFBD8080BFFFFFFF9D8CAEA6B62B
:10070000B0B9FFDD9CBEB6B688C9FFFFBD99E7E76B
:1007100099BDFF7E424242424242427E425A5A5A6A
:100720005A5A424242424242427E185A5A5A5A5AEF
:10073000427E18FF010203040506076F7071727391
:10074000747576FFFFFFFFFFFFFFFFFFFFFFFFFF57
:10075000FFFFFF101112131415161718191A1B1C7E
:100760001D1E1F202122232425262728292A2B2C41
:100770002D2E2F303132333435363738393A3B3C31
:100780003D3E3F404142434445464748494A4B4C21
:100790004D4E4F505152535455565758595A5B5C11
:1007A0005D5E5F606162636465666768696A6B6C01
:1007B0006D6EFFFFFFFFFFFFFFFFFFFFFFFFFFFF6C
:1007C000FFFFFFFFFFFFFFFFFFFFFFFFFFFFFFFF39
:1007D000FFFFFFFFFFFFFFFFFFFFFFFFFFFFFFFF29
:1007E000FFFFFF0FFFFFFFFF05FFFFFFFFFFFFFF03
:1007F000FFFFFFFFFFFFFF08FFFFFFFFFFFFFFFF00
:10080000FFFFFFFFFFFFFFFFFF09FFFFFFFFFF0AE3
:10081000FFFF0BFFFFFFFF0CFFFFFFFFFFFFFFFFCF
:10082000FFFFFFFFFFFFFFFFFF0DFFFFFFFFFF0EBB
:10083000FFFFFF000000000000000000E0E00000FB
:10084000008040201F007C8282820000C8484888C7
:1008500008080808FFFF14224180C00000000000C3
:10086000000000001F12120D000000000303000032
:10087000010101027C007F494941000000000000A5
:1008800000000000E0E0000000E0C0A01F00FE92B9
:1008900092820000C848488808080808FFFF142210
:1008A0004180000000000000000000001F12120D37
:1008B0000000000003030000000001027C003E4134
:1008C00041410000008080000000C0C000E0E04026
:1008D000404040407F00FE82827C00001F2028199B
:1008E0000000FFFF009C9C08081C3E08F800000068
:1008F00000000000010101010101010100030301E9
:10090000010101017F00264949320000404040407A
:100910004040C0C000E0E04040404040FF004C92FA
:10092000926400007C82A2640000FFFF009C9C088F
:10093000083E1C080F00000000000000000000003E
:100940000000010100030301010101017F007F415B
:10095000413E0000008080000000C0C000E0E04098
:10096000404040407F00FE82827C00001F2028190A
:100970000000FFFF00FFFF08081C3E08F800000011
:100980000000000001010101010101010003030158
:10099000010101017F0026494932000040404040EA
:1009A0004040C0C000E0E04040404040FF004C926A
:1009B000926400007C82A2640000FFFF00FFFF0839
:1009C000083E1C080F0000000000000000000000AE
:1009D0000000010100030301010101017F007F41CB
:1009E000413E0000804040800000000000E0E080C8
:1009F00080808080FF00FE82827C00008F90948C3B
:100A000080E0C08080FFFF808080808080000000C8
:100A100000000000000000000003010000030300CC
:100A2000000000007F00264949320000808080805D
:100A300080C0E08080E0E08080808080FF004C9279
:100A400092640000F80444C80001030000FFFF8026
:100A50008080808080000000000000000001010014
:100A60000000000000030300000000007F007F4141
:100A7000413E0000000000000000808000E0E00037
:100A8000000080403F007C828282000088484888C5
:100A90000808FFFF00FFFF14A2C1E00000000000F3
:100AA000000000000F10140C000000000003030001
:100AB000000000017E007F49494100000000000065
:100AC0000000808000E0E00000C080403F00FE9217
:100AD00092820000884848880808FFFF00FFFF1442
:100AE0002241810100000000000000000F10140CE2
:100AF0000000000000030300000000017E003E41F2
:100B0000414100000000000000000000000000FF64
:100B100000007C12127C000000000000F00848D0A9
:100B20000000C1C3C7CFDFFFDFCFC7C3C1000000D4
:100B30000000000008090908080808080402017FED
:100B400000003C42424200000000000000000000A3
:100B5000C0C0C0C0C0C0C0C0FFC0C0CFC0CFC0C038
:100B6000C00000E01090A00080E0F8FEFFFEF8E07A
:100B700080838FBFFFBF8F8380000011121211107E
:100B800011110905030101017F0101017901010131
:100B9000010000001090901010101010204080FFF5
:100BA00000007C12127C0000000000000F10140DE9
:100BB0000000C1C3C7CFDFFFDFCFC7C3C100000044
:100BC0000000000000000000000000000000007FA6
:100BD00000003C4242420000000000004040404013
:100BE0008000000000E0E08080808080FF003E0008
:100BF0003E000000FE9292820005060708FFFF807B
:100C00008080808080000000000000000000000064
:100C10000000000000030300000000007F00003E11
:100C20000000000000000000000000C0C060606024
:100C300060C0C000000000000000000000000000D4
:100C4000000007070080C0E070381F0700000000A8
:100C5000000000000000000000000000007373733B
:100C60000000000000000000000000000000000084
:100C700000C00000000000FE003E0814220000003A
:100C800000000000000000000081C1E1F1F9FDFF5B
:100C9000FDF9F1E1C1870000000000000000000044
:100CA000000000000000007F0078141478000000AD
:100CB000000000000000000000000000000000FE36
:100CC0000000000000000000000000000000000024
:100CD0003C3CBDBDBDBDBDBDBDBDBDBDBD3C3C0005
:100CE0000000000000000000000000000000007F85
:100CF000000000000000000000000000C040408034
:100D000000E02020705050505070242E2420FE000F
:100D10000000000017141413101F1010FF01010130
:100D20000101FF84848487000000000000000000AF
:100D300000000000030202020202232020007F00C4
:100D4000000000050A0605060A050A0609060A0546
:100D50000A0609060A050A0609060A050A0605061C
:100D60000A050A06050A06090A06090A060000001D
:100D7000000000000000110A060011241FBECFEF82
:100D8000D8E0DEBFCDBF11E0A0E0B1E0EAE6F4E7D5
:100D900002C005900D92A030B107D9F711E0A0E094
:100DA000B1E001C01D92AE3EB107E1F70E948E0D89
:100DB0000C94333A0C940000982F8091AA01981754
:100DC00019F48091AD0108958091AB01981719F441
:100DD0008091AE0108958091AF0108950E94A638D8
:100DE00081E00E948D1C80E791E00E94C51DF8946F
:100DF00088E10FB6F89480936000109260000FBEF7
:100E00002B9883B7817F846083BF83B7816083BF62
:100E1000889583B78E7F83BF089582E00E948D1CE2
:100E20008CED90E00E94C51D89EE90E00E940C1FA1
:100E30008EE08093090183E00E94BD1E8091A9018C
:100E40008F5F8093A9010895CF93DF9388EC8093FF
:100E50009F0186E00E94BD18EC018B5C9840835F87
:100E60009140C8F46091A4017091A50180E090E0E8
:100E700024EC39E040E050E00E94F9389E0140E067
:100E800050E00E9458393093A5012093A40180912D
:100E90009D01846003C080919D018B7F80939D01A3
:100EA0008EE00E94BD189093A3018093A20188EC6C
:100EB00080939F018EE00E94BD182091E2013327AC
:100EC00027FD3095280F391F3093A3012093A201ED
:100ED00089E180939F01DF91CF9108951F938091C5
:100EE000A6019091A7012BE0883B920710F48CE0BB
:100EF00007C0845E9C4018F08DE01FE002C08DE0CA
:100F00001EE00E942B38812F0E942B380E94601D0A
:100F10008091A6019091A7016AE070E00E943139AA
:100F200080E090E04EEF26E50E949A1C1F91089504
:100F300087E00E94BD18A0E0B0E0BC01CD012EEB1F
:100F40003FE040E050E00E94F93828EE33E040E016
:100F500050E00E9458393093A7012093A60184E6FF
:100F60008093A801285B3B4050F40E94A6380E9461
:100F70006E0788EB9BE00E9430140E94EE060895F5
:100F8000FC018181608140E00E94D32560914C0189
:100F900070914D0180914E0190914F0140914B0114
:100FA00026E40E949A1C08950E94601D8091010110
:100FB00082FF03C08DED91E002C082EE91E00E94BD
:100FC000B71D08950E94601D8091010180FF02C03D
:100FD0008EE401C080E50E942B3889ED91E00E94EB
:100FE000B71D08951F93162F0E942B3889E992E0B0
:100FF0000E94B71D812F0E942B380E94601D6091B6
:101000000E0170910F01809110019091110140919A
:101010000D0124E00E949A1C1F9108951F93162F22
:101020000E94641D81E00E942B38812F0E94641D64
:101030001F9108950F931F93CF93DF938091010128
:1010400080FF05C00091AC011091AB0104C000917C
:10105000AB011091AC01802F612F0E94E927EC01B8
:10106000009731F00E94601D802F612F0E940E08B2
:101070008091010183FD50C08091B3019091B40132
:10108000892B81F08FE092E00E94FE1E6091B301F7
:101090007091B401882777FD8095982F4DEF26E554
:1010A0000E943C1D8CEE91E00E94FE1E6091C401E6
:1010B0007091C5018091C6019091C7014091C8010E
:1010C00026E40E949A1C8091B1019091B201892B73
:1010D00071F081E692E00E94FE1E6091B101709174
:1010E000B20180E090E04EEF24E00E949A1C20972D
:1010F00099F00E94981E81E00E942B380E94601D8A
:101100008AE092E00E94E51D6A817B8180E090E0A8
:101110004DEF26E50E949A1CDF91CF911F910F9110
:10112000089580E00E94691D81E00E94691D82E0AF
:101130000E94691D8DE30E942B3880E00E94641D8F
:1011400081E00E94641D82E00E94641D08958CE687
:1011500091E00E94B71D0E94981E0E94910887E1AD
:1011600092E00E94FE1E60913B0170913C0180E084
:1011700090E04DEF26E50E949A1C8AE092E00E94E2
:10118000FE1E6091390170913A0180E090E04DEFD0
:1011900026E50E949A1C089580910001823219F47C
:1011A00082E691E002C086E691E00E94B71D0E94AF
:1011B000981E0E9491088091B1019091B201892BF3
:1011C00071F080E092E00E94FE1E6091B10170918A
:1011D000B20180E090E04DEF26E50E949A1C089550
:1011E00087EE91E00E94B71D0E94E2070E94D4079B
:1011F0000E94981E0E9491080E941A080895EF927A
:101200000F931F93CF93DF93EC016091BF01709117
:10121000C0018091C1019091C2014091C30102E3DC
:1012200010E020E030E057EFE52E0E94B30F87FD7D
:1012300010C0CE010E94FE1E6091BF017091C001DE
:101240008091C1019091C2014091C30121E40E94AB
:101250009A1CDF91CF911F910F91EF90089580918B
:10126000010184FF05C081ED91E00E94B71D03C01C
:101270008AE40E942B3885ED91E00E94B71D0E9400
:10128000E2078091010184FF02C00E94D4070E94FE
:10129000981E0E9491088091010184FF02C00E9463
:1012A0001A088091010183FF1EC088E592E00E9428
:1012B000FF088091B5019091B601892BA1F085E6D8
:1012C00092E00E94FE1E0E94981E0E94601D609186
:1012D000B5017091B601882777FD8095982F4DEF65
:1012E00026E50E943C1D0895A0E0B0E0EAE7F9E0A1
:1012F0000C949D398091010180FF0CC0C0EFD1E0BA
:10130000E090AA01F090AC010091AB011F2DAE2C32
:10131000B02E0BC0C4EFD1E0E090AC01F090AA0178
:101320001091AB010E2DA12EBF2C8EE591E00E94F5
:10133000E51DCE010E94B71D8091010182FF03C00F
:101340008BE20E942B380E94981E0E949108812FE8
:10135000602F0E94E927EC01009731F00E94601D88
:10136000812F602F0E940E088F2D6E2D49E10E9463
:101370003A22813049F40E94981E82E465E40E947A
:10138000F20784E08093260188EF91E00E94FE1E20
:101390006091B7017091B8018091B9019091BA0143
:1013A00040E020E00E949A1C0E94601D8091B001E4
:1013B00080FF02C085E603C081FF03C083E60E9470
:1013C0002B388FE692E00E94171F8091B00180FFBA
:1013D00002C083E403C081FF03C085E40E942B3870
:1013E0000E94601D6091B5017091B601882777FD5C
:1013F0008095982F4AEF21E40E943C1DCD2BE1F40B
:101400008091BB019091BC01A091BD01B091BE0142
:101410000097A105B10581F082E792E00E94FE1ECF
:101420006091BB017091BC018091BD019091BE01A2
:1014300040E020E00E949A1C8E2D6F2D0E94E9272B
:10144000EC01009719F400E010E030C08CEF91E05F
:101450000E94FE1E0A811B812C813D81C090B70134
:10146000D090B801E090B901F090BA0144E6C416FA
:10147000D104E104F10498F0C801821B930B63E0EE
:1014800070E00E9445394AEFC416D104E104F1042A
:1014900018F4061B170B03C08B01020F131FB801B2
:1014A00080E090E04DEF26E50E949A1C85E092E0F6
:1014B0000E94FF0881E0053F1807E0F08A2D6B2DA0
:1014C0000E94E927EC010097A9F08A819B81825C48
:1014D000914080F40E94981E8A2D6B2D0E940E0868
:1014E0000E94601D6A817B8180E090E04DEF26E5DF
:1014F0000E949A1CCDB7DEB7EAE00C94B939A1E09E
:10150000B0E0E5E8FAE00C949D3980910501813066
:1015100069F4F0907A0175E0C72E65E0D62E59E7A0
:10152000A52E51E0B52E00E010E01EC18230F1F48E
:1015300010917901D0907F011D1549F4C0907A0176
:10154000D090800145E0F42E81E089834DC0F09079
:101550007A0180918001F81611F4C12EFEC018178F
:1015600009F0F5C0FD1409F0F2C038C0833061F510
:1015700020E046E0249F50011124E9E7F1E0AE0E9F
:10158000BF1E30E0349F8001112407581E4F2317DF
:1015900041F0F5019181F8018081981711F425E05F
:1015A00035E03F5F333070F32F5F233018F3253081
:1015B00010F400E010E0F501F18035E0C32E25E0E5
:1015C000D22E93E0E92ED2C081E992E00E94E51D7F
:1015D00080910501805D0E942B38CBC0F12E85E003
:1015E000C82E05E0D02E19821330A0F480917A0124
:1015F0000E94691D85E992E00E94B71D812F0E941B
:10160000691DE12E19E7A12E11E0B12E85010A5FB7
:101610001F4F16C0E12EB9E7AB2EB1E0BB2E8501FE
:101620000A5F1F4FF50180810E94691D81E992E0E8
:101630000E94B71D8F2D0E94691D0115110599F09B
:10164000EF1441F0F3E0FE1528F0F801F18081E994
:1016500092E004C0F801F08085E992E00E94B71D95
:101660008F2D0E94691DF4E0FC1500F18C2D6D2D6D
:1016700049E10E943A228130C9F40E94601D82E053
:101680008E1518F084EF91E002C080EF91E00E9487
:10169000B71D8FE30E942B380E94981E91E3D90E4C
:1016A0008C2D8F5C6D2D0E94F20719828AE092E0EA
:1016B0000E94FE1EF5016281738180E090E04DEF93
:1016C00026E50E949A1C0E94601D0115110519F55E
:1016D000F501848195818A3F910578F488E20E9422
:1016E0002B38F5016481758180E090E040E020E0D6
:1016F0000E949A1C89E20E942B38F5018181608149
:1017000040E00E94371981E00E946A2983E192E05B
:101710000E94FF0809C0F8016281738180E090E0B7
:101720004DEF26E50E949A1CF981F13011F58DE00C
:1017300092E00E94FE1EC5010E94C007011511051E
:10174000C1F00E94601DC8010E94C00712C0A5E040
:10175000FA2EF5E0CF2EE5E0DE2E79E7A72E71E038
:10176000B72E85010A5F1F4F65E0E62E81E0898371
:1017700059CF2196EAE00C94B939EF920F931F9359
:10178000CF93DF9360915C0170915D0180915E0168
:1017900090915F0100914C0110914D0120914E01FB
:1017A00030914F0140915B01E0904B010E94B30FDB
:1017B000813019F4C9E5D1E002C0C9E4D1E06091FB
:1017C0006C0170916D0180916E0190916F010B81A0
:1017D0001C812D813E8140916B01EA800E94B30FF4
:1017E000813011F4C9E6D1E088810E94691D8DE83D
:1017F00092E00E94B71D89810E94691D0E94981E77
:101800006B817C818D819E814A8126E40E949A1C95
:10181000CE010E9463268C018FEF0F3F180749F01D
:101820000E94601DB80180E090E04EEF24E00E942D
:101830009A1C8B859C85892B61F08DE592E00E9436
:10184000FE1E6B857C8580E090E04D8521E40E9442
:101850009A1C8E859F85892B61F089E892E00E9411
:10186000FE1E6E857F8580E090E04FEF25E20E94AE
:101870009A1CDF91CF911F910F91EF900895A0E0F6
:10188000B0E0E5E4FCE00C949839809104018130EB
:1018900049F410910B012BE0C22E21E0D22EAA2494
:1018A000BB2462C0833041F09BE0C92E91E0D92E69
:1018B00087E0A82EB12C4BC06091150170911601E4
:1018C000809117019091180100910E0110910F0164
:1018D000209110013091110140911401E0900D010F
:1018E0000E94B30F813019F4C2E1D1E002C0CBE015
:1018F000D1E060911C0170911D0180911E019091B9
:101900001F010B811C812D813E8140911B01EA80CA
:101910000E94B30F813011F4C9E1D1E081E0CB30F6
:10192000D80731F417E0C12ED12CCC0EDD1E04C037
:10193000BBE0CB2EB1E0DB2EA7E0AA2EB12CAC0C85
:10194000BD1CAC16BD0629F4FEE0AF2EB12CAC0CCC
:10195000BD1CF6011081F5018081181729F08181E5
:10196000181711F0F6011181F6018081811711F429
:10197000F60181810E94691D89E992E00E94B71DEC
:10198000812F0E94691DA114B10461F089E992E0E0
:101990000E94B71DF5018081811711F4F501818145
:1019A0000E94691D0E94981EF601638174818581E1
:1019B0009681428124E00E949A1CA114B10409F48A
:1019C00072C00E94601DF5016381748185819681DA
:1019D000428124E00E949A1CF60163817481858112
:1019E0009681F5010381148125813681F6014281BA
:1019F000F501E2800E943D10582EF601638174814A
:101A0000858196814281252D0E9418103B014C0151
:101A1000F50163817481858196814281252D0E9423
:101A200018107B018C01E60CF71C081D191DE11430
:101A3000F1040105110509F44AC080E892E00E9412
:101A4000FE1EC801B701452D24E00E949A1C83E8C0
:101A500092E00E94FE1EE4E6AE2EB12CC12CD12CE9
:101A6000C401B30124E630E040E050E00E94F938C0
:101A7000A80197010E94583979018A01C801B7016C
:101A800040E025E20E949A1C0E94601D86E892E0D8
:101A90000E94E51DAE18BF08C00AD10AC601B501F3
:101AA00040E025E212C0C6010E94ED30813079F499
:101AB0000E94601D6091E7017091E8018091E90149
:101AC0009091EA014091E60128E40E949A1CCDB76A
:101AD000DEB7EFE00C94B439809101018130C9F494
:101AE00080E491E00E94B71D0E94981E809106013B
:101AF0000E94691D0E94341D0E94601D60910701B3
:101B00007091080180E090E04DEF26E50E949A1C5C
:101B10000895823011F40E940D070895FF920F93EB
:101B20001F93CF93DF9388E084B985B980E185BFA7
:101B300087E880937A0014B7187084B7877F84BFD2
:101B400088E10FB6F89480936000109260000FBE99
:101B500081E080939D0182E080939E010E94043782
:101B60000E946937112399F00E94A63882E00E94F2
:101B70008D1C84ED90E00E94C51D89E491E00E94D7
:101B80000C1F80ED97E00E9430142B988DC1189B9C
:101B900002C010E00FC084E190E00E943014189958
:101BA00005C01F5F1536B9F713E086C1103108F084
:101BB00082C111E080919D0180FF05C080919E014E
:101BC000806280939E010E94B4381092200129986F
:101BD000219A133019F40E947F1404C081E061E05F
:101BE0000E9473188091E4010E94C13782E00E9434
:101BF0008D1C88EB90E00E94C51D8AEC91E00E944C
:101C00000C1F8CED95E00E9430141092A90189E11F
:101C100080939F0181E08093A0018093A10188E8D7
:101C200093E19093A5018093A4012FE088E190E0D7
:101C30000FB6F894A895809360000FBE20936000C3
:101C4000789401E013E032E0F32EC8E7D1E010927F
:101C500000011092010110920201109203011092F2
:101C60000501109204011092B0011092B20110927D
:101C7000B1011092B4011092B3011092B60110920A
:101C8000B5011092B7011092B8011092B9011092EB
:101C9000BA011092BB011092BC011092BD011092CA
:101CA000BE011092BF011092C0011092C1011092AA
:101CB000C20110923A011092390110923C01109227
:101CC0003B0110922B0100932D011093260117B8B0
:101CD000F09220010E94A6380E9424070E949807D3
:101CE0000E946E0781E00E948D1C8091230181502B
:101CF0008093230189EC90E00E94C51D809123010F
:101D00008F5F809323010E94741B809100018130BA
:101D1000E1F180E061E042E00E945F1A81E060E072
:101D200042E00E945F1A80E062E041E00E945F1A98
:101D300082E060E041E00E945F1A81E062E040E002
:101D40000E945F1A82E061E040E00E945F1A0E94F8
:101D50001F1A0E94B52780910001882311F08A3054
:101D6000A1F40E94601D83E40E942B3882E060E0B1
:101D700040E00E94D32582E061E041E00E94D3254B
:101D800081E060E042E00E94D3250E94A6381093D3
:101D90002001299A84E190E00E94301429988091D2
:101DA00000018E3111F18F3160F48A3069F18B308E
:101DB00018F4813079F513C08B3049F1843151F535
:101DC00011C08132D9F0823228F48F3189F080320B
:101DD00009F511C0823291F08332E1F412C00E9401
:101DE0006C0D1AC00E947F0A17C00E94740914C0AB
:101DF0000E942F0911C00E94F0080EC00E94CC085A
:101E00000BC00E94A70808C00E943F0C05C00E949A
:101E1000BD0B02C00E940D07809100018E3130F091
:101E200080912601882311F00E94BD1E809100013F
:101E30008A3010F01092A901109220010E94821E97
:101E4000D0933301C093320188EB9BE06EE30E9494
:101E5000F110882329F48091A901853018F5F7CE77
:101E6000833031F08230F1F0853011F08536B9F4ED
:101E700080919D0180FF05C080919E018F7D8093A0
:101E80009E010E94DE138936E1F780919D0180FF5B
:101E9000D3CF80919E01806280939E01CDCF873603
:101EA00009F0D5CE0E94EE0680E090E0CDB7DEB717
:101EB000E5E00C94BE3912E080919D018E7F809305
:101EC0009D0178CEAF92BF92CF92DF92FF920F9397
:101ED0001F93DF93CF9300D00F92CDB7DEB78983E6
:101EE0006A834B836E010894C11CD11C860144E0B7
:101EF000A42EB12CAC0EBD1E802F8C19F801F080E1
:101F0000FF2049F00E94691D0E94341D8F2D0E9400
:101F10002B380E94601D0F5F1F4F0A151B0561F7CC
:101F20000F900F900F90CF91DF911F910F91FF9025
:101F3000DF90CF90BF90AF9008951F9311E00BC03A
:101F40002AE030E040E050E00E945839C901DA014F
:101F5000BC01CD011F5F6A3071058105910580F7D5
:101F6000812F1F9108956F927F928F929F92AF92CF
:101F7000BF92CF92DF92EF92FF920F931F933B019C
:101F80004C01F42E580169010E2D0E949D0F182F4F
:101F9000C601B5010E949D0F611471048104910472
:101FA00091F1A114B104C104D10431F1EF2CE10E7F
:101FB000800F8E1534F1E81669F51E2D1F19E01AF1
:101FC0000BC0C601B5012AE030E040E050E00E94BD
:101FD000F9385B016C01E394E1169CF30BC0C4017A
:101FE000B3012AE030E040E050E00E94F9383B01C4
:101FF0004C011F5F1E159CF3A614B704C804D90436
:1020000010F481E008C06A147B048C049D0410F075
:1020100080E001C08FEF1F910F91FF90EF90DF9054
:10202000CF90BF90AF909F908F907F906F900895CA
:102030000F931F93142F022F9B01AC0117C0101791
:1020400054F4B901CA012AE030E040E050E00E94B7
:1020500058391F5F0BC0B901CA012AE030E040E0E7
:1020600050E00E94F9389B01AC011150101739F76C
:10207000B901CA011F910F910895AF92BF92CF92FB
:10208000DF92EF92FF920F931F93F42E5801690194
:102090000E2D0E949D0F1F2D180FC601B5010E9425
:1020A0009D0F8E0D811744F4812F8F1985308CF090
:1020B0004F2D4450480F10C0982F9E19181734F414
:1020C00095304CF04E2D4450490F06C01F19911702
:1020D00014F44F2D01C0402F842F1F910F91FF90BA
:1020E000EF90DF90CF90BF90AF900895382FE82FFA
:1020F000F92F01C031969E2F931B84918823D1F72D
:10210000892F0895681721F48AE20E942B380895D8
:102110000E94601D089503C00E94E038A895189B96
:10212000FBCF84EF91E00E94301408951F931AB101
:102130008AB18F738AB90E94E63889B186FD02C0E0
:1021400030E001C032E087FD31601AB980912F0183
:10215000813031F430932E0110922F011092310111
:1021600080913101882329F08A3F18F48F5F809392
:10217000310120912E0130932E01231779F1832F05
:10218000822780FF8695813031F5220F82E790E02B
:1021900002C0959587952A95E2F78370831711F011
:1021A00095E001C094E0809130018F5F8093300111
:1021B00080912F01981729F081E08093300180935E
:1021C000310190932F0180913001843038F01092CA
:1021D0003001892F04C081E080932F0180E01F919E
:1021E0000895A3E0B0E0E7EFF0E10C9495395C01CD
:1021F000162F81E080932F011092300180932C01E3
:1022000080919E0185FF04C068E7C62ED12C02C0D4
:10221000CC24DD2412FF08C080919D0180FF03C003
:10222000AA24BB2401C01C7F15FF21C020913201CC
:10223000822F90913301FC0101C031969E2F921B99
:1022400084918823D1F7915080912301981778F4D5
:10225000882E891A1C7F882D609124010E94E737FF
:1022600080913201909133010E94B71D01C08824F2
:10227000812F90E09B838A833C0193E0692277243D
:102280006114710409F4C9C081E00E946A38C5C0B4
:10229000A114B10451F0E3E0AE16B10410F400E073
:1022A00004C08EEF9FEFA80EB91E18993CC08EE1B6
:1022B00090E00E94301410E009C0189909C01F5F17
:1022C0001B3130F48AE090E00E9430140023A9F71B
:1022D0001B3118F052E0F52E24C0EA81FB81EF2B70
:1022E00019F4FF24F3941DC082E390E00E9430149F
:1022F000FF24F39414E118990DC08EE190E00E9440
:102300003014189907C088EC90E00E94301443E024
:10231000F42E11E011508AE090E00E943014112355
:1023200051F700E070C00E949610882371F1EE20F2
:1023300011F4F82E03C08F1509F08BC0E39480913F
:1023400031016E2D0E941839282FF8E18F9FC001AE
:10235000112434E0969587953A95E1F7893208F093
:1023600088E2982F969596959695933010F433E0E1
:1023700039838981E81621F09CE0990E920E05C000
:1023800087E0891B80932C0164C0EE2029F08091A6
:102390003101891508F05DC082E090E00E943014A0
:1023A0001F5F812F68E20E941839992369F4809198
:1023B000A801823020F081508093A80105C041140B
:1023C000510411F00E949807183CE9F421143104DB
:1023D00059F0013029F480E00E946A3802E004C01C
:1023E00081E00E946A3801E0C114D10459F0E2E0B2
:1023F000CE16D10420F497E6F92E00E003C008942D
:10240000C108D10810E080919E0180FF1FC080911B
:102410009E018E7F80939E011CC0FF2401E010E08E
:1024200082E3982EEE24F2E0F9832A803B8032E0AA
:10243000232233244A805B8080E148225524EA81AC
:10244000FB81E870F070FB83EA8322CF002309F060
:102450001FCF6114710419F080E00E946A3888204F
:1024600041F0882D609124010E94E73780E00E94AE
:102470007938F0922B01F7E6FF1611F40E94EE0670
:102480008F2D2396E2E10C94B139A0E0B0E0EBE4AB
:10249000F2E10C949639182F362E3A014901C82ED4
:1024A000CA94D0902401DA940E94341DFF24EE24B3
:1024B00002E04D2C4A94512EBC2CBD18B394A02E92
:1024C000AD1881E0D81611F40F5FEF2CCE2DD0E0BF
:1024D000CC0FDD1FC60DD71D10E02EC0612F6E5F23
:1024E00081E00E94E73781E0D81629F0812F8E0D18
:1024F0006F2D0E9482100230D0F081E0381629F44E
:10250000888199810E94B71D09C0FE01659174916F
:1025100080E090E040E020E00E949A1C8114910449
:1025200019F0C4010E94B71D80E00E9479381F5F36
:10253000C11608F41D2D22961D1580F281E0D816D3
:1025400049F480912301609124010E94E7378CE3D4
:102550000E942B3880E090E060E10E94F110813011
:1025600011F41F2D3FC0843019F41F2D01E01DC050
:10257000853019F01F2D01E033C0FF2039F4CD1450
:1025800008F43FC0EB2C1C2D02E039C01F2D115068
:102590001E15C1F5EE20B1F1FD1410F4EE2401C0BA
:1025A000EA0C81E0F816D1F402E01C1531F41D1597
:1025B00008F00F5F10E0EE2422C0912F9F5F842D62
:1025C0008E0D9817D9F49C15C8F4852D891B8D158F
:1025D00010F0E12E01C0EB2C0F5F10C08F2D02E038
:1025E000823069F40E94A63884EF91E00E94301492
:1025F000812FCDB7DEB7E1E10C94B239192FF12E5E
:1026000060CF1C2D01E0FBCFA7E2B0E0EAE0F3E1F0
:102610000C94A53984E891E09F878E8786E08983B2
:1026200088E891E0998B888B87E08A8384E991E040
:102630009B8B8A8B80E28B838DEA91E09D8B8C8BC8
:1026400081E28C8388EB91E09F8B8E8B87E28D8378
:1026500082E091E0998F888F82E08E8380EA91E01A
:102660009B8F8A8F8CE08F838DE091E09D8F8C8F84
:1026700083E0888782E191E09F8F8E8F84E0898755
:1026800087E191E099A388A385E08A8789EA91E0B0
:102690009BA38AA384E18B8780E591E09DA38CA313
:1026A0001C860E94A63886EF90E00E94B71D8CE041
:1026B00061E0AE01425F5F4F20E030E00E944512D2
:1026C000FE01E80FF11D8181A796E2E00C94C1396B
:1026D000A9E0B0E0EEE6F3E10C94A439182F82E50E
:1026E00092E09D838C8385E592E09F838E8380E5D5
:1026F00091E0998788870E94A638123019F48DE0FE
:1027000091E002C082E191E00E94B71D83E061E0A8
:10271000AE014C5F5F4F20E030E00E94451291E037
:10272000998392E09A831B82FE01E80FF11D61817B
:10273000662319F0812F0E9473182996E3E00C9408
:10274000C0390F931F93CF93DF93082F882321F471
:10275000C3E2D1E010E003C0CAE2D1E013E00E947E
:102760005F1B8117A1F00E94A63882E00E948D1C99
:10277000CE010E94C51D81E391E00E940C1F0E94C2
:102780005F1B811731F488EC90E00E94301481E0E7
:102790000AC084E690E060E10E94F110013079F710
:1027A000882369F380E0DF91CF911F910F91089505
:1027B00088EB9BE065E10E94F11008951F930E9451
:1027C0000413E82FF0E0E832F10508F047C0EC5CB4
:1027D000FF4F0C94CC3919E635C00E94AA1402C0F0
:1027E0000E945216182F8823F9F02AC082E001C0F7
:1027F00081E00E94681332C00E94DF152FC00E9442
:102800006B352CC00E94693429C00E94471E26C027
:102810000E94EE0623C00E942B3220C00E94143476
:102820001DC00E9481331AC00E94A63881E00E9418
:102830008D1C89E491E00E94C51D0E94D8130BC035
:10284000893649F40E94A63881E00E948D1C80EFF1
:1028500090E00E94C51D812F1F91089511E0FBCFCC
:102860001F93BC011092B1001092B20082E08093DD
:10287000B000809370000FB607FC1FC0789410E082
:102880001DC0A8952F3F31054105510519F010F0E5
:102890009FEF01C0922F91509093B3009F5F609380
:1028A000B10002C0000000008091B1008823D1F780
:1028B000291B3109410951090CC011E080E090E069
:1028C00024E130E040E050E00E94F9389B01AC0187
:1028D00067E0211531054105510599F6112309F4E9
:1028E000F8941F9108951F920F920FB60F92112422
:1028F0001092B1000F900FBE0F901F90189588ECAA
:1029000090E09093DC018093DB018CED90E090935C
:10291000DE018093DD0184E190E09093E0018093FB
:10292000DF018BE28093E1011092E2011092E3015A
:102930008FEF8093E4010895EBEDF1E090E0819159
:10294000980F81E0E53EF807D1F7992309F491E06B
:10295000892F0895A0E0B0E0E0EBF4E10C94953904
:1029600081E00E94A113882319F4BAE0DB2E02C093
:10297000DD24D39488249924AA24BB24C0E0D0E089
:10298000A2E06A2EF8E07F2EE0E25E2E71E1272EB3
:102990000CC1CC24C39464E0462E54E1352E0E9431
:1029A000A63884E50E942B388D2D805D0E942B383F
:1029B0000E94601D83E0D81609F462C08D1540F0B6
:1029C00081E0D81689F082E0D81609F0AFC022C0A5
:1029D00085E0D81609F484C0D81608F47AC086E0D9
:1029E000D81609F0A3C08CC08EE00E94BD188EE0FE
:1029F0000E94BD187C018AE192E00E94B71D0E94EE
:102A0000981E00E010E0C801B7014DEF26E50E94D6
:102A10009A1C64C08FE292E00E94E51D89E392E077
:102A20000E94B71D6091A4017091A50180E090E023
:102A300020E733E040E050E00E94F93824EF36E030
:102A400040E050E00E947A3979018A0181E08BB937
:102A500085E08AB983E00E942519EC01CE19DF09CF
:102A60002AB882E00E9425195C01AE18BF084BB855
:102A70003AB881E00E9425194C018E189F0856C073
:102A800084E392E00E94E51D89E392E00E94B71D75
:102A90000091A4011091A501169507956BB88AE0E5
:102AA0008AB983E00E942519EC01C01BD10B82E298
:102AB0008AB982E00E9425195C01A01AB10A7BB88C
:102AC00088E28AB981E00E9425194C01801A910A96
:102AD0002DC080E00E94A11334E6C32E80E027C001
:102AE0008FE192E00E94B71D1BB86AB881E00E9496
:102AF00025194C017AB882E00E9425195C0111C0A9
:102B000083E292E00E94B71D6BB86AB881E00E9430
:102B100025194C017BB87AB882E00E9425195C0126
:102B20005BB85AB883E00E942519EC0181E01AB81D
:102B30001BB8882309F10E94981EB401882777FDED
:102B40008095982F40E020E00E943C1D0E94601D6F
:102B5000B501882777FD8095982F40E020E00E94FE
:102B60003C1D0E94601DBE01882777FD8095982F2F
:102B700040E020E00E943C1D84E6C81681F088EE0B
:102B800093E060E10E94F110882349F0823029F43B
:102B900024E6C22E94E6D92E02C084E6C82EC39441
:102BA00085E08C1508F0FBCED39486E08D1508F0F7
:102BB000F0CE81E0CDB7DEB7E2E10C94B13981E02F
:102BC000809320010E94A63887E292E00E94E51DD2
:102BD0006091DB017091DC0180E090E04FEF24E038
:102BE0000E949A1C8BE292E00E94FE1E6091DD0121
:102BF0007091DE0180E090E04FEF24E00E949A1C8B
:102C000082E492E00E94FE1E6091E10170E080E0AB
:102C100090E044EF26E40E949A1C85E492E00E9432
:102C2000FE1E6091DF017091E00180E090E04EEFC8
:102C300024E00E949A1C8AE192E00E94FE1E6091AC
:102C4000A2017091A30180E090E04DEF26E50E9483
:102C50009A1C88E492E00E94FE1E6091A40170918B
:102C6000A50180E090E04DEF26E50E949A1C80913E
:102C70009D0182FF05C00E94601D8AE20E942B38E0
:102C80008CE492E00E94FE1E6091E301772767FDCD
:102C90007095872F972F4DEF26E50E943C1D0E94CF
:102CA000D8130895A4E0B0E0E8E5F6E10C94953976
:102CB00081E00E94A113882319F4EAE0DE2E02C00D
:102CC00072E0D72EEE24FF2400E010E01C821B826D
:102CD0007724AA24BB246624882499241A824424B5
:102CE000552419822224332462C1CC24C3940E9427
:102CF000A63881E40E942B388D2D805D0E942B38F0
:102D00000E94601D24E0D21609F452C02D1540F037
:102D100032E0D31671F083E0D81609F00BC141C040
:102D200095E0D91609F470C0E6E0DE1609F002C19C
:102D3000AAC085E492E00E94E51D89E392E00E942A
:102D4000B71D81E060E040E00E94371980E00E94FA
:102D5000221F7C018639910518F4880E991E639410
:102D600082E060E040E00E94371980E00E94221F6C
:102D70008C018639910518F4880E991E639482E0BF
:102D800061E040E00E94371980E00E94221F9C838E
:102D90008B838639910508F0CDC0880E991E639407
:102DA000C9C080E00E94A11364E6C62E80E0C3C0C3
:102DB00087E292E00E94B71D18B822E027B931E0FF
:102DC0003BB93AB981E00E942E197C01D7B8DBB833
:102DD000DAB882E00E942E198C0188E087B990E170
:102DE0009BB99AB983E00E942E199C838B83C701FB
:102DF000800F911F480E591EEB81FC814E0E5F1E05
:102E0000FA81FD5FFA8396C08BE292E00E94B71DC3
:102E10001BB822E028B927B931E03AB9E090A40103
:102E2000F090A50181E00E942E19E81AF90A84E0C9
:102E300088B987B98AB90091A4011091A50182E0EF
:102E40000E942E19081B190B98E098B997B9E0E178
:102E5000EAB92091A4013091A5013C832B8383E042
:102E60000E942E19EB81FC81E81BF90BFC83EB839C
:102E7000C701800F911F280E391E2E0E3F1EF981AB
:102E8000FD5FF98357C082E492E00E94E51D89E36B
:102E900092E00E94B71D81E060E040E00E94D325EF
:102EA00080914B01843F89F48091500190915101B0
:102EB000A0915201B091530185369105A105B1054C
:102EC00020F47C01A80EB91E739482E060E041E01A
:102ED0000E94D32580915B01843F89F48091600139
:102EE00090916101A0916201B091630185369105D5
:102EF000A105B10520F48C01A80EB91E739482E0DF
:102F000061E042E00E94D32580916B01843F91F4FF
:102F10008091700190917101A0917201B091730143
:102F200085369105A105B10528F49C838B83A80EF5
:102F3000B91E739481E017B818B81AB81BB8882363
:102F4000E9F00E94981EB70180E090E040E020E0A8
:102F50000E949A1C0E94601DB80180E090E040E051
:102F600020E00E949A1C0E94601D2B813C81B901C7
:102F700080E090E040E020E00E949A1C34E6C31616
:102F800081F088EE93E060E10E94F110882349F01F
:102F9000823029F454E6C52E44E6D42E02C034E62D
:102FA000C32EC39485E08C1508F0A1CED39496E08F
:102FB0009D1508F09ACEEFE07E1611F0BB2409C0F3
:102FC000C5016FE070E00E9431396093E101BB24DC
:102FD000B394FFE06F1651F4C4016FE070E00E94FB
:102FE00031397093E0016093DF01B3942A812F306F
:102FF00009F06EC039813F3009F06AC0C20165E056
:1030000070E00E9431398B01C10165E070E00E94DF
:1030100031394B014091A4015091A501CA01880F9B
:10302000991F840F951F801B910B861B970B6C01BA
:10303000EE24FF2420E030E0C901B80120EA39E0A5
:1030400041E050E00E94F938A70196010E945839EA
:10305000B901CA016B5F7F4F8F4F9F4F2AE030E06D
:1030600040E050E00E945839C901DA018A3F9105D9
:10307000A105B10528F43093DC012093DB01B39462
:10308000B40180E090E020EA39E041E050E00E94A5
:10309000F938A70196010E945839B901CA016B5F3E
:1030A0007F4F8F4F9F4F2AE030E040E050E00E947A
:1030B0005839C901DA018831E1E09E07E0E0AE0746
:1030C000E0E0BE0728F43093DE012093DD01B394E5
:1030D0000E94DF1580E0F4E0BF1609F481E0249639
:1030E000E2E10C94B139FF920F931F93CF93DF93DA
:1030F000F82E623019F40BE010E002C000E010E09E
:10310000CBEDD1E00E949C148093E50182E0F8169B
:1031100029F4C80168810E94153A04C0C8010E94C0
:103120000D3A888381E0C53ED80721F021960F5FD4
:103130001F4FECCF82E0F816D9F00E949C149091BA
:10314000E5019923A9F0981799F00E94A63882E02A
:103150000E948D1C85E591E00E94C51D89E491E0E7
:103160000E940C1F80ED97E00E9430140E947F1493
:10317000CDB7DEB7E5E00C94BE39FF920F931F93F5
:10318000182F1F70106410937C00012F007C809119
:10319000A101081721F00E94EA380093A101809153
:1031A0007A00806480937A0080917A0086FDFCCF5B
:1031B000F0909F017091A00160E020E030E040E0DD
:1031C00050E020C080917A00806480937A008091E2
:1031D0007A0086FDFCCF8091780090917900A0E084
:1031E000B0E0280F391F4A1F5B1F643051F484E0A0
:1031F0002030380730F4003C21F0713011F4106CAD
:10320000C2CF6F5F6F15F0F2003C29F46091A2010C
:103210007091A30104C06091A4017091A50180E0A8
:1032200090E00E94F9382AE0969587957795679502
:103230002A95D1F72F2D30E040E050E00E94583918
:10324000C9011F910F91FF9008951F93182F0E949D
:10325000DF38812F0E94BD181F9108951F93182FEA
:103260000E94E138812F0E94BD181F910895CF93CD
:10327000DF938093C9016093CA014093CB01A82FCB
:10328000B0E08FE693E0FC01EA0FFB1FE491E093CE
:10329000CF01262F30E0FC01E20FF31FE491E09311
:1032A000D00150E0840F951FFC0184918093D101DF
:1032B00082E793E0FC01EA0FFB1FE491E093D20167
:1032C000FC01E20FF31FE491E093D301840F951FFB
:1032D000FC0184918093D40185E793E0FC01EA0F1F
:1032E000FB1FE491E093D501FC01E20FF31FE49191
:1032F000E093D601840F951FFC0184918093D70140
:10330000C8E7D3E0AC0FBD1FFD0184918093D801C5
:103310002C0F3D1FF90164916093D901C40FD51F93
:10332000FE0184918093DA01DF91CF91089580911D
:10333000CC016091CD014091CE010E9437190895D2
:103340008091C9018093CC018091CA018093CD0105
:103350008091CB018093CE01089593E0981B892F33
:10336000861B0895EF92FF920F931F93CF93DF93E5
:10337000AC01613049F4E2E0F3E088EE93E0C2E3AF
:10338000D0E027E030E018C0623049F4E6EAF2E02D
:103390008CE291E0C9E1D0E02CE230E00DC0633076
:1033A00019F020E030E045C0E4E1F3E088EC90E083
:1033B000C9E1D0E02EE130E04817590718F400E0E9
:1033C00010E003C08A01081B190BC801BE010E944E
:1033D0003139862F90E02817390708F4622F862F9D
:1033E00090E0880F991F8E0F9F1FFC01259134914B
:1033F0000296FC01E590F4902E193F09C801BE0128
:103400000E943139AE01481B842F90E0FC012E9FB1
:10341000C0012F9F900D3E9F900D11249E01369567
:103420002795820F931FBE010E9431399B012E0DFB
:103430003F1DC901CDB7DEB7E6E00C94BD399091D0
:1034400003019923E1F08091020180FD18C081FD04
:1034500004C0809100018E3190F49093000180911E
:1034600036018093AA01809137018093AB0180914E
:1034700038018093AC0180910A018093090108957D
:103480001F93182F60FF03C08BB1812B03C09BB12A
:10349000809589238BB98AB1812B8AB963FF03C0D8
:1034A0000E94E53802C00E94E0388AB1912F9095C1
:1034B00089238AB98BB198239BB91F910895CF9323
:1034C000DF93982F80910001813009F4BEC0A89548
:1034D000892F0E9437191BB88091D0018AB9809139
:1034E000D50187B988B98091D10160E10E94401A65
:1034F0008091D9010E942E19EC018091D101909107
:10350000D001892B8AB98091D9010E942E199C0182
:103510008091D0018AB92C173D0720F42530310560
:1035200008F4E90123E0C13DD20708F18091D101FF
:1035300061E10E94401A8091D9010E942E19EC018C
:103540008091D1018BB99091D001892B8AB980915A
:10355000D9010E942E199C011BB88091D0018AB913
:103560002C173D0720F42530310508F4E901C0315E
:10357000D10538F080910201882319F4CE010E9410
:10358000792A83E0C13DD80708F042C0809102014A
:103590008823D9F48091D0018AB91BB88091D501D4
:1035A00087B988B90E94E1388091D1019091D0010A
:1035B000892B8AB98091D9010E942E198F559D407F
:1035C00020F082E0BE010E94C02C8091020188237D
:1035D00039F58091D60187B918B88091D1019091C1
:1035E000CF01892B8AB98BB98091D8010E942E19FD
:1035F00080549640A8F40E94D729882389F48091AA
:103600000001813269F081E0BE010E94C02C08C037
:1036100080910201882311F40E9418280E94DC2E58
:1036200080910001882311F08A3019F40E94EC1F68
:1036300008C08F3131F48091010184FF02C00E94E3
:10364000FD2717B818B81AB81BB8DF91CF910895A5
:10365000CF93DF9340E00E94371917B88091CF01D4
:103660008BB99091D001892B8AB98091D8010E94A1
:103670002E19EC018091D9010E94BD182091A4015E
:103680003091A50136952795B9016E5170406C17A0
:103690007D0778F4A901425E5F4FC417D50748F44F
:1036A0006817790730F420E08417950718F421E0B3
:1036B00001C020E01AB8822FDF91CF9108950F93B7
:1036C0001F9380E061E00E94281B082F80E062E0E9
:1036D0000E94281B182F81E062E00E94281B100F17
:1036E000810F1F910F9108956F927F928F929F92F9
:1036F000BF92CF92DF92EF92FF920F931F93DF93CF
:10370000CF9300D000D000D0CDB7DEB717B818B82F
:103710001BB88FE38AB981E00E94BD189A83898320
:1037200082E00E94BD189C838B8383E00E94BD18B9
:103730009E838D83FF24F39408E2E02E12E0D12EC5
:10374000CC243E010894611C711CB1E08B2E912C9D
:10375000D39483E0D81609F4DD240D2D10E08C2DD0
:1037600090E00D2C02C0959587950A94E2F780FDB4
:1037700070C0F801E858FC4FB4908B2D0E94BD1822
:103780009C01F801EE0FFF1FE60DF71D808191816E
:103790002817390770F4318320838E2D90E08F191C
:1037A0009109449784F4EAEEEE1568F0F4E1EF0E27
:1037B0000AC02A30310528F488E2E81611F470E5D1
:1037C000E72EF39402C0FF24F3942330310548F42C
:1037D000C401002E02C0880F991F0A94E2F7C82A7C
:1037E0000AC02052334038F487B1F801EB58FC4F3F
:1037F000E491E82BE7B9F7E0CF1671F1EF1420F56B
:1038000081E08093000180930101D0920601F801CC
:10381000EB58FC4FE49187B1E095E823E7B9F80154
:10382000EE58FC4F249101591C4FF80184919AB134
:10383000822B809589238AB98B2D0E94BD18909385
:1038400008018093070108C0A89582E390E00E94D8
:103850003014FF2009F07CCF1AB817B826960FB69F
:10386000F894DEBF0FBECDBFCF91DF911F910F91B6
:10387000FF90EF90DF90CF90BF909F908F907F90C0
:103880006F900895EF92FF920F931F93E82EF62EFC
:1038900017B818B81AB81BB840E00E9437198091C1
:1038A000D50187B98091D9010E94BD188C01809102
:1038B000D60187B98091D8010E94BD180817190751
:1038C00028F48F2D6E2D40E00E9437198091D5018C
:1038D00087B98091D0018AB901E08091D9010E9415
:1038E000BD189C0181E02039380740F487B19091E0
:1038F000D601892B87B92832310540F00F5F033399
:1039000029F084E690E00E943014E7CF17B81AB887
:103910001F910F91FF90EF900895609124018617F9
:1039200010F061E003C0681B66956F5F81E00E9444
:10393000E73708959F92AF92BF92CF92DF92EF92B6
:10394000FF920F931F936B017C01042F922E15C0E1
:1039500085E090E0A0E0B0E0C80ED91EEA1EFB1E94
:10396000C701B6012AE030E040E050E00E9458393B
:10397000C901DA016C017D010F5F90E1C91697E280
:10398000D90690E0E90690E0F90610F7013F1CF433
:10399000AA24BB241AC0202F215F822F63E00E943B
:1039A0002439E82F822F63E00E942439B92E99230D
:1039B00021F0EF5F83E0891BB82EE83010F0AA24D5
:1039C00004C0F0E0E256FD4FA4900DE311E0C60103
:1039D000B8014AE050E00E94F739D8010D9000206C
:1039E000E9F78D01015010400D531140E02E0B19E5
:1039F00010165CF080E30E942B388EE20E942B3878
:103A0000002319F080E30E942B38BB2009F40FEF4C
:103A10000150FF24C02EDD24C7FCD0940FC00F2D11
:103A200010E0F801E35CFE4F80810E942B380C15FA
:103A30001D0519F48EE20E942B38F394FE1478F3DE
:103A4000AA2019F08A2D0E942B38992019F0892D6F
:103A50000E942B381F910F91FF90EF90DF90CF9035
:103A6000BF90AF909F9008958AE30E942B380895ED
:103A70008DE20E942B380895CF92DF92EF92FF9251
:103A80000F931F937B018C01D42EC22E97FF0BC086
:103A90008DE20E942B3810950095F094E094E11C83
:103AA000F11C011D111DC801B7014D2D2C2D0E94C7
:103AB0009A1C1F910F91FF90EF90DF90CF90089587
:103AC00080E20E942B3808950E94DC060E942B3869
:103AD00008958F5C0E942B3808951F93182FE09152
:103AE000090183E0E89FE02D1124F0E0ED5BF24F47
:103AF000E60FF11D84918823C1F190912901915025
:103B000060912A01282F30E084FF04C080912801B1
:103B10008695680FA9014270507021FF0DC025FFE6
:103B200006C0809127018695980F9F5F03C0809102
:103B30002701980F23FD615022FF07C080912801C3
:103B40008150680F452B09F06F5F892F0E94E7377E
:103B5000812F0E94DC06883721F4812F0E94641D8A
:103B600004C0812F8F5C0E942B381F910895CF9342
:103B7000DF93EC0103C00E942B382196FE01849153
:103B80008823C9F7DF91CF9108950F931F93182FC2
:103B9000092FFC0101C031969E2F911B849188232F
:103BA000D1F780912301891710F481E003C0891BAC
:103BB00086958F5F609122010E94E737812F902FB9
:103BC0000E94B71D1F910F9108950E94B71D80E2BA
:103BD0000E942B380895DF92EF92FF920F931F936C
:103BE000F42ED22E0DE311E0A8012AE030E00E946D
:103BF000D239F80101900020E9F78F0101501040FF
:103C00000D531140E02EFF2011F404E60DC00F15F6
:103C100030F00F1911F0FF2407C0FF2401C0F01A83
:103C200080E30E942B3800E010E014C0101751F41C
:103C30008EE20E942B3804C080E30E942B38FA9455
:103C4000FF20D1F7E12FF0E0E35CFE4F80810E947E
:103C50002B381F5F1E1550F3DD2019F08D2D0E94AB
:103C60002B381F910F91FF90EF90DF90089583E024
:103C70000E94793881E063E00E94E737089582E08E
:103C80000E94793881E062E00E94E7370895FF9250
:103C90000F931F930E94A63880EA91E00E94E51DD1
:103CA0001091E401F090250101E00E943F1E612F78
:103CB00070E080E090E040E020E00E949A1C043038
:103CC00020F48CE291E00E94301480E090E068E102
:103CD0000E94F110082F813031F0833011F400E0A0
:103CE00008C0843021F41F1520F41F5F02C0111199
:103CF0001150812F0E94C1370023B9F61F910F91F7
:103D0000FF9008951F9310912201809124011817AC
:103D100069F40E94D813812F0E94793881E0612FC5
:103D20000E94E73784EF91E00E9430141F910895BC
:103D30001F939091200160912201809124016817C6
:103D4000B1F4192F90FF02C00E94D81311FF0CC0CC
:103D50001091240104C0812F0E9479381150123033
:103D6000D0F781E062E005C00E94A63804C06F5F12
:103D700081E00E94E7371F9108951F93382F8091AB
:103D80002801982F9F5F209124018D5F2817A0F1B3
:103D900080912301803118F0930F921738F020930F
:103DA00022010E94981E33E093E005C0982F9F5F88
:103DB00080912701981B9093290130932A0110913B
:103DC00022018091AA0160E00E946D1D8091AB01EB
:103DD00061E00E946D1D8091AC0162E00E946D1D4A
:103DE0008091290160912A010E94E73780910901A1
:103DF0000E94F737109322011F9108950F931F938C
:103E00008C010E94981EC8010E94B71D80E20E948A
:103E10002B381F910F9108950F931F938C010E94CF
:103E2000981EC8010E94C51D1F910F9108950F9300
:103E30001F938C010E94981EC8010E94B71D1F91FC
:103E40000F910895A0E0B0E0E8E2FFE10C9498390A
:103E5000582E0E94741B80910001813019F420E0DB
:103E600030E0A6C018B88091D60187B98091CF0103
:103E70008BB98AB90E94E03861E066247724430157
:103E8000862F90E0EC01C170D07060FF03C080917C
:103E9000D80102C08091D901A895806C80937C00E4
:103EA0000E94EA3880917A00806480937A00809141
:103EB0007A0086FDFCCFAA24EE24FF24870180919E
:103EC0007A00806480937A0080917A0086FDFCCF2E
:103ED0008091780090917900A0E0B0E0E80EF91EA2
:103EE0000A1F1B1F0E94E738A39484E6A81639F71F
:103EF0002091A2013091A30140E050E0C801B70138
:103F00000E94F9387B018C018AE016950795F79499
:103F1000E7948A95D1F762E0CD2B09F44FC0C70131
:103F2000D8013C014D01ACCF6091A4017091A50175
:103F300080E090E024E630E040E050E00E94F93874
:103F400066197709880999090E94F9385B016C01A3
:103F50006E187F08800A910AC401B30128EE33E08D
:103F600040E050E00E94F9387B018C012091DD0196
:103F70003091DE012057354E40E050E0C601B501DA
:103F80000E945839C801B7010E94583981E058167B
:103F900061F48091DF019091E0018217930718F49A
:103FA000281B390B02C020E030E080EC8093A10197
:103FB000C901CDB7DEB7EFE00C94B4391BB88091DE
:103FC000D5019091D601892B87B9E614F70408052D
:103FD000190508F4A9CFE7CFA0E0B0E0E2EFFFE1D8
:103FE0000C949639A89518B88091D60187B980911C
:103FF000CF018AB98BB98091D9010E942E197C0119
:104000008091D8010E94BD184C011BB88091D2014B
:104010008AB98091D8010E942E19459708F025C2CF
:104020008091D2018BB98091D8010E942E192C0168
:104030008091D50187B988B91BB88091D0018AB920
:104040008091D8010E942E198C018091D9010E9483
:10405000BD183C018091D3018AB98091D9010E9499
:104060002E19EC0120E3821621E1920628F482E663
:104070004816510408F0F9C12CE6421623E1520615
:1040800008F0F3C189EA6816710408F06EC0C63200
:10409000D10508F4EAC1B20180E090E020EF3BE2F4
:1040A00047E050E00E94F938E090A401F090A501AB
:1040B00097012419350940E050E00E945839590110
:1040C0006A01EC1AFD0A00E010E0C801B70120EF18
:1040D0003BE247E050E00E94F9389E0140E050E0AA
:1040E0000E945839B901CA012EED421623E052064A
:1040F00070F442E0AA0CBB1CCC1CDD1C4A95D1F725
:10410000A60EB71EC81ED91EC601B5010EC0CE5DD3
:10411000D340B0F432E0660F771F881F991F3A959D
:10412000D1F76A0D7B1D8C1D9D1D25E030E040E020
:1041300050E00E945839C901DA01BC01CD0108C024
:104140006A0D7B1D8C1D9D1D9695879577956795AE
:10415000625A7E4F8F4F9F4F2AE030E040E050E0A0
:104160000E94F9383B014C01A0C08E149F0408F452
:1041700090C00615170508F48CC0C091A401D09119
:10418000A5018C169D0619F40894810891082091C8
:10419000DD013091DE012057354E40E050E0B401A2
:1041A0006E197F0980E090E00E94F938C819D9099A
:1041B0009E0140E050E00E94583959016A01209167
:1041C000DB013091DC012057354E40E050E006190C
:1041D0001709B80180E090E00E94F938930140E0AF
:1041E00050E00E94583979018A018EED881683E0EB
:1041F000980640F492E0AA0CBB1CCC1CDD1C9A95DE
:10420000D1F715C02EED621623E07206B8F588EFDF
:10421000E81684E2F80681E0080780E0180790F4C9
:1042200082E0EE0CFF1C001F111F8A95D1F7AE0C27
:10423000BF1CC01ED11EC601B50125E030E040E024
:1042400050E015C0C801B701B3E0660F771F881FA3
:10425000991FBA95D1F76E0D7F1D801F911F6A0DB2
:104260007B1D8C1D9D1D2AE030E040E050E00E9447
:104270005839C901DA013C014D0117C03501460129
:104280006E0C7F1C801E911E969487947794679481
:104290000CC02FE8621622E1720608F4E2C0FAE0D0
:1042A0006F2E712C812C912C06C084E66816710447
:1042B0008104910478F581E00E94221F7C0100E0D6
:1042C00010E0C401B301660F771F881F991F25E016
:1042D000621671048104910420F4660D771D881D17
:1042E000991D2AE030E040E050E00E94F938611565
:1042F00071058105910521F464E670E080E090E0AD
:10430000E616F7060807190728F4370148015EEF9B
:10431000552E02C055245A9420E047E0342E3AE04E
:10432000432E81C0239DE0011124C55FDE4F98819B
:104330008091C901981709F073C099818091CA01D1
:10434000981709F06DC0C401B301452D02E010E0DB
:1043500020E030E0EE240E94B30F8F3F91F56B8197
:104360007C818D819E814A8102E010E020E030E076
:104370000E94B30F8F3FF1F44A81451519F0FF24D5
:10438000FA9402C0FF24F3946B817C818D819E811D
:1043900094018301E52C0E94B30F8F1531F46B80DB
:1043A0007C808D809E805A8005C06B827C828D824D
:1043B0009E825A8264015301D694C794B794A794FD
:1043C0000CC0C401B30124E130E040E050E00E94A1
:1043D0005839C901DA015C016D016B817C818D81E5
:1043E0009E81940183010A191B092C093D094A8108
:1043F000E52C0E94B30F87FD15C06B817C818D81F8
:104400009E81A60CB71CC81CD91C4A819601850147
:104410000E94B30F181634F04092000124E603C046
:104420002F5F01C028EC90910401291708F47ACF7E
:104430002436D9F09330C8F4E7E09E9FF0011124B0
:10444000E55FFE4F8091CA0180838091C90181831D
:10445000638274828582968252829F5F9093040168
:1044600004C066247724430126CFCDB7DEB7E1E14F
:104470000C94B239EF920F931F93142F10920401F2
:1044800040E00E9437190E94EC1F809104018130A6
:1044900011F090E017C01123A1F0612F70E080E0CF
:1044A00090E000910E0110910F01209110013091C8
:1044B000110143E0E0900D010E94B30F90E08130C4
:1044C00009F491E0892F1F910F91EF900895982F93
:1044D000813110F480E00895915115BC82E084BDD3
:1044E00097BD81E0089516BC81E085BDA99BFECFF4
:1044F00015BC82E085BB08954F925F926F927F92C8
:104500009F92AF92BF92CF92DF92EF92FF920F9362
:104510001F93CF93DF933C010E94741B8091000195
:10452000813009F4CBC11BB88EE087B918B88091EF
:10453000D2018AB980E480937B0084E480BF8091BB
:10454000D801806480937C0087E080937A000E9489
:10455000E93810928000109281001092850010922C
:10456000840087E286BB8091D2018BB980910001E3
:104570008F3129F49091D50190959E7002C0909151
:10458000D60181E08093810097B900E010E091E0CE
:1045900086B3282F85FD0AC080FFFACF96BBA89569
:1045A0000F5F1F4F8FE0003A180791F710928100BC
:1045B00080E286BBC0918600D09187001AB88091B6
:1045C000840090918500C817D90730F420FF04C0FB
:1045D00081E086BB0F5F1F4F87E980937A0080914F
:1045E0007B008F7B80937B008091D8010E94BD1857
:1045F0002C011BB88091D2018AB99FE0003A1907BB
:1046000010F081E05EC19E0140E050E0C801A0E0F2
:10461000B0E08C01FF24EE24E22AF32A042B152BB0
:10462000A3E0EA16F1040105110500F18EEF9FEFFA
:10463000AFEFBFEFE80EF91E0A1F1B1F98E3E91644
:1046400099E8F90691E4090790E0190778F0C801A4
:10465000B70128EE33E040E050E00E945839C9012C
:10466000DA017C018D0177EF972E02C064EF962E60
:104670008091E301992787FD90952091A2013091C7
:10468000A301820F931F61E00E94B219A0E0B0E085
:10469000BC01CD01A80197010E94F93820ED37E057
:1046A00040E050E00E94583979018A01A4EF9A163F
:1046B00019F05701680115C08091E101682F70E081
:1046C00080E090E0E616F7060807190720F4AA2410
:1046D000BB24650106C057016801A61AB70AC80ABB
:1046E000D90A8091CA01F30180838091C901818335
:1046F0009282D3011796ED92FD920D931C931A9717
:10470000A382B482C582D682F4EF9F1651F420EAC8
:10471000A21626E8B20621E0C20620E0D20678F40E
:1047200056C087EF981609F052C091E2A9169EE490
:10473000B90690E0C90690E0D90608F048C080911B
:10474000D8010E94BD18855D9340C8F71AB8109231
:10475000A0018091D8010E94BD188C0181E0809356
:10476000A0018091D8010E94BD18EC018091D20176
:104770008AB90C1B1D0BE090A201F090A301C801A7
:1047800004960997D0F0B801882777FD8095982F77
:10479000970140E050E00E94F9389E0140E050E06F
:1047A0000E947A398091E201820F8093E2018A2D82
:1047B000992787FD9095E80EF91E92012E193F0961
:1047C000C901C1968336910510F42093E301C60117
:1047D000B501492D02E310E020E030E057EFE52E6F
:1047E0000E94B30F813009F06BC0C601B501492D9D
:1047F00028EF0E9418107B018C010E94741B80918D
:104800000001813009F45AC018B88091D60187B9E7
:104810001BB88091CF018AB98091D8010E94BD1840
:104820006C018091CF018BB987011695079504C063
:104830000E94F0380150104001151105C9F71AB84F
:104840001BB8A89585E080939F018091D8010E94B4
:10485000BD18C816D90648F48C010C191D0905C0ED
:104860000E94F0380894E108F108E114F104C1F75E
:104870008091D8010E94BD189C0189E180939F011D
:10488000A895C216D30618F47901EC18FD08E016B5
:10489000F106B0F4B8016E197F0980E090E024EFD2
:1048A00031E040E050E00E94F938980140E050E0EB
:1048B0000E945839F3013787268702C080E001C083
:1048C00083E0DF91CF911F910F91FF90EF90DF90E8
:1048D000CF90BF90AF909F907F906F905F904F90E0
:1048E0000895A0E0B0E0E7E7F4E20C9497393C01CA
:1048F00033E0B32E21E1922E0E94741B80910001BF
:10490000813011F4882449C118B88091D60187B943
:104910001BB81AB88091D8010E94BD182C01CC2474
:10492000DD240894C11CD11C8091CF01692D0E9407
:10493000401A8091D8010E94BD184816590618F0F7
:10494000C0E0D0E003C0EC01C419D5092EE7C216BF
:10495000D10421F480E0CB34D10508F081E091E06E
:10496000CC32D90708F080E0E4EFCE16E1E0DE06B5
:1049700009F480E0A8958823A1F6F1E0CC32DF07A6
:1049800010F4BB24B39421E0C216D10461F485E095
:10499000C531D80740F0892D99E0992E84FDACCF20
:1049A000B2E08B2EFAC08B2C93E0B91619F000E020
:1049B00010E04AC0860160E070E00AC0015010407B
:1049C0008091D8010E94BD18BC0164197509A89591
:1049D0000115110599F76C177D0718F000E010E03C
:1049E00018C08E01061B170BB80180E090E028EE7E
:1049F00033E040E050E00E94F9389E0140E050E092
:104A00000E945839F301378726870536110508F0CB
:104A1000BB248091D8010E94BD187C0194FE03C084
:104A20000E94D53802C00E94DA388091D8010E94D5
:104A3000BD188E159F0520F08B2C4424552404C0EE
:104A40002701481A590A8B2CF3E0BF1609F0A5C0BC
:104A5000C8018C0F9D1F62E00E94B219A0E0B0E077
:104A6000960140E050E0BC01CD010E94F9385B01A5
:104A70006C01C92DD0E08E010071107094FE08C049
:104A80002AE030E040E050E00E94F9385B016C0120
:104A900028E3A21629E8B20621E4C20620E0D206E5
:104AA00018F4A7EF9A2E0EC0C601B50128EE33E028
:104AB00040E050E00E945839C901DA015C016D0103
:104AC000FAEF9F2EC601B50128EE33E040E050E03A
:104AD0000E94F938012B29F022E434E040E050E054
:104AE00004C020E134E040E050E00E945839C901A0
:104AF000DA017C018D018091CA01F30180838091EC
:104B0000C90181839282A782B086C186D286E38260
:104B1000F482058316830DC0C801B7012AE030E096
:104B200040E050E00E945839C901DA017C018D0152
:104B30009394F1E0EF16F5E3FF06FCE00F07F0E0D9
:104B40001F0750F7C3FD9394920140E050E0C80165
:104B5000B7010E94F93828EE33E040E050E00E94AF
:104B60005839C901DA01BC01CD010BC02AE030E09F
:104B700040E050E00E945839C901DA01BC01CD0182
:104B80009394603020E0720721E0820720E09207D2
:104B900068F7F301748763879586882DCDB7DEB7F4
:104BA000E0E10C94B339A0E0B0E0E9EDF5E20C945B
:104BB0009D39B82EA62EC42EDD2454E0CC0CDD1C6D
:104BC0005A95E1F789E491E0C80ED91EF6011082EA
:104BD000118284EF828317821086118612861382D7
:104BE0001482158216821486138617861686809183
:104BF0000001813009F462C08A3041F5FF24CBE026
:104C0000D1E01DC098819B1519F489818A1529F07E
:104C10009A1599F489818B1581F46B817C818D8142
:104C20009E814A810AE010E020E030E0EE240E94FC
:104C3000B30F8F3F11F443E6F42EF394279680913F
:104C40000401F816F8F2F4E6FF16C1F58B2D6A2D73
:104C50000E94E927FC01009729F0828193818C5DF5
:104C6000954060F18B2D6A2D40E00E943719C601F6
:104C70000E947124823019F4C6010E947C22809126
:104C800000018431A8F4F60192818A3019F49A3F28
:104C90007CF00BC0953F4CF4F60183819481A58193
:104CA000B6810597A105B10518F08BE0809300014E
:104CB0000E94741B17B818B81AB81BB8CDB7DEB766
:104CC000EAE00C94B939A4E0B0E0E9E6F6E20C942D
:104CD00095399C838B83009709F440C1FC01638163
:104CE00074818581968142810AE010E020E030E005
:104CF00057EFE52E0E94B30F87FD30C10E94741B51
:104D000080910001813009F429C1EB81FC8180810F
:104D100061810E94421CEB81FC818081618140E0C5
:104D20000E9437194090D8013090D901F0EC4F2AF9
:104D30003F2A15BC82E084BD85E387BD18B8409248
:104D40007C000E94E03822E3822E912C60E070E02B
:104D500022242A9491E0A92EB12CC12CD12C81E0DF
:104D6000E82EF12C012D112DB7ED5B2EA8956233A5
:104D7000710558F48091D60187B98091CF018BB924
:104D80008AB90E94F3381AB81BB882E388169104D6
:104D900058F48091D50187B98091D0018BB98AB937
:104DA0000E94F3381AB81BB88091D50187B9809159
:104DB000CF018BB98AB940927C0050927A008091E1
:104DC0007A0086FDFCCF50927A0080917A0086FDB1
:104DD000FCCFE0917800F0917900FA83E98330927A
:104DE0007C0050927A0080917A0086FDFCCF509230
:104DF0007A000E94EF380E9473228091D0018BB913
:104E00008AB90E94F3381AB880917A0086FDFCCFE7
:104E100080907800909079008091D60187B9809138
:104E2000D0018BB98AB930927C0050927A0080917F
:104E30007A0086FDFCCF50927A0080917A0086FD40
:104E4000FCCF609078007090790040927C00509286
:104E50007A0080917A0086FDFCCF50927A000E9401
:104E6000EF380E9473228091CF018BB98AB90E94DA
:104E7000F3381AB880917A0086FDFCCF60917800F3
:104E800070917900C301A0E0B0E0E981FA819F014F
:104E900040E050E0820F931FA41FB51FA80EB91E5B
:104EA000CA1EDB1ECB01A0E0B0E0940140E050E060
:104EB000820F931FA41FB51FE80EF91E0A1F1B1FA8
:104EC0002A9409F053CF17B81BB8AE14BF04C0061C
:104ED000D106E0F58091DB019091DC019C01A3E01B
:104EE000220F331FAA95E1F7880F991F280F391F4A
:104EF00040E050E0EA18FB080C091D09C801B701A1
:104F00000E94F938A60195010E945839C9012091E3
:104F1000DF013091E0012817390720F48C01021BD2
:104F2000130B16C0EB81FC816381748185819681AE
:104F3000428108EE13E020E030E0EAEFEE2E0E941E
:104F4000B30F18161CF400E010E002C00FEF1FEFC3
:104F500080EC8093A1010E94741B02C00FEF1FEF31
:104F6000C8012496E2E10C94B139809100018032AD
:104F7000F1F0813228F48E3141F08F3141F40BC0D1
:104F80008132E9F0843218F416C022E411C020E026
:104F900090E080E017C08091010186FD04C027E405
:104FA00094E483E50FC027E498E788E70BC027E483
:104FB00093E485E407C027E491E483E403C027E495
:104FC00092E381E32093AD019093AE018093AF0112
:104FD0000895282F90910501E9E7F1E008C080814C
:104FE000281719F48181681731F09150369699236A
:104FF000B1F7E0E0F0E0CF0108958091010180FF7A
:1050000005C06091AC018091AB0104C06091AB011F
:105010008091AC010E94E927892B49F01092000190
:1050200010920101809102018E7F80930201089508
:10503000EF92FF920F931F93CF93DF938091D8014C
:105040000E94BD18EC018091D9010E94BD187C011D
:105050008091DA010E94BD188C0117B88091D501AA
:1050600088B98091D4018BB99091D001892B8AB9EC
:1050700082E390E00E9430148091D50187B980913D
:10508000D9010E94BD180A97F8F483E280930301C6
:105090008CE080930A018091CB018093360180914E
:1050A000C901809337018091CA0180933801CE01F4
:1050B0008E199F0990933A0180933901C01BD10B3F
:1050C000D0933C01C0933B01CDB7DEB7E6E00C9432
:1050D000BD39A0E0B0E0EFE6F8E20C949539582E27
:1050E00081E0581611F58091D50187B988B9909162
:1050F000D1018091D001892B8AB99BB98091D901C6
:105100000E942E197C010091A4011091A5018091AB
:10511000DA010E94BD18081B190B5701CC24DD24AD
:10512000C091DB01D091DC0128C018B88091D60174
:1051300087B98091CF018BB99091D101892B8AB920
:10514000E090A401F090A5018091D8010E942E1951
:10515000E81AF90A8091DA010E94BD188C01C70192
:10516000A0E0B0E0AA24BB246501A81AB90ACA0AC3
:10517000DB0AC091DD01D091DE010115110511F4AA
:1051800001E010E0C701801B910BB8010E9431398A
:105190003B0188249924C601B50120E137E240E0B3
:1051A00050E00E94F938C057D54E9E0140E050E0D3
:1051B0000E947A393093B4012093B3010031110574
:1051C00008F081C081E05816F1F48091D4019091EB
:1051D000D001982B9AB98BB98091D9010E942E19D0
:1051E0007C010091A4011091A5018091DA010E9437
:1051F000BD18081B190B170144245524C091DB016D
:10520000D091DC0123C08091D4019091CF01892BF2
:105210008AB9E090A401F090A5018091D8010E9484
:105220002E19E81AF90A8091DA010E94BD188C0142
:10523000C701A0E0B0E0222433242101281A390A52
:105240004A0A5B0AC091DD01D091DE01011511050A
:1052500011F401E010E0B70180E090E020EF3BE2C4
:1052600047E050E00E94F938980140E050E00E9489
:105270005839CA01B9012AE030E040E050E00E940C
:10528000F938C057D54E5E01CC24DD24A601950126
:105290000E94583979018A016E147F0480069106B4
:1052A00090F4C201B10120E137E240E050E00E94F9
:1052B000F938A60195010E947A393093B401209300
:1052C000B30137014801B301C401CDB7DEB7E2E154
:1052D0000C94B139DF92EF92FF920F931F93D82E67
:1052E0001BB88091D0018AB98091D50187B988B95E
:1052F0008091D9010E942E19BC018430910530F1B2
:105300008091DB019091DC017C0100E010E085E000
:105310006937780780F091E0D91669F41AB880915E
:10532000D6019091D501892B87B98091D9010E942E
:10533000BD18BC0108C080E99AE1A0E0B0E0E80E29
:10534000F91E0A1F1B1F29EFD22E11C08091D30115
:105350008AB98091D9010E942E19BC0198EFD92EEB
:1053600080EFE82E8BE2F82E87E0082F112D17B87A
:1053700018B81AB81BB880E090E020EA36E841E09F
:1053800050E00E94F938A80197010E9458392093F3
:10539000BF013093C0014093C1015093C201D0922C
:1053A000C3011F910F91FF90EF90DF900895A0E04F
:1053B000B0E0EDEDF9E20C949F398091DA010E94A2
:1053C000BD187C018091D9010E94BD186C018091AB
:1053D000D10160E10E94401A8091D8010E942E19EB
:1053E0008C011BB80E94E1388091CF018BB980916C
:1053F000D8010E942E1926E00034120708F05FC081
:105400008153914108F45BC01AB81BB88091D60152
:1054100088B90E94E1388091CF018AB98091D80182
:105420000E942E19853F910508F049C08091D10155
:1054300060E10E94401A8091D8010E942E19EC016F
:1054400082E0CD3DD80760F482E280930001809134
:1054500002018160809302018AE08093090135C0D6
:105460008091CF018BB90E94E1381BB88091D8019F
:105470000E942E19853F910510F58091000181321F
:1054800029F48091020181608093020181E280937E
:1054900000018BE0809309018091B7019091B801E0
:1054A0008C179D0720F5CE01A0E0B0E08093B701F6
:1054B0009093B801A093B901B093BA0106C080E0FF
:1054C000CDB7DEB7E8E00C94BB398091CB01809377
:1054D000AA018091C9018093AB018091CA01809398
:1054E000AC01EC18FD08F092B201E092B10181E04C
:1054F000E7CFA0E0B0E0EFE7FAE20C949B398B5ED7
:10550000914018F408E210E002C008EE11E080912A
:10551000D4019091D001892B8AB98091D9010E9440
:1055200025196C018091D4018BB98091D9010E9419
:1055300025194C01C601800F911F8815990508F0A7
:105540006BC08091D1018AB98BB918B88091D6010E
:1055500087B98091DA010E94251917B88C5B9240B7
:1055600028F0FF2486E0C816D10410F4FF24F39439
:105570008091D50187B98091DA010E942519EC014B
:105580008091D8010E94BD1817B88C179D0738F478
:10559000C81BD90BC25CD14010F4FF24F394809156
:1055A000D60188B987B98091D4019091CF01892B18
:1055B0008AB91BB88091D8010E9425195C0180919D
:1055C000D4018BB98091D8010E942519EC0118B83B
:1055D0008091D60187B98091D4019091CF01892B18
:1055E0008AB98BB98091DA010E94251988549F40AD
:1055F00028F089E18093010184E006C0FF2061F476
:1056000089E28093010186E080930901F401EC199D
:10561000FD09CA19DB0970C018B88091D60187B995
:105620008091D4019091CF01892B8AB98BB9809157
:10563000D8010E9425197C018091CF018BB98091FE
:10564000D8010E9425195C01080F191F0E151F05AE
:1056500008F006C1C091A401D091A5018091D101AB
:105660008AB91BB88091D50187B988B98091DA01D0
:105670000E94251918B88D5C904128F400E02C9701
:10568000EC16FD0608F001E08091D50187B9809104
:10569000D4019091D001892B8AB98BB98091D9011D
:1056A0000E9425196C018091D0018BB98091D9019C
:1056B0000E942519EC011BB88091D50188B987B9E2
:1056C0008091DA010E942519815D934028F48AE1D6
:1056D0008093010185E007C0002309F0C1C08AE280
:1056E0008093010187E080930901F701EA19FB0922
:1056F00096012C1B3D0BE9018FE180930001809105
:1057000002018160809302014091CB014093AA0184
:10571000CE17DF0738F48091C9018093AB018091E7
:10572000CA0106C08091CA018093AB018091C90172
:105730008093AC01CF0162E370E00E9431399B019C
:10574000CF01861B970BC817D90750F02E0F3F1FAC
:105750002C173D0728F0809101018064809301019E
:105760008091AB016091AC010E9437199091D701F3
:105770008091D601982B97B92091CF012AB98091B9
:10578000010180FF13C018B82BB90091A40110913A
:10579000A5018091D8010E9425199801281B390B79
:1057A000C901C091DD01D091DE010AC098B91BB8D2
:1057B0008091D8010E942519C091DB01D091DC01B4
:1057C000C057D54EBC0180E090E020E137E240E0D8
:1057D00050E00E94F9389E0140E050E00E945839A4
:1057E0002093BF013093C0014093C1015093C20187
:1057F0008AEF8093C3019091D4018091D301982BBB
:105800009AB92091D50127B98091010180FF03C089
:105810001BB828B902C09BB918B80E94E038809123
:10582000D9010E94BD188C018091DA010E94BD1837
:105830009C01201B310B3093B6012093B501809160
:10584000010180FF06C020543D4E215C324140F0F2
:1058500003C0215C324120F01092B6011092B501D4
:10586000CDB7DEB7ECE00C94B739A0E0B0E0EBE3E5
:10587000FCE20C949B3990E0EC01C170D07080FF89
:1058800007C0C090CF018091D50160E1A62E06C06F
:10589000C090D0018091D60151E1A52E4EE0B42EEA
:1058A000B8228091DA01806480937C000E94EA38FB
:1058B000EE24FF248701DD243FEF832E33E0932E77
:1058C000A8958091D1016A2D0E94401A8091D4013F
:1058D0008C298AB9209721F086B18B21E9F703C082
:1058E00086B18B21E9F3CAB880917A0080648093F5
:1058F0007A0080917A0086FDFCCF209759F0809144
:10590000780090917900A0E0B0E0E80EF91E0A1F3F
:105910001B1F0EC080917800909179009401281B84
:10592000390BC901A0E0B0E0E81AF90A0A0B1B0B19
:10593000D3943AE0D31621F6C801B7012AE030E04B
:1059400040E050E00E947A39B901CA012091A401D7
:105950003091A50140E050E00E94F93820E034E0A9
:1059600040E050E00E947A393093B4012093B301B3
:1059700080E48093A101CDB7DEB7ECE00C94B73999
:10598000A0E0B0E0E6ECFCE20C949839582E5B0104
:105990000E94A01941E0541661F58091D4019091C4
:1059A000CF01892B8AB98BB90E94DC38C091A40140
:1059B000D091A5018091D8010E94BD18C81BD90BB8
:1059C0000091A4011091A5018091DA010E94BD18F7
:1059D0007801E81AF90A3E01882499240091DD0132
:1059E0001091DE01DD24D3948DEF99E028E43DE0B1
:1059F00024C08091D4019091D001892B8AB98091E3
:105A0000D9010E942E19EC018091DA010E94BD1883
:105A10007C01CE01A0E0B0E0662477244301681A3F
:105A2000790A8A0A9B0A0091DB011091DC01B2E03D
:105A3000DB2E81ED93E020ED37E08E159F0508F019
:105A400011C1809100018E31E9F490910101852D01
:105A5000892321F49460909301010EC051E0551602
:105A600059F49091AB018091C901981729F4509293
:105A7000000182E0809301018091020181608093A6
:105A8000020105C08EE18093000150920101AC1625
:105A9000BD0610F4CA19DB09BE0180E090E020EFDA
:105AA0003BE247E050E00E94F938970140E050E0C7
:105AB0000E945839CA01B9012AE030E040E050E0C4
:105AC0000E94F9380057154E780100E010E0A80157
:105AD00097010E945839C901DA015C016D01852DD9
