:100000000C94B4060C94D1060C94D1060C94D10631
:100010000C94D1060C94D1060C94D1060C94A21326
:100020000C94D1060C94D1060C94D1060C945E3637
:100030000C94D1060C94D1060C94D1060C94D106E4
:100040000C9446360C94D1060C94D1060C94D1062F
:100050000C94D1060C94D1060C94D1060C94D106C4
:100060000C94D1060C94D10609130D130F1313131E
:100070001613191339131C131F13391322133913B1
:100080003913391339133913391339132513391324
:100090002813391339133913391339133913391311
:1000A0003913391339132B133913391339132E1309
:1000B000391331133913341339133713071300006D
:1000C000000000000000000000000000000080F8B8
:1000D000F0E0C080F880000F070301000F0080F8F7
:1000E00080C0E0F0F880000F000103070F0080F8E7
:1000F000F80000F8F880000F0F00000F0F00E0106C
:1001000008080810E00019121E001E12190000F85D
:10011000000000E02000403F0810081F100080F0A1
:100120001010101010100007040404040404101030
:1001300010101010F08004040404040407000000F0
:10014000F80402FE020070181710101F700002FE63
:10015000020002FE0200101F1010105F300002FEAD
:1001600002F002FE0200101F101F105F300000009E
:10017000E01008F8080070181710101F7000804079
:1001800028F8284080000708507F5008070008F82A
:10019000080008F80800101F1010105F300008F861
:1001A00008C008F80800101F101F105F3000000082
:1001B0000205020000000000000000000000000036
:1001C000000000000000000000000000000000002F
:1001D00000FE0000000000000037000000000016D4
:1001E0000E0000160E0000000000000000000020BD
:1001F000F82020F8200000020F02020F0200102851
:1002000044FE840810000304081F08050200182497
:100210002498402010000402010C12120C0018A4B3
:10022000E2A2128C800007081010111205080000CD
:1002300000160E000000000000000000000000009A
:10024000F008040200000000030408100000000091
:10025000020408F00000000010080403000090A051
:10026000C0F8C0A090000402010F010204008080C9
:1002700080F0808080000000000700000000000087
:1002800000000000000000000058380000008080DE
:1002900080808080800000000000000000000000DE
:1002A000000000000000000000181800000000001E
:1002B0000080402010000402010000000000F8044B
:1002C00002020204F80007081010100807000008D6
:1002D00004FE020000000010101F1010000018049F
:1002E0000202824438001814121110101C000E0271
:1002F0004262528A0600060810101008070080406B
:100300003E0000FC000003020202121F12007E22C7
:1003100012121222C6000408101010080700F84438
:1003200022121224C00007081010100807000E0245
:1003300082C262321E0000001F000000000018A4EC
:10034000424242A418000708101010080700F804E1
:1003500002020284F80000091212110807000000CE
:100360000030300000000000000C0C000000000015
:100370000030300000000000002C1C000000008055
:100380004020100804000000010204081000004092
:10039000404040404000000202020202020000040D
:1003A000081020408000001008040201000018041A
:1003B0000202028478000000003601000000F0080C
:1003C000A4A4C408F00007081312110A090000F0E1
:1003D000080402FE0200101F1202121F100002FE8B
:1003E000424242A41800101F101010080700F80421
:1003F000020202041E00070810101008060002FE88
:1004000002020204F800101F10101008070002FE7C
:100410004242F2020E00101F101011101C0002FECA
:100420004242F2020E00101F101001000000F804FA
:10043000028282849E000708101108041F0002FE39
:10044000424042FE0200101F1000101F1000000268
:1004500002FE020200000010101F10100000000039
:100460000202FE0202000C1010100F00000002FE3B
:10047000C23008060200101F10030418100002FE0C
:10048000020000000000101F101010101E0002FEDD
:1004900032C032FE0200101F1001101F100002FEB9
:1004A0001AE002FE0200101F1000131F1000F804D3
:1004B00002020204F800070810101008070002FEEC
:1004C000020202847800101F110101000000F804EC
:1004D00002020204F8000708101012140B1002FEAA
:1004E000828282443800101F1001021C1000182460
:1004F000424242841E0006081010100807000E0237
:1005000002FE02020E000010101F1010000002FE7A
:10051000020002FE0200000F1010100F000002FE89
:10052000020002FE020000030E180E03000002FE8D
:1005300002F002FE020000071C0F1C070000021E52
:10054000F240F21E0200101F1100111F100002FEE7
:10055000820082FE02000000111F110000000E0246
:10056000824222120E001E11101010101E0000FEFA
:10057000020202020000003F20202020000008109C
:100580002040800000000000000000010200000286
:10059000020202FE000000202020203F0000100880
:1005A0000402040810000000000000000000000029
:1005B000000000000000202020202020200000005B
:1005C000000E160000000000000000000000009077
:1005D00048484890E0000708101008041F0002FE79
:1005E00012080810E000101F081010080700E010A3
:1005F0000808081038000708101010080600E0105E
:10060000080812FE020007081010081F1000E090F2
:1006100088888890E000070810101008040040F84F
:10062000444202040800101F101000000000E010F7
:10063000080810F8080003244848443F000002FE60
:10064000201008F00000101F1000101F10000008FC
:100650000BFB000000000010101F10100000000035
:1006600008080BFB000000304040403F000002FE45
:10067000804030081800101F110204081800000004
:100680000202FE000000000010101F10100008F809
:1006900008F008F00000101F001F001F100008F8ED
:1006A000100808F00000101F1000101F1000E010CC
:1006B00008080810E000070810101008070008F8E4
:1006C00010080810E000407F481010080700E010F4
:1006D000080810F8080007081010487F400008F8C4
:1006E000201008087000101F1000000000002050AB
:1006F000888888103800060810101009060020208D
:10070000FE202000000000000F1010100C0008F860
:10071000080008F80800000F1010081F100008F863
:10072000080008F8080000030E180E03000008F87F
:1007300008C008F80800000F180F180F000008384C
:10074000E080E0380800101F0100011F100008F8C9
:10075000080008F8080000274848443F000038080F
:100760000888482818001C12111010101E00804024
:1007700038040202000000010E10202000000000DA
:1007800000FE000000000000003F0000000000022A
:10079000020438408000002020100E01000000807C
:1007A000F0E0C08000000000070301000000FEFE32
:1007B000EEE60202FEFE1F1F1F171010171FFEE6B7
:1007C000E27A3A82C6FE1F1110161713131FFEF6A7
:1007D000F2BABA0246FE1F1B13171710181FFCCCE3
:1007E0008C3C3C8CCCFC1F19181E1E18191FF010D5
:1007F0001010101010100F08080808080808F01052
:10080000D0D0D0D0D0100F080B0B0B0B0B08101052
:100810001010101070C00808080808080E03D0D087
:10082000D0D0D01070C00B0B0B0B0B080E030018B0
:100830001818FEFEFEFC000C0C0C3F3F3F1FFCF89E
:10084000E080808080801F0F030000000000FF0117
:100850000203040506076F707172737475767778FA
:10086000FFFFFFFFFFFFFFFFFFFFFFFFFFFF101175
:1008700012131415161718191A1B1C1D1E1F2021E0
:1008800022232425262728292A2B2C2D2E2F3031D0
:1008900032333435363738393A3B3C3D3E3F4041C0
:1008A00042434445464748494A4B4C4D4E4F5051B0
:1008B00052535455565758595A5B5C5D5E5F6061A0
:1008C00062636465666768696A6B6C6D6EFFFFFFE3
:1008D000FFFFFFFFFFFFFFFFFFFFFFFFFFFFFFFF28
:1008E000FFFFFFFFFFFFFFFFFFFFFFFFFFFFFFFF18
:1008F000FFFFFFFFFFFFFFFFFFFFFFFFFFFF0FFFF8
:10090000FFFFFF05FFFFFFFFFFFFFFFFFFFFFFFFF1
:10091000FFFF08FFFFFFFFFFFFFFFFFFFFFFFFFFDE
:10092000FFFFFFFF09FFFFFFFFFF0AFFFF0BFFFFB6
:10093000FFFF0CFFFFFFFFFFFFFFFFFFFFFFFFFFBA
:10094000FFFFFFFF0DFFFFFFFFFF0EFFFFFF000098
:1009500000000000000000E0E00000008040201FD8
:10096000007C8282820000C848488808080808FF86
:10097000FF14224180C00000000000000000001FA2
:1009800012120D0000000003030000010101027CAF
:10099000007F49494100000000000000000000E025
:1009A000E0000000E0C0A01F00FE9292820000C89C
:1009B00048488808080808FFFF142241800000000A
:1009C000000000000000001F12120D0000000003D4
:1009D000030000000001027C003E41414100000094
:1009E0008080000000C0C000E0E040404040407F08
:1009F00000FE82827C00001F2028190000FFFF00FB
:100A00009C9C08081C3E08F8000000000000000143
:100A10000101010101010100030301010101017F45
:100A200000264949320000404040404040C0C000DC
:100A3000E0E04040404040FF004C92926400007C67
:100A400082A2640000FFFF009C9C08083E1C080F67
:100A50000000000000000000000000000001010094
:100A6000030301010101017F007F41413E000000BD
:100A70008080000000C0C000E0E040404040407F77
:100A800000FE82827C00001F2028190000FFFF006A
:100A9000FFFF08081C3E08F80000000000000001ED
:100AA0000101010101010100030301010101017FB5
:100AB00000264949320000404040404040C0C0004C
:100AC000E0E04040404040FF004C92926400007CD7
:100AD00082A2640000FFFF00FFFF08083E1C080F11
:100AE0000000000000000000000000000001010004
:100AF000030301010101017F007F41413E000080AD
:100B00004040800000000000E0E08080808080FFA6
:100B100000FE82827C00008F90948C80E0C08080F8
:100B2000FFFF8080808080800000000000000000C7
:100B30000000000003010000030300000000007F2C
:100B4000002649493200008080808080C0E080809B
:100B5000E0E08080808080FF004C9292640000F88A
:100B60000444C80001030000FFFF80808080808073
:100B70000000000000000000010100000000000073
:100B8000030300000000007F007F41413E000000A1
:100B90000000000000808000E0E000000080403F96
:100BA000007C8282820000884848880808FFFF0095
:100BB000FFFF14A2C1E00000000000000000000FD1
:100BC00010140C0000000000030300000000017E70
:100BD000007F4949410000000000000000808000C3
:100BE000E0E00000C080403F00FE9292820000885A
:100BF0004848880808FFFF00FFFF142241810100D8
:100C0000000000000000000F10140C0000000000A5
:100C1000030300000000017E003E4141410000004E
:100C200000000000000000000000FF00007C121225
:100C30007C000000000000F00848D00000C1C3C7DD
:100C4000CFDFFFDFCFC7C3C10000000000000008F6
:100C5000090908080808080402017F00003C424214
:100C60004200000000000000000000C0C0C0C0C082
:100C7000C0C0C0FFC0C0CFC0CFC0C0C00000E01027
:100C800090A00080E0F8FEFFFEF8E080838FBFFFB9
:100C9000BF8F83800000111212111011110905037A
:100CA0000101017F01010179010101010000001032
:100CB00090901010101010204080FF00007C121245
:100CC0007C0000000000000F10140D0000C1C3C71D
:100CD000CFDFFFDFCFC7C3C100000000000000006E
:100CE000000000000000000000007F00003C4242C5
:100CF0004200000000000040404040800000000032
:100D0000E0E08080808080FF003E003E000000FE2A
:100D10009292820005060708FFFF80808080808015
:100D200000000000000000000000000000000000C3
:100D3000030300000000007F00003E000000050AE1
:100D40000605060A050A0609060A050A0609060A2C
:100D5000050A0609060A050A0605060A050A060521
:100D60000A06090A06090A0611241FBECFEFD8E0B9
:100D7000DEBFCDBF11E0A0E0B1E0EEE5F8E702C0D4
:100D800005900D92A030B107D9F711E0A0E0B1E0D5
:100D900001C01D92A83EB107E1F70E94BC0C0C9463
:100DA0002D3C0C940000982F8091A401981719F401
:100DB0008091A70108958091A501981719F4809159
:100DC000A80108958091A90108950E947F3A81E0C9
:100DD0000E94AA1A8EEC90E00E94E41BF89488E12D
:100DE0000FB6F89480936000109260000FBE589880
:100DF00083B7817F846083BF83B7816083BF889519
:100E000083B78E7F83BF089582E00E94AA1A8FE382
:100E100090E00E94E41B8CE490E00E94301D8091E1
:100E2000A3018F5F8093A3010895CF93DF9388EC94
:100E30008093990185E00E94D916EC018B5C984063
:100E4000835F9140C8F460919E0170919F0180E0A2
:100E500090E023EC39E040E050E00E94D33A9E015C
:100E600040E050E00E94323B30939F0120939E016E
:100E700080919701846003C0809197018B7F80935C
:100E800097018EE00E94D91690939D0180939C015A
:100E900088EC809399018EE00E94D9162091DA01A6
:100EA000332727FD3095280F391F30939D0120935C
:100EB0009C0189E180939901DF91CF9108951F935F
:100EC0008091A0019091A1012BE0883B920710F442
:100ED0008CE005C02CE0843E920718F48DE01EE003
:100EE00008C08153914118F48DE01FE002C080E1F9
:100EF00011E10E94E939812F0E94E9390E948E1B7D
:100F00008091A0019091A1016AE070E00E940B3BEA
:100F100080E090E04EEF26E50E94B71A1F910895F9
:100F200086E00E94D916A0E0B0E0BC01CD012EEB16
:100F30003FE040E050E00E94D33A28EE33E040E04A
:100F400050E00E94323B81E12133380718F02454ED
:100F50003F4F02C0215E3F4F3093A1012093A0017B
:100F600084E68093A201285B3B4050F40E947F3AC4
:100F70000E945F0788EB9BE00E945F130E94E506DA
:100F80000895FC018181608140E00E94842360918A
:100F90004C0170914D0180914E0190914F01409113
:100FA0004B0126E40E94B71A08950E948E1B80917F
:100FB000010182FF03C083E891E002C088E891E06C
:100FC0000E94D51B08950E948E1B8091010180FF15
:100FD00002C08EE401C080E50E94E9398FE791E00C
:100FE0000E94D51B08951F93162F0E94E93989E2AC
:100FF00092E00E94D51B812F0E94E9390E948E1B2E
:1010000060910E0170910F0180911001909111017A
:1010100040910D0124E00E94B71A1F9108951F937B
:10102000162F0E94921B81E00E94E939812F0E94B5
:10103000921B1F9108950F931F93CF93DF9380917D
:10104000010180FF05C00091A6011091A50104C017
:101050000091A5011091A601802F612F0E94932578
:10106000EC01009731F00E948E1B802F612F0E94AF
:101070000F088091010182FF3BC08091AD019091EA
:10108000AE01892B81F085EB91E00E94221D6091D9
:10109000AD017091AE01882777FD8095982F4DEFB7
:1010A00026E50E946A1B82E991E00E94221D609160
:1010B000BA017091BB018091BC019091BD0140913A
:1010C000BE0126E40E94B71A8091AB019091AC0159
:1010D000892B71F087E092E00E94221D6091AB01A4
:1010E0007091AC0180E090E04EEF24E00E94B71ACE
:1010F000209799F00E94BE1C81E00E94E9390E946D
:101100008E1B80EB91E00E940D1C6A817B8180E048
:1011100090E04DEF26E50E94B71ADF91CF911F9125
:101120000F91089580E00E94971B81E00E94971B19
:1011300082E00E94971B8DE30E94E93980E00E94C3
:10114000921B81E00E94921B82E00E94921B0895F4
:101150008AEC90E00E94D51B0E94BE1C0E9492085F
:101160008DEB91E00E94221D60913B0170913C014A
:1011700080E090E04DEF26E50E94B71A80EB91E009
:101180000E94221D6091390170913A0180E090E047
:101190004DEF26E50E94B71A089580910001823232
:1011A00019F480EC90E002C084EC90E00E94D51B22
:1011B0000E94BE1C0E9492088091AB019091AC01EC
:1011C000892B71F086EA91E00E94221D6091AB01AB
:1011D0007091AC0180E090E04DEF26E50E94B71AD7
:1011E00008958DE891E00E94D51B0E94E3070E94BC
:1011F000D5070E94BE1C0E9492080E941B080895F9
:10120000EF920F931F93CF93DF93EC016091B501A1
:101210007091B6018091B7019091B8014091B901E8
:101220000AE010E020E030E057EFE52E0E94D90EF2
:1012300087FD10C0CE010E94221D6091B501709102
:10124000B6018091B7019091B8014091B90121E4B4
:101250000E94B71ADF91CF911F910F91EF900895DF
:101260008091010184FF05C087E791E00E94D51BB2
:1012700003C08AE40E94E9398BE791E00E94D51B04
:101280000E94E3078091010184FF02C00E94D507FC
:101290000E94BE1C0E9492080E941B0880910101BE
:1012A00083FF1EC08EEF91E00E9400098091AF0184
:1012B0009091B001892BA1F08BE092E00E94221D59
:1012C0000E94BE1C0E948E1B6091AF017091B00104
:1012D000882777FD8095982F4DEF26E50E946A1BA1
:1012E0000895EF92FF920F931F93CF93DF93809116
:1012F000010180FF0AC0C6E9D1E0E090A401F090AE
:10130000A6010091A5011F2D09C0CAE9D1E0E09016
:10131000A601F090A4011091A5010E2D8CEB90E098
:101320000E940D1CCE010E94D51B8091010182FFFD
:1013300003C08BE20E94E9390E94BE1C0E94920801
:10134000812F602F0E949325892B31F00E948E1BE4
:10135000812F602F0E940F088F2D6E2D49E10E9472
:101360005E20813049F40E94BE1C82E465E40E9444
:10137000F30784E0809326018EE991E00E94221D0C
:101380006091B1017091B2018091B3019091B4016B
:101390000E945D1B0E948E1B8091AA0180FF02C0EB
:1013A00085E603C081FF03C083E60E94E9398E2DE4
:1013B0006F2D0E949325EC01009781F182EA91E064
:1013C0000E94221D2A813B81EC81FD81E090B101C8
:1013D000F090B2010091B3011091B40144E6E4161B
:1013E000F1040105110598F0C9018E1B9F0B63E004
:1013F00070E00E941F3B4AEFE416F104010511055D
:1014000018F4261B370B03C09B012E0F3F1FB90199
:1014100080E090E04DEF26E50E94B71A8BEA91E05C
:101420000E94000989E192E00E94221D6091BA01A8
:101430007091BB018091BC019091BD014091BE01B2
:1014400026E40E94B71ACDB7DEB7E6E00C94973BCE
:10145000A1E0B0E0EEE2FAE00C94773B8091050168
:10146000813069F4F0907401F5E0CF2EE5E0DE2ED6
:1014700073E7A72E71E0B72E00E010E01FC08230A6
:1014800039F510917301D09079011D1549F4C09080
:101490007401D0907A0181E0898365E0F62E56C010
:1014A000F090740180917A01F81659F4C12E53E737
:1014B000A52E51E0B52E85010A5F1F4F45E0E42EB1
:1014C00004C1181709F0F2C0FD1409F0EFC038C0CC
:1014D000833061F520E046E0249F50011124E3E7CA
:1014E000F1E0AE0EBF1E30E0349F800111240D5894
:1014F0001E4F231741F0F5019181F8018081981763
:1015000011F425E035E03F5F333070F32F5F233077
:1015100018F3253010F400E010E0F501F18035E01B
:10152000C32E25E0D22E93E0E92ECFC081E292E0D7
:101530000E940D1C80910501805D0E94E939C8C0A0
:10154000F12E85E0C82E05E0D02E19821330A0F4CC
:10155000809174010E94971B85E292E00E94D51B46
:10156000812F0E94971BE12E13E7A12E11E0B12ECF
:1015700085010A5F1F4F16C0E12EB3E7AB2EB1E025
:10158000BB2E85010A5F1F4FF50180810E94971BCA
:1015900081E292E00E94D51B8F2D0E94971B0115BE
:1015A000110599F0EF1441F0F3E0FE1528F0F80171
:1015B000F18081E292E004C0F801F08085E292E0DF
:1015C0000E94D51B8F2D0E94971BF4E0FC1500F1A3
:1015D0008C2D6D2D49E10E945E208130C9F40E945E
:1015E0008E1B82E08E1518F08AE991E002C086E930
:1015F00091E00E94D51B8FE30E94E9390E94BE1C36
:1016000091E3D90E8C2D8F5C6D2D0E94F30719820A
:1016100080EB91E00E94221DF5016281738180E0E0
:1016200090E04DEF26E50E94B71A0E948E1B01152F
:10163000110501F5F501848195818A3F910568F4D2
:1016400088E20E94E939F5016481758180E090E0CB
:101650000E945D1B89E20E94E939F5018181608168
:101660000E945A1981E00E94CE2689EB91E00E94E7
:10167000000909C0F8016281738180E090E04DEFBC
:1016800026E50E94B71AF981F13011F583EB91E05C
:101690000E94221DC5010E94C10701151105C1F05C
:1016A0000E948E1BC8010E94C10712C0A5E0CA2E6D
:1016B000F5E0DF2EE3E7AE2EE1E0BE2E85010A5F06
:1016C0001F4F75E0E72E65E0F62E81E089835CCF41
:1016D0002196EAE00C94933BEF920F931F93CF93E4
:1016E000DF9360915A0170915B0180915C01909150
:1016F0005D0100914C0110914D0120914E013091FE
:101700004F0140915901E0904B010E94D90E813068
:1017100019F4C7E5D1E002C0C9E4D1E060916801E5
:101720007091690180916A0190916B010B811C811C
:101730002D813E8140916701EA800E94D90E81305F
:1017400011F4C5E6D1E088810E94971B8DE192E0FB
:101750000E94D51B89810E94971B0E94BE1C6B8131
:101760007C818D819E814A8126E40E94B71ACE0138
:101770000E940E248C018FEF0F3F180749F00E9442
:101780008E1BB80180E090E04EEF24E00E94B71A73
:101790008B859C85892B61F083E092E00E94221D5D
:1017A0006B857C8580E090E04D8521E40E94B71A2E
:1017B000DF91CF911F910F91EF900895A0E0B0E0DD
:1017C000E4EEFBE00C947A3B80910401813039F423
:1017D000D0900B010BE011E0EE24FF245CC08330BD
:1017E00031F00BE011E087E0E82EF12C47C060916A
:1017F00015017091160180911701909118010091C7
:101800000E0110910F0120911001309111014091B2
:101810001401E0900D010E94D90E813019F4C2E14B
:10182000D1E002C0CBE0D1E060911C0170911D01BC
:1018300080911E0190911F010B811C812D813E81A1
:1018400040911B01EA800E94D90E813011F4C9E158
:10185000D1E081E0CB30D80721F48E01095F1F4F22
:1018600002C00BE011E0B7E0EB2EF12CE00EF11E10
:10187000EC16FD0629F4AEE0EA2EF12CE00EF11E86
:10188000F801D080F7018081D81629F08181D8161F
:1018900011F0F801D180F80180818D1511F4F80163
:1018A00081810E94971B89E292E00E94D51B8D2DB9
:1018B0000E94971BE114F10461F089E292E00E941A
:1018C000D51BF70180818D1511F4F70181810E94EC
:1018D000971B0E94BE1CF8016381748185819681EB
:1018E000428124E00E94B71AE114F10451F00E94F1
:1018F0008E1BF7016381748185819681428124E08A
:1019000012C0C8010E94162E813079F40E948E1BED
:101910006091DF017091E0018091E1019091E2011D
:101920004091DE0128E40E94B71ACDB7DEB7E7E0A8
:101930000C94963B809101018130C9F48EE990E0CE
:101940000E94D51B0E94BE1C809106010E94971B1D
:101950000E94621B0E948E1B60910701709108011A
:1019600080E090E04DEF26E50E94B71A089582309E
:1019700011F40E9404070895EF92FF920F931F93B2
:10198000CF93DF9391E09AB99BB980E185BF87E857
:1019900080937A0014B7187084B7877F84BF88E17A
:1019A0000FB6F89480936000109260000FBE909381
:1019B000970182E0809398010E9463370E94243946
:1019C000112399F00E947F3A82E00E94AA1A87E3CD
:1019D00090E00E94E41B87EA90E00E94301D80EDB9
:1019E00097E00E945F13589885C14B9B02C010E09E
:1019F0000FC084E190E00E945F134B9905C01F5F08
:101A00001536B9F713E07EC1103108F07AC111E044
:101A10008091970180FF05C080919801806280933A
:101A200098010E948D3A109220015C98549A5D981A
:101A3000559A133019F40E94B11304C081E061E09B
:101A40000E949A168091DC010E947C398AE190E024
:101A50000E94301D83E290E00E94301D8CED95E0E5
:101A60000E945F131092A30189E18093990181E0A4
:101A700080939A0180939B0189E793E190939F0162
:101A800080939E012FE088E190E00FB6F894A8952E
:101A9000809360000FBE20936000789416E6FF24C8
:101AA000F39403E092E0E92EC4E0D1E001C015E632
:101AB0001092000110920101109202011092030194
:101AC00010920501109204011092AA011092AC012B
:101AD0001092AB011092AE011092AD011092B001C4
:101AE0001092AF011092B1011092B2011092B301A5
:101AF0001092B4011092B5011092B6011092B70184
:101B00001092B80110923A011092390110923C01E2
:101B100010923B0110922B01F0922D0100932601AF
:101B200017B8E09220010E947F3A0E9415070E9498
:101B30009007163609F4CDC00E9490070E945F07F7
:101B400081E00E94AA1A0E94BE1C8091230181504C
:101B5000809323018CE290E00E94E41B809123019A
:101B60008F5F809323010E94AB1980910001813027
:101B7000E1F180E061E042E00E94881881E060E0ED
:101B800042E00E94881880E062E041E00E948818EC
:101B900082E060E041E00E94881881E062E040E07D
:101BA0000E94881882E061E040E00E9488180E944C
:101BB00060170E945F2580910001882311F08A3010
:101BC000A1F40E948E1B83E40E94E93982E060E068
:101BD00040E00E94842382E061E041E00E9484238F
:101BE00081E060E042E00E9484230E947F3A0093FB
:101BF00020015C9A84E190E00E945F135C988091E0
:101C000000018E3111F18F3160F48A3069F18B302F
:101C100018F4813079F513C08B3049F1843151F5D6
:101C200011C08132D9F0823228F48F3189F08032AC
:101C300009F511C0823291F08332E1F412C00E94A2
:101C40009A0C1AC00E94280A17C00E94710914C079
:101C50000E94300911C00E94F1080EC00E94CD08F8
:101C60000BC00E94A80808C00E94DE0B05C00E949D
:101C70006C0B02C00E940407809100018E3130F08D
:101C800080912601882311F00E94E31C80910001BD
:101C90008A3010F01092A301109220010E94A81C1B
:101CA000D0933301C093320188EB9BE06EE30E9436
:101CB000EA0F182F882329F48091A3018530C0F4FE
:101CC000F7CE833031F0823099F0853011F08536CF
:101CD00061F490E003C00E94EF12982F892F88567C
:101CE0008230C8F79836C1F6E2CE873609F0E0CEEA
:101CF0000E94E50680E090E0CDB7DEB7E6E00C9408
:101D0000973B12E0809197018E7F8093970180CE60
:101D1000AF92BF92CF92DF92FF920F931F93DF9308
:101D2000CF9300D00F92CDB7DEB789836A834B8300
:101D30006E010894C11CD11C860124E0A22EB12C96
:101D4000AC0EBD1E802F8C19F801F080FF2049F0E9
:101D50000E94971B0E94621B8F2D0E94E9390E94EE
:101D60008E1B0F5F1F4F0A151B0561F70F900F9019
:101D70000F90CF91DF911F910F91FF90DF90CF9047
:101D8000BF90AF9008951F9311E00BC02AE030E0A0
:101D900040E050E00E94323BC901DA01BC01CD01B4
:101DA0001F5F6A3071058105910580F7812F1F91B2
:101DB00008956F927F928F929F92AF92BF92CF922F
:101DC000DF92EF92FF920F931F933B014C01F42E91
:101DD000580169010E2D0E94C30E182FC601B501CE
:101DE0000E94C30E611471048104910491F1A11445
:101DF000B104C104D10431F1EF2CE10E800F8E1536
:101E000034F1E81669F51E2D1F19E01A0BC0C60142
:101E1000B5012AE030E040E050E00E94D33A5B0197
:101E20006C01E394E1169CF30BC0C401B3012AE0FA
:101E300030E040E050E00E94D33A3B014C011F5F8C
:101E40001E159CF3A614B704C804D90410F481E04D
:101E500008C06A147B048C049D0410F080E001C06B
:101E60008FEF1F910F91FF90EF90DF90CF90BF9079
:101E7000AF909F908F907F906F9008950F931F93D6
:101E8000142F022F9B01AC0117C0101754F4B90195
:101E9000CA012AE030E040E050E00E94323B1F5F80
:101EA0000BC0B901CA012AE030E040E050E00E94D6
:101EB000D33A9B01AC011150101739F7B901CA018F
:101EC0001F910F910895681721F48AE20E94E93961
:101ED00008950E948E1B089503C00E94BA3AA895E7
:101EE0004B9BFBCF84EF91E00E945F1308951F93FB
:101EF0001AB18AB1897F8AB90E94C03A89B182FD3C
:101F000002C030E001C032E081FD31601AB9809139
:101F10002F01813031F430932E0110922F01109255
:101F2000310180913101882329F08A3F18F48F5FB5
:101F30008093310120912E0130932E01231779F1E6
:101F4000832F822780FF8695813031F5220F82E72B
:101F500090E002C0959587952A95E2F783708317E4
:101F600011F095E001C094E0809130018F5F809383
:101F7000300180912F01981729F081E08093300182
:101F80008093310190932F0180913001843038F09B
:101F900010923001892F04C081E080932F0180E0EE
:101FA0001F9108950F931F93CF93DF93082F282F2E
:101FB000392FE90101C02196CE01801B182FCE01D7
:101FC0000E94F73B8823B9F7812FDF91CF911F91B2
:101FD0000F910895A3E0B0E0E0EFFFE00C946F3BB9
:101FE0005C01162F81E080932F01109230018093C5
:101FF0002C018091980185FF04C060EFC62ED12C82
:1020000002C0CC24DD2412FF08C08091970180FF1C
:1020100003C0AA24BB2401C01C7F15FF1BC08091F4
:102020003201909133010E94D20F982F91508091EC
:102030002301981778F4882E891A1C7F882D6091C7
:1020400024010E94A23980913201909133010E94B3
:10205000D51B01C08824812F90E09B838A833C019B
:1020600093E0692277246114710409F4C9C081E006
:102070000E94423AC5C0A114B10451F0E3E0AE168B
:10208000B10410F400E004C08EEF9FEFA80EB91E5B
:102090004B993CC08EE190E00E945F1310E009C0B4
:1020A0004B9909C01F5F1B3130F48AE090E00E9419
:1020B0005F130023A9F71B3118F052E0F52E24C05E
:1020C000EA81FB81EF2B19F4FF24F3941DC082E316
:1020D00090E00E945F13FF24F39414E14B990DC02C
:1020E0008EE190E00E945F134B9907C088EC90E06E
:1020F0000E945F1343E0F42E11E011508AE090E05B
:102100000E945F13112351F700E070C00E94770F07
:10211000882371F1EE2011F4F82E03C08F1509F019
:102120008BC0E394809131016E2D0E94F23A282FEA
:10213000F8E18F9FC001112434E0969587953A9578
:10214000E1F7893208F088E2982F96959695969552
:10215000933010F433E039838981E81621F09CE054
:10216000990E920E05C087E0891B80932C0164C0F4
:10217000EE2029F080913101891508F05DC082E0E0
:1021800090E00E945F131F5F812F68E20E94F23A85
:10219000992369F48091A201823020F081508093CC
:1021A000A20105C04114510411F00E949007183C8F
:1021B000E9F42114310459F0013029F480E00E943F
:1021C000423A02E004C081E00E94423A01E0C114B8
:1021D000D10459F0E2E0CE16D10420F497E6F92EAE
:1021E00000E003C00894C108D10810E08091980174
:1021F00080FF1FC0809198018E7F809398011CC042
:10220000FF2401E010E082E3982EEE24F2E0F9834F
:102210002A803B8032E0232233244A805B8080E1A5
:1022200048225524EA81FB81E870F070FB83EA8341
:1022300022CF002309F01FCF6114710419F080E050
:102240000E94423A882041F0882D609124010E942A
:10225000A23980E00E94513AF0922B01F7E6FF1676
:1022600011F40E94E5068F2D2396E2E10C948B3B3E
:10227000A0E0B0E0EEE3F1E10C94703B362E3A01C1
:102280004901D0902401DA94FF24EE2402E04D2C81
:102290004A94B82EC82ECA94A82EAD18502E5D1898
:1022A00081E0D81611F40F5FEF2CCE2DD0E0CC0FCB
:1022B000DD1FC60DD71D10E02EC0612F6E5F81E0BF
:1022C0000E94A23981E0D81629F0812F8E0D6F2D42
:1022D0000E94630F0230D0F081E0381629F4888123
:1022E00099810E94D51B09C0CE010E94FF3BA0E04E
:1022F000B0E0BC01CD010E945D1B8114910419F076
:10230000C4010E94D51B80E00E94513A1F5FC11694
:1023100008F41D2D22961D1580F281E0D81649F48F
:1023200080912301609124010E94A2398CE30E94D4
:10233000E93980E090E060E10E94EA0F813011F419
:102340001F2D3FC0843019F41F2D01E01DC08530C2
:1023500019F01F2D01E033C0FF2039F4CD1408F42B
:1023600044C0EA2C1C2D02E03EC01F2D11501E154A
:10237000E9F5EE20D9F1FD1410F4EE2401C0E50CCE
:1023800081E0F816D1F402E01C1531F41D1508F0B7
:102390000F5F10E0EE2427C0912F9F5F842D8E0DDC
:1023A000981701F59C15F0F48B2D891B8D1510F0F5
:1023B000E12E01C0EA2C0F5F15C08F2D02E08230A4
:1023C00061F40E947F3A84EF91E00E945F13812FB5
:1023D000CDB7DEB7E1E10C948C3B873621F40E9447
:1023E000E50601C0192FF12E5BCF1C2D01E0FBCFBC
:1023F000A9E3B0E0EEEFF1E10C947F3B82EF90E0D7
:102400009D8B8C8B8CE2898383ED90E09F8B8E8BF0
:102410008BE28A8380E591E0998F888F85E28B83B8
:1024200085E491E09B8F8A8F81E28C8380E191E04B
:102430009D8F8C8F86E08D8384E191E09F8F8E8FBE
:1024400087E08E8385E192E099A388A389E08F835A
:1024500087E391E09BA38AA386E1888780E291E0ED
:102460009DA38CA38AE089878BE591E09FA38EA32F
:1024700087E28A878DE691E099A788A789E28B8712
:1024800080E690E09BA78AA782E08C878EE291E0AD
:102490009DA78CA78CE08D878BE690E09FA78EA7E9
:1024A00083E08E8780E790E099AB88AB84E08F87EC
:1024B00085E790E09BAB8AAB85E0888B81E491E077
:1024C0009DAB8CAB84E1898B0E947F3A0E945F07B1
:1024D00081E161E0AE014C5E5F4F20E030E00E94A0
:1024E0003811FE01E80FF11D8181E996E2E00C94BC
:1024F0009B3BA9E0B0E0EFE7F2E10C947E3B182FA4
:1025000088EF91E09D838C838BEF91E09F838E8396
:102510008EEA90E0998788870E947F3A123019F4FA
:102520008BE690E002C080E790E00E94D51B83E03C
:1025300061E0AE014C5F5F4F20E030E00E94381157
:1025400091E0998392E09A831B82FE01E80FF11DCE
:102550006181662319F0812F0E949A162996E3E083
:102560000C949A3B0F931F93CF93DF93082F8823EC
:1025700021F4C1E8D0E010E003C0C8E8D0E013E0E7
:102580000E9496198117A1F00E947F3A82E00E9472
:10259000AA1ACE010E94E41B8FE890E00E94301D31
:1025A0000E949619811731F488EC90E00E945F1325
:1025B00081E00AC084E690E060E10E94EA0F013009
:1025C00079F7882369F380E0DF91CF911F910F9114
:1025D000089588EB9BE065E10E94EA0F08951F9340
:1025E0000E94F811982F8091970180FF05C080917B
:1025F00098018F7D80939801892F90E0FC0132979C
:10260000EB32F105B0F5EC5CFF4F0C94A63B18E6FD
:1026100031C00E946514182F2DC082E001C081E0F6
:102620000E94791226C00E94E01323C00E949C34AD
:1026300020C00E9495331DC00E944E331AC00E94D4
:10264000723617C00E946F1C14C00E94E50611C0AC
:102650000E9419330EC00E94C4320BC00E94532F37
:1026600008C00E94313205C00E94F63102C00E94AB
:10267000513011E08091970180FF05C08091980151
:10268000806280939801112361F40E947F3A81E077
:102690000E94AA1A87EA90E00E94E41B0E94E912B5
:1026A0000BC0193649F40E947F3A81E00E94AA1AB1
:1026B00083E590E00E94E41B812F1F9108951F93F2
:1026C000BC011092B1001092B20082E08093B00081
:1026D000809370000FB607FC1FC0789410E01DC0F7
:1026E000A8952F3F31054105510519F010F09FEFD6
:1026F00001C0922F91509093B3009F5F6093B100FF
:1027000002C0000000008091B1008823D1F7291B8E
:102710003109410951090CC011E080E090E024E149
:1027200030E040E050E00E94D33A9B01AC0167E00A
:10273000211531054105510599F6112309F4F89445
:102740001F9108951F920F920FB60F9211241092AD
:10275000B1000F900FBE0F901F9018958150860FFB
:10276000089588EC90E09093D2018093D1018CED94
:1027700090E09093D4018093D3018FE090E0909308
:10278000D6018093D5018FE18093D7018093D80142
:102790008093D9011092DA011092DB018FEF8093C0
:1027A000DC010895E1EDF1E090E08191980F81E086
:1027B000ED3DF807D1F7992309F491E0892F0895A9
:1027C00081E0809320010E947F3A8DEC91E00E948D
:1027D0000D1C6091D1017091D20180E090E04FEF2B
:1027E00024E00E94B71A81ED91E00E94221D6091C1
:1027F000D3017091D40180E090E04FEF24E00E947B
:10280000B71A88EE91E00E94221D6091D70170E016
:1028100080E090E00E945D1B0E948E1B6091D801B9
:1028200070E080E090E00E945D1B0E948E1B609132
:10283000D90170E080E090E044EF26E40E94B71AEE
:102840008BEE91E00E94221D6091D5017091D6011E
:1028500080E090E04EEF24E00E94B71A80EC91E017
:102860000E94221D60919C0170919D0180E090E08A
:102870004DEF26E50E94B71A8EEE91E00E94221DD0
:1028800060919E0170919F0180E090E04DEF26E500
:102890000E94B71A8091970182FF05C00E948E1B8B
:1028A0008AE20E94E93982EF91E00E94221D609144
:1028B000DB01772767FD7095872F972F4DEF26E572
:1028C0000E946A1B0E94E9120895A8E0B0E0EBE6BE
:1028D000F4E10C946F3B81E00E94B212882319F45A
:1028E000EAE0DE2E02C072E0D72EEE24FF2400E0E4
:1028F00010E018861F82BB24222433241E821D82EE
:102900001C821B82AA24882499241A826624772494
:102910001982442455245FC10E947F3A81E40E94B9
:10292000E9398D2D805D0E94E9390E948E1B24E0DB
:10293000D21609F44FC02D1540F032E0D31671F0D5
:1029400083E0D81609F010C13EC095E0D91609F40D
:102950006DC0E6E0DE1609F007C1A7C08BEE91E07E
:102960000E940D1C8FED91E00E94D51B81E060E07C
:102970000E945A1980E00E94461D7C01863991050B
:1029800018F4880E991EA39482E060E00E945A1900
:1029900080E00E94461D8C018639910518F4880E4E
:1029A000991EA39482E061E00E945A1980E00E947F
:1029B000461D98878F838639910508F0D5C0880E0B
:1029C000991EA394D1C080E00E94B21264E6C62E84
:1029D00080E0CBC08DEC91E00E94D51B18B822E0BE
:1029E00027B930E135B934B981E00E944A177C013A
:1029F000D7B8D5B8D4B882E00E944A178C0188E0D5
:102A000087B991E095B994B983E00E944A179887F5
:102A10008F83C701800F911F680E791EEF81F885A3
:102A20006E0E7F1EFA81FD5FFA839EC081ED91E0FC
:102A30000E94D51B15B822E028B927B930E134B976
:102A4000E0909E01F0909F0181E00E944A17E81AF1
:102A5000F90A84E088B987B984B900919E01109180
:102A60009F0182E00E944A17081B190B98E098B951
:102A700097B9E1E0E4B920919E0130919F01388738
:102A80002F8383E00E944A17EF81F885E81BF90B3A
:102A9000F887EF83C701800F911F480E591E4E0E15
:102AA0005F1EF981FD5FF9835FC088EE91E00E94AF
:102AB0000D1C8FED91E00E94D51B81E060E040E0AD
:102AC0000E94842380914B01843F89F480915001BE
:102AD00090915101A0915201B09153018536910519
:102AE000A105B10520F47C01280E391EB39482E0C3
:102AF00060E041E00E94842380915901843FA9F461
:102B000080915E0190915F01A0916001B09161019F
:102B100085369105A105B10540F48C012D813E81DA
:102B2000280F391F3E832D83B39482E061E042E099
:102B30000E94842380916701843FB1F480916C01ED
:102B400090916D01A0916E01B0916F018536910554
:102B5000A105B10548F498878F83EB81FC81E80FCC
:102B6000F91FFC83EB83B39481E017B818B814B84D
:102B700015B88823B9F00E94BE1CB70180E090E030
:102B80000E945D1B0E948E1BB80180E090E00E94B5
:102B90005D1B0E948E1B2F813885B90180E090E07B
:102BA0000E945D1B34E6C31681F088EE93E060E17D
:102BB0000E94EA0F882349F0823029F454E6C52E9A
:102BC00044E6D42E02C034E6C32EC39485E08C15AF
:102BD00008F0A2CED39496E09D1518F0CC24C394AF
:102BE000F5CFEFE0BE1611F0BB2419C0C10165E0BE
:102BF00070E00E940B3B6093D7018D819E8165E060
:102C000070E00E940B3B6093D8018B819C8165E052
:102C100070E00E940B3B6093D901BB24B394FFE0AA
:102C2000AF1651F4C4016FE070E00E940B3B70934B
:102C3000D6016093D501B3942A812F3009F06EC07C
:102C400039813F3009F06AC0C30165E070E00E943D
:102C50000B3B8B01C20165E070E00E940B3B4B0116
:102C600040919E0150919F01CA01880F991F840FC6
:102C7000951F801B910B861B970B6C01EE24FF2484
:102C800020E030E0C901B80120EA39E041E050E03D
:102C90000E94D33AA70196010E94323BB901CA01B2
:102CA0006B5F7F4F8F4F9F4F2AE030E040E050E056
:102CB0000E94323BC901DA018A3F9105A105B105A5
:102CC00028F43093D2012093D101B394B40180E071
:102CD00090E020EA39E041E050E00E94D33AA701B9
:102CE00096010E94323BB901CA016B5F7F4F8F4F43
:102CF0009F4F2AE030E040E050E00E94323BC901A3
:102D0000DA018831E1E09E07E0E0AE07E0E0BE07CF
:102D100028F43093D4012093D301B394F4E0BF1688
:102D200011F080E003C00E94E01381E02896E2E108
:102D30000C948B3B1F93CF93DF93182F623019F4C1
:102D4000CDE0D0E002C0C0E0D0E00E94D21380937A
:102D5000DD01123041F481ED91E0BE014DE050E023
:102D60000E94053C22C081ED91E0BE014DE050E0A3
:102D70000E94E73B0E94D2139091DD019923A9F0B4
:102D8000981799F00E947F3A82E00E94AA1A83EB7A
:102D900090E00E94E41B87EA90E00E94301D80EDE5
:102DA00097E00E945F130E94B113DF91CF911F91B2
:102DB0000895FF920F931F93182F1F7010641093A4
:102DC0007C00012F007C80919B01081721F00E945C
:102DD000C43A00939B0180917A00806480937A00CA
:102DE00080917A0086FDFCCFF090990170919A0154
:102DF00060E020E030E040E050E020C080917A00C8
:102E0000806480937A0080917A0086FDFCCF809167
:102E1000780090917900A0E0B0E0280F391F4A1F98
:102E20005B1F643051F484E02030380730F4003CFC
:102E300021F0713011F4106CC2CF6F5F6F15F0F29A
:102E4000003C29F460919C0170919D0104C0609147
:102E50009E0170919F0180E090E00E94D33A2AE0A9
:102E600096958795779567952A95D1F72F2D30E020
:102E700040E050E00E94323BC9011F910F91FF904A
:102E800008951F93182F0E94B93A812F0E94D916D6
:102E90001F9108951F93182F0E94BB3A812F0E9403
:102EA000D9161F9108958091BF018093C20180912E
:102EB000C0018093C3018091C1018093C401089532
:102EC000909103019923E1F08091020180FD18C0E7
:102ED00081FD04C0809100018E3190F49093000137
:102EE000809136018093A401809137018093A501E0
:102EF000809138018093A60180910A018093090195
:102F00000895A0E0B0E0E7E8F7E10C94793BAC016C
:102F1000613049F4E2E9F2E0C2E3D0E088EE93E008
:102F200027E030E018C0623049F4E6E3F2E0C9E19E
:102F3000D0E08CE291E02CE230E00DC0633019F07B
:102F400020E030E047C0E4EAF2E0C9E1D0E088ECFC
:102F500090E02EE130E04817590718F4CC24DD2426
:102F600003C06A01C81AD90AC601BE010E940B3B00
:102F7000862F90E02817390708F4622F062F10E0FB
:102F8000000F111F0E0F1F1FC8010E94FF3B7C0185
:102F9000C80102960E94FF3BFC01E81AF90AC6012B
:102FA000BE010E940B3B9E01281B822F90E09C01DA
:102FB0002E9DC0012F9D900D3E9D900D11249E01D0
:102FC00036952795820F931FBE010E940B3B9B01F4
:102FD0002E0F3F1FC901CDB7DEB7E8E00C94953B3B
:102FE0001F93182F60FF03C085B1812B03C095B1DB
:102FF0008095892385B984B1812B84B963FF03C08F
:103000000E94BF3A02C00E94BA3A84B1912F9095B3
:10301000892384B985B1982395B91F910895AF92FA
:10302000BF92CF92DF92EF92FF920F931F93C62E23
:10303000A42E8093BF016093C0014093C101E82E8C
:10304000FF2403EF12E0C8018E0D9F1D0E94F73B85
:103050008093C501DD24C8018C0D9D1D0E94F73BA6
:103060008093C601BB24C8018A0D9B1D0E94F73BBB
:103070008093C70106EF12E0C8018E0D9F1D0E94CC
:10308000F73B8093C801C8018C0D9D1D0E94F73B42
:103090008093C901C8018A0D9B1D0E94F73B809354
:1030A000CA0109EF12E0C8018E0D9F1D0E94F73B77
:1030B0008093CB01C8018C0D9D1D0E94F73B80932E
:1030C000CC01C8018A0D9B1D0E94F73B8093CD0166
:1030D0000CEF12E0C8018E0D9F1D0E94F73B8093FC
:1030E000CE01C8018C0D9D1D0E94F73B8093CF013E
:1030F000C8018A0D9B1D0E94F73B8093D0011F9150
:103100000F91FF90EF90DF90CF90BF90AF90089518
:10311000CF93DF93982F80910001813009F4BEC0D6
:10312000A895892F0E940F1815B88091C60184B9FF
:103130008091CB0187B988B98091C70160E10E9475
:10314000F0178091CF010E944A17EC018091C701CE
:103150009091C601892B84B98091CF010E944A17B2
:103160009C018091C60184B92C173D0720F42530BD
:10317000310508F4E90123E0C13DD20708F180914F
:10318000C70161E10E94F0178091CF010E944A17A8
:10319000EC018091C70185B99091C601892B84B952
:1031A0008091CF010E944A179C0115B88091C601F9
:1031B00084B92C173D0720F42530310508F4E901C6
:1031C000C031D10538F080910201882319F4CE0175
:1031D0000E94E12783E0C13DD80708F042C08091FA
:1031E00002018823D9F48091C60184B915B8809171
:1031F000CB0187B988B90E94BB3A8091C7019091F1
:10320000C601892B84B98091CF010E944A178F553E
:103210009D4020F082E0BE010E942D2A8091020193
:10322000882339F58091CC0187B918B88091C701FE
:103230009091C501892B84B985B98091CE010E94F6
:103240004A1780549640A8F40E943F27882389F4A7
:1032500080910001813269F081E0BE010E942D2A37
:1032600008C080910201882311F40E94C2250E94A7
:10327000052C80910001882311F08A3019F40E94F6
:10328000101E08C08F3131F48091010184FF02C00B
:103290000E94A72517B818B814B815B8DF91CF91B8
:1032A00008958091C2016091C3014091C4010E94C0
:1032B0000F18089543E0481B461B0E940F180895FD
:1032C000CF93DF930E945A1917B88091C50185B931
:1032D0009091C601892B84B98091CE010E944A1732
:1032E000EC018091CF010E94D91620919E0130916E
:1032F0009F0136952795B9016E5170406C177D0777
:1033000078F4A901425E5F4FC417D50748F46817E7
:10331000790730F420E08417950718F421E001C004
:1033200020E014B8822FDF91CF9108950F931F935F
:1033300080E061E00E946019082F80E062E00E9456
:103340006019182F81E062E00E946019100F810F50
:103350001F910F910895A6E0B0E0E1EBF9E10C9424
:10336000733B17B818B815B88FE384B981E00E9491
:10337000D9169A83898382E00E94D9169C838B8315
:1033800083E00E94D9169E838D8301E098E2D92EB6
:1033900082E0C82EBB243E010894611C711CB1E080
:1033A0008B2E912CC39483E0C81609F4CC24EC2C0A
:1033B000FF248B2D90E00C2C02C0959587950A94E4
:1033C000E2F780FD75C0C70184509D4F0E94F73B16
:1033D000A82E0E94D9169C01F701EE0FFF1FE60DE3
:1033E000F71D808191812817390770F4318320837C
:1033F0008D2D90E0801B9109449784F48AEE8D1501
:1034000068F084E1D80E0AC02A30310528F488E239
:10341000D81611F470E5D72E0F5F01C001E02330FC
:10342000310548F4C4010E2C02C0880F991F0A947C
:10343000E2F7B82A0BC02052334040F417B1C7015D
:1034400087509D4F0E94F73B182B17B987E0B8169D
:1034500091F1D01640F581E0809300018093010145
:10346000C0920601C70187509D4F0E94F73B97B15C
:103470008095982397B9C7018A509D4F0E94F73BCA
:10348000182FC7018D509D4F0E94F73B94B1182B08
:103490001095912394B98A2D0E94D9169093080112
:1034A0008093070108C0A89582E390E00E945F1313
:1034B000002309F077CF14B817B82696EEE00C94E5
:1034C0008F3BEF92FF920F931F93E82EF62E17B8C3
:1034D00018B814B815B80E945A198091CB0187B951
:1034E0008091CF010E94D9168C018091CC0187B9BF
:1034F0008091CE010E94D9160817190720F48F2D4C
:103500006E2D0E945A198091CB0187B98091C60116
:1035100084B901E08091CF010E94D9169C0181E01D
:103520002039380740F487B19091CC01892B87B9B5
:103530002832310540F00F5F033329F084E690E034
:103540000E945F13E7CF17B814B81F910F91FF9037
:10355000EF90089560912401861710F061E003C098
:10356000681B66956F5F81E00E94A23908959F9263
:10357000AF92BF92CF92DF92EF92FF920F931F9381
:103580006B017C01042F922E15C085E090E0A0E035
:10359000B0E0C80ED91EEA1EFB1EC701B6012AE024
:1035A00030E040E050E00E94323BC901DA016C019A
:1035B0007D010F5F90E1C91697E2D90690E0E90618
:1035C00090E0F90610F7013F1CF4AA24BB2426C0A2
:1035D000202F215F822F63E00E94FE3A382F822F36
:1035E00063E00E94FE3AB92E992349F4A8EECA1668
:1035F000A3E0DA06A0E0EA06A0E0FA0620F03F5FCA
:1036000083E08B19B82E383010F0AA2407C0832F1E
:1036100090E0825D9D4F0E94F73BA82E0DE311E0E4
:10362000C601B8014AE050E00E94D13BF801019088
:103630000020E9F78F01015010400D531140E02E9A
:103640000B1910165CF080E30E94E9398EE20E94AB
:10365000E939002319F080E30E94E939BB2009F41D
:103660000FEF0150FF24C02EDD24C7FCD0940FC003
:103670000F2D10E0F801E35CFE4F80810E94E939D4
:103680000C151D0519F48EE20E94E939F394FE141D
:1036900078F3AA2019F08A2D0E94E939992019F0AF
:1036A000892D0E94E9391F910F91FF90EF90DF90D3
:1036B000CF90BF90AF909F90089540E020E00E948F
:1036C000B71A08958AE30E94E93908958DE20E94AD
:1036D000E9390895CF92DF92EF92FF920F931F93F3
:1036E0007B018C01D42EC22E97FF0BC08DE20E946D
:1036F000E93910950095F094E094E11CF11C011D4E
:10370000111DC801B7014D2D2C2D0E94B71A1F9114
:103710000F91FF90EF90DF90CF90089580E20E948C
:10372000E93908950E94D3060E94E93908958F5C13
:103730000E94E93908951F93182FE091090183E051
:10374000E89FE02D1124F0E0E25CF24FE60FF11D5E
:103750008491882341F120912901215060912A010F
:10376000982F94FF04C0809128018695680F91FFDF
:1037700004C0809127018F5F280F92FF04C08091C1
:1037800028018150680F822F0E94A239812F0E9448
:10379000D306883721F4812F0E94921B04C0812F09
:1037A0008F5C0E94E9391F910895CF93DF93EC015C
:1037B00003C00E94E9392196CE010E94F73B88237D
:1037C000C1F7DF91CF910895FF920F931F93CF938D
:1037D000DF93082FF92E9C01E90101C02196CE014B
:1037E000801B182FCE010E94F73B8823B9F78091E8
:1037F0002301811710F481E003C0811B86958F5F40
:10380000609122010E94A239802F9F2D0E94D51B1A
:10381000CDB7DEB7E5E00C94983B0E94D51B80E263
:103820000E94E9390895DF92EF92FF920F931F9360
:10383000F42ED22E0DE311E0A8012AE030E00E9420
:10384000AC3BF80101900020E9F78F0101501040D6
:103850000D531140E02EFF2011F404E60DC00F15AA
:1038600030F00F1911F0FF2407C0FF2401C0F01A37
:1038700080E30E94E93900E010E014C0101751F411
:103880008EE20E94E93904C080E30E94E939FA948B
:10389000FF20D1F7E12FF0E0E35CFE4F80810E9432
:1038A000E9391F5F1E1550F3DD2019F08D2D0E94A0
:1038B000E9391F910F91FF90EF90DF90089583E019
:1038C0000E94513A81E063E00E94A239089582E0AB
:1038D0000E94513A81E062E00E94A2390895FF926D
:1038E0000F931F930E947F3A8EE291E00E940D1C7D
:1038F0001091DC01F090250101E00E94671C612F0E
:1039000070E080E090E00E945D1B043020F48CE2C7
:1039100091E00E945F1380E090E068E10E94EA0F6E
:10392000082F813031F0833011F400E008C084307A
:1039300021F41F1520F41F5F02C011111150812FB7
:103940000E947C390023C9F61F910F91FF900895C2
:103950001F931091220180912401181769F40E948D
:10396000E912812F0E94513A81E0612F0E94A23911
:1039700084EF91E00E945F131F9108951F9390912F
:10398000200160912201809124016817B1F4192F60
:1039900090FF02C00E94E91211FF0CC01091240197
:1039A00004C0812F0E94513A11501230D0F781E0AB
:1039B00062E005C00E947F3A04C06F5F81E00E9410
:1039C000A2391F9108951F93382F909128012091BB
:1039D0002401892F8F5F281798F1409123014031EE
:1039E00018F0930F921738F0209322010E94BE1C0A
:1039F00032E083E004C080912701481B842F80932C
:103A0000290130932A01109122018091A40160E0E4
:103A10000E949B1B8091A50161E00E949B1B8091ED
:103A2000A60162E00E949B1B8091290160912A01FE
:103A30000E94A239809109010E94B5391093220198
:103A40001F9108950F931F938C010E94BE1CC80103
:103A50000E94D51B80E20E94E9391F910F910895C1
:103A60000F931F938C010E94BE1CC8010E94E41B8F
:103A70001F910F9108950F931F938C010E94BE1CFC
:103A8000C8010E94D51B1F910F910895A0E0B0E0DE
:103A9000ECE4FDE10C94723B582E0E94AB1980912E
:103AA0000001813019F420E030E0A6C018B8809100
:103AB000CC0187B98091C50185B984B90E94BA3A11
:103AC00061E0662477244301862F90E0EC01C17009
:103AD000D07060FF03C08091CE0102C08091CF0101
:103AE000A895806C80937C000E94C43A80917A00F3
:103AF000806480937A0080917A0086FDFCCFAA24AE
:103B0000EE24FF24870180917A00806480937A00FC
:103B100080917A0086FDFCCF8091780090917900A9
:103B2000A0E0B0E0E80EF91E0A1F1B1F0E94C13A78
:103B3000A39484E6A81639F720919C0130919D0149
:103B400040E050E0C801B7010E94D33A7B018C01EC
:103B50008AE016950795F794E7948A95D1F762E085
:103B6000CD2B09F44FC0C701D8013C014D01ACCFAA
:103B700060919E0170919F0180E090E024E630E02A
:103B800040E050E00E94D33A661977098809990904
:103B90000E94D33A5B016C016E187F08800A910A7B
:103BA000C401B30128EE33E040E050E00E94D33A74
:103BB0007B018C012091D3013091D4012057354EE7
:103BC00040E050E0C601B5010E94323BC801B70198
:103BD0000E94323B81E0581661F48091D5019091AA
:103BE000D6018217930718F4281B390B02C020E076
:103BF00030E080EC80939B01C901CDB7DEB7EFE0E8
:103C00000C948E3B15B88091CB019091CC01892BFF
:103C100087B9E614F7040805190508F4A9CFE7CF1A
:103C2000A0E0B0E0E6E1FEE10C94703BA89518B886
:103C30008091CC0187B98091C50184B985B9809103
:103C4000CF010E944A177C018091CE010E94D916B3
:103C50004C0115B88091C80184B98091CE010E94B1
:103C60004A17459708F025C28091C80185B980910F
:103C7000CE010E944A172C018091CB0187B988B9E7
:103C800015B88091C60184B98091CE010E944A176F
:103C90008C018091CF010E94D9163C018091C9010D
:103CA00084B98091CF010E944A17EC0120E382166B
:103CB00021E1920628F482E64816510408F0F9C181
:103CC0002CE6421623E1520608F0F3C189EA681691
:103CD000710408F06EC0C632D10508F4EAC1B20121
:103CE00080E090E020EF3BE247E050E00E94D33AD2
:103CF000E0909E01F0909F0197012419350940E062
:103D000050E00E94323B59016A01EC1AFD0A00E0C2
:103D100010E0C801B70120EF3BE247E050E00E940D
:103D2000D33A9E0140E050E00E94323BB901CA0103
:103D30002EED421623E0520670F442E0AA0CBB1CA2
:103D4000CC1CDD1C4A95D1F7A60EB71EC81ED91E85
:103D5000C601B5010EC0CE5DD340B0F432E0660FAF
:103D6000771F881F991F3A95D1F76A0D7B1D8C1D0F
:103D70009D1D25E030E040E050E00E94323BC9014B
:103D8000DA01BC01CD0108C06A0D7B1D8C1D9D1D93
:103D90009695879577956795625A7E4F8F4F9F4F7F
:103DA0002AE030E040E050E00E94D33A3B014C0171
:103DB000A0C08E149F0408F490C00615170508F4DF
:103DC0008CC0C0919E01D0919F018C169D0619F464
:103DD0000894810891082091D3013091D401205793
:103DE000354E40E050E0B4016E197F0980E090E06C
:103DF0000E94D33AC819D9099E0140E050E00E94C0
:103E0000323B59016A012091D1013091D2012057F2
:103E1000354E40E050E006191709B80180E090E007
:103E20000E94D33A930140E050E00E94323B790176
:103E30008A018EED881683E0980640F492E0AA0C81
:103E4000BB1CCC1CDD1C9A95D1F715C02EED62165B
:103E500023E07206B8F588EFE81684E2F80681E000
:103E6000080780E0180790F482E0EE0CFF1C001FAA
:103E7000111F8A95D1F7AE0CBF1CC01ED11EC60102
:103E8000B50125E030E040E050E015C0C801B701C1
:103E9000B3E0660F771F881F991FBA95D1F76E0D93
:103EA0007F1D801F911F6A0D7B1D8C1D9D1D2AE0AB
:103EB00030E040E050E00E94323BC901DA013C01B1
:103EC0004D0117C0350146016E0C7F1C801E911EEE
:103ED00096948794779467940CC02FE8621622E139
:103EE000720608F4E2C0FAE06F2E712C812C912C3E
:103EF00006C084E6681671048104910478F581E0B7
:103F00000E94461D7C0100E010E0C401B301660F71
:103F1000771F881F991F25E06216710481049104A0
:103F200020F4660D771D881D991D2AE030E040E0E1
:103F300050E00E94D33A611571058105910521F485
:103F400064E670E080E090E0E616F70608071907DF
:103F500028F4370148015EEF552E02C055245A94CB
:103F600020E047E0342E3AE0432E81C0239DE0015B
:103F70001124C55FDE4F98818091BF01981709F029
:103F800073C099818091C001981709F06DC0C40178
:103F9000B301452D02E010E020E030E0EE240E9465
:103FA000D90E8F3F91F56B817C818D819E814A81F5
:103FB00002E010E020E030E00E94D90E8F3FF1F4E3
:103FC0004A81451519F0FF24FA9402C0FF24F394A6
:103FD0006B817C818D819E8194018301E52C0E94FF
:103FE000D90E8F1531F46B807C808D809E805A8035
:103FF00005C06B827C828D829E825A82640153014D
:10400000D694C794B794A7940CC0C401B30124E11B
:1040100030E040E050E00E94323BC901DA015C012F
:104020006D016B817C818D819E81940183010A19D0
:104030001B092C093D094A81E52C0E94D90E87FDF8
:1040400015C06B817C818D819E81A60CB71CC81C1C
:10405000D91C4A81960185010E94D90E181634F0A8
:104060004092000124E603C02F5F01C028EC90912C
:104070000401291708F47ACF2436D9F09330C8F414
:10408000E7E09E9FF0011124E55FFE4F8091C001A3
:1040900080838091BF01818363827482858296824E
:1040A00052829F5F9093040104C0662477244301E9
:1040B00026CFCDB7DEB7E1E10C948C3BEF920F93A6
:1040C0001F93142F109204010E945A190E94101E6F
:1040D00080910401813011F090E017C01123A1F00C
:1040E000612F70E080E090E000910E0110910F01CF
:1040F000209110013091110143E0E0900D010E94E8
:10410000D90E90E0813009F491E0892F1F910F9131
:10411000EF900895982F813110F480E00895915127
:1041200015BC82E084BD97BD81E0089516BC81E096
:1041300085BDA99BFECF15BC82E085BB08954F923B
:104140005F926F927F929F92AF92BF92CF92DF92D7
:10415000EF92FF920F931F93CF93DF933C010E9446
:10416000AB1980910001813011F480E05DC115B878
:104170008EE087B918B88091C80184B980E4809333
:104180007B0084E480BF8091CE01806480937C00BA
:1041900087E080937A000E94C33A109280001092C8
:1041A0008100109285001092840087E286BB809186
:1041B000C80185B9809100018F3129F49091CB011C
:1041C00090959E7002C09091CC0181E08093810017
:1041D00097B900E010E091E086B3282F85FD0AC072
:1041E00080FFFACF96BBA8950F5F1F4F8FE0003A74
:1041F000180791F71092810080E286BBC09186007B
:10420000D091870014B88091840090918500C817E0
:10421000D90730F420FF04C081E086BB0F5F1F4F39
:1042200087E980937A0080917B008F7B80937B006D
:104230008091CE010E94D9162C0115B88091C80139
:1042400084B99FE0003A190710F081E0EDC09E01AB
:1042500040E050E0C801A0E0B0E08C01FF24EE2473
:10426000E22AF32A042B152BA3E0EA16F104010538
:10427000110500F18EEF9FEFAFEFBFEFE80EF91ED3
:104280000A1F1B1F98E3E91699E8F90691E409074C
:1042900090E0190778F0C801B70128EE33E040E05C
:1042A00050E00E94323BC901DA017C018D0197EF99
:1042B000992E02C084EF982E8091DB01992787FD0B
:1042C000909520919C0130919D01820F931F61E098
:1042D0000E948117A0E0B0E0BC01CD01A8019701C8
:1042E0000E94D33A20ED37E040E050E00E94323B9C
:1042F00079018A01A4EF9A1619F0570168011DC0CF
:104300008091BF016091C0010E94AE13E82FF0E0E0
:10431000EF52FE4F868190E0A0E0B0E0E816F9068B
:104320000A071B0720F4AA24BB24650106C0570115
:104330006801A81AB90ACA0ADB0A8091C001F30110
:1043400080838091BF0181839282D3011796ED9281
:10435000FD920D931C931A97A382B482C582D682D4
:10436000F4EF9F1651F420EAA21626E8B20621E0E7
:10437000C20620E0D20678F456C087EF981609F0FE
:1043800052C091E2A9169EE4B90690E0C90690E0F9
:10439000D90608F048C08091CE010E94D916855DEB
:1043A0009340C8F714B810929A018091CE010E94F0
:1043B000D9168C0181E080939A018091CE010E94F0
:1043C000D916EC018091C80184B90C1B1D0BE0903B
:1043D0009C01F0909D01C80104960997D0F0B801A6
:1043E000882777FD8095982F970140E050E00E9444
:1043F000D33A9E0140E050E00E94543B8091DA01A4
:10440000820F8093DA018A2D992787FD9095E80E17
:10441000F91E92012E193F09C901C19683369105F3
:1044200010F42093DB0183E0DF91CF911F910F9176
:10443000FF90EF90DF90CF90BF90AF909F907F90D4
:104440006F905F904F900895A0E0B0E0EAE2F2E252
:104450000C94713B3C0183E0B82EB1E19B2E0E948D
:10446000AB1980910001813011F4882447C118B83C
:104470008091CC0187B98091C60185B984B98091BA
:10448000CE010E94D9167C018091CF010E94D916DD
:10449000E81AF90A15B814B8CC24DD240894C11C14
:1044A000D11C8091C501692D0E94F0178091CE0129
:1044B0000E94D916E816F9061CF0C0E0D0E003C04F
:1044C000EC01CE19DF092EE7C216D10421F480E0F9
:1044D000CB34D10508F081E091E0CC32D90708F067
:1044E00080E0E4EFCE16E1E0DE0609F480E0A89576
:1044F0008823A1F6F1E0CC32DF0710F4BB24B3949B
:1045000021E0C216D10461F485E0C531D80740F03E
:10451000892DA9E09A2E84FDA2CFF2E08F2EEEC065
:104520008B2C93E0B91619F000E010E037C086013B
:1045300080E090E00FC08091CE010E94D916E8166D
:10454000F9061CF080E090E002C08E199F0901502E
:104550001040A8950115110571F78C179D0718F0EB
:1045600000E010E007C08E01081B190B053611058D
:1045700008F0BB248091CE010E94D9167C0194FEE4
:1045800003C00E94AF3A02C00E94B43A8091CE01AB
:104590000E94D9168E159F0520F08B2C442455249B
:1045A00004C02701481A590A8B2CE3E0BE1609F013
:1045B000A5C0C8018C0F9D1F62E00E948117A0E07A
:1045C000B0E0960140E050E0BC01CD010E94D33A3A
:1045D0005B016C01C92DD0E08E010071107094FE5A
:1045E00008C02AE030E040E050E00E94D33A5B018E
:1045F0006C01F8E3AF16F9E8BF06F1E4CF06F0E08E
:10460000DF0618F4E7EF9E2E0EC0C601B50128EEB6
:1046100033E040E050E00E94323BC901DA015C0126
:104620006D017AEF972EC601B50128EE33E040E028
:1046300050E00E94D33A012B29F022E434E040E01C
:1046400050E004C020E134E040E050E00E94323B02
:10465000C901DA017C018D018091C001F3018083E1
:104660008091BF0181839282A782B086C186D28663
:10467000E382F482058316830DC0C801B7012AE0E6
:1046800030E040E050E00E94323BC901DA017C0199
:104690008D019394F1E0EF16F5E3FF06FCE00F07C0
:1046A000F0E01F0750F7C3FD9394920140E050E003
:1046B000C801B7010E94D33A28EE33E040E050E051
:1046C0000E94323BC901DA01BC01CD010BC02AE0D6
:1046D00030E040E050E00E94323BC901DA01BC0109
:1046E000CD019394603020E0720721E0820720E042
:1046F000920768F7F301748763879586882DCDB795
:10470000DEB7E0E10C948D3BA0E0B0E0EAE8F3E234
:104710000C94773BB82EA62E8EE0489F60011124A2
:1047200089E491E0C80ED91EF6011082118284EF4F
:104730008283178210861186128613821482158254
:1047400016821486138680910001813009F461C0BD
:104750008A3041F5FF24CBE0D1E01DC098819B1544
:1047600019F489818A1529F09A1599F489818B1594
:1047700081F46B817C818D819E814A810AE010E009
:1047800020E030E0EE240E94D90E8F3F11F493E632
:10479000F92EF394279680910401F816F8F2F4E6C6
:1047A000FF16B9F58B2D6A2D0E949325FC01009709
:1047B00029F0828193818C5D954058F18B2D6A2D73
:1047C0000E945A19C6010E942422823019F4C6019F
:1047D0000E949F20809100018431A8F4F60192810B
:1047E0008A3019F49A3F7CF00BC0953F4CF4F601E7
:1047F00083819481A581B6810597A105B10518F043
:104800008BE0809300010E94AB1917B818B814B858
:1048100015B8CDB7DEB7EAE00C94933BA4E0B0E066
:10482000E4E1F4E20C946F3B9C838B83009709F4E2
:104830003FC1FC01638174818581968142810AE0D8
:1048400010E020E030E057EFE52E0E94D90E87FD02
:104850002FC10E94AB1980910001813009F428C159
:10486000EB81FC81808161810E94611AEB81FC8176
:10487000808161810E945A194090CE013090CF0111
:10488000F0EC4F2A3F2A15BC82E084BD85E387BD4A
:1048900018B840927C000E94BA3AB2E38B2E912C59
:1048A00060E070E022242A94A1E0AA2EB12CC12C51
:1048B000D12CF1E0EF2EF12C012D112DE7ED5E2E24
:1048C000A8956233710558F48091CC0187B9809125
:1048D000C50185B984B90E94CD3A14B815B882E3F0
:1048E0008816910458F48091CB0187B98091C60154
:1048F00085B984B90E94CD3A14B815B88091CB011E
:1049000087B98091C50185B984B940927C005092E5
:104910007A0080917A0086FDFCCF50927A008091D7
:104920007A0086FDFCCFE0917800F0917900FA835F
:10493000E98330927C0050927A0080917A0086FD63
:10494000FCCF50927A000E94C93A0E949620809132
:10495000C60185B984B90E94CD3A14B880917A0015
:1049600086FDFCCF80907800909079008091CC01FA
:1049700087B98091C60185B984B930927C00509284
:104980007A0080917A0086FDFCCF50927A00809167
:104990007A0086FDFCCF609078007090790040929C
:1049A0007C0050927A0080917A0086FDFCCF509274
:1049B0007A000E94C93A0E9496208091C50185B96B
:1049C00084B90E94CD3A14B880917A0086FDFCCF5C
:1049D0006091780070917900C301A0E0B0E0E981B6
:1049E000FA819F0140E050E0820F931FA41FB51F82
:1049F000A80EB91ECA1EDB1ECB01A0E0B0E09401D8
:104A000040E050E0820F931FA41FB51FE80EF91E6F
:104A10000A1F1B1F2A9409F053CF17B815B8AE14FC
:104A2000BF04C006D106E0F58091D1019091D2017A
:104A30009C0173E0220F331F7A95E1F7880F991FCD
:104A4000280F391F40E050E0EA18FB080C091D0947
:104A5000C801B7010E94D33AA60195010E94323BDA
:104A6000C9012091D5013091D6012817390720F4CA
:104A70008C01021B130B16C0EB81FC8163817481D6
:104A800085819681428108EE13E020E030E05AEF04
:104A9000E52E0E94D90E18161CF400E010E002C0AA
:104AA0000FEF1FEF80EC80939B010E94AB1902C0B7
:104AB0000FEF1FEFC8012496E2E10C948B3B80912D
:104AC00000018032F1F0813228F48E3141F08F31D3
:104AD00041F40BC08132E9F0843218F416C022E4AC
:104AE00011C020E090E080E017C08091010186FDB8
:104AF00004C027E494E483E50FC027E498E788E73F
:104B00000BC027E493E485E407C027E491E483E441
:104B100003C027E492E381E32093A7019093A801C7
:104B20008093A9010895282F90910501E3E7F1E012
:104B300008C08081281719F48181681731F09150DD
:104B400036969923B1F7E0E0F0E0CF010895809127
:104B5000010180FF05C06091A6018091A50104C0FC
:104B60006091A5018091A6010E949325892B49F0AF
:104B70001092000110920101809102018E7F8093BA
:104B800002010895EF92FF920F931F93CF93DF934B
:104B90008091CE010E94D916EC018091CF010E9434
:104BA000D9167C018091D0010E94D9168C0117B8CA
:104BB0008091CB0188B98091CA0185B99091C601D5
:104BC000892B84B982E390E00E945F138091CB012E
:104BD00087B98091CF010E94D9160A97F8F483E231
:104BE000809303018CE080930A018091C10180933E
:104BF00036018091BF01809337018091C00180937D
:104C00003801CE018E199F0990933A0180933901A2
:104C1000C01BD10BD0933C01C0933B01CDB7DEB795
:104C2000E6E00C94973BA0E0B0E0E9E1F6E20C94FA
:104C3000773BB82E21E08217E1F48091CB0187B950
:104C400088B99091C7018091C601892B84B995B923
:104C50008091CF010E944A17EC0100919E011091B2
:104C60009F018091D0010E94D9169801281B390B11
:104C70001AC018B88091CC0187B98091C50185B957
:104C80009091C701892B84B9C0919E01D0919F0159
:104C90008091CE010E944A17C81BD90B8091D00188
:104CA0000E94D9169C012115310511F421E030E054
:104CB000CE01821B930BB9010E940B3B6B01EE24CA
:104CC000FF242031310508F062C031E0B316D9F479
:104CD0008091CA019091C601982B94B985B98091B1
:104CE000CF010E944A17EC0100919E0110919F0193
:104CF0008091D0010E94D916081B190BA090D101F8
:104D0000B090D20119C08091CA019091C501892B40
:104D100084B9C0919E01D0919F018091CE010E94E3
:104D20004A17C81BD90B8091D0010E94D9168C015B
:104D3000A090D301B090D4010115110511F401E048
:104D400010E0BE0180E090E020EF3BE247E050E061
:104D50000E94D33A980140E050E00E94323BCA01E1
:104D6000B9012AE030E040E050E00E94D33A20E967
:104D70003AE1A20EB31E950140E050E00E94323BA2
:104D8000C216D306E406F50610F469017A01B601ED
:104D9000C701CDB7DEB7EAE00C94933BDF92EF9208
:104DA000FF920F931F93D82E15B88091C60184B936
:104DB0008091CB0187B988B98091CF010E944A17B1
:104DC000BC018430910550F18091D1019091D201C4
:104DD0007C0100E010E085E06937780780F091E021
:104DE000D91669F414B88091CC019091CB01892B2C
:104DF00087B98091CF010E94D916BC0108C080E913
:104E00009AE1A0E0B0E0E80EF91E0A1F1B1F20EA9D
:104E100036E841E050E0E9EFDE2E15C08091C9018F
:104E200084B98091CF010E944A17BC0120E432E48A
:104E30004FE050E090EFE92E9BE2F92E97E0092F2A
:104E4000112D87EFD82E17B818B814B815B880E010
:104E500090E00E94D33AA80197010E94323B209330
:104E6000B5013093B6014093B7015093B801D09289
:104E7000B9011F910F91FF90EF90DF900895A0E08E
:104E8000B0E0E5E4F7E20C94793B8091D0010E9418
:104E9000D9167C018091CF010E94D9166C018091B6
:104EA000C70160E10E94F0178091CE010E944A176D
:104EB0008C0115B80E94BB3A8091C50185B98091DB
:104EC000CE010E944A1726E00034120708F05FC0A6
:104ED0008153914108F45BC014B815B88091CC019E
:104EE00088B90E94BB3A8091C50184B98091CE01F6
:104EF0000E944A17853F910508F049C08091C7017B
:104F000060E10E94F0178091CE010E944A17EC01E7
:104F100082E0CD3DD80760F482E280930001809169
:104F200002018160809302018AE08093090135C00B
:104F30008091C50185B90E94BB3A15B88091CE0118
:104F40000E944A17853F910510F58091000181323A
:104F500029F48091020181608093020181E28093B3
:104F600000018BE0809309018091B1019091B20121
:104F70008C179D0720F5CE01A0E0B0E08093B10131
:104F80009093B201A093B301B093B40106C080E046
:104F9000CDB7DEB7E8E00C94953B8091C1018093DA
:104FA000A4018091BF018093A5018091C0018093ED
:104FB000A601EC18FD08F092AC01E092AB0181E093
:104FC000E7CFA0E0B0E0E7EEF7E20C94753B8B5E34
:104FD000914020F4B8E2CB2ED12C04C0A8EECA2E0A
:104FE000A1E0DA2E8091CA019091C601892B84B983
:104FF0008091CF010E9441177C018091CA0185B93F
:105000008091CF010E9441174C01C7018C0D9D1D5D
:105010008815990508F06AC08091C70184B985B9DF
:1050200018B88091CC0187B98091D0010E944117B6
:1050300017B8C3978958924028F010E086E0E81628
:10504000F10408F411E08091CB0187B98091D0017F
:105050000E944117EC018091CE010E94D91617B829
:105060008C179D0730F4C81BD90BC25CD14008F4E3
:1050700011E08091CC0188B987B98091CA019091E3
:10508000C501892B84B915B88091CE010E944117C2
:105090005C018091CA0185B98091CE010E944117BF
:1050A000EC0118B88091CC0187B98091CA01909128
:1050B000C501892B84B985B98091D0010E9441171F
:1050C00088549F4028F089E18093010184E006C064
:1050D000112361F489E28093010186E08093090144
:1050E00084010E191F09CA19DB0977C018B880910D
:1050F000CC0187B98091CA019091C501892B84B9EF
:1051000085B98091CE010E9441178C018091C50123
:1051100085B98091CE010E9441177C018C0D9D1DA7
:105120008017910708F009C1C0919E01D0919F019D
:105130008091C70184B915B88091CB0187B988B92E
:105140008091D0010E94411718B88D5C9041895818
:10515000924028F0BB242C970C171D0710F0BB249D
:10516000B3940E191F098091CB0187B98091CA01B0
:105170009091C601892B84B985B98091CF010E9495
:105180004117EC018091C60185B98091CF010E9441
:105190004117C81BD90BD694C794CC15DD0518F45C
:1051A000CE01E8018C0115B88091CB0188B987B98F
:1051B0008091D0010E944117815D934028F48AE1DB
:1051C0008093010185E007C0BB2009F0B6C08AE2E8
:1051D0008093010187E0809309018FE180930001B2
:1051E000809102018160809302014091C10140934E
:1051F000A401C017D10738F48091BF018093A501A5
:105200008091C00106C08091C0018093A50180916A
:10521000BF018093A601C80162E370E00E940B3BCE
:105220009B01C801861B970BC817D90750F0200FA8
:10523000311F2C173D0728F0809101018064809375
:1052400001018091A5016091A6010E940F18909123
:10525000CD018091CC01982B97B92091C50124B93B
:105260008091010180FF13C018B825B900919E01FB
:1052700010919F018091CE010E9441179801281B37
:10528000390BC901C091D301D091D4010AC098B99A
:1052900015B88091CE010E944117C091D101D091E3
:1052A000D201C057D54EBC0180E090E020E137E24A
:1052B00040E050E00E94D33A9E0140E050E00E945E
:1052C000323B2093B5013093B6014093B701509320
:1052D000B8018AEF8093B9019091CA018091C90108
:1052E000982B94B92091CB0127B98091010180FFBF
:1052F00003C015B828B902C095B918B80E94BA3AC7
:105300008091CF010E94D9168C018091D0010E941A
:10531000D9169C01201B310B3093B0012093AF01B3
:105320008091010180FF02C020543D4E215C32413A
:1053300020F01092B0011092AF01CDB7DEB7ECE0D3
:105340000C94913BA0E0B0E0E8EAF9E20C94753BE4
:1053500090E0EC01C170D07080FF07C0C090C50123
:105360008091CB0130E1A32E06C0C090C601809190
:10537000CC0121E1A22E9EE0B92EB8228091D0016D
:10538000806480937C000E94C43AEE24FF2487014D
:10539000DD248FEF882E83E0982EA8958091C70199
:1053A0006A2D0E94F0178091CA018C2984B9209738
:1053B00021F086B18B21E9F703C086B18B21E9F397
:1053C000C4B880917A00806480937A0080917A00DA
:1053D00086FDFCCF209759F080917800909179005C
:1053E000A0E0B0E0E80EF91E0A1F1B1F0EC080915E
:1053F0007800909179009401281B390BC901A0E035
:10540000B0E0E81AF90A0A0B1B0BD3943AE0D31662
:1054100021F6C801B7012AE030E040E050E00E94E8
:10542000543BB901CA0120919E0130919F0140E097
:1054300050E00E94D33A20E034E040E050E00E9487
:10544000543B3093AE012093AD0180E480939B01E7
:10545000CDB7DEB7ECE00C94913BA0E0B0E0E3E325
:10546000FAE20C94753B982E5B010E94531741E0C1
:10547000941641F58091CA019091C501892B84B998
:1054800085B90E94B63AC0909E01D0909F0180914C
:10549000CE010E94D916C81AD90A00919E01109116
:1054A0009F018091D0010E94D916081B190BC09151
:1054B000D301D091D401FF24F3948DEF99E028E437
:1054C0003DE01AC08091CA019091C601892B84B930
:1054D0008091CF010E944A176C018091D0010E94F7
:1054E000D9168C01C091D101D091D20172E0F72E72
:1054F00081ED93E020ED37E08017910708F0DBC0E5
:10550000809100018E31E9F490910101892D892368
:1055100021F49460909301010EC051E0951659F466
:105520009091A5018091BF01981729F490920001F4
:1055300082E08093010180910201816080930201E9
:1055400005C08EE18093000190920101AC14BD046E
:1055500010F4CA18DB08B60180E090E020EF3BE2CF
:1055600047E050E00E94D33A980140E050E00E94AA
:10557000323BCA01B9012AE030E040E050E00E942D
:10558000D33AC057D54E9E0140E050E00E94323BD6
:10559000C901DA015C016D01892D0E941326A6164E
:1055A000B706C806D90628F45B016C0162E0862EB6
:1055B00002C088248394E090B101F090B201009180
:1055C000B3011091B40181E0981629F48091C001D3
:1055D0006091C10104C08091C1016091BF0140E0B0
:1055E0000E9484230E9451198091010182FF1EC0F4
:1055F0006091BA017091BB018091BC019091BD0195
:1056000000914C0110914D0120914E0130914F01BC
:105610004091BE01E0904B010E94D90E813009F407
:10562000EFC0892D84608093010106C0EA14FB0459
:105630000C051D0508F0E4C080E00E94CE26A09273
:10564000B101B092B201C092B301D092B401809284
:10565000AA0180914C0190914D01A0914E01B09111
:105660004F018093BA019093BB01A093BC01B0930A
:10567000BD0180914B018093BE018091C101809357
:10568000A40141E0941659F48091BF018093A501D3
:105690008091C0018093A60110920901B1C0809150
:1056A000C0018093A5018091BF018093A60181E094
:1056B00080930901A5C051E6A516B10408F0A0C069
:1056C0002C153D0508F09CC08091CE010E94D91692
:1056D0008C018091CF010E94D916081B190B0A3F3B
:1056E000110508F044C08FE1809300018F2D846183
:1056F0008093010181E0F81641F46091D30170912B
:10570000D4016057754E82E007C06091D10170915D
:10571000D2016057754E83E08093090180E090E0EC
:10572000980153E0220F331F5A95E1F7000F111F24
:10573000200F311F40E050E00E94D33A960140E034
:1057400050E00E94323BC9012091D5013091D60131
:105750002817390718F020E030E004C0AC01421BE4
:10576000530B9A013093AC012093AB010FC080E240
:10577000809300018F2D84608093010151E0F51624
:1057800011F488E001C089E0809309018F2D0E9407
:10579000A229809102018160809302019091C10150
:1057A0009093A40181E0F81639F48091BF018093B1
:1057B000A5018091C00106C08091C0018093A50120
:1057C0008091BF018093A601892F6091A60140E0DE
:1057D0000E94842380914C0190914D01A0914E0133
:1057E000B0914F018093BA019093BB01A093BC018B
:1057F000B093BD0180914B018093BE010E9451196D
:10580000CDB7DEB7ECE00C94913BA0E0B0E0EBE06C
:10581000FCE20C94733BA8950E94AB1980910001A7
:10582000813009F4F3C018B88091CC0187B9809118
:10583000CE010E94D916782E692E8091C80184B9B4
:1058400085B98091C70161E10E94F0178091CE0176
:105850000E944A17982E892E8091C50184B985B976
:105860008091C70161E10E94F0178091CE010E94F2
:105870004A175C018091CF010E94D9168C010E94C9
:10588000AB1980910001813009F4C0C018B8809133
:10589000CC0187B98091CE010E94D9166C0117B84E
:1058A0008091CB0188B987B915B88091C90184B9B5
:1058B0008091C70160E10E94F0178091CE010E94A3
:1058C0004A17EC018091CF010E94D916C817D90759
:1058D00018F4EE24FF2403C07E01E81AF90AE5015A
:1058E000C01BD10B8091C60184B98091C70160E1D2
:1058F0000E94F0178091CE010E944A178C0180917E
:10590000CF010E94D916081B190B17B80C171D07D9
:1059100068F4AE01401B510B8E01292D382DC901B1
:105920007C01272D362DC9016C0103C0A8014C1B39
:105930005D0B495E534008F069C086E0E816F1044B
:1059400008F464C0CE14DF0420F4C7018C199D094B
:1059500003C0C6018E199F0923E0C216D10420F0AE
:105960008436910508F452C088E2E816F10450F537
:1059700015B88091C60184B98091CB0188B987B9E7
:105980008091CF010E944A17EC018091C50184B932
:105990008091CC0188B987B98091CE010E944A17C5
:1059A000FC01CE0164E170E00E940B3B9B01CE0143
:1059B000861B970B8E179F0728F42C0F3D1FE217AD
:1059C000F30720F1C8018759904089589141F0F4BC
:1059D00080910001882311F08A3019F484E18093CA
:1059E000000190910501E6E09E9FF0011124ED5821
:1059F000FE4F8091BF0180838091C001818313831A
:105A00000283F582E4829F5F90930501CDB7DEB7F4
:105A1000EEE00C948F3B8F929F92AF92BF92DF92F9
:105A2000EF92FF920F931F93CF93DF934C01162FAA
:105A3000009709F4EDC00E94AB19809100018130FC
:105A400009F4E6C015B818B8012F10E0A1E0AA2E9D
:105A5000B12CA022B12200FF06C08091C60184B9FA
:105A60008091CB0106C014B88091CC019091CB01FC
:105A7000892B87B987E080937A0080E480937B004C
:105A80008091CF01806C80937C0084E480BF0E9471
:105A9000BF3AA89510928000109281001092850064
:105AA0001092840087E286BBE801C470D07002FFC8
:105AB0000EC08091CB0188B984E181500000882319
:105AC000E1F78091810081608093810008C080911E
:105AD00081008160809381008091CB0188B960E072
