:100000000C945C050C9479050C9479050C94790595
:100010000C9479050C9479050C9479050C940B13C8
:100020000C9479050C9479050C9479050C94790558
:100030000C9479050C9479050C9422370C9479056D
:100040000C9479050C9479050C9479050C94790538
:100050000C9479050C9479050C9479050C94790528
:100060000C9479050C9479056B126D12701276124E
:1000700078127C127F128212C612C612C612C612E3
:100080008512C612C6128812C612C612C612C6122F
:100090008B12C6128E129112C612C612C61294127A
:1000A00097129A12C612C6129D12A012C612C6123A
:1000B000C612A312C612A612A91200000000000068
:1000C0000000087F3E1C087F7F08087F7F081C3ED9
:1000D0007F08087F7F00007F7F084C5E7202725E9F
:1000E0004C00C07E3E201E3E2000087F4141414121
:1000F00041414141414141417F087D7E1311137EC1
:100100007D001D3E6341633E1D003F7F4140417FB6
:100110003F00FFFF4949497F3600317A4A4A7E3D18
:100120004000183D6642663D18003E7E4140217EFB
:100130007E00000002050200000000000000000038
:10014000000000066F6F06000000000B0700000BA8
:100150000700367F7F367F7F3600042E2A6B2A3ACF
:1001600010006373381C0E676300367F49793B6A61
:1001700048000000070B0000000000001C3E634127
:100180000000000041633E1C000000150A1F1F0A0A
:1001900015000018187E7E1818000000B0700000CE
:1001A0000000080808080808080000006060000057
:1001B00000006070381C0E0703001C3E6341633E64
:1001C0001C0000427F7F4000000062735159494F7C
:1001D00046002263414949773600181C16137F7F79
:1001E000100027674545457D38003C7E4B494979DD
:1001F0003000030371790D070300367F4949497FB9
:100200003600064F4949693F1E000000006666003F
:100210000000000000A66600000000081C36630015
:1002200000003636363636363600004163361C0856
:1002300000000203696D070600003E635D555D6BBB
:100240002E007C7E1311137E7C007F7F4949497FFD
:1002500036001C3E6341416322007F7F4141633E83
:100260001C007F7F4949494941007F7F09090909ED
:1002700001001C3E6341497979007F7F0808087FAF
:100280007F000000417F7F41000030704040407F90
:100290003F007F7F183C366341007F7F40404040F5
:1002A00040007F7F0E1C0E7F7F007F7F0E1C387FFB
:1002B0007F001C3E6341633E1C007F7F1111111FB4
:1002C0000E003E7F4151713F5E007F7F0919396FFB
:1002D0004600266F4949497B32000001017F7F01BA
:1002E00001003F7F4040407F3F000F1F3870381FA4
:1002F0000F003F7F4038407F3F0063773E1C3E77D2
:10030000630000070F78780F07006171795D4F4730
:100310004300007F7F414100000003070E1C38703E
:1003200060000041417F7F000000080C0603060CBE
:10033000080080808080808080000000070B000023
:100340000000307A4A4A7E3C40007F7F4442627E11
:100350003C00183C6642426624003C7E4242447F98
:100360007F003C7E4A4A4A6E2C0000087E7F090AC4
:1003700000001C3EA2A292FE7C007F7F0402027E4F
:100380007C000000487B7B4000000040C088FB7B75
:100390000000007F7F08346642000000017F7F007C
:1003A00000007E7E027E047E7C007E7E0402067C4F
:1003B0007800183C6642663C1800FEFE2242427EEF
:1003C0003C003C7E424222FEFE007E7E0402020E83
:1003D0000C00246E4A4A4A7A300004043F7F446489
:1003E00020003E7E4040207E7E000E1E3060301E8B
:1003F0000E003E7E4030407E3E0062761C081C7639
:1004000062001E3EA0A090FE7E004262725A4E46DE
:100410000000083E7741410000000000007F7F009F
:10042000000000004141773E08001C1C1C7F3E1C60
:100430000800FFBD8080BFFFFFFF9D8CAEA6B6B059
:10044000B9FFDD9CBEB6B688C9FFFFBD99E7E79945
:10045000BDFF7E424242424242427E425A5A5A5A6C
:100460005A424242424242427E185A5A5A5A5A42CA
:100470007E18FF010203040506076F707172737422
:100480007576FFFFFFFFFFFFFFFFFFFFFFFFFFFF8F
:10049000FFFF101112131415161718191A1B1C1D23
:1004A0001E1F202122232425262728292A2B2C2DF4
:1004B0002E2F303132333435363738393A3B3C3DE4
:1004C0003E3F404142434445464748494A4B4C4DD4
:1004D0004E4F505152535455565758595A5B5C5DC4
:1004E0005E5F606162636465666768696A6B6C6DB4
:1004F0006EFFFFFFFFFFFFFFFFFFFFFFFFFFFFFF9D
:10050000FFFFFFFFFFFFFFFFFFFFFFFFFFFFFFFFFB
:10051000FFFFFFFFFFFFFFFFFFFFFFFFFFFFFFFFEB
:10052000FFFF0FFFFFFFFF05FFFFFFFFFFFFFFFFC5
:10053000FFFFFFFFFFFF08FFFFFFFFFFFFFFFFFFC2
:10054000FFFFFFFFFFFFFFFF09FFFFFFFFFF0AFFA6
:10055000FF0BFFFFFFFF0CFFFFFFFFFFFFFFFFFF92
:10056000FFFFFFFFFFFFFFFF0DFFFFFFFFFF0EFF7E
:10057000FFFF000000000000000000E0E0000000BD
:100580008040201F007C8282820000C84848880882
:10059000080808FFFF14224180C00000000000008E
:1005A0000000001F12120D000000000303000001F4
:1005B0000101027C007F4949410000000000000069
:1005C000000000E0E0000000E0C0A01F00FE9292EA
:1005D000820000C848488808080808FFFF14224124
:1005E00080000000000000000000001F12120D003B
:1005F00000000003030000000001027C003E4141B6
:10060000410000008080000000C0C000E0E04040E9
:100610004040407F00FE82827C00001F202819009D
:1006200000FFFF009C9C08081C3E08F8000000002A
:1006300000000001010101010101010003030101AA
:100640000101017F002649493200004040404040FE
:1006500040C0C000E0E04040404040FF004C92926B
:100660006400007C82A2640000FFFF009C9C0808DC
:100670003E1C080F00000000000000000000000009
:1006800000010100030301010101017F007F4141DD
:100690003E0000008080000000C0C000E0E040405C
:1006A0004040407F00FE82827C00001F202819000D
:1006B00000FFFF00FFFF08081C3E08F800000000D4
:1006C000000000010101010101010100030301011A
:1006D0000101017F0026494932000040404040406E
:1006E00040C0C000E0E04040404040FF004C9292DB
:1006F0006400007C82A2640000FFFF00FFFF080886
:100700003E1C080F00000000000000000000000078
:1007100000010100030301010101017F007F41414C
:100720003E0000804040800000000000E0E080804B
:10073000808080FF00FE82827C00008F90948C80FD
:10074000E0C08080FFFF808080808080000000000B
:10075000000000000000000003010000030300008F
:100760000000007F002649493200008080808080A0
:10077000C0E08080E0E08080808080FF004C92922A
:10078000640000F80444C80001030000FFFF8080FB
:100790008080808000000000000000000101000057
:1007A00000000000030300000000007F007F4141C3
:1007B0003E0000000000000000808000E0E000003B
:1007C0000080403F007C8282820000884848880880
:1007D00008FFFF00FFFF14A2C1E0000000000000BE
:1007E0000000000F10140C000000000003030000C4
:1007F0000000017E007F4949410000000000000028
:1008000000808000E0E00000C080403F00FE929247
:10081000820000884848880808FFFF00FFFF142274
:1008200041810100000000000000000F10140C00C6
:1008300000000000030300000000017E003E414173
:100840004100000000000000000000000000FF0068
:10085000007C12127C000000000000F00848D0006C
:1008600000C1C3C7CFDFFFDFCFC7C3C10000000097
:1008700000000008090908080808080402017F00B0
:10088000003C42424200000000000000000000C0A6
:10089000C0C0C0C0C0C0C0FFC0C0CFC0CFC0C0C0FB
:1008A0000000E01090A00080E0F8FEFFFEF8E0807D
:1008B000838FBFFFBF8F83800000111212111011B0
:1008C000110905030101017F010101790101010104
:1008D0000000001090901010101010204080FF00B9
:1008E000007C12127C0000000000000F10140D00AC
:1008F00000C1C3C7CFDFFFDFCFC7C3C10000000007
:1009000000000000000000000000000000007F0068
:10091000003C424242000000000000404040408055
:1009200000000000E0E08080808080FF003E003E0C
:10093000000000FE9292820005060708FFFF8080FB
:1009400080808080000000000000000000000000A7
:1009500000000000030300000000007F00003E00D4
:1009600000000000000000000000C0C06060606087
:10097000C0C00000000000000000000000000000F7
:100980000007070080C0E070381F0700000000006B
:1009900000000000000000000000000073737300FE
:1009A0000000000000000000000000000000000047
:1009B000C00000000000FE003E08142200000000FD
:1009C000000000000000000081C1E1F1F9FDFFFD21
:1009D000F9F1E1C187000000000000000000000004
:1009E0000000000000007F00781414780000000070
:1009F0000000000000000000000000000000FE00F9
:100A00000000000000000000000000000000003CAA
:100A10003CBDBDBDBDBDBDBDBDBDBDBD3C3C000003
:100A200000000000000000000000000000007F0047
:100A30000000000000000000000000C040408000F6
:100A4000E02020705050505070242E2420FE0000D2
:100A500000000017141413101F1010FF01010101F2
:100A600001FF848484870000000000000000000073
:100A7000000000030202020202232020007F000087
:100A80000000050A0605060A050A0609060A050AFF
:100A90000609060A050A0609060A050A0605060ADF
:100AA000050A06050A06090A06090A0600000000EA
:100AB0000000000000110A0611241FBECFEFD8E08D
:100AC000DEBFCDBF11E0A0E0B1E0E4EDFDE702C084
:100AD00005900D92A030B107D9F711E0A0E0B1E088
:100AE00001C01D92AA3FB107E1F70E94040C0C94CB
:100AF000E83E0C940000982F8091AA01981719F4F1
:100B00008091AD0108958091AB01981719F48091FF
:100B1000AE0108958091AF0108950E94453D81E0A6
:100B20000E940B1C85EF90E00E94471DF89488E11D
:100B30000FB6F89480936000109260000FBE589832
:100B400083B7817F846083BF83B7816083BF8895CB
:100B500083B78E7F83BF089582E00E940B1C8FE5D0
:100B600090E00E94471D8EE690E00E94971E8EE066
:100B70008093090183E00E94481E8091A9018F5F44
:100B80008093A9010895CF93DF9388EC80939F0110
:100B900085E00E943818EC018B5C9840835F91409F
:100BA000C8F46091A4017091A50180E090E022EC6E
:100BB00039E040E050E00E94983D9E0140E050E066
:100BC0000E94F73D3093A5012093A40180919D01DF
:100BD000846003C080919D018B7F80939D018EE096
:100BE0000E9438189093A3018093A20188EC80930F
:100BF0009F018EE00E9438182091E801332727FDDD
:100C00003095280F391F3093A3012093A20189E169
:100C100080939F01DF91CF9108950E94E11C809104
:100C2000010182FF03C08FEE91E002C084EF91E0EA
:100C30000E94381D08950E94E11C8091010180FFEF
:100C400002C08EE401C080E50E94CA3C8BEE91E0B8
:100C50000E94381D0895EF92FF920F931F93809189
:100C6000A6019091A7012BE0883B920718F48CE035
:100C70001EE010C02CE0843E920710F01FE001C07F
:100C80001EE08153914128F08FEF90E00E94381DC3
:100C900006C08DE00E94CA3C812F0E94CA3C0E947F
:100CA000E11C8091A6019091A7016AE070E00E948A
:100CB000D03D80E090E04EEF26E50E94181C80E0D9
:100CC0000E943818A0E0B0E0BC01CD012EEB3FE05F
:100CD00040E050E00E94983D7B018C010E94231E61
:100CE0000E94231E8AEF90E00E94381D0E94E11CA2
:100CF000C801B70128EE33E040E050E00E94F73D24
:100D0000DA01C9016AE070E00E94D03D80E090E025
:100D10004EEF26E50E94181C1F910F91FF90EF9057
:100D2000089586E00E943818A0E0B0E0BC01CD0133
:100D30002EEB3FE040E050E00E94983D28EE33E08B
:100D400040E050E00E94F73D81E12133380718F080
:100D50002A563F4F02C0215E3F4F3093A701209398
:100D6000A60184E68093A801285B3B4050F40E94D2
:100D7000453D0E942B0688EB9BE00E94C8120E9412
:100D80008D050895FC018181608140E00E947325FA
:100D900060914C0170914D0180914E0190914F01F5
:100DA00040914B0126E40E94181C08951F93162FB2
:100DB0000E94CA3C82EA92E00E94381D812F0E9464
:100DC000CA3C0E94E11C60910E0170910F0180915C
:100DD00010019091110140910D0124E00E94181C16
:100DE0001F9108951F93162F0E94E51C81E00E9419
:100DF000CA3C812F0E94E51C1F9108950F931F93F9
:100E0000CF93DF938091010180FF05C00091AC0179
:100E10001091AB0104C00091AB011091AC01802F87
:100E2000612F0E949327EC01009731F00E94E11C92
:100E3000802F612F0E94F2068091010183FD50C036
:100E40008091B3019091B401892B81F081E292E00D
:100E50000E94891E6091B3017091B401882777FDCB
:100E60008095982F4DEF26E50E94BD1C8EEF91E0F6
:100E70000E94891E6091C4017091C5018091C601D4
:100E80009091C7014091C80126E40E94181C8091EE
:100E9000B1019091B201892B71F083E792E00E9439
:100EA000891E6091B1017091B20180E090E04EEF37
:100EB00024E00E94181C209799F00E94231E81E0D4
:100EC0000E94CA3C0E94E11C8CE192E00E94701DCD
:100ED0006A817B8180E090E04DEF26E50E94181C3E
:100EE000DF91CF911F910F91089580E00E94EA1C3D
:100EF00081E00E94EA1C82E00E94EA1C8DE30E94CD
:100F0000CA3C80E00E94E51C81E00E94E51C82E072
:100F10000E94E51C089581EF90E00E94381D0E9418
:100F2000231E0E94750789E292E00E94891E60914B
:100F30003B0170913C0180E090E04DEF26E50E947E
:100F4000181C8CE192E00E94891E60913901709119
:100F50003A0180E090E04DEF26E50E94181C0895CC
:100F600080910001823219F487EE90E002C08BEE8E
:100F700090E00E94381D0E94231E0E9475078091F8
:100F8000B1019091B201892B71F082E192E00E944F
:100F9000891E6091B1017091B20180E090E04DEF47
:100FA00026E50E94181C089589EF91E00E94381DE3
:100FB0000E941B060E940D060E94231E0E947507B8
:100FC0000E94FE060895EF920F931F93CF93DF9335
:100FD000EC016091BF017091C0018091C1019091BD
:100FE000C2014091C30102E310E020E030E057EF7E
:100FF000E52E0E94340E87FD10C0CE010E94891E8E
:101000006091BF017091C0018091C1019091C201B6
:101010004091C30121E40E94181CDF91CF911F91E0
:101020000F91EF9008958091010184FF05C083EE38
:1010300091E00E94381D03C08AE40E94CA3C87EEFA
:1010400091E00E94381D0E941B068091010184FFDF
:1010500002C00E940D060E94231E0E947507809107
:10106000010184FF02C00E94FE068091010183FFFE
:101070001EC08AE692E00E94E3078091B50190913C
:10108000B601892BA1F087E792E00E94891E0E9499
:10109000231E0E94E11C6091B5017091B601882762
:1010A00077FD8095982F4DEF26E50E94BD1C089591
:1010B000A0E0B0E0EEE5F8E00C943C3E8091010148
:1010C00080FF0CC0C2E0D2E0E090AA01F090AC0139
:1010D0000091AB01A02E1F2DBE2C0BC0C6E0D2E0AC
:1010E000E090AC01F090AA011091AB01AF2C0E2D55
:1010F000B12E83EE90E00E94701DCE010E94381D3B
:101100008091010182FF03C08BE20E94CA3C0E94D1
:10111000231E0E947507812F602F0E949327EC01E8
:10112000009731F00E94E11C812F602F0E94F2068F
:101130008F2D6E2D49E10E94D121813049F40E940A
:10114000231E82E465E40E94D60684E08093260193
:101150008AE092E00E94891E6091B7017091B80107
:101160008091B9019091BA0140E020E00E94181CE2
:101170000E94E11C8091B00180FF02C085E603C09F
:1011800081FF03C083E60E94CA3C81E892E00E948E
:10119000A21E8091B00180FF02C083E403C081FFE2
:1011A00003C085E40E94CA3C0E94E11C6091B50125
:1011B0007091B601882777FD8095982F4AEF21E43A
:1011C0000E94BD1CCD2BE1F48091BB019091BC012C
:1011D000A091BD01B091BE010097A105B10581F0BC
:1011E00084E892E00E94891E6091BB017091BC016D
:1011F0008091BD019091BE0140E020E00E94181C4A
:101200008E2D6F2D0E949327EC01009719F400E0BA
:1012100010E030C08EE092E00E94891E0A811B819E
:101220002C813D81C090B701D090B801E090B90108
:10123000F090BA0144E6C416D104E104F10498F038
:10124000C801821B930B63E070E00E94E43D4AEF0B
:10125000C416D104E104F10418F4061B170B03C0F3
:101260008B01020F131FB80180E090E04DEF26E5DF
:101270000E94181C87E192E00E94E30781E0053F8D
:101280001807E0F08B2D6A2D0E949327EC01009740
:10129000A9F08A819B81825C914080F40E94231E88
:1012A0008B2D6A2D0E94F2060E94E11C6A817B81CF
:1012B00080E090E04DEF26E50E94181CCDB7DEB728
:1012C000EAE00C94583EA1E0B0E0E9E6F9E00C94C5
:1012D0003C3E80910501813059F4F0907A0169E734
:1012E000A62E61E0B62E00E010E055E0E52E21C10B
:1012F000823039F510917901D0907F011D1549F4A4
:10130000C0907A01D090800181E0898345E0F42E7D
:1013100052C0F0907A0180918001F81659F4C12EE4
:1013200039E7A32E31E0B32E85010A5F1F4F25E078
:10133000E22E03C1181709F0F1C0FD1409F0EEC048
:1013400034C0833041F520E046E0249F5001112451
:10135000E9E7F1E0AE0EBF1E30E0349F80011124BA
:1013600007581E4F231741F0F5019181F801808144
:10137000981711F425E035E03F5F333070F32F5FAD
:10138000233018F3253010F400E010E0F501F1806F
:1013900093E0E92ECEC08AE992E00E94701D809110
:1013A0000501805D0E94CA3CCBC0F12E198285E008
:1013B000C82E05E0D02E1330A0F480917A010E944F
:1013C000EA1C8EE992E00E94381D812F0E94EA1CDF
:1013D000E12E19E7A12E11E0B12E85010A5F1F4F02
:1013E00016C0E12EB9E7AB2EB1E0BB2E85010A5F36
:1013F0001F4FF50180810E94EA1C8AE992E00E9459
:10140000381D8F2D0E94EA1C0115110599F0EF146B
:1014100041F0F3E0FE1528F0F801F1808AE992E04E
:1014200004C0F801F0808EE992E00E94381D8F2DF3
:101430000E94EA1CF4E0FC1500F18C2D6D2D49E1B1
:101440000E94D1218130C9F40E94E11C82E08E15F6
:1014500018F086E092E002C082E092E00E94381D1F
:101460008FE30E94CA3C0E94231E91E3D90E8C2D6B
:101470008F5C6D2D0E94D60619828CE192E00E944D
:10148000891EF5016281738180E090E04DEF26E5D1
:101490000E94181C0E94E11C0115110519F5F501A7
:1014A000848195818A3F910578F488E20E94CA3C44
:1014B000F5016481758180E090E040E020E00E94C9
:1014C000181C89E20E94CA3CF5018181608140E0DC
:1014D0000E94731981E00E94142985E292E00E9423
:1014E000E30709C0F8016281738180E090E04DEF6D
:1014F00026E50E94181CF981F13011F58FE192E088
:101500000E94891EC5010E94C20601151105C1F085
:101510000E94E11CC8010E94C20612C0A9E7AA2EBF
:10152000A1E0BA2E85010A5F1F4FF5E0EF2EE5E03E
:10153000FE2E75E0C72E65E0D62E81E0898359CF57
:101540002196EAE00C94583EEF920F931F93CF93AD
:10155000DF9360915C0170915D0180915E019091DB
:101560005F0100914C0110914D0120914E0130918D
:101570004F0140915B01E0904B010E94340E81309D
:1015800019F4C9E5D1E002C0C9E4D1E060916C0171
:1015900070916D0180916E0190916F010B811C81A2
:1015A0002D813E8140916B01EA800E94340E813092
:1015B00011F4C9E6D1E088810E94EA1C86E992E034
:1015C0000E94381D89810E94EA1C0E94231E6B81A3
:1015D0007C818D819E814A8126E40E94181CCE0167
:1015E0000E9403268C018FEF0F3F180749F00E94DD
:1015F000E11CB80180E090E04EEF24E00E94181C4E
:101600008B859C85892B61F08FE692E00E94891E74
:101610006B857C8580E090E04D8521E40E94181C5C
:101620008E859F85892B61F082E992E00E94891E58
:101630006E857F8580E090E04FEF25E20E94181CC8
:10164000DF91CF911F910F91EF900895A0E0B0E04E
:10165000ECE2FBE00C943F3E80910401813039F4D0
:10166000D0900B010BE011E0EE24FF245CC083302E
:1016700031F00BE011E0F7E0EF2EF12C47C0609164
:101680001501709116018091170190911801009138
:101690000E0110910F012091100130911101409124
:1016A0001401E0900D010E94340E813019F4C2E162
:1016B000D1E002C0CBE0D1E060911C0170911D012E
:1016C00080911E0190911F010B811C812D813E8113
:1016D00040911B01EA800E94340E813011F4C9E16F
:1016E000D1E081E0CB30D80721F48E01095F1F4F94
:1016F00002C00BE011E0E7E0EE2EF12CE00EF11E4F
:10170000EC16FD0629F47EE0E72EF12CE00EF11E2A
:10171000F801D080F7018081D81629F08181D81690
:1017200011F0F801D180F80180818D1511F4F801D4
:1017300081810E94EA1C82EA92E00E94381D8D2D70
:101740000E94EA1CE114F10461F082EA92E00E9436
:10175000381DF70180818D1511F4F70181810E94F8
:10176000EA1C0E94231EF8016381748185819681A1
:10177000428124E00E94181CE114F10451F00E94FF
:10178000E11CF7016381748185819681428124E0A7
:1017900012C0C8010E94A130813079F40E94E11C7E
:1017A0006091F1017091F2018091F3019091F40147
:1017B0004091F00128E40E94181CCDB7DEB7E7E0A5
:1017C0000C945B3E809101018130C9F485EC90E07E
:1017D0000E94381D0E94231E809106010E94EA1C6F
:1017E0000E94B51C0E94E11C6091070170910801E4
:1017F00080E090E04DEF26E50E94181C08958230AD
:1018000011F40E94AC050895FF920F931F93CF939C
:10181000DF9391E09AB99BB980E185BF87E8809317
:101820007A0014B7187084B7877F84BF88E10FB639
:10183000F89480936000109260000FBE90939D0119
:1018400082E080939E010E94A33B0E94083C1123EA
:1018500099F00E94453D82E00E940B1C87E590E0D4
:101860000E94471D8EEC90E00E94971E80ED97E04D
:101870000E94C812589899C14B9B02C010E00FC03B
:1018800084E190E00E94C8124B9905C01F5F153695
:10189000B9F713E092C1103108F08EC111E08091C8
:1018A0009D0180FF05C080919E01806280939E0112
:1018B0000E94533D109220015C98549A5D98559A6D
:1018C000133019F40E941A1304C081E061E00E94F1
:1018D000EE178091EA010E94603C84E00E940B1C9C
:1018E0008AE290E00E94471D0E94231E8BE390E055
:1018F0000E94971E8AED91E00E94971E8CED95E064
:101900000E94C8121092A90189E180939F0181E091
:101910008093A0018093A10185E893E19093A501B4
:101920008093A4012FE088E190E00FB6F894A89589
:10193000809360000FBE209360007894FF24F3949E
:1019400013E002E0C2E3D1E0109200011092010125
:1019500010920201109203011092050110920401ED
:101960001092B0011092B2011092B1011092B40124
:101970001092B3011092B6011092B5011092B70106
:101980001092B8011092B9011092BA011092BB01E5
:101990001092BC011092BD011092BE011092BF01C5
:1019A0001092C0011092C1011092C20110923A012E
:1019B0001092390110923C0110923B0110922B01C0
:1019C000F0922D011093260117B8009320010E9478
:1019D000453D0E94C3050E9491060E942B0681E0AE
:1019E0000E940B1C0E94231E0E94231E8091230133
:1019F0008150809323018CE490E00E94471D8091E8
:101A000023018F5F809323010E940A1B80910001B4
:101A10008130E1F180E061E042E00E94EC1981E078
:101A200060E042E00E94EC1980E062E041E00E9448
:101A3000EC1982E060E041E00E94EC1981E062E094
:101A400040E00E94EC1982E061E040E00E94EC1965
:101A50000E94C4180E945F2780910001882311F022
:101A60008A30A1F40E94E11C83E40E94CA3C82E017
:101A700060E040E00E94732582E061E041E00E9466
:101A8000732581E060E042E00E9473250E94453D9D
:101A9000109320015C9A84E190E00E94C8125C9847
:101AA000809100018E3111F18F3160F48A3069F13B
:101AB0008B3018F4813079F513C08B3049F18431C3
:101AC00051F511C08132D9F0823228F48F3189F07A
:101AD000803209F511C0823291F08332E1F412C0F4
:101AE0000E94E20B1AC00E94630917C00E945808A6
:101AF00014C00E94130811C00E94D4070EC00E9497
:101B0000B0070BC00E948B0708C00E94260B05C0BF
:101B10000E94A40A02C00E94AC05809100018E318F
:101B200030F080912601882311F00E94481E809198
:101B300000018A3010F01092A901109220010E9439
:101B40000D1ED0933301C093320188EB9BE06EE30E
:101B50000E94450F882329F48091A901853018F54A
:101B6000F3CE833031F08230F1F0853011F08536DC
:101B7000B9F480919D0180FF05C080919E018F7D09
:101B800080939E010E945E128936E1F780919D014B
:101B900080FFD3CF80919E01806280939E01CDCF44
:101BA000873609F0D1CE0E948D0580E090E0CDB758
:101BB000DEB7E5E00C945D3E12E080919D018E7FE2
:101BC00080939D016CCEAF92BF92CF92DF92FF9235
:101BD0000F931F93DF93CF9300D00F92CDB7DEB753
:101BE00089836A834B836E010894C11CD11C8601D2
:101BF000A4E0AA2EB12CAC0EBD1E802F8C19F801CA
:101C0000F080FF2049F00E94EA1C0E94B51C8F2D35
:101C10000E94CA3C0E94E11C0F5F1F4F0A151B0562
:101C200061F70F900F900F90CF91DF911F910F915F
:101C3000FF90DF90CF90BF90AF9008951F9311E079
:101C40000BC02AE030E040E050E00E94F73DC901BF
:101C5000DA01BC01CD011F5F6A3071058105910574
:101C600080F7812F1F9108956F927F928F929F929C
:101C7000AF92BF92CF92DF92EF92FF920F931F939A
:101C80003B014C01F42E580169010E2D0E941E0EDD
:101C9000182FC601B5010E941E0E61147104810443
:101CA000910491F1A114B104C104D10431F1EF2CDC
:101CB000E10E800F8E1534F1E81669F51E2D1F19FF
:101CC000E01A0BC0C601B5012AE030E040E050E068
:101CD0000E94983D5B016C01E394E1169CF30BC0FC
:101CE000C401B3012AE030E040E050E00E94983D9A
:101CF0003B014C011F5F1E159CF3A614B704C804DA
:101D0000D90410F481E008C06A147B048C049D049B
:101D100010F080E001C08FEF1F910F91FF90EF90C6
:101D2000DF90CF90BF90AF909F908F907F906F90FB
:101D300008950F931F93142F022F9B01AC0117C01E
:101D4000101754F4B901CA012AE030E040E050E035
:101D50000E94F73D1F5F0BC0B901CA012AE030E0C5
:101D600040E050E00E94983D9B01AC0111501017DB
:101D700039F7B901CA011F910F910895681721F42D
:101D80008AE20E94CA3C08950E94E11C089503C0A3
:101D90000E947F3DA8954B9BFBCF84EF91E00E9472
:101DA000C81208951F931AB18AB1897F8AB90E9417
:101DB000853D89B182FD02C030E001C032E081FD85
:101DC00031601AB980912F01813031F430932E01A6
:101DD00010922F011092310180913101882329F056
:101DE0008A3F18F48F5F8093310120912E01309348
:101DF0002E01231779F1832F822780FF869581306A
:101E000031F5220F82E790E002C0959587952A95DB
:101E1000E2F78370831711F095E001C094E08091A0
:101E200030018F5F8093300180912F01981729F046
:101E300081E0809330018093310190932F01809154
:101E40003001843038F010923001892F04C081E0D5
:101E500080932F0180E01F9108950F931F93CF93DC
:101E6000DF93082F282F392FE90101C02196CE01D9
:101E7000801B182FCE010E94AC3E8823B9F7812F1A
:101E8000DF91CF911F910F910895A3E0B0E0EBE4B3
:101E9000FFE00C94343E5C01162F81E080932F010B
:101EA0001092300180932C0180919E0185FF04C027
:101EB00068E7C62ED12C02C0CC24DD2412FF08C056
:101EC00080919D0180FF03C0AA24BB2401C01C7F18
:101ED00015FF1BC080913201909133010E942D0F9C
:101EE000982F915080912301981778F4882E891AA1
:101EF0001C7F882D609124010E94863C80913201D4
:101F0000909133010E94381D01C08824812F90E0F8
:101F10009B838A833C0193E06922772461147104D6
:101F200009F4C9C081E00E94093DC5C0A114B104F3
:101F300051F0E3E0AE16B10410F400E004C08EEFFF
:101F40009FEFA80EB91E4B993CC08EE190E00E9415
:101F5000C81210E009C04B9909C01F5F1B3130F453
:101F60008AE090E00E94C8120023A9F71B3118F004
:101F700052E0F52E24C0EA81FB81EF2B19F4FF24F7
:101F8000F3941DC082E390E00E94C812FF24F394F2
:101F900014E14B990DC08EE190E00E94C8124B995C
:101FA00007C088EC90E00E94C81243E0F42E11E0D4
:101FB00011508AE090E00E94C812112351F700E00E
:101FC00070C00E94D20E882371F1EE2011F4F82E19
:101FD00003C08F1509F08BC0E394809131016E2D01
:101FE0000E94B73D282FF8E18F9FC001112434E0F3
:101FF000969587953A95E1F7893208F088E2982F0F
:10200000969596959695933010F433E039838981AF
:10201000E81621F09CE0990E920E05C087E0891B1E
:1020200080932C0164C0EE2029F080913101891544
:1020300008F05DC082E090E00E94C8121F5F812F0F
:1020400068E20E94B73D992369F48091A80182302B
:1020500020F081508093A80105C04114510411F073
:102060000E949106183CE9F42114310459F0013022
:1020700029F480E00E94093D02E004C081E00E9452
:10208000093D01E0C114D10459F0E2E0CE16D104BB
:1020900020F497E6F92E00E003C00894C108D108A7
:1020A00010E080919E0180FF1FC080919E018E7F75
:1020B00080939E011CC0FF2401E010E082E3982E73
:1020C000EE24F2E0F9832A803B8032E0232233249D
:1020D0004A805B8080E148225524EA81FB81E870D8
:1020E000F070FB83EA8322CF002309F01FCF611435
:1020F000710419F080E00E94093D882041F0882D8C
:10210000609124010E94863C80E00E94183DF0927C
:102110002B01F7E6FF1611F40E948D058F2D2396F3
:10212000E2E10C94503EA0E0B0E0E9E9F0E10C946B
:10213000353E182F362E3A014901C82ECA94D09048
:102140002401DA940E94B51CFF24EE2402E04D2CF9
:102150004A94512EBC2CBD18B394A02EAD1881E02A
:10216000D81611F40F5FEF2CCE2DD0E0CC0FDD1F71
:10217000C60DD71D10E030C0612F6E5F81E00E9458
:10218000863C81E0D81629F0812F8E0D6F2D0E949C
:10219000BE0E0230E0F081E0381629F48881998182
:1021A0000E94381D0BC0CE010E94B43EA0E0B0E0FA
:1021B000BC01CD0140E020E00E94181C8114910474
:1021C00019F0C4010E94381D80E00E94183D1F5F75
:1021D000C11608F41D2D22961D1570F281E0D81647
:1021E00049F480912301609124010E94863C8CE394
:1021F0000E94CA3C80E090E060E10E94450F81307F
:1022000011F41F2D3FC0843019F41F2D01E01DC0B3
:10221000853019F01F2D01E033C0FF2039F4CD14B3
:1022200008F43FC0EB2C1C2D02E039C01F2D1150CB
:102230001E15C1F5EE20B1F1FD1410F4EE2401C01D
:10224000EA0C81E0F816D1F402E01C1531F41D15FA
:1022500008F00F5F10E0EE2422C0912F9F5F842DC5
:102260008E0D9817D9F49C15C8F4852D891B8D15F2
:1022700010F0E12E01C0EB2C0F5F10C08F2D02E09B
:10228000823069F40E94453D84EF91E00E94C812BB
:10229000812FCDB7DEB7E1E10C94513E192FF12E1D
:1022A0005ECF1C2D01E0FBCFAFE3B0E0EAE5F1E14A
:1022B0000C94443E8EEC91E09F8B8E8B88E2898358
:1022C00081EB91E0998F888F85E28A8386EA91E09D
:1022D0009B8F8A8F81E28B838EE391E09D8F8C8F21
:1022E00086E08C8382E491E09F8F8E8F87E08D83E0
:1022F0008EE491E099A388A380E28E838DE691E03D
:102300009BA38AA386E18F8387E791E09DA38CA39B
:1023100087E1888781E891E09FA38EA38BE189877D
:102320008BE891E099A788A78CE18A8787E991E0FB
:102330009BA78AA78DE18B878CEB91E09DA78CA74B
:1023400087E28C8783E691E09FA78EA78FE08D8739
:1023500087E890E099AB88AB82E08E878AE591E0D0
:102360009BAB8AAB8CE08F8782E990E09DAB8CAB16
:1023700083E0888B87E990E09FAB8EAB84E0898B0C
:102380008CE990E099AF88AF85E08A8B82EA91E092
:102390009BAF8AAF84E18B8B85ED90E09DAF8CAFD6
:1023A0001C8A0E94453D8BE790E00E94381D84E125
:1023B00061E0AE014A5E5F4F20E030E00E94931082
:1023C000FE01E80FF11D8181EF96E2E00C94603E82
:1023D000A9E0B0E0EEEEF1E10C94433E182F84E664
:1023E00092E09D838C8387E692E09F838E8385EDC8
:1023F00090E0998788870E94453D123019F482E960
:1024000090E002C087E990E00E94381D83E061E01F
:10241000AE014C5F5F4F20E030E00E94931091E0EE
:10242000998392E09A831B82FE01E80FF11D61817E
:10243000662319F0812F0E94EE172996E3E00C9491
:102440005F3E0F931F93CF93DF93082F882321F4D0
:10245000C8EAD0E010E003C0CFEAD0E013E00E9469
:10246000EC1A8117A1F00E94453D82E00E940B1CEE
:10247000CE010E94471D86EB90E00E94971E0E94AD
:10248000EC1A811731F488EC90E00E94C81281E0C8
:102490000AC084E690E060E10E94450F013079F7C0
:1024A000882369F380E0DF91CF911F910F91089508
:1024B00088EB9BE065E10E94450F08951F930E9401
:1024C0005411E82FF0E0E932F10508F05FC0EC5C50
:1024D000FF4F0C946B3E19E64DC00E945D1302C085
:1024E0000E944615182F8823B9F142C082E001C02E
:1024F00081E00E94E8114AC00E94931447C00E94E4
:10250000F23944C00E94613741C00E94D21D3EC0D2
:102510000E946F383BC00E948D0538C00E94EC3687
:1025200035C00E94A63632C00E9470362FC00E946D
:10253000D5352CC00E948A3529C00E94453326C05B
:102540000E94353523C00E94E93120C00E94A23488
:102550001DC00E94EF311AC00E94453D81E00E94DB
:102560000B1C8EEC90E00E94471D0E9458120BC07D
:10257000893649F40E94453D81E00E940B1C85E7A5
:1025800090E00E94471D812F1F91089511E0FBCF1D
:102590001F93BC011092B1001092B20082E08093B0
:1025A000B000809370000FB607FC1FC0789410E055
:1025B0001DC0A8952F3F31054105510519F010F0B8
:1025C0009FEF01C0922F91509093B3009F5F609353
:1025D000B10002C0000000008091B1008823D1F753
:1025E000291B3109410951090CC011E080E090E03C
:1025F00024E130E040E050E00E94983D9B01AC01B6
:1026000067E0211531054105510599F6112309F4BB
:10261000F8941F9108951F920F920FB60F921124F4
:102620001092B1000F900FBE0F901F90189581501F
:10263000860F089588EC90E09093DC018093DB0195
:102640008CED90E09093DE018093DD0184E190E0D9
:102650009093E0018093DF019093E2018093E10188
:102660009093E4018093E3018BE28093E5018093F2
:10267000E6018093E7011092E8011092E9018AEFE8
:102680008093EA018DE290E0A0E0B0E08093EB015E
:102690009093EC01A093ED01B093EE010895EBED62
:1026A000F1E090E08191980F81E0EF3EF807D1F7DB
:1026B000992309F491E0892F0895A0E0B0E0E3E6C2
:1026C000F3E10C94343E81E00E942112882319F436
:1026D000BAE0DB2E02C0DD24D39488249924AA24F6
:1026E000BB24C0E0D0E0A0E26A2EF8E07F2EEAE052
:1026F0003E2E70E1272E0DC1CC24C39464E0562EEB
:1027000055E0452E0E94453D84E50E94CA3C8D2D32
:10271000805D0E94CA3C0E94E11C83E0D81609F447
:1027200062C08D1540F081E0D81689F082E0D8169D
:1027300009F0B0C022C085E0D81609F483C0D816CD
:1027400008F479C086E0D81609F0A4C08CC08EE0E9
:102750000E9438188EE00E9438187C018CE292E0CA
:102760000E94381D0E94231E00E010E0C801B7013E
:102770004DEF26E50E94181C63C081E492E00E94A0
:10278000701D8BE492E00E94381D6091A40170914D
:10279000A50180E090E020E733E040E050E00E94B7
:1027A000983D24EF36E040E050E00E94193E790168
:1027B0008A0125B884E184B983E00E94A018EC0165
:1027C000CE19DF0981E184B982E00E94A0185C0182
:1027D000AE18BF0855B844B881E00E94A0184C015B
:1027E0008E189F0857C086E492E00E94701D8BE40B
:1027F00092E00E94381D0091A4011091A501169548
:10280000079565B888E284B983E00E94A018EC01BE
:10281000C01BD10B82E284B982E00E94A0185C0147
:10282000A01AB10A75B834B881E00E94A0184C0112
:10283000801A910A2FC080E00E94211234E6C32E34
:1028400080E029C081E392E00E94381D15B864B889
:1028500081E00E94A0184C0174B882E00E94A01888
:102860005C0182E012C085E392E00E94381D65B8E9
:1028700064B881E00E94A0184C0175B874B882E079
:102880000E94A0185C0182E085B984B983E00E94AF
:10289000A018EC0181E014B815B8882309F10E9452
:1028A000231EB401882777FD8095982F40E020E013
:1028B0000E94BD1C0E94E11CB501882777FD809510
:1028C000982F40E020E00E94BD1C0E94E11CBE0148
:1028D000882777FD8095982F40E020E00E94BD1C5E
:1028E00084E6C81681F088EE93E060E10E94450F0F
:1028F000882349F0823029F424E6C22E94E6D92EAA
:1029000002C084E6C82EC39485E08C1508F0FACE88
:10291000D39486E08D1508F0EFCE81E0CDB7DEB719
:10292000E2E10C94503E81E0809320010E94453DFD
:1029300089E392E00E94701D6091DB017091DC01DF
:1029400080E090E04FEF24E00E94181C8DE392E0BD
:102950000E94891E6091DD017091DE0180E090E0AF
:102960004FEF24E00E94181C84E592E00E94891E2B
:102970006091E50170E080E090E040E020E00E949E
:10298000181C0E94E11C6091E60170E080E090E07C
:1029900040E020E00E94181C0E94E11C6091E701C9
:1029A00070E080E090E044EF26E40E94181C87E588
:1029B00092E00E94891E6091DF017091E00180E049
:1029C00090E04EEF20E00E94181C0E94E11C6091F4
:1029D000E1017091E20180E090E04EEF20E00E9482
:1029E000181C0E94231E0E94E11C6091E30170915B
:1029F000E40180E090E04EEF24E00E94181C8CE29D
:102A000092E00E94891E6091A2017091A30180E072
:102A100090E04DEF26E50E94181C8AE592E00E94A6
:102A2000891E6091A4017091A50180E090E04DEFB6
:102A300026E50E94181C80919D0182FF05C00E941E
:102A4000E11C8AE20E94CA3C8EE592E00E94891E47
:102A50006091E901772767FD7095872F972F4DEFDC
:102A600026E50E94BD1C87E191E00E94891E6091CD
:102A7000EB017091EC018091ED019091EE014DEF31
:102A800026E50E94BD1C0E9458120895A4E1B0E002
:102A9000ECE4F5E10C94343E81E00E94211288239D
:102AA00019F4FAE09F2E02C0E2E09E2EAA24BB2475
:102AB000CC24DD241C8A1B8A33241A8A198A188A9A
:102AC0001F861E861D8622241C861B861A86198652
:102AD00018861F821E821D821C821B821A82198206
:102AE000442455243201A4C10E94453D81E40E9442
:102AF000CA3C892D805D0E94CA3C0E94E11C24E0F2
:102B0000921609F461C0291540F032E0931689F05D
:102B100083E0981609F04FC150C096E0991609F469
:102B2000C6C0991608F480C0E7E09E1609F043C1BC
:102B300022C187E592E00E94701D8BE492E00E9422
:102B4000381D81E060E040E00E94731980E00E943F
:102B5000AD1E5C018639910538F42B853C85280F24
:102B6000391F3C872B87239482E060E040E00E947D
:102B7000731980E00E94AD1E6C018639910538F40E
:102B800089859A858C0D9D1D9A878987239482E07B
:102B900061E040E00E94731980E00E94AD1E9C8BB2
:102BA0008B8B8639910508F006C1EF81F885E80F17
:102BB000F91FF887EF832394FEC080E00E94211262
:102BC00074E6872E80E0F8C089E392E00E94381D09
:102BD00018B8F2E0F7B920E125B924B981E00E94E4
:102BE000A9185C0197B895B894B882E00E94A9181A
:102BF0006C0138E037B981E085B984B983E00E947F
:102C0000A9189C8B8B8BC5018C0D9D1DEC81FD81C2
:102C1000E80FF91F2B893C89E20FF31FFD83EC833A
:102C20003E813D5F3E83C7C08DE392E00E94381D28
:102C300015B882E088B987B990E194B9A090A40151
:102C4000B090A50181E00E94A918A81AB90AE4E091
:102C5000E8B9E7B9E4B9C090A401D090A50182E039
:102C60000E94A918C81AD90AF8E0F8B9F7B921E002
:102C700024B98091A4019091A5019C8B8B8B83E05A
:102C80000E94A918EB89FC89E81BF90BFC8BEB8BE4
:102C9000C5018C0D9D1D29813A81280F391F2E0FEA
:102CA0003F1F3A8329833B813D5F3B8384C084E59A
:102CB00092E00E94701D8BE492E00E94381D81E03A
:102CC00060E040E00E94732580914B01843FA9F4AD
:102CD0008091500190915101A0915201B091530106
:102CE00085369105A105B10540F45C0189899A8971
:102CF0008A0D9B1D9A8B898B339482E060E041E0C2
:102D00000E94732580915B01843FA9F4809160014A
:102D100090916101A0916201B091630185369105A6
:102D2000A105B10540F46C01EF85F889E80FF91FA2
:102D3000F88BEF87339482E061E042E00E947325D4
:102D400080916B01843FB9F5809170019091710180
:102D5000A0917201B091730185369105A105B1056D
:102D600050F59C8B8B8B2D853E85280F391F3E8718
:102D70002D87339420C087E191E00E94701D87E089
:102D80000E94A0187C0100E010E0C801B7014DEFDF
:102D900026E50E94181C8091A4019091A5019695AA
:102DA0008795A0E0B0E0480E591E6A1E7B1E4E18A3
:102DB0005F08600A710A81E017B818B814B815B82E
:102DC0008823E9F00E94231EB50180E090E040E0F6
:102DD00020E00E94181C0E94E11CB60180E090E0F7
:102DE00040E020E00E94181C0E94E11CEB89FC8955
:102DF000BF0180E090E040E020E00E94181CF4E673
:102E00008F1681F088EE93E060E10E94450F8823E1
:102E100049F0823029F454E6852E44E6942E02C00F
:102E200034E6832E839425E0281508F05DCE939434
:102E300037E0391518F088248394F5CF8FE03816E1
:102E400011F0EE241AC089899A8965E070E00E9429
:102E5000D03D6093E5018F85988965E070E00E9420
:102E6000D03D6093E6018D859E8565E070E00E940F
:102E7000D03D6093E701EE24E3949FE02916F9F436
:102E80008B859C8565E070E00E94D03D7093E001E9
:102E90006093DF0189859A8565E070E00E94D03DEE
:102EA0007093E2016093E1018F81988565E070E0A5
:102EB0000E94D03D7093E4016093E301E394EE81BE
:102EC000EF3009F070C0FB81FF3009F06CC08C81DD
:102ED0009D8165E070E00E94D03D8B0189819A81DF
:102EE00065E070E00E94D03D4B014091A4015091FB
:102EF000A501CA01880F991F840F951F801B910B94
:102F0000861B970B5C01CC24DD2420E030E0C90156
:102F1000B80120EA39E041E050E00E94983DA60166
:102F200095010E94F73DB901CA016B5F7F4F8F4F3A
:102F30009F4F2AE030E040E050E00E94F73DC90199
:102F4000DA018A3F9105A105B10528F43093DC012F
:102F50002093DB01E394B40180E090E020EA39E0C3
:102F600041E050E00E94983DA60195010E94F73D86
:102F7000B901CA016B5F7F4F8F4F9F4F2AE030E04E
:102F800040E050E00E94F73DC901DA01883121E0BC
:102F9000920720E0A20720E0B20728F49093DE0118
:102FA0008093DD01E394C301B20125E030E040E00D
:102FB00050E00E94193E2093EB013093EC014093C6
:102FC000ED015093EE010E94931480E034E0E3168B
:102FD00009F481E06496E2E10C94503EFF920F9375
:102FE0001F93CF93DF93F82E623019F405E110E0C0
:102FF00002C000E010E0CBEDD1E00E944F138093BF
:10300000EF0182E0F81629F4C80168810E94BA3EF7
:1030100004C0C8010E94AC3E888381E0CF3ED8073F
:1030200021F021960F5F1F4FECCF82E0F816D9F008
:103030000E944F139091EF019923A9F0981799F0EE
:103040000E94453D82E00E940B1C8AED90E00E94A8
:10305000471D8EEC90E00E94971E80ED97E00E9445
:10306000C8120E941A13CDB7DEB7E5E00C945D3E9E
:10307000FF920F931F93182F1F70106410937C0002
:10308000012F007C8091A101081721F00E94893D49
:103090000093A10180917A00806480937A008091EE
:1030A0007A0086FDFCCFF0909F017091A00160E056
:1030B00020E030E040E050E020C080917A00806461
:1030C00080937A0080917A0086FDFCCF8091780011
:1030D00090917900A0E0B0E0280F391F4A1F5B1FD4
:1030E000643051F484E02030380730F4003C21F0A3
:1030F000713011F4106CC2CF6F5F6F15F0F2003CAD
:1031000029F46091A2017091A30104C06091A4010F
:103110007091A50180E090E00E94983D2AE096958C
:103120008795779567952A95D1F72F2D30E040E068
:1031300050E00E94F73DC9011F910F91FF90089543
:103140001F93182F0E947E3D812F0E9438181F91D7
:1031500008951F93182F0E94803D812F0E943818D8
:103160001F9108958091C9018093CC018091CA017B
:103170008093CD018091CB018093CE01089593E09F
:10318000981B892F861B0895909103019923E1F0E4
:103190008091020180FD18C081FD04C08091000172
:1031A0008E3190F490930001809136018093AA01B2
:1031B000809137018093AB01809138018093AC01FD
:1031C00080910A01809309010895A0E0B0E0EBEE40
:1031D000F8E10C943E3EAC01613049F4EBE0F3E0E1
:1031E000C2E3D0E027E030E088EE93E018C0623020
:1031F00049F4EFEAF2E0C9E1D0E02CE230E08CE201
:1032000091E00DC0633019F020E030E047C0EDE1FF
:10321000F3E0C9E1D0E02EE130E088EC90E048171F
:10322000590718F4CC24DD2403C06A01C81AD90A4E
:10323000C601BE010E94D03D862F90E028173907B5
:1032400008F4622F062F10E0000F111F0E0F1F1F32
:10325000C8010E94B43E7C01C80102960E94B43E9F
:10326000FC01E81AF90AC601BE010E94D03D9E0188
:10327000281B822F90E09C012E9DC0012F9D900D58
:103280003E9D900D11249E0136952795820F931F28
:10329000BE010E94D03D9B012E0F3F1FC901CDB73B
:1032A000DEB7E8E00C945A3E1F93182F60FF03C06E
:1032B00085B1812B03C095B18095892385B984B1EF
:1032C000812B84B963FF03C00E94843D02C00E9429
:1032D0007F3D84B1912F9095892384B985B198233E
:1032E00095B91F910895AF92BF92CF92DF92EF925E
:1032F000FF920F931F93C62EA42E8093C901609353
:10330000CA014093CB01E82EFF2408E713E0C8016F
:103310008E0D9F1D0E94AC3E8093CF01DD24C8011D
:103320008C0D9D1D0E94AC3E8093D001BB24C80132
:103330008A0D9B1D0E94AC3E8093D1010BE713E0E8
:10334000C8018E0D9F1D0E94AC3E8093D201C80122
:103350008C0D9D1D0E94AC3E8093D301C8018A0D47
:103360009B1D0E94AC3E8093D4010EE713E0C80180
:103370008E0D9F1D0E94AC3E8093D501C8018C0D1F
:103380009D1D0E94AC3E8093D601C8018A0D9B1DF5
:103390000E94AC3E8093D70101E813E0C8018E0D76
:1033A0009F1D0E94AC3E8093D801C8018C0D9D1DCD
:1033B0000E94AC3E8093D901C8018A0D9B1D0E94DA
:1033C000AC3E8093DA011F910F91FF90EF90DF9058
:1033D000CF90BF90AF900895CF93DF93982F8091B7
:1033E0000001813009F4BEC0A895892F0E9473198D
:1033F00015B88091D00184B98091D50187B988B979
:103400008091D10160E10E9454198091D9010E94FC
:10341000A918EC018091D1019091D001892B84B938
:103420008091D9010E94A9189C018091D00184B992
:103430002C173D0720F42530310508F4E90123E07D
:10344000C13DD20708F18091D10161E10E94541978
:103450008091D9010E94A918EC018091D10185B910
:103460009091D001892B84B98091D9010E94A9182B
:103470009C0115B88091D00184B92C173D0720F428
:103480002530310508F4E901C031D10538F08091CB
:103490000201882319F4CE010E94232A83E0C13D52
:1034A000D80708F042C0809102018823D9F48091A6
:1034B000D00184B915B88091D50187B988B90E9427
:1034C000803D8091D1019091D001892B84B9809168
:1034D000D9010E94A9188F559D4020F082E0BE01BD
:1034E0000E946A2C80910201882339F58091D601CF
:1034F00087B918B88091D1019091CF01892B84B9F7
:1035000085B98091D8010E94A91880549640A8F4EA
:103510000E948129882389F480910001813269F019
:1035200081E0BE010E946A2C08C0809102018823BC
:1035300011F40E94C2270E94902E809100018823DE
:1035400011F08A3019F40E94831F08C08F3131F4C2
:103550008091010184FF02C00E94A72717B818B804
:1035600014B815B8DF91CF910895CF93DF9340E061
:103570000E94731917B88091CF0185B99091D0013D
:10358000892B84B98091D8010E94A918EC018091FF
:10359000D9010E9438182091A4013091A5013695D7
:1035A0002795B9016E5170406C177D0778F4A90119
:1035B000425E5F4FC417D50748F46817790730F4A7
:1035C00020E08417950718F421E001C020E014B82A
:1035D000822FDF91CF9108950F931F9380E061E0D8
:1035E0000E94B51A082F80E062E00E94B51A182FD9
:1035F00081E062E00E94B51A100F810F1F910F91B8
:1036000008958091CC016091CD014091CE010E943E
:1036100073190895A6E0B0E0E0E1FBE10C94383EB8
:1036200017B818B815B88FE384B981E00E9438182C
:103630009A83898382E00E9438189C838B8383E07D
:103640000E9438189E838D8301E098E2D92E82E093
:10365000C82EBB243E010894611C711CB1E08B2E66
:10366000912CC39483E0C81609F4CC24EC2CFF24DD
:103670008B2D90E00C2C02C0959587950A94E2F76B
:1036800080FD75C0C7018F579C4F0E94AC3EA82E8D
:103690000E9438189C01F701EE0FFF1FE60DF71D81
:1036A000808191812817390770F4318320838D2D13
:1036B00090E0801B9109449784F48AEE8D1568F0A0
:1036C00084E1D80E0AC02A30310528F488E2D816E1
:1036D00011F470E5D72E0F5F01C001E023303105F2
:1036E00048F4C4010E2C02C0880F991F0A94E2F717
:1036F000B82A0BC02052334040F417B1C70182589A
:103700009C4F0E94AC3E182B17B987E0B81691F178
:10371000D01640F581E08093000180930101C092B2
:103720000601C70182589C4F0E94AC3E97B180951C
:10373000982397B9C70185589C4F0E94AC3E182F1B
:10374000C70188589C4F0E94AC3E94B1182B10952D
:10375000912394B98A2D0E94381890930801809380
:10376000070108C0A89582E390E00E94C8120023D8
:1037700009F077CF14B817B82696EEE00C94543EB3
:10378000EF92FF920F931F93E82EF62E17B818B8FA
:1037900014B815B840E00E9473198091D50187B91B
:1037A0008091D9010E9438188C018091D60187B987
:1037B0008091D8010E9438180817190728F48F2D16
:1037C0006E2D40E00E9473198091D50187B98091D8
:1037D000D00184B901E08091D9010E9438189C0180
:1037E00081E02039380740F487B19091D601892BC8
:1037F00087B92832310540F00F5F033329F084E6A2
:1038000090E00E94C812E7CF17B814B81F910F912B
:10381000FF90EF90089560912401861710F061E009
:1038200003C0681B66956F5F81E00E94863C089527
:103830009F92AF92BF92CF92DF92EF92FF920F933F
:103840001F936B017C01042F922E15C085E090E040
:10385000A0E0B0E0C80ED91EEA1EFB1EC701B601EB
:103860002AE030E040E050E00E94F73DC901DA0173
:103870006C017D010F5F90E1C91697E2D90690E0D7
:10388000E90690E0F90610F7013F1CF4AA24BB24D6
:103890001DC0202F215F822F63E00E94C33D382F7F
:1038A000822F63E00E94C33DB92E992321F03F5F30
:1038B00083E0891BB82E383010F0AA2407C0832F6C
:1038C00090E089559D4F0E94AC3EA82E0DE311E07B
:1038D000C601B8014AE050E00E94963ED8010D9022
:1038E0000020E9F78D01015010400D531140E02EEA
:1038F0000B1910165CF080E30E94CA3C8EE20E9415
:10390000CA3C002319F080E30E94CA3CBB2009F4A2
:103910000FEF0150FF24C02EDD24C7FCD0940FC050
:103920000F2D10E0F801E35CFE4F80810E94CA3C3D
:103930000C151D0519F48EE20E94CA3CF394FE1486
:1039400078F3AA2019F08A2D0E94CA3C992019F018
:10395000892D0E94CA3C1F910F91FF90EF90DF903C
:10396000CF90BF90AF909F9008958AE30E94CA3C89
:1039700008958DE20E94CA3C0895CF92DF92EF92A3
:10398000FF920F931F937B018C01D42EC22E97FFC1
:103990000BC08DE20E94CA3C10950095F094E09413
:1039A000E11CF11C011D111DC801B7014D2D2C2D6D
:1039B0000E94181C1F910F91FF90EF90DF90CF9005
:1039C000089580E20E94CA3C08950E947B050E94EF
:1039D000CA3C08958F5C0E94CA3C08951F93182F1B
:1039E000E091090183E0E89FE02D1124F0E0EE571B
:1039F000F54FE60FF11D84918823C1F190912901C3
:103A0000915060912A01282F30E084FF04C08091FA
:103A100028018695680FA9014270507021FF0DC0E2
:103A200025FF06C0809127018695980F9F5F03C0F0
:103A300080912701980F23FD615022FF07C08091DC
:103A400028018150680F452B09F06F5F892F0E9474
:103A5000863C812F0E947B05883721F4812F0E94AC
:103A6000E51C04C0812F8F5C0E94CA3C1F91089501
:103A7000CF93DF93EC0103C00E94CA3C2196CE0194
:103A80000E94AC3E8823C1F7DF91CF910895FF9249
:103A90000F931F93CF93DF93082FF92E9C01E90119
:103AA00001C02196CE01801B182FCE010E94AC3E92
:103AB0008823B9F780912301811710F481E003C0B6
:103AC000811B86958F5F609122010E94863C802F2A
:103AD0009F2D0E94381DCDB7DEB7E5E00C945D3E0A
:103AE0000E94381D80E20E94CA3C0895DF92EF9246
:103AF000FF920F931F93F42ED22E0DE311E0A80135
:103B00002AE030E00E94713EF80101900020E9F7C0
:103B10008F01015010400D531140E02EFF2011F491
:103B200004E60DC00F1530F00F1911F0FF2407C087
:103B3000FF2401C0F01A80E30E94CA3C00E010E0BC
:103B400014C0101751F48EE20E94CA3C04C080E3F6
:103B50000E94CA3CFA94FF20D1F7E12FF0E0E35C29
:103B6000FE4F80810E94CA3C1F5F1E1550F3DD206E
:103B700019F08D2D0E94CA3C1F910F91FF90EF907C
:103B8000DF90089583E00E94183D81E063E00E9489
:103B9000863C089582E00E94183D81E062E00E9428
:103BA000863C0895FF920F931F930E94453D8AE53E
:103BB00091E00E94701D1091EA01F090250101E052
:103BC0000E94CA1D612F70E080E090E040E020E09C
:103BD0000E94181C043020F48CE291E00E94C8126C
:103BE00080E090E068E10E94450F082F813031F0BD
:103BF000833011F400E008C0843021F41F1520F454
:103C00001F5F02C011111150812F0E94603C0023E0
:103C1000B9F61F910F91FF9008951F931091220103
:103C200080912401181769F40E945812812F0E9474
:103C3000183D81E0612F0E94863C84EF91E00E9454
:103C4000C8121F9108951F93909120016091220145
:103C5000809124016817B1F4192F90FF02C00E94CF
:103C6000581211FF0CC01091240104C0812F0E9432
:103C7000183D11501230D0F781E062E005C00E947B
:103C8000453D04C06F5F81E00E94863C1F9108950E
:103C90001F93382F80912801982F9F5F2091240136
:103CA0008D5F2817A0F180912301803118F0930FC8
:103CB000921738F0209322010E94231E33E093E0F4
:103CC00005C0982F9F5F80912701981B9093290131
:103CD00030932A01109122018091AA0160E00E9494
:103CE000EE1C8091AB0161E00E94EE1C8091AC0162
:103CF00062E00E94EE1C8091290160912A010E94DD
:103D0000863C809109010E94963C109322011F91EC
:103D100008950F931F938C010E94231EC8010E94D7
:103D2000381D80E20E94CA3C1F910F9108950F93A5
:103D30001F938C010E94231EC8010E94471D1F91E2
:103D40000F9108950F931F938C010E94231EC801A9
:103D50000E94381D1F910F910895A0E0B0E0E3EBA1
:103D6000FEE10C94373E582E0E940A1B8091000100
:103D7000813019F400E010E0B2C018B88091D6018B
:103D800087B98091CF0185B984B90E947F3D61E0F8
:103D9000662477244301862F90E0EC01C170D07037
:103DA00060FF03C08091D80102C08091D901A8951D
:103DB000806C80937C000E94893D80917A008064B1
:103DC00080937A0080917A0086FDFCCFAA24EE24AD
:103DD000FF24870180917A00806480937A0080912B
:103DE0007A0086FDFCCF8091780090917900A0E068
:103DF000B0E0E80EF91E0A1F1B1F0E94863DA39427
:103E000084E6A81639F72091A2013091A30140E081
:103E100050E0C801B7010E94983D7B018C019AE0F7
:103E200016950795F794E7949A95D1F762E0CD2B14
:103E300009F45BC0C701D8013C014D01ACCF6091D2
:103E4000A4017091A50180E090E024E630E040E01C
:103E500050E00E94983D66197709880999090E94E7
:103E6000983D5B016C016E187F08800A910AC401BD
:103E7000B30128EE33E040E050E00E94983D7B0122
:103E80008C012091DD013091DE012057354E40E05C
:103E900050E0C601B5010E94F73DC801B7010E947C
:103EA000F73D890181E05816B9F48091C90160910C
:103EB000CA010E941713E82FF0E0EE0FFF1FE15236
:103EC000FE4F0190F081E02DE017F10718F40E1B72
:103ED0001F0B02C000E010E080EC8093A101C8013C
:103EE000CDB7DEB7EFE00C94533E15B88091D50105
:103EF0009091D601892B87B9E614F70408051905B6
:103F000008F49DCFE7CFA0E0B0E0E9E8FFE10C9432
:103F1000353EA89518B88091D60187B98091CF0118
:103F200084B985B98091D9010E94A9187C0180913A
:103F3000D8010E9438184C0115B88091D20184B97B
:103F40008091D8010E94A918459708F025C2809158
:103F5000D20185B98091D8010E94A9182C018091C5
:103F6000D50187B988B915B88091D00184B98091FD
:103F7000D8010E94A9188C018091D9010E9438189B
:103F80003C018091D30184B98091D9010E94A91884
:103F9000EC0120E3821621E1920628F482E648161D
:103FA000510408F0F9C12CE6421623E1520608F04C
:103FB000F3C189EA6816710408F06EC0C632D105F3
:103FC00008F4EAC1B20180E090E020EF3BE247E074
:103FD00050E00E94983DE090A401F090A501970167
:103FE0002419350940E050E00E94F73D59016A016B
:103FF000EC1AFD0A00E010E0C801B70120EF3BE237
:1040000047E050E00E94983D9E0140E050E00E9451
:10401000F73DB901CA012EED421623E0520670F4B5
:1040200042E0AA0CBB1CCC1CDD1C4A95D1F7A60EA5
:10403000B71EC81ED91EC601B5010EC0CE5DD34045
:10404000B0F432E0660F771F881F991F3A95D1F7B9
:104050006A0D7B1D8C1D9D1D25E030E040E050E089
:104060000E94F73DC901DA01BC01CD0108C06A0D0B
:104070007B1D8C1D9D1D9695879577956795625A3A
:104080007E4F8F4F9F4F2AE030E040E050E00E948B
:10409000983D3B014C01A0C08E149F0408F490C0D1
:1040A0000615170508F48CC0C091A401D091A50194
:1040B0008C169D0619F40894810891082091DD0161
:1040C0003091DE012057354E40E050E0B4016E19CA
:1040D0007F0980E090E00E94983DC819D9099E01AF
:1040E00040E050E00E94F73D59016A012091DB0158
:1040F0003091DC012057354E40E050E00619170999
:10410000B80180E090E00E94983D930140E050E0CB
:104110000E94F73D79018A018EED881683E09806AA
:1041200040F492E0AA0CBB1CCC1CDD1C9A95D1F784
:1041300015C02EED621623E07206B8F588EFE8167A
:1041400084E2F80681E0080780E0180790F482E036
:10415000EE0CFF1C001F111F8A95D1F7AE0CBF1C7F
:10416000C01ED11EC601B50125E030E040E050E0A0
:1041700015C0C801B701B3E0660F771F881F991FEC
:10418000BA95D1F76E0D7F1D801F911F6A0D7B1DA3
:104190008C1D9D1D2AE030E040E050E00E94F73D7C
:1041A000C901DA013C014D0117C0350146016E0C11
:1041B0007F1C801E911E96948794779467940CC000
:1041C0002FE8621622E1720608F4E2C0FAE06F2ED0
:1041D000712C812C912C06C084E668167104810430
:1041E000910478F581E00E94AD1E7C0100E010E0B2
:1041F000C401B301660F771F881F991F25E062165F
:1042000071048104910420F4660D771D881D991DA9
:104210002AE030E040E050E00E94983D61157105D1
:104220008105910521F464E670E080E090E0E616F7
:10423000F7060807190728F4370148015EEF552EE5
:1042400002C055245A9420E047E0342E3AE0432E31
:1042500081C0239DE0011124C55FDE4F98818091CC
:10426000C901981709F073C099818091CA01981704
:1042700009F06DC0C401B301452D02E010E020E05B
:1042800030E0EE240E94340E8F3F91F56B817C81EB
:104290008D819E814A8102E010E020E030E00E94A2
:1042A000340E8F3FF1F44A81451519F0FF24FA943A
:1042B00002C0FF24F3946B817C818D819E819401E7
:1042C0008301E52C0E94340E8F1531F46B807C80C5
:1042D0008D809E805A8005C06B827C828D829E82FA
:1042E0005A8264015301D694C794B794A7940CC022
:1042F000C401B30124E130E040E050E00E94F73D0A
:10430000C901DA015C016D016B817C818D819E8127
:10431000940183010A191B092C093D094A81E52CE6
:104320000E94340E87FD15C06B817C818D819E813A
:10433000A60CB71CC81CD91C4A81960185010E9495
:10434000340E181634F04092000124E603C02F5FAB
:1043500001C028EC90910401291708F47ACF243683
:10436000D9F09330C8F4E7E09E9FF0011124E55F97
:10437000FE4F8091CA0180838091C901818363824D
:1043800074828582968252829F5F9093040104C05A
:1043900066247724430126CFCDB7DEB7E1E10C9444
:1043A000513EEF920F931F93142F1092040140E09F
:1043B0000E9473190E94831F80910401813011F0C3
:1043C00090E017C01123A1F0612F70E080E090E031
:1043D00000910E0110910F012091100130911101F7
:1043E00043E0E0900D010E94340E90E0813009F42A
:1043F00091E0892F1F910F91EF900895982F8131AF
:1044000010F480E00895915115BC82E084BD97BD01
:1044100081E0089516BC81E085BDA99BFECF15BC47
:1044200082E085BB08954F925F926F927F929F9238
:10443000AF92BF92CF92DF92EF92FF920F931F93B2
:10444000CF93DF933C010E940A1B809100018130D1
:1044500009F4D4C115B88EE087B918B88091D2019B
:1044600084B980E480937B0084E480BF8091D8018C
:10447000806480937C0087E080937A000E94883D6E
:10448000109280001092810010928500109284009A
:1044900087E286BB8091D20185B9809100018F317E
:1044A00029F49091D50190959E7002C09091D6010B
:1044B00081E08093810097B900E010E091E086B33D
:1044C000282F85FD0AC080FFFACF96BBA8950F5F05
:1044D0001F4F8FE0003A180791F71092810080E299
:1044E00086BBC0918600D091870014B8809184006B
:1044F00090918500C817D90730F420FF04C081E0EF
:1045000086BB0F5F1F4F87E980937A0080917B0005
:104510008F7B80937B008091D8010E9438182C01FA
:1045200015B88091D20184B99FE0003A190710F0C4
:1045300081E067C19E0140E050E0C801A0E0B0E02A
:104540008C01FF24EE24E22AF32A042B152BA3E08E
:10455000EA16F1040105110500F18EEF9FEFAFEFB0
:10456000BFEFE80EF91E0A1F1B1F98E3E91699E832
:10457000F90691E4090790E0190778F0C801B7013E
:1045800028EE33E040E050E00E94F73DC901DA0137
:104590007C018D0177EF972E02C064EF962E8091FB
:1045A000E901992787FD90952091A2013091A301FF
:1045B000820F931F61E00E94E518A0E0B0E0BC010B
:1045C000CD01A80197010E94983D20ED37E040E021
:1045D00050E00E94F73D79018A01A4EF9A1619F084
:1045E000570168011EC08091C9016091CA010E94F3
:1045F0001713E82FF0E0E552FE4F8285682F70E038
:1046000080E090E0E616F7060807190720F4AA24D0
:10461000BB24650106C057016801A61AB70AC80A7B
:10462000D90A8091CA01F30180838091C9018183F5
:104630009282D3011796ED92FD920D931C931A97D7
:10464000A382B482C582D682F4EF9F1651F420EA89
:10465000A21626E8B20621E0C20620E0D20678F4CF
:1046600056C087EF981609F052C091E2A9169EE451
:10467000B90690E0C90690E0D90608F048C08091DC
:10468000D8010E943818855D9340C8F714B810927D
:10469000A0018091D8010E9438188C0181E080939C
:1046A000A0018091D8010E943818EC018091D201BC
:1046B00084B90C1B1D0BE090A201F090A301C8016E
:1046C00004960997D0F0B801882777FD8095982F38
:1046D000970140E050E00E94983D9E0140E050E08C
:1046E0000E94193E8091E801820F8093E8018A2D93
:1046F000992787FD9095E80EF91E92012E193F0922
:10470000C901C1968336910510F42093E901C601D1
:10471000B501492D02E310E020E030E057EFE52E2F
:104720000E94340E813009F06BC0C601B501492DDD
:1047300028EF0E94990E7B018C010E940A1B809138
:104740000001813009F45AC018B88091D60187B9A8
:1047500015B88091CF0184B98091D8010E94381892
:104760006C018091CF0185B987011695079504C02A
:104770000E948F3D0150104001151105C9F714B872
:1047800015B8A89585E080939F018091D8010E947B
:104790003818C816D90648F48C010C191D0905C033
:1047A0000E948F3D0894E108F108E114F104C1F77B
:1047B0008091D8010E9438189C0189E180939F0163
:1047C000A895C216D30618F47901EC18FD08E01676
:1047D000F106B0F4B8016E197F0980E090E024EF93
:1047E00031E040E050E00E94983D980140E050E008
:1047F0000E94F73DF3013787268702C080E001C0A1
:1048000083E0DF91CF911F910F91FF90EF90DF90A8
:10481000CF90BF90AF909F907F906F905F904F90A0
:104820000895A0E0B0E0E7E1F4E20C94363E3C01EC
:1048300033E0B32E21E1922E0E940A1B80910001E9
:10484000813011F4882449C118B88091D60187B904
:1048500015B814B88091D8010E9438182C01CC24C6
:10486000DD240894C11CD11C8091CF01692D0E94C8
:1048700054198091D8010E9438184816590618F02A
:10488000C0E0D0E003C0EC01C419D5092EE7C21680
:10489000D10421F480E0CB34D10508F081E091E02F
:1048A000CC32D90708F080E0E4EFCE16E1E0DE0676
:1048B00009F480E0A8958823A1F6F1E0CC32DF0767
:1048C00010F4BB24B39421E0C216D10461F485E056
:1048D000C531D80740F0892D99E0992E84FDACCFE1
:1048E000B2E08B2EFAC08B2C93E0B91619F000E0E1
:1048F00010E04AC0860160E070E00AC0015010403C
:104900008091D8010E943818BC0164197509A895D6
:104910000115110599F76C177D0718F000E010E0FC
:1049200018C08E01061B170BB80180E090E028EE3E
:1049300033E040E050E00E94983D9E0140E050E0AE
:104940000E94F73DF301378726870536110508F0E9
:10495000BB248091D8010E9438187C0194FE03C0CA
:104960000E94743D02C00E94793D8091D8010E944E
:1049700038188E159F0520F08B2C4424552404C034
:104980002701481A590A8B2CF3E0BF1609F0A5C07D
:10499000C8018C0F9D1F62E00E94E518A0E0B0E006
:1049A000960140E050E0BC01CD010E94983D5B01C2
:1049B0006C01C92DD0E08E010071107094FE08C00A
:1049C0002AE030E040E050E00E94983D5B016C013D
:1049D00028E3A21629E8B20621E4C20620E0D206A6
:1049E00018F4A7EF9A2E0EC0C601B50128EE33E0E9
:1049F00040E050E00E94F73DC901DA015C016D0121
:104A0000FAEF9F2EC601B50128EE33E040E050E0FA
:104A10000E94983D012B29F022E434E040E050E070
:104A200004C020E134E040E050E00E94F73DC901BD
:104A3000DA017C018D018091CA01F30180838091AC
:104A4000C90181839282A782B086C186D286E38221
:104A5000F482058316830DC0C801B7012AE030E057
:104A600040E050E00E94F73DC901DA017C018D0170
:104A70009394F1E0EF16F5E3FF06FCE00F07F0E09A
:104A80001F0750F7C3FD9394920140E050E0C80126
:104A9000B7010E94983D28EE33E040E050E00E94CC
:104AA000F73DC901DA01BC01CD010BC02AE030E0BD
:104AB00040E050E00E94F73DC901DA01BC01CD01A0
:104AC0009394603020E0720721E0820720E0920793
:104AD00068F7F301748763879586882DCDB7DEB7B5
:104AE000E0E10C94523EA0E0B0E0E9E7F5E20C947E
:104AF0003C3EB82EA62EC42EDD2454E0CC0CDD1C8A
:104B00005A95E1F789E491E0C80ED91EF6011082AA
:104B1000118284EF82831782108611861286138297
:104B20001482158216821486138617861686809143
:104B30000001813009F462C08A3041F5FF24CBE0E6
:104B4000D1E01DC098819B1519F489818A1529F03F
:104B50009A1599F489818B1581F46B817C818D8103
:104B60009E814A810AE010E020E030E0EE240E94BD
:104B7000340E8F3F11F443E6F42EF3942796809180
:104B80000401F816F8F2F4E6FF16C1F58B2D6A2D34
:104B90000E949327FC01009729F0828193818C5D0C
:104BA000954060F18B2D6A2D40E00E947319C6017B
:104BB0000E941124823019F4C6010E9413228091B0
:104BC00000018431A8F4F60192818A3019F49A3FE9
:104BD0007CF00BC0953F4CF4F60183819481A58154
:104BE000B6810597A105B10518F08BE0809300010F
:104BF0000E940A1B17B818B814B815B8CDB7DEB79D
:104C0000EAE00C94583EA4E0B0E0E9E0F6E20C944F
:104C1000343E9C838B83009709F44AC1FC01638175
:104C200074818581968142810AE010E020E030E0C5
:104C3000B7EFEB2E0E94340E87FD3AC10E940A1B8B
:104C400080910001813009F433C1EB81FC818081C6
:104C500061810E94C01BEB81FC818081618140E009
:104C60000E9473194090D8013090D901F0EC4F2A7E
:104C70003F2A15BC82E084BD85E387BD18B8409209
:104C80007C000E947F3DA2E38A2E912C60E070E0C0
:104C900022242A94F1E0AF2EB12CC12CD12CE1E0DA
:104CA000EE2EF12C012D112D57ED552EA8956233C6
:104CB000710558F48091D60187B98091CF0185B9EB
:104CC00084B90E94923D14B815B882E38816910405
:104CD00058F48091D50187B98091D00185B984B904
:104CE0000E94923D14B815B88091D50187B9809182
:104CF000CF0185B984B940927C0050927A008091AE
:104D00007A0086FDFCCF50927A0080917A0086FD71
:104D1000FCCFE0917800F0917900FA83E98330923A
:104D20007C0050927A0080917A0086FDFCCF5092F0
:104D30007A000E948E3D0E940A228091D00185B99E
:104D400084B90E94923D14B880917A0086FDFCCF10
:104D500080907800909079008091D60187B98091F9
:104D6000D00185B984B930927C0050927A0080914C
:104D70007A0086FDFCCF50927A0080917A0086FD01
:104D8000FCCF609078007090790040927C00509247
:104D90007A0080917A0086FDFCCF50927A000E94C2
:104DA0008E3D0E940A228091CF0185B984B90E946C
:104DB000923D14B880917A0086FDFCCF6091780016
:104DC00070917900C301A0E0B0E0E981FA819F0110
:104DD00040E050E0820F931FA41FB51FA80EB91E1C
:104DE000CA1EDB1ECB01A0E0B0E0940140E050E021
:104DF000820F931FA41FB51FE80EF91E0A1F1B1F69
:104E00002A9409F053CF17B815B8AE14BF04C006E2
:104E1000D10608F045C08091DB019091DC019C0136
:104E200043E0220F331F4A95E1F7880F991F280F9F
:104E3000391F40E050E0EA18FB080C091D09C801C1
:104E4000B7010E94983DA60195010E94F73D890196
:104E50008091C9016091CA010E941713E82FF0E008
:104E6000EE0FFF1FE152FE4F2081318120173107E5
:104E700018F4021B130B16C0EB81FC816381748153
:104E800085819681428108EE13E020E030E0EAEF70
:104E9000EE2E0E94340E18161CF400E010E002C042
:104EA0000FEF1FEF80EC8093A1010E940A1B02C04C
:104EB0000FEF1FEFC8012496E2E10C94503E809161
:104EC00000018032F1F0813228F48E3141F08F31CF
:104ED00041F40BC08132E9F0843218F416C022E4A8
:104EE00011C020E090E080E017C08091010186FDB4
:104EF00004C027E494E483E50FC027E498E788E73B
:104F00000BC027E493E485E407C027E491E483E43D
:104F100003C027E492E381E32093AD019093AE01B7
:104F20008093AF010895282F90910501E9E7F1E002
:104F300008C08081281719F48181681731F09150D9
:104F400036969923B1F7E0E0F0E0CF010895809123
:104F5000010180FF05C06091AC018091AB0104C0EC
:104F60006091AB018091AC010E949327892B49F09D
:104F70001092000110920101809102018E7F8093B6
:104F800002010895EF92FF920F931F93CF93DF9347
:104F90008091D8010E943818EC018091D9010E94BB
:104FA00038187C018091DA010E9438188C0117B8FA
:104FB0008091D50188B98091D40185B99091D001B3
:104FC000892B84B982E390E00E94C8128091D501B8
:104FD00087B98091D9010E9438180A97F8F483E2C2
:104FE000809303018CE080930A018091CB01809330
:104FF00036018091C901809337018091CA01809365
:105000003801CE018E199F0990933A01809339019E
:10501000C01BD10BD0933C01C0933B01CDB7DEB791
:10502000E6E00C945C3EA0E0B0E0E9E1F8E20C942C
:10503000343E582E81E0581611F58091D50187B97C
:1050400088B99091D1018091D001892B84B995B90B
:105050008091D9010E94A9187C010091A4011091AE
:10506000A5018091DA010E943818081B190B57011D
:10507000CC24DD24C091DB01D091DC0128C018B81C
:105080008091D60187B98091CF0185B99091D101E6
:10509000892B84B9E090A401F090A5018091D801FA
:1050A0000E94A918E81AF90A8091DA010E943818BA
:1050B0008C01C701A0E0B0E0AA24BB246501A81AB6
:1050C000B90ACA0ADB0AC091DD01D091DE010115DF
:1050D000110511F401E010E0C701801B910BB8012C
:1050E0000E94D03D3B0188249924C601B50120E1EE
:1050F00037E240E050E00E94983DC057D54E9E01F7
:1051000040E050E00E94193E3093B4012093B30177
:105110000031110508F081C081E05816F1F480914A
:10512000D4019091D001982B94B985B98091D9017F
:105130000E94A9187C010091A4011091A501809101
:10514000DA010E943818081B190B17014424552452
:10515000C091DB01D091DC0123C08091D4019091FA
:10516000CF01892B84B9E090A401F090A501809132
:10517000D8010E94A918E81AF90A8091DA010E9460
:1051800038188C01C701A0E0B0E0222433242101AB
:10519000281A390A4A0A5B0AC091DD01D091DE0162
:1051A0000115110511F401E010E0B70180E090E075
:1051B00020EF3BE247E050E00E94983D980140E03C
:1051C00050E00E94F73DCA01B9012AE030E040E01A
:1051D00050E00E94983DC057D54E5E01CC24DD249E
:1051E000A60195010E94F73D79018A016E147F04A2
:1051F0008006910690F4C201B10120E137E240E05F
:1052000050E00E94983DA60195010E94193E3093FE
:10521000B4012093B30137014801B301C401CDB7F4
:10522000DEB7E2E10C94503EDF92EF92FF920F93D3
:105230001F93D82E15B88091D00184B98091D501E3
:1052400087B988B98091D9010E94A918BC0184301E
:10525000910530F18091DB019091DC017C0100E04F
:1052600010E085E06937780780F091E0D91669F49D
:1052700014B88091D6019091D501892B87B980917E
:10528000D9010E943818BC0108C080E99AE1A0E069
:10529000B0E0E80EF91E0A1F1B1F29EFD22E11C025
:1052A0008091D30184B98091D9010E94A918BC01D1
:1052B00098EFD92E80EFE82E8BE2F82E87E0082FAA
:1052C000112D17B818B814B815B880E090E020EA8E
:1052D00036E841E050E00E94983DA80197010E9405
:1052E000F73D2093BF013093C0014093C10150931B
:1052F000C201D092C3011F910F91FF90EF90DF90F8
:105300000895A0E0B0E0E7E8F9E20C943E3E809119
:10531000DA010E9438187C018091D9010E94381866
:105320006C018091D10160E10E9454198091D801F3
:105330000E94A9188C0115B80E94803D8091CF0170
:1053400085B98091D8010E94A91826E0003412077F
:1053500008F05FC08153914108F45BC014B815B8E0
:105360008091D60188B90E94803D8091CF0184B997
:105370008091D8010E94A918853F910508F049C085
:105380008091D10160E10E9454198091D8010E945E
:10539000A918EC0182E0CD3DD80760F482E2809349
:1053A0000001809102018160809302018AE0809374
:1053B000090135C08091CF0185B90E94803D15B8A3
:1053C0008091D8010E94A918853F910510F5809120
:1053D0000001813229F480910201816080930201F1
:1053E00081E2809300018BE0809309018091B701F5
:1053F0009091B8018C179D0720F5CE01A0E0B0E098
:105400008093B7019093B801A093B901B093BA010A
:1054100006C080E0CDB7DEB7E8E00C945A3E80913C
:10542000CB018093AA018091C9018093AB01809147
:10543000CA018093AC01EC18FD08F092B201E09231
:10544000B10181E0E7CFA0E0B0E0E9E2FAE20C943C
:105450003A3E8B5E914018F408E210E002C008EE7C
:1054600011E08091D4019091D001892B84B9809171
:10547000D9010E94A0186C018091D40185B9809156
:10548000D9010E94A0184C01C601800F911F8815F8
:10549000990508F06BC08091D10184B985B918B81D
:1054A0008091D60187B98091DA010E94A01817B8BF
:1054B0008C5B924028F0FF2486E0C816D10410F4DB
:1054C000FF24F3948091D50187B98091DA010E947D
:1054D000A018EC018091D8010E94381817B88C17D9
:1054E0009D0738F4C81BD90BC25CD14010F4FF24CF
:1054F000F3948091D60188B987B98091D4019091B5
:10550000CF01892B84B915B88091D8010E94A018C9
:105510005C018091D40185B98091D8010E94A018C6
:10552000EC0118B88091D60187B98091D40190918F
:10553000CF01892B84B985B98091DA010E94A01826
:1055400088549F4028F089E18093010184E006C0DF
:10555000FF2061F489E28093010186E080930901D4
:10556000F401EC19FD09CA19DB0970C018B8809163
:10557000D60187B98091D4019091CF01892B84B94C
:1055800085B98091D8010E94A0187C018091CF013B
:1055900085B98091D8010E94A0185C01080F191FDD
:1055A0000E151F0508F006C1C091A401D091A501F8
:1055B0008091D10184B915B88091D50187B988B996
:1055C0008091DA010E94A01818B88D5C904128F4EF
:1055D00000E02C97EC16FD0608F001E08091D50163
:1055E00087B98091D4019091D001892B84B985B974
:1055F0008091D9010E94A0186C018091D00185B9D9
:105600008091D9010E94A018EC0115B88091D501B4
:1056100088B987B98091DA010E94A018815D934012
:1056200028F48AE18093010185E007C0002309F096
:10563000C1C08AE28093010187E080930901F701EC
:10564000EA19FB0996012C1B3D0BE9018FE18093C0
:105650000001809102018160809302014091CB01A1
:105660004093AA01CE17DF0738F48091C9018093D7
:10567000AB018091CA0106C08091CA018093AB0141
:105680008091C9018093AC01CF0162E370E00E9478
:10569000D03D9B01CF01861B970BC817D90750F04F
:1056A0002E0F3F1F2C173D0728F0809101018064C9
:1056B000809301018091AB016091AC010E9473194C
:1056C0009091D7018091D601982B97B92091CF0165
:1056D00024B98091010180FF13C018B825B9009149
:1056E000A4011091A5018091D8010E94A0189801F1
:1056F000281B390BC901C091DD01D091DE010AC020
:1057000098B915B88091D8010E94A018C091DB010A
:10571000D091DC01C057D54EBC0180E090E020E183
:1057200037E240E050E00E94983D9E0140E050E0AA
:105730000E94F73D2093BF013093C0014093C10107
:105740005093C2018AEF8093C3019091D40180915C
:10575000D301982B94B92091D50127B980910101EB
:1057600080FF03C015B828B902C095B918B80E94C7
:105770007F3D8091D9010E9438188C018091DA0117
:105780000E9438189C01201B310B3093B6012093E6
:10579000B5018091010180FF06C020543D4E215C7F
:1057A000324140F003C0215C324120F01092B6013A
:1057B0001092B501CDB7DEB7ECE00C94563EA0E0F8
:1057C000B0E0E5EEFBE20C943A3E90E0EC01C170F3
:1057D000D07080FF07C0C090CF018091D50160E1FB
:1057E000A62E06C0C090D0018091D60151E1A52E11
:1057F0004EE0B42EB8228091DA01806480937C0060
:105800000E94893DEE24FF248701DD243FEF832E93
:1058100033E0932EA8958091D1016A2D0E945419EE
:105820008091D4018C2984B9209721F086B18B21F5
:10583000E9F703C086B18B21E9F3C4B880917A00FF
:10584000806480937A0080917A0086FDFCCF209757
:1058500059F08091780090917900A0E0B0E0E80ED6
:10586000F91E0A1F1B1F0EC08091780090917900CD
:105870009401281B390BC901A0E0B0E0E81AF90A2D
:105880000A0B1B0BD3943AE0D31621F6C801B701DB
:105890002AE030E040E050E00E94193EB901CA0120
:1058A0002091A4013091A50140E050E00E94983D74
:1058B00020E034E040E050E00E94193E3093B40113
:1058C0002093B30180E48093A101CDB7DEB7ECE073
:1058D0000C94563EA0E0B0E0E0E7FCE20C94373ECA
:1058E000582E5B010E94B21881E0581661F5809134
:1058F000D4019091CF01892B84B985B90E947B3D59
:10590000C091A401D091A5018091D8010E943818BE
:10591000C81BD90B0091A4011091A5018091DA0157
:105920000E9438187801E81AF90A3E01882499245F
:105930000091DD011091DE01DD24D3948DEF99E01B
:1059400028E43DE024C08091D4019091D001892BBE
:1059500084B98091D9010E94A918EC018091DA01E3
:105960000E9438187C01CE01A0E0B0E066247724C4
:105970004301681A790A8A0A9B0A0091DB01109197
:10598000DC01B2E0DB2E81ED93E020ED37E08E15F7
:105990009F0508F011C1809100018E31E9F49091CA
:1059A0000101852D892321F49460909301010EC09B
:1059B00091E0591659F49091AB018091C901981763
:1059C00029F45092000182E080930101809102014C
:1059D00081608093020105C08EE1809300015092A6
:1059E0000101AC16BD0610F4CA19DB09BE0180E046
:1059F00090E020EF3BE247E050E00E94983D9701A5
:105A000040E050E00E94F73DCA01B9012AE030E0D1
:105A100040E050E00E94983D0057154E780100E0AC
:105A200010E0A80197010E94F73DC901DA015C016D
:105A30006D01852D0E9413289B01AC01A616B706A7
:105A4000C806D90698F0C401B30120E137E240E06E
:105A500050E00E94983DA80197010E94193EC9019B
:105A6000DA013C014D01FF24F3940DC08091B30194
:105A70009091B4013C01882477FC8094982C5901C2
:105A80006A01A2E0FA2E8091B7019091B801A0912D
:105A9000B901B091BA018A159B05AC05BD0550F45A
:105AA0008093BB019093BC01A093BD01B093BE0154
:105AB00011E009C0A092BB01B092BC01C092BD012F
:105AC000D092BE0110E081E0581629F48091CA01FD
:105AD0006091CB0104C08091CB016091C90140E08D
