:100000000C94900E0C94AF0E0C94AF0E0C94AF0E9B
:100010000C94AF0E0C94AF0E0C94AF0E0C94AF0E6C
:100020000C94AF0E0C94892C0C94AF0E0C94AF0E64
:100030000C94AF0E0C942C3D0C94AF0E0C94AF0EA0
:100040000C94AF0E0C94AF0E0C94153D0C94AF0EA7
:100050000C94CB3C0C94AF0E0C94AF0E0C94AF0EE2
:100060000C94AF0E0C94AF0E0C94AF0E0C94AF0E1C
:100070000C94AF0E0C94AF0E0C94AF0E0C94AF0E0C
:100080000C94AF0E0C94AF0E0C94AF0E050A06053F
:10009000060A050A0609060A050A0609060A050AE5
:1000A0000609060A050A0605060A050A06050A06DD
:1000B000090A06090A0600000000000000000011FD
:1000C0000A06000010000000100E000010010000E1
:1000D00090000000900000009000001890000018B0
:1000E0009000001808010018040E00180200001803
:1000F0000100009800000058000000380000FE1FBA
:10010000000000380000005800001E98040022186B
:10011000070022180700229807001E18880F2218CF
:10012000900022189000220090001E00900700000E
:10013000900000009000000090000000900F000070
:100140000000000010000000900F00009000000070
:100150009000000090000000900700189000001828
:100160009000001889000018870F00180700001879
:100170000F00009800000058000000380000FE1F2B
:10018000000000380000005800001E9800002218EF
:10019000010022180200221804001E18080E22185E
:1001A000100122189000220090001E009000000014
:1001B000900000009000000010010000100E0000F0
:1001C00000000000100000009003000090040000F8
:1001D000900800009008000090080030900800305F
:1001E000900800F69F0400368003003600001C06CD
:1001F000000022060000023602000236030002F66A
:100200001F003A36130022361200220610001C0688
:1002100010000036100000361000FEF71F070030F7
:1002200090080030900000009000000010070000CF
:1002300010080000100800009008000010070000DF
:1002400000000000100000001007000090080000EF
:1002500090000000900000001007003010080030EF
:100260001008FEF79F0800361007003610001C0625
:10027000100022061000023611000236130002F6AA
:100280001F003A36030022360100220600001C0639
:100290000000003600000036000000F69F0300302A
:1002A00090040030900800009008000090080000C2
:1002B00090080000900800009004000090030000E7
:1002C00000000000100000009003000090040000F7
:1002D000900800009008000090080030900800305E
:1002E000900800F69F0400368003003600001C369C
:1002F000000022360000023602000236030002F639
:100300001F003A36130022361200223610001C3627
:1003100010000036100000361000FEF71F070030F6
:1003200090080030900000009000000010070000CE
:1003300010080000100800009008000010070000DE
:1003400000000000100000001007000090080000EE
:1003500090000000900000001007003010080030EE
:100360001008FEF79F0800361007003610001C36F4
:10037000100022361000023611000236130002F679
:100380001F003A36030022360100223600001C36D8
:100390000000003600000036000000F69F03003029
:1003A00090040030900800009008000090080000C1
:1003B00090080000900800009004000090030000E6
:1003C00000000000100000009003000090040000F6
:1003D000900800009008000090080030900800305D
:1003E00090080030900400F09F031C300000223081
:1003F00000000230000002300000023000003A30FD
:10040000000022300000223000001C3000000031CB
:10041000000000330000FEFF1F0000331007003112
:1004200090080030900000009000000010070000CD
:1004300010080000100800009008000010070000DD
:1004400000000000100000001007000090080000ED
:1004500090000000900000001007003010080032EB
:10046000100800339008FEFF1F0700330000003221
:1004700000001C300000223000000230000002307A
:100480000000023000003A3000002230000022302C
:1004900000001C30000000F01F000030900300300E
:1004A00090040030900800009008000090080000C0
:1004B00090080000900800009004000090030000E5
:1004C0000000000010000000100E000010010000ED
:1004D000900000009000000090000030900000307C
:1004E0009000003610010036080E00360400003679
:1004F00002000036010000B6000000760000FE3762
:1005000000000076000000B600001C36090022360C
:100510000E0002360E0002360F000236900F3A30FF
:10052000900022309000220090001C0090070000F4
:10053000900000009000000090000000900F00006C
:100540000000000010000000900F0000900000006C
:1005500090000000900000009007003090000030F4
:1005600090000036920000368E0F00360E000036E6
:100570001E000036010000B6000000760000FE37C5
:1005800000000076000000B600001C360100223694
:10059000020002360400023608000236100E3A301D
:1005A000100122309000220090001C0090000000FA
:1005B000900000009000000010010000100E0000EC
:1005C00000000000710000008900000089000000A8
:1005D00089000000F9000000890000008900000087
:1005E0008900000001000000010000FFFF0100FE83
:1005F000FF0000FC7F0000F83F0000F01F0000E05B
:100600000F001CC00700228003000200010002FF4F
:10061000FF013AFFFF0122800100224001001C205F
:10062000E1000010110000080900FE0709000000A9
:10063000090000000900000011000000E1000000B6
:100640000000000001000000490000004900000017
:100650004900000049000000490000004900000076
:10066000010000000100C0FFFF07C0FFFF070008F6
:10067000FE03001CFE03001CFC01003EFC01003ECA
:10068000F800007FF800007F70008CFF700092FF80
:100690002000C2FFFF07DAFFFF07120801000C0469
:1006A00001000002110000011100FE001100000015
:1006B0001100000011000000110000000100000006
:1006C00000000000710000008900000089000000A7
:1006D0008900FE07F90000088900001089001C202D
:1006E0008900224001000280010002FFFF013AFE62
:1006F000FF0022FC7F0022F83F001CF01F0000E0FA
:100700000F0000C00700008003000000010000FF90
:10071000FF0100FFFF0100000100000001000000D8
:10072000E1000000110000000900000009000000C5
:10073000090000000900000011000000E1000000B5
:100740000000000010000000900400009004000071
:1007500090040000900400009004003090040030E9
:1007600090043E30100040F21F00803300008033C0
:100770000000C0330000003400003E3800000230AA
:10078000000002300000023000001E300000023085
:1007900000000230000002F01F003E301000003068
:1007A00010010030100100001001000010010000D5
:1007B00010010000100100001001000010000000F6
:1007C000000000000000000000000000000000F039
:1007D000010000FC070000FE0F00000F1E000007D4
:1007E0001C008003380080033800800338000000BC
:1007F000380000001C0000001E0000000F000080F8
:10080000070000C0030000E0010000F0000000F05D
:10081000000000F0000000F00000000000000000F8
:1008200000000060000000F0000000F00000006028
:1008300000000000000000000000000000000000B8
:1008400000000000480400004802000048010000C9
:10085000C8000000480100004802000048040004ED
:100860000800000408000004080000FCFF1F00004E
:10087000081000001C1000003E1000007F000080E7
:10088000FF0000C0FF0100E0FF0300F0FF0700F8D9
:10089000FF0F00FCFF1F0000080000000800000020
:1008A000080000008803000048040000480400001D
:1008B000C807000048040000480400004804000085
:1008C00000000000000000800000008000000080A8
:1008D0000000008000000080000000800000008018
:1008E000000000800000008000000080000000FF89
:1008F0007F0000000000C0FFFF01C0FFFF01C0FF3C
:10090000FF01C0FFFF01C0FFFF010000000000FF6A
:100910007F00008000000080000000800000008058
:1009200000000080000000800000008000000080C7
:1009300000000080000000800000000000000000B7
:10094000000000000011000000110000C0170000AE
:10095000001100E03F1100202010003FE01F0021A7
:10096000201000E13F101C0100102401001044F190
:100970003F10441120104411E01F241120001C11CD
:10098000200000112000FE1F200000102000001099
:100990002000001020000010E01F0010201000F0C8
:1009A0003F100000001000000010000000100000C8
:1009B0000010000000100000C01700000010000030
:1009C0000000FF010203040506076F707172737463
:1009D0007576FFFFFFFFFFFFFFFFFFFFFFFFFFFF3A
:1009E000FFFF101112131415161718191A1B1C1DCE
:1009F0001E1F202122232425262728292A2B2C2D9F
:100A00002E2F303132333435363738393A3B3C3D8E
:100A10003E3F404142434445464748494A4B4C4D7E
:100A20004E4F505152535455565758595A5B5C5D6E
:100A30005E5F606162636465666768696A6B6C6D5E
:100A40006EFFFFFFFFFFFFFFFFFFFFFFFFFFFFFF47
:100A5000FFFFFFFFFFFFFFFFFFFFFFFFFFFFFFFFA6
:100A6000FFFFFFFFFFFFFFFFFFFFFFFFFFFFFFFF96
:100A7000FFFF0FFFFFFFFF05FFFFFFFFFFFFFFFF70
:100A8000FFFFFFFFFFFF08FFFFFFFFFFFFFFFFFF6D
:100A9000FFFFFFFFFFFFFFFF09FFFFFFFFFF0AFF51
:100AA000FF0BFFFFFFFF0CFFFFFFFFFFFFFFFFFF3D
:100AB000FFFFFFFFFFFFFFFF0DFFFFFFFFFF0EFF29
:100AC000FFFF000000000000000000000000000028
:100AD0000000000000000000000000000000000016
:100AE000000000000000820086008E009E00BE0014
:100AF000FF03BE009E008E00860082000000000002
:100B00000000000000008200C200E200F200FA00D3
:100B1000FF03FA00F200E200C200820000000000C1
:100B20000000000000008601860186018601860122
:100B30008703860186018601860186010000000088
:100B4000000000007800840002010201020102019D
:100B500002018400480048004800860100000000AF
:100B60000000000000000000000000008200820081
:100B70008200820082008200C600BA0002000200E9
:100B8000020000000000FE0302000200020002005A
:100B900003000200020002000200FE030000000049
:100BA000000000000000FF01000100010001000141
:100BB00000030001000100010001FF01000000002E
:100BC0000000440000000000100038002800480029
:100BD00044008400FE000201020101020000000046
:100BE00000004400000000007800840002010201BF
:100BF00002010201020102018400780000000000ED
:100C00000000440000000000820082008200820098
:100C1000820082008200820044003C00000000004C
:100C2000000000001C00220022002200120012001E
:100C300012002200420082008200720000000000C8
:100C40000000000000002400000000003C00400004
:100C500040007800440042006200DC000000000018
:100C600000000000000024000000000038004400E4
:100C700082008200820082004400380000000000F0
:100C800000000000000024000000000042004200BC
:100C9000420042004200420062005C00000000008E
:100CA00000000000100028001000000000000000FC
:100CB0000000000000000000000000000000000034
:100CC0000000000000000000000000000000000024
:100CD0000000000000000000000000000000000014
:100CE00000000000100010001000100010001000A4
:100CF00010001000100000001000100000000000A4
:100D000000000000440044004400440000000000D3
:100D100000000000000000000000000000000000D3
:100D2000000000009000900048004800FE014800CC
:100D30002400FF0124002400120012000000000023
:100D400000002000F8002C002400240028003000BF
:100D50006000E000A000A000A4007C0020000000D3
:100D6000000000000E021101910051004E00200011
:100D70001000C801280224022202C1010000000064
:100D800000000000380044004400640038000C00FB
:100D90001202310221014101C200FC0100000000E9
:100DA0000000000010001000100010000000000003
:100DB0000000000000000000000000000000000033
:100DC00000000000800160003000100008000800F2
:100DD00008000800080008001000300060008001D2
:100DE0000000000006001800300020004000400015
:100DF0004000400040004000200030001800060085
:100E00000000000010001000D6006C002800380020
:100E100028000000000000000000000000000000AA
:100E200000000000000000000000000010001000A2
:100E300010001000FF011000100010000000000062
:100E400000000000000000000000000000000000A2
:100E50000000000000000000180018001000100042
:100E6000080000000000000000000000000000007A
:100E70000000FC0000000000000000000000000076
:100E80000000000000000000000000000000000062
:100E90000000000000000000180018000000000022
:100EA00000000000000180008000400040002000A1
:100EB00020001000100008000800040004000200D8
:100EC00000000000380044004400820082008200DC
:100ED00082008200820044004400380000000000CC
:100EE0000000000010001E00100010001000100094
:100EF00010001000100010001000FE0000000000A4
:100F0000000000003E004200400040004000200081
:100F1000200010000800040002007E000000000015
:100F2000000000003C00400040004000400038004D
:100F3000400040004000400040003C000000000035
:100F400000000000200030002800280024002200BB
:100F500022002100FF0020002000200000000000EF
:100F6000000000007C000400040004001C002000BD
:100F7000400040004000400020001C000000000035
:100F80000000000078000400040002003A0046005F
:100F900082008200820082004400380000000000CD
:100FA00000000000FE008000400020002000100033
:100FB0001000080008000800040004000000000001
:100FC000000000007C0082008200820064001800A3
:100FD000640042008200820042003C0000000000E9
:100FE000000000003800440082008200820082007D
:100FF000C400B8008000400040003C000000000039
:1010000000000000000000000000000018001800B0
:1010100000000000000000001800180000000000A0
:101020000000000000000000000000001800180090
:101030000000000000000000180018001000100060
:101040000800000000000000000000000001C000D7
:1010500030000C000C003000C00000010000000057
:101060000000000000000000000000000000000080
:10107000FE0100000000FE01000000000000000072
:1010800000000000000000000000000002000C0052
:101090003000C000C00030000C0002000000000062
:1010A000000000007E00C20082008000400020009E
:1010B0001000080008000000080008000000000000
:1010C0000000000078008400E2009300890089009D
:1010D000C900C900E900B20346007C00000000001E
:1010E0000000000000000000100038002800480048
:1010F00044008400FE000201020101020000000021
:1011000000000000000000007E008200820042001B
:101110003E0042008200820082007E00000000004B
:101120000000000000000000F8008600020001003E
:1011300001000100010002000600F80000000000AC
:1011400000000000000000003E004200820082001B
:10115000820082008200820042003E000000000007
:101160000000000000000000FE000200020002007B
:1011700002007E00020002000200FE0000000000EB
:101180000000000000000000FE000200020002005B
:1011900002007E00020002000200020000000000C7
:1011A0000000000000000000F0010C01040002003B
:1011B0000200C201020104010C01F0010000000064
:1011C0000000000000000000820082008200820017
:1011D0008200FE0082008200820082000000000087
:1011E0000000000000000000FE00100010001000D1
:1011F00010001000100010001000FE0000000000A1
:1012000000000000000000007800400040004000A6
:10121000400040004000400040003C000000000052
:1012200000000000000000008200420022001200C6
:101230000E000A001200620082000201000000009D
:101240000000000000000000020002000200020096
:1012500002000200020002000200FE000000000086
:101260000000000000000000C300C300C700A5008C
:10127000A500AD00990099008100810000000000E8
:101280000000000000000000820086008A008A0042
:1012900092009200A200A200C200820000000000A2
:1012A000000000000000000078008400020102013C
:1012B0000201020102010201840078000000000026
:1012C00000000000000000007E008200820082001A
:1012D00042003E0002000200020002000000000086
:1012E00000000000000000007800840002010201FC
:1012F0000201020102010201840078004000800125
:1013000000000000000000003E00420042004200D9
:1013100022001E0012002200420082000000000095
:101320000000000000000000FC0082000200060037
:101330001800600080008000C2003E000000000035
:101340000000000000000000FF011000100010006D
:10135000100010001000100010001000000000002D
:101360000000000000000000820082008200820075
:10137000820082008200820044003C0000000000E5
:1013800000000000000000000102020102018400D0
:101390008400440048004800300030000000000095
:1013A00000000000000000000102010212013201F1
:1013B00032012A014A01CC00CC0084000000000068
:1013C000000000000000000001020201840048004B
:1013D00030003000480084000201010200000000DB
:1013E000000000000000000001020201840044002F
:1013F0002800100010001000100010000000000075
:101400000000000000000000FE010001800040001C
:1014100020001000080004000200FE01000000008F
:1014200000000000F800080008000800080008009C
:101430000800080008000800080008000800F8007C
:101440000000000002000400040008000800100072
:1014500010002000200040004000800080000001BB
:10146000000000003E00200020002000200020009E
:1014700020002000200020002000200020003E004E
:1014800000000000200020003000500058004800FC
:1014900088008400840002010000000000000000B9
:1014A000000000000000000000000000000000003C
:1014B000000000000000000000000000FF0300002A
:1014C00000001000200000000000000000000000EC
:1014D000000000000000000000000000000000000C
:1014E0000000000000000000000000003C00400080
:1014F00040007800440042006200DC000000000070
:101500000000000002000200020002007A00460013
:10151000820082008200820046003A000000000043
:10152000000000000000000000000000F8000400BF
:1015300002000200020002000400F80000000000A7
:10154000000000008000800080008000B800C4001F
:101550008200820082008200C400BC000000000003
:10156000000000000000000000000000780084007F
:101570008200FE00020002000400F80000000000EB
:1015800000000000E001180008000800FE0108004B
:10159000080008000800080008000800000000001B
:1015A000000000000000000000000000B800C400BF
:1015B0008200820082008200C400BC0080004000E3
:1015C0003C000000020002000200020072008A00DB
:1015D00086008200820082008200820000000000FB
:1015E0000000000018001800000000001E0010009D
:1015F000100010001000100010001000000000008B
:101600000000000030003000000000003C0020001E
:1016100020002000200020002000200020002000CA
:101620001E000000020002000200020082006200B0
:1016300012000E000A00320042008200000000008A
:10164000000000003C0020002000200020002000BE
:1016500020002000200020002000200000000000CA
:10166000000000000000000000000000CD00330179
:1016700011011101110111011101110100000000FE
:1016800000000000000000000000000072008E005A
:10169000860082008200820082008200000000003A
:1016A00000000000000000000000000038004400BE
:1016B00082008200820082004400380000000000A6
:1016C0000000000000000000000000007A0046005A
:1016D000820082008200820046003A00020002007E
:1016E000020000000000000000000000B800C4007C
:1016F0008200820082008200C400BC008000800062
:10170000800000000000000000000000E4009400E1
:101710008C00040004000400040004000000000029
:101720000000000000000000000000007C0002003B
:1017300002000C003000400042003E0000000000AB
:10174000000000000000000008000800FE00080083
:1017500008000800080008000800F0000000000071
:1017600000000000000000000000000042004200F5
:10177000420042004200420062005C0000000000A3
:1017800000000000000000000000000001018200D5
:1017900082004200440024002800180000000000DD
:1017A0000000000000000000000000000102110223
:1017B000320132014A014A01CC00840000000000DD
:1017C0000000000000000000000000000201840092
:1017D0004800300030004800840002010000000092
:1017E00000000000000000000000000001020201F3
:1017F000020184004C004800300030001000080056
:10180000070000000000000000000000FE01800052
:1018100040002000100008000400FE01000000004D
:1018200000000000E0001000100010001000100088
:1018300010000C0010001000100010001000E0005C
:101840000000000010001000100010001000100038
:101850001000100010001000100010001000100008
:10186000000000001C0020002000200020002000BC
:101870002000C000200020002000200020001C00CC
:101880000000000000000000000000000000000058
:101890000E023102C1010000000000000000000043
:1018A0000000FF03EF03E103EF03EF03EF03EF0398
:1018B000EF03EF03EF03EF03EF030103FF03FF0366
:1018C000FF03FF03C103BD03BF03BF03BF03DF0368
:1018D000DF03EF03F703FB03FD038103FF03FF03B4
:1018E000FF03FF03C303BF03BF03BF03BF03C7035C
:1018F000BF03BF03BF03BF03BF03C303FF03FF0354
:10190000FF03FF03FF03FF03FF03FF037B03330317
:101910008703CF03870333037B03FF03FF03FF0327
:10192000FF03000000000000FF03FF0303000300AB
:101930000300030003000300FF03FF030000000097
:101940000000000000000000FF03FF030300FB0194
:10195000FB01FB01FB010300FF03FF03000000008C
:101960000000000000000000FF00FF008000800376
:101970000003000380038000FF00FF000000000060
:101980000000000000000000FF00FF008000BF0317
:101990003F033F03BF038000FF00FF000000000083
:1019A0000000000102010204082080041040881396
:1019B000E40C88132823E02E983A0000206900F8F0
:1019C00080FCE0FFC0051F000F78D39CFFFF640080
:1019D0006E00780082009600A000B400C800DC0011
:1019E000F0000E012C014A0168018601A401D60114
:1019F000FE0130026C02A802EE0234038E030102E3
:101A00000304050100080040000001000481115397
:101A10000F940D260CF40AF00911095008A6070FBF
:101A20000789061006A3053F05E40491044304FC5E
:101A300003B9037A033F030703D1029E026D023EFE
:101A4000020F02E101B20182014E010F01BA0387C8
:101A50000358032E030703E402C302A4028802EE24
:101A600059CB52AD4C6047BC42A43E003BBF37D07F
:101A7000342932C02F8C2D872BAC29F5275E26E523
:101A80002485233D220A21EA1FDC1EDD1DED1C0AF0
:101A90001C331B681AA719F01841189B17FD16650F
:101AA00016D5154A15C6144714CD135813E7127BE3
:101AB000121312AE114E11F010000066706E056D1B
:101AC000006B4D2D06072D002D022D002D012D0040
:101AD0002D032D00523200523100527400434D4FFD
:101AE000530054544C006846457200495F00745FCF
:101AF0006F666600745F6F6E004966004553520062
:101B0000565F4753286F6666290052647300495F29
:101B10006C00496473730023320023310041436F2A
:101B20006D70005663630052300043300031322044
:101B30003133203233002B52682D002B526C2D0094
:101B400052692B0052692D0052682B0052682D00FB
:101B50005672656600565400495F5200567468001C
:101B600043005666004963656F00565F4754005650
:101B700062650068464500504E50004E504E00438E
:101B800067730049474254006465702E00656E68B3
:101B90002E002D636800464554004D4F53007631AA
:101BA0002E35306D00726576006E6F0050686F7470
:101BB0006F64696F646500436F6E74696E756974F4
:101BC00079004F6666004469736368617267696E85
:101BD0006700526800526C004368617267696E6703
:101BE00000436170204C65616B61676500537461EF
:101BF000727400435452004E6F6E65004F70746FE4
:101C000020436F75706C6572005475726E20726936
:101C10006768742100526F7461727920456E636F3A
:101C2000646572004C6F6769632050726F62650073
:101C3000467265712E20436F756E74657200537124
:101C40007561726520576176650050574D003C4DB7
:101C5000656E7520546573743E00555342560048B6
:101C60007A004279652100505554005472696163CD
:101C70000053435200424A5400436865636B7375D6
:101C80006D0045786974004572726F72210042617F
:101C900074746572793F0053686F7274204369727F
:101CA0006375697421004372656174650052656DE6
:101CB0006F76650053686F772056616C75657300A9
:101CC0004C6F616400536176650041646A7573749A
:101CD0006D656E7400546573740053656C65637450
:101CE00000646F6E652100666F756E6421004E6F33
:101CF00020636F6D706F6E656E740054696D656FF3
:101D000075740050726F62696E672E2E2E00436FDD
:101D10006D706F6E656E742054657374657200002B
:101D200011241FBECFEFD0E4DEBFCDBF11E0A0E095
:101D3000B1E0EAE1FBE900E00BBF02C007900D92C1
:101D4000A631B107D9F722E0A6E1B1E001C01D92AA
:101D5000AD31B207E1F70E94742A0C948B4D0C94BC
:101D6000000003D002D001D000D000D003D002D0B8
:101D700001D000D0A89500D003D002D001D000D06F
:101D800000D003D002D001D000D000D003D002D0C8
:101D900001D000D000D003D002D001D000D000D0BC
:101DA00003D002D001D000D000D00000000000001D
:101DB0000895CF93DF938F71C82FC064C0937C00C8
:101DC000DC2FD07C8091C9018D1721F00E94CA0EB2
:101DD000D093C90180917A00806480937A008091C9
:101DE0007A0086FDFCCF20E030E0A90180E0E091A0
:101DF000C7018E17E8F0A091CA01B091CB01D0388D
:101E000021F0A091CC01B091CD010E941E4D2AE09D
:101E100096958795779567952A95D1F72E2F30E07F
:101E200050E040E00E94BE4CC901DF91CF9108957F
:101E300090917A00906490937A0090917A0096FD48
:101E4000FCCF6091780070917900260F371F411DFB
:101E5000511D843069F4211594E0390748F4D038D5
:101E600039F09091C801913019F4CF73C068A6CFB2
:101E70008F5FBDCFCF93C82F0E94C10E8C2FCF9103
:101E80000C94D90ECF93C82F0E94BF0E8C2FCF91E8
:101E90000C94D90E9091D3018CB58C7F90FD81600C
:101EA00091FD82608CBD92FB992790F99DBD0895AC
:101EB0008091C50183FD0EC084B1806B84B980E53B
:101EC0008CBD0E944A0F8DB58EB58091C50188608A
:101ED0008093C50108958EBD0DB407FEFDCF8EB56C
:101EE000089584B18C6184B92C9A2A9A84E08093F5
:101EF000D3010C944A0F2B982C980E946B0F2C9AAC
:101F000008952B9A2C980E946B0F2C9A0895CF93CA
:101F1000C82F2B9A2C98892F0E946B0F8C2F0E9410
:101F20006B0F2C9ACF9108958AE20E947B0F8091CB
:101F30001F01909120010E94870F809117019091BD
:101F400018010E94870F8BE20E947B0F80911D0178
:101F500090911E010E94870F8091190190911A01A2
:101F60000C94870F8093420160934301615060316C
:101F700090F441E050E0062E02C0440F551F0A9431
:101F8000E2F720911B0130911C01242B352B30935B
:101F90001C0120931B0181502AE0829FC001112463
:101FA00001969093200180931F0180E1689FB0010A
:101FB00011246E5F7F4F70931E0160931D01089581
:101FC0000F931F93CF93682FA89581E0611104C0F0
:101FD00060914301809142016131E0F49FEF960FDF
:101FE00021E030E002C0220F331F9A95E2F74091C2
:101FF0001B0150911C01FA01E223F323EF2B41F165
:10200000813041F4209530952423352330931C01F1
:1020100020931B010E94B20F82EA90E09093180176
:102020008093170180911D0190911E019C01215FF9
:102030003F4F2238310580F430931A012093190163
:10204000C0E10E94940F8CE20E947B0FC1110DC071
:10205000CF911F910F910895C2E8C81B81E890E0CD
:1020600090931A0180931901ECCF00911F011091F8
:102070002001033A110510F0C150E8CF90E080E054
:102080000E94870F0F5F1F4FF4CFCF93C1E08C2FBB
:102090000E94E00FCF5FCA30D1F761E081E0CF91BD
:1020A0000C94B20F2A980E94CF0E2A9A85E090E0F5
:1020B0000E94482C86E30E947B0F80E20E94810FE1
:1020C0008AE30E947B0F85E00E94810F109220011D
:1020D00010921F0181EA90E09093180180931701FC
:1020E00010921E0110921D018FE790E090931A014B
:1020F000809319010E94940F83E790E00E94482C7E
:1021000081E10E947B0F88E790E00E94482C89E2E1
:102110000E947B0FE1E4F1E080E1838388E0848327
:1021200083E0838782E084878FEF9FEF90931C0189
:1021300080931B010C9445109F92AF92BF92CF9257
:10214000DF92EF92FF920F931F93CF93DF93E82FCD
:1021500080914201813108F04AC0F0E0EE53F64F21
:10216000C491CF3F09F443C090E2C99FE00111241C
:10217000CE53D54F609143010E94B20F80911F0151
:1021800090912001099690931801809317018091F6
:102190001D0190911E010F9690931A0180931901D1
:1021A0000E94940FA0904701B09048018CE20E94D9
:1021B0007B0F6E01E0E2CE0ED11C7E01F2E0EF0E4D
:1021C000F11C0AE0102F093008F018E0011BFE0195
:1021D0009490111118C02196CE15DF0599F7CC16F1
:1021E000DD0659F7809142018F5F80934201DF91B4
:1021F000CF911F910F91FF90EF90DF90CF90BF9004
:10220000AF909F900895C50190FC02C090E080E0DF
:102210000E94870F96941150DCCFCF93C82F68E0AF
:1022200080E10E94B20F8EE3C11101C080E2CF9124
:102230000C949C109F92AF92BF92CF92DF92EF923C
:10224000FF920F931F93CF93DF9390E8899FE00154
:102250001124CE53DF4F60914301809142010E94CF
:10226000B20F80911F01909120014D96909318011B
:102270008093170180911D0190911E014F969093BC
:102280001A01809319010E94940FA0904701B09009
:1022900048018CE20E947B0F6E01E0E8CE0ED11C5B
:1022A0007E01F4E0EF0EF11C0EE1102F093008F072
:1022B00018E0011BFE019490111118C02196CE1553
:1022C000DF0599F7CC16DD0659F760914F016F5F76
:1022D00081E0DF91CF911F910F91FF90EF90DF9000
:1022E000CF90BF90AF909F900C94B20FC50190FC1F
:1022F00002C090E080E00E94870F11509694DCCFDE
:10230000CF92DF92EF92FF920F931F93CF93DF93C1
:102310007C010E94940F00911701109118010F5F2A
:102320001F4F80911F0190912001081B190BC09134
:102330001901D0911A01219680911D0190911E01E1
:10234000C81BD90B8CE20E947B0F2097A1F4DF9170
:10235000CF911F910F91FF90EF90DF90CF90089554
:10236000C7010E94870F81E0C81AD108C114D104A7
:10237000B9F72197EACF6801F9CF1F93CF93DF9385
:10238000EC0180914201813108F04EC0162F60911E
:1023900043010E94B20F80911F019091200143964A
:1023A000909318018093170180911D0190911E0157
:1023B0009C01235F3F4F30931A012093190102962D
:1023C00090931E0180931D018FEF96E00E94801173
:1023D00080911D0190911E01019690931E018093A2
:1023E0001D018091190190911A01019790931A0192
:1023F000809319011330E1F420911F0130912001E5
:10240000C90103969093200180931F01245F3F4FE1
:102410003093180120931701CE010E948011809102
:1024200042018E5F80934201DF91CF911F91089509
:102430002091170130911801C90103979093180159
:10244000809317012C5031093093200120931F01F4
:10245000E3CF6150860F0895E5E0F2E088EC90E06C
:10246000918380838CED90E09383828384E190E07C
:102470009583848397838683918780878BE2828785
:10248000838784871586168617860895E5E0F2E02F
:1024900080E09191890F92E0E531F907D1F7811140
:1024A00001C081E00895EF92FF920F931F93CF93A5
:1024B000DF93E82EC1E1D0E0623011F4C0E0D0E05B
:1024C0000E9446128093150281E1F82E05E012E089
:1024D00082E0E8122FC0F8016081CE010E947D4D9C
:1024E0000F5F1F4F2196FA94F110F2CFF2E0EF1632
:1024F00039F10E94461290911502992309F198171B
:10250000F9F00E94451082E00E947B1D89E79CE162
:102510000E94C11C87E89CE10E942E1D80ED97E07F
:102520000E94482CDF91CF911F910F91FF90EF9067
:102530000C942C12CE010E94754DF8018083D0CFEF
:10254000DF91CF911F910F91FF90EF90089581E05F
:10255000809341010E94451084E49BE10E94201D6C
:10256000609105027091060290E080E024E04FEF58
:102570000E94E91D80E49BE10E94381D60910702E2
:102580007091080290E080E024E04FEF0E94E91D86
:102590008AE29BE10E94381D60910F0270E090E09A
:1025A00080E020E040E00E94E91D0E94171D60913C
:1025B000100270E090E080E020E040E00E94E91D21
:1025C0000E94171D6091110270E090E080E026E407
:1025D00044EF0E94E91D87E29BE10E94381D609153
:1025E000090270910A0290E080E020E04EEF0E9424
:1025F000E91D0E94171D60910B0270910C0290E082
:1026000080E020E04EEF0E94E91D0E947B1C0E94AA
:10261000171D60910D0270910E0290E080E024E0A1
:102620004EEF0E94E91D80E59BE10E94381D6091FC
:10263000CA017091CB0190E080E026E54DEF0E9449
:10264000E91D83E29BE10E94381D6091CC017091ED
:10265000CD0190E080E026E54DEF0E94E91D8091DC
:10266000C50182FF05C00E94171D8AE20E949C10CE
:102670008DE19BE10E94381D60911302062E000C33
:10268000770B880B990B26E54DEF0E94921E0C9458
:10269000E0492F923F924F925F926F927F928F927A
:1026A0009F92AF92BF92CF92DF92EF92FF920F93E1
:1026B0001F93CF93DF93CDB7DEB761970FB6F89432
:1026C000DEBF0FBECDBF81E00E94EF49811176C20F
:1026D0002AE0288B612C512C412C1F86312C212C77
:1026E0001E861D861C861B861A8619861886198AE0
:1026F0001F821E821D821C821B821A82912CD12C69
:10270000C12CF12CE12C10E000E08824839454E0EB
:10271000752EEBC00E9445100E94691D81E40E9445
:102720009C108889805D0E949C100E94741D0E94EC
:10273000171D3889333009F4D5C140F4313009F41C
:1027400072C0323009F483C181E093C0888985303A
:1027500009F4F7C108F4CDC18630B1F78AE29BE1F4
:102760000E94201D8DE29BE10E94B31C40E060E0CE
:1027700081E00E942C1B80917901843FA9F4809113
:102780007E0190917F01A0918001B09181018536F9
:102790009105A105B10540F48C012A813B81280FE8
:1027A000391F3B832A83939441E060E082E00E94DA
:1027B0002C1B80918701843FA9F480918C0190911A
:1027C0008D01A0918E01B0918F0185369105A105F3
:1027D000B10540F47C012C813D81280F391F3D83D8
:1027E0002C83939442E061E082E00E942C1B809154
:1027F0009501843F09F0A8CF80919A0190919B01A7
:10280000A0919C01B0919D0185369105A105B1056E
:1028100008F09ACF6C012E813F81280F391F3F832A
:102820002E83939491CF80E59BE10E94201D8DE142
:102830009BE10E94B31C0E94DC1B680E0E947B1C63
:1028400060911202062E000C770B880B990B26E57F
:102850004DEF0E94921E0E94171D60911302062EDA
:10286000000C770B880B990B26E54DEF0E94921E0A
:1028700080E011B812B81AB81BB88823D9F00E94AA
:102880007B1CB80190E080E020E040E00E94E91D60
:102890000E94171DB70190E080E020E040E00E9418
:1028A000E91D0E94171DB60190E080E020E040E0A5
:1028B0000E94E91D3981343671F060E188EE93E0C1
:1028C0000E949A48882339F0823009F071C184E669
:1028D000888B94E6998339813F5F3983998196305B
:1028E00008F418CF28892F5F288B8889873008F44F
:1028F00062C19FE0991265C125E030E08A819B8129
:10290000B9010E94964C60930F028C819D81B901A0
:102910000E94964C609310028E819F81B9010E94A3
:10292000964C6093110221E0298339893F3001F5EB
:1029300025E030E088859985B9010E94964C709316
:102940000A02609309028A859B85B9010E94964C10
:1029500070930C0260930B028C859D85B9010E94D7
:10296000964C70930E0260930D0289818F5F89836C
:102970009E859F3009F067C02F852F3009F063C016
:10298000E5E0F0E0C101BF010E94964C9B01C2014D
:10299000BF010E94964C8B018091CC019091CD019A
:1029A0006C01CC0CDD1CC80ED91EC21AD30AC61A83
:1029B000D70AF12CE12CD90120EA39E041E050E0BE
:1029C0000E941E4DA70196010E94BE4CCA01B9018A
:1029D0006B5F7F4F8F4F9F4F2AE030E040E050E029
:1029E0000E94BE4C2A3F31054105510538F4309311
:1029F00006022093050239813F5F3983D80120EA1E
:102A000039E041E050E00E941E4DA70196010E946E
:102A1000BE4CCA01B9016B5F7F4F8F4F9F4F2AE0B9
:102A200030E040E050E00E94BE4C283181E03807A1
:102A30004105510540F4309308022093070295E0C8
:102A4000691609F4C0C00E94A71280E0C3C087E2E3
:102A50009BE10E94201D8DE29BE10E94B31C40E09F
:102A600060E081E00E94952C80E00E94D9308C01CA
:102A70008639910548F428853985280F391F39870B
:102A8000288739893F5F398B40E060E082E00E940F
:102A9000952C80E00E94D9307C0186E9E816F1048B
:102AA00048F42A853B852E0D3F1D3B872A873989AF
:102AB0003F5F398B40E061E082E00E94952C80E02E
:102AC0000E94D9306C0186E9C816D10408F03CCECA
:102AD0002C853D852C0D3D1D3D872C8739893F5F19
:102AE000398B32CE80E00E94EF4980E094E69983F2
:102AF000C0CE84E49BE10E94B31C12B881B87BB8BD
:102B00007AB880E00E943A0F8C0122E021B930E1CE
:102B10003BB93AB981E00E943A0F7C015801A80EF6
:102B2000B91E2A0C3B1C71B880E48BB98AB982E0CB
:102B30000E943A0F6C01280E391E9E859D5F9E876C
:102B400003CE80E49BE10E94B31C1BB882B881B81D
:102B50007AB80091CC011091CD0180E00E943A0F2B
:102B6000081B190B22E022B921B930E13AB9E090F3
:102B7000CC01F090CD0181E00E943A0FE81AF90AE9
:102B80005801AE0CBF1C4A0C5B1C72B871B880E4D3
:102B90008AB9C090CC01D090CD0182E00E943A0F5A
:102BA000C81AD90A4C0C5D1C9F859D5F9F87CCCDB0
:102BB00024E6298390CE81E0898390CE31E0388B62
:102BC00089CD1982B2CE0E94A71281E029812330DB
:102BD00009F03BCF61960FB6F894DEBF0FBECDBFB4
:102BE000DF91CF911F910F91FF90EF90DF90CF90E9
:102BF000BF90AF909F908F907F906F905F904F901D
:102C00003F902F9008952F923F924F925F926F9234
:102C10007F928F929F92AF92BF92CF92DF92EF926C
:102C2000FF920F931F93CF93DF9381E00E94EF49B0
:102C3000811114C081E0DF91CF911F910F91FF901E
:102C4000EF90DF90CF90BF90AF909F908F907F904C
:102C50006F905F904F903F902F900895D12CC12C92
:102C6000F12CE12C10E000E0C1E0D1E098E0292E49
:102C700020E2322E34EF432E36E0532E612C712C9D
:102C80006AC0C53009F4E2C008F4DAC0C63009F001
:102C90007AC088E49BE10E94B31C2BB82AB880E07C
:102CA0000E94420F8C013BB83AB881E00E94420F6B
:102CB0007C0180E88BB9DAC08EE10E94D90E8EE1EA
:102CC0000E94D90E5C0180E59BE10E94B31C0E942A
:102CD0007B1CB50190E080E026E54DEF0E94E91DE8
:102CE00080E01AB81BB8882309F10E947B1C20E001
:102CF00040E0B801012E000C880B990B0E94921E37
:102D00000E94171D20E040E0B7010F2C000C880B3B
:102D1000990B0E94921E0E94171D20E040E0B60110
:102D20000D2C000C880B990B0E94921ED43659F082
:102D300060E188EE93E00E949A48882321F0823077
:102D400009F49AC0D4E6DF5FD63028F0CF5FC730F1
:102D500008F070CFD1E00E9445100E94691D84E503
:102D60000E949C1080E38C0F0E949C100E94741D96
:102D70000E94171DC330D9F108F083CFC13009F488
:102D80009BCFC23011F081E0ACCF8BE39BE10E947E
:102D9000201D8DE29BE10E94B31C2091CC0130915B
:102DA000CD01A0E7B3E00E94084DA30192010E946B
:102DB000E04C490184E08BB984E18AB982E00E9449
:102DC000420F6C01C818D90884E48AB981E00E94D6
:102DD000420F7C01E818F90880E18BB980E58AB9D7
:102DE00080E00E94420F8C0108191909CCCF86E3BC
:102DF0009BE10E94201D8DE29BE10E94B31C00918B
:102E0000CC011091CD01169507952BB888E28AB9AF
:102E100082E00E94420F6C01C01AD10A88E88AB988
:102E200081E00E94420F7C01E01AF10A3BB880EA7F
:102E30008AB980E00E94420F801B910B8C01A3CFC6
:102E400080E00E94EF4980E0D4E64BCF8CE49BE128
:102E50000E94B31C1BB82AB880E00E94420F8C016C
:102E60003AB881E00E94420F7C0180E88AB982E092
:102E70000E94420F6C0187CFC4E664CF16BC81E08C
:102E800085BDA99BFECF15BC82E085BB08952F921E
:102E90003F924F925F926F927F928F929F92AF92EA
:102EA000BF92CF92DF92EF92FF920F931F93CF9337
:102EB000DF9300D000D0CDB7DEB70097E9F42FEF55
:102EC0003FEF3C832B838B819C810F900F900F9061
:102ED0000F90DF91CF911F910F91FF90EF90DF90B6
:102EE000CF90BF90AF909F908F907F906F905F90AA
:102EF0004F903F902F9008959C838B83FC016381BA
:102F0000748185819681A7EFEA2E0AE010E020E027
:102F100030E042810E940A4787FDD1CF0E94992D5F
:102F200080912101813059F2EB81FC8161818081A6
:102F30000E944F2D40E0EB81FC81618180810E94E5
:102F4000952C0091020280910302006880688A83B8
:102F500015BC82E084BD85E387BD12B800937C0078
:102F60000E94C00EFFEFF983812C912C54018394B1
:102F7000412C512C3201439490E080E062E3C62E54
:102F8000D12C17EDA895C29758F48091000281B911
:102F90008091F9018BB98AB90E94D30E1AB81BB877
:102FA00022E3C216D10458F48091FF0181B98091C7
:102FB000FA018BB98AB90E94D30E1AB81BB8809156
:102FC000FF0181B98091F9018BB98AB900937C0026
:102FD00010937A0080917A0086FDFCCF10937A00DE
:102FE00080917A0086FDFCCF2090780030907900A7
:102FF0003A8130937C0010937A0080917A0086FDAC
:10300000FCCF10937A000E94CF0E0E943E17809151
:10301000FA018BB98AB90E94D30E1AB880917A004E
:1030200086FDFCCFC0907800D0907900809100029E
:1030300081B98091FA018BB98AB98A8180937C0029
:1030400010937A0080917A0086FDFCCF10937A006D
:1030500080917A0086FDFCCFE0907800F0907900B6
:1030600000937C0010937A0080917A0086FDFCCF5B
:1030700010937A000E94CF0E0E943E178091F901B2
:103080008BB98AB90E94D30E1AB880917A0086FD56
:10309000FCCF8091780090917900A70170E060E00A
:1030A000420D531D611D711D440E551E661E771E77
:1030B000AC0170E060E04C0D5D1D611D711D840E62
:1030C000951EA61EB71EE981E150E983E1115ACF92
:1030D00011B81BB8481459046A047B0408F052C0A4
:1030E00080910502909106022AE0289FD001299F35
:1030F000B00D1124A5019401241935094609570979
:103100000E941E4DA30192010E94BE4C6901609174
:10311000F4018091F3010E942912E82FF0E0EE0FF4
:10312000FF1FE75FFD4F808191818C159D0558F44D
:103130009601281B390B3C832B8380E88093C901BF
:103140000E94992DC0CEEB81FC81638174818581C1
:1031500096812AEFE22E08EE13E020E030E0428173
:103160000E940A4721E030E03C832B83181614F4B8
:103170001C821B828B819C819195819591099C83F6
:103180008B83DBCFEFEFFFEFFC83EB83D6CF5F9238
:103190006F927F928F929F92AF92BF92CF92DF9267
:1031A000EF92FF920F931F93CF93DF937C0152E036
:1031B000A52EB12C61E1662E73E0772E0E94992D29
:1031C00080912101813009F417C112B88091000269
:1031D00081B91BB81AB8809102020E94D90E6C0105
:1031E00010E000E00F5F1F4F662D8091F9010E94F3
:1031F000602E809102020E94D90EC816D90608F0EE
:10320000FDC0EC01CC19DD090E37110509F0FCC039
:10321000CB34D10530F480E009C0AA24A394B12CAA
:10322000CDCF81E0CC32E1E0DE07A8F7A89581118F
:10323000D9CFCC32F1E0DF0710F47724739401305A
:103240001105E1F4C53185E0D807C0F039E0632EFF
:10325000AA94AB2811F722E0722E872DDF91CF912F
:103260001F910F91FF90EF90DF90CF90BF90AF90A4
:103270009F908F907F906F905F900895E3E048015A
:1032800030E020E07E12E9CF8091020281149104A7
:1032900009F089C0D12CC12C2C173D0740F46E01D8
:1032A000C21AD30A95E6C916D10408F086C00E9456
:1032B000D90E5C01E62DE0715E2E09F480C00E94FB
:1032C000B50E809102020E94D90E8A159B0518F452
:1032D0004501881A990AF3E07F12BFCF62E0C60168
:1032E0008C0F9D1F0E947C2E9801DC010E94084DCE
:1032F0005B016C01552009F495C0AAE0B0E0AC0177
:103300009B010E941E4D5B016C0188E3A81689E8B1
:10331000B80681E4C806D10408F499C0C601B50115
:1033200028EE33E040E050E00E94BE4C59016A01B3
:10333000A8EEB3E00E941E4DCAEF552009F482C0EA
:1033400022E434E040E050E00E94BE4C8091F40161
:10335000F70180838091F3018183C283A782B086C5
:10336000C186D28623833483458356839AE0A92E6F
:10337000B12CC12CD12C2130F5E33F07FCE04F07E5
:10338000510500F5D4010E941E4D28EE33E040E0C7
:1033900050E00E94BE4C63FCCF5F8AE0882E912CE7
:1033A000A12CB12C1EC0F1E08F1A91080E94D90EF9
:1033B0009C012C193D09A89567CF712C78CF0E94EC
:1033C000BA0E7FCFCA01B901A60195010E94BE4C79
:1033D000CF5FD1CFCA01B901A50194010E94BE4CB3
:1033E000CF5F2115310581E04807510598F7F701B6
:1033F00034872387C58731CF712C2FCFD0E0C0E031
:103400000E37110509F407CF043F81E0180709F0D2
:1034100008CFA895CC3291E0D90708F02FCF7724B8
:1034200073941BCFF8E3AF16F9E8BF06F1E4CF06BB
:10343000D10408F073CFA8EEB3E0A60195010E9475
:103440001E4DC7EF20E134E040E050E07DCFA8EE14
:10345000B3E0A60195010E941E4DC7EF71CFCF9238
:10346000DF92EF92FF921F93CF93DF93EC010E94C4
:10347000992D80912101813009F4EAC01BB897E0B1
:1034800091B912B88091FC018AB980E480937B00E5
:1034900084E480BF80910202806480937C009093DA
:1034A0007A000E94C90E1092800010928100109242
:1034B00085001092840087E286BB8091FC018BB965
:1034C000809121018F3109F0BAC08091FF01809570
:1034D000877091E09093810081B990E080E031E0C5
:1034E00026B325FD09C020FFFBCF36BBA89501966A
:1034F000803A4FE09407A1F71092810030E236BB8A
:10350000C0908600D09087001AB8409184005091F6
:103510008500C416D50628F420FF03C021E026BB91
:10352000019627E920937A0020917B002F7B20933E
:103530007B001BB82091FC012AB9803A5FE0950717
:1035400008F088C0A60170E060E0B0E0A0E07C0177
:10355000DD24CC24C42AD52AE62AF72A83E0C8161B
:10356000D104E104F10408F46DC022E0C21AD108CC
:10357000E108F10838E3C31639E8D30631E4E3067D
:10358000F10408F45FC0C701B60128EE33E040E063
:1035900050E00E94BE4C69017A0117EF209113029E
:1035A0008091CA019091CB0161E0820F911D27FDAE
:1035B0009A950E947C2EDC01A70196010E941E4D67
:1035C00020ED37E040E050E00E94BE4C69017A01F6
:1035D000DA01C901143FD9F46091F4018091F3013B
:1035E0000E942912E82FF0E0EB5FFD4F828590E00A
:1035F000B0E0A0E0C816D906EA06FB0628F1A7014C
:103600009601281B390B4A0B5B0BDA01C90120918B
:10361000F40128832091F30129831A83CF82D8866D
:10362000E986FA868B839C83AD83BE8383E0DF913A
:10363000CF911F91FF90EF90DF90CF9008958091F0
:10364000000247CF14EFAACF80E090E0DC01DFCF8B
:1036500080E0EDCF81E0EBCF9F92AF92BF92CF920F
:10366000DF92EF92FF920F931F93CF93DF93C42EBD
:10367000D12C2EE0429FF0011124E958FE4F108218
:10368000118294EF9283178210861186128613821C
:10369000148215821682148613869091210191302E
:1036A00009F469C0C42F962EF82E8CE2A82E81E072
:1036B000B82ED0E09A3009F457C0692D8F2D0E94A2
:1036C000C734009709F063C02EE0C29FE0011124C7
:1036D000C958DE4F40E0692D8F2D0E94952CCE01F8
:1036E0000E94C718823019F4CE010E942F1A9091BF
:1036F0002101943188F48EE08C9DF0018D9DF00DB8
:103700001124E958FE4F82819A3009F048C08A3F5F
:103710001CF08BE0809321010E94992D11B812B802
:103720001AB81BB828C0F50180818F1114C081819F
:10373000891116C0F5016381748185819681E12C20
:103740000AE010E020E030E042810E940A478F3F0B
:1037500039F4D3E605C0891103C081818F1551F377
:10376000DF5FF7E0AF0EB11C80912501D817D8F2CA
:10377000D43609F4A2CFDF91CF911F910F91FF9022
:10378000EF90DF90CF90BF90AF909F900895FC0195
:10379000828193818C3D954008F096CFECCF853F98
:1037A0000CF0B7CF83819481A581B6810597A105DF
:1037B000B10508F0AECFB0CF0F931F93CF93DF9337
:1037C0000F983D9A4598C3E387E00E94D90E03976E
:1037D00060F084E190E00E94482CC150A9F780E09D
:1037E000DF91CF911F910F91089580E480937B002A
:1037F00084E480BF87E480937C0087E080937A0034
:103800000E94C90E109280001092810010928500D3
:103810001092840087E286BB81E080938100459A04
:10382000D0E0C0E091E086B385FD09C080FFFBCF0A
:1038300096BBA8952196C03A2FE0D207A1F7109227
:10384000810080E286BB3D98B09B02C081E086BBD0
:1038500087E980937A0080917B008F7B80937B0047
:1038600087E00E94D90E8C0145983D9AC03ADF400E
:1038700009F4B5CF87E00E94D90E853D9340D0F77B
:103880003D981092C80187E00E94D90EEC0181E0BA
:103890008093C80187E00E94D90EAC013D9ADE01F9
:1038A000A81BB90BC091CA01D091CB01CD010496E0
:1038B0000997A8F09E010E94174D9A0150E040E040
:1038C0000E94E04C80911202820F80931202C20F7C
:1038D000D11D27FDDA95D093CB01C093CA010C1BF3
:1038E0001D0B98012F5C3F4F2336310510F40093D8
:1038F000130281E075CFCF93609143018091450120
:10390000861318C0C0914101C0FD0E94E049C1FF6B
:103910000EC0C0914501C23028F462E081E0CF9131
:103920000C94B20F8C2F0E94E00FC150F4CFCF91B6
:103930000C9445106F5FF2CFCF93C09145018091F9
:103940004301C8130EC00E94E0498C2F0E94E00F73
:103950006C2F81E00E94B20F84EF91E0CF910C9424
:10396000482CCF910895CF93DF93EC01FE01849111
:10397000811103C0DF91CF9108950E949C10219680
:10398000F5CFCF93DF93EC01FC019E2F9C1B84911C
:10399000811110C080914401891770F0891B8695B0
:1039A0008F5F609143010E94B20FCE01DF91CF91F2
:1039B0000C94B31C3196E9CF81E0F3CF0F931F93A2
:1039C000CF93DF93C1E4D1E00E811F81E82FF0E0B7
:1039D000EE0FFF1FE050FF4F208131813F832E8388
:1039E0008F5C0E949C101F830E83DF91CF911F91EB
:1039F0000F9108950F931F93CF93DF93C1E4D1E00C
:103A00000E811F81E82FF0E0EE0FFF1FE050FF4F07
:103A1000208131813F832E830E94FC210E949C10D3
:103A20001F830E83DF91CF911F910F91089580E244
:103A30000C949C108DE20C949C108AE30C949C10C6
:103A40000E94B31C0C94171DCF93DF93EC010E94CE
:103A50007B1CCE01DF91CF910C94B31CCF93DF93ED
:103A6000EC010E947B1CCE01DF91CF910C94C11C14
:103A7000CF93DF93EC010E947B1CCE010E94B31C0C
:103A8000DF91CF910C94171D82E00E94E00F62E05D
:103A900081E00C94B20F83E00E94E00F63E081E0CC
:103AA0000C94B20F0F931F93CF93DF93C1E4D1E037
:103AB0000E811F817F836E830E94B31C1F830E8340
:103AC000DF91CF911F910F9108950E94521D0C9488
:103AD000171DE1E4F1E0868197819187808780EE70
:103AE0009FEF978386830895E1E4F1E080859185D7
:103AF00097838683089560914501861730F4681B8B
:103B000066956F5F81E00C94B20F61E0FBCFCF92BE
:103B1000DF92EF92FF920F931F93CF93DF936B018E
:103B20007C01D42F022F0E94691D2AE04BE651E050
:103B3000C701B6010E94294D8BE691E0FC0101907E
:103B40000020E9F7CF018C569140F82EC4E6DD2322
:103B500059F08D17F8F0C82FCD1BD0E029F480E381
:103B60000E949C10DC2FC0E08BE6C82E81E0D82E8E
:103B700010E01F1590F00E94741D002309F1802FA2
:103B8000DF91CF911F910F91FF90EF90DF90CF9039
:103B90000C949C10CD2FC81BE2CF1C1305C08EE2E5
:103BA0000E949C10D11107C0F60181916F010E9403
:103BB0009C101F5FDECF80E30E949C10D150F2CF9B
:103BC000DF91CF911F910F91FF90EF90DF90CF90F9
:103BD00008958F929F92AF92BF92CF92DF92EF9211
:103BE000FF920F931F93CF93DF936B017C01C42F40
:103BF000022F9AE0892E912CA12CB12C80E1C816BD
:103C000087E2D806E104F10408F05FC0C13F0CF47C
:103C10006AC08FE08C0F23E0622F0E94884CD92F5E
:103C2000992319F08F5F291BD22F883008F05CC0D0
:103C3000E82FF0E0E554F54E14910E94691D4AE02A
:103C40006BE671E0C6010E944B4D2BE631E0F901B5
:103C500001900020E9F79F012C563140B22EC22F6F
:103C6000CD1B1C165CF080E30E949C108EE20E942B
:103C70009C10CC2319F080E30E949C10D11101C04C
:103C8000CFEFC1508BE6C82E81E0D82EF12CE12C6D
:103C90000C2E000CDD0BEB1448F10E94741D112357
:103CA00019F0812F0E949C10002379F1802FDF9161
:103CB000CF911F910F91FF90EF90DF90CF90BF9029
:103CC000AF909F908F900C949C10C701B6016B5FD2
:103CD0007F4F8F4F9F4FA50194010E94BE4C6901F9
:103CE0007A01CF5F8BCFD0E010E0A7CFF6018191B2
:103CF0006F010E949C10CE15DF0519F48EE20E9420
:103D00009C10FFEFEF1AFF0AC6CFDF91CF911F91F2
:103D10000F91FF90EF90DF90CF90BF90AF909F906A
:103D20008F900895CF92DF92EF92FF92CF93DF931F
:103D30006B017C01C42FD22FF7FE0EC00E94691DBB
:103D40000E941A1D0E94741DF094E094D094C094B7
:103D5000C11CD11CE11CF11C2D2F4C2FC701B60139
:103D6000DF91CF91FF90EF90DF90CF900C94E91D01
:103D7000FC01362F242F8CE0860F63E00E94884CD4
:103D8000913059F4E436F10540F48AE0AF01849FA4
:103D9000F001859FF00D11243150BF0190E080E0CB
:103DA000432F0C94E91DCF93C82F80912A01E82F4F
:103DB000EE0FE80FE60FFF27FF1FE457FF4FE491D8
:103DC000EE2389F120914E018FEF820F60914F0118
:103DD000E4FF04C090914D019695690F3E2F32701B
:103DE000E1FF0AC090914C01890FE5FF03C0892FC4
:103DF0008695820FE3FD6150E2FF06C090914D0170
:103E0000690F311101C061500E94B20F8C2F0E94C6
:103E1000FC21883721F48C2FCF910C94FA1C8C2F25
:103E2000CF910C94DE1CCF9108950F931F93CF93E5
:103E300020914D013091450193E0920F3917E8F13F
:103E400090914401903120F02F5F280F2317C8F183
:103E5000309343010E947B1C93E083E090934E01DA
:103E600080934F01C091430160E08091D4010E9492
:103E7000D31E61E08091D5010E94D31E62E0809143
:103E8000D6010E94D31E009147011091480180EE97
:103E90009FEF909348018093470160914F0180917B
:103EA0004E010E94B20F80912A010E941A111093B4
:103EB000480100934701C0934301CF911F910F9197
:103EC00008959F5F20914C01921BC8CFBF92CF9263
:103ED000DF92EF92FF920F931F93CF93DF93F62E13
:103EE0008A014AE06BE671E00E944B4D8BE691E05F
:103EF000FC0101900020E9F7CF018C569140E82E9B
:103F0000CBE6D1E0B12CD12CC12CCE14E8F0F7FCDB
:103F10002BC0EF2DEE0FFF0BE654F64E85919491DA
:103F2000B82ED92E63E08B2D9D2D0E94BD1164E02B
:103F3000C801DF91CF911F910F91FF90EF90DF901B
:103F4000CF90BF900C94BD11E991E053F0E0EE0FDB
:103F5000FF1FE654F64E85919491B82ED92E63E05A
:103F60000E94BD11C394D1CFFFEFFF1641F08EEF39
:103F7000F812D8CF26E0B22E36EFD32ED3CF8CE175
:103F8000B82E97EED92ECECFCF92DF92EF92FF923E
:103F90000F931F93CF93DF93009759F410E0812F75
:103FA000DF91CF911F910F91FF90EF90DF90CF9015
:103FB0000895162FEC010E94992D809121018130E6
:103FC00069F31BB812B88091FF01012F017010FF37
:103FD000A7C09091FA019AB981B987E080937A00DD
:103FE00080E480937B0080910302806880937C0052
:103FF00084E480BF0E94C50EA895109280001092A4
:104000008100109285001092840087E286BB909117
:10401000FF01612F647012FF88C092B984E1000033
:104020008150E9F78091810081608093810090E068
:1040300080E021E046B345FD7FC040FFFBCF26BBBB
:10404000019680359105B1F710E01092810020E2D1
:1040500026BBC0908600D09087005091FA017091E5
:10406000F901572B5AB911B8E0918400F0918500FD
:10407000CE16DF0628F440FF03C041E046BB0196A0
:1040800047E940937A0040917B004F7B40937B004F
:10409000112309F441C0F12CE12CB0E0A0E0AC0107
:1040A00033272227C22AD32AE42AF52A84E066236A
:1040B00031F08FE4C80ED11CE11CF11C83E0002319
:1040C000E9F18D5F90E0B0E0A0E020E030E0A901F0
:1040D0008C159D05AE05BF0530F4A7019601281B80
:1040E000390B4A0B5B0BA4EFB1E00E941E4D6B5FD6
:1040F0007F4F8F4F9F4F2AE030E040E050E00E941A
:10410000BE4C288339834A835B830023C9F0223E57
:10411000344041055105C8F080E88093C9013FCF84
:104120001AB890910002892B57CF8091810081604D
:104130008093810092B97BCF13E087CF8F5FC2CF8E
:10414000253631054105510538F712E0E5CF4F928C
:104150005F926F927F928F929F92AF92BF92CF9217
:10416000DF92EF92FF920F931F93CF93DF9300D0D4
:1041700000D0CDB7DEB7109216021092170210923F
:1041800018021092190210921A020097B1F480E0FE
:104190000F900F900F900F90DF91CF911F910F9183
:1041A000FF90EF90DF90CF90BF90AF909F908F9057
:1041B0007F906F905F904F9008956C01FC01638138
:1041C000748185819681E12C00ED17E020E030E0DC
:1041D00042810E940A4787FFDACF40E0F601618101
:1041E00080810E94952C65E0CE0101960E94C41F3B
:1041F000833009F0D3C089819A81AB81BC8115E0FD
:1042000089389341A105B10500F561E0CE01019621
:104210000E94C41F11E08230A9F4F6016381748109
:1042200085819681E12C08E210E020E030E04281B7
:104230000E940A4787FFABCF62E0CE0101960E9441
:10424000C41F12E0833009F0A2CFF60163817481AC
:10425000858196812FEF42810E9499474B016091A1
:10426000F4018091F3010E942912E82FF0E0EE0F93
:10427000FF1FE75FFD4F808191810596E091050268
:10428000F0910602C0900702D0900802CE0EDF1E09
:104290008C0C9D1C6AE070E00E94964C860E971E66
:1042A00010FF80C020E7821A25EE920AE057F54EF3
:1042B00089819A81AB81BC8160E570E0803727E11C
:1042C0009207A105B10548F067E370E0843D904393
:1042D000A105B10510F46DE270E080911302209108
:1042E000CA013091CB01280F311D87FD3A95072E69
:1042F000000C880B990B620F731F811D911D6401C7
:10430000F12CE12CA70194010E946C4C9F0150E01C
:1043100040E00E94BE4CCA01B90125E030E040E017
:1043200050E00E94BE4C63E0C9010E947C2E5C01FB
:1043300029813A814B815C8117EF6AE0462E512C2E
:10434000612C712C213A86E8380781E04807510535
:10435000D8F5D5010E941E4D2AE0822E912CA12C69
:10436000B12C613AE6E87E07E1E08E079105C0F5E1
:10437000A70196010E946C4C1093160220E137E2CF
:1043800040E050E00E94BE4C209317023093180288
:104390004093190250931A0281E0FACE882309F45F
:1043A00034CFF5CE89819A816AE070E08C3D25E0BA
:1043B000920708F492CF6AEB7FEF8838934108F0B8
:1043C0008CCF6CEE7FEF89CFCA01B9016B5F7F4F55
:1043D0008F4F9F4FA30192010E94BE4C1F5FB2CF2F
:1043E0006B5F7F4F8F4F9F4FA50194010E94BE4C82
:1043F000CA01B9011F5FB5CF9091D401981303C0D2
:104400008091D70108959091D501981303C08091B0
:10441000D80108958091D901089580E00E94DE1CA2
:1044200081E00E94DE1C82E00E94DE1C8DE30E947F
:104430009C1080E00E94FA1C81E00E94FA1C82E03D
:104440000C94FA1CAF92BF92CF92DF92EF92FF9240
:104450000F931F93CF93DF9300D01F92CDB7DEB79A
:10446000A0904701B090480189836A834B83CE01B5
:1044700001966C0180E0E82E81E0F82E10E0F60154
:1044800001916F010023A9F0812F0E94DE1C0E9480
:104490001D1DF70180819181909348018093470110
:1044A000802F0E949C10B0924801A09247010E9468
:1044B000171D1F5FF2E0EF0EF11C133001F70F9094
:1044C0000F900F90DF91CF911F910F91FF90EF9080
:1044D000DF90CF90BF90AF900895EF920F931F930E
:1044E000CF93DF93C22FD02F0E94D82E182F0E9477
:1044F0007B1C85E40E949C106C2F70E090E080E0B3
:1045000020E040E00E94871D0E94171D41E00A3014
:1045100008F040E08D2F6AE00E947C4C682F70E02C
:1045200090E080E025E20E94871D0E94171D112364
:1045300011F1C09142014E2D6091ED018091E90190
:104540009091EA010E94B81E1230E1F40E947B1C97
:10455000609143018C2F0E94B20F4E2D6091F201A9
:104560008091EE019091EF01DF91CF911F910F911A
:10457000EF900C94B81EDF91CF911F910F91EF90A7
:104580000C941A1DDF91CF911F910F91EF90089518
:10459000EF92FF920F93CF93DF93C22F0E94D82EFA
:1045A000D82F0E947B1C85E40E949C106C2F70E029
:1045B00090E080E020E040E00E94871D0E94171DEF
:1045C000DD2311F1C0914201A7016091ED018091BD
:1045D000E9019091EA010E94661FD230E1F40E9445
:1045E0007B1C609143018C2F0E94B20FA701609148
:1045F000F2018091EE019091EF01DF91CF910F9147
:10460000FF90EF900C94661FDF91CF910F91FF9078
:10461000EF900C941A1DDF91CF910F91FF90EF90C6
:10462000089582E00E947B1D8EEE9CE10E94C11CD9
:1046300087EE9CE10E942E1D8EE080932A0183E08C
:104640000E94151F8091D2018F5F8093D20108953F
:10465000809122018130C1F48EE89CE10E94B31C5C
:104660000E947B1C809127010E94DE1C0E941D1D60
:104670000E94171D609128017091290190E080E04F
:1046800026E54DEF0C94E91D823011F40C941123B2
:104690000895CF93DF93C62FD42F4423E1F00E94D7
:1046A000FA1C83EC9AE10E94B31C8C2FDD23B1F03D
:1046B0000E94FA1C0E94171D60912F017091300119
:1046C000809131019091320124E040912E01DF91DF
:1046D000CF910C94E91D0E94DE1CE3CF0E94DE1CEA
:1046E000E9CF8F929F92AF92BF92CF92DF92EF92DB
:1046F000FF920F931F93CF93DF9380912501813019
:1047000009F0A9C010912C01D12CC12CCCE2D1E030
:104710000E94691D8881811709F4FFC00E94DE1C78
:1047200083EC9AE10E94B31C812F0E94DE1CC1140D
:10473000D10459F083EC9AE10E94B31CF601808108
:10474000811709F4ECC00E94DE1C0E94741D0E94B7
:104750007B1C6B817C818D819E8124E04A810E943B
:10476000E91DC114D10409F4DCC00E94171DF60133
:10477000638174818581968124E042810E94E91DD4
:10478000F60103811481258136816B817C818D81C5
:104790009E81E2804A810E94C147182F6B817C81F3
:1047A0008D819E81212F4A810E9499474B015C0196
:1047B000F6016381748185819681212F42810E9457
:1047C000994775016401C60ED71EE81EF91EC11473
:1047D000D104E104F10409F4E5C08AED9AE10E94F4
:1047E000381D24E0412FC701B6010E94E91D87ED65
:1047F0009AE10E94381DA4E6B0E0A50194010E9450
:104800001E4DA70196010E94BE4C69017A0125E266
:1048100040E0C701B6010E94E91D0E94171D84ED0A
:104820009AE10E94201D64E670E080E090E06C193F
:104830007D098E099F0925E240E0DF91CF911F910C
:104840000F91FF90EF90DF90CF90BF90AF909F902F
:104850008F900C94E91D63E3C62E61E0D62ECCE266
:10486000D1E0833009F048C000912F011091300150
:104870002091310130913201609136017091370100
:104880008091380190913901E0902E0140913501DD
:104890000E940A47F3E3AF2EF1E0BF2E813021F0F2
:1048A000ECE2AE2EE1E0BE2EF501038114812581FC
:1048B000368160913D0170913E0180913F01909160
:1048C0004001E28040913C010E940A47813001F1A1
:1048D000C3E3D1E0FCE2AF16F1E0BF0611F0CCE299
:1048E000D1E06E0187E0C80ED11CAC14BD0421F4E8
:1048F0006E01EEE0CE0ED11C8881F6011081811789
:1049000009F406CF1181811709F402CF198100CF74
:104910007AE3A72E71E0B72EE2CF8981FFCE8181A5
:1049200012CFCE010E94A720813071F40E94171D82
:1049300060911702709118028091190290911A02E9
:1049400028E44091160279CF6B817C818D819E8114
:1049500024E0E22E02E328E14A810E946D226B816D
:104960007C818D819E8136E0E32E36EFF32E28E1A7
:104970004A810E94C8226B817C818D819E8144E0A6
:10498000E42E0AE028E14A810E946D226B817C813D
:104990008D819E8150E2E52E59E6F52E28E14A816F
:1049A0000E94C822DF91CF911F910F91FF90EF904D
:1049B000DF90CF90BF90AF909F908F900895EF922F
:1049C0000F931F93CF93DF9300917A0110917B0196
:1049D00020917C0130917D01609188017091890165
:1049E00080918A0190918B01E0907901409187013B
:1049F0000E940A47C5E8D1E0813011F0C7E7D1E055
:104A00000B811C812D813E816091960170919701EF
:104A10008091980190919901EA80409195010E94BE
:104A20000A47813011F4C3E9D1E00E94691D8881F1
:104A30000E94DE1C80ED9AE10E94B31C89810E94D5
:104A4000DE1C0E94741D0E947B1C6B817C818D8109
:104A50009E8126E44A810E94E91DCE010E944717EB
:104A60008C010F3F100749F00E94171DB80190E01C
:104A700080E024E04EEF0E94E91D8B859C85892B08
:104A800089F08EE09BE10E94381D6B857C8590E06B
:104A900080E021E44D85DF91CF911F910F91EF9040
:104AA0000C94E91DDF91CF911F910F91EF90089524
:104AB000EF920F931F93CF93DF93EC016091E90185
:104AC0007091EA018091EB019091EC0127EFE22EC9
:104AD00002E310E020E030E04091ED010E940A473F
:104AE00087FD15C0CE010E94381D6091E9017091CB
:104AF000EA018091EB019091EC0121E44091ED01FC
:104B0000DF91CF911F910F91EF900C94E91DDF91F0
:104B1000CF911F910F91EF90089540E0FC016081CB
:104B200081810E942C1BE7E7F1E06381748185811C
:104B3000968126E442810C94E91DCF93C62F0E94F2
:104B4000FA1C81E00E949C108C2FCF910C94FA1CCF
:104B5000BF92CF92DF92EF92FF920F931F93CF936A
:104B6000DF930E94691DE090260181E0E8120DC0EC
:104B7000B090A201A5E0DA2EB5E0CB2EC5E0FC2E68
:104B8000D0E0C0E001EA11E078C092E0E9121AC07A
:104B9000F090A1019091A7018091A201D090A8016D
:104BA000F91609F4E8C0D81609F407C1FD1003C0CE
:104BB000981709F4FBC095E0D92E25E0C22E35E008
:104BC000B32EFEC0E3E000E046E0EE1699F08CEC78
:104BD0009AE10E94201D80912601805DDF91CF9196
:104BE0001F910F91FF90EF90DF90CF90BF900C94AA
:104BF0009C10082F202F30E0802FC0E0429FF00152
:104C0000439FF00D1124EE55FE4F6C2F70E0982F4E
:104C10008C1769F0469FD001479FB00D1124AF5506
:104C2000BE4F50819C91591709F49FC09C2F9F5FE4
:104C3000933008F498C08F5F8330D8F2853008F441
:104C400097C0F6E0CF9FE0011124CF55DE4F86E0FC
:104C5000089F800111240F551E4F829FF001839FF2
:104C6000F00D1124EF55FE4FB18073E0F72EE5E013
:104C7000DE2EF5E0CF2EEE24E394F80180810E9431
:104C8000DE1C8CEC9AE10E94B31C8B2D0E94DE1C72
:104C9000209709F085C00E94741D84E08C15E0F017
:104CA00049E16D2D8C2D0E9407348130A9F40E94BA
:104CB000171D92E09F1508F496C087E79BE10E94BC
:104CC000B31C8FE30E949C100E947B1C40E06D2D62
:104CD0008C2D0E944923E12C82E69BE10E94381D25
:104CE000F8016281738190E080E026E54DEF0E943B
:104CF000E91D0E94171D209709F078C0F8018481F2
:104D000095818A3F910578F488E20E949C10F80111
:104D10006481758190E080E020E040E00E94E91D20
:104D200089E20E949C1040E0F801608181810E942C
:104D3000952C81E00E94643488E59BE10E9458250F
:104D4000F1E0EF1269C080E69BE10E94381DC801C6
:104D5000DF91CF911F910F91FF90EF90DF90CF9057
:104D6000BF900C948D25C92F50CF95E085E05FCF83
:104D7000D0E0C0E06CCFC82E65E0B62EEE24E39400
:104D800092E09F1508F10E94DE1C88EC9AE10E94D7
:104D9000B31C8F2D0E94DE1CC7EAD1E001EA11E0AE
:104DA000BF1015C0B88088EC9AE117C0BF2C45E051
:104DB000D42E55E0C52EE12CE3CFD92ECF2CB82E22
:104DC00085E0F82EEE24E394C7EAD1E0DBCEF3E0F1
:104DD000FF1540F3B9808CEC9AE10E94B31C8B2D37
:104DE0000E94DE1C58CF8BE79BE169CF6A817B81F3
:104DF00090E080E026E54DEF0E94E91D81E0E81299
:104E00000BC080E69BE10E94381DC8010E948D25E1
:104E10000E94171DCE019CCFDF91CF911F910F9162
:104E2000FF90EF90DF90CF90BF9008958F929F9268
:104E3000AF92BF92CF92DF92EF92FF920F931F93A8
:104E4000CF93DF931091D601D091D401C091D501B9
:104E50008091220180FDF8C0FD2E0C2FEC2EC12F79
:104E6000D12F1F2D97E7C92E9BE1D92E60EE7FEF42
:104E700085E79CE10E94651D60EE7FEFC6010E9400
:104E8000521D8091220182FF03C08BE20E949C1080
:104E90000E947B1C0E940D226C2F8E2D0E94C73415
:104EA0006C01892B31F00E94171D6C2F8E2D0E94F2
:104EB0009D2549E16D2F812F0E940734813061F4D7
:104EC0000E947B1C41E06091D6018091D4010E9438
:104ED000492384E080934B0183E79BE10E94381DC6
:104EE0006091E1017091E2018091E3019091E40110
:104EF00020E040E00E94E91D0E94171D8091DA0128
:104F000080FFAAC085E60E949C108BEE9AE10E9469
:104F1000241D8091DA0180FFA3C083E40E949C10CD
:104F20000E94171D6091DF017091E001072E000CB7
:104F3000880B990B21E44AEF0E94921ECD28E1F4E0
:104F40008091E5019091E601A091E701B091E8011F
:104F5000892B8A2B8B2B81F086EE9AE10E94381DDB
:104F60006091E5017091E6018091E7019091E8017F
:104F700020E040E00E94E91D612F8D2F0E94C73480
:104F80006C01D0E0C0E0892B81F18FE69BE10E94AB
:104F9000381DF601C281D381248135818090E101E1
:104FA0009090E201A090E301B090E401F4E68F1646
:104FB0009104A104B10490F0CE01821B930B63E035
:104FC00070E00E94AA4CC61BD70B8AEF881691048A
:104FD000A104B10418F0E901C60FD71FBE0190E08B
:104FE00080E026E54DEF0E94E91D85E69BE10E94E9
:104FF0005825C53FD140C0F16F2D802F0E94C73486
:10500000EC01892B89F18A819B81823C914060F57A
:105010000E947B1C6F2D802F0E949D250E94171DD2
:105020006A817B8190E080E026E54DEFDF91CF91B2
:105030001F910F91FF90EF90DF90CF90BF90AF90B6
:105040009F908F900C94E91DFC2E0D2FE12E8BE785
:10505000C82E8BE1D82E0ACF81FF57CF83E653CFDE
:1050600081FF5ECF85E45ACFDF91CF911F910F91E1
:10507000FF90EF90DF90CF90BF90AF909F908F9078
:1050800008950F931F93CF93DF93D091D501C091D3
:10509000D6018091220180FD03C08C2FCD2FD82F07
:1050A0006D2F8C2F0E94C7348C01892B31F00E9408
:1050B000171D6D2F8C2F0E949D258091220183FD4D
:1050C00056C08091DD019091DE01892B81F08CE545
:1050D0009BE10E94381D6091DD017091DE01072E79
:1050E000000C880B990B26E54DEF0E94921E8FE76E
:1050F0009BE10E94381D6091EE017091EF0180915B
:10510000F0019091F10126E44091F2010E94E91D25
:105110008091DB019091DC01892B71F08AE09BE1A9
:105120000E94381D6091DB017091DC0190E080E00D
:1051300024E04EEF0E94E91D01151105C1F00E9407
:105140007B1C81E00E949C100E94171D82E69BE15F
:105150000E94201DF8016281738190E080E026E5C5
:105160004DEFDF91CF911F910F910C94E91DDF91CD
:10517000CF911F910F9108950E94171D80912201D8
:1051800080FF07C08EE40E949C1082E99BE10C9492
:10519000B31C80E5F8CF0E94171D8091220182FF89
:1051A00004C08DE89BE10C94B31C88E89BE1FBCF25
:1051B0000E94691D8091220184FF3CC08AE99BE125
:1051C0000E94B31C86E99BE10E94B31C0E94BC288C
:1051D0008091220184FD0E94CB280E94741D0E94B0
:1051E0007B1C0E940D228091220184FD0E94412897
:1051F0008091220183FF22C082E19BE10E94582519
:105200008091DF019091E001892BC1F080E09BE16A
:105210000E94381D0E947B1C0E94171D6091DF01B7
:105220007091E001072E000C880B990B26E54DEFDD
:105230000C94921E8AE40E949C10C4CF08950E9490
:10524000691D83E89BE10E94B31C0E94BC280E9458
:10525000CB280E94741D0E947B1C0E940D220C947E
:1052600041288091210160EE7FEF8232E1F481E7F5
:105270009CE10E94521D0E947B1C0E940D22809185
:10528000DB019091DC01892B89F08AE69BE10E9489
:10529000381D6091DB017091DC0190E080E026E533
:1052A0004DEF0C94E91D8BE69CE1E3CF0895CF937D
:1052B000DF9360EE7FEF87E69CE10E94521D0E9423
:1052C0007B1C0E940D2285E59BE10E94381DC4E6EF
:1052D000D1E06D817E8190E080E026E54DEF0E9477
:1052E000E91D82E69BE10E94381D6B817C8190E084
:1052F00080E026E54DEFDF91CF910C94E91DCF932F
:1053000088EC8093C70183E00E94D90EAC018B5CCE
:105310009840C091C501833F914080F52091CC0118
:105320003091CD01A4ECB9E00E94084D9A0150E003
:1053300040E00E94BE4C3093CD012093CC01C4606C
:10534000C093C5018EE10E94D90E9093CB0180934A
:10535000CA0188EC8093C7018EE10E94D90E20918A
:105360001202820F911D27FD9A959093CB01809395
:10537000CA0189E18093C701CF910895CB7FE0CF27
:105380000E9445108FEF97E090934801809347016A
:1053900081E00E947B1D82E69CE10E94C11CF89482
:1053A0000FB6F894A89580916000886180936000A2
:1053B000109260000FBE469883B7817F846083BFE0
:1053C00083B7816083BF889583B78E7F83BF08953D
:1053D000CF938091D001882309F180EE97E09093DC
:1053E0004801809347018AE59CE10E94201D0E94AC
:1053F000171D80EE97E090934801809347018091BC
:10540000CE019091CF016AE070E00E94964C90E04E
:1054100080E026E54EEFCF910C94E91D8091CE01FE
:105420009091CF01811529E1920770F480E098EF07
:105430009093480180934701CEE08CE00E949C103D
:105440008C2F0E949C10D3CF883E9C4148F480EE64
:105450009FEF9093480180934701CEE08DE0EECF1F
:1054600080EE97E09093480180934701CFE0F6CF1C
:1054700085E00E94D90E9C01AEEBBFE00E94084D72
:1054800028EE33E040E050E00E94BE4C31990DC060
:1054900020513E4F3093CF012093CE0181E0809385
:1054A000D00184E68093D10108952E5D3E4F309364
:1054B000CF012093CE011092D00184E68093D101D8
:1054C0002115394180F480EE97E090934801809354
:1054D00047010E9445100E94E82988EB9BE00E944A
:1054E000482C0C94C0290895EF92FF920F931F93BC
:1054F000CF93DF9380E487B988B980E185BF87E8DF
:1055000080937A00C4B7C87084B7877F84BF0FB612
:10551000F894A89580916000886180936000109253
:1055200060000FBE81E08093C50182E08093C601D8
:105530000E94AF3C0E94580F0E94710FCC2309F1CA
:105540000E94451080E098EF9093480180934701B6
:1055500082E00E947B1D8BEF9CE10E94C11C87E8CA
:105560009CE10E942E1D80ED97E00E94482C4698F9
:1055700090E080E0DF91CF911F910F91FF90EF902D
:105580000895189B06C10E945210109241018FEF9E
:1055900097E0909348018093470142983A9AC3302C
:1055A00009F003C10E942C1282E00E947B1D8EE054
:1055B0009DE10E94C11C8EE99BE10E942E1D80EEA0
:1055C00097E090934801809347018CED95E00E940D
:1055D000482C1092D20189E18093C70181E0809329
:1055E000C8018093C9018CE993E19093CD01809328
:1055F000CC0188E19FE00FB6F894A89580936000F5
:105600000FBE909360007894FF24F394D3E082E07F
:10561000E82E0EE41CE1109221011092220110925A
:10562000230110922401109226011092250110925C
:10563000DA011092DC011092DB011092DE0110926F
:10564000DD011092E0011092DF011092E101109251
:10565000E2011092E3011092E4011092E501109230
:10566000E6011092E7011092E8011092E901109210
:10567000EA011092EB011092EC0110926801109275
:10568000670110926A011092690110925001F09224
:105690005201D0934B0111B8E09241010E94451094
:1056A0000E947F290E94382A0E94E82981E00E94F6
:1056B0007B1D8091440181508093440183E09DE1F2
:1056C0000E94C11C809144018F5F809344010E941D
:1056D000992D809121018130E1F142E061E080E08B
:1056E0000E94F12F42E060E081E00E94F12F41E052
:1056F00062E080E00E94F12F41E060E082E00E94E1
:10570000F12F40E062E081E00E94F12F40E061E093
:1057100082E00E94F12F0E94B8300E9435348091BF
:105720002101882311F08A30A1F40E94171D83E41F
:105730000E949C1040E060E082E00E942C1B41E04F
:1057400061E082E00E942C1B42E060E081E00E9468
:105750002C1B0E944510D093410180E00E942B48F1
:10576000809121018E3109F471C060F58A3009F40D
:1057700076C000F58130C1F10E94112337C0CF5FA0
:10578000C53639F4C3E08091C5018E7F8093C50191
:10579000FACE84E190E00E94482C189BF0CFC031F3
:1057A00010F4C1E0F0CEC2E0EECF61E081E00E94F3
:1057B0005312FACE8B3009F455C08431E9F60E94B9
:1057C000A82514C0833258F4813208F045C08F31C7
:1057D00009F43FC0803281F60E941F2907C083323E
:1057E00059F60E94572902C00E9428238091210166
:1057F0008E3128F080914B0181110E94151F8091FC
:1058000021018A3010F01092D20182E00E94BC3C4B
:10581000109241010E949C1C109358010093570163
:105820006EE388EB9BE00E949A48C82F81111DC04F
:105830008091D201853010F581E00E94BC3CC536D4
:1058400009F50E94EA4B8936E1F7DFCF0E9416275F
:10585000CDCF0E94D828CACF0E943129C7CF0E943D
:105860007123C4CF0E94DF24C1CF833049F082303E
:1058700029F0853029F08436F9F6C7CFC7E6DCCFAA
:10588000C5E6DACFC73609F0C6CE0E94C02970CE71
:105890000F931F939C01A4E1B0E00E94084D109269
:1058A000B1001092B20022E02093B000209370006B
:1058B0000FB607FC2CC0789440E057E01AC0A895BA
:1058C0008B019C016F3F71058105910529F020F046
:1058D0000FEF10E020E030E0601B710B820B930BA8
:1058E00001500093B3005093B1002091B1002111F9
:1058F0000BC0611571058105910509F7411101C0C2
:10590000F8941F910F91089500000000EECF41E040
:10591000D4CF1F920F920FB60F9211241092B100A4
:105920000F900FBE0F901F901895A3EFB1E08C93CE
:1059300011966C93119712964C93129790E0FC017C
:10594000E555F64EE4911696EC93169770E0FB0140
:10595000E555F64EE4911796EC93179750E0FA014F
:10596000E555F64EE4911896EC931897FC01E8552E
:10597000F64EE4911996EC931997FB01E855F64E13
:10598000E4911A96EC931A97FA01E855F64EE491D1
:105990001B96EC931B97FC01EB55F64EE4911C967D
:1059A000EC931C97FB01EB55F64EE4911D96EC939E
:1059B0001D97FA01EB55F64EE4911E96EC931E9757
:1059C0008E55964EFC0184911F968C931F976E55B1
:1059D000764EFB01649150966C9350974E55564EFF
:1059E000FA01449151964C930895E3EFF1E045811B
:1059F000648183810C94952CE3EFF1E080818383B3
:105A00008181848382818583089593E0981B892F07
:105A1000861B0895CF93DF9340E00E94952C11B828
:105A20008091F9018BB99091FA01892B8AB9809103
:105A300002020E943A0FEC01809103020E94D90EEB
:105A4000AC012091CC013091CD0136952795C9014B
:105A50004E978C179D0760F4225E3F4FC217D30705
:105A600038F48417950720F481E04217530708F0B3
:105A700080E01AB8DF91CF910895CF9361E080E084
:105A80000E940A2DC82F62E080E00E940A2DC80FF4
:105A900062E081E00E940A2D8C0FCF9108950F9350
:105AA0001F93CF93DF93D82FC62F11B812B81AB80F
:105AB0001BB840E00E94952C8091FF0181B9809134
:105AC00003020E94D90E8C018091000281B980915D
:105AD00002020E94D90E0817190728F440E06D2F22
