:100000000C94D4040C94F1040C94F1040C94F104B9
:100010000C94F1040C94F1040C94F1040C94F7107A
:100020000C94F1040C94F1040C94F1040C945832E7
:100030000C94F1040C94F1040C94F1040C94F1046C
:100040000C9440320C94F1040C94F1040C94F104DF
:100050000C94F1040C94F1040C94F1040C94F1044C
:100060000C94F1040C94F1045A105C105F106510AC
:1000700067106B106E108610B510B5108910B51092
:100080008C10B5108F10B510B510B510B510B51097
:100090009210B510B510B510B510B510B510B5105B
:1000A000B510B510B510B510B510B510B510B51028
:1000B000B5109510B510981013391639113911393A
:1000C000113911391139113911390F391C391F39C9
:1000D00022392C393E3941394439473911394A39A5
:1000E0004D3950395339563959395C395F3962398C
:1000F00066396A3911396D3962397039733977392E
:100100007A39623973397D398039113911391139A8
:100110001139113983390000000000000000087F08
:100120003E1C087F7F08087F7F081C3E7F08087FF1
:100130007F00007F7F084C5E7202725E4C00C07EC2
:100140003E201E3E2000087F414141414141414146
:10015000414141417F087D7E1311137E7D001D3E8C
:100160006341633E1D003F7F4140417F3F00FFFFF1
:100170004949497F3600317A4A4A7E3D4000183D60
:100180006642663D18003E7E4140217E7E000000B2
:100190000205020000000000000000000000000650
:1001A0006F6F06000000000B0700000B0700367F92
:1001B0007F367F7F3600042E2A6B2A3A1000637345
:1001C000381C0E676300367F49793B6A480000009F
:1001D000070B0000000000001C3E6341000000000F
:1001E00041633E1C000000150A1F1F0A150000187D
:1001F000187E7E1818000000B0700000000008088B
:100200000808080808000000606000000000607036
:10021000381C0E0703001C3E6341633E1C00004275
:100220007F7F4000000062735159494F46002263AE
:10023000414949773600181C16137F7F1000276745
:100240004545457D38003C7E4B49497930000303E4
:1002500071790D070300367F4949497F3600064F03
:100260004949693F1E00000000666600000000006A
:1002700000A66600000000081C3663000000363649
:10028000363636363600004163361C08000002035D
:10029000696D070600003E635D555D6B2E007C7E38
:1002A0001311137E7C007F7F4949497F36001C3E35
:1002B0006341416322007F7F4141633E1C007F7F99
:1002C0004949494941007F7F0909090901001C3E4C
:1002D0006341497979007F7F0808087F7F0000002B
:1002E000417F7F41000030704040407F3F007F7F72
:1002F000183C366341007F7F4040404040007F7F94
:100300000E1C0E7F7F007F7F0E1C387F7F001C3EFF
:100310006341633E1C007F7F1111111F0E003E7F61
:100320004151713F5E007F7F0919396F4600266F8A
:100330004949497B32000001017F7F0101003F7F75
:100340004040407F3F000F1F3870381F0F003F7F35
:100350004038407F3F0063773E1C3E7763000007D4
:100360000F78780F07006171795D4F474300007F78
:100370007F414100000003070E1C387060000041FF
:10038000417F7F000000080C0603060C08008080F7
:100390008080808080000000070B00000000307A21
:1003A0004A4A7E3C40007F7F4442627E3C00183CCB
:1003B0006642426624003C7E4242447F7F003C7E8F
:1003C0004A4A4A6E2C0000087E7F090A00001C3E43
:1003D000A2A292FE7C007F7F0402027E7C000000CD
:1003E000487B7B4000000040C088FB7B0000007F12
:1003F0007F08346642000000017F7F0000007E7E9F
:10040000027E047E7C007E7E0402067C7800183C1E
:100410006642663C1800FEFE2242427E3C003C7E64
:10042000424222FEFE007E7E0402020E0C00246E7A
:100430004A4A4A7A300004043F7F446420003E7EEA
:100440004040207E7E000E1E3060301E0E003E7E3C
:100450004030407E3E0062761C081C7662001E3EE4
:10046000A0A090FE7E004262725A4E460000083EF6
:100470007741410000000000007F7F000000000085
:100480004141773E08001C1C1C7F3E1C0800FF01F8
:10049000020304050607FFFFFFFFFFFFFFFFFFFF4B
:1004A000FFFFFFFFFFFFFFFFFFFFFFFFFFFF101139
:1004B00012131415161718191A1B1C1D1E1F2021A4
:1004C00022232425262728292A2B2C2D2E2F303194
:1004D00032333435363738393A3B3C3D3E3F404184
:1004E00042434445464748494A4B4C4D4E4F505174
:1004F00052535455565758595A5B5C5D5E5F606164
:1005000062636465666768696A6B6C6D6EFFFFFFA6
:10051000FFFFFFFFFFFFFFFFFFFFFFFFFFFFFFFFEB
:10052000FFFFFFFFFFFFFFFFFFFFFFFFFFFFFFFFDB
:10053000FFFFFFFFFFFFFFFFFFFFFFFFFFFF0FFFBB
:10054000FFFFFF05FFFFFFFFFFFFFFFFFFFFFFFFB5
:10055000FFFF08FFFFFFFFFFFFFFFFFFFFFFFFFFA2
:10056000FFFFFFFF09FFFFFFFFFF0AFFFF0BFFFF7A
:10057000FFFF0CFFFFFFFFFFFFFFFFFFFFFFFFFF7E
:10058000FFFFFFFF0DFFFFFFFFFF0EFFFFFF00005C
:1005900000000000000000E0E00000008040201F9C
:1005A000007C8282820000C848488808080808FF4A
:1005B000FF14224180C00000000000000000001F66
:1005C00012120D0000000003030000010101027C73
:1005D000007F49494100000000000000000000E0E9
:1005E000E0000000E0C0A01F00FE9292820000C860
:1005F00048488808080808FFFF14224180000000CE
:10060000000000000000001F12120D000000000397
:10061000030000000001027C003E41414100000057
:100620008080000000C0C000E0E040404040407FCB
:1006300000FE82827C00001F2028190000FFFF00BE
:100640009C9C08081C3E08F8000000000000000107
:100650000101010101010100030301010101017F09
:1006600000264949320000404040404040C0C000A0
:10067000E0E04040404040FF004C92926400007C2B
:1006800082A2640000FFFF009C9C08083E1C080F2B
:100690000000000000000000000000000001010058
:1006A000030301010101017F007F41413E00000081
:1006B0008080000000C0C000E0E040404040407F3B
:1006C00000FE82827C00001F2028190000FFFF002E
:1006D000FFFF08081C3E08F80000000000000001B1
:1006E0000101010101010100030301010101017F79
:1006F00000264949320000404040404040C0C00010
:10070000E0E04040404040FF004C92926400007C9A
:1007100082A2640000FFFF00FFFF08083E1C080FD4
:1007200000000000000000000000000000010100C7
:10073000030301010101017F007F41413E00008070
:100740004040800000000000E0E08080808080FF6A
:1007500000FE82827C00008F90948C80E0C08080BC
:10076000FFFF80808080808000000000000000008B
:100770000000000003010000030300000000007FF0
:10078000002649493200008080808080C0E080805F
:10079000E0E08080808080FF004C9292640000F84E
:1007A0000444C80001030000FFFF80808080808037
:1007B0000000000000000000010100000000000037
:1007C000030300000000007F007F41413E00000065
:1007D0000000000000808000E0E000000080403F5A
:1007E000007C8282820000884848880808FFFF0059
:1007F000FFFF14A2C1E00000000000000000000F95
:1008000010140C0000000000030300000000017E33
:10081000007F494941000000000000000080800086
:10082000E0E00000C080403F00FE9292820000881D
:100830004848880808FFFF00FFFF1422418101009B
:10084000000000000000000F10140C000000000069
:10085000030300000000017E003E41414100000012
:1008600000000000000000000000FF00007C1212E9
:100870007C000000000000F00848D00000C1C3C7A1
:10088000CFDFFFDFCFC7C3C10000000000000008BA
:10089000090908080808080402017F00003C4242D8
:1008A0004200000000000000000000C0C0C0C0C046
:1008B000C0C0C0FFC0C0CFC0CFC0C0C00000E010EB
:1008C00090A00080E0F8FEFFFEF8E080838FBFFF7D
:1008D000BF8F83800000111212111011110905033E
:1008E0000101017F010101790101010100000010F6
:1008F00090901010101010204080FF00007C121209
:100900007C0000000000000F10140D0000C1C3C7E0
:10091000CFDFFFDFCFC7C3C1000000000000000031
:10092000000000000000000000007F00003C424288
:1009300042000000000000404040408000000000F5
:10094000E0E08080808080FF003E003E000000FEEE
:100950009292820005060708FFFF808080808080D9
:100960000000000000000000000000000000000087
:10097000030300000000007F00003E000000050AA5
:100980000605060A050A0609060A050A0609060AF0
:10099000050A0609060A050A0605060A050A0605E5
:1009A0000A06090A06090A0611241FBECFEFD8E07D
:1009B000DEBFCDBF11E0A0E0B1E0E2E1F9E702C0A7
:1009C00005900D92A030B107D9F711E0A0E0B1E099
:1009D00001C01D92A33FB107E1F70E94EA0A0C94FF
:1009E000873C0C940000982F8091B001981719F45F
:1009F0008091B30108958091B101981719F4809105
:100A0000B40108958091B50108950E94E03A81E013
:100A10000E9420198EEC90E00E94181BF89488E147
:100A20000FB6F89480936000109260000FBE5E983D
:100A300083B7817F846083BF83B7816083BF8895DC
:100A400083B78E7F83BF089582E00E9420198AE3D6
:100A500090E00E94181B87E490E00E94BD1B8091EB
:100A6000AF018F5F8093AF0108950E94731A809148
:100A7000020182FF03C081E591E002C086E591E0BA
:100A80000E94C91A08950E94731A8091020180FF82
:100A900002C08EE401C080E50E944D198DE491E012
:100AA0000E94C91A08950F931F938EE00E94371574
:100AB0009093AC018093AB0108EA11E088ECF80157
:100AC00080838EE00E9437152091E401332727FDB3
:100AD0003095280F391F3093AC012093AB0189E189
:100AE000F80180831F910F9108951F93162F0E9484
:100AF0004D198DEF91E00E94C91A812F0E944D1966
:100B00000E94731A60910F01709110018091110180
:100B10009091120140910E0124E00E945F191F91F3
:100B200008951F93162F0E94771A81E00E944D1995
:100B3000812F0E94771A1F9108950F931F93CF93CF
:100B4000DF938091020180FF05C00091B2011091F6
:100B5000B10104C00091B1011091B201802F612F49
:100B60000E940924EC01009779F00E94731A802FEB
:100B7000612F0E94910580917B01816080937B01B0
:100B8000D0937D01C0937C018091020183FD5FC001
:100B90008091B9019091BA01892BA9F083E891E085
:100BA0000E94B01B6091B9017091BA01882777FD4E
:100BB0008095982F4DEF26E50E94501A80917B0179
:100BC000846080937B0180E691E00E94B01B60917D
:100BD000C6017091C7018091C8019091C9014091EF
:100BE000CA0126E40E945F1980917B01886080938E
:100BF0007B018091B7019091B801892B99F085ED27
:100C000091E00E94B01B6091B7017091B80180E043
:100C100090E04EEF24E00E945F1980917B0180619B
:100C200080937B01209799F00E94411B81E00E94F4
:100C30004D190E94731A8EE791E00E94D81A6A81BA
:100C40007B8180E090E04DEF26E50E945F19DF9107
:100C5000CF911F910F91089580E00E947C1A81E04E
:100C60000E947C1A82E00E947C1A8DE30E944D193A
:100C700080E00E94771A81E00E94771A82E00E9449
:100C8000771A08958AEC90E00E94C91A0E94411BCD
:100C90000E942C068BE891E00E94B01B60914101FC
:100CA0007091420180E090E04DEF26E50E945F19CF
:100CB0008EE791E00E94B01B60913F01709140016E
:100CC00080E090E04DEF26E50E945F190895809145
:100CD0000101823219F480EC90E002C084EC90E0D3
:100CE0000E94C91A0E94411B0E942C068091B701E4
:100CF0009091B801892B71F084E791E00E94B01BBC
:100D00006091B7017091B80180E090E04DEF26E569
:100D10000E945F1908958BE591E00E94C91A0E9414
:100D200043050E9435050E94411B0E942C060E942B
:100D30009D050895EF920F931F93CF93DF93EC01DE
:100D40006091C1017091C2018091C3019091C40171
:100D50004091C50102E310E020E030E057EFE52EBE
:100D60000E94230D87FD10C0CE010E94B01B609130
:100D7000C1017091C2018091C3019091C401409161
:100D8000C50121E40E945F19DF91CF911F910F915E
:100D9000EF9008958091020184FF05C085E491E001
:100DA0000E94C91A03C08AE40E944D1989E491E0A7
:100DB0000E94C91A0E9443058091020184FF02C06B
:100DC0000E9435050E94411B0E942C068091020161
:100DD00084FF02C00E949D058091020183FF1EC016
:100DE0008CEC91E00E949A068091BB019091BC012D
:100DF000892BA1F089ED91E00E94B01B0E94411B5C
:100E00000E94731A6091BB017091BC01882777FD25
:100E10008095982F4DEF26E50E94501A0895A0E086
:100E2000B0E0E5E1F7E00C94CF3B8091020180FF58
:100E30000CC0C4E6D1E0E090B001F090B2010091A6
:100E4000B1011F2DAE2CB02E0BC0C8E6D1E0E09052
:100E5000B201F090B0011091B1010E2DA12EBF2C66
:100E60008CEB90E00E94D81ACE010E94C91A8091A2
:100E7000020182FF03C08BE20E944D190E94411BB8
:100E80000E942C06812F602F0E940924EC010097FC
:100E900079F00E94731A812F602F0E949105809132
:100EA0007B01816080937B01D0937D01C0937C01A5
:100EB0008F2D6E2D49E10E94EB1E813071F40E944E
:100EC000411B82E465E40E94750584E0809327015C
:100ED00080917B01826080937B018CE691E00E948F
:100EE000B01B6091BD017091BE018091BF019091D6
:100EF000C00140E020E00E945F190E94731A8091B7
:100F0000B60180FF02C085E603C081FF03C083E60F
:100F10000E944D198E2D6F2D0E940924EC0100971F
:100F200019F400E010E034C080E791E00E94B01BAB
:100F30000A811B812C813D81C090BD01D090BE01F2
:100F4000E090BF01F090C00144E6C416D104E10472
:100F5000F10498F0C801821B930B63E070E00E94DB
:100F6000773B4AEFC416D104E104F10418F4061BE0
:100F7000170B03C08B01020F131FB80180E090E034
:100F80004DEF26E50E945F191093810100938001C7
:100F900089E791E00E949A0681E0053F180728F151
:100FA0008A2D6B2D0E940924EC010097F1F08A81B3
:100FB0009B81825C9140C8F40E94411B8A2D6B2D5D
:100FC0000E9491050E94731A6A817B8180E090E003
:100FD0004DEF26E50E945F1980917B01846080932C
:100FE0007B01D0937F01C0937E01CDB7DEB7EAE0ED
:100FF0000C94EB3BA1E0B0E0E0E0F8E00C94CF3BD8
:1010000080910601813061F4F090830172E8A72E8F
:1010100071E0B72E00E010E0898365E0E62E73C032
:10102000823009F045C0D0908201C0908801DC1464
:1010300089F4C0908901ED2CD090830152E8A52E4F
:1010400051E0B52E85010A5F1F4F91E0998345E07D
:10105000F42E77C0F090830180918901F81609F48D
:1010600065C0D81651F032E8A32E31E0B32E8501C9
:101070000A5F1F4FE1E0E98316C0FC1459F4ED2C20
:10108000FD2C22E8A22E21E0B22E85010A5F1F4F1F
:10109000198239C092E8A92E91E0B92E85010A5F24
:1010A0001F4FF1E0F98385E0E82EB5E0FB2E2BC061
:1010B000833071F520E046E0249F5001112482E83E
:1010C00091E0A80EB91E30E0349F800111240E5724
:1010D0001E4F231741F0F5019181F8018081981787
:1010E00011F425E035E03F5F333070F32F5F23309C
:1010F00018F3253010F400E010E0F501F180F1E084
:10110000F983A3E0EA2EF5E0DF2EE5E0CE2E19C04C
:1011100085EF91E00E94D81A80910601805D0E94BF
:101120004D198091060180937901E6C072E8A72EDF
:1011300071E0B72E85010A5F1F4F81E0898365E06A
:10114000E62EB0927D01A0927C0110937F01009366
:101150007E0192E09E1550F0F50181810E947C1A7B
:1011600089EF91E00E94C91A8E2D09C0F501808196
:101170000E947C1A85EF91E00E94C91A8F2D0E946F
:101180007C1A01151105B1F0EF1441F0F3E0FE15E2
:1011900028F0F801F18085EF91E004C0F801F080BB
:1011A00089EF91E00E94C91A8F2D0E947C1A82E07B
:1011B00080937901F4E0FD1550F18D2D6C2D49E1FE
:1011C0000E94EB1E813019F50E94731A82E08E1581
:1011D00040F088E691E00E94C91A80917B01856009
:1011E00007C084E691E00E94C91A80917B01836068
:1011F00080937B018FE30E944D190E94411B91E374
:10120000C90E8D2D8F5C6C2D0E94750519828EE79D
:1012100091E00E94B01BF5016281738180E090E053
:101220004DEF26E50E945F190E94731A0115110502
:1012300041F5F501848195818A3F910578F488E232
:101240000E944D19F5016481758180E090E040E0D5
:1012500020E00E945F1989E20E944D19F501818109
:10126000608140E00E94721681E00E94442587E878
:1012700091E00E949A0680917B01886080937B01B7
:1012800009C0F8016281738180E090E04DEF26E5AE
:101290000E945F19F981F13079F581E891E00E94AF
:1012A000B01BF5018181608140E00E94F8216091CE
:1012B00052017091530180915401909155014091D8
:1012C000510126E40E945F1901151105A9F00E9441
:1012D000731AF8018181608141E00E94F8216091D8
:1012E0006001709161018091620190916301409170
:1012F0005F0126E40E945F192196EAE00C94EB3B23
:10130000EF920F931F93CF93DF93609160017091E1
:1013100061018091620190916301009152011091ED
:101320005301209154013091550140915F01E090AB
:1013300051010E94230D813019F4CDE5D1E002C0A6
:10134000CFE4D1E060916E0170916F0180917001E6
:10135000909171010B811C812D813E8140916D0125
:10136000EA800E94230D813011F4CBE6D1E0D093C6
:101370007D01C0937C0188810E947C1A81EF91E0FD
:101380000E94C91A89810E947C1A0E94411B6B81AC
:101390007C818D819E814A8126E40E945F19CE0165
:1013A0000E9483228C018FEF0F3F180749F00E94A3
:1013B000731AB80180E090E04EEF24E00E945F19BC
:1013C00010938101009380018B859C85892B61F0AE
:1013D00081ED91E00E94B01B6B857C8580E090E000
:1013E0004D8521E40E945F19DF91CF911F910F91EC
:1013F000EF900895A0E0B0E0E0E0FAE00C94D23B7A
:1014000090910501913039F4D0900C010CE011E07D
:10141000EE24FF245FC082E080937901933031F0A5
:101420000CE011E0A7E0EA2EF12C47C06091160114
:1014300070911701809118019091190100910F018D
:10144000109110012091110130911201409115016C
:10145000E0900E010E94230D813019F4C3E1D1E028
:1014600002C0CCE0D1E060911D0170911E0180911D
:101470001F01909120010B811C812D813E814091A3
:101480001C01EA800E94230D813011F4CAE1D1E0F1
:1014900081E0CC30D80721F48E01095F1F4F02C0D4
:1014A0000CE011E0F7E0EF2EF12CE00EF11EEC164F
:1014B000FD0629F4EEE0EE2EF12CE00EF11EF8010F
:1014C000D080F7018081D81629F08181D81611F0DB
:1014D000F801D18010937D0100937C01F0927F018F
:1014E000E0927E01F80180818D1511F4F80181816F
:1014F0000E947C1A8DEF91E00E94C91A8D2D0E94E6
:101500007C1AE114F10461F08DEF91E00E94C91A98
:10151000F70180818D1511F4F70181810E947C1AF9
:101520000E94411BF801638174818581968142810B
:1015300024E00E945F19E114F10461F00E94731A23
:10154000F7016381748185819681428124E00E9444
:101550005F1919C0C8010E94832C8130A1F40E9438
:10156000731A6091E9017091EA018091EB01909109
:10157000EC014091E80128E40E945F1980917B0111
:10158000816080937B01CDB7DEB7E7E00C94EE3B42
:10159000809102018130C9F48EE990E00E94C91A5D
:1015A0000E94411B809107010E947C1A0E94481AE8
:1015B0000E94731A609108017091090180E090E027
:1015C0004DEF26E50E945F190895823011F40E94C4
:1015D00024050895EF92FF920F931F9380E48AB938
:1015E0008BB980E185BF87E880937A0014B71870C3
:1015F00084B7877F84BF88E10FB6F894809360003A
:10160000109260000FBE81E08093A60182E080937B
:10161000A7010E94B7330E9452330E94A0391123C0
:1016200099F00E94E03A82E00E94201982E390E063
:101630000E94181B87EA90E00E94BD1B80ED97E096
:101640000E94B7105E98A7C14F9B02C010E010C067
:1016500084E190E00E94B7104F9905C01F5F1536D6
:10166000B9F713E005C0103110F012E001C011E02D
:101670000E94EE3A109221015D98559A133019F4A8
:101680000E94031104C081E061E00E94ED1480918A
:10169000E6010E94F8390E94351982E00E94201963
:1016A00086E190E00E94181B8EE391E00E94BD1B32
:1016B0000E942D198CED95E00E94B7101092AF0199
:1016C00089E18093A80181E08093A9018093AA0118
:1016D00089E893E19093AE018093AD012FE088E11A
:1016E00090E00FB6F894A895809360000FBE209309
:1016F0006000789416E601E083E0F82EB2E0EB2E6D
:101700001092010110920201109203011092040143
:1017100010920601109205011092B6011092B801C4
:101720001092B7011092BA011092B9011092BC0147
:101730001092BB011092BD011092BE011092BF0128
:101740001092C0011092C1011092C2011092C30107
:101750001092C4011092400110923F011092420178
:10176000109241011092790100937A0110927B014D
:1017700010927D0110927C0110927F0110927E01E7
:1017800010922C0100932E01F092270117B8E092DD
:1017900021010E94E03A0E94530586E190E00E94F8
:1017A000C91A163609F4BBC081E00E942019809145
:1017B000240181508093240187E290E00E94181B4D
:1017C000809124018F5F809324010E9409188091E9
:1017D00001018130E1F180E061E042E00E94EB161E
:1017E00081E060E042E00E94EB1680E062E041E0D0
:1017F0000E94EB1682E060E041E00E94EB1681E07F
:1018000062E040E00E94EB1682E061E040E00E946E
:10181000EB160E94C3150E94D523809101018823F5
:1018200011F08A30A1F40E94731A83E40E944D19CA
:1018300082E060E040E00E94F82182E061E041E067
:101840000E94F82181E060E042E00E94F8210E94BD
:10185000E03A183611F482E001C083E08093210160
:101860000E943519809101018A3010F000937901AE
:101870008E3111F18F3160F48A3069F18B3018F4B8
:10188000813079F513C08B3049F1843151F511C0A5
:101890008132D9F0823228F48F3189F0803209F513
:1018A00011C0823291F08332E1F412C00E94C80A62
:1018B0001AC00E94FA0717C00E940F0714C00E94A6
:1018C000CA0611C00E948B060EC00E9467060BC09C
:1018D0000E94420608C00E94FA0905C00E948009C1
:1018E00002C00E9424050E942D19809101018E31B1
:1018F00030F080912701882311F00E94701B183668
:1019000041F40E940A1986E092E00E94AB1B0E94FB
:101910001519809101018A3010F01092AF0182E018
:101920000E94CC331092210188EB9BE06EE10E9473
:10193000FB0D182F882329F48091AF018530C8F45E
:101940001BC08330C1F08230A1F08530A1F0843615
:1019500099F40E940A190E94F936882311F410E0C4
:1019600003C00E940239182F0E941519112321F477
:10197000D6CF17E601C015E681E00E94CC331536BC
:1019800029F40E944D108936E1F7C9CF173609F0C6
:10199000B7CE0E94050580E090E01F910F91FF9067
:1019A000EF900895AF92BF92CF92DF92FF920F9384
:1019B0001F93DF93CF9300D00F92CDB7DEB789830B
:1019C0006A834B836E010894C11CD11C860194E08C
:1019D000A92EB12CAC0EBD1E802F8C19F801F08001
:1019E000FF2049F00E947C1A0E94481A8F2D0E9405
:1019F0004D190E94731A0F5F1F4F0A151B0561F7DF
:101A00000F900F900F90CF91DF911F910F91FF904A
:101A1000DF90CF90BF90AF9008951F9311E00BC05F
:101A20002AE030E040E050E00E948A3BC901DA0140
:101A3000BC01CD011F5F6A3071058105910580F7FA
:101A4000812F1F9108956F927F928F929F92AF92F4
:101A5000BF92CF92DF92EF92FF920F931F933B01C1
:101A60004C01F42E580169010E2D0E940D0D182F06
:101A7000C601B5010E940D0D611471048104910429
:101A800091F1A114B104C104D10431F1EF2CE10EA4
:101A9000800F8E1534F1E81669F51E2D1F19E01A16
:101AA0000BC0C601B5012AE030E040E050E00E94E2
:101AB000373B5B016C01E394E1169CF30BC0C4015E
:101AC000B3012AE030E040E050E00E94373B3B01A8
:101AD0004C011F5F1E159CF3A614B704C804D9045B
:101AE00010F481E008C06A147B048C049D0410F09B
:101AF00080E001C08FEF1F910F91FF90EF90DF907A
:101B0000CF90BF90AF909F908F907F906F900895EF
:101B10000F931F93142F022F9B01AC0117C01017B6
:101B200054F4B901CA012AE030E040E050E00E94DC
:101B30008A3B1F5F0BC0B901CA012AE030E040E0D8
:101B400050E00E94373B9B01AC011150101739F750
:101B5000B901CA011F910F910895681721F48AE213
:101B60000E944D1908950E94731A0895FF920F93D1
:101B70001F93FAB08AB1837F8AB90E94263B10E096
:101B800000E089B180958C7011F420E00EC082FDD8
:101B90001F5F83FD0F5F802F810F8A3028F48EE155
:101BA00090E00E94B710EDCF22E0112311F094E0F5
:101BB00001C090E0002321F09430D9F496E002C0F7
:101BC000992389F080912C01981741F4223031F447
:101BD00080912E01873018F48F5F01C081E08093DF
:101BE0002E0180932D01FAB8892F1F910F91FF903C
:101BF000089595E0E7CF8F929F92AF92BF92CF92D8
:101C0000DF92FF920F931F93CF93DF936C0181E0DC
:101C100080932D0162FF08C08091A60180FF03C060
:101C2000CC24DD2401C06C7FC62FD0E043E0A42E7D
:101C3000B12CAC22BD22A114B10409F47AC081E018
:101C40000E94A43A76C0C114D10451F086E0C816AF
:101C5000D10410F400E004C08BEF9FEFC80ED91E32
:101C60004F993AC08EE190E00E94B71010E009C091
:101C70004F9909C01F5F1B3130F48AE090E00E9449
:101C8000B7100023A9F71B3118F032E0F32E22C061
:101C9000209719F4FF24F3941DC082E390E00E9482
:101CA000B710FF24F39414E14F990DC08EE190E03A
:101CB0000E94B7104F9907C088EC90E00E94B710BF
:101CC00023E0F22E11E011508AE090E00E94B7105C
:101CD000112351F700E023C00E94B60D882311F0B4
:101CE000F82E35C08091A70183FF03C094E6F92E3A
:101CF0002EC085E090E00E94B7101F5F143679F483
:101D00008114910459F0013029F480E00E94A43A32
:101D100002E004C081E00E94A43A01E010E080915A
:101D2000A70180FF11C08091A7018E7F8093A7013A
:101D30000EC0FF2401E010E082E0882E912C8C225E
:101D40009D22C870D0707FCF002309F07CCFAB28D4
:101D500019F080E00E94A43AF0922C018F2DDF91BF
:101D6000CF911F910F91FF90DF90CF90BF90AF90D8
:101D70009F908F900895A0E0B0E0E1ECFEE00C941D
:101D8000CA3B562E3A014901C82ECA94D09025016B
:101D9000DA940E94481A10E0EE24E2E0FE2EAD2C08
:101DA000AA94BC2CBD18B39481E0D81611F4F39416
:101DB000E12ECE2DD0E0CC0FDD1FC60DD71D00E0EB
:101DC00030C0602F6E5F81E00E941E3A81E0D8161D
:101DD00029F0802F8E0D612F0E94AD0D81E08F15AF
:101DE000D8F4581629F4888199810E94C91A0BC029
:101DF000CE010E94533CA0E0B0E0BC01CD0140E028
:101E000020E00E945F198114910419F0C4010E941E
:101E1000C91A80E00E94B33A0F5FC01608F40D2D76
:101E200022960D1570F281E0D81649F480912401B4
:101E3000609125010E941E3A8CE30E944D1980E0BA
:101E400090E060E10E94FB0D813071F1843029F156
:101E5000853081F4112331F4CD1410F1EB2C62E0C4
:101E6000F62E20C011501E1579F5112361F1E12ED7
:101E7000EA9410C0823041F517C01D1508F110E03A
:101E8000EE2408C01F5F8A2D8E0D1817E9F41C156B
:101E9000D8F4E39452E0F52E87CF1C1599F7EDCFD7
:101EA000FF24F3941C2D80CF0E94E03A84EF91E050
:101EB0000E94B710812FCDB7DEB7EFE00C94E63B60
:101EC00010E0EE2401C0E12EFF24F3946DCFAAE2CE
:101ED000B0E0EDE6FFE00C94D73B8AED90E0988B04
:101EE0008F8786E089838EED90E09A8B898B87E0DF
:101EF0008A838AEE90E09C8B8B8B8AE08B8381E0D7
:101F000091E09E8B8D8B8EE08C838CE291E0988F9C
:101F10008F8B87E28D8381E291E09A8F898F85E2B2
:101F20008E838BE590E09C8F8B8F81E08F8380E6A2
:101F300090E09E8F8D8F82E0888788EF90E098A355
:101F40008F8F8CE089878BE690E09AA389A383E04A
:101F50008A8780E790E09CA38BA384E08B8785E74A
:101F600090E09EA38DA385E08C878DE191E098A7FA
:101F70008FA384E18D878EEA90E09AA789A71E86B9
:101F80000E94E03A84E590E00E94C91A8EE061E088
:101F9000AE01415F5F4F20E030E00E94BB0EFE01CA
:101FA000E80FF11D8181AA96E2E00C94F33BA9E0D1
:101FB000B0E0EDEDFFE00C94D63B182F86EC91E0FD
:101FC0009D838C8389EC91E09F838E838EEA90E0E1
:101FD000998788870E94E03A123019F48BE690E0E6
:101FE00002C080E790E00E94C91A83E061E0AE0180
:101FF0004C5F5F4F20E030E00E94BB0E91E0998380
:1020000092E09A831B82FE01E80FF11D6181662335
:1020100019F0812F0E94ED142996E3E00C94F23B15
:102020000F931F93CF93DF93082F882321F4C1E8E8
:10203000D0E010E003C0C8E8D0E013E00E94EB1746
:102040008117A1F00E94E03A82E00E942019CE019F
:102050000E94181B8FE890E00E94BD1B0E94EB17A6
:10206000811731F488EC90E00E94B71081E00AC03B
:1020700084E690E060E10E94FB0D013079F788234F
:1020800069F380E0DF91CF911F910F91089588EB64
:102090009BE065E10E94FB0D08951F930E94670F6E
:1020A000E82FF0E0E832F10508F05FC0EC5CFF4F8C
:1020B0000C94FE3B19E64DC00E942E1102C00E94F6
:1020C000CD12182F8823B9F142C082E001C081E00F
:1020D0000E94D70F4AC00E94631247C00E94E03A94
:1020E0008AED90E00E94C91A88E062E044E953E07A
:1020F00023ED30E00E94BB0E90E0880F991F8C56B4
:102100009C4F0E94533C0E9456312FC00E94483081
:102110002CC00E946C3229C00E94DD1A26C00E9489
:10212000E62D23C00E94050520C00E94C12D1DC0C0
:102130000E94B52F1AC00E94E03A81E00E94201947
:1021400087EA90E00E94181B0E9447100BC0893656
:1021500049F40E94E03A81E00E9420198EE490E068
:102160000E94181B812F1F91089511E0FBCF9C0145
:102170001092B1001092B20082E08093B000809380
:1021800070000FB607FC1FC0789460E01DC0A895D2
:102190002F3F31054105510519F010F09FEF01C0A7
:1021A000922F91509093B3009F5F7093B10002C043
:1021B000000000008091B1008823D1F7291B31096C
:1021C000410951090BC061E040E050E084E0220F7A
:1021D000331F441F551F8A95D1F777E0211531052C
:1021E00041055105A1F6662309F4F89408951F925C
:1021F0000F920FB60F9211241092B1000F900FBEE4
:102200000F901F90189588EC90E09093DE018093DA
:10221000DD018CED90E09093E0018093DF0184E19B
:1022200090E09093E2018093E1018BE28093E301DF
:102230001092E4011092E5018FEF8093E60108957A
:10224000EDEDF1E090E08191980F81E0E73EF80735
:10225000D1F7992309F491E0892F0895A0E0B0E027
:10226000E4E3F1E10C94C73B81E00E941010882365
:1022700019F4BAE0DB2E02C0DD24D394882499241B
:10228000AA24BB24C0E0D0E0A2E06A2EF8E07F2EB2
:10229000E0E25E2E71E1272E0CC1CC24C39464E0F1
:1022A000462E54E1352E0E94E03A84E50E944D19F5
:1022B0008D2D805D0E944D190E94731A83E0D816FF
:1022C00009F462C08D1540F081E0D81689F082E0F3
:1022D000D81609F0AFC022C085E0D81609F484C032
:1022E000D81608F47AC086E0D81609F0A3C08CC0CE
:1022F0008EE00E9437158EE00E9437157C018EE833
:1023000091E00E94C91A0E94411B00E010E0C80140
:10231000B7014DEF26E50E945F1964C083EA91E0A2
:102320000E94D81A8DEA91E00E94C91A6091AD010D
:102330007091AE0180E090E020E733E040E050E0B3
:102340000E94373B24EF36E040E050E00E94AC3B77
:1023500079018A0181E085B985E084B982E00E9433
:102360009F15EC01CE19DF0924B881E00E949F156A
:102370005C01AE18BF0845B834B880E00E949F15D4
:102380004C018E189F0856C088EA91E00E94D81A26
:102390008DEA91E00E94C91A0091AD011091AE0141
:1023A0001695079565B88AE084B982E00E949F156A
:1023B000EC01C01BD10B82E284B981E00E949F1521
:1023C0005C01A01AB10A75B888E284B980E00E9465
:1023D0009F154C01801A910A2DC080E00E941010B8
:1023E00034E6C32E80E027C083E991E00E94C91A39
:1023F00015B864B880E00E949F154C0174B881E064
:102400000E949F155C0111C087E991E00E94C91AE2
:1024100065B864B880E00E949F154C0175B874B827
:1024200081E00E949F155C0155B854B882E00E947B
:102430009F15EC0181E014B815B8882309F10E94BA
:10244000411BB401882777FD8095982F40E020E05C
:102450000E94501A0E94731AB501882777FD809553
:10246000982F40E020E00E94501A0E94731ABE018B
:10247000882777FD8095982F40E020E00E94501A31
:1024800084E6C81681F088EE93E060E10E94FB0DBF
:10249000882349F0823029F424E6C22E94E6D92E0E
:1024A00002C084E6C82EC39485E08C1508F0FBCEEC
:1024B000D39486E08D1508F0F0CE81E0CDB7DEB77D
:1024C000E2E10C94E33B81E0809321010E94E03A39
:1024D0008BE991E00E94D81A6091DD017091DE01D4
:1024E00080E090E04FEF24E00E945F198FE991E0D7
:1024F0000E94B01B6091DF017091E00180E090E0EC
:102500004FEF24E00E945F1986EB91E00E94B01B20
:102510006091E30170E080E090E044EF26E40E94E7
:102520005F1989EB91E00E94B01B6091E10170910D
:10253000E20180E090E04EEF24E00E945F198EE817
:1025400091E00E94B01B6091AB017091AC0180E002
:1025500090E04DEF26E50E945F198CEB91E00E9420
:10256000B01B6091AD017091AE0180E090E04DEF45
:1025700026E50E945F1980EC91E00E94B01B6091FB
:10258000E501772767FD7095872F972F4DEF26E59B
:102590000E94501A0E9447100895A4E0B0E0E3EDB5
:1025A000F2E10C94C73B81E00E941010882319F4DB
:1025B000EAE0DE2E02C072E0D72EEE24FF2400E017
:1025C00010E01C821B827724AA24BB246624882462
:1025D00099241A824424552419822224332461C167
:1025E000CC24C3940E94E03A81E40E944D198D2DC1
:1025F000805D0E944D190E94731A24E0D21609F4DE
:1026000052C02D1540F032E0D31671F083E0D81699
:1026100009F00AC141C095E0D91609F46FC0E6E09F
:10262000DE1609F001C1A9C089EB91E00E94D81A19
:102630008DEA91E00E94C91A81E060E040E00E94CA
:10264000721680E00E94D31B7C018639910518F434
:10265000880E991E639482E060E040E00E9472164A
:1026600080E00E94D31B8C018639910518F4880EF6
:10267000991E639482E061E040E00E94721680E05F
:102680000E94D31B9C838B838639910508F0CCC0B4
:10269000880E991E6394C8C080E00E94101064E602
:1026A000C62E80E0C2C08BE991E00E94C91A18B81A
:1026B00021E027B925B924B980E00E94A8157C0142
:1026C00032E037B9D5B8D4B881E00E94A8158C01A2
:1026D000D7B880E185B984B982E00E94A8159C83AF
:1026E0008B83C701800F911F480E591EEB81FC811F
:1026F0004E0E5F1EFA81FD5FFA8396C08FE991E06E
:102700000E94C91A15B821E028B927B924B9E09068
:10271000AD01F090AE0180E00E94A815E81AF90A18
:1027200032E038B937B984E084B90091AD01109135
:10273000AE0181E00E94A815081B190B94E098B91E
:1027400097B9E0E1E4B92091AD013091AE013C834D
:102750002B8382E00E94A815EB81FC81E81BF90B1A
:10276000FC83EB83C701800F911F280E391E2E0EAC
:102770003F1EF981FD5FF98357C086EB91E00E940F
:10278000D81A8DEA91E00E94C91A81E060E040E029
:102790000E94F82180915101843F89F48091560173
:1027A00090915701A0915801B0915901853691053A
:1027B000A105B10520F47C01A80EB91E739482E036
:1027C00060E041E00E94F82180915F01843F89F43C
:1027D0008091640190916501A0916601B0916701BB
:1027E00085369105A105B10520F48C01A80EB91E0E
:1027F000739482E061E042E00E94F82180916D01D3
:10280000843F91F48091720190917301A0917401C1
:10281000B091750185369105A105B10528F49C8319
:102820008B83A80EB91E739481E017B818B814B83A
:1028300015B88823E9F00E94411BB70180E090E0C1
:1028400040E020E00E945F190E94731AB80180E006
:1028500090E040E020E00E945F190E94731A2B81F3
:102860003C81B90180E090E040E020E00E945F19E7
:1028700034E6C31681F088EE93E060E10E94FB0D20
:10288000882349F0823029F454E6C52E44E6D42E3C
:1028900002C034E6C32EC39485E08C1508F0A2CEA6
:1028A000D39496E09D1508F09BCEEFE07E1611F0D4
:1028B000BB2409C0C5016FE070E00E94633B6093D8
:1028C000E301BB24B394FFE06F1651F4C4016FE041
:1028D00070E00E94633B7093E2016093E101B39466
:1028E0002A812F3009F06EC039813F3009F06AC06B
:1028F000C20165E070E00E94633B8B01C10165E0AD
:1029000070E00E94633B4B014091AD015091AE01DC
:10291000CA01880F991F840F951F801B910B861B7E
:10292000970B6C01EE24FF2420E030E0C901B801D0
:1029300020EA39E041E050E00E94373BA7019601D0
:102940000E948A3BB901CA016B5F7F4F8F4F9F4F37
:102950002AE030E040E050E00E948A3BC901DA0101
:102960008A3F9105A105B10528F43093DE0120933B
:10297000DD01B394B40180E090E020EA39E041E069
:1029800050E00E94373BA70196010E948A3BB901A3
:10299000CA016B5F7F4F8F4F9F4F2AE030E040E0CE
:1029A00050E00E948A3BC901DA018831E1E09E07CC
:1029B000E0E0AE07E0E0BE0728F43093E0012093AA
:1029C000DF01B3940E94631280E0F4E0BF1609F4C3
:1029D00081E02496E2E10C94E33BFF920F931F9376
:1029E000CF93DF93F82E623019F40BE010E002C0B1
:1029F00000E010E0CDEDD1E00E9420118093E701CE
:102A000082E0F81629F4C80168810E94593C04C08C
:102A1000C8010E944B3C888381E0C73ED80721F063
:102A200021960F5F1F4FECCF82E0F816D9F00E947D
:102A300020119091E7019923A9F0981799F00E942D
:102A4000E03A82E00E94201983EB90E00E94181B7C
:102A500087EA90E00E94BD1B80ED97E00E94B710CE
:102A60000E940311CDB7DEB7E5E00C94F03BFF9276
:102A70000F931F93182F1F70106410937C00012F69
:102A8000007C8091AA01081721F00E94203B00934E
:102A9000AA0180917A00806480937A0080917A0004
:102AA00086FDFCCFF090A8017091A90160E020E0C4
:102AB00030E040E050E020C080917A008064809354
:102AC0007A0080917A0086FDFCCF80917800909109
:102AD0007900A0E0B0E0280F391F4A1F5B1F643067
:102AE00051F484E02030380730F4003C21F071309C
:102AF00011F4106CC2CF6F5F6F15F0F2003C29F437
:102B00006091AB017091AC0104C06091AD01709116
:102B1000AE0180E090E00E94373B2AE096958795D1
:102B2000779567952A95D1F72F2D30E040E050E05A
:102B30000E948A3BC9011F910F91FF9008951F9336
:102B4000182F0E941F3B812F0E9437151F91089557
:102B50001F93182F0E94213B812F0E9437151F9130
:102B600008958091CB018093CE018091CC01809318
:102B7000CF018091CD018093D001089593E0981BFF
:102B8000892F861B0895909104019923E1F080918B
:102B9000030180FD18C081FD04C0809101018E31C8
:102BA00090F49093010180913C018093B001809159
:102BB0003D018093B10180913E018093B2018091EB
:102BC0000B0180930A010895A0E0B0E0EAEEF5E180
:102BD0000C94D13BAC01613049F4E2E8F3E088EEBB
:102BE00093E0C2E3D0E027E030E018C0623049F45F
:102BF000E6E2F3E08CE291E0C9E1D0E02CE230E0E3
:102C00000DC0633019F020E030E047C0E4EAF3E0A3
:102C100088EC90E0C9E1D0E02EE130E04817590798
:102C200018F4CC24DD2403C06A01C81AD90AC601ED
:102C3000BE010E94633B862F90E02817390708F4F5
:102C4000622F062F10E0000F111F0E0F1F1FC8016B
:102C50000E94533C7C01C80102960E94533CFC0137
:102C6000E81AF90AC601BE010E94633B9E01281BB7
:102C7000822F90E09C012E9DC0012F9D900D3E9DC6
:102C8000900D11249E0136952795820F931FBE014A
:102C90000E94633B9B012E0F3F1FC901CDB7DEB7DA
:102CA000E8E00C94ED3B1F93182F60FF03C085B143
:102CB000812B03C095B18095892385B984B1812B7F
:102CC00084B963FF03C00E94253B02C00E94203BE1
:102CD00084B1912F9095892384B985B1982395B9B2
:102CE0001F910895AF92BF92CF92DF92EF92FF9221
:102CF0000F931F93C62EA42E8093CB016093CC011B
:102D00004093CD01E82EFF2403EF13E0C8018E0DA0
:102D10009F1D0E944B3C8093D101DD24C8018C0D86
:102D20009D1D0E944B3C8093D201BB24C8018A0D9B
:102D30009B1D0E944B3C8093D30106EF13E0C8011A
:102D40008E0D9F1D0E944B3C8093D401C8018C0DB9
:102D50009D1D0E944B3C8093D501C8018A0D9B1D8F
:102D60000E944B3C8093D60109EF13E0C8018E0D01
:102D70009F1D0E944B3C8093D701C8018C0D9D1D67
:102D80000E944B3C8093D801C8018A0D9B1D0E9474
:102D90004B3C8093D9010CEF13E0C8018E0D9F1DB1
:102DA0000E944B3C8093DA01C8018C0D9D1D0E944E
:102DB0004B3C8093DB01C8018A0D9B1D0E944B3C5C
:102DC0008093DC011F910F91FF90EF90DF90CF90E7
:102DD000BF90AF900895CF93DF93982F809101011A
:102DE000813009F4BEC0A895892F0E94721615B8CB
:102DF0008091D20184B98091D70187B988B9809137
:102E0000D30160E10E9453168091DB010E94A81556
:102E1000EC018091D3019091D201892B84B98091EA
:102E2000DB010E94A8159C018091D20184B92C1766
:102E30003D0720F42530310508F4E90123E0C13DC8
:102E4000D20708F18091D30161E10E94531680916D
:102E5000DB010E94A815EC018091D30185B9909106
:102E6000D201892B84B98091DB010E94A8159C01B5
:102E700015B88091D20184B92C173D0720F4253074
:102E8000310508F4E901C031D10538F08091030122
:102E9000882319F4CE010E94532683E0C13DD80750
:102EA00008F042C0809103018823D9F48091D201B7
:102EB00084B915B88091D70187B988B90E94213BA0
:102EC0008091D3019091D201892B84B98091DB014B
:102ED0000E94A8158F559D4020F082E0BE010E94FF
:102EE0009A2880910301882339F58091D80187B908
:102EF00018B88091D3019091D101892B84B985B9FB
:102F00008091DA010E94A81580549640A8F40E948E
:102F1000B125882389F480910101813269F081E033
:102F2000BE010E949A2808C080910301882311F4F1
:102F30000E9438240E94722A80910101882311F096
:102F40008A3019F40E949D1C08C08F3131F48091A1
:102F5000020184FF02C00E941D2417B818B814B8DB
:102F600015B8DF91CF910895CF93DF9340E00E9491
:102F7000721617B88091D10185B99091D201892B31
:102F800084B98091DA010E94A815EC018091DB01DF
:102F90000E9437152091AD013091AE0136952795ED
:102FA000B9016E5170406C177D0778F4A901425E3B
:102FB0005F4FC417D50748F46817790730F420E04D
:102FC0008417950718F421E001C020E014B8822F7F
:102FD000DF91CF9108950F931F9380E061E00E94ED
:102FE000B417082F80E062E00E94B417182F81E028
:102FF00062E00E94B417100F810F1F910F91089586
:103000008091CE016091CF014091D0010E94721653
:103010000895A6E0B0E0EFE0F8E10C94CB3B17B8E0
:1030200018B815B88FE384B980E00E9437159A83E9
:10303000898381E00E9437159C838B8382E00E9404
:1030400037159E838D8301E098E2D92E82E0C82E49
:10305000BB243E010894611C711CB1E08B2E912CA5
:10306000C39483E0C81609F4CC24EC2CFF248B2DE8
:1030700090E00C2C02C0959587950A94E2F780FDAC
:1030800075C0C70184509C4F0E944B3CA82E0E94E3
:1030900037159C01F701EE0FFF1FE60DF71D80812C
:1030A00091812817390770F4318320838D2D90E0AA
:1030B000801B9109449784F48AEE8D1568F084E1B1
:1030C000D80E0AC02A30310528F488E2D81611F447
:1030D00070E5D72E0F5F01C001E02330310548F4C1
:1030E000C4010E2C02C0880F991F0A94E2F7B82A77
:1030F0000BC02052334040F417B1C70187509C4F9A
:103100000E944B3C182B17B987E0B81691F1D016E6
:1031100040F581E08093010180930201C092070194
:10312000C70187509C4F0E944B3C97B180959823D4
:1031300097B9C7018A509C4F0E944B3C182FC7017A
:103140008D509C4F0E944B3C94B1182B10959123AD
:1031500094B98A2D0E943715909309018093080134
:1031600008C0A89582E390E00E94B710002309F000
:1031700077CF14B817B82696EEE00C94E73BEF92A1
:10318000FF920F931F93E82EF62E17B818B814B8B5
:1031900015B840E00E9472168091D70187B98091DE
:1031A000DB010E9437158C018091D80187B980918D
:1031B000DA010E9437150817190728F48F2D6E2D94
:1031C00040E00E9472168091D70187B98091D201A8
:1031D00084B901E08091DB010E9437159C0181E0F8
:1031E0002039380740F487B19091D801892B87B9ED
:1031F0002832310540F00F5F033329F084E690E078
:103200000E94B710E7CF17B814B81F910F91FF9025
:10321000EF9008958091A7018D7F8093A701809101
:10322000A70184608093A70108958091A7018B7FF7
:103230008093A7018091A70182608093A7010895E0
:1032400060912501861710F061E003C0681B669548
:103250006F5F81E00E941E3A08958091A7018B7FE5
:103260008093A7010E94713408950E947134809167
:10327000A70184608093A701089583E00E94B33A78
:1032800081E063E00E941E3A089582E00E94B33A12
:1032900081E062E00E941E3A08951F93182F8091EA
:1032A000A70181FF03C0812F0E94653A8091A70189
:1032B00082FF03C0812F0E9415341F9108959F92B1
:1032C000AF92BF92CF92DF92EF92FF920F931F9334
:1032D0006B017C01042F922E15C085E090E0A0E0E8
:1032E000B0E0C80ED91EEA1EFB1EC701B6012AE0D7
:1032F00030E040E050E00E948A3BC901DA016C01F5
:103300007D010F5F90E1C91697E2D90690E0E906CA
:1033100090E0F90610F7013F1CF4AA24BB241DC05D
:10332000202F215F822F63E00E94563B382F822F8F
:1033300063E00E94563BB92E992321F03F5F83E062
:10334000891BB82E383010F0AA2407C0832F90E0D4
:10335000825E9C4F0E944B3CA82E03E411E0C60104
:10336000B8014AE050E00E94353CD8010D900020A1
:10337000E9F78D010150104003541140E02E0B1964
:1033800010165CF080E30E944D198EE20E944D19E8
:10339000002319F080E30E944D19BB2009F40FEFC0
:1033A0000150FF24C02EDD24C7FCD0940FC00F2D88
:1033B00010E0F801ED5BFE4F80810E944D190C1565
:1033C0001D0519F48EE20E944D19F394FE1478F352
:1033D000AA2019F08A2D0E944D19992019F0892DE3
:1033E0000E944D191F910F91FF90EF90DF90CF90A9
:1033F000BF90AF909F900895DF92EF92FF920F934E
:103400001F93F42ED22E03E411E0A8012AE030E04D
:103410000E94103CF80101900020E9F78F01015053
:10342000104003541140E02EFF2011F404E60DC0BB
:103430000F1530F00F1911F0FF2407C0FF2401C051
:10344000F01A80E30E944D1900E010E014C010173C
:1034500051F48EE20E944D1904C080E30E944D1980
:10346000FA94FF20D1F7E12FF0E0ED5BFE4F808171
:103470000E944D191F5F1E1550F3DD2019F08D2D90
:103480000E944D191F910F91FF90EF90DF900895CA
:103490008AE30E944D1908958DE20E944D19089506
:1034A000CF92DF92EF92FF920F931F937B018C01DB
:1034B000D42EC22E97FF0AC00E944C1A1095009578
:1034C000F094E094E11CF11C011D111DC801B7012D
:1034D0004D2D2C2D0E945F191F910F91FF90EF90A1
:1034E000DF90CF90089580E20E944D1908950E94C8
:1034F000F3040E944D1908958F5C0E944D190895A0
:103500001F93182FE0910A0183E0E89FE02D11241A
:10351000F0E0E258F64FE60FF11D84918823B9F1EF
:1035200090912A01915060912B01282F30E084FF67
:1035300004C0809129018695680FA90142705070DE
:1035400021FF0DC025FF06C0809128018695980FA8
:103550009F5F03C080912801980F23FD615022FFD7
:1035600007C0809129018150680F452B09F06F5FDA
:10357000892F0E941E3A812F0E94F304883721F47C
:10358000812F0E94771A03C0812F0E947C1A1F91FD
:103590000895CF93DF93EC0103C00E944D1921964B
:1035A000CE010E944B3C8823C1F7DF91CF91089553
:1035B0000E94C91A0E94731A0895FF920F931F93D5
:1035C0000E94E03A88EF90E00E94D81A1091E6013C
:1035D000F090260101E00E944519612F70E080E023
:1035E00090E040E020E00E945F19043020F48CE27B
:1035F00091E00E94B71080E090E068E10E94FB0D2E
:10360000082F813031F0833011F400E008C084309D
:1036100021F41F1520F41F5F02C011111150812FDA
:103620000E94F8390023B9F61F910F91FF90089579
:10363000FF920F931F93CF93DF93082FF92E9C01D6
:10364000E90101C02196CE01801B182FCE010E94F6
:103650004B3C8823B9F780912401811710F481E055
:1036600003C0811B86958F5F609123010E941E3AE3
:10367000802F9F2D0E94C91ACDB7DEB7E5E00C94CC
:10368000F03B1F938091A70181FF22C090912101FF
:1036900060912301809125016817B1F4192F90FFE3
:1036A00002C00E94471011FF0CC01091250104C0F8
:1036B000812F0E94B33A11501230D0F781E062E0BE
:1036C00005C00E94E03A04C06F5F81E00E941E3A8C
:1036D0008091A70182FF02C00E9471341F9108955A
:1036E000382F80912901982F9F5F209125018D5FB0
:1036F000281780F180912401803118F0930F9217E0
:1037000038F0209323010E94411B33E093E005C071
:10371000982F9F5F80912801981B90932A013093E6
:103720002B018091B00160E00E94801A8091B1016C
:1037300061E00E94801A8091B20162E00E94801ACA
:1037400080912A0160912B010E941E3A80910A010A
:103750000E94313A08950E94C91A0E94411B08959F
:103760000F931F938C010E94411BC8010E94C91A2C
:103770000E94731A1F910F9108950F931F938C014C
:103780000E94411BC8010E94181B1F910F910895B0
:103790000F931F938C010E94411BC8010E94C91AFC
:1037A0001F910F910895A0E0B0E0E9EDFBE10C94CA
:1037B000CA3B582E0E94091880910101813019F4EA
:1037C00020E030E0A6C018B88091D80187B9809178
:1037D000D10185B984B90E94203B61E06624772439
:1037E0004301862F90E0EC01C170D07060FF03C0F0
:1037F0008091DA0102C08091DB01A895806C8093F2
:103800007C000E94203B80917A00806480937A0043
:1038100080917A0086FDFCCFAA24EE24FF24870144
:1038200080917A00806480937A0080917A0086FD8E
:10383000FCCF8091780090917900A0E0B0E0E80E94
:10384000F91E0A1F1B1F0E94273BA39484E6A8169B
:1038500039F72091AB013091AC0140E050E0C80154
:10386000B7010E94373B7B018C018AE016950795D2
:10387000F794E7948A95D1F762E0CD2B09F44FC015
:10388000C701D8013C014D01ACCF6091AD017091F1
:10389000AE0180E090E024E630E040E050E00E949D
:1038A000373B66197709880999090E94373B5B0104
:1038B0006C016E187F08800A910AC401B30128EEDA
:1038C00033E040E050E00E94373B7B018C012091C7
:1038D000DF013091E0012057354E40E050E0C60155
:1038E000B5010E948A3BC801B7010E948A3B81E072
:1038F000581661F48091E1019091E20182179307DB
:1039000018F4281B390B02C020E030E080EC8093D3
:10391000AA01C901CDB7DEB7EFE00C94E63B15B8BC
:103920008091D7019091D801892B87B9E614F704CB
:103930000805190508F4A9CFE7CFA0E0B0E0E3EA55
:10394000FCE10C94C83BA89518B88091D80187B9C0
:103950008091D10184B985B98091DB010E94A815BD
:103960007C018091DA010E9437154C0115B88091D5
:10397000D40184B98091DA010E94A815459708F016
:1039800025C28091D40185B98091DA010E94A815E1
:103990002C018091D70187B988B915B88091D201DF
:1039A00084B98091DA010E94A8158C018091DB0115
:1039B0000E9437153C018091D50184B98091DB01CB
:1039C0000E94A815EC0120E3821621E1920628F45A
:1039D00082E64816510408F0F9C12CE6421623E1AC
:1039E000520608F0F3C189EA6816710408F06EC047
:1039F000C632D10508F4EAC1B20180E090E020EFC0
:103A00003BE247E050E00E94373BE090AD01F09090
:103A1000AE0197012419350940E050E00E948A3B2D
:103A200059016A01EC1AFD0A00E010E0C801B70173
:103A300020EF3BE247E050E00E94373B9E0140E030
:103A400050E00E948A3BB901CA012EED421623E0E4
:103A5000520670F442E0AA0CBB1CCC1CDD1C4A953B
:103A6000D1F7A60EB71EC81ED91EC601B5010EC0DD
:103A7000CE5DD340B0F432E0660F771F881F991FE8
:103A80003A95D1F76A0D7B1D8C1D9D1D25E030E018
:103A900040E050E00E948A3BC901DA01BC01CD013F
:103AA00008C06A0D7B1D8C1D9D1D96958795779589
:103AB0006795625A7E4F8F4F9F4F2AE030E040E07B
:103AC00050E00E94373B3B014C01A0C08E149F0484
:103AD00008F490C00615170508F48CC0C091AD011C
:103AE000D091AE018C169D0619F4089481089108B6
:103AF0002091DF013091E0012057354E40E050E049
:103B0000B4016E197F0980E090E00E94373BC8192C
:103B1000D9099E0140E050E00E948A3B59016A01A8
:103B20002091DD013091DE012057354E40E050E01C
:103B300006191709B80180E090E00E94373B930115
:103B400040E050E00E948A3B79018A018EED8816A0
:103B500083E0980640F492E0AA0CBB1CCC1CDD1C50
:103B60009A95D1F715C02EED621623E07206B8F5CE
:103B700088EFE81684E2F80681E0080780E018077D
:103B800090F482E0EE0CFF1C001F111F8A95D1F704
:103B9000AE0CBF1CC01ED11EC601B50125E030E031
:103BA00040E050E015C0C801B701B3E0660F771FD1
:103BB000881F991FBA95D1F76E0D7F1D801F911F29
:103BC0006A0D7B1D8C1D9D1D2AE030E040E050E019
:103BD0000E948A3BC901DA013C014D0117C0350141
:103BE00046016E0C7F1C801E911E969487947794DC
:103BF00067940CC02FE8621622E1720608F4E2C056
:103C0000FAE06F2E712C812C912C06C084E6681688
:103C100071048104910478F581E00E94D31B7C013A
:103C200000E010E0C401B301660F771F881F991FE1
:103C300025E0621671048104910420F4660D771D5D
:103C4000881D991D2AE030E040E050E00E94373B9B
:103C5000611571058105910521F464E670E080E04D
:103C600090E0E616F7060807190728F4370148011F
:103C70005EEF552E02C055245A9420E047E0342EC2
:103C80003AE0432E81C0239DE0011124C45FDE4F42
:103C900098818091CB01981709F073C09981809128
:103CA000CC01981709F06DC0C401B301452D02E0A5
:103CB00010E020E030E0EE240E94230D8F3F91F5CC
:103CC0006B817C818D819E814A8102E010E020E041
:103CD00030E00E94230D8F3FF1F44A81451519F021
:103CE000FF24FA9402C0FF24F3946B817C818D81C0
:103CF0009E8194018301E52C0E94230D8F1531F4E0
:103D00006B807C808D809E805A8005C06B827C8217
:103D10008D829E825A8264015301D694C794B794CF
:103D2000A7940CC0C401B30124E130E040E050E0AE
:103D30000E948A3BC901DA015C016D016B817C81C3
:103D40008D819E81940183010A191B092C093D096B
:103D50004A81E52C0E94230D87FD15C06B817C8173
:103D60008D819E81A60CB71CC81CD91C4A81960166
:103D700085010E94230D181634F04092010124E6BB
:103D800003C02F5F01C028EC90910501291708F4AA
:103D90007ACF2436D9F09330C8F4E7E09E9FF00143
:103DA0001124E45FFE4F8091CC0180838091CB0190
:103DB0008183638274828582968252829F5F909310
:103DC000050104C066247724430126CFCDB7DEB7B2
:103DD000E1E10C94E43BEF920F931F93142F1092A8
:103DE000050140E00E9472160E949D1C8091050111
:103DF000813011F090E017C01123A1F0612F70E025
:103E000080E090E000910F011091100120911101CC
:103E10003091120143E0E0900E010E94230D90E0EA
:103E2000813009F491E0892F1F910F91EF9008954F
:103E3000982F813110F480E00895915115BC82E0F3
:103E400084BD97BD81E0089516BC81E085BDA99B26
:103E5000FECF15BC82E085BB08954F925F926F92B2
:103E60007F929F92AF92BF92CF92DF92EF92FF929A
:103E70000F931F93CF93DF933C010E940918809109
:103E80000101813011F480E053C115B897E097B972
:103E900018B88091D40184B980E480937B0084E4D5
:103EA00080BF8091DA01806480937C0090937A00D7
:103EB0000E94293B10928000109281001092850090
:103EC0001092840087E286BB8091D40185B98091ED
:103ED00001018F3129F49091D7019095977002C01C
:103EE0009091D80181E08093810097B900E010E0C3
:103EF00091E086B3282F85FD0AC080FFFACF96BBDC
:103F0000A8950F5F1F4F8CE00038180791F71092AB
:103F1000810080E286BBC0918600D091870014B8F2
:103F20008091840090918500C817D90730F420FF54
:103F300004C081E086BB0F5F1F4F87E980937A0042
:103F400080917B008F7B80937B008091DA010E94BF
:103F500037152C0115B88091D40184B99CE0003844
:103F6000190710F081E0E4C09E0140E050E0C80174
:103F7000A0E0B0E08C01FF24EE24E22AF32A042B17
:103F8000152BA3E0EA16F1040105110500F18EEFEF
:103F90009FEFAFEFBFEFE80EF91E0A1F1B1F98E35C
:103FA000E91699E8F90691E4090790E0190778F015
:103FB000C801B70128EE33E040E050E00E948A3BA0
:103FC000C901DA017C018D0197EF992E02C084EFBF
:103FD000982E8091E501992787FD90952091AB015E
:103FE0003091AC01820F931F61E00E94E415A0E0C4
:103FF000B0E0BC01CD01A80197010E94373B20E44D
:1040000036E040E050E00E948A3B79018A01A4EF4B
:104010009A1619F05701680114C08091E30190E0ED
:10402000A0E0B0E0E816F9060A071B0720F4AA246E
:10403000BB24650106C057016801A81AB90ACA0A5B
:10404000DB0A8091CC01F30180838091CB018183D5
:104050009282D3011796ED92FD920D931C931A97BD
:10406000A382B482C582D682F4EF9F1651F420EA6F
:10407000A21626E8B20621E0C20620E0D20678F4B5
:1040800056C087EF981609F052C091E2A9169EE437
:10409000B90690E0C90690E0D90608F048C08091C2
:1040A000DA010E943715855D9340C8F714B8109265
:1040B000A9018091DA010E9437158C0181E080937B
:1040C000A9018091DA010E943715EC018091D40199
:1040D00084B90C1B1D0BE090AB01F090AC01C80142
:1040E00004960997D0F0B801882777FD8095982F1E
:1040F000970140E050E00E94373B9E0140E050E0D5
:104100000E94AC3B8091E401820F8093E4018A2DF0
:10411000992787FD9095E80EF91E92012E193F0907
:10412000C901C1968336910510F42093E50183E01F
:10413000DF91CF911F910F91FF90EF90DF90CF9083
:10414000BF90AF909F907F906F905F904F90089539
:10415000A0E0B0E0EEEAF0E20C94C93B3C0183E061
:10416000B82EB1E19B2E0E94091880910101813087
:1041700011F4882437C118B88091D80187B915B8CF
:1041800014B88091DA010E9437152C01EE24FF2427
:104190000894E11CF11C8091D101692D0E945316F5
:1041A0008091DA010E9437154816590618F0C0E0D0
:1041B000D0E003C0EC01C419D5092EE7E216F104E2
:1041C00021F480E0CB34D10508F081E091E0CC32DD
:1041D000D90708F080E0E4EFEE16E1E0FE0609F40E
:1041E00080E0A8958823A1F6F1E0CC32DF0710F437
:1041F000BB24B39421E0E216F10461F485E0C531FB
:10420000D80740F0892DA9E09A2E84FDACCFF2E0CA
:104210008F2EE8C08B2C93E0B91619F000E010E067
:1042200038C0870180E090E009C0015010408091C3
:10423000DA010E94371584199509A8950115110511
:10424000A1F78C179D0718F000E010E007C08E0161
:10425000081B190B0536110508F0BB248091DA0103
:104260000E9437156C0194FE03C00E94153B02C0EA
:104270000E941A3B8091DA010E9437158C159D052A
:1042800020F08B2C4424552404C02601481A590AD6
:104290008B2CE3E0BE1609F0A5C0C8018C0F9D1F52
:1042A00062E00E94E415A0E0B0E0970140E050E039
:1042B000BC01CD010E94373B5B016C01C92DD0E0F0
:1042C0008E010071107094FE08C02AE030E040E0DA
:1042D00050E00E94373B5B016C01F8E3AF16F9E850
:1042E000BF06F1E4CF06F0E0DF0618F4E7EF9E2EFC
:1042F0000EC0C601B50128EE33E040E050E00E9458
:104300008A3BC901DA015C016D017AEF972EC60183
:10431000B50128EE33E040E050E00E94373B012B2E
:1043200029F022E434E040E050E004C020E134E031
:1043300040E050E00E948A3BC901DA017C018D0116
:104340008091CC01F30180838091CB0181839282A3
:10435000A782B086C186D286E382F4820583168363
:104360000DC0C801B7012AE030E040E050E00E94F3
:104370008A3BC901DA017C018D019394F1E0EF16CB
:10438000F5E3FF06FCE00F07F0E01F0750F7C3FD61
:104390009394920140E050E0C801B7010E94373B7E
:1043A00028EE33E040E050E00E948A3BC901DA0188
:1043B000BC01CD010BC02AE030E040E050E00E949B
:1043C0008A3BC901DA01BC01CD019394603020E041
:1043D000720721E0820720E0920768F7F3017487F3
:1043E00063879586882DCDB7DEB7E0E10C94E53B79
:1043F000A0E0B0E0EEEFF1E20C94CF3BB82EA62E99
:104400008EE0489F600111248FE491E0C80ED91E10
:10441000F6011082118284EF828317821086118642
:104420001286138214821582168214861386809156
:104430000101813009F462C08A3041F5FF24CCE0EB
:10444000D1E01DC098819B1519F489818A1529F046
:104450009A1599F489818B1581F46B817C818D810A
:104460009E814A810AE010E020E030E0EE240E94C4
:10447000230D8F3F11F493E6F92EF3942796809144
:104480000501F816F8F2F4E6FF16C1F58B2D6A2D3A
:104490000E940924FC01009729F0828193818C5DA0
:1044A000954060F18B2D6A2D40E00E947216C60186
:1044B0000E94A820823019F4C6010E942D1F80910D
:1044C00001018431A8F4F60192818A3019F49A3FEF
:1044D0007CF00BC0953F4CF4F60183819481A5815B
:1044E000B6810597A105B10518F08BE08093010115
:1044F0000E94091817B818B814B815B8CDB7DEB7A8
:10450000EAE00C94EB3BA4E0B0E0E9E8F2E20C94C2
:10451000C73B9C838B83009709F440C1FC016381F6
:1045200074818581968142810AE010E020E030E0CC
:1045300057EFE52E0E94230D87FD30C10E94091818
:1045400080910101813009F429C1EB81FC818081D6
:1045500061810E94BF18EB81FC818081618140E014
:104560000E9472164090DA013090DB01F0EC4F2A85
:104570003F2A15BC82E084BD85E687BD18B840920D
:104580007C000E94203BB2E38B2E912C60E070E017
:1045900022242A94A1E0AA2EB12CC12CD12CF1E026
:1045A000EF2EF12C012D112DE7ED5E2EA895623333
:1045B000710558F48091D80187B98091D10185B9EE
:1045C00084B90E94333B14B815B882E3881691046D
:1045D00058F48091D70187B98091D20185B984B907
:1045E0000E94333B14B815B88091D70187B98091E8
:1045F000D10185B984B940927C0050927A008091B3
:104600007A0086FDFCCF50927A0080917A0086FD78
:10461000FCCFE0917800F0917900FA83E983309241
:104620007C0050927A0080917A0086FDFCCF5092F7
:104630007A000E942F3B0E94241F8091D20185B9ED
:1046400084B90E94333B14B880917A0086FDFCCF78
:1046500080907800909079008091D80187B98091FE
:10466000D20185B984B930927C0050927A00809151
:104670007A0086FDFCCF50927A0080917A0086FD08
:10468000FCCF609078007090790040927C0050924E
:104690007A0080917A0086FDFCCF50927A000E94C9
:1046A0002F3B0E94241F8091D10185B984B90E94BB
:1046B000333B14B880917A0086FDFCCF609178007E
:1046C00070917900C301A0E0B0E0E981FA819F0117
:1046D00040E050E0820F931FA41FB51FA80EB91E23
:1046E000CA1EDB1ECB01A0E0B0E0940140E050E028
:1046F000820F931FA41FB51FE80EF91E0A1F1B1F70
:104700002A9409F053CF17B815B8AE14BF04C006E9
:10471000D106E0F58091DD019091DE019C0173E00E
:10472000220F331F7A95E1F7880F991F280F391F41
:1047300040E050E0EA18FB080C091D09C801B70168
:104740000E94373BA60195010E948A3BC901209136
:10475000E1013091E2012817390720F48C01021B96
:10476000130B16C0EB81FC81638174818581968176
:10477000428108EE13E020E030E05AEFE52E0E947F
:10478000230D18161CF400E010E002C00FEF1FEF1D
:1047900080EC8093AA010E94091802C00FEF1FEF5E
:1047A000C8012496E2E10C94E33B80910101803240
:1047B000F1F0813228F48E3141F08F3141F40BC099
:1047C0008132E9F0843218F416C022E411C020E0EE
:1047D00090E080E017C08091020186FD04C027E4CC
:1047E00094E483E50FC027E498E788E70BC027E44B
:1047F00093E485E407C027E491E483E403C027E45D
:1048000092E381E32093B3019093B4018093B501C7
:104810000895282F90910601E2E8F1E008C0808118
:10482000281719F48181681731F091503696992331
:10483000B1F7E0E0F0E0CF0108958091020180FF40
:1048400005C06091B2018091B10104C06091B101D5
:104850008091B2010E940924892B49F01092010134
:1048600010920201809103018E7F809303010895CD
:10487000EF92FF920F931F93CF93DF938091DA0112
:104880000E943715EC018091DB010E9437157C01F5
:104890008091DC010E9437158C0117B88091D701F7
:1048A00088B98091D60185B99091D201892B84B9BC
:1048B00082E390E00E94B7108091D70187B9809180
:1048C000DB010E9437150A97F8F483E28093040114
:1048D0008CE080930B018091CD0180933C0180910D
:1048E000CB0180933D018091CC0180933E01CE01AC
:1048F0008E199F099093400180933F01C01BD10BFB
:10490000D0934201C0934101CDB7DEB7E6E00C94ED
:10491000EF3BA0E0B0E0EFE8F4E20C94CF3BB82E20
:1049200021E08217E1F48091D70187B988B990918D
:10493000D3018091D201892B84B995B98091DB0193
:104940000E94A815EC010091AD011091AE0180917B
:10495000DC010E9437159801281B390B1AC018B8C2
:104960008091D80187B98091D10185B99091D30107
:10497000892B84B9C091AD01D091AE018091DA014B
:104980000E94A815C81BD90B8091DC010E94371525
:104990009C012115310511F421E030E0CE01821B8C
:1049A000930BB9010E94633B6B01EE24FF2420317D
:1049B000310508F062C031E0B316D9F48091D60118
:1049C0009091D201982B94B985B98091DB010E9416
:1049D000A815EC010091AD011091AE018091DC01B0
:1049E0000E943715081B190BA090DD01B090DE0165
:1049F00019C08091D6019091D101892B84B9C091C1
:104A0000AD01D091AE018091DA010E94A815C81BBA
:104A1000D90B8091DC010E9437158C01A090DF0139
:104A2000B090E0010115110511F401E010E0BE01A4
:104A300080E090E020EF3BE247E050E00E94373B0F
:104A4000980140E050E00E948A3BCA01B9012AE087
:104A500030E040E050E00E94373B20E93AE1A20E0E
:104A6000B31E950140E050E00E948A3BC216D30677
:104A7000E406F50610F469017A01B601C701CDB765
:104A8000DEB7EAE00C94EB3BDF92EF92FF920F93DC
:104A90001F93D82E15B88091D20184B98091D70187
:104AA00087B988B98091DB010E94A815BC018430C8
:104AB000910530F18091DD019091DE017C0100E0F3
:104AC00010E085E06937780780F091E0D91669F445
:104AD00014B88091D8019091D701892B87B9809122
:104AE000DB010E943715BC0108C080E99AE1A0E013
:104AF000B0E0E80EF91E0A1F1B1F29EFD22E11C0CD
:104B00008091D50184B98091DB010E94A815BC0178
:104B100098EFD92E80EFE82E8BE2F82E87E0082F51
:104B2000112D17B818B814B815B880E090E020EA35
:104B300036E841E050E00E94373BA80197010E940F
:104B40008A3B2093C1013093C2014093C30150932B
:104B5000C401D092C5011F910F91FF90EF90DF909B
:104B60000895A0E0B0E0E7EBF5E20C94D13B809132
:104B7000DC010E9437157C018091DB010E94371512
:104B80006C018091D30160E10E9453168091DA019B
:104B90000E94A8158C0115B80E94213B8091D1017B
:104BA00085B98091DA010E94A81526E00034120729
:104BB00008F05FC08153914108F45BC014B815B888
:104BC0008091D80188B90E94213B8091D10184B99C
:104BD0008091DA010E94A815853F910508F049C02F
:104BE0008091D30160E10E9453168091DA010E9406
:104BF000A815EC0182E0CD3DD80760F482E28093F5
:104C00000101809103018160809303018AE0809318
:104C10000A0135C08091D10185B90E94213B15B8A8
:104C20008091DA010E94A815853F910510F58091C9
:104C30000101813229F48091030181608093030195
:104C400081E2809301018BE080930A018091BD0194
:104C50009091BE018C179D0720F5CE01A0E0B0E039
:104C60008093BD019093BE01A093BF01B093C0019A
:104C700006C080E0CDB7DEB7E8E00C94ED3B809154
:104C8000CD018093B0018091CB018093B1018091DF
:104C9000CC018093B201EC18FD08F092B801E092CB
:104CA000B70181E0E7CFA0E0B0E0E9E5F6E20C94DF
:104CB000CD3B8B5E914018F408E210E002C008EE94
:104CC00011E08091D6019091D201892B84B9809115
:104CD000DB010E949F156C018091D60185B98091FE
:104CE000DB010E949F154C01C601800F911F8815A2
:104CF000990508F06BC08091D30184B985B918B8C3
:104D00008091D80187B98091DC010E949F1517B866
:104D10008C5B924028F0FF2486E0C816D10410F482
:104D2000FF24F3948091D70187B98091DC010E9420
:104D30009F15EC018091DA010E94371517B88C1786
:104D40009D0738F4C81BD90BC25CD14010F4FF2476
:104D5000F3948091D80188B987B98091D601909158
:104D6000D101892B84B915B88091DA010E949F1571
:104D70005C018091D60185B98091DA010E949F156E
:104D8000EC0118B88091D80187B98091D601909133
:104D9000D101892B84B985B98091DC010E949F15CE
:104DA00088549F4028F089E18093020184E006C086
:104DB000FF2061F489E28093020186E080930A017A
:104DC000F401EC19FD09CA19DB0970C018B880910B
:104DD000D80187B98091D6019091D101892B84B9EE
:104DE00085B98091DA010E949F157C018091D101E3
:104DF00085B98091DA010E949F155C01080F191F87
:104E00000E151F0508F006C1C091AD01D091AE018D
:104E10008091D30184B915B88091D70187B988B939
:104E20008091DC010E949F1518B88D5C904128F498
:104E300000E02C97EC16FD0608F001E08091D70108
:104E400087B98091D6019091D201892B84B985B917
:104E50008091DB010E949F156C018091D20185B980
:104E60008091DB010E949F15EC0115B88091D7015C
:104E700088B987B98091DC010E949F15815D9340BC
:104E800028F48AE18093020185E007C0002309F03D
:104E9000C1C08AE28093020187E080930A01F70192
:104EA000EA19FB0996012C1B3D0BE9018FE1809368
:104EB0000101809103018160809303014091CD0144
:104EC0004093B001CE17DF0738F48091CB01809377
:104ED000B1018091CC0106C08091CC018093B101D9
:104EE0008091CB018093B201CF0162E370E00E9418
:104EF000633B9B01CF01861B970BC817D90750F066
:104F00002E0F3F1F2C173D0728F08091020180646F
:104F1000809302018091B1016091B2010E947216EA
:104F20009091D9018091D801982B97B92091D10106
:104F300024B98091020180FF13C018B825B90091EF
:104F4000AD011091AE018091DA010E949F15980188
:104F5000281B390BC901C091DF01D091E0010AC0C3
:104F600098B915B88091DA010E949F15C091DD01B2
:104F7000D091DE01C057D54EBC0180E090E020E129
:104F800037E240E050E00E94373B9E0140E050E0B5
:104F90000E948A3B2093C1013093C2014093C30118
:104FA0005093C4018AEF8093C5019091D6018091FE
:104FB000D501982B94B92091D70127B9809102018E
:104FC00080FF03C015B828B902C095B918B80E946F
:104FD000203B8091DB010E9437158C018091DC0120
:104FE0000E9437159C01201B310B3093BC0120938C
:104FF000BB018091020180FF06C020543D4E215C20
:10500000324140F003C0215C324120F01092BC01DB
:105010001092BB01CDB7DEB7ECE00C94E93BA0E009
:10502000B0E0E5E1F8E20C94CD3B90E0EC01C1701A
:10503000D07080FF07C0C090D1018091D70160E19E
:10504000A62E06C0C090D2018091D80151E1A52EB4
:1050500047E0B42EB8228091DC01806480937C000C
:105060000E94203BEE24FF248701DD243FEF832EA6
:1050700033E0932EA8958091D3016A2D0E94531698
:105080008091D6018C2984B9209721F086B18B219B
:10509000E9F703C086B18B21E9F3C4B880917A00A7
:1050A000806480937A0080917A0086FDFCCF2097FF
:1050B00059F08091780090917900A0E0B0E0E80E7E
:1050C000F91E0A1F1B1F0EC0809178009091790075
:1050D0009401281B390BC901A0E0B0E0E81AF90AD5
:1050E0000A0B1B0BD3943AE0D31621F6C801B70183
:1050F0002AE030E040E050E00E94AC3BB901CA0138
:105100002091AD013091AE0140E050E00E94373B6C
:1051100020E034E040E050E00E94AC3B3093BA0124
:105120002093B90180E48093AA01CDB7DEB7ECE00B
:105130000C94E93BA0E0B0E0E0EAF8E20C94CD3B4F
:10514000982E5B010E94B11541E0941641F58091C3
:10515000D6019091D101892B84B985B90E941C3B5D
:10516000C090AD01D090AE018091DA010E94371558
:10517000C81AD90A0091AD011091AE018091DC01ED
:105180000E943715081B190BC091DF01D091E00177
:105190008DEF99E028E43DE0FF24F3941AC080915C
:1051A000D6019091D201892B84B98091DB010E94B4
:1051B000A8156C018091DC010E9437158C01C0910B
:1051C000DD01D091DE0181ED93E020ED37E0B2E02A
:1051D000FB2E8017910708F0DBC0809101018E3112
:1051E000E9F490910201892D892321F49460909330
:1051F00002010EC051E0951659F49091B1018091D1
:10520000CB01981729F49092010182E0809302016A
:105210008091030181608093030105C08EE180933A
:10522000010190920201AC14BD0410F4CA18DB080D
:10523000B60180E090E020EF3BE247E050E00E94C2
:10524000373B980140E050E00E948A3BCA01B90117
:105250002AE030E040E050E00E94373BC057D54E96
:105260009E0140E050E00E948A3BC901DA015C01E6
:105270006D01892D0E948924A616B706C806D90695
:1052800028F45B016C01A2E08A2E02C0882483947A
:10529000E090BD01F090BE010091BF011091C001EE
:1052A00081E0981629F48091CC016091CD0104C071
:1052B0008091CD016091CB0140E00E94F8210E94D5
:1052C00000188091020182FF1EC06091C60170919A
:1052D000C7018091C8019091C901009152011091BC
:1052E000530120915401309155014091CA01E09041
:1052F00051010E94230D813009F4EFC0892D846093
:105300008093020106C0EA14FB040C051D0508F099
:10531000E4C080E00E944425A092BD01B092BE018D
:10532000C092BF01D092C0018092B601809152011B
:1053300090915301A0915401B09155018093C60101
:105340009093C701A093C801B093C9018091510106
:105350008093CA018091CD018093B00141E0941601
:1053600059F48091CB018093B1018091CC0180935D
:10537000B20110920A01B1C08091CC018093B101B9
:105380008091CB018093B20181E080930A01A5C096
:1053900051E6A516B10408F0A0C02C153D0508F093
:1053A0009CC08091DA010E9437158C018091DB014D
:1053B0000E943715081B190B0A3F110508F044C05D
:1053C0008FE1809301018F2D84618093020181E040
:1053D000F81641F46091DF017091E0016057754E5D
:1053E00082E007C06091DD017091DE016057754E6B
:1053F00083E080930A0180E090E09801F3E0220FBF
:10540000331FFA95E1F7000F111F200F311F40E005
:1054100050E00E94373B960140E050E00E948A3BFA
:10542000C9012091E1013091E2012817390718F0F4
:1054300020E030E004C0AC01421B530B9A013093D2
:10544000B8012093B7010FC080E2809301018F2D36
:1054500084608093020151E0F51611F488E001C0E8
:1054600089E080930A018F2D0E940F28809103010B
:105470008160809303019091CD019093B00181E010
:10548000F81639F48091CB018093B1018091CC0161
:1054900006C08091CC018093B1018091CB018093B3
:1054A000B201892F6091B20140E00E94F821809101
:1054B000520190915301A0915401B09155018093F4
:1054C000C6019093C701A093C801B093C901809110
:1054D00051018093CA010E940018CDB7DEB7ECE0FD
:1054E0000C94E93BA0E0B0E0E8E7FAE20C94CB3B97
:1054F000A8950E94091880910101813009F4F3C038
:1055000018B88091D80187B98091DA010E943715C7
:10551000782E692E8091D40184B985B98091D30108
:1055200061E10E9453168091DA010E94A815982E1D
:10553000892E8091D10184B985B98091D30161E12F
:105540000E9453168091DA010E94A8155C01809197
:10555000DB010E9437158C010E940918809101011E
:10556000813009F4C0C018B88091D80187B9809102
:10557000DA010E9437156C0117B88091D70188B9FC
:1055800087B915B88091D50184B98091D30160E1C4
:105590000E9453168091DA010E94A815EC018091B7
:1055A000DB010E943715C817D90718F4EE24FF2431
:1055B00003C07E01E81AF90AE501C01BD10B8091F6
:1055C000D20184B98091D30160E10E945316809189
:1055D000DA010E94A8158C018091DB010E94371529
:1055E000081B190B17B80C171D0768F4AE01401BF8
:1055F000510B8E01292D382DC9017C01272D362D07
:10560000C9016C0103C0A8014C1B5D0B495E5340EE
:1056100008F069C086E0E816F10408F464C0CE140E
:10562000DF0420F4C7018C199D0903C0C6018E193F
:105630009F0923E0C216D10420F08436910508F4B6
:1056400052C088E2E816F10450F515B88091D201F5
:1056500084B98091D70188B987B98091DB010E9414
:10566000A815EC018091D10184B98091D80188B945
:1056700087B98091DA010E94A815FC01CE0164E18E
:1056800070E00E94633B9B01CE01861B970B8E1737
:105690009F0728F42C0F3D1FE217F30720F1C801E4
:1056A0008759904089589141F0F4809101018823F5
:1056B00011F08A3019F484E1809301019091060180
:1056C000E6E09E9FF0011124EE57FE4F8091CB0142
:1056D00080838091CC01818313830283F582E482ED
:1056E0009F5F90930601CDB7DEB7EEE00C94E73BE9
:1056F0008F929F92AF92BF92DF92EF92FF920F93A1
:105700001F93CF93DF934C01162F009709F4EDC040
:105710000E94091880910101813009F4E6C015B892
:1057200018B8012F10E0A1E0AA2EB12CA022B122BE
:1057300000FF06C08091D20184B98091D70106C0D4
:1057400014B88091D8019091D701892B87B987E04F
:1057500080937A0080E480937B008091DB01806CF1
:1057600080937C0084E480BF0E94203BA895109227
:10577000800010928100109285001092840087E2D0
:1057800086BBE801C470D07002FF0EC08091D701C3
:1057900088B980E1815000008823E1F78091810081
:1057A00081608093810008C0809181008160809336
:1057B00081008091D70188B960E070E091E086B304
:1057C000E82F85FF03C0F3E0DF2E09C080FFF7CF8D
:1057D00096BB6F5F7F4F6034710589F7DD241092AF
:1057E000810080E286BB2091860030918700809105
:1057F000D1019091D201892B84B917B8809184008E
:10580000909185002817390730F4E0FF04C081E04B
:1058100086BB6F5F7F4F87E980937A0080917B0022
:105820008F7B80937B00DD2009F45BC040E050E07B
:10583000CB01A0E0B0E08C01FF24EE24E22AF32AA1
:10584000042B152BCD2B11F484E009C02FE330E09D
:1058500040E050E0E20EF31E041F151F83E0A11488
:10586000B10411F08D5F01C08F5F682F70E080E0A0
:1058700090E06E157F058007910728F060E070E0EA
:1058800080E090E008C0A8019701261B370B480B69
:10589000590BCA01B90121E732E040E050E00E9413
:1058A000373B6B5F7F4F8F4F9F4F2AE030E040E0E8
:1058B00050E00E948A3BC901DA01F40180839183A0
:1058C000A283B383AB2831F0825E9440A040B04005
:1058D00030F007C085369105A105B10510F482E0CE
:1058E000D82E80EC8093AA0101C0DD248D2DDF919C
:1058F000CF911F910F91FF90EF90DF90BF90AF90ED
:105900009F908F900895A4E0B0E0E9E8FCE20C9449
:10591000CD3B6C011092E8011092E9011092EA016E
:105920001092EB011092EC01009709F425C1FC01E3
:105930006381748185819681428100ED17E020E0CA
:1059400030E0EE240E94230D87FF16C1F60180810E
:10595000618140E00E947216CE01019665E00E94CE
:10596000782B833061F489819A81AB81BC8189581D
:105970009341A040B04030F015E0B12E28C08823FC
:1059800009F0FAC05E010894A11CB11CC50161E0D8
:105990000E94782B823019F0BB24B39415C0F60115
:1059A0006381748185819681428108E210E020E064
:1059B00030E0EE240E94230D87FFDEC0C50162E0C7
:1059C0000E94782BB2E0BB2E833009F0D5C0F601DF
:1059D000638174818581968142812FEF0E94880DB9
:1059E0008B019C018091E1019091E201C090DD0169
:1059F000D090DE01E090DF01F090E001EC0CFD1CA6
:105A000005966AE070E00E94633BE60EF71EE00E2A
:105A1000F11EB0FE20C080E99AE1E80EF91EC80E22
:105A2000D91E89819A81AB81BC818037E7E19E07CD
:105A3000E0E0AE07E0E0BE0718F4E0E5F0E01CC0EF
:105A4000845D9043A040B04018F0E7E3F0E014C05C
:105A5000EDE2F0E011C089819A8125E08C3D92074A
:105A600018F4EAE0F0E008C08858934118F0EEEC32
:105A7000FFEF02C0EBEFFFEF2091E501332727FD99
:105A800030958091AB019091AC01280F391F40E017
:105A900050E0BF01882777FD8095982F620F731F14
:105AA000841F951F4701AA24BB24A50194010E94CD
:105AB000373B960140E050E00E948A3BCA01B901A1
:105AC00025E030E040E050E00E948A3BDA01C90165
:105AD00063E00E94E4157C0169817A818B819C815D
