:100000000C94D4040C94F1040C94F1040C94F104B9
:100010000C94F1040C94F1040C94F1040C94D5109C
:100020000C94F1040C94F1040C94F1040C94E6315A
:100030000C94F1040C94F1040C94F1040C94F1046C
:100040000C94CE310C94F1040C94F1040C94F10452
:100050000C94F1040C94F1040C94F1040C94F1044C
:100060000C94F1040C94F1044110431046104C1010
:100070004E10521055106D10931093107010931075
:100080007310931076109310931093109310931095
:100090007910931093109310931093109310931062
:1000A0009310931093109310931093109310931038
:1000B0009310931093107C10A138A4389F389F3868
:1000C0009F389F389F389F389F389D38AA38AD3861
:1000D000B038BA38CC38CF38D238D5389F38D8383D
:1000E000DB38DE38E138E438E738EA38ED38F03824
:1000F000F438F8389F38FB38F038FE3801390539C4
:100100000839F03801390B390E399F389F389F383C
:100110009F389F3811390000000000000000087F60
:100120003E1C087F7F08087F7F081C3E7F08087FF1
:100130007F00007F7F084C5E7202725E4C00C07EC2
:100140003E201E3E2000087F414141414141414146
:10015000414141417F087D7E1311137E7D001D3E8C
:100160006341633E1D003F7F4140417F3F00FFFFF1
:100170004949497F3600317A4A4A7E3D4000183D60
:100180006642663D18003E7E4140217E7E000000B2
:100190000205020000000000000000000000000650
:1001A0006F6F06000000000B0700000B0700367F92
:1001B0007F367F7F3600042E2A6B2A3A1000637345
:1001C000381C0E676300367F49793B6A480000009F
:1001D000070B0000000000001C3E6341000000000F
:1001E00041633E1C000000150A1F1F0A150000187D
:1001F000187E7E1818000000B0700000000008088B
:100200000808080808000000606000000000607036
:10021000381C0E0703001C3E6341633E1C00004275
:100220007F7F4000000062735159494F46002263AE
:10023000414949773600181C16137F7F1000276745
:100240004545457D38003C7E4B49497930000303E4
:1002500071790D070300367F4949497F3600064F03
:100260004949693F1E00000000666600000000006A
:1002700000A66600000000081C3663000000363649
:10028000363636363600004163361C08000002035D
:10029000696D070600003E635D555D6B2E007C7E38
:1002A0001311137E7C007F7F4949497F36001C3E35
:1002B0006341416322007F7F4141633E1C007F7F99
:1002C0004949494941007F7F0909090901001C3E4C
:1002D0006341497979007F7F0808087F7F0000002B
:1002E000417F7F41000030704040407F3F007F7F72
:1002F000183C366341007F7F4040404040007F7F94
:100300000E1C0E7F7F007F7F0E1C387F7F001C3EFF
:100310006341633E1C007F7F1111111F0E003E7F61
:100320004151713F5E007F7F0919396F4600266F8A
:100330004949497B32000001017F7F0101003F7F75
:100340004040407F3F000F1F3870381F0F003F7F35
:100350004038407F3F0063773E1C3E7763000007D4
:100360000F78780F07006171795D4F474300007F78
:100370007F414100000003070E1C387060000041FF
:10038000417F7F000000080C0603060C08008080F7
:100390008080808080000000070B00000000307A21
:1003A0004A4A7E3C40007F7F4442627E3C00183CCB
:1003B0006642426624003C7E4242447F7F003C7E8F
:1003C0004A4A4A6E2C0000087E7F090A00001C3E43
:1003D000A2A292FE7C007F7F0402027E7C000000CD
:1003E000487B7B4000000040C088FB7B0000007F12
:1003F0007F08346642000000017F7F0000007E7E9F
:10040000027E047E7C007E7E0402067C7800183C1E
:100410006642663C1800FEFE2242427E3C003C7E64
:10042000424222FEFE007E7E0402020E0C00246E7A
:100430004A4A4A7A300004043F7F446420003E7EEA
:100440004040207E7E000E1E3060301E0E003E7E3C
:100450004030407E3E0062761C081C7662001E3EE4
:10046000A0A090FE7E004262725A4E460000083EF6
:100470007741410000000000007F7F000000000085
:100480004141773E08001C1C1C7F3E1C0800FF01F8
:10049000020304050607FFFFFFFFFFFFFFFFFFFF4B
:1004A000FFFFFFFFFFFFFFFFFFFFFFFFFFFF101139
:1004B00012131415161718191A1B1C1D1E1F2021A4
:1004C00022232425262728292A2B2C2D2E2F303194
:1004D00032333435363738393A3B3C3D3E3F404184
:1004E00042434445464748494A4B4C4D4E4F505174
:1004F00052535455565758595A5B5C5D5E5F606164
:1005000062636465666768696A6B6C6D6EFFFFFFA6
:10051000FFFFFFFFFFFFFFFFFFFFFFFFFFFFFFFFEB
:10052000FFFFFFFFFFFFFFFFFFFFFFFFFFFFFFFFDB
:10053000FFFFFFFFFFFFFFFFFFFFFFFFFFFF0FFFBB
:10054000FFFFFF05FFFFFFFFFFFFFFFFFFFFFFFFB5
:10055000FFFF08FFFFFFFFFFFFFFFFFFFFFFFFFFA2
:10056000FFFFFFFF09FFFFFFFFFF0AFFFF0BFFFF7A
:10057000FFFF0CFFFFFFFFFFFFFFFFFFFFFFFFFF7E
:10058000FFFFFFFF0DFFFFFFFFFF0EFFFFFF00005C
:1005900000000000000000E0E00000008040201F9C
:1005A000007C8282820000C848488808080808FF4A
:1005B000FF14224180C00000000000000000001F66
:1005C00012120D0000000003030000010101027C73
:1005D000007F49494100000000000000000000E0E9
:1005E000E0000000E0C0A01F00FE9292820000C860
:1005F00048488808080808FFFF14224180000000CE
:10060000000000000000001F12120D000000000397
:10061000030000000001027C003E41414100000057
:100620008080000000C0C000E0E040404040407FCB
:1006300000FE82827C00001F2028190000FFFF00BE
:100640009C9C08081C3E08F8000000000000000107
:100650000101010101010100030301010101017F09
:1006600000264949320000404040404040C0C000A0
:10067000E0E04040404040FF004C92926400007C2B
:1006800082A2640000FFFF009C9C08083E1C080F2B
:100690000000000000000000000000000001010058
:1006A000030301010101017F007F41413E00000081
:1006B0008080000000C0C000E0E040404040407F3B
:1006C00000FE82827C00001F2028190000FFFF002E
:1006D000FFFF08081C3E08F80000000000000001B1
:1006E0000101010101010100030301010101017F79
:1006F00000264949320000404040404040C0C00010
:10070000E0E04040404040FF004C92926400007C9A
:1007100082A2640000FFFF00FFFF08083E1C080FD4
:1007200000000000000000000000000000010100C7
:10073000030301010101017F007F41413E00008070
:100740004040800000000000E0E08080808080FF6A
:1007500000FE82827C00008F90948C80E0C08080BC
:10076000FFFF80808080808000000000000000008B
:100770000000000003010000030300000000007FF0
:10078000002649493200008080808080C0E080805F
:10079000E0E08080808080FF004C9292640000F84E
:1007A0000444C80001030000FFFF80808080808037
:1007B0000000000000000000010100000000000037
:1007C000030300000000007F007F41413E00000065
:1007D0000000000000808000E0E000000080403F5A
:1007E000007C8282820000884848880808FFFF0059
:1007F000FFFF14A2C1E00000000000000000000F95
:1008000010140C0000000000030300000000017E33
:10081000007F494941000000000000000080800086
:10082000E0E00000C080403F00FE9292820000881D
:100830004848880808FFFF00FFFF1422418101009B
:10084000000000000000000F10140C000000000069
:10085000030300000000017E003E41414100000012
:1008600000000000000000000000FF00007C1212E9
:100870007C000000000000F00848D00000C1C3C7A1
:10088000CFDFFFDFCFC7C3C10000000000000008BA
:10089000090908080808080402017F00003C4242D8
:1008A0004200000000000000000000C0C0C0C0C046
:1008B000C0C0C0FFC0C0CFC0CFC0C0C00000E010EB
:1008C00090A00080E0F8FEFFFEF8E080838FBFFF7D
:1008D000BF8F83800000111212111011110905033E
:1008E0000101017F010101790101010100000010F6
:1008F00090901010101010204080FF00007C121209
:100900007C0000000000000F10140D0000C1C3C7E0
:10091000CFDFFFDFCFC7C3C1000000000000000031
:10092000000000000000000000007F00003C424288
:1009300042000000000000404040408000000000F5
:10094000E0E08080808080FF003E003E000000FEEE
:100950009292820005060708FFFF808080808080D9
:100960000000000000000000000000000000000087
:10097000030300000000007F00003E000000050AA5
:100980000605060A050A0609060A050A0609060AF0
:10099000050A0609060A050A0605060A050A0605E5
:1009A0000A06090A06090A0611241FBECFEFD8E07D
:1009B000DEBFCDBF11E0A0E0B1E0EEE2F8E702C09B
:1009C00005900D92A030B107D9F711E0A0E0B1E099
:1009D00001C01D92A33FB107E1F70E94E80A0C9401
:1009E000153C0C940000982F8091B001981719F4D1
:1009F0008091B30108958091B101981719F4809105
:100A0000B40108958091B50108950E946E3A8EEC6C
:100A100090E00E94871AF89488E10FB6F8948093CA
:100A20006000109260000FBE83B7817F846083BF37
:100A300083B7816083BF889583B78E7F83BF089516
:100A40008AE390E00E94871A87E490E00E94501B9E
:100A50008091AF018F5F8093AF0108950E94411A8A
:100A60008091020182FF03C086E491E002C08BE422
:100A700091E00E94871A08950E94411A8091020114
:100A800080FF02C08EE401C080E50E941B1982E451
:100A900091E00E94871A08950F931F938EE00E94A1
:100AA00012159093AC018093AB0108EA11E088EC39
:100AB000F80180838EE00E9412152091E401332713
:100AC00027FD3095280F391F3093AC012093AB01DF
:100AD00089E1F80180831F910F9108951F93162FCC
:100AE0000E941B1982EF91E00E94871A812F0E94B9
:100AF0001B190E94411A60910F01709110018091A1
:100B000011019091120140910E0124E00E942D19D3
:100B10001F9108951F93162F0E94451A81E00E948D
:100B20001B19812F0E94451A1F9108950F931F933F
:100B3000CF93DF938091020180FF05C00091B20145
:100B40001091B10104C00091B1011091B201802F48
:100B5000612F0E949123EC01009779F00E94411AC5
:100B6000802F612F0E948A0580917B018160809394
:100B70007B01D0937D01C0937C018091020183FDB4
:100B80005FC08091B9019091BA01892BA9F088E7E3
:100B900091E00E94431B6091B9017091BA018827CE
:100BA00077FD8095982F4DEF26E50E941E1A8091C3
:100BB0007B01846080937B0185E591E00E94431B6B
:100BC0006091C6017091C7018091C8019091C901DF
:100BD0004091CA0126E40E942D1980917B01886012
:100BE00080937B018091B7019091B801892B99F096
:100BF0008AEC91E00E94431B6091B7017091B801AB
:100C000080E090E04EEF24E00E942D1980917B015E
:100C1000806180937B01209799F00E94D61A81E031
:100C20000E941B190E94411A83E791E00E94961AC4
:100C30006A817B8180E090E04DEF26E50E942D19CE
:100C4000DF91CF911F910F91089580E00E944A1A81
:100C500081E00E944A1A82E00E944A1A8DE30E94B3
:100C60001B1980E00E94451A81E00E94451A82E02B
:100C70000E94451A08958AEC90E00E94871A0E940B
:100C8000D61A0E94250680E891E00E94431B6091DD
:100C900041017091420180E090E04DEF26E50E9415
:100CA0002D1983E791E00E94431B60913F017091F1
:100CB000400180E090E04DEF26E50E942D19089557
:100CC00080910101823219F480EC90E002C084EC42
:100CD00090E00E94871A0E94D61A0E9425068091F1
:100CE000B7019091B801892B71F089E691E00E94DB
:100CF000431B6091B7017091B80180E090E04DEF27
:100D000026E50E942D19089580E591E00E94871A3A
:100D10000E943C050E942E050E94D61A0E942506BC
:100D20000E9496050895EF920F931F93CF93DF9340
:100D3000EC016091C1017091C2018091C301909159
:100D4000C4014091C50102E310E020E030E057EF1C
:100D5000E52E0E94130D87FD10C0CE010E94431B9B
:100D60006091C1017091C2018091C3019091C40151
:100D70004091C50121E40E942D19DF91CF911F916F
:100D80000F91EF9008958091020184FF05C08AE3DE
:100D900091E00E94871A03C08AE40E941B198EE327
:100DA00091E00E94871A0E943C058091020184FF15
:100DB00002C00E942E050E94D61A0E94250680912C
:100DC000020184FF02C00E9496058091020183FF08
:100DD0001EC081EC91E00E9493068091BB0190912E
:100DE000BC01892BA1F08EEC91E00E94431B0E9474
:100DF000D61A0E94411A6091BB017091BC018827EC
:100E000077FD8095982F4DEF26E50E941E1A0895D4
:100E1000A0E0B0E0EEE0F7E00C945D3B80910201D1
:100E200080FF0CC0C9E5D1E0E090B001F090B201C4
:100E30000091B1011F2DAE2CB02E0BC0CDE5D1E03D
:100E4000E090B201F090B0011091B1010E2DA12EF1
:100E5000BF2C8CEB90E00E94961ACE010E94871A5C
:100E60008091020182FF03C08BE20E941B190E9445
:100E7000D61A0E942506812F602F0E949123EC0133
:100E8000009779F00E94411A812F602F0E948A05F5
:100E900080917B01816080937B01D0937D01C09321
:100EA0007C018F2D6E2D49E10E94731E813071F4FB
:100EB0000E94D61A82E465E40E946E0584E0809365
:100EC000270180917B01826080937B0181E691E024
:100ED0000E94431B6091BD017091BE018091BF01D2
:100EE0009091C00140E020E00E942D190E94411A1B
:100EF0008091B60180FF02C085E603C081FF03C078
:100F000083E60E941B198E2D6F2D0E949123EC0108
:100F1000009719F400E010E034C085E691E00E94EB
:100F2000431B0A811B812C813D81C090BD01D09063
:100F3000BE01E090BF01F090C00144E6C416D104A8
:100F4000E104F10498F0C801821B930B63E070E0A8
:100F50000E94053B4AEFC416D104E104F10418F4E1
:100F6000061B170B03C08B01020F131FB80180E093
:100F700090E04DEF26E50E942D191093810100931A
:100F800080018EE691E00E94930681E0053F1807FC
:100F900028F18A2D6B2D0E949123EC010097F1F02E
:100FA0008A819B81825C9140C8F40E94D61A8A2D66
:100FB0006B2D0E948A050E94411A6A817B8180E024
:100FC00090E04DEF26E50E942D1980917B01846011
:100FD00080937B01D0937F01C0937E01CDB7DEB7B4
:100FE000EAE00C94793BA1E0B0E0E9EFF7E00C9483
:100FF0005D3B80910601813061F4F090830172E8DD
:10100000A72E71E0B72E00E010E0898365E0E62EA0
:1010100073C0823009F045C0D0908201C090880131
:10102000DC1489F4C0908901ED2CD090830152E842
:10103000A52E51E0B52E85010A5F1F4F91E09983DF
:1010400045E0F42E77C0F090830180918901F81675
:1010500009F465C0D81651F032E8A32E31E0B32E62
:1010600085010A5F1F4FE1E0E98316C0FC1459F4C3
:10107000ED2CFD2C22E8A22E21E0B22E85010A5F84
:101080001F4F198239C092E8A92E91E0B92E85012F
:101090000A5F1F4FF1E0F98385E0E82EB5E0FB2EF3
:1010A0002BC0833071F520E046E0249F50011124CD
:1010B00082E891E0A80EB91E30E0349F800111242F
:1010C0000E571E4F231741F0F5019181F8018081E1
:1010D000981711F425E035E03F5F333070F32F5F50
:1010E000233018F3253010F400E010E0F501F18012
:1010F000F1E0F983A3E0EA2EF5E0DF2EE5E0CE2E65
:1011000019C08AEE91E00E94961A80910601805DD6
:101110000E941B198091060180937901E6C072E854
:10112000A72E71E0B72E85010A5F1F4F81E08983EA
:1011300065E0E62EB0927D01A0927C0110937F01C4
:1011400000937E0192E09E1550F0F50181810E948E
:101150004A1A8EEE91E00E94871A8E2D09C0F50181
:1011600080810E944A1A8AEE91E00E94871A8F2D90
:101170000E944A1A01151105B1F0EF1441F0F3E095
:10118000FE1528F0F801F1808AEE91E004C0F80124
:10119000F0808EEE91E00E94871A8F2D0E944A1AED
:1011A00082E080937901F4E0FD1550F18D2D6C2DD6
:1011B00049E10E94731E813019F50E94411A82E0B4
:1011C0008E1540F08DE591E00E94871A80917B0199
:1011D000856007C089E591E00E94871A80917B01B4
:1011E000836080937B018FE30E941B190E94D61AB3
:1011F00091E3C90E8D2D8F5C6C2D0E946E051982B6
:1012000083E791E00E94431BF5016281738180E0D6
:1012100090E04DEF26E50E942D190E94411A01151C
:10122000110541F5F501848195818A3F910578F496
:1012300088E20E941B19F5016481758180E090E0CD
:1012400040E020E00E942D1989E20E941B19F5015F
:101250008181608140E00E944D1681E00E94CC2493
:101260008CE791E00E94930680917B0188608093D7
:101270007B0109C0F8016281738180E090E04DEF4D
:1012800026E50E942D19F981F13079F586E791E084
:101290000E94431BF5018181608140E00E94802112
:1012A00060915201709153018091540190915501C8
:1012B0004091510126E40E942D1901151105A9F054
:1012C0000E94411AF8018181608141E00E948021E1
:1012D0006091600170916101809162019091630160
:1012E00040915F0126E40E942D192196EAE00C94BA
:1012F000793BEF920F931F93CF93DF93609160013F
:10130000709161018091620190916301009152019D
:1013100010915301209154013091550140915F018A
:10132000E09051010E94130D813019F4CDE5D1E018
:1013300002C0CFE4D1E060916E0170916F018091A5
:101340007001909171010B811C812D813E81409132
:101350006D01EA800E94130D813011F4CBE6D1E0DB
:10136000D0937D01C0937C0188810E944A1A86EE49
:1013700091E00E94871A89810E944A1A0E94D61A17
:101380006B817C818D819E814A8126E40E942D198A
:10139000CE010E940B228C018FEF0F3F180749F0FE
:1013A0000E94411AB80180E090E04EEF24E00E94D4
:1013B0002D1910938101009380018B859C85892BC9
:1013C00061F086EC91E00E94431B6B857C8580E098
:1013D00090E04D8521E40E942D19DF91CF911F915E
:1013E0000F91EF900895A0E0B0E0E9EFF9E00C94E0
:1013F000603B90910501913049F4D0900C0100E0E0
:1014000010E0BCE0EB2EB1E0FB2E62C082E08093E6
:101410007901933049F003E111E0A9EFEA2EAFEF33
:10142000FA2EE00EF11E49C060911601709117016D
:10143000809118019091190100910F0110911001F4
:10144000209111013091120140911501E0900E019F
:101450000E94130D813019F4C3E1D1E002C0CCE049
:10146000D1E060911D0170911E0180911F0190914A
:1014700020010B811C812D813E8140911C01EA805D
:101480000E94130D813011F4CAE1D1E081E0CC302B
:10149000D80731F4F7E0EF2EF12CEC0EFD1E04C05E
:1014A000ECE0EE2EE1E0FE2E8701095F1F4F0C17E6
:1014B0001D0719F48701025F1F4FF701D080F80163
:1014C0008081D81629F08181D81611F0F701D180DA
:1014D000F0927D01E0927C0110937F0100937E01E8
:1014E000F70180818D1511F4F70181810E944A1A5C
:1014F00082EF91E00E94871A8D2D0E944A1A0115F1
:10150000110561F082EF91E00E94871AF801808155
:101510008D1511F4F80181810E944A1A0E94D61A91
:10152000F7016381748185819681428124E00E9464
:101530002D190115110561F00E94411AF80163810E
:10154000748185819681428124E00E942D1919C001
:10155000C7010E940B2C8130A1F40E94411A6091B6
:10156000E9017091EA018091EB019091EC014091C9
:10157000E80128E40E942D1980917B01816080930D
:101580007B01CDB7DEB7E7E00C947C3B8091020194
:101590008130C9F48EE990E00E94871A0E94D61A21
:1015A000809107010E944A1A0E94161A0E94411A4D
:1015B000609108017091090180E090E04DEF26E50F
:1015C0000E942D190895823011F40E94200508957B
:1015D000EF92FF920F931F9380E185BF87E880937E
:1015E0007A0014B7187084B7877F84BF88E10FB67C
:1015F000F89480936000109260000FBE81E08093A9
:10160000A60182E08093A7010E9445330E94E03248
:101610000E942E391123D1F00E946E3A82E390E0AD
:101620000E94871A87EA90E00E94501B80ED97E0A5
:101630000E94951083B7817F846083BF83B78160E8
:1016400083BF889583B78E7F83BF95C14F9B02C0B0
:1016500010E010C084E190E00E9495104F9905C001
:101660001F5F1536B9F713E005C0103110F012E016
:1016700001C011E00E947C3A10922101133019F44C
:101680000E94E11004C081E061E00E94CB148091CF
:10169000E6010E9486390E94031986E190E00E94CB
:1016A000871A83E391E00E94501B0E94FB188CED87
:1016B00095E00E9495101092AF0189E18093A801F6
:1016C00081E08093A9018093AA0189E893E1909336
:1016D000AE018093AD012FE088E190E00FB6F89461
:1016E000A895809360000FBE20936000789416E662
:1016F00001E093E0F92E82E0E82E109201011092B1
:10170000020110920301109204011092060110923E
:1017100005011092B6011092B8011092B701109213
:10172000BA011092B9011092BC011092BB01109243
:10173000BD011092BE011092BF011092C001109223
:10174000C1011092C2011092C3011092C401109203
:10175000400110923F0110924201109241011092FB
:10176000790100937A0110927B0110927D01109211
:101770007C0110927F0110927E0110922C01009347
:101780002E01F092270117B8E09221010E946E3AD3
:101790000E944C0586E190E00E94871A163609F4F3
:1017A000AEC087E290E00E94501B0E94E417809137
:1017B00001018130E1F180E061E042E00E94C61663
:1017C00081E060E042E00E94C61680E062E041E015
:1017D0000E94C61682E060E041E00E94C61681E0E9
:1017E00062E040E00E94C61682E061E040E00E94B4
:1017F000C6160E949E150E945D23809101018823D8
:1018000011F08A30A1F40E94411A83E40E941B194E
:1018100082E060E040E00E94802182E061E041E0FF
:101820000E94802181E060E042E00E9480210E94CD
:101830006E3A183611F482E001C083E080932101F2
:101840000E940319809101018A3010F00093790100
:101850008E3111F18F3160F48A3069F18B3018F4D8
:10186000813079F513C08B3049F1843151F511C0C5
:101870008132D9F0823228F48F3189F0803209F533
:1018800011C0823291F08332E1F412C00E94C60A84
:101890001AC00E94F30717C00E94080714C00E94D4
:1018A000C30611C00E9484060EC00E9460060BC0D1
:1018B0000E943B0608C00E94F30905C00E947909F6
:1018C00002C00E9420050E94FB18809101018E3108
:1018D00030F080912701882311F00E94051B1836F3
:1018E00041F40E94E5188BEF91E00E943E1B0E949C
:1018F000F018809101018A3010F01092AF0182E05F
:101900000E945A331092210188EB9BE06EE10E9405
:10191000EB0D182F882329F48091AF018530C8F48E
:101920001BC08330C1F08230A1F08530A1F0843635
:1019300099F40E94E5180E948736882311F410E07C
:1019400003C00E949038182F0E94F018112321F430
:10195000D6CF17E601C015E681E00E945A3315364E
:1019600029F40E9434108936E1F7C9CF173609F0FF
:10197000C4CE0E94050580E090E01F910F91FF907A
:10198000EF900895AF92BF92CF92DF92FF920F93A4
:101990001F93DF93CF9300D00F92CDB7DEB789832B
:1019A0006A834B836E010894C11CD11C860124E01C
:1019B000A22EB12CAC0EBD1E802F8C19F801F08028
:1019C000FF2049F00E944A1A0E94161A8F2D0E9489
:1019D0001B190E94411A0F5F1F4F0A151B0561F763
:1019E0000F900F900F90CF91DF911F910F91FF906B
:1019F000DF90CF90BF90AF9008951F9311E00BC080
:101A00002AE030E040E050E00E94183BC901DA01D2
:101A1000BC01CD011F5F6A3071058105910580F71A
:101A2000812F1F9108956F927F928F929F92AF9214
:101A3000BF92CF92DF92EF92FF920F931F933B01E1
:101A40004C01F42E580169010E2D0E94FD0C182F37
:101A5000C601B5010E94FD0C61147104810491045A
:101A600091F1A114B104C104D10431F1EF2CE10EC4
:101A7000800F8E1534F1E81669F51E2D1F19E01A36
:101A80000BC0C601B5012AE030E040E050E00E9402
:101A9000C53A5B016C01E394E1169CF30BC0C401F1
:101AA000B3012AE030E040E050E00E94C53A3B013B
:101AB0004C011F5F1E159CF3A614B704C804D9047B
:101AC00010F481E008C06A147B048C049D0410F0BB
:101AD00080E001C08FEF1F910F91FF90EF90DF909A
:101AE000CF90BF90AF909F908F907F906F90089510
:101AF0000F931F93142F022F9B01AC0117C01017D7
:101B000054F4B901CA012AE030E040E050E00E94FC
:101B1000183B1F5F0BC0B901CA012AE030E040E06A
:101B200050E00E94C53A9B01AC011150101739F7E3
:101B3000B901CA011F910F910895681721F48AE233
:101B40000E941B1908950E94411A0895FF920F9355
:101B50001F93FAB08AB1837F8AB90E94B43A10E029
:101B600000E089B180958C7011F420E00EC082FDF8
:101B70001F5F83FD0F5F802F810F8A3028F48EE175
:101B800090E00E949510EDCF22E0112311F094E037
:101B900001C090E0002321F09430D9F496E002C017
:101BA000992389F080912C01981741F4223031F467
:101BB00080912E01873018F48F5F01C081E08093FF
:101BC0002E0180932D01FAB8892F1F910F91FF905C
:101BD000089595E0E7CF8F929F92AF92BF92CF92F8
:101BE000DF92FF920F931F93CF93DF936C0181E0FD
:101BF00080932D0162FF08C08091A60180FF03C081
:101C0000CC24DD2401C06C7FC62FD0E043E0A42E9D
:101C1000B12CAC22BD22A114B10409F47AC081E038
:101C20000E94323A76C0C114D10451F086E0C81641
:101C3000D10410F400E004C08BEF9FEFC80ED91E52
:101C40004F993AC08EE190E00E94951010E009C0D3
:101C50004F9909C01F5F1B3130F48AE090E00E9469
:101C600095100023A9F71B3118F032E0F32E22C0A3
:101C7000209719F4FF24F3941DC082E390E00E94A2
:101C80009510FF24F39414E14F990DC08EE190E07C
:101C90000E9495104F9907C088EC90E00E94951023
:101CA00023E0F22E11E011508AE090E00E9495109E
:101CB000112351F700E023C00E94A60D882311F0E4
:101CC000F82E35C08091A70183FF03C094E6F92E5A
:101CD0002EC085E090E00E9495101F5F143679F4C5
:101CE0008114910459F0013029F480E00E94323AC5
:101CF00002E004C081E00E94323A01E010E08091ED
:101D0000A70180FF11C08091A7018E7F8093A7015A
:101D10000EC0FF2401E010E082E0882E912C8C227E
:101D20009D22C870D0707FCF002309F07CCFAB28F4
:101D300019F080E00E94323AF0922C018F2DDF9151
:101D4000CF911F910F91FF90DF90CF90BF90AF90F8
:101D50009F908F900895A0E0B0E0E1EBFEE00C943E
:101D6000583B562E3A014901C82ECA94D0902501FD
:101D7000DA940E94161A10E0EE24E2E0FE2EAD2C5A
:101D8000AA94BC2CBD18B39481E0D81611F4F39436
:101D9000E12ECE2DD0E0CC0FDD1FC60DD71D00E00B
:101DA00030C0602F6E5F81E00E94AC3981E0D816B0
:101DB00029F0802F8E0D612F0E949D0D81E08F15DF
:101DC000D8F4581629F4888199810E94871A0BC08B
:101DD000CE010E94E13BA0E0B0E0BC01CD0140E0BB
:101DE00020E00E942D198114910419F0C4010E9471
:101DF000871A80E00E94413A0F5FC01608F40D2D4B
:101E000022960D1570F281E0D81649F480912401D4
:101E1000609125010E94AC398CE30E941B1980E07F
:101E200090E060E10E94EB0D813071F1843029F186
:101E3000853081F4112331F4CD1410F1EB2C62E0E4
:101E4000F62E20C011501E1579F5112361F1E12EF7
:101E5000EA9410C0823041F517C01D1508F110E05A
:101E6000EE2408C01F5F8A2D8E0D1817E9F41C158B
:101E7000D8F4E39452E0F52E87CF1C1599F7EDCFF7
:101E8000FF24F3941C2D80CF0E946E3A84EF91E0E2
:101E90000E949510812FCDB7DEB7EFE00C94743B14
:101EA00010E0EE2401C0E12EFF24F3946DCFA7E2F1
:101EB000B0E0EDE5FFE00C94653B8AED90E09F8794
:101EC0008E8786E089838EED90E0998B888B87E002
:101ED0008A838AEE90E09B8B8A8B8AE08B8381E0F9
:101EE00091E09D8B8C8B8EE08C8381E291E09F8BC7
:101EF0008E8B87E28D838BE590E0998F888F81E0D0
:101F00008E8380E690E09B8F8A8F82E08F8388EFBC
:101F100090E09D8F8C8F8CE088878BE690E09F8F80
:101F20008E8F83E0898780E790E099A388A384E07F
:101F30008A8785E790E09BA38AA385E08B878DE164
:101F400091E09DA38CA384E18C878EEA90E09FA30F
:101F50008EA31D860E946E3A84E590E00E94871A47
:101F60008DE061E0AE01425F5F4F20E030E00E9413
:101F7000AB0EFE01E80FF11D8181A796E2E00C9403
:101F8000813BA9E0B0E0E7ECFFE00C94643B182F44
:101F90008BEB91E09D838C838EEB91E09F838E830E
:101FA0008EEA90E0998788870E946E3A123019F481
:101FB0008BE690E002C080E790E00E94871A83E001
:101FC00061E0AE014C5F5F4F20E030E00E94AB0E5D
:101FD00091E0998392E09A831B82FE01E80FF11D44
:101FE0006181662319F0812F0E94CB142996E3E0CA
:101FF0000C94803B0F931F93CF93DF93082F88237C
:1020000021F4C1E8D0E010E003C0C8E8D0E013E05C
:102010000E94C617811789F00E946E3ACE010E9475
:10202000871A8FE890E00E94501B0E94C617811704
:1020300031F488EC90E00E94951081E00AC084E6BB
:1020400090E060E10E94EB0D013079F7882369F39D
:1020500080E0DF91CF911F910F91089588EB9BE075
:1020600065E10E94EB0D08951F930E94570FE82F22
:10207000F0E0E832F10508F056C0EC5CFF4F0C943C
:102080008C3B19E647C00E940C1102C00E94AB12A3
:10209000182F8823A1F13CC082E001C081E00E949A
:1020A000C10F41C00E9441123EC00E946E3A8AEDAB
:1020B00090E00E94871A88E062E049E853E023ED4F
:1020C00030E00E94AB0E90E0880F991F87579C4F1D
:1020D0000E94E13B0E94E43026C00E94CA2F23C028
:1020E0000E94FA3120C00E949B1A1DC00E94682DD8
:1020F0001AC00E94050517C00E94372F14C00E9405
:102100006E3A87EA90E00E94871A0E942E1008C05B
:10211000893631F40E946E3A8EE490E00E94871A6C
:10212000812F1F91089511E0FBCF9C011092B10007
:102130001092B20082E08093B000809370000FB6DE
:1021400007FC1FC0789460E01DC0A8952F3F3105A3
:102150004105510519F010F09FEF01C0922F9150E9
:102160009093B3009F5F7093B10002C00000000025
:102170008091B1008823D1F7291B31094109510908
:102180000BC061E040E050E084E0220F331F441FA9
:10219000551F8A95D1F777E0211531054105510585
:1021A000A1F6662309F4F89408951F920F920FB6D2
:1021B0000F9211241092B1000F900FBE0F901F903C
:1021C000189588EC90E09093DE018093DD018CED12
:1021D00090E09093E0018093DF0184E190E09093A0
:1021E000E2018093E1018BE28093E3011092E4012C
:1021F0001092E5018FEF8093E6010895EDEDF1E097
:1022000090E08191980F81E0E73EF807D1F799239C
:1022100009F491E0892F0895A0E0B0E0E2E1F1E156
:102220000C94553B81E00E94FA0F882319F4BAE020
:10223000DB2E02C0DD24D39488249924AA24BB2455
:10224000C0E0D0E0A2E06A2EF8E07F2EE0E25E2E51
:1022500071E1272E0CC1CC24C39464E0462E54E1D6
:10226000352E0E946E3A84E50E941B198D2D805DEB
:102270000E941B190E94411A83E0D81609F462C01B
:102280008D1540F081E0D81689F082E0D81609F06B
:10229000AFC022C085E0D81609F484C0D81608F46F
:1022A0007AC086E0D81609F0A3C08CC08EE00E94E8
:1022B00012158EE00E9412157C0183E891E00E94C5
:1022C000871A0E94D61A00E010E0C801B7014DEF4E
:1022D00026E50E942D1964C088E991E00E94961AB3
:1022E00082EA91E00E94871A6091AD017091AE017F
:1022F00080E090E020E733E040E050E00E94C53A03
:1023000024EF36E040E050E00E943A3B79018A0138
:1023100081E085B985E084B982E00E947A15EC01FC
:10232000CE19DF0924B881E00E947A155C01AE184D
:10233000BF0845B834B880E00E947A154C018E1869
:102340009F0856C08DE991E00E94961A82EA91E0BA
:102350000E94871A0091AD011091AE011695079564
:1023600065B88AE084B982E00E947A15EC01C01B4E
:10237000D10B82E284B981E00E947A155C01A01A37
:10238000B10A75B888E284B980E00E947A154C01E0
:10239000801A910A2DC080E00E94FA0F34E6C32E05
:1023A00080E027C088E891E00E94871A15B864B8D9
:1023B00080E00E947A154C0174B881E00E947A1581
:1023C0005C0111C08CE891E00E94871A65B864B87E
:1023D00080E00E947A154C0175B874B881E00E94C3
:1023E0007A155C0155B854B882E00E947A15EC0168
:1023F00081E014B815B8882309F10E94D61AB401F7
:10240000882777FD8095982F40E020E00E941E1AD3
:102410000E94411AB501882777FD8095982F40E0EA
:1024200020E00E941E1A0E94411ABE01882777FDF3
:102430008095982F40E020E00E941E1A84E6C8167E
:1024400081F088EE93E060E10E94EB0D882349F073
:10245000823029F424E6C22E94E6D92E02C084E606
:10246000C82EC39485E08C1508F0FBCED39486E08B
:102470008D1508F0F0CE81E0CDB7DEB7E2E10C9427
:10248000713B81E0809321010E946E3A80E991E0E6
:102490000E94961A6091DD017091DE0180E090E06B
:1024A0004FEF24E00E942D1984E991E00E94431B24
:1024B0006091DF017091E00180E090E04FEF24E057
:1024C0000E942D198BEA91E00E94431B6091E30169
:1024D00070E080E090E044EF26E40E942D198EEA3F
:1024E00091E00E94431B6091E1017091E20180E064
:1024F00090E04EEF24E00E942D1983E891E00E94C5
:10250000431B6091AB017091AC0180E090E04DEF16
:1025100026E50E942D1981EB91E00E94431B6091FA
:10252000AD017091AE0180E090E04DEF26E50E9494
:102530002D1985EB91E00E94431B6091E5017727FF
:1025400067FD7095872F972F4DEF26E50E941E1A85
:102550000E942E100895A4E0B0E0E1EBF2E10C94AB
:10256000553B81E00E94FA0F882319F4EAE0DE2E41
:1025700002C072E0D72EEE24FF2400E010E01C829F
:102580001B827724AA24BB246624882499241A82D7
:102590004424552419822224332461C1CC24C394B9
:1025A0000E946E3A81E40E941B198D2D805D0E946D
:1025B0001B190E94411A24E0D21609F452C02D15AD
:1025C00040F032E0D31671F083E0D81609F00AC16A
:1025D00041C095E0D91609F46FC0E6E0DE1609F0B7
:1025E00001C1A9C08EEA91E00E94961A82EA91E0A8
:1025F0000E94871A81E060E040E00E944D1680E072
:102600000E945B1B7C018639910518F4880E991E87
:10261000639482E060E040E00E944D1680E00E94FA
:102620005B1B8C018639910518F4880E991E639402
:1026300082E061E040E00E944D1680E00E945B1B5A
:102640009C838B838639910508F0CCC0880E991E37
:102650006394C8C080E00E94FA0F64E6C62E80E052
:10266000C2C080E991E00E94871A18B821E027B91A
:1026700025B924B980E00E9483157C0132E037B986
:10268000D5B8D4B881E00E9483158C01D7B880E119
:1026900085B984B982E00E9483159C838B83C7012E
:1026A000800F911F480E591EEB81FC814E0E5F1E5C
:1026B000FA81FD5FFA8396C084E991E00E94871A4F
:1026C00015B821E028B927B924B9E090AD01F09000
:1026D000AE0180E00E948315E81AF90A32E038B9A9
:1026E00037B984E084B90091AD011091AE0181E069
:1026F0000E948315081B190B94E098B997B9E0E183
:10270000E4B92091AD013091AE013C832B8382E08E
:102710000E948315EB81FC81E81BF90BFC83EB83A2
:10272000C701800F911F280E391E2E0E3F1EF98102
:10273000FD5FF98357C08BEA91E00E94961A82EA06
:1027400091E00E94871A81E060E040E00E948021D1
:1027500080915101843F89F48091560190915701F5
:10276000A0915801B091590185369105A105B10597
:1027700020F47C01A80EB91E739482E060E041E071
:102780000E94802180915F01843F89F480916401DF
:1027900090916501A0916601B09167018536910520
:1027A000A105B10520F48C01A80EB91E739482E036
:1027B00061E042E00E94802180916D01843F91F4AC
:1027C0008091720190917301A0917401B091750193
:1027D00085369105A105B10528F49C838B83A80E4D
:1027E000B91E739481E017B818B814B815B88823C7
:1027F000E9F00E94D61AB70180E090E040E020E0C6
:102800000E942D190E94411AB80180E090E040E03A
:1028100020E00E942D190E94411A2B813C81B901B0
:1028200080E090E040E020E00E942D1934E6C316DD
:1028300081F088EE93E060E10E94EB0D882349F07F
:10284000823029F454E6C52E44E6D42E02C034E684
:10285000C32EC39485E08C1508F0A2CED39496E0E5
:102860009D1508F09BCEEFE07E1611F0BB2409C049
:10287000C5016FE070E00E94F13A6093E301BB2470
:10288000B394FFE06F1651F4C4016FE070E00E9452
:10289000F13A7093E2016093E101B3942A812F3001
:1028A00009F06EC039813F3009F06AC0C20165E0AD
:1028B00070E00E94F13A8B01C10165E070E00E9476
:1028C000F13A4B014091AD015091AE01CA01880F20
:1028D000991F840F951F801B910B861B970B6C0112
:1028E000EE24FF2420E030E0C901B80120EA39E0FD
:1028F00041E050E00E94C53AA70196010E94183BB2
:10290000B901CA016B5F7F4F8F4F9F4F2AE030E0C4
:1029100040E050E00E94183BC901DA018A3F91056E
:10292000A105B10528F43093DE012093DD01B394B5
:10293000B40180E090E020EA39E041E050E00E94FC
:10294000C53AA70196010E94183BB901CA016B5F05
:102950007F4F8F4F9F4F2AE030E040E050E00E94D1
:10296000183BC901DA018831E1E09E07E0E0AE07DB
:10297000E0E0BE0728F43093E0012093DF01B39438
:102980000E94411280E0F4E0BF1609F481E0249631
:10299000E2E10C94713BFF920F931F93CF93DF936F
:1029A000F82E623019F40BE010E002C000E010E0F5
:1029B000CDEDD1E00E94FE108093E70182E0F81691
:1029C00029F4C80168810E94E73B04C0C8010E9445
:1029D000D93B888381E0C73ED80721F021960F5F5D
:1029E0001F4FECCF82E0F816C1F00E94FE109091CC
:1029F000E701992391F0981781F00E946E3A83EBDA
:102A000090E00E94871A87EA90E00E94501B80EDB8
:102A100097E00E9495100E94E110CDB7DEB7E5E087
:102A20000C947E3BFF920F931F93182F1F7010641E
:102A300010937C00012F007C8091AA01081721F0DF
:102A40000E94B83A0093AA0180917A008064809332
:102A50007A0080917A0086FDFCCFF090A8017091F9
:102A6000A90160E020E030E040E050E020C080912B
:102A70007A00806480937A0080917A0086FDFCCF92
:102A80008091780090917900A0E0B0E0280F391F84
:102A90004A1F5B1F643051F484E02030380730F463
:102AA000003C21F0713011F4106CC2CF6F5F6F15D4
:102AB000F0F2003C29F46091AB017091AC0104C0CC
:102AC0006091AD017091AE0180E090E00E94C53A46
:102AD0002AE096958795779567952A95D1F72F2DBA
:102AE00030E040E050E00E94183BC9011F910F9177
:102AF000FF9008951F93182F0E94AD3A812F0E94D6
:102B000012151F9108951F93182F0E94AF3A812F1D
:102B10000E9412151F9108958091CB018093CE01E0
:102B20008091CC018093CF018091CD018093D00121
:102B3000089593E0981B892F861B089590910401B6
:102B40009923E1F08091030180FD18C081FD04C04C
:102B5000809101018E3190F49093010180913C01AC
:102B60008093B00180913D018093B10180913E013D
:102B70008093B20180910B0180930A010895A0E037
:102B8000B0E0E5ECF5E10C945F3BAC01613049F459
:102B9000E7E7F3E088EE93E0C2E3D0E027E030E03F
:102BA00018C0623049F4EBE1F3E08CE291E0C9E156
:102BB000D0E02CE230E00DC0633019F020E030E0CE
:102BC00047C0E9E9F3E088EC90E0C9E1D0E02EE10C
:102BD00030E04817590718F4CC24DD2403C06A01FB
:102BE000C81AD90AC601BE010E94F13A862F90E0A8
:102BF0002817390708F4622F062F10E0000F111F65
:102C00000E0F1F1FC8010E94E13B7C01C801029604
:102C10000E94E13BFC01E81AF90AC601BE010E94CC
:102C2000F13A9E01281B822F90E09C012E9DC0014D
:102C30002F9D900D3E9D900D11249E013695279558
:102C4000820F931FBE010E94F13A9B012E0F3F1F7E
:102C5000C901CDB7DEB7E8E00C947B3B1F93182F7A
:102C600060FF03C085B1812B03C095B18095892396
:102C700085B984B1812B84B963FF03C00E94B33A44
:102C800002C00E94AE3A84B1912F9095892384B9F5
:102C900085B1982395B91F910895AF92BF92CF92B5
:102CA000DF92EF92FF920F931F93C62EA42E809374
:102CB000CB016093CC014093CD01E82EFF2408EEB8
:102CC00013E0C8018E0D9F1D0E94D93B8093D10156
:102CD000DD24C8018C0D9D1D0E94D93B8093D2013B
:102CE000BB24C8018A0D9B1D0E94D93B8093D30150
:102CF0000BEE13E0C8018E0D9F1D0E94D93B8093FF
:102D0000D401C8018C0D9D1D0E94D93B8093D50133
:102D1000C8018A0D9B1D0E94D93B8093D6010EEEFF
:102D200013E0C8018E0D9F1D0E94D93B8093D701EF
:102D3000C8018C0D9D1D0E94D93B8093D801C8010C
:102D40008A0D9B1D0E94D93B8093D90101EF13E0AE
:102D5000C8018E0D9F1D0E94D93B8093DA01C801E6
:102D60008C0D9D1D0E94D93B8093DB01C8018A0D0B
:102D70009B1D0E94D93B8093DC011F910F91FF9016
:102D8000EF90DF90CF90BF90AF900895CF93DF93F7
:102D9000982F80910101813009F4BEC0A895892F38
:102DA0000E944D1615B88091D20184B98091D70147
:102DB00087B988B98091D30160E10E942E16809175
:102DC000DB010E948315EC018091D3019091D20127
:102DD000892B84B98091DB010E9483159C0180912D
:102DE000D20184B92C173D0720F42530310508F4B1
:102DF000E90123E0C13DD20708F18091D30161E1EF
:102E00000E942E168091DB010E948315EC018091B7
:102E1000D30185B99091D201892B84B98091DB01CE
:102E20000E9483159C0115B88091D20184B92C179A
:102E30003D0720F42530310508F4E901C031D10502
:102E400038F080910301882319F4CE010E94DB251C
:102E500083E0C13DD80708F042C080910301882378
:102E6000D9F48091D20184B915B88091D70187B97E
:102E700088B90E94AF3A8091D3019091D201892BF9
:102E800084B98091DB010E9483158F559D4020F00D
:102E900082E0BE010E94222880910301882339F537
:102EA0008091D80187B918B88091D3019091D10150
:102EB000892B84B985B98091DA010E9483158054E9
:102EC0009640A8F40E943925882389F48091010155
:102ED000813269F081E0BE010E94222808C0809101
:102EE0000301882311F40E94C0230E94FA298091D3
:102EF0000101882311F08A3019F40E94251C08C0B2
:102F00008F3131F48091020184FF02C00E94A52319
:102F100017B818B814B815B8DF91CF910895CF93AA
:102F2000DF9340E00E944D1617B88091D10185B91A
:102F30009091D201892B84B98091DA010E94831586
:102F4000EC018091DB010E9412152091AD013091BE
:102F5000AE0136952795B9016E5170406C177D070B
:102F600078F4A901425E5F4FC417D50748F468178B
:102F7000790730F420E08417950718F421E001C0A8
:102F800020E014B8822FDF91CF9108950F931F9303
:102F900080E061E00E948F17082F80E062E00E94CD
:102FA0008F17182F81E062E00E948F17100F810F9A
:102FB0001F910F9108958091CE016091CF014091B2
:102FC000D0010E944D160895A6E0B0E0EAEEF7E1C8
:102FD0000C94593B17B818B815B88FE384B980E042
:102FE0000E9412159A83898381E00E9412159C83A6
:102FF0008B8382E00E9412159E838D8301E098E20C
:10300000D92E82E0C82EBB243E010894611C711C9D
:10301000B1E08B2E912CC39483E0C81609F4CC2424
:10302000EC2CFF248B2D90E00C2C02C095958795FD
:103030000A94E2F780FD75C0C7018F509C4F0E9433
:10304000D93BA82E0E9412159C01F701EE0FFF1F1D
:10305000E60DF71D808191812817390770F43183BF
:1030600020838D2D90E0801B9109449784F48AEE93
:103070008D1568F084E1D80E0AC02A30310528F495
:1030800088E2D81611F470E5D72E0F5F01C001E079
:103090002330310548F4C4010E2C02C0880F991F5B
:1030A0000A94E2F7B82A0BC02052334040F417B11B
:1030B000C70182519C4F0E94D93B182B17B987E05A
:1030C000B81691F1D01640F581E08093010180930C
:1030D0000201C0920701C70182519C4F0E94D93B57
:1030E00097B18095982397B9C70185519C4F0E944D
:1030F000D93B182FC70188519C4F0E94D93B94B1EE
:10310000182B1095912394B98A2D0E941215909333
:1031100009018093080108C0A89582E390E00E940D
:103120009510002309F077CF14B817B82696EEE073
:103130000C94753BEF92FF920F931F93E82EF62E9F
:1031400017B818B814B815B840E00E944D16809111
:10315000D70187B98091DB010E9412158C01809103
:10316000D80187B98091DA010E9412150817190752
:1031700028F48F2D6E2D40E00E944D168091D701CE
:1031800087B98091D20184B901E08091DB010E946E
:1031900012159C0181E02039380740F487B19091E5
:1031A000D801892B87B92832310540F00F5F0333EE
:1031B00029F084E690E00E949510E7CF17B814B884
:1031C0001F910F91FF90EF9008958091A7018D7F3F
:1031D0008093A7018091A70184608093A70108953F
:1031E0008091A7018B7F8093A7018091A7018260C6
:1031F0008093A70108958091A7018B7F8093A701F9
:103200000E94FF3308950E94FF338091A7018460DC
:103210008093A701089583E00E94413A81E063E032
:103220000E94AC39089582E00E94413A81E062E058
:103230000E94AC3908951F93182F8091A70181FF38
:1032400003C0812F0E94F3398091A70182FF03C040
:10325000812F0E94A3331F9108959F92AF92BF9236
:10326000CF92DF92EF92FF920F931F936B017C013D
:10327000042F922E15C085E090E0A0E0B0E0C80ECB
:10328000D91EEA1EFB1EC701B6012AE030E040E06D
:1032900050E00E94183BC901DA016C017D010F5F0B
:1032A00090E1C91697E2D90690E0E90690E0F906A8
:1032B00010F7013F1CF4AA24BB241DC0202F215F5E
:1032C000822F63E00E94E43A382F822F63E00E944D
:1032D000E43AB92E992321F03F5F83E0891BB82E91
:1032E000383010F0AA2407C0832F90E08D5E9C4FE9
:1032F0000E94D93BA82E03E411E0C601B8014AE0C0
:1033000050E00E94C33BD8010D900020E9F78D01E9
:103310000150104003541140E02E0B1910165CF0C0
:1033200080E30E941B198EE20E941B19002319F0F2
:1033300080E30E941B19BB2009F40FEF0150FF240A
:10334000C02EDD24C7FCD0940FC00F2D10E0F80173
:10335000ED5BFE4F80810E941B190C151D0519F4B1
:103360008EE20E941B19F394FE1478F3AA2019F040
:103370008A2D0E941B19992019F0892D0E941B1972
:103380001F910F91FF90EF90DF90CF90BF90AF9083
:103390009F900895DF92EF92FF920F931F93F42E68
:1033A000D22E03E411E0A8012AE030E00E949E3B07
:1033B000F80101900020E9F78F01015010400354FB
:1033C0001140E02EFF2011F404E60DC00F1530F07F
:1033D0000F1911F0FF2407C0FF2401C0F01A80E389
:1033E0000E941B1900E010E014C0101751F48EE287
:1033F0000E941B1904C080E30E941B19FA94FF204D
:10340000D1F7E12FF0E0ED5BFE4F80810E941B19A8
:103410001F5F1E1550F3DD2019F08D2D0E941B1922
:103420001F910F91FF90EF90DF9008958AE30E9423
:103430001B1908958DE20E941B190895CF92DF9207
:10344000EF92FF920F931F937B018C01D42EC22E1B
:1034500097FF0AC00E941A1A10950095F094E09404
:10346000E11CF11C011D111DC801B7014D2D2C2DB2
:103470000E942D191F910F91FF90EF90DF90CF9038
:10348000089580E20E941B1908950E94F3040E948F
:103490001B1908958F5C0E941B1908951F93182F04
:1034A000E0910A0183E0E89FE02D1124F0E0E2586A
:1034B000F64FE60FF11D8491882339F120912A01FE
:1034C000215060912B01982F94FF04C08091290115
:1034D0008695680F91FF04C0809128018F5F280FA7
:1034E00092FF04C0809129018150680F822F0E94B1
:1034F000AC39812F0E94F304883721F4812F0E9478
:10350000451A03C0812F0E944A1A1F910895CF9334
:10351000DF93EC0103C00E941B192196CE010E948B
:10352000D93B8823C1F7DF91CF9108950E94871A74
:103530000E94411A0895FF920F931F930E946E3AC2
:1035400088EF90E00E94961A1091E601F090260113
:1035500001E00E941319612F70E080E090E040E0EC
:1035600020E00E942D19043020F48CE291E00E94AA
:10357000951080E090E068E10E94EB0D082F81300B
:1035800031F0833011F400E008C0843021F41F15BD
:1035900020F41F5F02C011111150812F0E94863943
:1035A0000023B9F61F910F91FF9008951F9380910A
:1035B000A70181FF22C09091210160912301809198
:1035C00025016817B1F4192F90FF02C00E942E1038
:1035D00011FF0CC01091250104C0812F0E94413AB7
:1035E00011501230D0F781E062E005C00E946E3ABF
:1035F00004C06F5F81E00E94AC398091A70182FF17
:1036000002C00E94FF331F910895382F9091290125
:1036100020912501892F8F5F281778F1409124018F
:10362000403118F0930F921738F0209323010E9435
:10363000D61A32E083E004C080912801481B842F11
:1036400080932A0130932B018091B00160E00E94A9
:103650004E1A8091B10161E00E944E1A8091B20130
:1036600062E00E944E1A80912A0160912B010E9413
:10367000AC3980910A010E94BF3908950E94871ACF
:103680000E94D61A08950F931F938C010E94D61A98
:10369000C8010E94871A0E94411A1F910F91089534
:1036A0000F931F938C010E94D61AC8010E94871A9B
:1036B0001F910F910895A0E0B0E0E1E6FBE10C94CA
:1036C000583B582E0E94E41780910101813019F473
:1036D00020E030E0A6C018B88091D80187B9809169
:1036E000D10185B984B90E94AE3A61E0662477249D
:1036F0004301862F90E0EC01C170D07060FF03C0E1
:103700008091DA0102C08091DB01A895806C8093E2
:103710007C000E94B83A80917A00806480937A009D
:1037200080917A0086FDFCCFAA24EE24FF24870135
:1037300080917A00806480937A0080917A0086FD7F
:10374000FCCF8091780090917900A0E0B0E0E80E85
:10375000F91E0A1F1B1F0E94B53AA39484E6A816FF
:1037600039F72091AB013091AC0140E050E0C80145
:10377000B7010E94C53A7B018C018AE01695079536
:10378000F794E7948A95D1F762E0CD2B09F44FC006
:10379000C701D8013C014D01ACCF6091AD017091E2
:1037A000AE0180E090E024E630E040E050E00E948E
:1037B000C53A66197709880999090E94C53A5B01DB
:1037C0006C016E187F08800A910AC401B30128EECB
:1037D00033E040E050E00E94C53A7B018C0120912B
:1037E000DF013091E0012057354E40E050E0C60146
:1037F000B5010E94183BC801B7010E94183B81E047
:10380000581661F48091E1019091E20182179307CB
:1038100018F4281B390B02C020E030E080EC8093C4
:10382000AA01C901CDB7DEB7EFE00C94743B15B81F
:103830008091D7019091D801892B87B9E614F704BC
:103840000805190508F4A9CFE7CFA0E0B0E0EBE246
:10385000FCE10C94563BA89518B88091D80187B923
:103860008091D10184B985B98091DB010E948315D3
:103870007C018091DA010E9412154C0115B88091EB
:10388000D40184B98091DA010E948315459708F02C
:1038900025C28091D40185B98091DA010E948315F7
:1038A0002C018091D70187B988B915B88091D201D0
:1038B00084B98091DA010E9483158C018091DB012B
:1038C0000E9412153C018091D50184B98091DB01E1
:1038D0000E948315EC0120E3821621E1920628F470
:1038E00082E64816510408F0F9C12CE6421623E19D
:1038F000520608F0F3C189EA6816710408F06EC038
:10390000C632D10508F4EAC1B20180E090E020EFB0
:103910003BE247E050E00E94C53AE090AD01F090F4
:10392000AE0197012419350940E050E00E94183B90
:1039300059016A01EC1AFD0A00E010E0C801B70164
:1039400020EF3BE247E050E00E94C53A9E0140E094
:1039500050E00E94183BB901CA012EED421623E047
:10396000520670F442E0AA0CBB1CCC1CDD1C4A952C
:10397000D1F7A60EB71EC81ED91EC601B5010EC0CE
:10398000CE5DD340B0F432E0660F771F881F991FD9
:103990003A95D1F76A0D7B1D8C1D9D1D25E030E009
:1039A00040E050E00E94183BC901DA01BC01CD01A2
:1039B00008C06A0D7B1D8C1D9D1D9695879577957A
:1039C0006795625A7E4F8F4F9F4F2AE030E040E06C
:1039D00050E00E94C53A3B014C01A0C08E149F04E8
:1039E00008F490C00615170508F48CC0C091AD010D
:1039F000D091AE018C169D0619F4089481089108A7
:103A00002091DF013091E0012057354E40E050E039
:103A1000B4016E197F0980E090E00E94C53AC81990
:103A2000D9099E0140E050E00E94183B59016A010B
:103A30002091DD013091DE012057354E40E050E00D
:103A400006191709B80180E090E00E94C53A930179
:103A500040E050E00E94183B79018A018EED881603
:103A600083E0980640F492E0AA0CBB1CCC1CDD1C41
:103A70009A95D1F715C02EED621623E07206B8F5BF
:103A800088EFE81684E2F80681E0080780E018076E
:103A900090F482E0EE0CFF1C001F111F8A95D1F7F5
:103AA000AE0CBF1CC01ED11EC601B50125E030E022
:103AB00040E050E015C0C801B701B3E0660F771FC2
:103AC000881F991FBA95D1F76E0D7F1D801F911F1A
:103AD0006A0D7B1D8C1D9D1D2AE030E040E050E00A
:103AE0000E94183BC901DA013C014D0117C03501A4
:103AF00046016E0C7F1C801E911E969487947794CD
:103B000067940CC02FE8621622E1720608F4E2C046
:103B1000FAE06F2E712C812C912C06C084E6681679
:103B200071048104910478F581E00E945B1B7C01A3
:103B300000E010E0C401B301660F771F881F991FD2
:103B400025E0621671048104910420F4660D771D4E
:103B5000881D991D2AE030E040E050E00E94C53AFF
:103B6000611571058105910521F464E670E080E03E
:103B700090E0E616F7060807190728F43701480110
:103B80005EEF552E02C055245A9420E047E0342EB3
:103B90003AE0432E81C0239DE0011124C45FDE4F33
:103BA00098818091CB01981709F073C09981809119
:103BB000CC01981709F06DC0C401B301452D02E096
:103BC00010E020E030E0EE240E94130D8F3F91F5CD
:103BD0006B817C818D819E814A8102E010E020E032
:103BE00030E00E94130D8F3FF1F44A81451519F022
:103BF000FF24FA9402C0FF24F3946B817C818D81B1
:103C00009E8194018301E52C0E94130D8F1531F4E0
:103C10006B807C808D809E805A8005C06B827C8208
:103C20008D829E825A8264015301D694C794B794C0
:103C3000A7940CC0C401B30124E130E040E050E09F
:103C40000E94183BC901DA015C016D016B817C8126
:103C50008D819E81940183010A191B092C093D095C
:103C60004A81E52C0E94130D87FD15C06B817C8174
:103C70008D819E81A60CB71CC81CD91C4A81960157
:103C800085010E94130D181634F04092010124E6BC
:103C900003C02F5F01C028EC90910501291708F49B
:103CA0007ACF2436D9F09330C8F4E7E09E9FF00134
:103CB0001124E45FFE4F8091CC0180838091CB0181
:103CC0008183638274828582968252829F5F909301
:103CD000050104C066247724430126CFCDB7DEB7A3
:103CE000E1E10C94723BEF920F931F93142F10920B
:103CF000050140E00E944D160E94251C809105019F
:103D0000813011F090E017C01123A1F0612F70E015
:103D100080E090E000910F011091100120911101BD
:103D20003091120143E0E0900E010E94130D90E0EB
:103D3000813009F491E0892F1F910F91EF90089540
:103D4000982F813110F480E00895915115BC82E0E4
:103D500084BD97BD81E0089516BC81E085BDA99B17
:103D6000FECF15BC82E085BB08954F925F926F92A3
:103D70007F929F92AF92BF92CF92DF92EF92FF928B
:103D80000F931F93CF93DF933C010E94E417809120
:103D90000101813011F480E053C115B897E097B963
:103DA00018B88091D40184B980E480937B0084E4C6
:103DB00080BF8091DA01806480937C0090937A00C8
:103DC0000E94B73A109280001092810010928500F4
:103DD0001092840087E286BB8091D40185B98091DE
:103DE00001018F3129F49091D7019095977002C00D
:103DF0009091D80181E08093810097B900E010E0B4
:103E000091E086B3282F85FD0AC080FFFACF96BBCC
:103E1000A8950F5F1F4F8CE00038180791F710929C
:103E2000810080E286BBC0918600D091870014B8E3
:103E30008091840090918500C817D90730F420FF45
:103E400004C081E086BB0F5F1F4F87E980937A0033
:103E500080917B008F7B80937B008091DA010E94B0
:103E600012152C0115B88091D40184B99CE000385A
:103E7000190710F081E0E4C09E0140E050E0C80165
:103E8000A0E0B0E08C01FF24EE24E22AF32A042B08
:103E9000152BA3E0EA16F1040105110500F18EEFE0
:103EA0009FEFAFEFBFEFE80EF91E0A1F1B1F98E34D
:103EB000E91699E8F90691E4090790E0190778F006
:103EC000C801B70128EE33E040E050E00E94183B03
:103ED000C901DA017C018D0197EF992E02C084EFB0
:103EE000982E8091E501992787FD90952091AB014F
:103EF0003091AC01820F931F61E00E94BF15A0E0DA
:103F0000B0E0BC01CD01A80197010E94C53A20E4B0
:103F100036E040E050E00E94183B79018A01A4EFAE
:103F20009A1619F05701680114C08091E30190E0DE
:103F3000A0E0B0E0E816F9060A071B0720F4AA245F
:103F4000BB24650106C057016801A81AB90ACA0A4C
:103F5000DB0A8091CC01F30180838091CB018183C6
:103F60009282D3011796ED92FD920D931C931A97AE
:103F7000A382B482C582D682F4EF9F1651F420EA60
:103F8000A21626E8B20621E0C20620E0D20678F4A6
:103F900056C087EF981609F052C091E2A9169EE428
:103FA000B90690E0C90690E0D90608F048C08091B3
:103FB000DA010E941215855D9340C8F714B810927B
:103FC000A9018091DA010E9412158C0181E0809391
:103FD000A9018091DA010E941215EC018091D401AF
:103FE00084B90C1B1D0BE090AB01F090AC01C80133
:103FF00004960997D0F0B801882777FD8095982F0F
:10400000970140E050E00E94C53A9E0140E050E038
:104010000E943A3B8091E401820F8093E4018A2D53
:10402000992787FD9095E80EF91E92012E193F09F8
:10403000C901C1968336910510F42093E50183E010
:10404000DF91CF911F910F91FF90EF90DF90CF9074
:10405000BF90AF909F907F906F905F904F9008952A
:10406000A0E0B0E0E6E3F0E20C94573B3C0183E0D3
:10407000B82EB1E19B2E0E94E4178091010181309E
:1040800011F4882437C118B88091D80187B915B8C0
:1040900014B88091DA010E9412152C01EE24FF243D
:1040A0000894E11CF11C8091D101692D0E942E160B
:1040B0008091DA010E9412154816590618F0C0E0E6
:1040C000D0E003C0EC01C419D5092EE7E216F104D3
:1040D00021F480E0CB34D10508F081E091E0CC32CE
:1040E000D90708F080E0E4EFEE16E1E0FE0609F4FF
:1040F00080E0A8958823A1F6F1E0CC32DF0710F428
:10410000BB24B39421E0E216F10461F485E0C531EB
:10411000D80740F0892DA9E09A2E84FDACCFF2E0BB
:104120008F2EE8C08B2C93E0B91619F000E010E058
:1041300038C0870180E090E009C0015010408091B4
:10414000DA010E94121584199509A8950115110527
:10415000A1F78C179D0718F000E010E007C08E0152
:10416000081B190B0536110508F0BB248091DA01F4
:104170000E9412156C0194FE03C00E94A33A02C073
:104180000E94A83A8091DA010E9412158C159D05B3
:1041900020F08B2C4424552404C02601481A590AC7
:1041A0008B2CE3E0BE1609F0A5C0C8018C0F9D1F43
:1041B00062E00E94BF15A0E0B0E0970140E050E04F
:1041C000BC01CD010E94C53A5B016C01C92DD0E054
:1041D0008E010071107094FE08C02AE030E040E0CB
:1041E00050E00E94C53A5B016C01F8E3AF16F9E8B4
:1041F000BF06F1E4CF06F0E0DF0618F4E7EF9E2EED
:104200000EC0C601B50128EE33E040E050E00E9448
:10421000183BC901DA015C016D017AEF972EC601E6
:10422000B50128EE33E040E050E00E94C53A012B92
:1042300029F022E434E040E050E004C020E134E022
:1042400040E050E00E94183BC901DA017C018D0179
:104250008091CC01F30180838091CB018183928294
:10426000A782B086C186D286E382F4820583168354
:104270000DC0C801B7012AE030E040E050E00E94E4
:10428000183BC901DA017C018D019394F1E0EF162E
:10429000F5E3FF06FCE00F07F0E01F0750F7C3FD52
:1042A0009394920140E050E0C801B7010E94C53AE2
:1042B00028EE33E040E050E00E94183BC901DA01EB
:1042C000BC01CD010BC02AE030E040E050E00E948C
:1042D000183BC901DA01BC01CD019394603020E0A4
:1042E000720721E0820720E0920768F7F3017487E4
:1042F00063879586882DCDB7DEB7E0E10C94733BDC
:10430000A0E0B0E0E6E8F1E20C945D3BB82EA62E0A
:104310008EE0489F600111248FE491E0C80ED91E01
:10432000F6011082118284EF828317821086118633
:104330001286138214821582168214861386809147
:104340000101813009F462C08A3041F5FF24CCE0DC
:10435000D1E01DC098819B1519F489818A1529F037
:104360009A1599F489818B1581F46B817C818D81FB
:104370009E814A810AE010E020E030E0EE240E94B5
:10438000130D8F3F11F493E6F92EF3942796809145
:104390000501F816F8F2F4E6FF16C1F58B2D6A2D2B
:1043A0000E949123FC01009729F0828193818C5D0A
:1043B000954060F18B2D6A2D40E00E944D16C6019C
:1043C0000E943020823019F4C6010E94B51E8091EF
:1043D00001018431A8F4F60192818A3019F49A3FE0
:1043E0007CF00BC0953F4CF4F60183819481A5814C
:1043F000B6810597A105B10518F08BE08093010106
:104400000E94E41717B818B814B815B8CDB7DEB7BE
:10441000EAE00C94793BA4E0B0E0E1E1F2E20C9434
:10442000553B9C838B83009709F440C1FC01638159
:1044300074818581968142810AE010E020E030E0BD
:1044400057EFE52E0E94130D87FD30C10E94E4173F
:1044500080910101813009F429C1EB81FC818081C7
:1044600061810E949A18EB81FC818081618140E02A
:104470000E944D164090DA013090DB01F0EC4F2A9B
:104480003F2A15BC82E084BD85E687BD18B84092FE
:104490007C000E94AE3AB2E38B2E912C60E070E07B
:1044A00022242A94A1E0AA2EB12CC12CD12CF1E017
:1044B000EF2EF12C012D112DE7ED5E2EA895623324
:1044C000710558F48091D80187B98091D10185B9DF
:1044D00084B90E94C13A14B815B882E388169104D1
:1044E00058F48091D70187B98091D20185B984B9F8
:1044F0000E94C13A14B815B88091D70187B980914C
:10450000D10185B984B940927C0050927A008091A3
:104510007A0086FDFCCF50927A0080917A0086FD69
:10452000FCCFE0917800F0917900FA83E983309232
:104530007C0050927A0080917A0086FDFCCF5092E8
:104540007A000E94BD3A0E94AC1E8091D20185B9CA
:1045500084B90E94C13A14B880917A0086FDFCCFDC
:1045600080907800909079008091D80187B98091EF
:10457000D20185B984B930927C0050927A00809142
:104580007A0086FDFCCF50927A0080917A0086FDF9
:10459000FCCF609078007090790040927C0050923F
:1045A0007A0080917A0086FDFCCF50927A000E94BA
:1045B000BD3A0E94AC1E8091D10185B984B90E9498
:1045C000C13A14B880917A0086FDFCCF60917800E2
:1045D00070917900C301A0E0B0E0E981FA819F0108
:1045E00040E050E0820F931FA41FB51FA80EB91E14
:1045F000CA1EDB1ECB01A0E0B0E0940140E050E019
:10460000820F931FA41FB51FE80EF91E0A1F1B1F60
:104610002A9409F053CF17B815B8AE14BF04C006DA
:10462000D106E0F58091DD019091DE019C0173E0FF
:10463000220F331F7A95E1F7880F991F280F391F32
:1046400040E050E0EA18FB080C091D09C801B70159
:104650000E94C53AA60195010E94183BC90120910C
:10466000E1013091E2012817390720F48C01021B87
:10467000130B16C0EB81FC81638174818581968167
:10468000428108EE13E020E030E05AEFE52E0E9470
:10469000130D18161CF400E010E002C00FEF1FEF1E
:1046A00080EC8093AA010E94E41702C00FEF1FEF75
:1046B000C8012496E2E10C94713B809101018032A3
:1046C000F1F0813228F48E3141F08F3141F40BC08A
:1046D0008132E9F0843218F416C022E411C020E0DF
:1046E00090E080E017C08091020186FD04C027E4BD
:1046F00094E483E50FC027E498E788E70BC027E43C
:1047000093E485E407C027E491E483E403C027E44D
:1047100092E381E32093B3019093B4018093B501B8
:104720000895282F90910601E2E8F1E008C0808109
:10473000281719F48181681731F091503696992322
:10474000B1F7E0E0F0E0CF0108958091020180FF31
:1047500005C06091B2018091B10104C06091B101C6
:104760008091B2010E949123892B49F0109201019E
:1047700010920201809103018E7F809303010895BE
:10478000EF92FF920F931F93CF93DF938091DA0103
:104790000E941215EC018091DB010E9412157C0130
:1047A0008091DC010E9412158C0117B88091D7010D
:1047B00088B98091D60185B99091D201892B84B9AD
:1047C00082E390E00E9495108091D70187B9809193
:1047D000DB010E9412150A97F8F483E2809304012A
:1047E0008CE080930B018091CD0180933C018091FE
:1047F000CB0180933D018091CC0180933E01CE019D
:104800008E199F099093400180933F01C01BD10BEB
:10481000D0934201C0934101CDB7DEB7E6E00C94DE
:104820007D3BA0E0B0E0E7E1F4E20C945D3BB82E04
:1048300021E08217E1F48091D70187B988B990917E
:10484000D3018091D201892B84B995B98091DB0184
:104850000E948315EC010091AD011091AE01809191
:10486000DC010E9412159801281B390B1AC018B8D8
:104870008091D80187B98091D10185B99091D301F8
:10488000892B84B9C091AD01D091AE018091DA013C
:104890000E948315C81BD90B8091DC010E94121560
:1048A0009C012115310511F421E030E0CE01821B7D
:1048B000930BB9010E94F13A6B01EE24FF242031E1
:1048C000310508F062C031E0B316D9F48091D60109
:1048D0009091D201982B94B985B98091DB010E9407
:1048E0008315EC010091AD011091AE018091DC01C6
:1048F0000E941215081B190BA090DD01B090DE017B
:1049000019C08091D6019091D101892B84B9C091B1
:10491000AD01D091AE018091DA010E948315C81BD0
:10492000D90B8091DC010E9412158C01A090DF014F
:10493000B090E0010115110511F401E010E0BE0195
:1049400080E090E020EF3BE247E050E00E94C53A73
:10495000980140E050E00E94183BCA01B9012AE0EA
:1049600030E040E050E00E94C53A20E93AE1A20E72
:10497000B31E950140E050E00E94183BC216D306DA
:10498000E406F50610F469017A01B601C701CDB756
:10499000DEB7EAE00C94793BDF92EF92FF920F933F
:1049A0001F93D82E15B88091D20184B98091D70178
:1049B00087B988B98091DB010E948315BC018430DE
:1049C000910530F18091DD019091DE017C0100E0E4
:1049D00010E085E06937780780F091E0D91669F436
:1049E00014B88091D8019091D701892B87B9809113
:1049F000DB010E941215BC0108C080E99AE1A0E029
:104A0000B0E0E80EF91E0A1F1B1F29EFD22E11C0BD
:104A10008091D50184B98091DB010E948315BC018E
:104A200098EFD92E80EFE82E8BE2F82E87E0082F42
:104A3000112D17B818B814B815B880E090E020EA26
:104A400036E841E050E00E94C53AA80197010E9473
:104A5000183B2093C1013093C2014093C30150938E
:104A6000C401D092C5011F910F91FF90EF90DF908C
:104A70000895A0E0B0E0EFE3F5E20C945F3B809195
:104A8000DC010E9412157C018091DB010E9412154D
:104A90006C018091D30160E10E942E168091DA01B1
:104AA0000E9483158C0115B80E94AF3A8091D10104
:104AB00085B98091DA010E94831526E0003412073F
:104AC00008F05FC08153914108F45BC014B815B879
:104AD0008091D80188B90E94AF3A8091D10184B900
:104AE0008091DA010E948315853F910508F049C045
:104AF0008091D30160E10E942E168091DA010E941C
:104B00008315EC0182E0CD3DD80760F482E280930A
:104B10000101809103018160809303018AE0809309
:104B20000A0135C08091D10185B90E94AF3A15B80C
:104B30008091DA010E948315853F910510F58091DF
:104B40000101813229F48091030181608093030186
:104B500081E2809301018BE080930A018091BD0185
:104B60009091BE018C179D0720F5CE01A0E0B0E02A
:104B70008093BD019093BE01A093BF01B093C0018B
:104B800006C080E0CDB7DEB7E8E00C947B3B8091B7
:104B9000CD018093B0018091CB018093B1018091D0
:104BA000CC018093B201EC18FD08F092B801E092BC
:104BB000B70181E0E7CFA0E0B0E0E1EEF5E20C94D0
:104BC0005B3B8B5E914018F408E210E002C008EEF7
:104BD00011E08091D6019091D201892B84B9809106
:104BE000DB010E947A156C018091D60185B9809114
:104BF000DB010E947A154C01C601800F911F8815B8
:104C0000990508F06BC08091D30184B985B918B8B3
:104C10008091D80187B98091DC010E947A1517B87C
:104C20008C5B924028F0FF2486E0C816D10410F473
:104C3000FF24F3948091D70187B98091DC010E9411
:104C40007A15EC018091DA010E94121517B88C17C1
:104C50009D0738F4C81BD90BC25CD14010F4FF2467
:104C6000F3948091D80188B987B98091D601909149
:104C7000D101892B84B915B88091DA010E947A1587
:104C80005C018091D60185B98091DA010E947A1584
:104C9000EC0118B88091D80187B98091D601909124
:104CA000D101892B84B985B98091DC010E947A15E4
:104CB00088549F4028F089E18093020184E006C077
:104CC000FF2061F489E28093020186E080930A016B
:104CD000F401EC19FD09CA19DB0970C018B88091FC
:104CE000D80187B98091D6019091D101892B84B9DF
:104CF00085B98091DA010E947A157C018091D101F9
:104D000085B98091DA010E947A155C01080F191F9C
:104D10000E151F0508F006C1C091AD01D091AE017E
:104D20008091D30184B915B88091D70187B988B92A
:104D30008091DC010E947A1518B88D5C904128F4AE
:104D400000E02C97EC16FD0608F001E08091D701F9
:104D500087B98091D6019091D201892B84B985B908
:104D60008091DB010E947A156C018091D20185B996
:104D70008091DB010E947A15EC0115B88091D70172
:104D800088B987B98091DC010E947A15815D9340D2
:104D900028F48AE18093020185E007C0002309F02E
:104DA000C1C08AE28093020187E080930A01F70183
:104DB000EA19FB0996012C1B3D0BE9018FE1809359
:104DC0000101809103018160809303014091CD0135
:104DD0004093B001CE17DF0738F48091CB01809368
:104DE000B1018091CC0106C08091CC018093B101CA
:104DF0008091CB018093B201CF0162E370E00E9409
:104E0000F13A9B01CF01861B970BC817D90750F0C9
:104E10002E0F3F1F2C173D0728F080910201806460
:104E2000809302018091B1016091B2010E944D1600
:104E30009091D9018091D801982B97B92091D101F7
:104E400024B98091020180FF13C018B825B90091E0
:104E5000AD011091AE018091DA010E947A1598019E
:104E6000281B390BC901C091DF01D091E0010AC0B4
:104E700098B915B88091DA010E947A15C091DD01C8
:104E8000D091DE01C057D54EBC0180E090E020E11A
:104E900037E240E050E00E94C53A9E0140E050E019
:104EA0000E94183B2093C1013093C2014093C3017B
:104EB0005093C4018AEF8093C5019091D6018091EF
:104EC000D501982B94B92091D70127B9809102017F
:104ED00080FF03C015B828B902C095B918B80E9460
:104EE000AE3A8091DB010E9412158C018091DC01A9
:104EF0000E9412159C01201B310B3093BC012093A2
:104F0000BB018091020180FF06C020543D4E215C10
:104F1000324140F003C0215C324120F01092BC01CC
:104F20001092BB01CDB7DEB7ECE00C94773BA0E06C
:104F3000B0E0EDE9F7E20C945B3B90E0EC01C1706E
:104F4000D07080FF07C0C090D1018091D70160E18F
:104F5000A62E06C0C090D2018091D80151E1A52EA5
:104F600047E0B42EB8228091DC01806480937C00FD
:104F70000E94B83ADD24EE24FF2487013FEF832E00
:104F800033E0932EA8958091D3016A2D0E942E16AE
:104F90008091D6018C2984B9209721F086B18B218C
:104FA000E9F703C086B18B21E9F3C4B880917A0098
:104FB000806480937A0080917A0086FDFCCF2097F0
:104FC00059F08091780090917900A0E0B0E0E80E6F
:104FD000F91E0A1F1B1F0EC0809178009091790066
:104FE0009401281B390BC901A0E0B0E0E81AF90AC6
:104FF0000A0B1B0BD3943AE0D31621F6C801B70174
:105000002AE030E040E050E00E943A3BB901CA019A
:105010002091AD013091AE0140E050E00E94C53AD0
:1050200020E034E040E050E00E943A3B3093BA0187
:105030002093B90180E48093AA01CDB7DEB7ECE0FC
:105040000C94773BA0E0B0E0E8E2F8E20C945B3B24
:10505000982E5B010E948C1541E0941641F58091D9
:10506000D6019091D101892B84B985B90E94AA3AC1
:10507000C090AD01D090AE018091DA010E9412156E
:10508000C81AD90A0091AD011091AE018091DC01DE
:105090000E941215081B190BC091DF01D091E0018D
:1050A000FF24F3948DEF99E028E43DE01AC080914D
:1050B000D6019091D201892B84B98091DB010E94A5
:1050C00083156C018091DC010E9412158C01C09146
:1050D000DD01D091DE01B2E0FB2E81ED93E020ED09
:1050E00037E08017910708F0DBC0809101018E3115
:1050F000E9F490910201892D892321F49460909321
:1051000002010EC051E0951659F49091B1018091C1
:10511000CB01981729F49092010182E0809302015B
:105120008091030181608093030105C08EE180932B
:10513000010190920201AC14BD0410F4CA18DB08FE
:10514000B60180E090E020EF3BE247E050E00E94B3
:10515000C53A980140E050E00E94183BCA01B901ED
:105160002AE030E040E050E00E94C53AC057D54EFA
:105170009E0140E050E00E94183BC901DA015C0149
:105180006D01892D0E941124A616B706C806D906FE
:1051900028F45B016C01A2E08A2E02C0882483946B
:1051A000E090BD01F090BE010091BF011091C001DF
:1051B00081E0981629F48091CC016091CD0104C062
:1051C0008091CD016091CB0140E00E9480210E943E
:1051D000DB178091020182FF1EC06091C6017091B1
:1051E000C7018091C8019091C901009152011091AD
:1051F000530120915401309155014091CA01E09032
:1052000051010E94130D813009F4EFC0892D846093
:105210008093020106C0EA14FB040C051D0508F08A
:10522000E4C080E00E94CC24A092BD01B092BE01F7
:10523000C092BF01D092C0018092B601809152010C
:1052400090915301A0915401B09155018093C601F2
:105250009093C701A093C801B093C90180915101F7
:105260008093CA018091CD018093B00141E09416F2
:1052700059F48091CB018093B1018091CC0180934E
:10528000B20110920A01B1C08091CC018093B101AA
:105290008091CB018093B20181E080930A01A5C087
:1052A00051E6A516B10408F0A0C02C153D0508F084
:1052B0009CC08091DA010E9412158C018091DB0163
:1052C0000E941215081B190B0A3F110508F044C073
:1052D0008FE1809301018F2D84618093020181E031
:1052E000F81641F46091DF017091E0016057754E4E
:1052F00082E007C06091DD017091DE016057754E5C
:1053000083E080930A0180E090E09801F3E0220FAF
:10531000331FFA95E1F7000F111F200F311F40E0F6
:1053200050E00E94C53A960140E050E00E94183BD0
:10533000C9012091E1013091E2012817390718F0E5
:1053400020E030E004C0AC01421B530B9A013093C3
:10535000B8012093B7010FC080E2809301018F2D27
:1053600084608093020151E0F51611F488E001C0D9
:1053700089E080930A018F2D0E9497278091030175
:105380008160809303019091CD019093B00181E001
:10539000F81639F48091CB018093B1018091CC0152
:1053A00006C08091CC018093B1018091CB018093A4
:1053B000B201892F6091B20140E00E94802180916A
:1053C000520190915301A0915401B09155018093E5
:1053D000C6019093C701A093C801B093C901809101
:1053E00051018093CA010E94DB17CDB7DEB7ECE014
:1053F0000C94773BA0E0B0E0E0E0FAE20C94593B7B
:10540000A8950E94E41780910101813009F4F3C04E
:1054100018B88091D80187B98091DA010E941215DD
:10542000782E692E8091D40184B985B98091D301F9
:1054300061E10E942E168091DA010E948315982E58
:10544000892E8091D10184B985B98091D30161E120
:105450000E942E168091DA010E9483155C018091D2
:10546000DB010E9412158C010E94E417809101015A
:10547000813009F4C0C018B88091D80187B98091F3
:10548000DA010E9412156C0117B88091D70188B912
:1054900087B915B88091D50184B98091D30160E1B5
:1054A0000E942E168091DA010E948315EC018091F2
:1054B000DB010E941215C817D90718F4EE24FF2447
:1054C00003C07E01E81AF90AE501C01BD10B8091E7
:1054D000D20184B98091D30160E10E942E1680919F
:1054E000DA010E9483158C018091DB010E94121564
:1054F000081B190B17B80C171D0768F4AE01401BE9
:10550000510B8E01292D382DC9017C01272D362DF7
:10551000C9016C0103C0A8014C1B5D0B495E5340DF
:1055200008F069C086E0E816F10408F464C0CE14FF
:10553000DF0420F4C7018C199D0903C0C6018E1930
:105540009F0923E0C216D10420F08436910508F4A7
:1055500052C088E2E816F10450F515B88091D201E6
:1055600084B98091D70188B987B98091DB010E9405
:105570008315EC018091D10184B98091D80188B95B
:1055800087B98091DA010E948315FC01CE0164E1A4
:1055900070E00E94F13A9B01CE01861B970B8E179B
:1055A0009F0728F42C0F3D1FE217F30720F1C801D5
:1055B0008759904089589141F0F4809101018823E6
:1055C00011F08A3019F484E1809301019091060171
:1055D000E6E09E9FF0011124EE57FE4F8091CB0133
:1055E00080838091CC01818313830283F582E482DE
:1055F0009F5F90930601CDB7DEB7EEE00C94753B4C
:105600008F929F92AF92BF92DF92EF92FF920F9391
:105610001F93CF93DF934C01162F009709F4EDC031
:105620000E94E41780910101813009F4E6C015B8A9
:1056300018B8012F10E0A1E0AA2EB12CA022B122AF
:1056400000FF06C08091D20184B98091D70106C0C5
:1056500014B88091D8019091D701892B87B987E040
:1056600080937A0080E480937B008091DB01806CE2
:1056700080937C0084E480BF0E94B33AA895109286
:10568000800010928100109285001092840087E2C1
:1056900086BBE801C470D07002FF0EC08091D701B4
:1056A00088B980E1815000008823E1F78091810072
:1056B00081608093810008C0809181008160809327
:1056C00081008091D70188B960E070E091E086B3F5
:1056D000E82F85FF03C0F3E0DF2E09C080FFF7CF7E
:1056E00096BB6F5F7F4F6034710589F7DD241092A0
:1056F000810080E286BB20918600309187008091F6
:10570000D1019091D201892B84B917B8809184007E
:10571000909185002817390730F4E0FF04C081E03C
:1057200086BB6F5F7F4F87E980937A0080917B0013
:105730008F7B80937B00DD2009F45BC040E050E06C
:10574000CB01A0E0B0E08C01FF24EE24E22AF32A92
:10575000042B152BCD2B11F484E009C02FE330E08E
:1057600040E050E0E20EF31E041F151F83E0A11479
:10577000B10411F08D5F01C08F5F682F70E080E091
:1057800090E06E157F058007910728F060E070E0DB
:1057900080E090E008C0A8019701261B370B480B5A
:1057A000590BCA01B90121E732E040E050E00E9404
:1057B000C53A6B5F7F4F8F4F9F4F2AE030E040E04C
:1057C00050E00E94183BC901DA01F4018083918303
:1057D000A283B383AB2831F0825E9440A040B040F6
:1057E00030F007C085369105A105B10510F482E0BF
:1057F000D82E80EC8093AA0101C0DD248D2DDF918D
:10580000CF911F910F91FF90EF90DF90BF90AF90DD
:105810009F908F900895A4E0B0E0E1E1FCE20C9449
:105820005B3B6C011092E8011092E9011092EA01D1
:105830001092EB011092EC01009709F425C1FC01D4
:105840006381748185819681428100ED17E020E0BB
:1058500030E0EE240E94130D87FF16C1F60180810F
:10586000618140E00E944D16CE01019665E00E94E4
:10587000002B833061F489819A81AB81BC81895886
:105880009341A040B04030F015E0B12E28C08823ED
:1058900009F0FAC05E010894A11CB11CC50161E0C9
:1058A0000E94002B823019F0BB24B39415C0F6017E
:1058B0006381748185819681428108E210E020E055
:1058C00030E0EE240E94130D87FFDEC0C50162E0C8
:1058D0000E94002BB2E0BB2E833009F0D5C0F60148
:1058E000638174818581968142812FEF0E94780DBA
:1058F0008B019C018091E1019091E201C090DD015A
:10590000D090DE01E090DF01F090E001EC0CFD1C96
:1059100005966AE070E00E94F13AE60EF71EE00E8E
:10592000F11EB0FE20C080E99AE1E80EF91EC80E13
:10593000D91E89819A81AB81BC818037E7E19E07BE
:10594000E0E0AE07E0E0BE0718F4E0E5F0E01CC0E0
:10595000845D9043A040B04018F0E7E3F0E014C04D
:10596000EDE2F0E011C089819A8125E08C3D92073B
:1059700018F4EAE0F0E008C08858934118F0EEEC23
:10598000FFEF02C0EBEFFFEF2091E501332727FD8A
:1059900030958091AB019091AC01280F391F40E008
:1059A00050E0BF01882777FD8095982F620F731F05
:1059B000841F951F4701AA24BB24A50194010E94BE
:1059C000C53A960140E050E00E94183BCA01B90177
:1059D00025E030E040E050E00E94183BDA01C901C8
:1059E00063E00E94BF157C0169817A818B819C8173
:1059F00017EF0FC06B5F7F4F8F4F9F4F2AE030E054
:105A000040E050E00E94183BC901DA01BC01CD0121
:105A10001F5F613AF6E87F07F1E08F07F0E09F072C
:105A200048F7970140E050E00E94C53A0FC06B5F15
:105A30007F4F8F4F9F4F2AE030E040E050E00E94C0
:105A4000183BC901DA01BC01CD011F5F613A26E8AC
:105A5000720721E0820720E0920748F7A501940130
:105A60000E94C53A1093E80120E137E240E050E09F
:105A70000E94183B2093E9013093EA014093EB0127
:105A80005093EC0181E001C080E02496ECE00C949E
:105A9000773B0F931F93182F062F0E949915482FBD
:105AA000812F602F0E944D1615B88091D20184B9C4
:105AB0008091D70187B988B98091DB010E94831555
:105AC000815D934010F00E94FA291F910F91089573
:105AD000A0E0B0E0EEE6FDE20C94583B83E080935A
