:100000000C9442090C945F090C945F090C945F09ED
:100010000C945F090C945F090C945F090C945F09C0
:100020000C945F090C949F160C945F090C945F0963
:100030000C945F090C94A93E0C945F090C945F0921
:100040000C945F090C945F090C94913E0C945F0929
:100050000C945F090C945F090C945F090C945F0980
:100060000C945F090C945F090C945F090C945F0970
:10007000FC1536160016041607160A1636160D1647
:100080001016361636163616361636163616361636
:100090003616361613163616161619163616361660
:1000A00036161C161F163616361636163616221635
:1000B00036163616361625163616281636162B160A
:1000C00036162E16FA1531163416554C54494D4134
:1000D00054450054455354455221210050726F62DB
:1000E000696E672E2E2E0054696D656F7574004E13
:1000F0006F20636F6D706F6E656E7400666F756EE6
:10010000642100646F6E65210053656C6563740043
:1001100053656C662041646A7573746D656E740016
:10012000536176652050726F66696C65004C6F6133
:10013000642050726F66696C650053686F77205653
:10014000616C7565730052656D6F7665004372650D
:100150006174650053686F727420436972637569D6
:10016000742100426174746572793F004572726F48
:100170007221004578697400436865636B73756D1F
:1001800000424A5400534352005472696163005064
:100190005554004279652100506F77657220537580
:1001A00070706C79004F555400506F77657200493C
:1001B0006F757430004343004F4350005047005365
:1001C000455400494C494D004D494E004D415800A1
:1001D0004F4E004F464600546573742042746E20A3
:1001E0005573616765004C65667400526967687491
:1001F0000053686F7274004C6F6E6700446F7562D5
:100200006C65004261636B203D20446F75626C65D4
:100210002050720050726573730041626F757400F4
:10022000556C74696D6174655465737465720050C2
:1002300043422076322E31004A616E202035203232
:100240003032360032323A32313A33310057656259
:100250003A006769746875622E636F6D2F706B3139
:100260003772002F556C74696D6174655F546573E6
:10027000746572005465737420436F6D706F6E65A2
:100280006E7400487A003C4D656E75205465737439
:100290003E0050574D00405450320053717561720A
:1002A00065205761766500467265712E20436F7533
:1002B0006E7465720052204D6F6E69746F720043E8
:1002C000204D6F6E69746F72004C204D6F6E6974B3
:1002D0006F720052434C204D6F6E69746F72004F05
:1002E000666600436F6E74696E7569747900466C5A
:1002F0006173686C696768740050686F746F6469D3
:100300006F6465006E6F007265760044696F6465A6
:100310002F4C45440076312E35346D004D4F53003F
:10032000464554002D636800656E682E0064657054
:100330002E004947425400436773004E504E005010
:100340004E50006846450056626500565F475400AF
:100350004963656F00566600430056746800495F44
:100360005200565400567265660052682D0052685D
:100370002B0052692D0052692B002B526C2D002B43
:1003800052682D00313220313320323300433000A7
:100390005230005663630041436F6D70002331009B
:1003A0002332004964737300495F6C005264730028
:1003B000565F4753286F66662900455352004362D3
:1003C00065005274005231005232002D032D002D71
:1003D000012D002D022D002D06072D0066706E05E3
:1003E0006D006B4DEE59CB52AD4C6047BC42A43E04
:1003F000003BBF37D0342932C02F8C2D872BAC293E
:10040000F5275E26E52485233D220A21EA1FDC1E0E
:10041000DD1DED1C0A1C331B681AA719F0184118C2
:100420009B17FD166516D5154A15C6144714CD132E
:100430005813E7127B121312AE114E11F010000088
:10044000BA03870358032E030703E402C302A4027E
:1004500088028111530F940D260CF40AF00911093A
:100460005008A6070F0789061006A3053F05E404F8
:1004700091044304FC03B9037A033F030703D10249
:100480009E026D023E020F02E101B20182014E01A5
:100490000F010100080040000001000401020304F4
:1004A0000502104008208001020400010200000043
:1004B0000000000000000000000000000080F8F0D4
:1004C000E0C080F880000F070301000F0080F88073
:1004D000C0E0F0F880000F000103070F0080F8F87B
:1004E0000000F8F880000F0F00000F0F00E0100868
:1004F000080810E00019121E001E12190000F80072
:100500000000E02000403F0810081F100080F0109D
:10051000101010101000070404040404041010103C
:10052000101010F08004040404040407000000F814
:100530000402FE020070181710101F700002FE0265
:100540000002FE0200101F1010105F300002FE02B9
:10055000F002FE0200101F101F105F30000000E0CC
:100560001008F8080070181710101F70008040283D
:10057000F8284080000708507F5008070008F80856
:100580000008F80800101F1010105F300008F8086D
:10059000C008F80800101F101F105F300000000294
:1005A0000502000000000000000000000000000044
:1005B000000000000000000000000000000000003B
:1005C000FE00000000000000370000000000160ED2
:1005D0000000160E0000000000000000000020F8DF
:1005E0002020F8200000020F02020F020010284411
:1005F000FE840810000304081F08050200182424C4
:1006000098402010000402010C12120C0018A4E201
:10061000A2128C80000708101011120508000000BB
:10062000160E00000000000000000000000000F0B6
:10063000080402000000000304081000000000028B
:100640000408F00000000010080403000090A0C09F
:10065000F8C0A090000402010F0102040080808015
:10066000F080808000000000070000000000000013
:10067000000000000000000058380000008080806A
:10068000808080800000000000000000000000006A
:10069000000000000000000018180000000000002A
:1006A00080402010000402010000000000F8040255
:1006B000020204F8000708101010080700000804E0
:1006C000FE020000000010101F10100000180402AD
:1006D00002824438001814121110101C000E02423D
:1006E00062528A0600060810101008070080403E7B
:1006F0000000FC000003020202121F12007E221200
:10070000121222C6000408101010080700F8442234
:10071000121224C00007081010100807000E0282F1
:10072000C262321E0000001F000000000018A44238
:100730004242A418000708101010080700F804022D
:10074000020284F8000009121211080700000000DC
:1007500030300000000000000C0C00000000000021
:1007600030300000000000002C1C00000000804021
:10077000201008040000000102040810000040409E
:100780004040404000000202020202020000040851
:10079000102040800000100804020100001804022C
:1007A00002028478000000003601000000F008A476
:1007B000A4C408F00007081312110A090000F00889
:1007C0000402FE0200101F1202121F100002FE425D
:1007D0004242A41800101F101010080700F804026D
:1007E0000202041E00070810101008060002FE0294
:1007F000020204F800101F10101008070002FE4249
:1008000042F2020E00101F101011101C0002FE42D6
:1008100042F2020E00101F101001000000F8040246
:100820008282849E000708101108041F0002FE4205
:100830004042FE0200101F1000101F1000000202B4
:10084000FE020200000010101F1010000000000245
:1008500002FE0202000C1010100F00000002FEC287
:100860003008060200101F10030418100002FE02D8
:100870000000000000101F101010101E0002FE32B9
:10088000C032FE0200101F1001101F100002FE1ADD
:10089000E002FE0200101F1000131F1000F80402F7
:1008A000020204F800070810101008070002FE02F8
:1008B0000202847800101F110101000000F80402F8
:1008C000020204F8000708101012140B1002FE8236
:1008D0008282443800101F1001021C1000182442AC
:1008E0004242841E0006081010100807000E020283
:1008F000FE02020E000010101F1010000002FE0287
:100900000002FE0200000F1010100F000002FE0295
:100910000002FE020000030E180E03000002FE0299
:10092000F002FE020000071C0F1C070000021EF26E
:1009300040F21E0200101F1100111F100002FE8263
:100940000082FE02000000111F110000000E028252
:100950004222120E001E11101010101E0000FE0286
:100960000202020000003F2020202000000810208A
:1009700040800000000000000000010200000202B0
:100980000202FE000000202020203F00001008048A
:100990000204081000000000000000000000000039
:1009A0000000000000202020202020200000000067
:1009B0000E1600000000000000000000000090483B
:1009C000484890E0000708101008041F0002FE12BB
:1009D000080810E000101F081010080700E01008B9
:1009E00008081038000708101010080600E010086A
:1009F0000812FE020007081010081F1000E090887F
:100A0000888890E000070810101008040040F8449F
:100A10004202040800101F101000000000E010083F
:100A20000810F8080003244848443F000002FE2054
:100A30001008F00000101F1000101F100000080B1D
:100A4000FB000000000010101F1010000000000844
:100A5000080BFB000000304040403F000002FE80D9
:100A60004030081800101F1102040818000000028E
:100A700002FE000000000010101F10100008F8080F
:100A8000F008F00000101F001F001F100008F810F1
:100A90000808F00000101F1000101F1000E01008E0
:100AA000080810E000070810101008070008F810E8
:100AB000080810E000407F481010080700E0100808
:100AC0000810F8080007081010487F400008F820B8
:100AD0001008087000101F1000000000002050884F
:100AE000888810380006081010100906002020FE23
:100AF000202000000000000F1010100C0008F80863
:100B00000008F80800000F1010081F100008F8086F
:100B10000008F8080000030E180E03000008F8088B
:100B2000C008F80800000F180F180F00000838E080
:100B300080E0380800101F0100011F100008F808AD
:100B40000008F8080000274848443F00003808081B
:100B500088482818001C12111010101E0080403800
:100B6000040202000000010E10202000000000001E
:100B7000FE000000000000003F0000000000020234
:100B80000438408000002020100E0100000080F09A
:100B9000E0C08000000000070301000000FEFEEE40
:100BA000E60202FEFE1F1F1F171010171FFEE6E2CF
:100BB0007A3A82C6FE1F1110161713131FFEF6F2A3
:100BC000BABA0246FE1F1B13171710181FFCCC8C55
:100BD0003C3C8CCCFC1F19181E1E18191FF010105D
:100BE00010101010100F08080808080808F010D09E
:100BF000D0D0D0D0100F080B0B0B0B0B081010101F
:100C000010101070C00808080808080E03D0D0D0D3
:100C1000D0D01070C00B0B0B0B0B080E0300181874
:100C200018FEFEFEFC000C0C0C3F3F3F1FFCF8E0E2
:100C300080808080801F0F030000000000FF010201
:100C400003040506076F707172737475767778FF09
:100C5000FFFFFFFFFFFFFFFFFFFFFFFFFF1011126E
:100C6000131415161718191A1B1C1D1E1F202122DC
:100C7000232425262728292A2B2C2D2E2F303132CC
:100C8000333435363738393A3B3C3D3E3F404142BC
:100C9000434445464748494A4B4C4D4E4F505152AC
:100CA000535455565758595A5B5C5D5E5F6061629C
:100CB000636465666768696A6B6C6D6EFFFFFFFF52
:100CC000FFFFFFFFFFFFFFFFFFFFFFFFFFFFFFFF34
:100CD000FFFFFFFFFFFFFFFFFFFFFFFFFFFFFFFF24
:100CE000FFFFFFFFFFFFFFFFFFFFFFFFFF0FFFFF04
:100CF000FFFF05FFFFFFFFFFFFFFFFFFFFFFFFFFFE
:100D0000FF08FFFFFFFFFFFFFFFFFFFFFFFFFFFFEA
:100D1000FFFFFF09FFFFFFFFFF0AFFFF0BFFFFFFC2
:100D2000FF0CFFFFFFFFFFFFFFFFFFFFFFFFFFFFC6
:100D3000FFFFFF0DFFFFFFFFFF0EFFFFFF000000A3
:100D4000000000000000E0E00000008040201F00E4
:100D50007C8282820000C848488808080808FFFF93
:100D600014224180C00000000000000000001F129B
:100D7000120D0000000003030000010101027C00CD
:100D80007F49494100000000000000000000E0E051
:100D9000000000E0C0A01F00FE9292820000C84840
:100DA000488808080808FFFF14224180000000005E
:100DB0000000000000001F12120D000000000303DD
:100DC0000000000001027C003E4141410000008023
:100DD00080000000C0C000E0E040404040407F0094
:100DE000FE82827C00001F2028190000FFFF009C6B
:100DF0009C08081C3E08F8000000000000000101EB
:100E000001010101010100030301010101017F0052
:100E1000264949320000404040404040C0C000E008
:100E2000E04040404040FF004C92926400007C82D1
:100E3000A2640000FFFF009C9C08083E1C080F00F5
:100E4000000000000000000000000000010100039D
:100E50000301010101017F007F41413E000000804C
:100E600080000000C0C000E0E040404040407F0003
:100E7000FE82827C00001F2028190000FFFF00FF77
:100E8000FF08081C3E08F8000000000000000101F7
:100E900001010101010100030301010101017F00C2
:100EA000264949320000404040404040C0C000E078
:100EB000E04040404040FF004C92926400007C8241
:100EC000A2640000FFFF00FFFF08083E1C080F009F
:100ED000000000000000000000000000010100030D
:100EE0000301010101017F007F41413E000080407C
:100EF00040800000000000E0E08080808080FF00F3
:100F0000FE82827C00008F90948C80E0C08080FF05
:100F1000FF808080808080000000000000000000D2
:100F200000000003010000030300000000007F0038
:100F30002649493200008080808080C0E08080E0C7
:100F4000E08080808080FF004C9292640000F80472
:100F500044C80001030000FFFF8080808080800083
:100F6000000000000000000101000000000000037C
:100F70000300000000007F007F41413E00000000B0
:100F800000000000808000E0E000000080403F00A2
:100F90007C8282820000884848880808FFFF00FFA2
:100FA000FF14A2C1E00000000000000000000F10CC
:100FB000140C0000000000030300000000017E008C
:100FC0007F4949410000000000000000808000E0EF
:100FD000E00000C080403F00FE92928200008848FE
:100FE00048880808FFFF00FFFF142241810100002C
:100FF0000000000000000F10140C000000000003AF
:101000000300000000017E003E414141000000005D
:10101000000000000000000000FF00007C12127CB5
:10102000000000000000F00848D00000C1C3C7CF96
:10103000DFFFDFCFC7C3C1000000000000000809C8
:101040000908080808080402017F00003C424242E7
:1010500000000000000000000000C0C0C0C0C0C010
:10106000C0C0FFC0C0CFC0CFC0C0C00000E0109063
:10107000A00080E0F8FEFFFEF8E080838FBFFFBF96
:101080008F83800000111212111011110905030144
:1010900001017F01010179010101010000001090AF
:1010A000901010101010204080FF00007C12127C65
:1010B0000000000000000F10140D0000C1C3C7CFD6
:1010C000DFFFDFCFC7C3C100000000000000000049
:1010D0000000000000000000007F00003C4242428F
:1010E000000000000000404040408000000000E0A0
:1010F000E08080808080FF003E003E000000FE9285
:1011000092820005060708FFFF80808080808000B3
:1011100000000000000000000000000000000003CC
:101120000300000000007F00003E000000000000FF
:101130000000000000C0C060606060C0C00000002F
:101140000000000000000000000000000707008011
:10115000C0E070381F070000000000000000000021
:101160000000000000000073737300000000000026
:101170000000000000000000000000C000000000AF
:1011800000FE003E081422000000000000000000E5
:1011900000000081C1E1F1F9FDFFFDF9F1E1C18736
:1011A000000000000000000000000000000000003F
:1011B000007F007814147800000000000000000098
:1011C000000000000000000000FE00000000000021
:1011D000000000000000000000003C3CBDBDBDBDA3
:1011E000BDBDBDBDBDBDBD3C3C000000000000005C
:1011F0000000000000000000007F00000000000070
:10120000000000000000C040408000E0202070503E
:1012100050505070242E2420FE00000000001714AF
:101220001413101F1010FF0101010101FF848484B9
:101230008700000000000000000000000000030222
:1012400002020202232020007F00000000050A069F
:1012500005060A050A0609060A050A0609060A0518
:101260000A0609060A050A0605060A050A06050A07
:1012700006090A06090A0600000000000000000036
:10128000110A060011241FBECFEFD0E1DEBFCDBF93
:1012900011E0A0E0B1E0ECE8F0E902C005900D92A9
:1012A000A030B107D9F711E0A0E0B1E001C01D9274
:1012B000A03FB107E1F70E94DD0F0C9444480C9465
:1012C0000000982F8091A501981719F48091A8012A
:1012D00008958091A601981719F48091A9010895A5
:1012E0008091AA01089582E00E94CB1E8FEE90E0CB
:1012F0000E9401208CEF90E00E940B218EE08093F1
:101300000D0181E00E94BE208091A3018F5F809338
:10131000A3010895CF93DF9383E00E94FC1A88EC29
:101320008093990183E00E94FC1AEC018B5C984049
:10133000835F9140C8F460919E0170919F0180E0AD
:1013400090E023EC39E040E050E00E94F8469E0136
:1013500040E050E00E94574730939F0120939E0148
:1013600080919701846003C0809197018B7F809367
:1013700097018EE10E94FC1A90939D0180939C013D
:1013800088EC809399018EE10E94FC1A2091DF0184
:10139000332727FD3095280F391F30939D01209367
:1013A0009C0189E180939901DF91CF9108951F936A
:1013B0008091A0019091A1012BE0883B920710F44D
:1013C0008CE005C02CE0843E920718F48DE01EE00E
:1013D00008C08B59904118F48DE01FE002C080E1F5
:1013E00011E10E94F145812F0E94F1450E94AC1F3E
:1013F0008091A0019091A1016AE070E00E943047C5
:1014000080E090E04EEF26E50E94D81E1F910895DF
:10141000FC018181608140E00E94952760914C0130
:1014200070914D0180914E0190914F0140914B017F
:1014300026E40E94D81E08950E94AC1F80910501E9
:1014400082FF03C088E293E002C08DE293E00E9435
:10145000F31F08950E94AC1F8091050180FF02C018
:101460008EE401C080E50E94F14584E293E00E9491
:10147000F31F08951F93162F0E94F14587ED93E007
:101480000E94F31F812F0E94F1450E94AC1F6091C2
:1014900012017091130180911401909115014091F6
:1014A000110124E00E94D81E1F9108950E947145E9
:1014B0008130B9F40E94EC420E94934685E064E0DA
:1014C0000E94454686E50E94F14585EA91E00E942A
:1014D000F31F0E94AC1F83ED91E00E94F31F0E9456
:1014E000D5460E94934681E00E94CB1E83E991E09D
:1014F0000E9401200E94D5460E949346F89488E1FC
:101500000FB6F89480936000109260000FBE45986B
:1015100083B7817F846083BF83B7816083BF8895F1
:1015200083B78E7F83BF089586E00E94FC1AA0E0F7
:10153000B0E0BC01CD012EEB3FE040E050E00E9466
:10154000F84628EE33E040E050E00E94574780E143
:101550002B39380718F0245D3E4F02C0265F3F4FFD
:101560003093A1012093A00184E68093A201285B1F
:101570003B4050F40E9493460E94D70988EB9BE0C1
:101580000E945C160E94560A08951F93162F0E940F
:10159000B01F81E00E94F145812F0E94B01F1F9172
:1015A00008950F931F93CF93DF938091050180FFE0
:1015B00005C00091A7011091A60104C00091A601E9
:1015C0001091A701802F612F0E94AE29EC01009796
:1015D00031F00E94AC1F802F612F0E94C50A8091BC
:1015E000050182FF3BC08091AE019091AF01892B34
:1015F00081F08AE593E00E94FD206091AE01709138
:10160000AF01882777FD8095982F4DEF26E50E9442
:10161000881F87E393E00E94FD206091BB017091D9
:10162000BC018091BD019091BE014091BF0126E4B3
:101630000E94D81E8091AC019091AD01892B71F070
:101640008CEA93E00E94FD206091AC017091AD01A5
:1016500080E090E04EEF24E00E94D81E209799F0A1
:101660000E94992081E00E94F1450E94AC1F85E50F
:1016700093E00E9421206A817B8180E090E04DEF21
:1016800026E50E94D81EDF91CF911F910F910895FA
:1016900080E00E94B51F81E00E94B51F82E00E9499
:1016A000B51F8DE30E94F14580E00E94B01F81E0EC
:1016B0000E94B01F82E00E94B01F08958FE891E061
:1016C0000E94F31F0E9499200E94480B82E693E03B
:1016D0000E94FD2060913B0170913C0180E090E010
:1016E0004DEF26E50E94D81E85E593E00E94FD207F
:1016F0006091390170913A0180E090E04DEF26E56C
:101700000E94D81E089580910401823219F485E860
:1017100091E002C089E891E00E94F31F0E949920A5
:101720000E94480B8091AC019091AD01892B71F022
:101730008BE493E00E94FD206091AC017091AD01BB
:1017400080E090E04DEF26E50E94D81E089582E3E8
:1017500093E00E94F31F0E942A0A0E941C0A0E9422
:1017600099200E94480B0E94D10A0895EF920F938E
:101770001F93CF93DF93EC016091B6017091B70195
:101780008091B8019091B9014091BA010AE010E04E
:1017900020E030E057EFE52E0E94DF1187FD10C0FA
:1017A000CE010E94FD206091B6017091B701809139
:1017B000B8019091B9014091BA0121E40E94D81E6C
:1017C000DF91CF911F910F91EF90089580910501C6
:1017D00084FF05C08CE193E00E94F31F03C08AE4FC
:1017E0000E94F14580E293E00E94F31F0E942A0AC2
:1017F0008091050184FF02C00E941C0A0E9499206A
:101800000E94480B0E94D10A8091050183FF1EC0EF
:1018100083EA93E00E94B60B8091B0019091B101F0
:10182000892BA1F080EB93E00E94FD200E9499207B
:101830000E94AC1F6091B0017091B101882777FDC3
:101840008095982F4DEF26E50E94881F0895EF920E
:10185000FF920F931F93CF93DF938091050180FF39
:101860000AC0CBE3D3E0E090A501F090A70100917E
:10187000A6011F2D09C0CFE3D3E0E090A701F090AF
:10188000A5011091A6010E2D81E891E00E94212072
:10189000CE010E94F31F8091050182FF03C08BE2FD
:1018A0000E94F1450E9499200E94480B812F602FD1
:1018B0000E94AE29892B31F00E94AC1F812F602F2E
:1018C0000E94C50A8F2D6E2D49E10E94452481306A
:1018D00049F40E94992082E465E40E943A0A84E077
:1018E00080932A0183E493E00E94FD206091B2017D
:1018F0007091B3018091B4019091B5010E947B1F5A
:101900000E94AC1F8091AB0180FF02C085E603C03E
:1019100081FF03C083E60E94F1458E2D6F2D0E944A
:10192000AE29EC01009781F187E493E00E94FD204D
:101930002A813B81EC81FD81E090B201F090B301FE
:101940000091B4011091B50144E6E416F1040105DB
:10195000110598F0C9018E1B9F0B63E070E00E9497
:1019600044474AEFE416F1040105110518F4261B5B
:10197000370B03C09B012E0F3F1FB90180E090E0A1
:101980004DEF26E50E94D81E80E593E00E94B60B3D
:101990008EEB93E00E94FD206091BB017091BC0131
:1019A0008091BD019091BE014091BF0126E40E944B
:1019B000D81ECDB7DEB7E6E00C94BC47A1E0B0E09E
:1019C000E4EEFCE00C949C4780910901813059F4CD
:1019D000F090740163E7A62E61E0B62E00E010E0FF
:1019E00055E0E52E1EC1823039F510917301D0907B
:1019F00079011D1549F4C0907401D0907A0181E0FD
:101A0000898345E0F42E52C0F090740180917A01F0
:101A1000F81659F4C12E33E7A32E31E0B32E850119
:101A20000A5F1F4F25E0E22E00C1181709F0EEC033
:101A3000FD1409F0EBC034C0833041F520E046E0EE
:101A4000249F50011124E3E7F1E0AE0EBF1E30E009
:101A5000349F800111240D581E4F231741F0F501CA
:101A60009181F8018081981711F425E035E03F5FFE
:101A7000333070F32F5F233018F3253010F400E07B
:101A800010E0F501F18093E0E92ECBC08FEC93E0FC
:101A90000E94212080910901805D0E94F145C8C00B
:101AA000F12E198285E0C82E05E0D02E1330A0F467
:101AB000809174010E94B51F83ED93E00E94F31F93
:101AC000812F0E94B51FE12E13E7A12E11E0B12E48
:101AD00085010A5F1F4F16C0E12EB3E7AB2EB1E0C0
:101AE000BB2E85010A5F1F4FF50180810E94B51F43
:101AF0008FEC93E00E94F31F8F2D0E94B51F0115FC
:101B0000110599F0EF1441F0F3E0FE1528F0F8010B
:101B1000F1808FEC93E004C0F801F08083ED93E056
:101B20000E94F31F8F2D0E94B51FF4E0FC1500F1F9
:101B30008C2D6D2D49E10E9445248130C9F40E940D
:101B4000AC1F82E08E1518F08FE393E002C08BE3A8
:101B500093E00E94F31F8FE30E94F1450E949920B9
:101B600091E3D90E8C2D8F5C6D2D0E943A0A19825B
:101B700085E593E00E94FD20F5016281738180E09C
:101B800090E04DEF26E50E94D81E0E94AC1F011583
:101B9000110501F5F501848195818A3F910568F46D
:101BA00088E20E94F145F5016481758180E090E052
:101BB0000E947B1F89E20E94F145F50181816081CD
:101BC0000E94D71B81E00E94E92A8EE593E00E94E3
:101BD000B60B09C0F8016281738180E090E04DEF9F
:101BE00026E50E94D81EF981F13011F588E593E0D1
:101BF0000E94FD20C5010E94080A01151105C1F0CF
:101C00000E94AC1FC8010E94080A12C0A3E7AA2EB6
:101C1000A1E0BA2E85010A5F1F4FF5E0EF2EE5E047
:101C2000FE2E75E0C72E65E0D62E81E089835CCF5D
:101C30002196EAE00C94B847EF920F931F93CF934D
:101C4000DF9360915A0170915B0180915C019091EA
:101C50005D0100914C0110914D0120914E01309198
:101C60004F0140915901E0904B010E94DF118130FA
:101C700019F4C7E5D1E002C0C9E4D1E06091680180
:101C80007091690180916A0190916B010B811C81B7
:101C90002D813E8140916701EA800E94DF118130F1
:101CA00011F4C5E6D1E088810E94B51F8BEC93E06A
:101CB0000E94F31F89810E94B51F0E9499206B81A9
:101CC0007C818D819E814A8126E40E94D81ECE01AE
:101CD0000E941F288C018FEF0F3F180749F00E94C8
:101CE000AC1FB80180E090E04EEF24E00E94D81EC7
:101CF0008B859C85892B61F088EA93E00E94FD200A
:101D00006B857C8580E090E04D8521E40E94D81EA3
:101D1000DF91CF911F910F91EF900895A0E0B0E077
:101D2000E4E9FEE00C94974780910801813049F482
:101D300010910F019FE0C92E91E0D92EAA24BB2457
:101D400062C0833041F08FE0C82E81E0D82E17E0CA
:101D5000A12EB12C4BC06091190170911A01809194
:101D60001B0190911C01009112011091130120910F
:101D700014013091150140911801E09011010E9469
:101D8000DF11813019F4C6E1D1E002C0CFE0D1E02B
:101D90006091200170912101809122019091230195
:101DA0000B811C812D813E8140911F01EA800E94A0
:101DB000DF11813011F4CDE1D1E081E0CF30D807DF
:101DC00031F4B7E0CB2ED12CCC0EDD1E04C0AFE039
:101DD000CA2EA1E0DA2EF7E0AF2EB12CAC0CBD1C60
:101DE000AC16BD0629F4EEE0AE2EB12CAC0CBD1C39
:101DF000F6011081F5018081181729F081811817EB
:101E000011F0F6011181F6018081811711F4F601BC
:101E100081810E94B51F87ED93E00E94F31F812FFF
:101E20000E94B51FA114B10461F087ED93E00E94F8
:101E3000F31FF5018081811711F4F50181810E9462
:101E4000B51F0E949920F601638174818581968176
:101E5000428124E00E94D81EA114B10409F472C08A
:101E60000E94AC1FF5016381748185819681428156
:101E700024E00E94D81EF6016381748185819681D9
:101E8000F5010381148125813681F6014281F50136
:101E9000E2800E946912582EF60163817481858167
:101EA00096814281252D0E9444123B014C01F5018F
:101EB00063817481858196814281252D0E9444121F
:101EC0007B018C01E60CF71C081D191DE114F104BF
:101ED0000105110509F44AC082EC93E00E94FD203F
:101EE000C801B701452D24E00E94D81E85EC93E07F
:101EF0000E94FD2074E6A72EB12CC12CD12CC40168
:101F0000B30124E630E040E050E00E94F846A8012A
:101F100097010E94574779018A01C801B70140E043
:101F200025E20E94D81E0E94AC1F88EC93E00E941C
:101F30002120AE18BF08C00AD10AC601B50140E091
:101F400025E212C0C6010E943B32813079F40E9422
:101F5000AC1F6091E8017091E9018091EA019091D4
:101F6000EB014091E70128E40E94D81ECDB7DEB70F
:101F7000EFE00C94B347809105018130C9F483E60A
:101F800091E00E94F31F0E94992080910A010E9413
:101F9000B51F0E94801F0E94AC1F60910B017091C1
:101FA0000C0180E090E04DEF26E50E94D81E0895D8
:101FB000823011F40E9473090895EF92FF920F93FB
:101FC0001F93CF93DF9380E287B988B90E94D53FF2
:101FD0000E94044380E185BF87E880937A0014B7AC
:101FE00084B7877F84BF88E10FB6F8948093600040
:101FF000109260000FBE81E08093970182E0809391
:1020000098010E94BC3F0E94C54613FF13C00E9466
:10201000934682E00E94CB1E87EE90E00E94012052
:102020008CE691E00E940B2180ED97E00E945C1607
:1020300045986DC18091970180FF05C080919801FE
:102040008062809398010E94A146109224015A98C0
:10205000529A5898509A81E061E00E94BD1A82E03D
:102060000E94CB1E8AEC90E00E94012083ED90E05C
:102070000E940B2184EF91E00E945C161092A30154
:1020800089E18093990181E080939A0180939B017B
:1020900084E893E190939F0180939E012FE088E173
:1020A00090E00FB6F894A895809360000FBE20933F
:1020B0006000789416E6EE24E39403E022E0F22E2A
:1020C000C6E8D2E001C015E61092040110920501A5
:1020D0001092060110920701109209011092080156
:1020E0001092AB011092AD011092AC011092AF01B1
:1020F0001092AE011092B1011092B0011092B20193
:102100001092B3011092B4011092B5011092B60171
:102110001092B7011092B8011092B90110923A01D1
:102120001092390110923C0110923B0110922F0144
:10213000E092310100932A0111B8F09224010E942B
:1021400093460E948A090E94940A163609F4CEC06A
:102150000E94940A0E94D70981E00E94CB1E0E942F
:102160009920809127018150809327018CED90E088
:102170000E940120809127018F5F809327010E9498
:10218000B41D809104018130E1F180E061E042E022
:102190000E94A01C81E060E042E00E94A01C80E060
:1021A00062E041E00E94A01C82E060E041E00E9409
:1021B000A01C81E062E040E00E94A01C82E061E09F
:1021C00040E00E94A01C0E94601C0E947A2980911D
:1021D0000401882311F08A30A1F40E94AC1F83E42B
:1021E0000E94F14582E060E040E00E94952782E095
:1021F00061E041E00E94952781E060E042E00E94BA
:1022000095270E94934600932401529A5A9A84E19A
:1022100090E00E945C165A98809104018E3111F171
:102220008F3160F48A3069F18B3018F4813079F5A0
:1022300013C08B3049F1843151F511C08132D9F08E
:10224000823228F48F3189F0803209F511C0823250
:1022500091F08332E1F412C00E94BB0F1AC00E94B9
:10226000DE0C17C00E94270C14C00E94E60B11C0A0
:102270000E94A70B0EC00E94830B0BC00E945E0B36
:1022800008C00E948E0E05C00E941C0E02C00E9453
:102290007309809104018E3130F080912A018823E6
:1022A00011F00E94BE20809104018A3010F010923B
:1022B000A301109224010E948320D0933301C09384
:1022C000320188EB9BE06EE30E940713182F8823EE
:1022D00029F48091A3018530C0F4F6CE833031F02B
:1022E000823099F0853011F0853661F490E003C0BA
:1022F0000E94E115982F892F88568230C8F79836AA
:10230000C1F6E1CE873609F0DFCE0E94560A80E0A2
:1023100090E0CDB7DEB7E6E00C94BC47AF92BF9239
:10232000CF92DF92FF920F931F93DF93CF9300D052
:102330000F92CDB7DEB789836A834B836E01089411
:10234000C11CD11C860134E0A32EB12CAC0EBD1EE5
:10235000802F8C19F801F080FF2049F00E94B51FF2
:102360000E94801F8F2D0E94F1450E94AC1F0F5FBD
:102370001F4F0A151B0561F70F900F900F90CF911B
:10238000DF911F910F91FF90DF90CF90BF90AF90A2
:1023900008951F9311E00BC02AE030E040E050E0C8
:1023A0000E945747C901DA01BC01CD011F5F6A30A5
:1023B00071058105910580F7812F1F9108956F9216
:1023C0007F928F929F92AF92BF92CF92DF92EF92C5
:1023D000FF920F931F933B014C01F42E58016901AA
:1023E0000E2D0E94C911182FC601B5010E94C911F6
:1023F000611471048104910491F1A114B104C10428
:10240000D10431F1EF2CE10E800F8E1534F1E81676
:1024100069F51E2D1F19E01A0BC0C601B5012AE08F
:1024200030E040E050E00E94F8465B016C01E3942C
:10243000E1169CF30BC0C401B3012AE030E040E098
:1024400050E00E94F8463B014C011F5F1E159CF3B3
:10245000A614B704C804D90410F481E008C06A14B3
:102460007B048C049D0410F080E001C08FEF1F916D
:102470000F91FF90EF90DF90CF90BF90AF909F9023
:102480008F907F906F9008950F931F93142F022FBA
:102490009B01AC0117C0101754F4B901CA012AE01E
:1024A00030E040E050E00E9457471F5F0BC0B90189
:1024B000CA012AE030E040E050E00E94F8469B016B
:1024C000AC011150101739F7B901CA011F910F91D2
:1024D0000895AF92BF92CF92DF92EF92FF920F9347
:1024E0001F93F42E580169010E2D0E94C9111F2D52
:1024F000180FC601B5010E94C9118E0D811744F451
:10250000812F8F1985308CF04F2D4450480F10C00B
:10251000982F9E19181734F495304CF04E2D4450D6
:10252000490F06C01F19911714F44F2D01C0402FF9
:10253000842F1F910F91FF90EF90DF90CF90BF906D
:10254000AF900895382FE82FF92F01C031969E2FB4
:10255000931B84918823D1F7892F0895681721F45C
:102560008AE20E94F14508950E94AC1F089503C0BD
:102570000E94DF46A895369BFBCF84EF91E00E9436
:102580005C160895FF920F931F93F7B087B1877E73
:1025900087B90E94E54610E000E086B18095887119
:1025A00011F420E00EC084FD1F5F83FD0F5F802FBC
:1025B000810F8A3028F48EE190E00E945C16EDCF06
:1025C00022E0112311F094E001C090E0002321F0FB
:1025D0009430D9F496E002C0992389F080912F01BC
:1025E000981741F4223031F480913101873018F48A
:1025F0008F5F01C081E08093310180933001F7B893
:10260000892F1F910F91FF90089595E0E7CFA0E0EB
:10261000B0E0EDE0F3E10C9496475C01162F81E009
:10262000809330018091980185FF04C068E7C62E31
:10263000D12C02C0CC24DD2412FF08C08091970168
:1026400080FF03C0AA24BB2401C01C7F15FF21C04A
:1026500020913201822F90913301FC0101C031960B
:102660009E2F921B84918823D1F79150809127014E
:10267000981778F4E82EE91A1C7F8E2D60912801B6
:102680000E94454680913201909133010E94F31FD0
:1026900001C0EE24C12FD0E053E0852E912C8C2276
:1026A0009D228114910409F494C081E00E945B464C
:1026B00090C0A114B10451F086E0A816B10410F442
:1026C00000E004C08BEF9FEFA80EB91E36993AC008
:1026D00082E390E00E945C1610E009C0369909C0C0
:1026E0001F5F1B3130F48AE090E00E945C160023EB
:1026F000A9F71B3118F042E0F42E22C0209719F4FC
:10270000FF24F3941DC082E390E00E945C16FF2436
:10271000F39414E136990DC08EE190E00E945C16AE
:10272000369907C088EC90E00E945C1633E0F32EE7
:1027300011E011508AE090E00E945C16112351F7DD
:1027400000E03DC00E94C212882311F0F82E54C050
:1027500085E090E00E945C161F5F812F64E10E947B
:102760001747992369F48091A201823020F08150AB
:102770008093A20105C06114710411F00E94940AB3
:102780001436E9F44114510459F0013029F480E081
:102790000E945B4602E004C081E00E945B4601E0CB
:1027A000C114D10459F092E0C916D10420F427E6EF
:1027B000F22E00E003C00894C108D10810E0809117
:1027C000980180FF16C0809198018E7F80939801B8
:1027D00013C0FF2401E010E092E0492E512C4C225E
:1027E0005D2280E1682E712C6C227D22C870D07031
:1027F00060CF002309F05DCF8114910419F080E0CF
:102800000E945B46EE2041F08E2D609128010E94CF
:10281000454680E00E946A46F0922F0187E6F8164E
:1028200011F40E94560A8F2DCDB7DEB7E0E10C946B
:10283000B247A0E0B0E0EFE1F4E10C949547362E0A
:102840003A014901D0902801DA94FF24EE2402E0F5
:102850004D2C4A94B82EC82ECA94A82EAD18502ECE
:102860005D1881E0D81611F40F5FEF2CCE2DD0E06B
:10287000CC0FDD1FC60DD71D10E02CC0612F6E5F81
:1028800081E00E94454681E0D81629F0812F8E0D07
:102890006F2D0E94AE120230C0F081E0381629F48C
:1028A000888199810E94F31F07C0FE016591749190
:1028B00080E090E00E947B1F8114910419F0C40114
:1028C0000E94F31F80E00E946A461F5FC11608F451
:1028D0001D2D22961D1590F281E0D81649F48091A5
:1028E0002701609128010E9445468CE30E94F14532
:1028F00080E090E060E10E940713813011F41F2D09
:102900003FC0843019F41F2D01E01DC0853019F03F
:102910001F2D01E033C0FF2039F4CD1408F444C06A
:10292000EA2C1C2D02E03EC01F2D11501E15E9F5AA
:10293000EE20D9F1FD1410F4EE2401C0E50C81E085
:10294000F816D1F402E01C1531F41D1508F00F5FE4
:1029500010E0EE2427C0912F9F5F842D8E0D9817D5
:1029600001F59C15F0F48B2D891B8D1510F0E12ECF
:1029700001C0EA2C0F5F15C08F2D02E0823061F498
:102980000E94934684EF91E00E945C16812FCDB7A0
:10299000DEB7E1E10C94B147873621F40E94560A74
:1029A00001C0192FF12E5DCF1C2D01E0FBCFA5E456
:1029B000B0E0EDEDF4E10C94A44788E991E0998F43
:1029C000888F8BE2898384E792E09B8F8A8F8CE2E9
:1029D0008A8385EB92E09D8F8C8F86E18B8383EEDB
:1029E00092E09F8F8E8F81E28C838EEE92E099A38E
:1029F00088A385E28D8382E992E09BA38AA386E087
:102A00008E838BE992E09DA38CA387E08F838AEB72
:102A100093E09FA38EA389E088878FEB92E099A72C
:102A200088A787E1898789EC92E09BA78AA78BE139
:102A30008A8783ED92E09DA78CA78CE18B8787EA3C
:102A400092E09FA78EA78AE08C8789EF92E099ABEE
:102A500088AB87E28D878BE093E09BAB8AAB89E202
:102A60008E8780E191E09DAB8CAB82E08F878DE219
:102A700091E09FAB8EAB84E0888B8AE391E099AFC5
:102A800088AF85E0898B87ED91E09BAF8AAF8EE2BE
:102A90008A8B8AE192E09DAF8CAF8DE28B8B8FEDBC
:102AA00092E09FAF8EAF84E18C8B0E9493460E9490
:102AB000D70984E161E0AE01485E5F4F20E030E07D
:102AC0000E941914FE01E80FF11D8181CB5BDF4FDD
:102AD000E2E00C94C047A9E0B0E0E1E7F5E10C9436
:102AE000A347182F8DE993E09D838C8380EA93E0C0
:102AF0009F838E8383E791E0998788870E9493461E
:102B0000123019F480E291E002C08DE291E00E945F
:102B1000F31F83E061E0AE014C5F5F4F20E030E0E7
:102B20000E94191491E0998392E09A831B82FE011E
:102B3000E80FF11D6181662319F0812F0E94BD1AF3
:102B40002996E3E00C94BF470F931F93CF93DF9335
:102B5000082F882321F4C6E4D1E010E003C0CDE4BF
:102B6000D1E013E00E949F1D8117A1F00E949346BF
:102B700082E00E94CB1ECE010E94012084E591E0FC
:102B80000E940B210E949F1D811731F488EC90E078
:102B90000E945C1681E00AC084E690E060E10E9439
:102BA0000713013079F7882369F380E0DF91CF9133
:102BB0001F910F91089588EB9BE065E10E94071338
:102BC00008951F930E94D714982F8091970180FF3A
:102BD00005C0809198018F7D80939801892F90E0A6
:102BE000FC013297ED32F10508F040C0E85CFF4F80
:102BF0000C94CB4718E63BC00E949317182F37C0A0
:102C000081E00E946B1532C00E94F2162FC00E9414
:102C1000F43C2CC00E94EE3B29C00E94A73B26C07A
:102C20000E94BD3E23C00E94560A20C00E94723BF3
:102C30001DC00E940A3B1AC00E94D53A17C00E94CC
:102C40003B3A14C00E94E23911C00E9482330EC088
:102C50000E944F390BC00E94143908C00E9472367E
:102C600005C00E948A3302C00E94503411E0809156
:102C7000970180FF05C08091980180628093980140
:102C8000112361F40E94934681E00E94CB1E8CE6E2
:102C900091E00E9401200E94DB150BC0193649F417
:102CA0000E94934681E00E94CB1E83E091E00E9447
:102CB0000120812F1F9108951F93BC011092B10034
:102CC0001092B20082E08093B000809370000FB643
:102CD00007FC1FC0789410E01DC0A8952F3F310558
:102CE0004105510519F010F09FEF01C0922F91504E
:102CF0009093B3009F5F6093B10002C0000000009A
:102D00008091B1008823D1F7291B3109410951096C
:102D10000CC011E080E090E024E130E040E050E0C1
:102D20000E94F8469B01AC0167E021153105410581
:102D3000510599F6112309F4F8941F9108951F92F3
:102D40000F920FB60F9211241092B1000F900FBE88
:102D50000F901F9018958150860F089581EC90E098
:102D60009093D3018093D20187EE90E09093D501A8
:102D70008093D4018CE190E09093D7018093D601A9
:102D80009093D9018093D8019093DB018093DA016D
:102D900083E28093DC018093DD018093DE01109259
:102DA000DF018AE08093E0018FEF8093E1018CE006
:102DB0009EEFAFEFBFEF8093E2019093E301A0930A
:102DC000E401B093E5010895E2EDF1E090E0819136
:102DD000980F81E0E63EF807D1F7992309F491E0D6
:102DE000892F089581E0809324010E94934682E711
:102DF00093E00E9421206091D2017091D30180E084
:102E000090E04FEF24E00E94D81E86E793E00E94F6
:102E1000FD206091D4017091D50180E090E04FEFEA
:102E200024E00E94D81E8DE893E00E94FD2060916E
:102E3000DC0170E080E090E00E947B1F0E94AC1FEC
:102E40006091DD0170E080E090E00E947B1F0E94B5
:102E5000AC1F6091DE0170E080E090E044EF26E47A
:102E60000E94D81E80E993E00E94FD206091D60167
:102E70007091D70180E090E04EEF20E00E94D81ED4
:102E80000E94AC1F6091D8017091D90180E090E060
:102E90004EEF20E00E94D81E0E9499200E94AC1F95
:102EA0006091DA017091DB0180E090E04EEF24E068
:102EB0000E94D81E83E993E00E94FD2060919E014C
:102EC00070919F0180E090E04DEF26E50E94D81EB2
:102ED0008091970182FF05C00E94AC1F8AE20E9488
:102EE000F14587E993E00E94FD206091E00177279A
:102EF00067FD7095872F972F4DEF26E50E94881F5D
:102F00008FEA91E00E94FD206091E2017091E3015F
:102F10008091E4019091E5014AEF21E40E94881F2D
:102F20000E94DB150895A5E1B0E0E9E9F7E10C9412
:102F300094470E94F5420E94CD400E94C24081E029
:102F40000E94A415882319F47AE0872E01C08824F2
:102F50000E94D946198A188A1D861C861886AA24BA
:102F6000BB24CC24DD241D8A1C8A772444245524C8
:102F70001B8A1A8A66241F861E861B861A86198655
:102F8000222433241F821E821D8219821A821B82F0
:102F90001C82CCC10E94934681E40E94F145882D99
:102FA000805D0E94F1450E94AC1F99249394B9C1A1
:102FB00023E0821609F4A2C0281538F031E0831608
:102FC00071F1381508F456C00CC085E0881609F474
:102FD000CDC0881608F499C096E0891609F06FC133
:102FE0000CC1A1E09A1621F48FEA91E00E94F31F30
:102FF0000E94E7407B018C0189819A81AB81BC8171
:103000008E0D9F1DA01FB11F89839A83AB83BC8344
:103010000E949920C801B7014AEF21E428C091E03D
:10302000991641F485E693E00E94212087E993E018
:103030000E94F31F0E948624AD81A80FAD830E94D9
:1030400099206091DF01772767FD7095872F972F73
:103050004DEF26E50E94881F0E94AC1F6091E001A1
:10306000772767FD7095872F972F4DEF26E50E94F4
:10307000881F49C0B1E09B1641F480E993E00E94AB
:10308000212084E893E00E94F31F81E060E00E9429
:10309000D71B80E00E9421215C018639910538F41C
:1030A0002E853F85280F391F3F872E87639482E046
:1030B00060E00E94D71B80E00E9421216C018639CC
:1030C000910538F48C859D858C0D9D1D9D878C8781
:1030D000639482E061E00E94D71B80E00E9421217E
:1030E0009D8B8C8B8639910508F0E9C0AA85BB853C
:1030F000A80FB91FBB87AA876394E1C080E00E9434
:10310000A41564E6962E80E0DBC0B1E09B1621F4A6
:1031100082E793E00E94F31F12B8E1E0E1B9F2E028
:10312000FBB9FAB980E00E946E1B5C0122E021B974
:1031300030E13BB93AB981E00E946E1B6C0184E03A
:1031400081B990E49BB99AB982E00E946E1B9D8B75
:103150008C8BC5018C0D9D1D280E391EAC89BD8937
:103160002A0E3B1EB985BD5FB987A9C0E1E09E1656
:1031700021F486E793E00E94F31F1BB8F1E0F2B957
:10318000F1B922E02AB9A0909E01B0909F0180E0A1
:103190000E946E1BA81AB90A32E032B931B980E137
:1031A0008AB9C0909E01D0909F0181E00E946E1B61
:1031B000C81AD90A94E092B991B9A0E4AAB9E091E9
:1031C0009E01F0919F01FD8BEC8B82E00E946E1BB3
:1031D0002C893D89281B390B3D8B2C8BC5018C0D0F
:1031E0009D1DAE81BF81A80FB91FA20FB31FBF8362
:1031F000AE83B885BD5FB88762C0E1E09E1641F43A
:103200008DE893E00E94212084E893E00E94F31F60
:1032100081E060E040E00E94952780914B01843F6F
:1032200089F48091500190915101A0915201B09187
:10323000530185369105A105B10520F45C01480EC6
:10324000591E739482E060E041E00E9495278091CE
:103250005901843FA9F480915E0190915F01A09192
:103260006001B091610185369105A105B10540F479
:103270006C012A893B89280F391F3B8B2A8B739459
:1032800082E061E042E00E94952780916701843FDF
:10329000B1F480916C0190916D01A0916E01B0919B
:1032A0006F0185369105A105B10548F49D8B8C8B86
:1032B000A889B989A80FB91FB98BA88B739481E02D
:1032C00011B812B81AB81BB88823B9F00E94992017
:1032D000B50180E090E00E947B1F0E94AC1FB60108
:1032E00080E090E00E947B1F0E94AC1FEC89FD896A
:1032F000BF0180E090E00E947B1FF4E69F1681F002
:1033000088EE93E060E10E940713882349F0823041
:1033100029F454E6952E44E6842E02C034E6932E1A
:10332000939425E0291508F043CE839436E03815B0
:1033300008F030CE8FE0781611F0552419C0C20184
:1033400065E070E00E9430476093DC018A899B89C8
:1033500065E070E00E9430476093DD0188899989BB
:1033600065E070E00E9430476093DE01552453947D
:103370009FE06916F9F48E859F8565E070E00E94F4
:1033800030477093D7016093D6018C859D8565E0A9
:1033900070E00E9430477093D9016093D8018A850C
:1033A0009B8565E070E00E9430477093DB0160937D
:1033B000DA015394A985AF3009F06FC0B885BF30EA
:1033C00009F06BC0C10165E070E00E9430478B01DD
:1033D0008E819F8165E070E00E9430476B014091D3
:1033E0009E0150919F01CA01880F991F840F951F5C
:1033F000801B910B861B970B4C01AA24BB2420E059
:1034000030E0C901B80120EA39E041E050E00E9413
:10341000F846A50194010E945747B901CA016B5FA4
:103420007F4F8F4F9F4F2AE030E040E050E00E94F6
:103430005747C901DA018A3F9105A105B10528F472
:103440003093D3012093D2015394B60180E090E0F1
:1034500020EA39E041E050E00E94F846A5019401DD
:103460000E945747B901CA016B5F7F4F8F4F9F4F33
:103470002AE030E040E050E00E945747C901DA01FD
:103480008831E1E09E07E0E0AE07E0E0BE0728F407
:103490003093D5012093D4015394FD81F53009F088
:1034A000552469817A818B819C8125E030E040E060
:1034B00050E00E947947C901DA01B7FF03C04424F4
:1034C0004A9402C0442443949C0197FF03C0309562
:1034D00021953F4F79010027F7FC0095102FC80177
:1034E000B70124E630E040E050E00E9479475901FE
:1034F0006A01C601B50124E630E040E050E00E94D8
:10350000F8463B014C01DC01CB01C296A11DB11D67
:103510008E159F05A007B1075CF40894A11CB11C8F
:10352000C11CD11CC601B5010E94F8463B014C01EB
:10353000242D332727FD3095432F532FC401B3018A
:103540000E94F8466093E2017093E3018093E401E6
:103550009093E5010E94CD400E94EC4224E0521677
:1035600011F080E006C00E94F21682E00E946B1506
:1035700081E06596E2E10C94B0471F93CF93DF930F
:10358000182F623019F4C5E1D0E002C0C0E0D0E0ED
:103590000E94E4168093E601123041F482ED91E03E
:1035A000BE0145E150E00E941C4822C082ED91E03E
:1035B000BE0145E150E00E940C480E94E416909143
:1035C000E6019923A9F0981799F00E94934682E0AA
:1035D0000E94CB1E88E791E00E9401208CE691E0DA
:1035E0000E940B2180ED97E00E945C160E94AE16AF
:1035F000DF91CF911F910895FF920F931F93182F82
:103600001F71106410937C00012F007C80919B013E
:10361000081721F00E94E94600939B0180917A00EF
:10362000806480937A0080917A0086FDFCCFF090D0
:10363000990170919A0160E020E030E040E050E0B4
:1036400021C080917A00806480937A0080917A0012
:1036500086FDFCCF8091780090917900A0E0B0E0E9
:10366000280F391F4A1F5B1F643059F484E0203053
:10367000380738F4003829F0713019F41F731068D6
:10368000C1CF6F5F6F15E8F2003829F460919C019B
:1036900070919D0104C060919E0170919F0180E036
:1036A00090E00E94F8462AE0969587957795679571
:1036B0002A95D1F72F2D30E040E050E00E94574787
:1036C000C9011F910F91FF9008951F93182F0E9419
:1036D000DE46812F0E94FC1A1F9108951F93182F18
:1036E0000E94E046812F0E94FC1A1F910895CF93FB
:1036F000DF938093C0016093C1014093C201A82F62
:10370000B0E081EA94E0FC01EA0FFB1FE491E09352
:10371000C601262F30E0FC01E20FF31FE491E09395
:10372000C70150E0840F951FFC0184918093C8016C
:1037300084EA94E0FC01EA0FFB1FE491E093C901E5
:10374000FC01E20FF31FE491E093CA01840F951F7F
:10375000FC0184918093CB0187EA94E0FC01EA0F9D
:10376000FB1FE491E093CC01FC01E20FF31FE49115
:10377000E093CD01840F951FFC0184918093CE01CD
:10378000CAEAD4E0AC0FBD1FFD0184918093CF0144
:103790002C0F3D1FF90164916093D001C40FD51F18
:1037A000FE0184918093D101DF91CF91089543E090
:1037B000481B461B0E94771B08958091C3016091AE
:1037C000C4014091C5010E94771B08958091C001FA
:1037D0008093C3018091C1018093C4018091C20193
:1037E0008093C5010895EF92FF920F931F93CF939B
:1037F000DF93AC01613049F4E0E4F4E088EE93E05B
:10380000C2E3D0E027E030E018C0623049F4E4EED3
:10381000F3E08CE291E0C9E1D0E02CE230E00DC0B1
:10382000633019F020E030E045C0E2E5F4E088ECD8
:1038300090E0C9E1D0E02EE130E04817590718F4D4
:1038400000E010E003C08A01081B190BC801BE018B
:103850000E943047862F90E02817390708F4622F1E
:10386000862F90E0880F991F8E0F9F1FFC012591D6
:1038700034910296FC01E590F4902E193F09C8019D
:10388000BE010E943047AE01481B842F90E0FC012E
:103890002E9FC0012F9F900D3E9F900D11249E01E1
:1038A00036952795820F931FBE010E9430479B01DA
:1038B0002E0D3F1DC901CDB7DEB7E6E00C94BC4725
:1038C000909107019923E1F08091060180FD18C0D5
:1038D00081FD04C0809104018E3190F49093040125
:1038E000809136018093A501809137018093A601D4
:1038F000809138018093A70180910E0180930D0182
:1039000008951F93182F60FF03C08BB1812B03C054
:103910009BB1809589238BB98AB1812B8AB963FFCA
:1039200003C00E94E44602C00E94DF468AB1912F84
:10393000909589238AB98BB198239BB91F910895DB
:10394000CF93DF93982F80910401813009F4BEC09A
:10395000A895892F0E94771B1BB88091C7018AB94F
:103960008091CC0181B982B98091C80160E10E9447
:10397000811C8091D0010E946E1BEC018091C801D6
:103980009091C701892B8AB98091D0010E946E1B4A
:103990009C018091C7018AB92C173D0720F425307E
:1039A000310508F4E90123E0C13DD20708F1809117
:1039B000C80161E10E94811C8091D0010E946E1BB0
:1039C000EC018091C8018BB99091C701892B8AB90C
:1039D0008091D0010E946E1B9C011BB88091C70191
:1039E0008AB92C173D0720F42530310508F4E90188
:1039F000C031D10538F080910601882319F4CE0139
:103A00000E94FC2B83E0C13DD80708F042C08091A2
:103A100006018823D9F48091C7018AB91BB8809127
:103A2000CC0181B982B90E94E0468091C801909191
:103A3000C701892B8AB98091D0010E946E1B8F55D6
:103A40009D4020F082E0BE010E94482E8091060138
:103A5000882339F58091CD0181B912B88091C801D0
:103A60009091C601892B8AB98BB98091CF010E94B0
:103A70006E1B80549640A8F40E945A2B882389F428
:103A800080910401813269F081E0BE010E94482EDC
:103A900008C080910601882311F40E94DD290E944C
:103AA0002A3080910401882311F08A3019F40E9491
:103AB000F72108C08F3131F48091050184FF02C0E5
:103AC0000E94C22911B812B81AB81BB8DF91CF9161
:103AD0000895CF93DF930E94D71B11B88091C60140
:103AE0008BB99091C701892B8AB98091CF010E942F
:103AF0006E1BEC018091D0010E94FC1A20919E0166
:103B000030919F0136952795B9016E5170406C1721
:103B10007D0778F4A901425E5F4FC417D50748F4CA
:103B20006817790730F420E08417950718F421E02E
:103B300001C020E01AB8822FDF91CF9108950F9332
:103B40001F9380E061E00E94691D082F80E062E021
:103B50000E94691D182F81E062E00E94691D100F0C
:103B6000810F1F910F9108956F927F928F929F9274
:103B7000BF92CF92DF92EF92FF920F931F93DF934A
:103B8000CF9300D000D000D0CDB7DEB711B812B8B7
:103B90001BB88AEF8AB980E00E94FC1A9A83898355
:103BA00081E00E94FC1A9C838B8382E00E94FC1AB5
:103BB0009E838D83FF24F39408E2E02E12E0D12E41
:103BC000CC243E010894611C711CB1E08B2E912C19
:103BD000D39483E0D81609F4DD240D2D10E08C2D4C
:103BE00090E00D2C02C0959587950A94E2F780FD30
:103BF00070C0F801E655FB4FB4908B2D0E94FC1A63
:103C00009C01F801EE0FFF1FE60DF71D80819181E9
:103C10002817390770F4318320838E2D90E08F1997
:103C20009109449784F4EAEEEE1568F0F4E1EF0EA2
:103C30000AC02A30310528F488E2E81611F470E54C
:103C4000E72EF39402C0FF24F3942330310548F4A7
:103C5000C401002E02C0880F991F0A94E2F7C82AF7
:103C60000AC02052334038F481B1F801E955FB4FC6
:103C7000E491E82BE1B9F7E0CF1671F1EF1420F5EC
:103C800081E08093040180930501D0920A01F8013C
:103C9000E955FB4FE49181B1E095E823E1B9F801E2
:103CA000EC55FB4F24910F551B4FF80184919AB1AD
:103CB000822B809589238AB98B2D0E94FC1A9093C0
:103CC0000C0180930B0108C0A89582E390E00E944C
:103CD0005C16FF2009F07CCF1AB811B826960FB6F3
:103CE000F894DEBF0FBECDBFCF91DF911F910F9132
:103CF000FF90EF90DF90CF90BF909F908F907F903C
:103D00006F900895EF92FF920F931F93E82EF62E77
:103D100011B812B81AB81BB80E94D71B8091CC01F9
:103D200081B98091D0010E94FC1A8C018091CD0153
:103D300081B98091CF010E94FC1A0817190720F45D
:103D40008F2D6E2D0E94D71B8091CC0181B980915F
:103D5000C7018AB901E08091D0010E94FC1A9C0140
:103D600081E02039380740F481B19091CD01892B51
:103D700081B92832310540F00F5F033329F084E622
:103D800090E00E945C16E7CF11B81AB81F910F910E
:103D9000FF90EF90089560912801861710F061E080
:103DA00003C0681B66956F5F81E00E9445460895D9
:103DB0009F92AF92BF92CF92DF92EF92FF920F93BA
:103DC0001F936B017C01042F922E15C085E090E0BB
:103DD000A0E0B0E0C80ED91EEA1EFB1EC701B60166
:103DE0002AE030E040E050E00E945747C901DA0184
:103DF0006C017D010F5F90E1C91697E2D90690E052
:103E0000E90690E0F90610F7013F1CF4AA24BB2450
:103E100023C0202F215F822F63E00E942347E82FD9
:103E2000822F63E00E942347B92E992349F4A8EE1C
:103E3000CA16A3E0DA06A0E0EA06A0E0FA0620F03F
:103E4000EF5F83E08B19B82EE83010F0AA2404C08D
:103E5000F0E0E452FC4FA4900DE311E0C601B8017C
:103E60004AE050E00E94F647F80101900020E9F78F
:103E70008F01015010400D531140E02E0B19101608
:103E80005CF080E30E94F1458EE20E94F145002340
:103E900019F080E30E94F145BB2009F40FEF0150B7
:103EA000FF24C02EDD24C7FCD0940FC00F2D10E0DE
:103EB000F801E35CFE4F80810E94F1450C151D0561
:103EC00019F48EE20E94F145F394FE1478F3AA20CF
:103ED00019F08A2D0E94F145992019F0892D0E9430
:103EE000F1451F910F91FF90EF90DF90CF90BF9021
:103EF000AF909F90089540E020E00E94D81E089562
:103F00008AE30E94F14508958DE20E94F1450895EB
:103F1000CF92DF92EF92FF920F931F937B018C0160
:103F2000D42EC22E97FF0BC08DE20E94F145109552
:103F30000095F094E094E11CF11C011D111DC801D5
:103F4000B7014D2D2C2D0E94D81E1F910F91FF906F
:103F5000EF90DF90CF90089580E20E94F1450895A0
:103F60000E9461090E94F14508958F5C0E94F1450D
:103F700008951F93182FE0910D0183E0E89FE02D35
:103F80001124F0E0E35BFD4EE60FF11D84918823E0
:103F900041F120912D01215060912E01982F94FF25
:103FA00004C080912C018695680F91FF04C0809118
:103FB0002B018F5F280F92FF04C080912C0181504C
:103FC000680F822F0E944546812F0E946109883721
:103FD00021F4812F0E94B01F04C0812F8F5C0E94AA
:103FE000F1451F910895CF93DF93EC0103C00E9428
:103FF000F1452196FE0184918823C9F7DF91CF9185
:1040000008950F931F93182F092FFC0101C03196BB
:104010009E2F911B84918823D1F7809127018917C6
:1040200010F481E003C0891B86958F5F60912601A3
:104030000E944546812F902F0E94F31F1F910F91E0
:1040400008950E94F31F80E20E94F1450895DF92D7
:10405000EF92FF920F931F93F42ED22E0DE311E0F7
:10406000A8012AE030E00E94D147F8010190002029
:10407000E9F78F01015010400D531140E02EFF2051
:1040800011F404E60DC00F1530F00F1911F0FF24E4
:1040900007C0FF2401C0F01A80E30E94F14500E050
:1040A00010E014C0101751F48EE20E94F14504C0D4
:1040B00080E30E94F145FA94FF20D1F7E12FF0E070
:1040C000E35CFE4F80810E94F1451F5F1E1550F397
:1040D000DD2019F08D2D0E94F1451F910F91FF9069
:1040E000EF90DF90089583E00E946A4681E063E0EC
:1040F0000E944546089582E00E946A4681E062E09F
:104100000E94454608951F93109126018091280131
:10411000181769F40E94DB15812F0E946A4681E01E
:10412000612F0E94454684EF91E00E945C161F912A
:1041300008951F9390912401609126018091280198
:104140006817B1F4192F90FF02C00E94DB1511FF10
:104150000CC01091280104C0812F0E946A461150A2
:104160001230D0F781E062E005C00E94934604C09F
:104170006F5F81E00E9445461F9108951F93382F7D
:1041800090912C0120912801892F8F5F281798F199
:1041900040912701403118F0930F921738F0209387
:1041A00026010E94992032E083E004C080912B0117
:1041B000481B842F80932D0130932E0110912601EE
:1041C0008091A50160E00E94B91F8091A60161E085
:1041D0000E94B91F8091A70162E00E94B91F8091DF
:1041E0002D0160912E010E94454680910D010E9493
:1041F000C245109326011F9108950F931F938C01C0
:104200000E949920C8010E94F31F80E20E94F1459C
:104210001F910F9108950F931F938C010E94992075
:10422000C8010E9401201F910F9108950F931F93C1
:104230008C010E949920C8010E94F31F1F910F91C9
:104240000895A0E0B0E0E7E2F1E20C949747582E21
:104250000E94B41D80910401813019F400E010E047
:10426000B2C012B88091CD0181B98091C6018BB9DD
:104270008AB90E94DF4661E0662477244301862FD5
:1042800090E0EC01C170D07060FF03C08091CF015D
:1042900002C08091D001A895806880937C000E9424
:1042A000E94680917A00806480937A0080917A0058
:1042B00086FDFCCFAA24EE24FF24870180917A009A
:1042C000806480937A0080917A0086FDFCCF809193
:1042D000780090917900A0E0B0E0E80EF91E0A1F86
:1042E0001B1F0E94E646A39484E6A81639F7209186
:1042F0009C0130919D0140E050E0C801B7010E944F
:10430000F8467B018C019AE016950795F794E7949F
:104310009A95D1F762E0CD2B09F45BC0C701D801B3
:104320003C014D01ACCF60919E0170919F0180E0F6
:1043300090E024E630E040E050E00E94F846661944
:104340007709880999090E94F8465B016C016E188B
:104350007F08800A910AC401B30128EE33E040E0EF
:1043600050E00E94F8467B018C012091D4013091ED
:10437000D5012057354E40E050E0C601B5010E94FE
:104380005747C801B7010E945747890181E0581675
:10439000B9F48091C0016091C1010E94AB16E82F71
:1043A000F0E0EE0FFF1FEA52FE4F0190F081E02D8A
:1043B000E017F10718F40E1B1F0B02C000E010E01D
:1043C00080E880939B01C801CDB7DEB7EFE00C9485
:1043D000B3471BB88091CC019091CD01892B81B955
:1043E000E614F7040805190508F49DCFE7CFA0E00F
:1043F000B0E0EDEFF1E20C949547A89512B88091EA
:10440000CD0181B98091C6018AB98BB98091D00163
:104410000E946E1B7C018091CF010E94FC1A4C010E
:104420001BB88091C9018AB98091CF010E946E1B8F
:10443000459708F025C28091C9018BB98091CF01C1
:104440000E946E1B2C018091CC0181B982B91BB8EE
:104450008091C7018AB98091CF010E946E1B8C01A7
:104460008091D0010E94FC1A3C018091CA018AB956
:104470008091D0010E946E1BEC0120E3821621E1A5
:10448000920628F482E64816510408F0F9C12CE699
:10449000421623E1520608F0F3C189EA6816710456
:1044A00008F06EC0C632D10508F4EAC1B20180E05E
:1044B00090E020EF3BE247E050E00E94F846E090B9
:1044C0009E01F0909F0197012419350940E050E0CA
:1044D0000E94574759016A01EC1AFD0A00E010E0FA
:1044E000C801B70120EF3BE247E050E00E94F846E8
:1044F0009E0140E050E00E945747B901CA012EEDED
:10450000421623E0520670F442E0AA0CBB1CCC1CFD
:10451000DD1C4A95D1F7A60EB71EC81ED91EC601CE
:10452000B5010EC0CE5DD340B0F432E0660F771F08
:10453000881F991F3A95D1F76A0D7B1D8C1D9D1D13
:1045400025E030E040E050E00E945747C901DA0121
:10455000BC01CD0108C06A0D7B1D8C1D9D1D96956B
:10456000879577956795625A7E4F8F4F9F4F2AE0C8
:1045700030E040E050E00E94F8463B014C01A0C012
:104580008E149F0408F490C00615170508F48CC01B
:10459000C0919E01D0919F018C169D0619F408943C
:1045A000810891082091D4013091D5012057354ED2
:1045B00040E050E0B4016E197F0980E090E00E9475
:1045C000F846C819D9099E0140E050E00E945747BB
:1045D00059016A012091D2013091D3012057354E03
:1045E00040E050E006191709B80180E090E00E9411
:1045F000F846930140E050E00E94574779018A0154
:104600008EED881683E0980640F492E0AA0CBB1C5D
:10461000CC1CDD1C9A95D1F715C02EED621623E057
:104620007206B8F588EFE81684E2F80681E008071C
:1046300080E0180790F482E0EE0CFF1C001F111FB1
:104640008A95D1F7AE0CBF1CC01ED11EC601B501A4
:1046500025E030E040E050E015C0C801B701B3E00C
:10466000660F771F881F991FBA95D1F76E0D7F1DB2
:10467000801F911F6A0D7B1D8C1D9D1D2AE030E05F
:1046800040E050E00E945747C901DA013C014D016A
:1046900017C0350146016E0C7F1C801E911E96943A
:1046A0008794779467940CC02FE8621622E1720613
:1046B00008F4E2C0FAE06F2E712C812C912C06C018
:1046C00084E6681671048104910478F581E00E9403
:1046D00021217C0100E010E0C401B301660F771FC7
:1046E000881F991F25E0621671048104910420F44B
:1046F000660D771D881D991D2AE030E040E050E0EE
:104700000E94F846611571058105910521F464E662
:1047100070E080E090E0E616F7060807190728F435
:10472000370148015EEF552E02C055245A9420E00F
:1047300047E0342E3AE0432E81C0239DE00111244E
:10474000C15FDE4F98818091C001981709F073C056
:1047500099818091C101981709F06DC0C401B3011E
:10476000452D02E010E020E030E0EE240E94DF1151
:104770008F3F91F56B817C818D819E814A8102E022
:1047800010E020E030E00E94DF118F3FF1F44A8119
:10479000451519F0FF24FA9402C0FF24F3946B81AD
:1047A0007C818D819E8194018301E52C0E94DF1123
:1047B0008F1531F46B807C808D809E805A8005C07F
:1047C0006B827C828D829E825A8264015301D694D0
:1047D000C794B794A7940CC0C401B30124E130E09E
:1047E00040E050E00E945747C901DA015C016D01C9
:1047F0006B817C818D819E81940183010A191B0943
:104800002C093D094A81E52C0E94DF1187FD15C066
:104810006B817C818D819E81A60CB71CC81CD91C24
:104820004A81960185010E94DF11181634F04092EA
:10483000040124E603C02F5F01C028EC9091080119
:10484000291708F47ACF2436D9F09330C8F4E7E07A
:104850009E9FF0011124E15FFE4F8091C101808392
:104860008091C001818363827482858296825282A4
:104870009F5F9093080104C066247724430126CFEC
:10488000CDB7DEB7E1E10C94B147EF920F931F93E0
:10489000142F109208010E94D71B0E94F7218091CB
:1048A0000801813011F090E017C01123A1F0612FB1
:1048B00070E080E090E000911201109113012091CE
:1048C00014013091150143E0E09011010E94DF11C5
:1048D00090E0813009F491E0892F1F910F91EF90C2
:1048E0000895982F813110F480E00895915115BCFE
:1048F00082E084BD97BD81E0089516BC81E085BD4E
:10490000A99BFECF15BC82E085BB0895A0E0B0E076
:10491000ECE8F4E20C949E470F983F9A479800E029
:1049200087E00E94FC1A039708F47EC00F5F84E1C1
:1049300090E00E945C16033399F770C086B385FD42
:1049400009C080FFFBCF96BBA89521962FE0C03A07
:10495000D207A1F71092810080E286BB3F98B09BFE
:1049600002C081E086BB87E980937A0080917B005A
:104970008F7B80937B0087E00E94FC1A6C01479834
:104980003F9AC05ADF4008F049C087E00E94FC1AF5
:10499000855D9340D0F73F9810929A0187E00E947E
:1049A000FC1A8C0181E080939A0187E00E94FC1A36
:1049B0007C013F9A9801281B390BC0919C01D09132
:1049C0009D01C90104960997E8F0B901882777FD90
:1049D0008095982F9E0140E050E00E94F846970194
:1049E00040E050E00E9479478091DF01820F809380
:1049F000DF01332727FD3095C20FD31FD0939D01D0
:104A0000C0939C0196012C1B3D0BC901C1968336B6
:104A1000910510F42093E00181E001C080E0CDB762
:104A2000DEB7E8E00C94BA4780E480937B0084E42E
:104A300080BF87E480937C0087E080937A000E94A7
:104A4000E84610928000109281001092850010922A
:104A5000840087E286BB81E080938100479AC0E0B2
:104A6000D0E091E06BCFA0E0B0E0E9E3F5E20C9498
:104A70009F47EC010E94B41D80910401813011F424
:104A800080E0EEC01BB897E091B912B88091C901DF
:104A90008AB980E480937B0084E480BF8091CF0159
:104AA000806480937C0090937A000E94E846109284
:104AB000800010928100109285001092840087E29D
:104AC00086BB4091C9014BB9809104018F3129F413
:104AD0009091CC019095977002C09091CD0181E0AA
:104AE0008093810091B960E070E091E086B3E82F97
:104AF00085FD0AC080FFFACF96BBA8956F5F7F4FF8
:104B00008FE0603A780791F71092810080E286BBCF
:104B100020918600309187001AB88091840090918E
:104B200085002817390730F4E0FF04C081E086BB18
:104B30006F5F7F4F87E980937A0080917B008F7B46
:104B400080937B001BB84AB99FE0603A790710F068
:104B500081E086C040E050E0CB01A0E0B0E08C01F5
:104B6000FF24EE24E22AF32A042B152BA3E0EA16F5
:104B7000F1040105110500F18EEF9FEFAFEFBFEFDC
:104B8000E80EF91E0A1F1B1F98E3E91699E8F906BB
:104B900091E4090790E0190778F0C801B70128EE01
:104BA00033E040E050E00E945747C901DA017C0140
:104BB0008D0197EFD92E02C084EFD82E8091E001AD
:104BC000992787FD909520919C0130919D01820F3E
:104BD000931F61E00E94F31BA0E0B0E0BC01CD0197
:104BE000A80197010E94F84620ED37E040E050E030
:104BF0000E94574779018A01A4EFDA1619F0A8013B
:104C000097011EC08091C0016091C1010E94AB1646
:104C1000E82FF0E0EE52FE4F828590E0A0E0B0E099
:104C2000E816F9060A071B0728F420E030E040E008
:104C300050E006C0A8019701281B390B4A0B5B0BFB
:104C40008091C10188838091C0018983DA82EF82DB
:104C5000F88609871A872B833C834D835E8383E024
:104C6000CDB7DEB7E7E00C94BB47A0E0B0E0EBE3E4
:104C7000F6E20C9496473C0183E0B82EB1E19B2EFE
:104C80000E94B41D80910401813011F4882447C131
:104C900012B88091CD0181B98091C7018BB98AB9D1
:104CA0008091CF010E94FC1A7C018091D0010E946A
:104CB000FC1AE81AF90A1BB81AB8CC24DD240894A7
:104CC000C11CD11C8091C601692D0E94811C80915C
:104CD000CF010E94FC1AE816F9061CF0C0E0D0E0F3
:104CE00003C0EC01CE19DF092EE7C216D10421F46E
:104CF00080E0CB34D10508F081E091E0CC32D907D7
:104D000008F080E0E4EFCE16E1E0DE0609F480E092
:104D1000A8958823A1F6F1E0CC32DF0710F4BB247C
:104D2000B39421E0C216D10461F485E0C531D807FF
:104D300040F0892DA9E09A2E84FDA2CFF2E08F2EBB
:104D4000EEC08B2C93E0B91619F000E010E037C0EC
:104D5000860180E090E00FC08091CF010E94FC1A94
:104D6000E816F9061CF080E090E002C08E199F0959
:104D700001501040A8950115110571F78C179D077A
:104D800018F000E010E007C08E01081B190B053673
:104D9000110508F0BB248091CF010E94FC1A7C0110
:104DA00094FE03C00E94D44602C00E94D94680915E
:104DB000CF010E94FC1A8E159F0520F08B2C4424F5
:104DC000552404C02701481A590A8B2CE3E0BE166B
:104DD00009F0A5C0C8018C0F9D1F62E00E94F31B63
:104DE000A0E0B0E0960140E050E0BC01CD010E949F
:104DF000F8465B016C01C92DD0E08E010071107086
:104E000094FE08C02AE030E040E050E00E94F846FE
:104E10005B016C01F8E3AF16F9E8BF06F1E4CF06D9
:104E2000F0E0DF0618F4E7EF9E2E0EC0C601B501D4
:104E300028EE33E040E050E00E945747C901DA0114
:104E40005C016D017AEF972EC601B50128EE33E0C3
:104E500040E050E00E94F846012B29F022E434E0C3
:104E600040E050E004C020E134E040E050E00E9427
:104E70005747C901DA017C018D018091C101F3011D
:104E800080838091C00181839282A782B086C1868F
:104E9000D286E382F482058316830DC0C801B70170
:104EA0002AE030E040E050E00E945747C901DA01B3
:104EB0007C018D019394F1E0EF16F5E3FF06FCE031
:104EC0000F07F0E01F0750F7C3FD9394920140E0F5
:104ED00050E0C801B7010E94F84628EE33E040E0F8
:104EE00050E00E945747C901DA01BC01CD010BC057
:104EF0002AE030E040E050E00E945747C901DA0163
:104F0000BC01CD019394603020E0720721E082075C
:104F100020E0920768F7F301748763879586882DF0
:104F2000CDB7DEB7E0E10C94B247A0E0B0E0EBE92A
:104F3000F7E20C949C47B82EA62E8EE0489F6001A5
:104F4000112489E491E0C80ED91EF6011082118265
:104F500084EF828317821086118612861382148250
:104F6000158216821486138680910401813009F41B
:104F700061C08A3041F5FF24CFE0D1E01DC09881A7
:104F80009B1519F489818A1529F09A1599F489815C
:104F90008B1581F46B817C818D819E814A810AE031
:104FA00010E020E030E0EE240E94DF118F3F11F48A
:104FB00093E6F92EF394279680910801F816F8F2FB
:104FC000F4E6FF16B9F58B2D6A2D0E94AE29FC017F
:104FD000009729F0828193818C5D954058F18B2D4B
:104FE0006A2D0E94D71BC6010E943526823019F413
:104FF000C6010E943325809104018431A8F4F60192
:1050000092818A3019F49A3F7CF00BC0953F4CF4A2
:10501000F60183819481A581B6810597A105B1052B
:1050200018F08BE0809304010E94B41D11B812B8EF
:105030001AB81BB8CDB7DEB7EAE00C94B847A4E0C5
:10504000B0E0E5E2F8E20C9494479C838B830097F0
:1050500009F449C1FC016381748185819681428193
:105060000AE010E020E030E057EFE52E0E94DF116B
:1050700087FD39C10E94B41D80910401813009F47B
:1050800032C1EB81FC81808161810E94821EEB81B3
:10509000FC81808161810E94D71B4090CF013090BC
:1050A000D001F0E84F2A3F2A15BC82E084BD85E399
:1050B00087BD12B840927C000E94DF4612E3812E29
:1050C000912C60E070E022242A94B1E0AB2EB12C48
:1050D000C12CD12CA1E0EA2EF12C012D112DF7EDE0
:1050E0005F2EA8956233710558F48091CD0181B986
:1050F0008091C6018BB98AB90E94F2461AB81BB8D2
:1051000082E38816910458F48091CC0181B9809192
:10511000C7018BB98AB90E94F2461AB81BB88091B0
:10512000CC0181B98091C6018BB98AB940927C00CB
:1051300050927A0080917A0086FDFCCF50927A00DE
:1051400080917A0086FDFCCFE0917800F0917900A3
:10515000FA83E98330927C0050927A0080917A0041
:1051600086FDFCCF50927A000E94EE460E947D247C
:105170008091C7018BB98AB90E94F2461AB8809112
:105180007A0086FDFCCF8090780090907900809125
:10519000CD0181B98091C7018BB98AB930927C0069
:1051A00050927A0080917A0086FDFCCF50927A006E
:1051B00080917A0086FDFCCF609078007090790035
:1051C00040927C0050927A0080917A0086FDFCCF5C
:1051D00050927A000E94EE460E947D248091C60182
:1051E0008BB98AB90E94F2461AB880917A0086FD7E
:1051F000FCCF6091780070917900C301A0E0B0E02D
:10520000E981FA819F0140E050E0820F931FA41FC3
:10521000B51FA80EB91ECA1EDB1ECB01A0E0B0E070
:10522000940140E050E0820F931FA41FB51FE80EC9
:10523000F91E0A1F1B1F2A9409F053CF11B81BB87F
:10524000AE14BF04C006D10608F045C08091D2015B
:105250009091D3019C01E3E0220F331FEA95E1F71F
:10526000880F991F280F391F40E050E0EA18FB080B
:105270000C091D09C801B7010E94F846A601950155
:105280000E94574789018091C0016091C1010E942D
:10529000AB16E82FF0E0EE0FFF1FEA52FE4F208121
:1052A00031812017310718F4021B130B16C0EB8154
:1052B000FC816381748185819681428108EE13E0CF
:1052C00020E030E05AEFE52E0E94DF1118161CF4A2
:1052D00000E010E002C00FEF1FEF80E880939B0119
:1052E0000E94B41D02C00FEF1FEFC8012496E2E137
:1052F0000C94B047809104018032F1F0813228F49F
:105300008E3141F08F3141F40BC08132E9F08432AB
:1053100018F416C022E411C020E090E080E017C02D
:105320008091050186FD04C027E494E483E50FC065
:1053300027E498E788E70BC027E493E485E407C0F7
:1053400027E491E483E403C027E492E381E320931C
:10535000A8019093A9018093AA010895282F909104
:105360000901E3E7F1E008C08081281719F4818181
:10537000681731F0915036969923B1F7E0E0F0E0EC
:10538000CF0108958091050180FF05C06091A701BC
:105390008091A60104C06091A6018091A7010E949E
:1053A000AE29892B49F010920401109205018091D9
:1053B00006018E7F809306010895EF92FF920F936E
:1053C0001F93CF93DF938091CF010E94FC1AEC01D1
:1053D0008091D0010E94FC1A7C018091D1010E9431
:1053E000FC1A8C0111B88091CC0182B98091CB015B
:1053F0008BB99091C701892B8AB982E390E00E9412
:105400005C168091CC0181B98091D0010E94FC1A78
:105410000A97F8F483E2809307018CE080930E01F1
:105420008091C201809336018091C0018093370141
:105430008091C10180933801CE018E199F0990930C
:105440003A0180933901C01BD10BD0933C01C0932A
:105450003B01CDB7DEB7E6E00C94BC47A0E0B0E07E
:10546000E4E3FAE20C949C47B82E21E08217E1F4C1
:105470008091CC0181B982B99091C8018091C70116
:10548000892B8AB99BB98091D0010E946E1BEC01D7
:1054900000919E0110919F018091D1010E94FC1A00
:1054A0009801281B390B1AC012B88091CD0181B91F
:1054B0008091C6018BB99091C801892B8AB9C0919E
:1054C0009E01D0919F018091CF010E946E1BC81B4D
:1054D000D90B8091D1010E94FC1A9C012115310544
:1054E00011F421E030E0CE01821B930BB9010E9440
:1054F00030476B01EE24FF242031310508F062C0F3
:1055000031E0B316D9F48091CB019091C701982B6B
:105510009AB98BB98091D0010E946E1BEC01009169
:105520009E0110919F018091D1010E94FC1A081BDD
:10553000190BA090D201B090D30119C08091CB017A
:105540009091C601892B8AB9C0919E01D0919F018B
:105550008091CF010E946E1BC81BD90B8091D10195
:105560000E94FC1A8C01A090D401B090D5010115C5
:10557000110511F401E010E0BE0180E090E020EFA1
:105580003BE247E050E00E94F846980140E050E0DE
:105590000E945747CA01B9012AE030E040E050E0DC
:1055A0000E94F84620E93AE1A20EB31E950140E0C0
:1055B00050E00E945747C216D306E406F50610F4E1
:1055C00069017A01B601C701CDB7DEB7EAE00C94F4
:1055D000B847DF92EF92FF920F931F93D82E1BB81C
:1055E0008091C7018AB98091CC0181B982B980913B
:1055F000D0010E946E1BBC018430910550F1809156
:10560000D2019091D3017C0100E010E085E0693780
:10561000780780F091E0D91669F41AB88091CD012D
:105620009091CC01892B81B98091D0010E94FC1A04
:10563000BC0108C080E99AE1A0E0B0E0E80EF91EE4
:105640000A1F1B1F29EFD22E20EA36E841E050E066
:1056500015C08091CA018AB98091D0010E946E1B49
:10566000BC0197EFD92E20E432E44FE050E080EF08
:10567000E82E8BE2F82E87E0082F112D11B812B812
:105680001AB81BB880E090E00E94F846A801970184
:105690000E9457472093B6013093B7014093B80159
:1056A0005093B901D092BA011F910F91FF90EF90E2
:1056B000DF900895A0E0B0E0E0E6FBE20C949E47A6
:1056C0008091D1010E94FC1A7C018091D0010E943E
:1056D000FC1A6C018091C80160E10E94811C8091DC
:1056E000CF010E946E1B8C011BB80E94E046809186
:1056F000C6018BB98091CF010E946E1B26E0003459
:10570000120708F05FC08153914108F45BC01AB8DA
:105710001BB88091CD0182B90E94E0468091C601FC
:105720008AB98091CF010E946E1B853F910508F0D8
:1057300049C08091C80160E10E94811C8091CF0125
:105740000E946E1BEC0182E0CD3DD80760F482E23E
:1057500080930401809106018160809306018AE0B4
:1057600080930D0135C08091C6018BB90E94E0463F
:105770001BB88091CF010E946E1B853F910510F5EB
:1057800080910401813229F4809106018160809327
:10579000060181E2809304018BE080930D018091EA
:1057A000B2019091B3018C179D0720F5CE01A0E0C6
:1057B000B0E08093B2019093B301A093B401B09391
:1057C000B50106C080E0CDB7DEB7E8E00C94BA477B
:1057D0008091C2018093A5018091C0018093A601B0
:1057E0008091C1018093A701EC18FD08F092AD01F2
:1057F000E092AC0181E0E7CFA0E0B0E0E2E0FCE2C3
:105800000C949A478B5E914020F458E2C52ED12C1F
:1058100004C048EEC42E41E0D42E8091CB0190917B
:10582000C701892B8AB98091D0010E94651B7C0138
:105830008091CB018BB98091D0010E94651B4C01F6
:10584000C7018C0D9D1D8815990508F06AC08091CF
:10585000C8018AB98BB912B88091CD0181B9809104
:10586000D1010E94651B11B8C3978958924028F056
:1058700010E086E0E816F10408F411E08091CC0114
:1058800081B98091D1010E94651BEC018091CF010B
:105890000E94FC1A11B88C179D0730F4C81BD90B55
:1058A000C25CD14008F411E08091CD0182B981B988
:1058B0008091CB019091C601892B8AB91BB8809148
:1058C000CF010E94651B5C018091CB018BB9809157
:1058D000CF010E94651BEC0112B88091CD0181B906
:1058E0008091CB019091C601892B8AB98BB98091A7
:1058F000D1010E94651B88549F4028F089E1809364
:10590000050184E006C0112361F489E2809305015A
:1059100086E080930D0184010E191F09CA19DB0965
:1059200077C012B88091CD0181B98091CB0190915F
:10593000C601892B8AB98BB98091CF010E94651B62
:105940008C018091C6018BB98091CF010E94651BAB
:105950007C018C0D9D1D8017910708F009C1C09135
:105960009E01D0919F018091C8018AB91BB8809196
:10597000CC0181B982B98091D1010E94651B12B816
:105980008D5C90418958924028F0BB242C970C17CD
:105990001D0710F0BB24B3940E191F098091CC0190
:1059A00081B98091CB019091C701892B8AB98BB9BC
:1059B0008091D0010E94651BEC018091C7018BB9D9
:1059C0008091D0010E94651BC81BD90BD694C79447
:1059D000CC15DD0518F4CE01E8018C011BB88091CF
:1059E000CC0182B981B98091D1010E94651B815D92
:1059F000934028F48AE18093050185E007C0BB202D
:105A000009F0B6C08AE28093050187E080930D011A
:105A10008FE18093040180910601816080930601EB
:105A20004091C2014093A501C017D10738F480917D
:105A3000C0018093A6018091C10106C08091C1017F
:105A40008093A6018091C0018093A701C80162E301
:105A500070E00E9430479B01C801861B970BC81756
:105A6000D90750F0200F311F2C173D0728F08091E7
:105A700005018064809305018091A6016091A701D2
:105A80000E94771B9091CE018091CD01982B91B906
:105A90002091C6012AB98091050180FF13C012B878
:105AA0002BB900919E0110919F018091CF010E941E
:105AB000651B9801281B390BC901C091D401D091F5
:105AC000D5010AC092B91BB88091CF010E94651B15
:105AD000C091D201D091D301C057D54EBC0180E016
