:100000000C9408090C9425090C9425090C942509D5
:100010000C9425090C9425090C9425090C942509A8
:100020000C9425090C9471160C9425090C9425093F
:100030000C9425090C946E3D0C9425090C9425090B
:100040000C9425090C9425090C94563D0C94250913
:100050000C9425090C9425090C9425090C94250968
:100060000C9425090C9425090C9425090C94250958
:10007000CC15D015D215D615D915DC150816DF15F7
:10008000E2150816E51508160816081608160816CB
:1000900008160816E8150816EB15EE1508160816CA
:1000A0000816F115F4150816081608160816F7159F
:1000B000081608160816FA150816FD150816001673
:1000C00008160316CA150616554C54494D41544599
:1000D0000054455354455221210050726F62696E9D
:1000E000672E2E2E0054696D656F7574004E6F205B
:1000F000636F6D706F6E656E7400666F756E6421F0
:1001000000646F6E65210053656C65637400416423
:100110006A7573746D656E740053617665004C6F1B
:1001200061640053686F772056616C756573005287
:10013000656D6F7665004372656174650053686F25
:10014000727420436972637569742100426174742A
:100150006572793F004572726F722100457869744B
:1001600000436865636B73756D00424A54005343E6
:100170005200547269616300505554004279652100
:1001800000506F776572204D6F6E69746F72004F0B
:10019000555400506F776572004343004F43500041
:1001A00050470053455400494C494D004D494E00BD
:1001B0004D4158004F4E004F46460041626F7574E6
:1001C00000556C74696D6174655465737465720073
:1001D0005F76322E31005765623A00676974687540
:1001E000622E636F6D2F706B313772002F556C74F8
:1001F000696D6174655F54657374657200546573ED
:100200007420436F6D706F6E656E7400487A003CA9
:100210004D656E7520546573743E0050574D005304
:100220007175617265205761766500467265712E41
:1002300020436F756E74657200436F6E74726173E4
:10024000740052204D6F6E69746F720043204D6FC1
:100250006E69746F72004C204D6F6E69746F72001E
:1002600052434C204D6F6E69746F72004F6666008A
:10027000436F6E74696E7569747900466C6173685A
:100280006C696768740050686F746F64696F646547
:10029000006E6F007265760044696F64652F4C458F
:1002A000440076312E35346D004D4F530046455491
:1002B000002D636800656E682E006465702E00492D
:1002C00047425400436773004E504E00504E50005A
:1002D0006846450056626500565F475400496365AD
:1002E0006F00566600430056746800495F5200561E
:1002F0005400567265660052682D0052682B0052F9
:10030000692D0052692B002B526C2D002B52682D49
:10031000003132203133203233004330005230007C
:100320005663630041436F6D700023310023320038
:100330004964737300495F6C0052647300565F47F1
:1003400053286F6666290045535200436265005288
:1003500074005231005232002D032D002D012D006A
:100360002D022D002D06072D0066706E056D006BA9
:100370004DEE59CB52AD4C6047BC42A43E003BBF52
:1003800037D0342932C02F8C2D872BAC29F5275E2E
:1003900026E52485233D220A21EA1FDC1EDD1DED12
:1003A0001C0A1C331B681AA719F01841189B17FD6B
:1003B000166516D5154A15C6144714CD135813E7FC
:1003C000127B121312AE114E11F0100000BA038707
:1003D0000358032E030703E402C302A40288028128
:1003E00011530F940D260CF40AF00911095008A6B8
:1003F000070F0789061006A3053F05E4049104438F
:1004000004FC03B9037A033F030703D1029E026D84
:10041000023E020F02E101B20182014E010F010111
:10042000000800400000010004010203040502105E
:1004300040082080010204000102000000000000CA
:100440000000000000000000000080F8F0E0C08024
:10045000F880000F070301000F0080F880C0E0F073
:10046000F880000F000103070F0080F8F80000F883
:10047000F880000F0F00000F0F00E01008080810B0
:10048000E00019121E001E12190000F8000000E022
:100490002000403F0810081F100080F010101010BE
:1004A00010100007040404040404101010101010AD
:1004B000F08004040404040407000000F80402FEB1
:1004C000020070181710101F700002FE020002FEDA
:1004D0000200101F1010105F300002FE02F002FE3A
:1004E0000200101F101F105F30000000E01008F81D
:1004F000080070181710101F7000804028F828405E
:1005000080000708507F5008070008F8080008F826
:100510000800101F1010105F300008F808C008F81D
:100520000800101F101F105F3000000002050200BD
:1005300000000000000000000000000000000000BB
:1005400000000000000000000000000000FE0000AD
:100550000000000000370000000000160E0000162A
:100560000E0000000000000000000020F82020F82D
:10057000200000020F02020F0200102844FE84082F
:1005800010000304081F08050200182424984020C6
:1005900010000402010C12120C0018A4E2A2128C2A
:1005A00080000708101011120508000000160E0048
:1005B000000000000000000000000000F00804023D
:1005C000000000000304081000000000020408F00E
:1005D0000000000010080403000090A0C0F8C0A0B4
:1005E00090000402010F01020400808080F08080EE
:1005F0008000000000070000000000000000000074
:10060000000000000058380000008080808080805A
:10061000800000000000000000000000000000005A
:1006200000000000001818000000000000804020BA
:1006300010000402010000000000F804020202049D
:10064000F8000708101010080700000804FE020058
:1006500000000010101F1010000018040202824455
:1006600038001814121110101C000E024262528A37
:100670000600060810101008070080403E0000FC2D
:10068000000003020202121F12007E221212122226
:10069000C6000408101010080700F84422121224A3
:1006A000C00007081010100807000E0282C2623254
:1006B0001E0000001F000000000018A4424242A4D7
:1006C00018000708101010080700F804020202843E
:1006D000F800000912121108070000000030300075
:1006E00000000000000C0C00000000000030300092
:1006F00000000000002C1C000000008040201008BA
:100700000400000001020408100000404040404086
:100710004000000202020202020000040810204011
:100720008000001008040201000018040202028484
:1007300078000000003601000000F008A4A4C408FE
:10074000F00007081312110A090000F0080402FE65
:100750000200101F1202121F100002FE424242A4A9
:100760001800101F101010080700F80402020204FD
:100770001E00070810101008060002FE0202020404
:10078000F800101F10101008070002FE4242F2028B
:100790000E00101F101011101C0002FE4242F20247
:1007A0000E00101F101001000000F8040282828465
:1007B0009E000708101108041F0002FE424042FE7E
:1007C0000200101F1000101F1000000202FE0202A3
:1007D00000000010101F1010000000000202FE02B6
:1007E00002000C1010100F00000002FEC2300806BC
:1007F0000200101F10030418100002FE0200000087
:100800000000101F101010101E0002FE32C032FE39
:100810000200101F1001101F100002FE1AE002FE5D
:100820000200101F1000131F1000F804020202043F
:10083000F800070810101008070002FE02020284E8
:100840007800101F110101000000F80402020204E8
:10085000F8000708101012140B1002FE8282824466
:100860003800101F1001021C10001824424242845C
:100870001E0006081010100807000E0202FE0202F9
:100880000E000010101F1010000002FE020002FEF9
:100890000200000F1010100F000002FE020002FE06
:1008A000020000030E180E03000002FE02F002FE1A
:1008B000020000071C0F1C070000021EF240F21E7F
:1008C0000200101F1100111F100002FE820082FEA4
:1008D00002000000111F110000000E0282422212CD
:1008E0000E001E11101010101E0000FE0202020267
:1008F0000000003F20202020000008102040800041
:10090000000000000000000102000002020202FEDE
:10091000000000202020203F0000100804020408EE
:1009200010000000000000000000000000000000B7
:10093000000020202020202020000000000E1600B3
:1009400000000000000000000000009048484890AF
:10095000E0000708101008041F0002FE120808102B
:10096000E000101F081010080700E0100808081029
:1009700038000708101010080600E010080812FEE2
:10098000020007081010081F1000E0908888889067
:10099000E000070810101008040040F84442020468
:1009A0000800101F101000000000E010080810F8E8
:1009B000080003244848443F000002FE201008F0CD
:1009C0000000101F1000101F100000080BFB00009B
:1009D00000000010101F10100000000008080BFBA2
:1009E000000000304040403F000002FE80403008E0
:1009F0001800101F11020408180000000202FE0077
:100A00000000000010101F10100008F808F008F097
:100A10000000101F001F001F100008F8100808F049
:100A20000000101F1000101F1000E0100808081030
:100A3000E000070810101008070008F81008081058
:100A4000E000407F481010080700E010080810F888
:100A5000080007081010487F400008F82010080818
:100A60007000101F100000000000205088888810BF
:100A7000380006081010100906002020FE20200073
:100A8000000000000F1010100C0008F8080008F813
:100A90000800000F1010081F100008F8080008F8E0
:100AA000080000030E180E03000008F808C008F83C
:100AB0000800000F180F180F00000838E080E03819
:100AC0000800101F0100011F100008F8080008F8B6
:100AD000080000274848443F000038080888482894
:100AE00018001C12111010101E0080403804020261
:100AF000000000010E1020200000000000FE000099
:100B000000000000003F0000000000020204384026
:100B10008000002020100E0100000080F0E0C08066
:100B200000000000070301000000FEFEEEE60202E6
:100B3000FEFE1F1F1F171010171FFEE6E27A3A82F3
:100B4000C6FE1F1110161713131FFEF6F2BABA02D3
:100B500046FE1F1B13171710181FFCCC8C3C3C8C37
:100B6000CCFC1F19181E1E18191FF01010101010A1
:100B700010100F08080808080808F010D0D0D0D0CE
:100B8000D0100F080B0B0B0B0B08101010101010CF
:100B900070C00808080808080E03D0D0D0D0D010C4
:100BA00070C00B0B0B0B0B080E0300181818FEFE81
:100BB000FEFC000C0C0C3F3F3F1FFCF8E0808080E7
:100BC00080801F0F030000000000FF0102030405E6
:100BD00006076F707172737475767778FFFFFFFF89
:100BE000FFFFFFFFFFFFFFFFFFFF101112131415A0
:100BF000161718191A1B1C1D1E1F2021222324251D
:100C0000262728292A2B2C2D2E2F3031323334350C
:100C1000363738393A3B3C3D3E3F404142434445FC
:100C2000464748494A4B4C4D4E4F505152535455EC
:100C3000565758595A5B5C5D5E5F606162636465DC
:100C4000666768696A6B6C6D6EFFFFFFFFFFFFFFF1
:100C5000FFFFFFFFFFFFFFFFFFFFFFFFFFFFFFFFA4
:100C6000FFFFFFFFFFFFFFFFFFFFFFFFFFFFFFFF94
:100C7000FFFFFFFFFFFFFFFFFFFF0FFFFFFFFF056E
:100C8000FFFFFFFFFFFFFFFFFFFFFFFFFFFF08FF6B
:100C9000FFFFFFFFFFFFFFFFFFFFFFFFFFFFFFFF64
:100CA00009FFFFFFFFFF0AFFFF0BFFFFFFFF0CFF26
:100CB000FFFFFFFFFFFFFFFFFFFFFFFFFFFFFFFF44
:100CC0000DFFFFFFFFFF0EFFFFFF00000000000011
:100CD000000000E0E00000008040201F007C8282D5
:100CE000820000C848488808080808FFFF1422410D
:100CF00080C00000000000000000001F12120D0064
:100D000000000003030000010101027C007F49494B
:100D10004100000000000000000000E0E0000000D2
:100D2000E0C0A01F00FE9292820000C848488808D8
:100D3000080808FFFF1422418000000000000000A6
:100D40000000001F12120D0000000003030000004D
:100D50000001027C003E4141410000008080000013
:100D600000C0C000E0E040404040407F00FE828282
:100D70007C00001F2028190000FFFF009C9C080831
:100D80001C3E08F800000000000000010101010104
:100D900001010100030301010101017F002649490E
:100DA000320000404040404040C0C000E0E04040D1
:100DB000404040FF004C92926400007C82A264009C
:100DC00000FFFF009C9C08083E1C080F000000006C
:100DD0000000000000000000000101000303010109
:100DE0000101017F007F41413E0000008080000042
:100DF00000C0C000E0E040404040407F00FE8282F2
:100E00007C00001F2028190000FFFF00FFFF0808DA
:100E10001C3E08F800000000000000010101010173
:100E200001010100030301010101017F002649497D
:100E3000320000404040404040C0C000E0E0404040
:100E4000404040FF004C92926400007C82A264000B
:100E500000FFFF00FFFF08083E1C080F0000000015
:100E60000000000000000000000101000303010178
:100E70000101017F007F41413E0000804040800031
:100E800000000000E0E08080808080FF00FE828221
:100E90007C00008F90948C80E0C08080FFFF808079
:100EA0008080808000000000000000000000000042
:100EB00003010000030300000000007F00264949F1
:100EC0003200008080808080C0E08080E0E0808010
:100ED000808080FF004C9292640000F80444C800B7
:100EE00001030000FFFF8080808080800000000000
:100EF00000000000010100000000000003030000EA
:100F00000000007F007F41413E0000000000000023
:100F100000808000E0E000000080403F007C828292
:100F2000820000884848880808FFFF00FFFF14A2DD
:100F3000C1E00000000000000000000F10140C00D1
:100F400000000000030300000000017E007F49490B
:100F5000410000000000000000808000E0E0000090
:100F6000C080403F00FE9292820000884848880876
:100F700008FFFF00FFFF1422418101000000000074
:100F80000000000F10140C0000000000030300001C
:100F90000000017E003E41414100000000000000D1
:100FA000000000000000FF00007C12127C00000026
:100FB000000000F00848D00000C1C3C7CFDFFFDF4A
:100FC000CFC7C3C1000000000000000809090808DD
:100FD0000808080402017F00003C42424200000071
:100FE00000000000000000C0C0C0C0C0C0C0C0FF02
:100FF000C0C0CFC0CFC0C0C00000E01090A0008033
:10100000E0F8FEFFFEF8E080838FBFFFBF8F838094
:101010000000111212111011110905030101017FC5
:1010200001010179010101010000001090901010F0
:10103000101010204080FF00007C12127C00000085
:101040000000000F10140D0000C1C3C7CFDFFFDF89
:10105000CFC7C3C100000000000000000000000076
:101060000000000000007F00003C424242000000FF
:10107000000000404040408000000000E0E0808030
:10108000808080FF003E003E000000FE92928200C1
:1010900005060708FFFF8080808080800000000038
:1010A000000000000000000000000000030300003A
:1010B0000000007F00003E00000000000000000073
:1010C0000000C0C060606060C0C0000000000000A0
:1010D00000000000000000000007070080C0E07072
:1010E000381F0700000000000000000000000000A2
:1010F0000000000073737300000000000000000097
:101100000000000000000000C00000000000FE0021
:101110003E08142200000000000000000000000053
:1011200081C1E1F1F9FDFFFDF9F1E1C187000000A6
:1011300000000000000000000000000000007F0030
:101140007814147800000000000000000000000087
:10115000000000000000FE00000000000000000091
:10116000000000000000003C3CBDBDBDBDBDBDBDDC
:10117000BDBDBDBD3C3C0000000000000000000003
:101180000000000000007F000000000000000000E0
:10119000000000C040408000E020207050505050BF
:1011A00070242E2420FE00000000001714141310D9
:1011B0001F1010FF0101010101FF848484870000DA
:1011C0000000000000000000000000030202020214
:1011D00002232020007F00000000050A0605060A01
:1011E000050A0609060A050A0609060A050A060985
:1011F000060A050A0605060A050A06050A06090A78
:1012000006090A06000000000000000000110A069E
:1012100011241FBECFEFD0E1DEBFCDBF12E0A0E0B2
:10122000B1E0E6EBF5E902C005900D92A830B107F8
:10123000D9F712E0A8E0B2E001C01D92A43FB107C7
:10124000E1F70E94A00F0C94D94A0C940000982F4B
:101250008091AD02981719F48091B00208958091A1
:10126000AE02981719F48091B10208958091B202EC
:10127000089582E00E94FC1D8DEE90E00E94321FD6
:101280008AEF90E00E9475208EE08093150281E045
:101290000E9428208091AB028F5F8093AB0208955B
:1012A000CF93DF9388EC8093A10283E00E942D1AF4
:1012B000EC018B5C9840835F9140C8F46091A6027A
:1012C0007091A70280E090E023EC39E040E050E02C
:1012D0000E948D499E0140E050E00E94EC4930930D
:1012E000A7022093A60280919F02846003C0809190
:1012F0009F028B7F80939F028EE10E942D1A909314
:10130000A5028093A40288EC8093A1028EE10E9442
:101310002D1A2091E702332727FD3095280F391F1A
:101320003093A5022093A40289E18093A102DF916A
:10133000CF9108951F938091A8029091A9022BE06C
:10134000883B920710F48CE005C02CE0843E9207A5
:1013500018F48DE01EE008C08B59904118F48DE020
:101360001FE002C080E111E10E949244812F0E949F
:1013700092440E94DD1E8091A8029091A9026AE029
:1013800070E00E94C54980E090E04EEF26E50E94A3
:10139000091E1F910895FC018181608140E00E9437
:1013A000FF266091540270915502809156029091EF
:1013B00057024091530226E40E94091E08950E949C
:1013C000DD1E80910D0282FF03C085EB92E002C01A
:1013D0008AEB92E00E94241F08950E94DD1E8091F6
:1013E0000D0280FF02C08EE401C080E50E9492449D
:1013F00081EB92E00E94241F08951F93162F0E94F4
:10140000924484E693E00E94241F812F0E9492441C
:101410000E94DD1E60911A0270911B0280911C02D5
:1014200090911D024091190224E00E94091E1F9113
:1014300008950E9412448130B9F40E94A4410E9490
:10144000344585E064E00E94E64486E50E949244CB
:101450008FE891E00E94241F0E94DD1E87EB91E03F
:101460000E94241F0E9476450E94344581E00E941C
:10147000FC1D8CE791E00E94321F0E9476450E947D
:101480003445F89488E10FB6F89480936000109288
:1014900060000FBE459883B7817F846083BF83B7A8
:1014A000816083BF889583B78E7F83BF089586E070
:1014B0000E942D1AA0E0B0E0BC01CD012EEB3FE070
:1014C00040E050E00E948D4928EE33E040E050E0DB
:1014D0000E94EC4980E12B39380718F0245D3E4F1B
:1014E00002C0265F3F4F3093A9022093A80284E6F2
:1014F0008093AA02285B3B4050F40E9434450E942E
:101500009A0988EB9BE00E942E160E94190A089502
:101510001F93162F0E94E11E81E00E949244812FAA
:101520000E94E11E1F9108950F931F93CF93DF93A5
:1015300080910D0280FF05C00091AF021091AE02B4
:1015400004C00091AE021091AF02802F612F0E9463
:101550001829EC01009731F00E94DD1E802F612FC9
:101560000E94880A80910D0282FF3BC08091B602E2
:101570009091B702892B81F087EE92E00E9467205C
:101580006091B6027091B702882777FD8095982FF9
:101590004DEF26E50E94B91E84EC92E00E94672080
:1015A0006091C3027091C4028091C5029091C602FD
:1015B0004091C70226E40E94091E8091B4029091D6
:1015C000B502892B71F089E393E00E946720609156
:1015D000B4027091B50280E090E04EEF24E00E94EA
:1015E000091E209799F00E94032081E00E949244F6
:1015F0000E94DD1E82EE92E00E94521F6A817B8172
:1016000080E090E04DEF26E50E94091EDF91CF912A
:101610001F910F91089580E00E94E61E81E00E94D4
:10162000E61E82E00E94E61E8DE30E94924480E066
:101630000E94E11E81E00E94E11E82E00E94E11E04
:10164000089588E791E00E94241F0E9403200E94D1
:101650000B0B8FEE92E00E94672060914302709125
:10166000440280E090E04DEF26E50E94091E82EEE4
:1016700092E00E946720609141027091420280E0F6
:1016800090E04DEF26E50E94091E089580910C021E
:10169000823219F48EE691E002C082E791E00E9466
:1016A000241F0E9403200E940B0B8091B402909192
:1016B000B502892B71F088ED92E00E94672060915D
:1016C000B4027091B50280E090E04DEF26E50E94F3
:1016D000091E08958FEB92E00E94241F0E94ED09DD
:1016E0000E94DF090E9403200E940B0B0E94940AB3
:1016F0000895EF920F931F93CF93DF93EC016091C6
:10170000BE027091BF028091C0029091C1024091CF
:10171000C2020AE010E020E030E057EFE52E0E9420
:10172000A61187FD10C0CE010E9467206091BE0205
:101730007091BF028091C0029091C1024091C2029B
:1017400021E40E94091EDF91CF911F910F91EF902C
:10175000089580910D0284FF05C089EA92E00E94FD
:10176000241F03C08AE40E9492448DEA92E00E9402
:10177000241F0E94ED0980910D0284FF02C00E9487
:10178000DF090E9403200E940B0B0E94940A8091A3
:101790000D0283FF1EC080E393E00E94790B8091CD
:1017A000B8029091B902892BA1F08DE393E00E94D9
:1017B00067200E9403200E94DD1E6091B802709194
:1017C000B902882777FD8095982F4DEF26E50E9476
:1017D000B91E0895EF92FF920F931F93CF93DF935B
:1017E00080910D0280FF0AC0C8ECD2E0E090AD020B
:1017F000F090AF020091AE021F2D09C0CCECD2E0F8
:10180000E090AF02F090AD021091AE020E2D8AE68C
:1018100091E00E94521FCE010E94241F80910D0270
:1018200082FF03C08BE20E9492440E9403200E9428
:101830000B0B812F602F0E941829892B31F00E94F9
:10184000DD1E812F602F0E94880A8F2D6E2D49E1A9
:101850000E94AF23813049F40E94032082E465E4B2
:101860000E94FD0984E08093320280ED92E00E94A4
:1018700067206091BA027091BB028091BC02909186
:10188000BD020E94AC1E0E94DD1E8091B30280FF4B
:1018900002C085E603C081FF03C083E60E94924434
:1018A0008E2D6F2D0E941829EC01009781F184ED97
:1018B00092E00E9467202A813B81EC81FD81E090CB
:1018C000BA02F090BB020091BC021091BD0244E646
:1018D000E416F1040105110598F0C9018E1B9F0B58
:1018E00063E070E00E94D9494AEFE416F104010573
:1018F000110518F4261B370B03C09B012E0F3F1F49
:10190000B90180E090E04DEF26E50E94091E8DEDC3
:1019100092E00E94790B8BE493E00E946720609133
:10192000C3027091C4028091C5029091C602409199
:10193000C70226E40E94091ECDB7DEB7E6E00C948C
:10194000514AA1E0B0E0E7EAFCE00C94314A809112
:101950001102813059F4F0907C026BE7A62E62E010
:10196000B62E00E010E055E0E52E1EC1823039F5BC
:1019700010917B02D09081021D1549F4C0907C0229
:10198000D090820281E0898345E0F42E52C0F0902D
:101990007C0280918202F81659F4C12E3BE7A32EF7
:1019A00032E0B32E85010A5F1F4F25E0E22E00C111
:1019B000181709F0EEC0FD1409F0EBC034C08330F5
:1019C00041F520E046E0249F50011124EBE7F2E0CE
:1019D000AE0EBF1E30E0349F8001112405581D4F0C
:1019E000231741F0F5019181F8018081981711F4D6
:1019F00025E035E03F5F333070F32F5F233018F37D
:101A0000253010F400E010E0F501F18093E0E92EBC
:101A1000CBC08CE593E00E94521F80911102805D43
:101A20000E949244C8C0F12E198285E0C82E05E0BC
:101A3000D02E1330A0F480917C020E94E61E80E636
:101A400093E00E94241F812F0E94E61EE12E1BE7D7
:101A5000A12E12E0B12E85010A5F1F4F16C0E12EA4
:101A6000BBE7AB2EB2E0BB2E85010A5F1F4FF5012D
:101A700080810E94E61E8CE593E00E94241F8F2D3A
:101A80000E94E61E0115110599F0EF1441F0F3E0F4
:101A9000FE1528F0F801F1808CE593E004C0F80110
:101AA000F08080E693E00E94241F8F2D0E94E61EA6
:101AB000F4E0FC1500F18C2D6D2D49E10E94AF235F
:101AC0008130C9F40E94DD1E82E08E1518F08CEC86
:101AD00092E002C088EC92E00E94241F8FE30E94F3
:101AE00092440E94032091E3D90E8C2D8F5C6D2DC2
:101AF0000E94FD09198282EE92E00E946720F501A2
:101B00006281738180E090E04DEF26E50E94091E1E
:101B10000E94DD1E0115110501F5F50184819581F5
:101B20008A3F910568F488E20E949244F50164813D
:101B3000758180E090E00E94AC1E89E20E94924490
:101B4000F501818160810E94081B81E00E94532A77
:101B50008BEE92E00E94790B09C0F80162817381DB
:101B600080E090E04DEF26E50E94091EF981F130FA
:101B700011F585EE92E00E946720C5010E94CB0915
:101B800001151105C1F00E94DD1EC8010E94CB099C
:101B900012C0ABE7AA2EA2E0BA2E85010A5F1F4F42
:101BA000F5E0EF2EE5E0FE2E75E0C72E65E0D62EBF
:101BB00081E089835CCF2196EAE00C944D4AEF9254
:101BC0000F931F93CF93DF93609162027091630232
:101BD0008091640290916502009154021091550227
:101BE000209156023091570240916102E0905302D9
:101BF0000E94A611813019F4CFE5D2E002C0C1E500
:101C0000D2E06091700270917102809172029091A5
:101C100073020B811C812D813E8140916F02EA800D
:101C20000E94A611813011F4CDE6D2E088810E9495
:101C3000E61E88E593E00E94241F89810E94E61E2B
:101C40000E9403206B817C818D819E814A8126E4E4
:101C50000E94091ECE010E9489278C018FEF0F3F41
:101C6000180749F00E94DD1EB80180E090E04EEFB9
:101C700024E00E94091E8B859C85892B61F085E3F9
:101C800093E00E9467206B857C8580E090E04D8525
:101C900021E40E94091EDF91CF911F910F91EF90D7
:101CA0000895A0E0B0E0E7E5FEE00C942C4A8091B6
:101CB0001002813049F41091170297E1C92E92E089
:101CC000D92EAA24BB2462C0833041F087E1C82EFC
:101CD00082E0D82E17E0A12EB12C4BC060912102DA
:101CE00070912202809123029091240200911A02A5
:101CF00010911B0220911C0230911D024091200284
:101D0000E09019020E94A611813019F4CEE1D2E0D0
:101D100002C0C7E1D2E0609128027091290280914F
:101D20002A0290912B020B811C812D813E814091D2
:101D30002702EA800E94A611813011F4C5E2D2E0A8
:101D400082E0C731D80731F4B7E0CB2ED12CCC0ECE
:101D5000DD1E04C0A7E1CA2EA2E0DA2EF7E0AF2E06
:101D6000B12CAC0CBD1CAC16BD0629F4EEE0AE2EB9
:101D7000B12CAC0CBD1CF6011081F5018081181747
:101D800029F08181181711F0F6011181F601808187
:101D9000811711F4F60181810E94E61E84E693E02A
:101DA0000E94241F812F0E94E61EA114B10461F03D
:101DB00084E693E00E94241FF5018081811711F4CD
:101DC000F50181810E94E61E0E940320F6016381D5
:101DD000748185819681428124E00E94091EA114AC
:101DE000B10409F472C00E94DD1EF50163817481A3
:101DF00085819681428124E00E94091EF60163815B
:101E0000748185819681F501038114812581368154
:101E1000F6014281F501E2800E943012582EF6014F
:101E200063817481858196814281252D0E940B12E8
:101E30003B014C01F501638174818581968142816A
:101E4000252D0E940B127B018C01E60CF71C081D4E
:101E5000191DE114F1040105110509F44AC08FE4CC
:101E600093E00E946720C801B701452D24E00E943D
:101E7000091E82E593E00E94672074E6A72EB12C2C
:101E8000C12CD12CC401B30124E630E040E050E085
:101E90000E948D49A80197010E94EC4979018A01AD
:101EA000C801B70140E025E20E94091E0E94DD1E24
:101EB00085E593E00E94521FAE18BF08C00AD10A00
:101EC000C601B50140E025E212C0C6010E94A5315D
:101ED000813079F40E94DD1E6091EC027091ED0278
:101EE0008091EE029091EF024091EB0228E40E9473
:101EF000091ECDB7DEB7EFE00C94484A80910D0281
:101F00008130C9F48CE491E00E94241F0E940320D8
:101F1000809112020E94E61E0E94B11E0E94DD1EE8
:101F2000609113027091140280E090E04DEF26E57D
:101F30000E94091E0895823011F40E943909089503
:101F4000EF92FF920F931F93CF93DF9380E287B9B5
:101F500088B90E949A3E0E94BE4180E185BF87E811
:101F600080937A0014B784B7877F84BF88E10FB667
:101F7000F89480936000109260000FBE81E080931F
:101F80009F0282E08093A0020E94813E0E946645EB
:101F900013FF13C00E94344582E00E94FC1D85EEB1
:101FA00090E00E94321F85E591E00E94752080ED4F
:101FB00097E00E942E16459871C180919F0280FF84
:101FC00005C08091A00280628093A0020E944245D9
:101FD00010922C025A98529A5898509A81E061E0D7
:101FE0000E94EE198091E9020E94434482E00E941F
:101FF000FC1D88EC90E00E94321F81ED90E00E9471
:10200000752084EF91E00E942E161092AB0289E1B8
:102010008093A10281E08093A2028093A30284E8CE
:1020200093E19093A7028093A6022FE088E190E0CD
:102030000FB6F894A895809360000FBE20936000BF
:10204000789416E6EE24E39403E022E0F22ECFE04B
:10205000D2E001C015E610920C0210920D0210920F
:102060000E0210920F0210921102109210021092A2
:10207000B3021092B5021092B4021092B7021092FD
:10208000B6021092B9021092B8021092BA021092DF
:10209000BB021092BC021092BD021092BE021092BE
:1020A000BF021092C0021092C1021092420210921E
:1020B0004102109244021092430210923702E092C1
:1020C00039020093320211B8F0922C020E9434457A
:1020D0000E9450090E94570A163609F4CEC00E9489
:1020E000570A0E949A0981E00E94FC1D0E94032069
:1020F00080912F02815080932F028AED90E00E9400
:10210000321F80912F028F5F80932F020E94E51C67
:1021100080910C028130E1F180E061E042E00E94B8
:10212000D11B81E060E042E00E94D11B80E062E0D0
:1021300041E00E94D11B82E060E041E00E94D11B9F
:1021400081E062E040E00E94D11B82E061E040E07B
:102150000E94D11B0E94911B0E94E42880910C02D6
:10216000882311F08A30A1F40E94DD1E83E40E94CE
:10217000924482E060E040E00E94FF2682E061E05D
:1021800041E00E94FF2681E060E042E00E94FF26DD
:102190000E94344500932C02529A5A9A84E190E0AE
:1021A0000E942E165A9880910C028E3111F18F31B7
:1021B00060F48A3069F18B3018F4813079F513C0FE
:1021C0008B3049F1843151F511C08132D9F082321E
:1021D00028F48F3189F0803209F511C0823291F0F4
:1021E0008332E1F412C00E947E0F1AC00E94A10C3B
:1021F00017C00E94EA0B14C00E94A90B11C00E94D4
:102200006A0B0EC00E94460B0BC00E94210B08C037
:102210000E94510E05C00E94DF0D02C00E943909C4
:1022200080910C028E3130F080913202882311F0BF
:102230000E94282080910C028A3010F01092AB028C
:1022400010922C020E94ED1FD0933B02C0933A02E1
:1022500088EB9BE06EE30E94CE12182F882329F4AE
:102260008091AB028530C0F4F6CE833031F08230FD
:1022700099F0853011F0853661F490E003C00E943A
:10228000B115982F892F88568230C8F79836C1F635
:10229000E1CE873609F0DFCE0E94190A80E090E097
:1022A000CDB7DEB7E6E00C94514AAF92BF92CF9221
:1022B000DF92FF920F931F93DF93CF9300D00F9283
:1022C000CDB7DEB789836A834B836E010894C11C46
:1022D000D11C860134E0A32EB12CAC0EBD1E802F84
:1022E0008C19F801F080FF2049F00E94E61E0E9440
:1022F000B11E8F2D0E9492440E94DD1E0F5F1F4F62
:102300000A151B0561F70F900F900F90CF91DF9189
:102310001F910F91FF90DF90CF90BF90AF900895E5
:102320001F9311E00BC02AE030E040E050E00E9433
:10233000EC49C901DA01BC01CD011F5F6A307105AA
:102340008105910580F7812F1F9108956F927F92EB
:102350008F929F92AF92BF92CF92DF92EF92FF92B5
:102360000F931F933B014C01F42E580169010E2D70
:102370000E949011182FC601B5010E94901161149E
:1023800071048104910491F1A114B104C104D10438
:1023900031F1EF2CE10E800F8E1534F1E81669F55E
:1023A0001E2D1F19E01A0BC0C601B5012AE030E04E
:1023B00040E050E00E948D495B016C01E394E1161E
:1023C0009CF30BC0C401B3012AE030E040E050E0D0
:1023D0000E948D493B014C011F5F1E159CF3A61402
:1023E000B704C804D90410F481E008C06A147B045F
:1023F0008C049D0410F080E001C08FEF1F910F91BD
:10240000FF90EF90DF90CF90BF90AF909F908F9014
:102410007F906F9008950F931F93142F022F9B01AD
:10242000AC0117C0101754F4B901CA012AE030E01A
:1024300040E050E00E94EC491F5F0BC0B901CA01A7
:102440002AE030E040E050E00E948D499B01AC0161
:102450001150101739F7B901CA011F910F91089552
:10246000AF92BF92CF92DF92EF92FF920F931F93A2
:10247000F42E580169010E2D0E9490111F2D180F86
:10248000C601B5010E9490118E0D811744F4812F71
:102490008F1985308CF04F2D4450480F10C0982F65
:1024A0009E19181734F495304CF04E2D4450490FB6
:1024B00006C01F19911714F44F2D01C0402F842F0F
:1024C0001F910F91FF90EF90DF90CF90BF90AF9052
:1024D0000895382FE82FF92F01C031969E2F931BB6
:1024E00084918823D1F7892F0895681721F48AE20F
:1024F0000E94924408950E94DD1E089503C00E9428
:102500008045A895369BFBCF84EF91E00E942E1664
:102510000895FF920F931F93F7B087B1877E87B915
:102520000E94864510E000E086B18095887111F424
:1025300020E00EC084FD1F5F83FD0F5F802F810FA1
:102540008A3028F48EE190E00E942E16EDCF22E032
:10255000112311F094E001C090E0002321F09430A9
:10256000D9F496E002C0992389F080913702981738
:1025700041F4223031F480913902873018F48F5FB2
:1025800001C081E08093390280933802F7B8892F27
:102590001F910F91FF90089595E0E7CFA0E0B0E084
:1025A000E4EDF2E10C942B4A5C01162F81E080935C
:1025B00038028091A00285FF04C068E7C62ED12CA6
:1025C00002C0CC24DD2412FF08C080919F0280FF4E
:1025D00003C0AA24BB2401C01C7F15FF21C0209189
:1025E0003A02822F90913B02FC0101C031969E2F4E
:1025F000921B84918823D1F7915080912F029817D4
:1026000078F4E82EE91A1C7F8E2D609130020E942A
:10261000E64480913A0290913B020E94241F01C03F
:10262000EE24C12FD0E053E0852E912C8C229D22E8
:102630008114910409F494C081E00E94FC4490C08C
:10264000A114B10451F086E0A816B10410F400E022
:1026500004C08BEF9FEFA80EB91E36993AC082E3F3
:1026600090E00E942E1610E009C0369909C01F5F45
:102670001B3130F48AE090E00E942E160023A9F767
:102680001B3118F042E0F42E22C0209719F4FF24E9
:10269000F3941DC082E390E00E942E16FF24F39471
:1026A00014E136990DC08EE190E00E942E16369905
:1026B00007C088EC90E00E942E1633E0F32E11E064
:1026C00011508AE090E00E942E16112351F700E08D
:1026D0003DC00E948912882311F0F82E54C085E075
:1026E00090E00E942E161F5F812F64E10E94AC498A
:1026F000992369F48091AA02823020F0815080935E
:10270000AA0205C06114710411F00E94570A143620
:10271000E9F44114510459F0013029F480E00E9499
:10272000FC4402E004C081E00E94FC4401E0C114CA
:10273000D10459F092E0C916D10420F427E6F22E14
:1027400000E003C00894C108D10810E08091A00205
:1027500080FF16C08091A0028E7F8093A00213C0DC
:10276000FF2401E010E092E0492E512C4C225D2222
:1027700080E1682E712C6C227D22C870D07060CFF1
:10278000002309F05DCF8114910419F080E00E94CC
:10279000FC44EE2041F08E2D609130020E94E64410
:1027A00080E00E940B45F092370287E6F81611F49C
:1027B0000E94190A8F2DCDB7DEB7E0E10C94474A8D
:1027C000A0E0B0E0E6EEF3E10C942A4A362E3A019E
:1027D0004901D0903002DA94FF24EE2402E04D2C1F
:1027E0004A94B82EC82ECA94A82EAD18502E5D1843
:1027F00081E0D81611F40F5FEF2CCE2DD0E0CC0F76
:10280000DD1FC60DD71D10E02CC0612F6E5F81E06B
:102810000E94E64481E0D81629F0812F8E0D6F2D9D
:102820000E9475120230C0F081E0381629F48881C8
:1028300099810E94241F07C0FE016591749180E078
:1028400090E00E94AC1E8114910419F0C4010E9412
:10285000241F80E00E940B451F5FC11608F41D2D48
:1028600022961D1590F281E0D81649F480912F022E
:10287000609130020E94E6448CE30E94924480E022
:1028800090E060E10E94CE12813011F41F2D3FC014
:10289000843019F41F2D01E01DC0853019F01F2D63
:1028A00001E033C0FF2039F4CD1408F444C0EA2C11
:1028B0001C2D02E03EC01F2D11501E15E9F5EE2023
:1028C000D9F1FD1410F4EE2401C0E50C81E0F816F6
:1028D000D1F402E01C1531F41D1508F00F5F10E073
:1028E000EE2427C0912F9F5F842D8E0D981701F540
:1028F0009C15F0F48B2D891B8D1510F0E12E01C075
:10290000EA2C0F5F15C08F2D02E0823061F40E9427
:10291000344584EF91E00E942E16812FCDB7DEB7AB
:10292000E1E10C94464A873621F40E94190A01C05D
:10293000192FF12E5DCF1C2D01E0FBCFA5E4B0E0F7
:10294000E4EAF4E10C94394A81E891E0998F888FA8
:102950008BE289838DEF91E09B8F8A8F8CE28A8353
:1029600082E492E09D8F8C8F86E18B8380E792E0FA
:102970009F8F8E8F81E28C838BE792E099A388A34F
:1029800085E28D838BE192E09BA38AA386E08E8310
:102990008FE192E09DA38CA387E08F8387E493E08F
:1029A0009FA38EA389E088878CE492E099A788A7EB
:1029B00087E1898786E592E09BA78AA78BE18A87D2
:1029C00080E692E09DA78CA78CE18B878BE292E05A
:1029D0009FA78EA78AE08C8786E892E099AB88ABA8
:1029E00087E28D8788E992E09BAB8AAB89E28E878C
:1029F0008EE091E09DAB8CAB82E08F8789E392E023
:102A00009FAB8EAB8CE0888B89E191E099AF88AF6A
:102A100083E0898B8EE191E09BAF8AAF84E08A8B63
:102A200083E291E09DAF8CAF85E08B8B8BEB91E0E7
:102A30009FAF8EAF8DE28C8B8CE692E0FE01E05C66
:102A4000FF4F9183808384E18D8B0E9434450E94E7
:102A50009A0985E161E0AE01485E5F4F20E030E019
:102A60000E94E013FE01E80FF11D8181CB5BDF4F77
:102A7000E2E00C94554AA9E0B0E0E1E4F5E10C9401
:102A8000384A182F8AE293E09D838C838DE293E08D
:102A90009F838E838CE591E0998788870E943445D7
:102AA000123019F489E191E002C08EE191E00E94B8
:102AB000241F83E061E0AE014C5F5F4F20E030E017
:102AC0000E94E01391E0998392E09A831B82FE01B9
:102AD000E80FF11D6181662319F0812F0E94EE1924
:102AE0002996E3E00C94544A0F931F93CF93DF93FE
:102AF000082F882321F4CFE2D1E010E003C0C6E321
:102B0000D1E013E00E94D01C8117A1F00E9434454F
:102B100082E00E94FC1DCE010E94321F8DE391E0F5
:102B20000E9475200E94D01C811731F488EC90E03F
:102B30000E942E1681E00AC084E690E060E10E94C7
:102B4000CE12013079F7882369F380E0DF91CF91CD
:102B50001F910F91089588EB9BE065E10E94CE12D2
:102B600008951F930E949E14982F80919F0280FFCA
:102B700005C08091A0028F7D8093A002892F90E0F4
:102B8000FC013297EC32F10508F042C0E85CFF4FDF
:102B90000C94604A18E63DC00E945617182F39C0A1
:102BA00082E001C081E00E943B1532C00E94B7164E
:102BB0002FC00E94BD3B2CC00E94BB3A29C00E947E
:102BC000743A26C00E94823D23C00E94B41F20C0D8
:102BD0000E94190A1DC00E943F3A1AC00E94D739AC
:102BE00017C00E94A23914C00E94083911C00E9467
:102BF000AF380EC00E94EC320BC00E941C3808C0D7
:102C00000E94E13705C00E94543502C00E94F43290
:102C100011E080919F0280FF05C08091A002806238
:102C20008093A002112361F40E94344581E00E9448
:102C3000FC1D85E591E00E94321F0E94AB150BC080
:102C4000193649F40E94344581E00E94FC1D81E060
:102C500091E00E94321F812F1F9108951F93BC01A4
:102C60001092B1001092B20082E08093B000809385
:102C700070000FB607FC1FC0789410E01DC0A89527
:102C80002F3F31054105510519F010F09FEF01C0AC
:102C9000922F91509093B3009F5F6093B10002C058
:102CA000000000008091B1008823D1F7291B310971
:102CB000410951090CC011E080E090E024E130E0CE
:102CC00040E050E00E948D499B01AC0167E0211576
:102CD00031054105510599F6112309F4F8941F9126
:102CE00008951F920F920FB60F9211241092B10007
:102CF0000F900FBE0F901F9018958150860F08956A
:102D000088EC90E09093DB028093DA028CED90E007
:102D10009093DD028093DC028FE090E09093DF02DD
:102D20008093DE029093E1028093E0029093E302AD
:102D30008093E2028FE18093E4028093E502809326
:102D4000E6021092E7021092E8028FEF8093E90208
:102D50000895EAEDF2E090E08191980F82E0EA3E7A
:102D6000F807D1F7992309F491E0892F089581E0BC
:102D700080932C020E9434458FEF92E00E94521FF4
:102D80006091DA027091DB0280E090E04FEF24E086
:102D90000E94091E83E093E00E9467206091DC029C
:102DA0007091DD0280E090E04FEF24E00E94091E68
:102DB0008AE193E00E9467206091E40270E080E085
:102DC00090E00E94AC1E0E94DD1E6091E50270E062
:102DD00080E090E00E94AC1E0E94DD1E6091E60241
:102DE00070E080E090E044EF26E40E94091E8DE14F
:102DF00093E00E9467206091DE027091DF0280E024
:102E000090E04EEF20E00E94091E0E94DD1E6091BE
:102E1000E0027091E10280E090E04EEF20E00E943D
:102E2000091E0E9403200E94DD1E6091E202709143
:102E3000E30280E090E04EEF24E00E94091E82EF62
:102E400092E00E9467206091A4027091A50280E048
:102E500090E04DEF26E50E94091E80E293E00E947B
:102E600067206091A6027091A70280E090E04DEF8C
:102E700026E50E94091E80919F0282FF05C00E94E4
:102E8000DD1E8AE20E94924484E293E00E94672061
:102E90006091E802772767FD7095872F972F4DEF98
:102EA00026E50E94B91E0E94AB150895ADE0B0E082
:102EB000ECE5F7E10C94294A81E00E94741588231F
:102EC00019F47AE0C72E02C0CC24C394EE24FF2468
:102ED00000E010E01D861C86BB24442455242224D7
:102EE00033241B861A86AA24198618861F821E82FE
:102EF0001D821C821B82882499241A8266247724CE
:102F00001982A8C10E94344581E40E9492448C2D0C
:102F1000805D0E9492440E94DD1EDD24D39495C101
:102F200023E0C21609F486C02C1540F031E0C31628
:102F300089F082E0C81609F056C137C095E0C9167D
:102F400009F4B0C0C91608F47CC0E6E0CE1609F05A
:102F50004AC1EBC0F1E0DF1641F482EF92E00E943B
:102F6000521F84E293E00E94241F0E94F0232981D3
:102F7000280F29830E9403206091E702772767FDCD
:102F80007095872F972F4DEF26E50E94B91E0E945E
:102F9000DD1E6091E802772767FD7095872F972FD8
:102FA0004DEF26E50E94B91E4AC031E0D31641F428
:102FB0008DE193E00E94521F81E193E00E94241F63
:102FC00081E060E00E94081B80E00E948B207C0171
:102FD00086E9E816F10438F4E885F985EE0DFF1D61
:102FE000F987E887A39482E060E00E94081B80E0F4
:102FF0000E948B208C018639910538F42E813F8107
:10300000280F391F3F832E83A39482E061E00E9442
:10301000081B80E00E948B209D878C878639910554
:1030200008F0E1C0EC81FD81E80FF91FFD83EC831E
:10303000A394D9C080E00E94741564E6D62E80E087
:10304000D3C0F1E0DF1621F48FEF92E00E94241F3D
:1030500012B821E021B932E03BB93AB980E00E94D0
:103060009F1A7C0182E081B990E19BB99AB981E015
:103070000E949F1A8C01E4E0E1B9F0E4FBB9FAB9CF
:1030800082E00E949F1A9D878C87C701800F911F45
:10309000880E991E2C853D85820E931E3B813D5FD7
:1030A0003B83A1C081E0D81621F483E093E00E9425
:1030B000241F1BB891E092B991B9E2E0EAB9E0901F
:1030C000A602F090A70280E00E949F1AE81AF90A6F
:1030D000F2E0F2B9F1B920E12AB90091A60210910B
:1030E000A70281E00E949F1A081B190B34E032B935
:1030F00031B980E48AB9E091A602F091A702FD8778
:10310000EC8782E00E949F1A2C853D85281B390B95
:103110003D872C87C701800F911F680E791E620EB4
:10312000731E3A813D5F3A835EC081E0D81641F458
:103130008AE193E00E94521F81E193E00E94241FE4
:1031400081E060E040E00E94FF2680915302843FCE
:1031500089F48091580290915902A0915A02B0913D
:103160005B0285369105A105B10520F47C01480E6E
:10317000591EB39482E060E041E00E94FF268091F6
:103180006102843F89F48091660290916702A09168
:103190006802B091690285369105A105B10520F458
:1031A0008C01280E391EB39482E061E042E00E9457
:1031B000FF2680916F02843FB1F480917402909158
:1031C0007502A0917602B091770285369105A1052E
:1031D000B10548F49D878C87EA85FB85E80FF91FC8
:1031E000FB87EA87B39481E011B812B81AB81BB80C
:1031F0008823B9F00E940320B70180E090E00E948C
:10320000AC1E0E94DD1EB80180E090E00E94AC1E62
:103210000E94DD1E2C853D85B90180E090E00E9472
:10322000AC1E34E6D31681F088EE93E060E10E9494
:10323000CE12882349F0823029F454E6D52E44E694
:10324000C42E02C034E6D32ED39485E08D1508F049
:1032500067CEC39496E09C1508F054CEEFE0BE16FE
:1032600011F0BB2418C0C20165E070E00E94C5499E
:103270006093E402C10165E070E00E94C54960937B
:10328000E5028A859B8565E070E00E94C5496093F0
:10329000E602BB24B394FFE0AF16F9F48885998564
:1032A00065E070E00E94C5497093DF026093DE0222
:1032B0008E819F8165E070E00E94C5497093E102B4
:1032C0006093E0028C819D8165E070E00E94C549B9
:1032D0007093E3026093E202B3942B812F3009F0E4
:1032E0006EC03A813F3009F06AC0C40165E070E009
:1032F0000E94C5498B01C30165E070E00E94C54989
:103300004B014091A6025091A702CA01880F991F54
:10331000840F951F801B910B861B970B6C01EE246D
:10332000FF2420E030E0C901B80120EA39E041E0A3
:1033300050E00E948D49A70196010E94EC49B90115
:10334000CA016B5F7F4F8F4F9F4F2AE030E040E014
:1033500050E00E94EC49C901DA018A3F9105A105BC
:10336000B10528F43093DB022093DA02B394B40160
:1033700080E090E020EA39E041E050E00E948D4991
:10338000A70196010E94EC49B901CA016B5F7F4F0A
:103390008F4F9F4F2AE030E040E050E00E94EC4920
:1033A000C901DA018831E1E09E07E0E0AE07E0E024
:1033B000BE0728F43093DD022093DC02B394F98138
:1033C000F53039F424E0B21621F40E94B71681E0FA
:1033D00001C080E02D96E2E10C94454A1F93CF9303
:1033E000DF93182F623019F4C1E1D0E002C0C0E0D1
:1033F000D0E00E94A9168093EA02123041F48AEDCF
:1034000092E0BE0141E150E00E94B14A22C08AED43
:1034100092E0BE0141E150E00E94A14A0E94A9163B
:103420009091EA029923A9F0981799F00E943445E7
:1034300082E00E94FC1D81E691E00E94321F85E53A
:1034400091E00E94752080ED97E00E942E160E9468
:103450008016DF91CF911F910895FF920F931F93D4
:10346000182F1F71106410937C00012F007C809135
:10347000A302081721F00E948A450093A3028091BD
:103480007A00806480937A0080917A0086FDFCCF78
:10349000F090A1027091A20260E020E030E040E0F4
:1034A00050E021C080917A00806480937A008091FE
:1034B0007A0086FDFCCF8091780090917900A0E0A1
:1034C000B0E0280F391F4A1F5B1F643059F484E0B5
:1034D0002030380738F4003829F0713019F41F73A0
:1034E0001068C1CF6F5F6F15E8F2003829F4609162
:1034F000A4027091A50204C06091A6027091A70277
:1035000080E090E00E948D492AE096958795779516
:1035100067952A95D1F72F2D30E040E050E00E94CA
:10352000EC49C9011F910F91FF9008951F93182F27
:103530000E947F45812F0E942D1A1F9108951F938D
:10354000182F0E948145812F0E942D1A1F910895E6
:10355000CF93DF938093C8026093C9024093CA025D
:10356000A82FB0E08EE294E0FC01EA0FFB1FE4918B
:10357000E093CE02262F30E0FC01E20FF31FE4912E
:10358000E093CF0250E0840F951FFC01849180935B
:10359000D00281E394E0FC01EA0FFB1FE491E09389
:1035A000D102FC01E20FF31FE491E093D202840FF9
:1035B000951FFC0184918093D30284E394E0FC0185
:1035C000EA0FFB1FE491E093D402FC01E20FF31F2A
:1035D000E491E093D502840F951FFC0184918093C0
:1035E000D602C7E3D4E0AC0FBD1FFD0184918093E8
:1035F000D7022C0F3D1FF90164916093D802C40FCC
:10360000D51FFE0184918093D902DF91CF91089557
:1036100043E0481B461B0E94A81A08958091CB02E4
:103620006091CC024091CD020E94A81A0895809129
:10363000C8028093CB028091C9028093CC02809112
:10364000CA028093CD020895EF92FF920F931F93C9
:10365000CF93DF93AC01613049F4EDECF3E088EEF9
:1036600093E0C2E3D0E027E030E018C0623049F4D4
:10367000E1E7F3E08CE291E0C9E1D0E02CE230E058
:103680000DC0633019F020E030E045C0EFEDF3E00D
:1036900088EC90E0C9E1D0E02EE130E0481759070E
:1036A00018F400E010E003C08A01081B190BC801E0
:1036B000BE010E94C549862F90E02817390708F4FB
:1036C000622F862F90E0880F991F8E0F9F1FFC019D
:1036D000259134910296FC01E590F4902E193F0952
:1036E000C801BE010E94C549AE01481B842F90E06D
:1036F000FC012E9FC0012F9F900D3E9F900D112425
:103700009E0136952795820F931FBE010E94C549E1
:103710009B012E0D3F1DC901CDB7DEB7E6E00C942D
:10372000514A90910F029923E1F080910E0280FDA1
:1037300018C081FD04C080910C028E3190F49093EA
:103740000C0280913E028093AD0280913F028093F3
:10375000AE02809140028093AF0280911602809366
:10376000150208951F93182F60FF03C08BB1812BA2
:1037700003C09BB1809589238BB98AB1812B8AB90B
:1037800063FF03C00E94854502C00E9480458AB144
:10379000912F909589238AB98BB198239BB91F915A
:1037A0000895CF93DF93982F80910C02813009F414
:1037B000BEC0A895892F0E94A81A1BB88091CF027D
:1037C0008AB98091D40281B982B98091D00260E136
:1037D0000E94B21B8091D8020E949F1AEC01809136
:1037E000D0029091CF02892B8AB98091D8020E9491
:1037F0009F1A9C018091CF028AB92C173D0720F4B3
:103800002530310508F4E90123E0C13DD20708F174
:103810008091D00261E10E94B21B8091D8020E9487
:103820009F1AEC018091D0028BB99091CF02892B25
:103830008AB98091D8020E949F1A9C011BB880917E
:10384000CF028AB92C173D0720F42530310508F442
:10385000E901C031D10538F080910E02882319F4B6
:10386000CE010E94662B83E0C13DD80708F042C01C
:1038700080910E028823D9F48091CF028AB91BB8B7
:103880008091D40281B982B90E9481458091D00291
:103890009091CF02892B8AB98091D8020E949F1AF9
:1038A0008F559D4020F082E0BE010E94B22D809194
:1038B0000E02882339F58091D50281B912B8809122
:1038C000D0029091CE02892B8AB98BB98091D70210
:1038D0000E949F1A80549640A8F40E94C42A88230C
:1038E00089F480910C02813269F081E0BE010E946E
:1038F000B22D08C080910E02882311F40E9447293E
:103900000E94942F80910C02882311F08A3019F4C0
:103910000E94612108C08F3131F480910D0284FF33
:1039200002C00E942C2911B812B81AB81BB8DF9136
:10393000CF910895CF93DF930E94081B11B8809117
:10394000CE028BB99091CF02892B8AB98091D70290
:103950000E949F1AEC018091D8020E942D1A20919A
:10396000A6023091A70236952795B9016E51704095
:103970006C177D0778F4A901425E5F4FC417D50725
:1039800048F46817790730F420E08417950718F495
:1039900021E001C020E01AB8822FDF91CF91089575
:1039A0000F931F9380E061E00E949A1C082F80E033
:1039B00062E00E949A1C182F81E062E00E949A1C2B
:1039C000100F810F1F910F9108956F927F928F9228
:1039D0009F92BF92CF92DF92EF92FF920F931F932D
:1039E000DF93CF9300D000D000D0CDB7DEB711B8B1
:1039F00012B81BB88AEF8AB980E00E942D1A9A8308
:103A0000898381E00E942D1A9C838B8382E00E942F
:103A10002D1A9E838D83FF24F39408E2E02E12E09A
:103A2000D12ECC243E010894611C711CB1E08B2E78
:103A3000912CD39483E0D81609F4DD240D2D10E0E9
:103A40008C2D90E00D2C02C0959587950A94E2F795
:103A500080FD70C0F801E95CFB4FB4908B2D0E9493
:103A60002D1A9C01F801EE0FFF1FE60DF71D808156
:103A700091812817390770F4318320838E2D90E0CF
:103A80008F199109449784F4EAEEEE1568F0F4E199
:103A9000EF0E0AC02A30310528F488E2E81611F446
:103AA00070E5E72EF39402C0FF24F3942330310530
:103AB00048F4C401002E02C0880F991F0A94E2F74F
:103AC000C82A0AC02052334038F481B1F801EC5CB6
:103AD000FB4FE491E82BE1B9F7E0CF1671F1EF1459
:103AE00020F581E080930C0280930D02D0921202A7
:103AF000F801EC5CFB4FE49181B1E095E823E1B97A
:103B0000F801EF5CFB4F2491025D1B4FF80184919B
:103B10009AB1822B809589238AB98B2D0E942D1A08
:103B2000909314028093130208C0A89582E390E05A
:103B30000E942E16FF2009F07CCF1AB811B82696E5
:103B40000FB6F894DEBF0FBECDBFCF91DF911F91AE
:103B50000F91FF90EF90DF90CF90BF909F908F904C
:103B60007F906F900895EF92FF920F931F93E82E2E
:103B7000F62E11B812B81AB81BB80E94081B809113
:103B8000D40281B98091D8020E942D1A8C018091B3
:103B9000D50281B98091D7020E942D1A0817190702
:103BA00020F48F2D6E2D0E94081B8091D40281B9C4
:103BB0008091CF028AB901E08091D8020E942D1A2B
:103BC0009C0181E02039380740F481B19091D50201
:103BD000892B81B92832310540F00F5F033329F07A
:103BE00084E690E00E942E16E7CF11B81AB81F9114
:103BF0000F91FF90EF90089560913002861710F0BA
:103C000061E003C0681B66956F5F81E00E94E64437
:103C100008959F92AF92BF92CF92DF92EF92FF9260
:103C20000F931F936B017C01042F922E15C085E02A
:103C300090E0A0E0B0E0C80ED91EEA1EFB1EC7014E
:103C4000B6012AE030E040E050E00E94EC49C901B2
:103C5000DA016C017D010F5F90E1C91697E2D90688
:103C600090E0E90690E0F90610F7013F1CF4AA2461
:103C7000BB2423C0202F215F822F63E00E94B8491C
:103C8000E82F822F63E00E94B849B92E992349F4A6
:103C9000A8EECA16A3E0DA06A0E0EA06A0E0FA065B
:103CA00020F0EF5F83E08B19B82EE83010F0AA24E3
:103CB00004C0F0E0E759FC4FA49005E412E0C6010F
:103CC000B8014AE050E00E948B4AF80101900020C0
:103CD000E9F78F010150104005541240E02E0B19F6
:103CE00010165CF080E30E9492448EE20E9492449F
:103CF000002319F080E30E949244BB2009F40FEFE7
:103D00000150FF24C02EDD24C7FCD0940FC00F2D1E
:103D100010E0F801EB5BFD4F80810E9492440C158E
:103D20001D0519F48EE20E949244F394FE1478F378
:103D3000AA2019F08A2D0E949244992019F0892D09
:103D40000E9492441F910F91FF90EF90DF90CF90CF
:103D5000BF90AF909F90089540E020E00E94091E20
:103D600008958AE30E94924408958DE20E9492444D
:103D70000895CF92DF92EF92FF920F931F937B01F2
:103D80008C01D42EC22E97FF0BC08DE20E9492446C
:103D900010950095F094E094E11CF11C011D111D9B
:103DA000C801B7014D2D2C2D0E94091E1F910F91A6
:103DB000FF90EF90DF90CF90089580E20E949244B0
:103DC00008950E9427090E94924408958F5C0E94E2
:103DD000924408951F93182FE091150283E0E89F05
:103DE000E02D1124F0E0E652FE4EE60FF11D849125
:103DF000882341F120913502215060913602982F9D
:103E000094FF04C0809134028695680F91FF04C02E
:103E1000809133028F5F280F92FF04C0809134029B
:103E20008150680F822F0E94E644812F0E9427094B
:103E3000883721F4812F0E94E11E04C0812F8F5CFE
:103E40000E9492441F910895CF93DF93EC0103C029
:103E50000E9492442196FE0184918823C9F7DF9144
:103E6000CF9108950F931F93182F092FFC0101C0C4
:103E700031969E2F911B84918823D1F780912F0238
:103E8000891710F481E003C0891B86958F5F6091CC
:103E90002E020E94E644812F902F0E94241F1F9122
:103EA0000F9108950E94241F80E20E949244089579
:103EB000DF92EF92FF920F931F93F42ED22E05E420
:103EC00012E0A8012AE030E00E94664AF801019061
:103ED0000020E9F78F010150104005541240E02EF8
:103EE000FF2011F404E60DC00F1530F00F1911F08A
:103EF000FF2407C0FF2401C0F01A80E30E9492440F
:103F000000E010E014C0101751F48EE20E949244B9
:103F100004C080E30E949244FA94FF20D1F7E12F7D
:103F2000F0E0EB5BFD4F80810E9492441F5F1E1505
:103F300050F3DD2019F08D2D0E9492441F910F91B6
:103F4000FF90EF90DF90089583E00E940B4581E0A1
:103F500063E00E94E644089582E00E940B4581E000
:103F600062E00E94E6440895FF920F931F930E941F
:103F7000344589E392E00E94521F1091E902F090CB
:103F8000310201E00E94AC1F612F70E080E090E000
:103F90000E94AC1E043020F48CE291E00E942E16A8
:103FA00080E090E068E10E94CE12082F813031F06D
:103FB000833011F400E008C0843021F41F1520F490
:103FC0001F5F02C011111150812F0E944344002332
:103FD000C9F61F910F91FF9008951F9310912E0223
:103FE00080913002181769F40E94AB15812F0E944E
:103FF0000B4581E0612F0E94E64484EF91E00E942E
:104000002E161F9108951F9390912C0260912E02FD
:10401000809130026817B1F4192F90FF02C00E94FE
:10402000AB1511FF0CC01091300204C0812F0E940B
:104030000B4511501230D0F781E062E005C00E94BC
:10404000344504C06F5F81E00E94E6441F910895EB
:104050001F93382F9091340220913002892F8F5F67
:10406000281798F140912F02403118F0930F9217C2
:1040700038F020932E020E94032032E083E004C037
:1040800080913302481B842F80933502309336028F
:1040900010912E028091AD0260E00E94EA1E809194
:1040A000AE0261E00E94EA1E8091AF0262E00E94CF
:1040B000EA1E80913502609136020E94E6448091AA
:1040C00015020E94634410932E021F9108950F93CE
:1040D0001F938C010E940320C8010E94241F80E2CC
:1040E0000E9492441F910F9108950F931F938C018A
:1040F0000E940320C8010E94321F1F910F91089552
:104100000F931F938C010E940320C8010E94241F5B
:104110001F910F910895A0E0B0E0E1E9F0E20C9466
:104120002C4A582E0E94E51C80910C02813019F413
:1041300000E010E0B2C012B88091D50281B9809140
:10414000CE028BB98AB90E94804561E0662477244B
:104150004301862F90E0EC01C170D07060FF03C076
:104160008091D70202C08091D802A8958068809380
:104170007C000E948A4580917A00806480937A0056
:1041800080917A0086FDFCCFAA24EE24FF248701CB
:1041900080917A00806480937A0080917A0086FD15
:1041A000FCCF8091780090917900A0E0B0E0E80E1B
:1041B000F91E0A1F1B1F0E948745A39484E6A816B8
:1041C00039F72091A4023091A50240E050E0C801E7
:1041D000B7010E948D497B018C019AE016950795E5
:1041E000F794E7949A95D1F762E0CD2B09F45BC080
:1041F000C701D8013C014D01ACCF6091A60270917E
:10420000A70280E090E024E630E040E050E00E9429
:104210008D4966197709880999090E948D495B01C2
:104220006C016E187F08800A910AC401B30128EE60
:1042300033E040E050E00E948D497B018C012091E9
:10424000DC023091DD022057354E40E050E0C601DF
:10425000B5010E94EC49C801B7010E94EC498901EF
:1042600081E05816B9F48091C8026091C9020E9499
:104270007D16E82FF0E0EE0FFF1FE252FD4F019098
:10428000F081E02DE017F10718F40E1B1F0B02C0A0
:1042900000E010E080E88093A302C801CDB7DEB74C
:1042A000EFE00C94484A1BB88091D4029091D5025B
:1042B000892B81B9E614F7040805190508F49DCF88
:1042C000E7CFA0E0B0E0E7E6F1E20C942A4AA89537
:1042D00012B88091D50281B98091CE028AB98BB98A
:1042E0008091D8020E949F1A7C018091D7020E947F
:1042F0002D1A4C011BB88091D1028AB98091D70246
:104300000E949F1A459708F025C28091D1028BB96F
:104310008091D7020E949F1A2C018091D40281B90A
:1043200082B91BB88091CF028AB98091D7020E94CE
:104330009F1A8C018091D8020E942D1A3C01809115
:10434000D2028AB98091D8020E949F1AEC0120E320
:10435000821621E1920628F482E64816510408F0FC
:10436000F9C12CE6421623E1520608F0F3C189EAAE
:104370006816710408F06EC0C632D10508F4EAC1AF
:10438000B20180E090E020EF3BE247E050E00E9485
:104390008D49E090A602F090A702970124193509F3
:1043A00040E050E00E94EC4959016A01EC1AFD0A14
:1043B00000E010E0C801B70120EF3BE247E050E029
:1043C0000E948D499E0140E050E00E94EC49B901F5
:1043D000CA012EED421623E0520670F442E0AA0C08
:1043E000BB1CCC1CDD1C4A95D1F7A60EB71EC81EFF
:1043F000D91EC601B5010EC0CE5DD340B0F432E087
:10440000660F771F881F991F3A95D1F76A0D7B1D9C
:104410008C1D9D1D25E030E040E050E00E94EC49FD
:10442000C901DA01BC01CD0108C06A0D7B1D8C1DDC
:104430009D1D9695879577956795625A7E4F8F4F0C
:104440009F4F2AE030E040E050E00E948D493B0160
:104450004C01A0C08E149F0408F490C006151705E7
:1044600008F48CC0C091A602D091A7028C169D06BC
:1044700019F40894810891082091DC023091DD0242
:104480002057354E40E050E0B4016E197F0980E0BE
:1044900090E00E948D49C819D9099E0140E050E082
:1044A0000E94EC4959016A012091DA023091DB0245
:1044B0002057354E40E050E006191709B80180E05A
:1044C00090E00E948D49930140E050E00E94EC4949
:1044D00079018A018EED881683E0980640F492E017
:1044E000AA0CBB1CCC1CDD1C9A95D1F715C02EED77
:1044F000621623E07206B8F588EFE81684E2F80643
:1045000081E0080780E0180790F482E0EE0CFF1CC1
:10451000001F111F8A95D1F7AE0CBF1CC01ED11E03
:10452000C601B50125E030E040E050E015C0C8010B
:10453000B701B3E0660F771F881F991FBA95D1F7AF
:104540006E0D7F1D801F911F6A0D7B1D8C1D9D1D93
:104550002AE030E040E050E00E94EC49C901DA0175
:104560003C014D0117C0350146016E0C7F1C801EB9
:10457000911E96948794779467940CC02FE86216E6
:1045800022E1720608F4E2C0FAE06F2E712C812C51
:10459000912C06C084E6681671048104910478F5B4
:1045A00081E00E948B207C0100E010E0C401B30197
:1045B000660F771F881F991F25E06216710481041A
:1045C000910420F4660D771D881D991D2AE030E0C6
:1045D00040E050E00E948D4961157105810591050B
:1045E00021F464E670E080E090E0E616F706080744
:1045F000190728F4370148015EEF552E02C05524F3
:104600005A9420E047E0342E3AE0432E81C0239DA7
:10461000E0011124C95EDD4F98818091C80298178E
:1046200009F073C099818091C902981709F06DC093
:10463000C401B301452D02E010E020E030E0EE249B
:104640000E94A6118F3F91F56B817C818D819E81A7
:104650004A8102E010E020E030E00E94A6118F3F86
:10466000F1F44A81451519F0FF24FA9402C0FF24A1
:10467000F3946B817C818D819E8194018301E52C73
:104680000E94A6118F1531F46B807C808D809E80F6
:104690005A8005C06B827C828D829E825A82640120
:1046A0005301D694C794B794A7940CC0C401B30126
:1046B00024E130E040E050E00E94EC49C901DA0119
:1046C0005C016D016B817C818D819E8194018301F0
:1046D0000A191B092C093D094A81E52C0E94A611E3
:1046E00087FD15C06B817C818D819E81A60CB71CD6
:1046F000C81CD91C4A81960185010E94A611181672
:1047000034F040920C0224E603C02F5F01C028EC75
:1047100090911002291708F47ACF2436D9F09330FB
:10472000C8F4E7E09E9FF0011124E95EFD4F8091FF
:10473000C90280838091C8028183638274828582EA
:10474000968252829F5F9093100204C06624772461
:10475000430126CFCDB7DEB7E1E10C94464AEF9294
:104760000F931F93142F109210020E94081B0E9497
:10477000612180911002813011F090E017C0112367
:10478000A1F0612F70E080E090E000911A0210919A
:104790001B0220911C0230911D0243E0E09019029F
:1047A0000E94A61190E0813009F491E0892F1F91B9
:1047B0000F91EF900895982F813110F480E00895C3
:1047C000915115BC82E084BD97BD81E0089516BC6F
:1047D00081E085BDA99BFECF15BC82E085BB089515
:1047E000A0E0B0E0E6EFF3E20C94334A0F983F9A72
:1047F000479800E087E00E942D1A039708F47EC0D6
:104800000F5F84E190E00E942E16033399F770C089
:1048100086B385FD09C080FFFBCF96BBA895219686
:104820002FE0C03AD207A1F71092810080E286BB48
:104830003F98B09B02C081E086BB87E980937A00F5
:1048400080917B008F7B80937B0087E00E942D1AF4
:104850006C0147983F9AC05ADF4008F049C087E092
:104860000E942D1A855D9340D0F73F981092A202C6
:1048700087E00E942D1A8C0181E08093A20287E0DC
:104880000E942D1A7C013F9A9801281B390BC09178
:10489000A402D091A502C90104960997E8F0B901D4
:1048A000882777FD8095982F9E0140E050E00E9478
:1048B0008D49970140E050E00E940E4A8091E70246
:1048C000820F8093E702332727FD3095C20FD31F55
:1048D000D093A502C093A40296012C1B3D0BC901E5
:1048E000C1968336910510F42093E80281E001C05F
:1048F00080E0CDB7DEB7E8E00C944F4A80E48093C7
:104900007B0084E480BF87E480937C0087E0809311
:104910007A000E94894510928000109281001092C6
:1049200085001092840087E286BB81E0809381003D
:10493000479AC0E0D0E091E06BCFA0E0B0E0E3EABE
:10494000F4E20C94344AEC010E94E51C80910C02C4
:10495000813011F480E0EEC01BB897E091B912B835
:104960008091D1028AB980E480937B0084E480BF87
:104970008091D702806480937C0090937A000E949B
:10498000894510928000109281001092850010924B
:10499000840087E286BB4091D1024BB980910C0222
:1049A0008F3129F49091D4029095977002C0909124
:1049B000D50281E08093810091B960E070E091E0E0
:1049C00086B3E82F85FD0AC080FFFACF96BBA89575
:1049D0006F5F7F4F8FE0603A780791F71092810008
:1049E00080E286BB20918600309187001AB88091C2
:1049F0008400909185002817390730F4E0FF04C047
:104A000081E086BB6F5F7F4F87E980937A0080915A
:104A10007B008F7B80937B001BB84AB99FE0603A94
:104A2000790710F081E086C040E050E0CB01A0E0C3
:104A3000B0E08C01FF24EE24E22AF32A042B152B8C
:104A4000A3E0EA16F1040105110500F18EEF9FEFD6
:104A5000AFEFBFEFE80EF91E0A1F1B1F98E3E91620
:104A600099E8F90691E4090790E0190778F0C80180
:104A7000B70128EE33E040E050E00E94EC49C90164
:104A8000DA017C018D0197EFD92E02C084EFD82E78
:104A90008091E802992787FD90952091A40230919A
:104AA000A502820F931F61E00E94241BA0E0B0E0EA
:104AB000BC01CD01A80197010E948D4920ED37E08E
:104AC00040E050E00E94EC4979018A01A4EFDA1637
:104AD00019F0A80197011EC08091C8026091C90217
:104AE0000E947D16E82FF0E0E652FD4F828590E0AF
:104AF000A0E0B0E0E816F9060A071B0728F420E05A
:104B000030E040E050E006C0A8019701281B390BB7
:104B10004A0B5B0B8091C90288838091C80289830C
:104B2000DA82EF82F88609871A872B833C834D83CC
:104B30005E8383E0CDB7DEB7E7E00C94504AA0E097
:104B4000B0E0E5EAF5E20C942B4A3C0183E0B82E94
:104B5000B1E19B2E0E94E51C80910C02813011F482
:104B6000882447C112B88091D50281B98091CF02C3
:104B70008BB98AB98091D7020E942D1A7C0180914D
:104B8000D8020E942D1AE81AF90A1BB81AB8CC24C8
:104B9000DD240894C11CD11C8091CE02692D0E9495
:104BA000B21B8091D7020E942D1AE816F9061CF05C
:104BB000C0E0D0E003C0EC01CE19DF092EE7C21639
:104BC000D10421F480E0CB34D10508F081E091E0FC
:104BD000CC32D90708F080E0E4EFCE16E1E0DE0643
:104BE00009F480E0A8958823A1F6F1E0CC32DF0734
:104BF00010F4BB24B39421E0C216D10461F485E023
:104C0000C531D80740F0892DA9E09A2E84FDA2CFA6
:104C1000F2E08F2EEEC08B2C93E0B91619F000E075
:104C200010E037C0860180E090E00FC08091D7028D
:104C30000E942D1AE816F9061CF080E090E002C0F0
:104C40008E199F0901501040A8950115110571F7A3
:104C50008C179D0718F000E010E007C08E01081BBC
:104C6000190B0536110508F0BB248091D7020E946C
:104C70002D1A7C0194FE03C00E94754502C00E945B
:104C80007A458091D7020E942D1A8E159F0520F03B
:104C90008B2C4424552404C02701481A590A8B2C14
:104CA000E3E0BE1609F0A5C0C8018C0F9D1F62E0AD
:104CB0000E94241BA0E0B0E0960140E050E0BC015F
:104CC000CD010E948D495B016C01C92DD0E08E01A0
:104CD0000071107094FE08C02AE030E040E050E01F
:104CE0000E948D495B016C01F8E3AF16F9E8BF063D
:104CF000F1E4CF06F0E0DF0618F4E7EF9E2E0EC0D9
:104D0000C601B50128EE33E040E050E00E94EC49D6
:104D1000C901DA015C016D017AEF972EC601B50178
:104D200028EE33E040E050E00E948D49012B29F04D
:104D300022E434E040E050E004C020E134E040E010
:104D400050E00E94EC49C901DA017C018D0180919B
:104D5000C902F30180838091C80281839282A78275
:104D6000B086C186D286E382F482058316830DC0A5
:104D7000C801B7012AE030E040E050E00E94EC4971
:104D8000C901DA017C018D019394F1E0EF16F5E39E
:104D9000FF06FCE00F07F0E01F0750F7C3FD9394F8
:104DA000920140E050E0C801B7010E948D4928EE11
:104DB00033E040E050E00E94EC49C901DA01BC0157
:104DC000CD010BC02AE030E040E050E00E94EC4909
:104DD000C901DA01BC01CD019394603020E0720773
:104DE00021E0820720E0920768F7F3017487638768
:104DF0009586882DCDB7DEB7E0E10C94474AA0E058
:104E0000B0E0E5E0F7E20C94314AB82EA62E8EE031
:104E1000489F6001112481E592E0C80ED91EF60179
:104E20001082118284EF8283178210861186128687
:104E300013821482158216821486138680910C02C6
:104E4000813009F461C08A3041F5C7E1D2E0FF2426
:104E50001DC098819B1519F489818A1529F09A152E
:104E600099F489818B1581F46B817C818D819E8180
:104E70004A810AE010E020E030E0EE240E94A61112
:104E80008F3F11F493E6F92EF39427968091100248
:104E9000F816F8F2F4E6FF16B9F58B2D6A2D0E948C
:104EA0001829FC01009729F0828193818C5D95403F
:104EB00058F18B2D6A2D0E94081BC6010E949F2568
:104EC000823019F4C6010E949D2480910C02843125
:104ED000A8F4F60192818A3019F49A3F7CF00BC055
:104EE000953F4CF4F60183819481A581B6810597A5
:104EF000A105B10518F08BE080930C020E94E51C1F
:104F000011B812B81AB81BB8CDB7DEB7EAE00C94E6
:104F10004D4AA4E0B0E0EFE8F7E20C94294A9C8304
:104F20008B83009709F449C1FC01638174818581F9
:104F3000968142810AE010E020E030E057EFE52E54
:104F40000E94A61187FD39C10E94E51C80910C02C8
:104F5000813009F432C1EB81FC81808161810E9442
:104F6000B31DEB81FC81808161810E94081B409010
:104F7000D7023090D802F0E84F2A3F2A15BC82E0D1
:104F800084BD85E387BD12B840927C000E948045B5
:104F900012E3812E912C60E070E022242A94B1E08B
:104FA000AB2EB12CC12CD12CA1E0EA2EF12C012D7D
:104FB000112DF7ED5F2EA8956233710558F480919D
:104FC000D50281B98091CE028BB98AB90E949345EE
:104FD0001AB81BB882E38816910458F48091D40261
:104FE00081B98091CF028BB98AB90E9493451AB8D2
:104FF0001BB88091D40281B98091CE028BB98AB955
:1050000040927C0050927A0080917A0086FDFCCF1D
:1050100050927A0080917A0086FDFCCFE091780072
:10502000F0917900FA83E98330927C0050927A0003
:1050300080917A0086FDFCCF50927A000E948F45C5
:105040000E94E7238091CF028BB98AB90E949345D1
:105050001AB880917A0086FDFCCF809078009090FD
:1050600079008091D50281B98091CF028BB98AB93C
:1050700030927C0050927A0080917A0086FDFCCFBD
:1050800050927A0080917A0086FDFCCF6090780083
:105090007090790040927C0050927A0080917A0062
:1050A00086FDFCCF50927A000E948F450E94E72334
:1050B0008091CE028BB98AB90E9493451AB880912B
:1050C0007A0086FDFCCF6091780070917900C30171
:1050D000A0E0B0E0E981FA819F0140E050E0820F5A
:1050E000931FA41FB51FA80EB91ECA1EDB1ECB013D
:1050F000A0E0B0E0940140E050E0820F931FA41FB5
:10510000B51FE80EF91E0A1F1B1F2A9409F053CF82
:1051100011B81BB8AE14BF04C006D10608F045C0D4
:105120008091DA029091DB029C01E3E0220F331FB1
:10513000EA95E1F7880F991F280F391F40E050E0EA
:10514000EA18FB080C091D09C801B7010E948D4926
:10515000A60195010E94EC4989018091C8026091E5
:10516000C9020E947D16E82FF0E0EE0FFF1FE25209
:10517000FD4F208131812017310718F4021B130BDA
:1051800016C0EB81FC8163817481858196814281A7
:1051900008EE13E020E030E05AEFE52E0E94A61161
:1051A00018161CF400E010E002C00FEF1FEF80E8BB
:1051B0008093A3020E94E51C02C00FEF1FEFC801FD
:1051C0002496E2E10C94454A80910C028032F1F081
:1051D000813228F48E3141F08F3141F40BC081329D
:1051E000E9F0843218F416C022E411C020E090E007
:1051F00080E017C080910D0286FD04C027E494E48E
:1052000083E50FC027E498E788E70BC027E493E421
:1052100085E407C027E491E483E403C027E492E334
:1052200081E32093B0029093B1028093B20208957B
:10523000282F90911102EBE7F2E008C08081281737
:1052400019F48181681731F0915036969923B1F79E
:10525000E0E0F0E0CF01089580910D0280FF05C0ED
:105260006091AF028091AE0204C06091AE02809165
:10527000AF020E941829892B49F010920C0210925B
:105280000D0280910E028E7F80930E020895EF92A0
:10529000FF920F931F93CF93DF938091D7020E94C9
:1052A0002D1AEC018091D8020E942D1A7C01809168
:1052B000D9020E942D1A8C0111B88091D40282B9B2
:1052C0008091D3028BB99091CF02892B8AB982E366
:1052D00090E00E942E168091D40281B98091D8026C
:1052E0000E942D1A0A97F8F483E280930F028CE053
:1052F000809316028091CA0280933E028091C80278
:1053000080933F028091C90280934002CE018E19A2
:105310009F099093420280934102C01BD10BD0930E
:105320004402C0934302CDB7DEB7E6E00C94514A85
:10533000A0E0B0E0EEE9F9E20C94314AB82E21E0A9
:105340008217E1F48091D40281B982B99091D002A0
:105350008091CF02892B8AB99BB98091D8020E9493
:105360009F1AEC010091A6021091A7028091D90228
:105370000E942D1A9801281B390B1AC012B880916F
:10538000D50281B98091CE028BB99091D002892B40
:105390008AB9C091A602D091A7028091D7020E943B
:1053A0009F1AC81BD90B8091D9020E942D1A9C010B
:1053B0002115310511F421E030E0CE01821B930B61
:1053C000B9010E94C5496B01EE24FF24203131054B
:1053D00008F062C031E0B316D9F48091D302909105
:1053E000CF02982B9AB98BB98091D8020E949F1A4C
:1053F000EC010091A6021091A7028091D9020E94AF
:105400002D1A081B190BA090DA02B090DB0219C00C
:105410008091D3029091CE02892B8AB9C091A602C5
:10542000D091A7028091D7020E949F1AC81BD90B66
:105430008091D9020E942D1A8C01A090DC02B090BC
:10544000DD020115110511F401E010E0BE0180E05C
:1054500090E020EF3BE247E050E00E948D49980148
:1054600040E050E00E94EC49CA01B9012AE030E076
:1054700040E050E00E948D4920E93AE1A20EB31EBF
:10548000950140E050E00E94EC49C216D306E406C4
:10549000F50610F469017A01B601C701CDB7DEB790
:1054A000EAE00C944D4ADF92EF92FF920F931F9324
:1054B000D82E1BB88091CF028AB98091D40281B9CD
:1054C00082B98091D8020E949F1ABC018430910554
:1054D00050F18091DA029091DB027C0100E010E053
:1054E00085E06937780780F091E0D91669F41AB839
:1054F0008091D5029091D402892B81B98091D802F4
:105500000E942D1ABC0108C080E99AE1A0E0B0E039
:10551000E80EF91E0A1F1B1F29EFD22E20EA36E8DB
:1055200041E050E015C08091D2028AB98091D80242
:105530000E949F1ABC0197EFD92E20E432E44FE07D
:1055400050E080EFE82E8BE2F82E87E0082F112D37
:1055500011B812B81AB81BB880E090E00E948D49CB
:10556000A80197010E94EC492093BE023093BF022C
:105570004093C0025093C102D092C2021F910F917A
:10558000FF90EF90DF900895A0E0B0E0EAECFAE23F
:105590000C94334A8091D9020E942D1A7C0180918B
:1055A000D8020E942D1A6C018091D00260E10E9405
:1055B000B21B8091D7020E949F1A8C011BB80E94D7
:1055C00081458091CE028BB98091D7020E949F1AAB
:1055D00026E00034120708F05FC08153914108F4BF
:1055E0005BC01AB81BB88091D50282B90E94814570
:1055F0008091CE028AB98091D7020E949F1A853F7E
:10560000910508F049C08091D00260E10E94B21B70
:105610008091D7020E949F1AEC0182E0CD3DD8070D
:1056200060F482E280930C0280910E02816080938C
:105630000E028AE08093150235C08091CE028BB9AC
:105640000E9481451BB88091D7020E949F1A853F16
:10565000910510F580910C02813229F480910E029F
:10566000816080930E0281E280930C028BE0809334
:1056700015028091BA029091BB028C179D0720F50C
:10568000CE01A0E0B0E08093BA029093BB02A09359
:10569000BC02B093BD0206C080E0CDB7DEB7E8E043
:1056A0000C944F4A8091CA028093AD028091C80247
:1056B0008093AE028091C9028093AF02EC18FD087E
:1056C000F092B502E092B40281E0E7CFA0E0B0E052
:1056D000ECE6FBE20C942F4A8B5E914020F458E2FA
:1056E000C52ED12C04C048EEC42E41E0D42E8091AA
:1056F000D3029091CF02892B8AB98091D8020E945F
:10570000961A7C018091D3028BB98091D8020E94B5
:10571000961A4C01C7018C0D9D1D8815990508F03E
:105720006AC08091D0028AB98BB912B88091D50233
:1057300081B98091D9020E94961A11B8C3978958ED
:10574000924028F010E086E0E816F10408F411E039
:105750008091D40281B98091D9020E94961AEC01FD
:105760008091D7020E942D1A11B88C179D0730F432
:10577000C81BD90BC25CD14008F411E08091D5025E
:1057800082B981B98091D3029091CE02892B8AB9D6
:105790001BB88091D7020E94961A5C018091D302B7
:1057A0008BB98091D7020E94961AEC0112B88091B1
:1057B000D50281B98091D3029091CE02892B8AB90A
:1057C0008BB98091D9020E94961A88549F4028F084
:1057D00089E180930D0284E006C0112361F489E21F
:1057E00080930D0286E08093150284010E191F0933
:1057F000CA19DB0977C012B88091D50281B98091AE
:10580000D3029091CE02892B8AB98BB98091D702AD
:105810000E94961A8C018091CE028BB98091D7029A
:105820000E94961A7C018C0D9D1D8017910708F02F
:1058300009C1C091A602D091A7028091D0028AB975
:105840001BB88091D40281B982B98091D9020E949B
:10585000961A12B88D5C90418958924028F0BB246A
:105860002C970C171D0710F0BB24B3940E191F09B9
:105870008091D40281B98091D3029091CF02892B7B
:105880008AB98BB98091D8020E94961AEC01809156
:10589000CF028BB98091D8020E94961AC81BD90BEF
:1058A000D694C794CC15DD0518F4CE01E8018C011F
:1058B0001BB88091D40282B981B98091D9020E942B
:1058C000961A815D934028F48AE180930D0285E069
:1058D00007C0BB2009F0B6C08AE280930D0287E0C2
:1058E000809315028FE180930C0280910E028160FB
:1058F00080930E024091CA024093AD02C017D107B7
:1059000038F48091C8028093AE028091C90206C02B
:105910008091C9028093AE028091C8028093AF0249
:10592000C80162E370E00E94C5499B01C801861B63
:10593000970BC817D90750F0200F311F2C173D07C0
:1059400028F080910D02806480930D028091AE0258
:105950006091AF020E94A81A9091D6028091D50260
:10596000982B91B92091CE022AB980910D0280FF27
:1059700013C012B82BB90091A6021091A702809112
:10598000D7020E94961A9801281B390BC901C091B1
:10599000DC02D091DD020AC092B91BB88091D70217
:1059A0000E94961AC091DA02D091DB02C057D54E00
:1059B000BC0180E090E020E137E240E050E00E944E
:1059C0008D499E0140E050E00E94EC492093BE02C8
:1059D0003093BF024093C0025093C1028AEF80937C
:1059E000C2029091D3028091D202982B9AB9209151
:1059F000D40221B980910D0280FF03C01BB822B9E7
:105A000002C09BB912B80E9480458091D8020E94C2
:105A10002D1A8C018091D9020E942D1A9C01201B05
:105A2000310B3093B9022093B80280910D0280FFB0
:105A300002C020543D4E215C324120F01092B90248
:105A40001092B802CDB7DEB7ECE00C944B4AA0E060
:105A5000B0E0EDE2FDE20C942F4A90E0EC01C17061
:105A6000D07080FF07C0C090CE028091D402F0E1D8
:105A7000AF2E06C0C090CF028091D502E1E1AE2EDC
:105A800077E0B72EB8228091D902806480937C00A1
:105A90000E948A45EE24FF248701DD246FEF862EC5
:105AA00063E0962EA8958091D0026A2D0E94B21BC9
:105AB0008091D3028C298AB9209721F080B18B2163
:105AC000E9F703C080B18B21E9F3CAB880917A006D
:105AD000806480937A0080917A0086FDFCCF2097C5
