:100000000C9442090C945F090C945F090C945F09ED
:100010000C945F090C945F090C945F090C945F09C0
:100020000C945F090C9440170C945F090C945F09C1
:100030000C945F090C94B33E0C945F090C945F0917
:100040000C945F090C945F090C949B3E0C945F091F
:100050000C945F090C945F090C945F090C945F0980
:100060000C945F090C945F090C945F090C945F0970
:100070009D16D716A116A516A816AB16D716AE163E
:10008000B116D716D716D716D716D716D716D7162E
:10009000D716D716B416D716B716BA16D716D71658
:1000A000D716BD16C016D716D716D716D716C3162D
:1000B000D716D716D716C616D716C916D716CC1602
:1000C000D716CF169B16D216D516554C54494D410E
:1000D00054450054455354455221210050726F62DB
:1000E000696E672E2E2E0054696D656F7574004E13
:1000F0006F20636F6D706F6E656E7400666F756EE6
:10010000642100646F6E65210053656C6563740043
:1001100053656C662041646A7573746D656E740016
:10012000536176652050726F66696C65004C6F6133
:10013000642050726F66696C650053686F77205653
:10014000616C7565730052656D6F7665004372650D
:100150006174650053686F727420436972637569D6
:10016000742100426174746572793F004572726F48
:100170007221004578697400436865636B73756D1F
:1001800000424A5400534352005472696163005064
:100190005554004279652100506F77657220537580
:1001A00070706C79004F555400506F77657200493C
:1001B0006F757430004343004F4350005047005365
:1001C000455400494C494D004D494E004D415800A1
:1001D0004F4E004F464600546573742042746E20A3
:1001E0005573616765004C65667400526967687491
:1001F0000053686F7274004C6F6E6700446F7562D5
:100200006C65004261636B203D20446F75626C65D4
:100210002050720050726573730041626F757400F4
:10022000556C74696D6174655465737465720050C2
:1002300043422076322E31004A756E20313320320F
:100240003032360031373A34353A3533005765624B
:100250003A006769746875622E636F6D2F706B3139
:100260003772002F556C74696D6174655F546573E6
:10027000746572005465737420436F6D706F6E65A2
:100280006E7400487A003C4D656E75205465737439
:100290003E0050574D00405450320053717561720A
:1002A00065205761766500467265712E20436F7533
:1002B0006E7465720052204D6F6E69746F720043E8
:1002C000204D6F6E69746F72004C204D6F6E6974B3
:1002D0006F720052434C204D6F6E69746F72004F05
:1002E000666600436F6E74696E7569747900466C5A
:1002F0006173686C696768740050686F746F6469D3
:100300006F6465006E6F007265760044696F6465A6
:100310002F4C45440076312E35346D004D4F53003F
:10032000464554002D636800656E682E0064657054
:100330002E004947425400436773004E504E005010
:100340004E50006846450056626500565F475400AF
:100350004963656F00566600430056746800495F44
:100360005200565400567265660052682D0052685D
:100370002B0052692D0052692B002B526C2D002B43
:1003800052682D00313220313320323300433000A7
:100390005230005663630041436F6D70002331009B
:1003A0002332004964737300495F6C005264730028
:1003B000565F4753286F66662900455352004362D3
:1003C00065005274005231005232002D032D002D71
:1003D000012D002D022D002D06072D0066706E05E3
:1003E0006D006B4DEE59CB52AD4C6047BC42A43E04
:1003F000003BBF37D0342932C02F8C2D872BAC293E
:10040000F5275E26E52485233D220A21EA1FDC1E0E
:10041000DD1DED1C0A1C331B681AA719F0184118C2
:100420009B17FD166516D5154A15C6144714CD132E
:100430005813E7127B121312AE114E11F010000088
:10044000BA03870358032E030703E402C302A4027E
:1004500088028111530F940D260CF40AF00911093A
:100460005008A6070F0789061006A3053F05E404F8
:1004700091044304FC03B9037A033F030703D10249
:100480009E026D023E020F02E101B20182014E01A5
:100490000F010100080040000001000401020304F4
:1004A0000502104008208001020400010200000043
:1004B0000000000000000000000000000080F8F0D4
:1004C000E0C080F880000F070301000F0080F88073
:1004D000C0E0F0F880000F000103070F0080F8F87B
:1004E0000000F8F880000F0F00000F0F00E0100868
:1004F000080810E00019121E001E12190000F80072
:100500000000E02000403F0810081F100080F0109D
:10051000101010101000070404040404041010103C
:10052000101010F08004040404040407000000F814
:100530000402FE020070181710101F700002FE0265
:100540000002FE0200101F1010105F300002FE02B9
:10055000F002FE0200101F101F105F30000000E0CC
:100560001008F8080070181710101F70008040283D
:10057000F8284080000708507F5008070008F80856
:100580000008F80800101F1010105F300008F8086D
:10059000C008F80800101F101F105F300000000294
:1005A0000502000000000000000000000000000044
:1005B000000000000000000000000000000000003B
:1005C000FE00000000000000370000000000160ED2
:1005D0000000160E0000000000000000000020F8DF
:1005E0002020F8200000020F02020F020010284411
:1005F000FE840810000304081F08050200182424C4
:1006000098402010000402010C12120C0018A4E201
:10061000A2128C80000708101011120508000000BB
:10062000160E00000000000000000000000000F0B6
:10063000080402000000000304081000000000028B
:100640000408F00000000010080403000090A0C09F
:10065000F8C0A090000402010F0102040080808015
:10066000F080808000000000070000000000000013
:10067000000000000000000058380000008080806A
:10068000808080800000000000000000000000006A
:10069000000000000000000018180000000000002A
:1006A00080402010000402010000000000F8040255
:1006B000020204F8000708101010080700000804E0
:1006C000FE020000000010101F10100000180402AD
:1006D00002824438001814121110101C000E02423D
:1006E00062528A0600060810101008070080403E7B
:1006F0000000FC000003020202121F12007E221200
:10070000121222C6000408101010080700F8442234
:10071000121224C00007081010100807000E0282F1
:10072000C262321E0000001F000000000018A44238
:100730004242A418000708101010080700F804022D
:10074000020284F8000009121211080700000000DC
:1007500030300000000000000C0C00000000000021
:1007600030300000000000002C1C00000000804021
:10077000201008040000000102040810000040409E
:100780004040404000000202020202020000040851
:10079000102040800000100804020100001804022C
:1007A00002028478000000003601000000F008A476
:1007B000A4C408F00007081312110A090000F00889
:1007C0000402FE0200101F1202121F100002FE425D
:1007D0004242A41800101F101010080700F804026D
:1007E0000202041E00070810101008060002FE0294
:1007F000020204F800101F10101008070002FE4249
:1008000042F2020E00101F101011101C0002FE42D6
:1008100042F2020E00101F101001000000F8040246
:100820008282849E000708101108041F0002FE4205
:100830004042FE0200101F1000101F1000000202B4
:10084000FE020200000010101F1010000000000245
:1008500002FE0202000C1010100F00000002FEC287
:100860003008060200101F10030418100002FE02D8
:100870000000000000101F101010101E0002FE32B9
:10088000C032FE0200101F1001101F100002FE1ADD
:10089000E002FE0200101F1000131F1000F80402F7
:1008A000020204F800070810101008070002FE02F8
:1008B0000202847800101F110101000000F80402F8
:1008C000020204F8000708101012140B1002FE8236
:1008D0008282443800101F1001021C1000182442AC
:1008E0004242841E0006081010100807000E020283
:1008F000FE02020E000010101F1010000002FE0287
:100900000002FE0200000F1010100F000002FE0295
:100910000002FE020000030E180E03000002FE0299
:10092000F002FE020000071C0F1C070000021EF26E
:1009300040F21E0200101F1100111F100002FE8263
:100940000082FE02000000111F110000000E028252
:100950004222120E001E11101010101E0000FE0286
:100960000202020000003F2020202000000810208A
:1009700040800000000000000000010200000202B0
:100980000202FE000000202020203F00001008048A
:100990000204081000000000000000000000000039
:1009A0000000000000202020202020200000000067
:1009B0000E1600000000000000000000000090483B
:1009C000484890E0000708101008041F0002FE12BB
:1009D000080810E000101F081010080700E01008B9
:1009E00008081038000708101010080600E010086A
:1009F0000812FE020007081010081F1000E090887F
:100A0000888890E000070810101008040040F8449F
:100A10004202040800101F101000000000E010083F
:100A20000810F8080003244848443F000002FE2054
:100A30001008F00000101F1000101F100000080B1D
:100A4000FB000000000010101F1010000000000844
:100A5000080BFB000000304040403F000002FE80D9
:100A60004030081800101F1102040818000000028E
:100A700002FE000000000010101F10100008F8080F
:100A8000F008F00000101F001F001F100008F810F1
:100A90000808F00000101F1000101F1000E01008E0
:100AA000080810E000070810101008070008F810E8
:100AB000080810E000407F481010080700E0100808
:100AC0000810F8080007081010487F400008F820B8
:100AD0001008087000101F1000000000002050884F
:100AE000888810380006081010100906002020FE23
:100AF000202000000000000F1010100C0008F80863
:100B00000008F80800000F1010081F100008F8086F
:100B10000008F8080000030E180E03000008F8088B
:100B2000C008F80800000F180F180F00000838E080
:100B300080E0380800101F0100011F100008F808AD
:100B40000008F8080000274848443F00003808081B
:100B500088482818001C12111010101E0080403800
:100B6000040202000000010E10202000000000001E
:100B7000FE000000000000003F0000000000020234
:100B80000438408000002020100E0100000080F09A
:100B9000E0C08000000000070301000000FEFEEE40
:100BA000E60202FEFE1F1F1F171010171FFEE6E2CF
:100BB0007A3A82C6FE1F1110161713131FFEF6F2A3
:100BC000BABA0246FE1F1B13171710181FFCCC8C55
:100BD0003C3C8CCCFC1F19181E1E18191FF010105D
:100BE00010101010100F08080808080808F010D09E
:100BF000D0D0D0D0100F080B0B0B0B0B081010101F
:100C000010101070C00808080808080E03D0D0D0D3
:100C1000D0D01070C00B0B0B0B0B080E0300181874
:100C200018FEFEFEFC000C0C0C3F3F3F1FFCF8E0E2
:100C300080808080801F0F030000000000FF010201
:100C400003040506076F707172737475767778FF09
:100C5000FFFFFFFFFFFFFFFFFFFFFFFFFF1011126E
:100C6000131415161718191A1B1C1D1E1F202122DC
:100C7000232425262728292A2B2C2D2E2F303132CC
:100C8000333435363738393A3B3C3D3E3F404142BC
:100C9000434445464748494A4B4C4D4E4F505152AC
:100CA000535455565758595A5B5C5D5E5F6061629C
:100CB000636465666768696A6B6C6D6EFFFFFFFF52
:100CC000FFFFFFFFFFFFFFFFFFFFFFFFFFFFFFFF34
:100CD000FFFFFFFFFFFFFFFFFFFFFFFFFFFFFFFF24
:100CE000FFFFFFFFFFFFFFFFFFFFFFFFFF0FFFFF04
:100CF000FFFF05FFFFFFFFFFFFFFFFFFFFFFFFFFFE
:100D0000FF08FFFFFFFFFFFFFFFFFFFFFFFFFFFFEA
:100D1000FFFFFF09FFFFFFFFFF0AFFFF0BFFFFFFC2
:100D2000FF0CFFFFFFFFFFFFFFFFFFFFFFFFFFFFC6
:100D3000FFFFFF0DFFFFFFFFFF0EFFFFFF000000A3
:100D4000000000000000E0E00000008040201F00E4
:100D50007C8282820000C848488808080808FFFF93
:100D600014224180C00000000000000000001F129B
:100D7000120D0000000003030000010101027C00CD
:100D80007F49494100000000000000000000E0E051
:100D9000000000E0C0A01F00FE9292820000C84840
:100DA000488808080808FFFF14224180000000005E
:100DB0000000000000001F12120D000000000303DD
:100DC0000000000001027C003E4141410000008023
:100DD00080000000C0C000E0E040404040407F0094
:100DE000FE82827C00001F2028190000FFFF009C6B
:100DF0009C08081C3E08F8000000000000000101EB
:100E000001010101010100030301010101017F0052
:100E1000264949320000404040404040C0C000E008
:100E2000E04040404040FF004C92926400007C82D1
:100E3000A2640000FFFF009C9C08083E1C080F00F5
:100E4000000000000000000000000000010100039D
:100E50000301010101017F007F41413E000000804C
:100E600080000000C0C000E0E040404040407F0003
:100E7000FE82827C00001F2028190000FFFF00FF77
:100E8000FF08081C3E08F8000000000000000101F7
:100E900001010101010100030301010101017F00C2
:100EA000264949320000404040404040C0C000E078
:100EB000E04040404040FF004C92926400007C8241
:100EC000A2640000FFFF00FFFF08083E1C080F009F
:100ED000000000000000000000000000010100030D
:100EE0000301010101017F007F41413E000080407C
:100EF00040800000000000E0E08080808080FF00F3
:100F0000FE82827C00008F90948C80E0C08080FF05
:100F1000FF808080808080000000000000000000D2
:100F200000000003010000030300000000007F0038
:100F30002649493200008080808080C0E08080E0C7
:100F4000E08080808080FF004C9292640000F80472
:100F500044C80001030000FFFF8080808080800083
:100F6000000000000000000101000000000000037C
:100F70000300000000007F007F41413E00000000B0
:100F800000000000808000E0E000000080403F00A2
:100F90007C8282820000884848880808FFFF00FFA2
:100FA000FF14A2C1E00000000000000000000F10CC
:100FB000140C0000000000030300000000017E008C
:100FC0007F4949410000000000000000808000E0EF
:100FD000E00000C080403F00FE92928200008848FE
:100FE00048880808FFFF00FFFF142241810100002C
:100FF0000000000000000F10140C000000000003AF
:101000000300000000017E003E414141000000005D
:10101000000000000000000000FF00007C12127CB5
:10102000000000000000F00848D00000C1C3C7CF96
:10103000DFFFDFCFC7C3C1000000000000000809C8
:101040000908080808080402017F00003C424242E7
:1010500000000000000000000000C0C0C0C0C0C010
:10106000C0C0FFC0C0CFC0CFC0C0C00000E0109063
:10107000A00080E0F8FEFFFEF8E080838FBFFFBF96
:101080008F83800000111212111011110905030144
:1010900001017F01010179010101010000001090AF
:1010A000901010101010204080FF00007C12127C65
:1010B0000000000000000F10140D0000C1C3C7CFD6
:1010C000DFFFDFCFC7C3C100000000000000000049
:1010D0000000000000000000007F00003C4242428F
:1010E000000000000000404040408000000000E0A0
:1010F000E08080808080FF003E003E000000FE9285
:1011000092820005060708FFFF80808080808000B3
:1011100000000000000000000000000000000003CC
:101120000300000000007F00003E000000000000FF
:101130000000000000C0C060606060C0C00000002F
:101140000000000000000000000000000707008011
:10115000C0E070381F070000000000000000000021
:101160000000000000000073737300000000000026
:101170000000000000000000000000C000000000AF
:1011800000FE003E081422000000000000000000E5
:1011900000000081C1E1F1F9FDFFFDF9F1E1C18736
:1011A000000000000000000000000000000000003F
:1011B000007F007814147800000000000000000098
:1011C000000000000000000000FE00000000000021
:1011D000000000000000000000003C3CBDBDBDBDA3
:1011E000BDBDBDBDBDBDBD3C3C000000000000005C
:1011F0000000000000000000007F00000000000070
:10120000000000000000C040408000E0202070503E
:1012100050505070242E2420FE00000000001714AF
:101220001413101F1010FF0101010101FF848484B9
:101230008700000000000000000000000000030222
:1012400002020202232020007F00000000050A069F
:1012500005060A050A0609060A050A0609060A0518
:101260000A0609060A050A0605060A050A06050A07
:1012700006090A06090A0600000000000000000036
:10128000110A060011241FBECFEFD0E1DEBFCDBF93
:1012900011E0A0E0B1E0E0EBF0E902C005900D92B2
:1012A000A030B107D9F711E0A0E0B1E001C01D9274
:1012B000A33FB107E1F70E9462100C9456480C94CA
:1012C0000000982F8091A101981719F48091A40132
:1012D00008958091A201981719F48091A5010895AD
:1012E0008091A601089582E00E946C1F8FEE90E02D
:1012F0000E94A2208CEF90E00E94AC218EE08093AF
:10130000090181E00E945F2180919F018F5F80939E
:101310009F0108950E944D208091010182FF03C02A
:1013200088E293E002C08DE293E00E949420089549
:101330000E944D208091010180FF02C08EE401C017
:1013400080E50E94034684E293E00E949420089581
:10135000CF93DF938091BC01882309F462C00E947F
:101360002741EC010E94C5439C018091BD019091F1
:10137000BE018C509E4F8C179D0738F08091BF01A5
:101380009091C0012817390771F00E945043809155
:10139000BD019091BE010E9446438091BF01909192
:1013A000C0010E94CD438BE061E00E9457460E943D
:1013B0002E45882329F088EB91E00E94942006C0F6
:1013C0000E944D200E944D200E944D200E944D20E1
:1013D0000E946545882319F085EB91E006C00E94C4
:1013E0004C45882329F08CEB91E00E9494200FC09B
:1013F0008091BC01882339F088E50E94034688E586
:101400000E94034604C00E944D200E944D200E946D
:101410000E4380919C0190919D01BE010E942E443B
:1014200012C00E948345882371F00E94504380912E
:10143000BD019091BE010E9446438091BF019091F1
:10144000C0010E94CD43DF91CF910895CF93DF93E8
:1014500083E00E949D1B88EC8093950183E00E94AD
:101460009D1BEC018B5C9840835F9140C8F46091B8
:101470009A0170919B0180E090E023EC39E040E01C
:1014800050E00E940A479E0140E050E00E946947F8
:1014900030939B0120939A0180919301846003C053
:1014A000809193018B7F809393018EE10E949D1B1D
:1014B000909399018093980188EC809395018EE137
:1014C0000E949D1B2091E201332727FD3095280FB4
:1014D000391F309399012093980189E180939501F8
:1014E000DF91CF9108951F9381E061E00E945746FC
:1014F00080919C0190919D012BE0883B920710F414
:101500008CE005C02CE0843E920718F48DE01EE0CC
:1015100008C08B59904118F48DE01FE002C080E1B3
:1015200011E10E940346812F0E9403460E944D2034
:1015300080919C0190919D016AE070E00E94424779
:1015400080E090E04EEF26E50E94791F1F910895FC
:10155000FC018181608140E00E9436286091480151
:101560007091490180914A0190914B01409147014E
:1015700026E40E94791F08951F93162F0E940346A8
:1015800087ED93E00E949420812F0E9403460E94E1
:101590004D2060910E0170910F018091100190918A
:1015A000110140910D0124E00E94791F1F910895BF
:1015B0000E9483458130B9F40E9450430E94A546A1
:1015C00085E064E00E94574686E50E94034685EA6E
:1015D00091E00E9494200E944D2083ED91E00E94B2
:1015E00094200E94E7460E94A54681E00E946C1F5D
:1015F00083E991E00E94A2200E94E7460E94A5464E
:10160000F89488E10FB6F89480936000109260001F
:101610000FBE459883B7817F846083BF83B78160A5
:1016200083BF889583B78E7F83BF089586E00E942D
:101630009D1BA0E0B0E0BC01CD012EEB3FE040E0FF
:1016400050E00E940A4728EE33E040E050E00E945C
:10165000694780E12B39380718F0245D3E4F02C0FE
:10166000265F3F4F30939D0120939C0184E6809339
:101670009E01285B3B4050F40E94A5460E94730ADD
:1016800088EB9BE00E94FD160E94D80A08951F93E4
:10169000162F0E94512081E00E940346812F0E9454
:1016A00051201F9108950F931F93CF93DF93809143
:1016B000010180FF05C00091A3011091A20104C0A7
:1016C0000091A2011091A301802F612F0E944F2A47
:1016D000EC01009731F00E944D20802F612F0E9475
:1016E000470B8091010182FF3BC08091AA0190913C
:1016F000AB01892B81F08AE593E00E949E216091E5
:10170000AA017091AB01882777FD8095982F4DEF46
:1017100026E50E94292087E393E00E949E216091A4
:10172000B7017091B8018091B9019091BA014091CF
:10173000BB0126E40E94791F8091A8019091A90124
:10174000892B71F08CEA93E00E949E216091A801A0
:101750007091A90180E090E04EEF24E00E94791F93
:10176000209799F00E943A2181E00E9403460E944E
:101770004D2085E593E00E94C2206A817B8180E054
:1017800090E04DEF26E50E94791FDF91CF911F91E8
:101790000F91089580E00E94562081E00E9456201B
:1017A00082E00E9456208DE30E94034680E00E9462
:1017B000512081E00E94512082E00E945120089532
:1017C0008FE891E00E9494200E943A210E94CA0B67
:1017D00082E693E00E949E2160913701709138016A
:1017E00080E090E04DEF26E50E94791F85E593E0CB
:1017F0000E949E21609135017091360180E090E059
:101800004DEF26E50E94791F0895809100018232F4
:1018100019F485E891E002C089E891E00E949420E3
:101820000E943A210E94CA0B8091A8019091A901BF
:10183000892B71F08BE493E00E949E216091A801B6
:101840007091A90180E090E04DEF26E50E94791F9C
:10185000089582E393E00E9494200E9498090E94D8
:101860008A090E943A210E94CA0B0E94530B0895D4
:10187000EF920F931F93CF93DF93EC016091B2012E
:101880007091B3018091B4019091B5014091B6017E
:101890000AE010E020E030E057EFE52E0E946412ED
:1018A00087FD10C0CE010E949E216091B20170910F
:1018B000B3018091B4019091B5014091B60121E44A
:1018C0000E94791FDF91CF911F910F91EF900895A2
:1018D0008091010184FF05C08CE193E00E94942077
:1018E00003C08AE40E94034680E293E00E949420B1
:1018F0000E9498098091010184FF02C00E948A0918
:101900000E943A210E94CA0B0E94530B8091010150
:1019100083FF1EC083EA93E00E94380C8091AC01E3
:101920009091AD01892BA1F080EB93E00E949E2164
:101930000E943A210E944D206091AC017091AD014E
:10194000882777FD8095982F4DEF26E50E94292066
:101950000895EF92FF920F931F93CF93DF9380919F
:10196000010180FF0AC0CBE3D3E0E090A101F09039
:10197000A3010091A2011F2D09C0CFE3D3E0E090A5
:10198000A301F090A1011091A2010E2D81E891E038
:101990000E94C220CE010E9494208091010182FF0A
:1019A00003C08BE20E9403460E943A210E94CA0BA8
:1019B000812F602F0E944F2A892B31F00E944D20E9
:1019C000812F602F0E94470B8F2D6E2D49E10E94C1
:1019D000E624813049F40E943A2182E465E40E94C1
:1019E000BC0A84E08093260183E493E00E949E2158
:1019F0006091AE017091AF018091B0019091B10101
:101A00000E941C200E944D208091A70180FF02C0EF
:101A100085E603C081FF03C083E60E9403468E2D46
:101A20006F2D0E944F2AEC01009781F187E493E02B
:101A30000E949E212A813B81EC81FD81E090AE01D4
:101A4000F090AF010091B0011091B10144E6E416AD
:101A5000F1040105110598F0C9018E1B9F0B63E08D
:101A600070E00E9456474AEFE416F10401051105A3
:101A700018F4261B370B03C09B012E0F3F1FB90123
:101A800080E090E04DEF26E50E94791F80E593E02D
:101A90000E94380C8EEB93E00E949E216091B7016A
:101AA0007091B8018091B9019091BA014091BB0148
:101AB00026E40E94791FCDB7DEB7E6E00C94CE474E
:101AC000A1E0B0E0E6E6FDE00C94AE4780910501B0
:101AD000813059F4F09070016FE6A62E61E0B62EC9
:101AE00000E010E055E0E52E1EC1823039F510917E
:101AF0006F01D09075011D1549F4C0907001D09010
:101B0000760181E0898345E0F42E52C0F0907001A7
:101B100080917601F81659F4C12E3FE6A32E31E0EC
:101B2000B32E85010A5F1F4F25E0E22E00C1181772
:101B300009F0EEC0FD1409F0EBC034C0833041F56C
:101B400020E046E0249F50011124EFE6F1E0AE0EC4
:101B5000BF1E30E0349F8001112401591E4F23170E
:101B600041F0F5019181F8018081981711F425E089
:101B700035E03F5F333070F32F5F233018F32530AB
:101B800010F400E010E0F501F18093E0E92ECBC005
:101B90008FEC93E00E94C22080910501805D0E943D
:101BA0000346C8C0F12E198285E0C82E05E0D02E6C
:101BB0001330A0F4809170010E94562083ED93E0D1
:101BC0000E949420812F0E945620E12E1FE6A12E14
:101BD00011E0B12E85010A5F1F4F16C0E12EBFE64E
:101BE000AB2EB1E0BB2E85010A5F1F4FF50180814E
:101BF0000E9456208FEC93E00E9494208F2D0E942B
:101C000056200115110599F0EF1441F0F3E0FE158F
:101C100028F0F801F1808FEC93E004C0F801F08027
:101C200083ED93E00E9494208F2D0E945620F4E0D3
:101C3000FC1500F18C2D6D2D49E10E94E6248130C8
:101C4000C9F40E944D2082E08E1518F08FE393E0D6
:101C500002C08BE393E00E9494208FE30E9403462E
:101C60000E943A2191E3D90E8C2D8F5C6D2D0E943C
:101C7000BC0A198285E593E00E949E21F5016281EC
:101C8000738180E090E04DEF26E50E94791F0E946D
:101C90004D200115110501F5F501848195818A3FDB
:101CA000910568F488E20E940346F501648175811C
:101CB00080E090E00E941C2089E20E940346F5012A
:101CC000818160810E94781C81E00E948A2B8EE5D0
:101CD00093E00E94380C09C0F8016281738180E0B2
:101CE00090E04DEF26E50E94791FF981F13011F562
:101CF00088E593E00E949E21C5010E94A80A011573
:101D00001105C1F00E944D20C8010E94A80A12C00E
:101D1000AFE6AA2EA1E0BA2E85010A5F1F4FF5E0BB
:101D2000EF2EE5E0FE2E75E0C72E65E0D62E81E0B1
:101D300089835CCF2196EAE00C94CA47EF920F9317
:101D40001F93CF93DF93609156017091570180915B
:101D50005801909159010091480110914901209139
:101D60004A0130914B0140915501E09047010E949A
:101D70006412813019F4C3E5D1E002C0C5E4D1E0BA
:101D80006091640170916501809166019091670195
:101D90000B811C812D813E8140916301EA800E946C
:101DA0006412813011F4C1E6D1E088810E9456208E
:101DB0008BEC93E00E94942089810E9456200E941F
:101DC0003A216B817C818D819E814A8126E40E942B
:101DD000791FCE010E94C0288C018FEF0F3F18079A
:101DE00049F00E944D20B80180E090E04EEF24E0E1
:101DF0000E94791F8B859C85892B61F088EA93E08E
:101E00000E949E216B857C8580E090E04D8521E4D9
:101E10000E94791FDF91CF911F910F91EF9008954C
:101E2000A0E0B0E0E6E1FFE00C94A9478091040156
:101E3000813049F410910B01CC24DD249BE0A92EC4
:101E400091E0B92E65C0833059F082E1C82E81E05F
:101E5000D82E19EFA12E1FEFB12EAC0CBD1C4DC01A
:101E600060911501709116018091170190911801F0
:101E700000910E0110910F0120911001309111017C
:101E800040911401E0900D010E946412813019F418
:101E9000C2E1D1E002C0CBE0D1E060911C017091C1
:101EA0001D0180911E0190911F010B811C812D81CC
:101EB0003E8140911B01EA800E946412813011F43E
:101EC000C9E1D1E081E0CB30D80731F4B7E0AB2EE7
:101ED000B12CAC0EBD1E04C0ABE0AA2EA1E0BA2E00
:101EE000F7E0CF2ED12CCA0CDB1CCC16DD0629F472
:101EF000EEE0CE2ED12CCA0CDB1CF5011081F601D0
:101F00008081181729F08181181711F0F5011181CE
:101F1000F5018081811711F4F50181810E9456201D
:101F200087ED93E00E949420812F0E945620C114D7
:101F3000D10461F087ED93E00E949420F601808146
:101F4000811711F4F60181810E9456200E943A21E6
:101F5000F5016381748185819681428124E00E942C
:101F6000791FC114D10409F472C00E944D20F601FA
:101F70006381748185819681428124E00E94791F6A
:101F8000F5016381748185819681F6010381148155
:101F900025813681F5014281F601E2800E94EE1230
:101FA000582EF50163817481858196814281252DAA
:101FB0000E94C9123B014C01F60163817481858145
:101FC00096814281252D0E94C9127B018C01E60C6D
:101FD000F71C081D191DE114F1040105110509F490
:101FE0004AC082EC93E00E949E21C801B701452DB2
:101FF00024E00E94791F85EC93E00E949E2174E604
:10200000A72EB12CC12CD12CC401B30124E630E0A1
:1020100040E050E00E940A47A80197010E946947EA
:1020200079018A01C801B70140E025E20E94791FC9
:102030000E944D2088EC93E00E94C220AE18BF0899
:10204000C00AD10AC601B50140E025E212C0C501AF
:102050000E94DC32813079F40E944D206091EB01C6
:102060007091EC018091ED019091EE014091EA01B7
:1020700028E40E94791FCDB7DEB7EFE00C94C54786
:10208000809101018130C9F483E691E00E9494209F
:102090000E943A21809106010E9456200E94212030
:1020A0000E944D20609107017091080180E090E04E
:1020B0004DEF26E50E94791F0895823011F40E94A9
:1020C00073090895EF92FF920F931F93CF93DF93BD
:1020D00080E287B988B90E94DF3F0E944C4480E1CA
:1020E00085BF87E880937A0014B784B7877F84BF61
:1020F00088E10FB6F89480936000109260000FBEE4
:1021000081E08093930182E0809394010E94C63F16
:102110000E94D74613FF13C00E94A54682E00E948A
:102120006C1F87EE90E00E94A2208CE691E00E9456
:10213000AC2180ED97E00E94FD1645986DC180911D
:10214000930180FF05C08091940180628093940187
:102150000E94B346109220015A98529A5898509A69
:1021600081E061E00E945E1B82E00E946C1F8AECAD
:1021700090E00E94A22083ED90E00E94AC2184EFC9
:1021800091E00E94FD1610929F0189E180939501D4
:1021900081E0809396018093970184E893E1909386
:1021A0009B0180939A012FE088E190E00FB6F894AC
:1021B000A895809360000FBE20936000789416E687
:1021C000EE24E39403E022E0F22EC6E8D2E001C060
:1021D00015E6109200011092010110920201109276
:1021E000030110920501109204011092A7011092B0
:1021F000A9011092A8011092AB011092AA011092AD
:10220000AD011092AC011092AE011092AF0110928C
:10221000B0011092B1011092B2011092B30110926C
:10222000B4011092B501109236011092350110924E
:1022300038011092370110922B01E0922D0100938A
:10224000260111B8F09220010E94A5460E94260A9C
:102250000E94160B163609F4CEC00E94160B0E947F
:10226000730A81E00E946C1F0E943A218091230131
:102270008150809323018CED90E00E94A2208091F8
:1022800023018F5F809323010E94551E80910001DE
:102290008130E1F180E061E042E00E94411D81E097
:1022A00060E042E00E94411D80E062E041E00E9467
:1022B000411D82E060E041E00E94411D81E062E05A
:1022C00040E00E94411D82E061E040E00E94411D2B
:1022D0000E94011D0E941B2A80910001882311F099
:1022E0008A30A1F40E944D2083E40E94034682E0DC
:1022F00060E040E00E94362882E061E041E00E9418
:10230000362881E060E042E00E9436280E94A5461F
:1023100000932001529A5A9A84E190E00E94FD169F
:102320005A98809100018E3111F18F3160F48A301A
:1023300069F18B3018F4813079F513C08B3049F195
:10234000843151F511C08132D9F0823228F48F31B5
:1023500089F0803209F511C0823291F08332E1F4C4
:1023600012C00E9440101AC00E94600D17C00E9447
:10237000A90C14C00E94680C11C00E94290C0EC048
:102380000E94050C0BC00E94E00B08C00E94100FB9
:1023900005C00E949E0E02C00E9473098091000138
:1023A0008E3130F080912601882311F00E945F2148
:1023B000809100018A3010F010929F01109220014C
:1023C0000E942421D0932F01C0932E0188EB9BE023
:1023D0006EE30E948C13182F882329F480919F01AB
:1023E0008530C0F4F6CE833031F0823099F08530FC
:1023F00011F0853661F490E003C00E948216982F98
:10240000892F88568230C8F79836C1F6E1CE8736D4
:1024100009F0DFCE0E94D80A80E090E0CDB7DEB7A9
:10242000E6E00C94CE47AF92BF92CF92DF92FF923C
:102430000F931F93DF93CF9300D00F92CDB7DEB7EA
:1024400089836A834B836E010894C11CD11C860169
:1024500034E0A32EB12CAC0EBD1E802F8C19F801D8
:10246000F080FF2049F00E9456200E9421208F2DED
:102470000E9403460E944D200F5F1F4F0A151B0547
:1024800061F70F900F900F90CF91DF911F910F91F7
:10249000FF90DF90CF90BF90AF9008951F9311E011
:1024A0000BC02AE030E040E050E00E946947C901DB
:1024B000DA01BC01CD011F5F6A307105810591050C
:1024C00080F7812F1F9108956F927F928F929F9234
:1024D000AF92BF92CF92DF92EF92FF920F931F9332
:1024E0003B014C01F42E580169010E2D0E944E1241
:1024F000182FC601B5010E944E12611471048104A7
:10250000910491F1A114B104C104D10431F1EF2C73
:10251000E10E800F8E1534F1E81669F51E2D1F1996
:10252000E01A0BC0C601B5012AE030E040E050E0FF
:102530000E940A475B016C01E394E1169CF30BC017
:10254000C401B3012AE030E040E050E00E940A47B5
:102550003B014C011F5F1E159CF3A614B704C80471
:10256000D90410F481E008C06A147B048C049D0433
:1025700010F080E001C08FEF1F910F91FF90EF905E
:10258000DF90CF90BF90AF909F908F907F906F9093
:1025900008950F931F93142F022F9B01AC0117C0B6
:1025A000101754F4B901CA012AE030E040E050E0CD
:1025B0000E9469471F5F0BC0B901CA012AE030E0E1
:1025C00040E050E00E940A479B01AC0111501017F7
:1025D00039F7B901CA011F910F910895AF92BF92C7
:1025E000CF92DF92EF92FF920F931F93F42E580138
:1025F00069010E2D0E944E121F2D180FC601B50144
:102600000E944E128E0D811744F4812F8F19853050
:102610008CF04F2D4450480F10C0982F9E1918175A
:1026200034F495304CF04E2D4450490F06C01F191C
:10263000911714F44F2D01C0402F842F1F910F913B
:10264000FF90EF90DF90CF90BF90AF900895382F1C
:10265000E82FF92F01C031969E2F931B8491882378
:10266000D1F7892F0895681721F48AE20E94034662
:1026700008950E944D20089503C00E94F146A89538
:10268000369BFBCF84EF91E00E94FD160895FF92E8
:102690000F931F93F7B087B1877E87B90E94F746E3
:1026A00010E000E086B18095887111F420E00EC042
:1026B00084FD1F5F83FD0F5F802F810F8A3028F418
:1026C0008EE190E00E94FD16EDCF22E0112311F083
:1026D00094E001C090E0002321F09430D9F496E01A
:1026E00002C0992389F080912B01981741F4223080
:1026F00031F480912D01873018F48F5F01C081E0A3
:1027000080932D0180932C01F7B8892F1F910F9191
:10271000FF90089595E0E7CFA0E0B0E0E2E9F3E1B3
:102720000C94A8475C01162F81E080932C018091C6
:10273000940185FF04C068E7C62ED12C02C0CC24CA
:10274000DD2412FF08C08091930180FF03C0AA24FA
:10275000BB2401C01C7F15FF21C020912E01822FB8
:1027600090912F01FC0101C031969E2F921B849104
:102770008823D1F7915080912301981778F4E82E9F
:10278000E91A1C7F8E2D609124010E94574680918A
:102790002E0190912F010E94942001C0EE24C12FA0
:1027A000D0E053E0852E912C8C229D22811491043F
:1027B00009F496C081E00E946D4692C00E94A8096B
:1027C000A114B10451F086E0A816B10410F400E0A1
:1027D00004C08BEF9FEFA80EB91E36993AC082E372
:1027E00090E00E94FD1610E009C0369909C01F5FF5
:1027F0001B3130F48AE090E00E94FD160023A9F717
:102800001B3118F042E0F42E22C0209719F4FF2467
:10281000F3941DC082E390E00E94FD16FF24F39420
:1028200014E136990DC08EE190E00E94FD163699B4
:1028300007C088EC90E00E94FD1633E0F32E11E013
:1028400011508AE090E00E94FD16112351F700E03C
:102850003DC00E944713882311F0F82E54C085E034
:1028600090E00E94FD161F5F812F64E10E942947BE
:10287000992369F480919E01823020F081508093E9
:102880009E0105C06114710411F00E94160B1436EC
:10289000E9F44114510459F0013029F480E00E9418
:1028A0006D4602E004C081E00E946D4601E0C11463
:1028B000D10459F092E0C916D10420F427E6F22E93
:1028C00000E003C00894C108D10810E08091940191
:1028D00080FF16C0809194018E7F8093940113C075
:1028E000FF2401E010E092E0492E512C4C225D22A1
:1028F00080E1682E712C6C227D22C870D0705ECF72
:10290000002309F05BCF8114910419F080E00E944C
:102910006D46EE2041F08E2D609124010E945746B5
:1029200080E00E947C46F0922B0187E6F81611F4B5
:102930000E94D80A8F2DCDB7DEB7E0E10C94C447D2
:10294000A0E0B0E0E6EAF4E10C94A747362E3A01A5
:102950004901D0902401DA94FF24EE2402E04D2CAA
:102960004A94B82EC82ECA94A82EAD18502E5D18C1
:1029700081E0D81611F40F5FEF2CCE2DD0E0CC0FF4
:10298000DD1FC60DD71D10E02CC0612F6E5F81E0EA
:102990000E94574681E0D81629F0812F8E0D6F2DA9
:1029A0000E9433130230C0F081E0381629F4888188
:1029B00099810E94942007C0FE016591749180E086
:1029C00090E00E941C208114910419F0C4010E941F
:1029D000942080E00E947C461F5FC11608F41D2DE4
:1029E00022961D1590F281E0D81649F480912301BA
:1029F000609124010E9457468CE30E940346809117
:102A0000940185FF03C0C0EFD0E002C0C0E0D0E079
:102A10008AEF90E060E10E948C13182F0E94160B41
:102A20000E94730A209739F0C230D10518F41F2D87
:102A300001E049C02197112359F3113011F41F2DE2
:102A400048C0143019F41F2D01E01EC0812F15302D
:102A500019F01F2D01E033C0FF2039F4CD1408F424
:102A600044C0EA2C1C2D02E032C01F2D11501E154F
:102A7000E9F5EE20D9F1FD1410F4EE2401C0E50CC7
:102A800081E0F816D1F402E01C1531F41D1508F0B0
:102A90000F5F10E0EE241BC0912F9F5F842D8E0DE1
:102AA0009817A1F49C1590F48B2D891B8D1510F0AF
:102AB000E12E01C0EA2C0F5F09C08F2D02E08230A9
:102AC00041F0873621F40E94D80A01C0192FF12E57
:102AD0004FCF0E94A54684EF91E00E94FD16812F02
:102AE000CDB7DEB7E1E10C94C3471C2D01E0EFCF79
:102AF000A5E4B0E0EEE7F5E10C94B64788E991E093
:102B0000998F888F8BE2898384E792E09B8F8A8FED
:102B10008CE28A8385EB92E09D8F8C8F86E18B839C
:102B200083EE92E09F8F8E8F81E28C838EEE92E017
:102B300099A388A385E28D8382E992E09BA38AA36F
:102B400086E08E838BE992E09DA38CA387E08F8340
:102B50008AEB93E09FA38EA389E088878FEB92E0B6
:102B600099A788A787E1898789EC92E09BA78AA724
:102B70008BE18A8783ED92E09DA78CA78CE18B8700
:102B800087EA92E09FA78EA78AE08C8789EF92E080
:102B900099AB88AB87E28D878BE093E09BAB8AABE8
:102BA00089E28E8780E191E09DAB8CAB82E08F87DC
:102BB0008DE291E09FAB8EAB84E0888B8AE391E05D
:102BC00099AF88AF85E0898B87ED91E09BAF8AAFA5
:102BD0008EE28A8B8AE192E09DAF8CAF8DE28B8B87
:102BE0008FED92E09FAF8EAF84E18C8B0E94A54663
:102BF0000E94730A84E161E0AE01485E5F4F20E00D
:102C000030E00E94A014FE01E80FF11D8181CB5B32
:102C1000DF4FE2E00C94D247A9E0B0E0E2E1F6E158
:102C20000C94B547182F8DE993E09D838C8380EA3F
:102C300093E09F838E8383E791E0998788870E9442
:102C4000A546123019F480E291E002C08DE291E0D5
:102C50000E94942083E061E0AE014C5F5F4F20E072
:102C600030E00E94A01491E0998392E09A831B8245
:102C7000FE01E80FF11D6181662319F0812F0E948A
:102C80005E1B2996E3E00C94D1470F931F93CF93DB
:102C9000DF93082F882321F4C6E4D1E010E003C0BD
:102CA000CDE4D1E013E00E94401E8117A1F00E9404
:102CB000A54682E00E946C1FCE010E94A22084E5FE
:102CC00091E00E94AC210E94401E811731F488ECF3
:102CD00090E00E94FD1681E00AC084E690E060E189
:102CE0000E948C13013079F7882369F380E0DF912B
:102CF000CF911F910F91089588EB9BE065E10E94B1
:102D00008C1308951F930E947815982F809193013A
:102D100080FF05C0809194018F7D80939401892F5D
:102D200090E0FC013297ED32F10508F040C0E85C1C
:102D3000FF4F0C94DD4718E63BC00E943418182F53
:102D400037C081E00E940C1632C00E9493172FC03A
:102D50000E94FE3C2CC00E94F83B29C00E94B13B5F
:102D600026C00E94C73E23C00E94D80A20C00E94ED
:102D70007C3B1DC00E94143B1AC00E94DF3A17C062
:102D80000E94453A14C00E94EC3911C00E942334BD
:102D90000EC00E9459390BC00E941E3908C00E9403
:102DA000EC3605C00E942B3402C00E94F13411E0C1
:102DB0008091930180FF05C080919401806280938F
:102DC0009401112361F40E94A54681E00E946C1FCA
:102DD0008CE691E00E94A2200E947C160BC019365E
:102DE00049F40E94A54681E00E946C1F83E091E0B7
:102DF0000E94A220812F1F9108951F93BC01109261
:102E0000B1001092B20082E08093B0008093700015
:102E10000FB607FC1FC0789410E01DC0A8952F3F87
:102E200031054105510519F010F09FEF01C0922FB7
:102E300091509093B3009F5F6093B10002C0000077
:102E400000008091B1008823D1F7291B3109410985
:102E500051090CC011E080E090E024E130E040E056
:102E600050E00E940A479B01AC0167E02115310543
:102E70004105510599F6112309F4F8941F9108951D
:102E80001F920F920FB60F9211241092B1000F9063
:102E90000FBE0F901F9018958150860F089581ECFA
:102EA00090E09093D6018093D50187EE90E09093C7
:102EB000D8018093D7018CE190E09093DA01809360
:102EC000D9019093DC018093DB019093DE01809324
:102ED000DD0183E28093DF018093E0018093E101D3
:102EE0001092E2018AE08093E3018FEF8093E40186
:102EF0008CE09EEFAFEFBFEF8093E5019093E6018A
:102F0000A093E701B093E8010895E5EDF1E090E0CA
:102F10008191980F81E0E93EF807D1F7992309F4F0
:102F200091E0892F089581E0809320010E94A546B9
:102F300082E793E00E94C2206091D5017091D60192
:102F400080E090E04FEF24E00E94791F86E793E055
:102F50000E949E216091D7017091D80180E090E09D
:102F60004FEF24E00E94791F8DE893E00E949E219C
:102F70006091DF0170E080E090E00E941C200E94E0
:102F80004D206091E00170E080E090E00E941C2004
:102F90000E944D206091E10170E080E090E044EFFC
:102FA00026E40E94791F80E993E00E949E216091AF
:102FB000D9017091DA0180E090E04EEF20E00E94AC
:102FC000791F0E944D206091DB017091DC0180E04F
:102FD00090E04EEF20E00E94791F0E943A210E946B
:102FE0004D206091DD017091DE0180E090E04EEFB8
:102FF00024E00E94791F83E993E00E949E21609162
:103000009A0170919B0180E090E04DEF26E50E94CF
:10301000791F8091930182FF05C00E944D208AE2B2
:103020000E94034687E993E00E949E216091E3019C
:10303000772767FD7095872F972F4DEF26E50E9424
:1030400029208FEA91E00E949E216091E501709114
:10305000E6018091E7019091E8014AEF21E40E94A6
:1030600029200E947C160895A5E1B0E0EAE3F8E18A
:103070000C94A6470E945D430E94D7400E94CC401A
:1030800081E00E944516882319F47AE0872E01C05A
:1030900088240E94EB467724198A188A1B861A8690
:1030A00018861F82AA24BB24CC24DD241D8A1C8AF6
:1030B000442455241B8A1A8A66241F861E861D8670
:1030C0001C8619861E82222433241D8219821A82AC
:1030D0001B821C82CCC10E94A54681E40E9403464B
:1030E000882D805D0E9403460E944D209924939470
:1030F000B9C123E0821609F4A2C0281538F031E0E6
:10310000831671F1381508F456C00CC085E0881696
:1031100009F4D1C0881608F499C096E0891609F020
:103120006FC10CC1A1E09A1621F48FEA91E00E94D0
:1031300094200E94F1407B018C0189819A81AB81AE
:10314000BC818E0D9F1DA01FB11F89839A83AB8305
:10315000BC830E943A21C801B7014AEF21E428C08C
:1031600091E0991641F485E693E00E94C22087E938
:1031700093E00E9494200E942725AD81A80FAD8383
:103180000E943A216091E201772767FD7095872FB1
:10319000972F4DEF26E50E9429200E944D20609137
:1031A000E301772767FD7095872F972F4DEF26E571
:1031B0000E94292049C0B1E09B1641F480E993E0C8
:1031C0000E94C22084E893E00E94942081E060E0A5
:1031D0000E94781C80E00E94C2215C018639910522
:1031E00038F42E853F85280F391F3F872E8763943B
:1031F00082E060E00E94781C80E00E94C2216C01A5
:103200008639910538F48C859D858C0D9D1D9D8793
:103210008C87639482E061E00E94781C80E00E94C9
:10322000C2219D8B8C8B8639910508F0E9C0AA8557
:10323000BB85A80FB91FBB87AA876394E1C080E054
:103240000E94451664E6962E80E0DBC0B1E09B1636
:1032500021F482E793E00E94942012B8E1E0E1B902
:10326000F2E0FBB9FAB980E00E940F1C5C0122E099
:1032700021B930E13BB93AB981E00E940F1C6C01E1
:1032800084E081B990E49BB99AB982E00E940F1C56
:103290009D8B8C8BC5018C0D9D1DAF81B885A80FB2
:1032A000B91FEC89FD89AE0FBF1FB887AF83F985C1
:1032B000FD5FF987A5C021E0921621F486E793E02F
:1032C0000E9494201BB831E032B931B982E08AB94A
:1032D000A0909A01B0909B0180E00E940F1CA81A58
:1032E000B90A92E092B991B9A0E1AAB9C0909A0145
:1032F000D0909B0181E00E940F1CC81AD90AB4E04B
:10330000B2B9B1B9E0E4EAB920919A0130919B01D8
:103310003D8B2C8B82E00E940F1CAC89BD89A81BC1
:10332000B90BBD8BAC8BC5018C0D9D1D280E391EB4
:103330002A0E3B1EBE81BD5FBE8362C0E1E09E16C9
:1033400041F48DE893E00E94C22084E893E00E945B
:10335000942081E060E040E00E943628809147019F
:10336000843F89F480914C0190914D01A0914E01D0
:10337000B0914F0185369105A105B10520F45C019E
:10338000480E591E739482E060E041E00E943628A6
:1033900080915501843FA9F480915A0190915B017D
:1033A000A0915C01B0915D0185369105A105B10543
:1033B00040F46C012A893B89280F391F3B8B2A8BEB
:1033C000739482E061E042E00E94362880916301BC
:1033D000843FB1F48091680190916901A0916A01E4
:1033E000B0916B0185369105A105B10548F49D8B1F
:1033F0008C8BA889B989A80FB91FB98BA88B739436
:1034000081E011B812B81AB81BB88823B9F00E942D
:103410003A21B50180E090E00E941C200E944D20DE
:10342000B60180E090E00E941C200E944D20EC89B3
:10343000FD89BF0180E090E00E941C20F4E69F1609
:1034400081F088EE93E060E10E948C13882349F0BC
:10345000823029F454E6952E44E6842E02C034E6E8
:10346000932E939425E0291508F043CE839436E0FB
:10347000381508F030CE8FE0781611F0552419C0B9
:10348000C20165E070E00E9442476093DF018A89D3
:103490009B8965E070E00E9442476093E001888963
:1034A000998965E070E00E9442476093E1015524EC
:1034B00053949FE06916F9F48E859F8565E070E06E
:1034C0000E9442477093DA016093D9018C859D85F3
:1034D00065E070E00E9442477093DC016093DB017D
:1034E0008A859B8565E070E00E9442477093DE010B
:1034F0006093DD015394A985AF3009F06FC0BE81A0
:10350000BF3009F06BC08F81988565E070E00E9444
:1035100042478B01C10165E070E00E9442476B01A8
:1035200040919A0150919B01CA01880F991F840F05
:10353000951F801B910B861B970B4C01AA24BB2463
:1035400020E030E0C901B80120EA39E041E050E074
:103550000E940A47A50194010E946947B901CA0166
:103560006B5F7F4F8F4F9F4F2AE030E040E050E08D
:103570000E946947C901DA018A3F9105A105B10599
:1035800028F43093D6012093D5015394B60180E0FE
:1035900090E020EA39E041E050E00E940A47A501AE
:1035A00094010E946947B901CA016B5F7F4F8F4F39
:1035B0009F4F2AE030E040E050E00E946947C90197
:1035C000DA018831E1E09E07E0E0AE07E0E0BE0707
:1035D00028F43093D8012093D7015394FD81F5301E
:1035E00009F0552469817A818B819C8125E030E046
:1035F00040E050E00E948B47C901DA01B7FF03C0E9
:1036000044244A9402C0442443949C0197FF03C07D
:10361000309521953F4F79010027F7FC0095102F39
:10362000C801B70124E630E040E050E00E948B473B
:1036300059016A01C601B50124E630E040E050E0DE
:103640000E940A473B014C01DC01CB01C296A11D3F
:10365000B11D8E159F05A007B1075CF40894A11C4D
:10366000B11CC11CD11CC601B5010E940A473B0117
:103670004C01242D332727FD3095432F532FC401B0
:10368000B3010E940A476093E5017093E6018093BD
:10369000E7019093E8010E94D7400E94504324E044
:1036A000521611F080E006C00E94931782E00E943B
:1036B0000C1681E06596E2E10C94C2471F93CF930C
:1036C000DF93182F623019F4C5E1D0E002C0C0E0EA
:1036D000D0E00E9485178093E901123041F485ED16
:1036E00091E0BE0145E150E00E942E4822C085EDE8
:1036F00091E0BE0145E150E00E941E480E948517FE
:103700009091E9019923A9F0981799F00E94A54694
:1037100082E00E946C1F88E791E00E94A2208CE664
:1037200091E00E94AC2180ED97E00E94FD160E947E
:103730004F17DF91CF911F910895FF920F931F9321
:10374000182F1F71106410937C00012F007C809152
:103750009701081721F00E94FB4600939701809182
:103760007A00806480937A0080917A0086FDFCCF95
:10377000F09095017091960160E020E030E040E02B
:1037800050E021C080917A00806480937A0080911B
:103790007A0086FDFCCF8091780090917900A0E0BE
:1037A000B0E0280F391F4A1F5B1F643059F484E0D2
:1037B0002030380738F4003829F0713019F41F73BD
:1037C0001068C1CF6F5F6F15E8F2003829F460917F
:1037D00098017091990104C060919A0170919B01C8
:1037E00080E090E00E940A472AE0969587957795B9
:1037F00067952A95D1F72F2D30E040E050E00E94E8
:103800006947C9011F910F91FF9008951F93182FC9
:103810000E94F046812F0E949D1B1F9108951F93C7
:10382000182F0E94F246812F0E949D1B1F91089520
:10383000CF93DF938093C3016093C4014093C5018C
:10384000A82FB0E081EA94E0FC01EA0FFB1FE491AD
:10385000E093C901262F30E0FC01E20FF31FE49151
:10386000E093CA0150E0840F951FFC01849180937E
:10387000CB0184EA94E0FC01EA0FFB1FE491E093A2
:10388000CC01FC01E20FF31FE491E093CD01840F22
:10389000951FFC0184918093CE0187EA94E0FC019E
:1038A000EA0FFB1FE491E093CF01FC01E20FF31F4D
:1038B000E491E093D001840F951FFC0184918093E3
:1038C000D101CAEAD4E0AC0FBD1FFD018491809301
:1038D000D2012C0F3D1FF90164916093D301C40FF5
:1038E000D51FFE0184918093D401DF91CF9108957B
:1038F00043E0481B461B0E94181C08958091C60196
:103900006091C7014091C8010E94181C08958091E0
:10391000C3018093C6018091C4018093C701809147
:10392000C5018093C8010895EF92FF920F931F93F2
:10393000CF93DF93AC01613049F4E0E4F4E088EE2A
:1039400093E0C2E3D0E027E030E018C0623049F4F1
:10395000E4EEF3E08CE291E0C9E1D0E02CE230E06B
:103960000DC0633019F020E030E045C0E2E5F4E03E
:1039700088EC90E0C9E1D0E02EE130E0481759072B
:1039800018F400E010E003C08A01081B190BC801FD
:10399000BE010E944247862F90E02817390708F49D
:1039A000622F862F90E0880F991F8E0F9F1FFC01BA
:1039B000259134910296FC01E590F4902E193F096F
:1039C000C801BE010E944247AE01481B842F90E00F
:1039D000FC012E9FC0012F9F900D3E9F900D112442
:1039E0009E0136952795820F931FBE010E94424784
:1039F0009B012E0D3F1DC901CDB7DEB7E6E00C944B
:103A0000CE47909103019923E1F08091020180FD5E
:103A100018C081FD04C0809100018E3190F4909314
:103A20000001809132018093A10180913301809344
:103A3000A201809134018093A30180910A018093B7
:103A4000090108951F93182F60FF03C08BB1812BCC
:103A500003C09BB1809589238BB98AB1812B8AB928
:103A600063FF03C00E94F64602C00E94F1468AB17D
:103A7000912F909589238AB98BB198239BB91F9177
:103A80000895CF93DF93982F80910001813009F43E
:103A9000BEC0A895892F0E94181C1BB88091CA012E
:103AA0008AB98091CF0181B982B98091CB0160E15F
:103AB0000E94221D8091D3010E940F1CEC01809175
:103AC000CB019091CA01892B8AB98091D3010E94C0
:103AD0000F1C9C018091CA018AB92C173D0720F464
:103AE0002530310508F4E90123E0C13DD20708F192
:103AF0008091CB0161E10E94221D8091D3010E943F
:103B00000F1CEC018091CB018BB99091CA01892BDC
:103B10008AB98091D3010E940F1C9C011BB880912F
:103B2000CA018AB92C173D0720F42530310508F465
:103B3000E901C031D10538F080910201882319F4E0
:103B4000CE010E949D2C83E0C13DD80708F042C001
:103B5000809102018823D9F48091CA018AB91BB8E7
:103B60008091CF0181B982B90E94F2468091CB0148
:103B70009091CA01892B8AB98091D3010E940F1CB0
:103B80008F559D4020F082E0BE010E94E92E809179
:103B90000201882339F58091D00181B912B8809152
:103BA000CB019091C901892B8AB98BB98091D2013F
:103BB0000E940F1C80549640A8F40E94FB2B88237F
:103BC00089F480910001813269F081E0BE010E9498
:103BD000E92E08C080910201882311F40E947E2AF8
:103BE0000E94CB3080910001882311F08A3019F4B3
:103BF0000E94982208C08F3131F48091010184FF26
:103C000002C00E94632A11B812B81AB81BB8DF911B
:103C1000CF910895CF93DF930E94781C11B88091C3
:103C2000C9018BB99091CA01892B8AB98091D201BF
:103C30000E940F1CEC018091D3010E949D1B2091DA
:103C40009A0130919B0136952795B9016E517040CC
:103C50006C177D0778F4A901425E5F4FC417D50742
:103C600048F46817790730F420E08417950718F4B2
:103C700021E001C020E01AB8822FDF91CF91089592
:103C80000F931F9380E061E00E940A1E082F80E0DE
:103C900062E00E940A1E182F81E062E00E940A1E64
:103CA000100F810F1F910F9108956F927F928F9245
:103CB0009F92BF92CF92DF92EF92FF920F931F934A
:103CC000DF93CF9300D000D000D0CDB7DEB711B8CE
:103CD00012B81BB88AEF8AB980E00E949D1B9A83B4
:103CE000898381E00E949D1B9C838B8382E00E94DC
:103CF0009D1B9E838D83FF24F39408E2E02E12E047
:103D0000D12ECC243E010894611C711CB1E08B2E95
:103D1000912CD39483E0D81609F4DD240D2D10E006
:103D20008C2D90E00D2C02C0959587950A94E2F7B2
:103D300080FD70C0F801E655FB4FB4908B2D0E94BA
:103D40009D1B9C01F801EE0FFF1FE60DF71D808102
:103D500091812817390770F4318320838E2D90E0EC
:103D60008F199109449784F4EAEEEE1568F0F4E1B6
:103D7000EF0E0AC02A30310528F488E2E81611F463
:103D800070E5E72EF39402C0FF24F394233031054D
:103D900048F4C401002E02C0880F991F0A94E2F76C
:103DA000C82A0AC02052334038F481B1F801E955DD
:103DB000FB4FE491E82BE1B9F7E0CF1671F1EF1476
:103DC00020F581E08093000180930101D0920601EB
:103DD000F801E955FB4FE49181B1E095E823E1B9A1
:103DE000F801EC55FB4F24910F551B4FF8018491BE
:103DF0009AB1822B809589238AB98B2D0E949D1BB5
:103E0000909308018093070108C0A89582E390E091
:103E10000E94FD16FF2009F07CCF1AB811B8269633
:103E20000FB6F894DEBF0FBECDBFCF91DF911F91CB
:103E30000F91FF90EF90DF90CF90BF909F908F9069
:103E40007F906F900895EF92FF920F931F93E82E4B
:103E5000F62E11B812B81AB81BB80E94781C8091BF
:103E6000CF0181B98091D3010E949D1B8C0180916B
:103E7000D00181B98091D2010E949D1B08171907BA
:103E800020F48F2D6E2D0E94781C8091CF0181B976
:103E90008091CA018AB901E08091D3010E949D1BE3
:103EA0009C0181E02039380740F481B19091D00124
:103EB000892B81B92832310540F00F5F033329F097
:103EC00084E690E00E94FD16E7CF11B81AB81F9162
:103ED0000F91FF90EF90089560912401861710F0E4
:103EE00061E003C0681B66956F5F81E00E945746E2
:103EF00008959F92AF92BF92CF92DF92EF92FF927E
:103F00000F931F936B017C01042F922E15C085E047
:103F100090E0A0E0B0E0C80ED91EEA1EFB1EC7016B
:103F2000B6012AE030E040E050E00E946947C90154
:103F3000DA016C017D010F5F90E1C91697E2D906A5
:103F400090E0E90690E0F90610F7013F1CF4AA247E
:103F5000BB2423C0202F215F822F63E00E943547BE
:103F6000E82F822F63E00E943547B92E992349F448
:103F7000A8EECA16A3E0DA06A0E0EA06A0E0FA0678
:103F800020F0EF5F83E08B19B82EE83010F0AA2400
:103F900004C0F0E0E452FC4FA49009E311E0C60134
:103FA000B8014AE050E00E940848F8010190002062
:103FB000E9F78F010150104009531140E02E0B1911
:103FC00010165CF080E30E9403468EE20E940346D6
:103FD000002319F080E30E940346BB2009F40FEF91
:103FE0000150FF24C02EDD24C7FCD0940FC00F2D3C
:103FF00010E0F801E75CFE4F80810E9403460C153B
:104000001D0519F48EE20E940346F394FE1478F322
:10401000AA2019F08A2D0E940346992019F0892DB3
:104020000E9403461F910F91FF90EF90DF90CF9079
:10403000BF90AF909F90089540E020E00E94791FCC
:1040400008958AE30E94034608958DE20E94034684
:104050000895CF92DF92EF92FF920F931F937B010F
:104060008C01D42EC22E97FF0BC08DE20E94034616
:1040700010950095F094E094E11CF11C011D111DB8
:10408000C801B7014D2D2C2D0E94791F1F910F9152
:10409000FF90EF90DF90CF90089580E20E9403465A
:1040A00008950E9461090E94034608958F5C0E9452
:1040B000034608951F93182FE091090183E0E89FBC
:1040C000E02D1124F0E0E35BFD4EE60FF11D84913D
:1040D000882341F120912901215060912A01982FD4
:1040E00094FF04C0809128018695680F91FF04C059
:1040F000809127018F5F280F92FF04C080912801D3
:104100008150680F822F0E945746812F0E946109BB
:10411000883721F4812F0E94512004C0812F8F5CA9
:104120000E9403461F910895CF93DF93EC0103C0D3
:104130000E9403462196FE0184918823C9F7DF91EE
:10414000CF9108950F931F93182F092FFC0101C0E1
:1041500031969E2F911B84918823D1F78091230162
:10416000891710F481E003C0891B86958F5F6091E9
:1041700022010E945746812F902F0E9494201F9168
:104180000F9108950E94942080E20E9403460895B2
:10419000DF92EF92FF920F931F93F42ED22E09E33A
:1041A00011E0A8012AE030E00E94E347F801019005
:1041B0000020E9F78F010150104009531140E02E13
:1041C000FF2011F404E60DC00F1530F00F1911F0A7
:1041D000FF2407C0FF2401C0F01A80E30E940346B9
:1041E00000E010E014C0101751F48EE20E94034664
:1041F00004C080E30E940346FA94FF20D1F7E12F28
:10420000F0E0E75CFE4F80810E9403461F5F1E15B1
:1042100050F3DD2019F08D2D0E9403461F910F9160
:10422000FF90EF90DF90089583E00E947C4681E04C
:1042300063E00E945746089582E00E947C4681E038
:1042400062E00E94574608951F93109122018091C9
:104250002401181769F40E947C16812F0E947C4665
:1042600081E0612F0E94574684EF91E00E94FD1685
:104270001F9108951F9390912001609122018091D8
:1042800024016817B1F4192F90FF02C00E947C1618
:1042900011FF0CC01091240104C0812F0E947C46A4
:1042A00011501230D0F781E062E005C00E94A546AF
:1042B00004C06F5F81E00E9457461F9108951F93CD
:1042C000382F9091280120912401892F8F5F281782
:1042D00098F140912301403118F0930F921738F074
:1042E000209322010E943A2132E083E004C08091B1
:1042F0002701481B842F8093290130932A011091B4
:1043000022018091A10160E00E945A208091A201C7
:1043100061E00E945A208091A30162E00E945A202D
:104320008091290160912A010E94574680910901DC
:104330000E94D445109322011F9108950F931F935B
:104340008C010E943A21C8010E94942080E20E94C0
:1043500003461F910F9108950F931F938C010E94A4
:104360003A21C8010E94A2201F910F9108950F9336
:104370001F938C010E943A21C8010E9494201F9132
:104380000F910895A0E0B0E0E8ECF1E20C94A947A9
:10439000582E0E94551E80910001813019F400E0D2
:1043A00010E0B2C012B88091D00181B98091C901EA
:1043B0008BB98AB90E94F14661E0662477244301F3
:1043C000862F90E0EC01C170D07060FF03C0809137
:1043D000D20102C08091D301A895806880937C00AF
:1043E0000E94FB4680917A00806480937A008091DD
:1043F0007A0086FDFCCFAA24EE24FF248701809159
:104400007A00806480937A0080917A0086FDFCCFE8
:104410008091780090917900A0E0B0E0E80EF91E5C
:104420000A1F1B1F0E94F846A39484E6A81639F7BA
:10443000209198013091990140E050E0C801B70106
:104440000E940A477B018C019AE016950795F79424
:10445000E7949A95D1F762E0CD2B09F45BC0C701D0
:10446000D8013C014D01ACCF60919A0170919B0144
:1044700080E090E024E630E040E050E00E940A470F
:1044800066197709880999090E940A475B016C013E
:104490006E187F08800A910AC401B30128EE33E048
:1044A00040E050E00E940A477B018C012091D70137
:1044B0003091D8012057354E40E050E0C601B5019B
:1044C0000E946947C801B7010E946947890181E0DC
:1044D0005816B9F48091C3016091C4010E944C1731
:1044E000E82FF0E0EE0FFF1FE752FE4F0190F08142
:1044F000E02DE017F10718F40E1B1F0B02C000E0BF
:1045000010E080E880939701C801CDB7DEB7EFE0F7
:104510000C94C5471BB88091CF019091D001892B95
:1045200081B9E614F7040805190508F49DCFE7CF13
:10453000A0E0B0E0EEE9F2E20C94A747A89512B82B
:104540008091D00181B98091C9018AB98BB98091DC
:10455000D3010E940F1C7C018091D2010E949D1BFF
:104560004C011BB88091CC018AB98091D2010E9484
:104570000F1C459708F025C28091CC018BB9809122
:10458000D2010E940F1C2C018091CF0181B982B908
:104590001BB88091CA018AB98091D2010E940F1C78
:1045A0008C018091D3010E949D1B3C018091CD0123
:1045B0008AB98091D3010E940F1CEC0120E382167E
:1045C00021E1920628F482E64816510408F0F9C168
:1045D0002CE6421623E1520608F0F3C189EA681678
:1045E000710408F06EC0C632D10508F4EAC1B20108
:1045F00080E090E020EF3BE247E050E00E940A4775
:10460000E0909A01F0909B0197012419350940E050
:1046100050E00E94694759016A01EC1AFD0A00E066
:1046200010E0C801B70120EF3BE247E050E00E94F4
:104630000A479E0140E050E00E946947B901CA0163
:104640002EED421623E0520670F442E0AA0CBB1C89
:10465000CC1CDD1C4A95D1F7A60EB71EC81ED91E6C
:10466000C601B5010EC0CE5DD340B0F432E0660F96
:10467000771F881F991F3A95D1F76A0D7B1D8C1DF6
:104680009D1D25E030E040E050E00E946947C901EF
:10469000DA01BC01CD0108C06A0D7B1D8C1D9D1D7A
:1046A0009695879577956795625A7E4F8F4F9F4F66
:1046B0002AE030E040E050E00E940A473B014C0114
:1046C000A0C08E149F0408F490C00615170508F4C6
:1046D0008CC0C0919A01D0919B018C169D0619F453
:1046E0000894810891082091D7013091D801205772
:1046F000354E40E050E0B4016E197F0980E090E053
:104700000E940A47C819D9099E0140E050E00E9462
:10471000694759016A012091D5013091D60120578E
:10472000354E40E050E006191709B80180E090E0EE
:104730000E940A47930140E050E00E9469477901D6
:104740008A018EED881683E0980640F492E0AA0C68
:10475000BB1CCC1CDD1C9A95D1F715C02EED621642
:1047600023E07206B8F588EFE81684E2F80681E0E7
:10477000080780E0180790F482E0EE0CFF1C001F91
:10478000111F8A95D1F7AE0CBF1CC01ED11EC601E9
:10479000B50125E030E040E050E015C0C801B701A8
:1047A000B3E0660F771F881F991FBA95D1F76E0D7A
:1047B0007F1D801F911F6A0D7B1D8C1D9D1D2AE092
:1047C00030E040E050E00E946947C901DA013C0155
:1047D0004D0117C0350146016E0C7F1C801E911ED5
:1047E00096948794779467940CC02FE8621622E120
:1047F000720608F4E2C0FAE06F2E712C812C912C25
:1048000006C084E6681671048104910478F581E09D
:104810000E94C2217C0100E010E0C401B301660FD8
:10482000771F881F991F25E0621671048104910487
:1048300020F4660D771D881D991D2AE030E040E0C8
:1048400050E00E940A47611571058105910521F428
:1048500064E670E080E090E0E616F70608071907C6
:1048600028F4370148015EEF552E02C055245A94B2
:1048700020E047E0342E3AE0432E81C0239DE00142
:104880001124C55FDE4F98818091C301981709F00C
:1048900073C099818091C401981709F06DC0C4015B
:1048A000B301452D02E010E020E030E0EE240E944C
:1048B00064128F3F91F56B817C818D819E814A814D
:1048C00002E010E020E030E00E9464128F3FF1F43B
:1048D0004A81451519F0FF24FA9402C0FF24F3948D
:1048E0006B817C818D819E8194018301E52C0E94E6
:1048F00064128F1531F46B807C808D809E805A808D
:1049000005C06B827C828D829E825A826401530133
:10491000D694C794B794A7940CC0C401B30124E102
:1049200030E040E050E00E946947C901DA015C01D3
:104930006D016B817C818D819E81940183010A19B7
:104940001B092C093D094A81E52C0E94641287FD50
:1049500015C06B817C818D819E81A60CB71CC81C03
:10496000D91C4A81960185010E946412181634F000
:104970004092000124E603C02F5F01C028EC909113
:104980000401291708F47ACF2436D9F09330C8F4FB
:10499000E7E09E9FF0011124E55FFE4F8091C40186
:1049A00080838091C3018183638274828582968231
:1049B00052829F5F9093040104C0662477244301D0
:1049C00026CFCDB7DEB7E1E10C94C347EF920F934A
:1049D0001F93142F109204010E94781C0E949822A9
:1049E00080910401813011F090E017C01123A1F0F3
:1049F000612F70E080E090E000910E0110910F01B6
:104A0000209110013091110143E0E0900D010E94CE
:104A1000641290E0813009F491E0892F1F910F9189
:104A2000EF900895982F813110F480E0089591510E
:104A300015BC82E084BD97BD81E0089516BC81E07D
:104A400085BDA99BFECF15BC82E085BB0895A0E083
:104A5000B0E0EDE2F5E20C94B0470F983F9A47982A
:104A600000E087E00E949D1B039708F47EC00F5F63
:104A700084E190E00E94FD16033399F770C086B37D
:104A800085FD09C080FFFBCF96BBA89521962FE03E
:104A9000C03AD207A1F71092810080E286BB3F980E
:104AA000B09B02C081E086BB87E980937A00809149
:104AB0007B008F7B80937B0087E00E949D1B6C01B5
:104AC00047983F9AC05ADF4008F049C087E00E94EB
:104AD0009D1B855D9340D0F73F981092960187E02B
:104AE0000E949D1B8C0181E08093960187E00E94CB
:104AF0009D1B7C013F9A9801281B390BC09198019E
:104B0000D0919901C90104960997E8F0B901882765
:104B100077FD8095982F9E0140E050E00E940A4763
:104B2000970140E050E00E948B478091E201820FA4
:104B30008093E201332727FD3095C20FD31FD09316
:104B40009901C093980196012C1B3D0BC901C19698
:104B50008336910510F42093E30181E001C080E0E9
:104B6000CDB7DEB7E8E00C94CC4780E480937B00BF
:104B700084E480BF87E480937C0087E080937A00A0
:104B80000E94FA46109280001092810010928500D7
:104B90001092840087E286BB81E080938100479A6F
:104BA000C0E0D0E091E06BCFA0E0B0E0EAEDF5E24C
:104BB0000C94B147EC010E94551E80910001813098
:104BC00011F480E0EEC01BB897E091B912B8809163
:104BD000CC018AB980E480937B0084E480BF80911B
:104BE000D201806480937C0090937A000E94FA4600
:104BF0001092800010928100109285001092840023
:104C000087E286BB4091CC014BB9809100018F3186
:104C100029F49091CF019095977002C09091D001A6
:104C200081E08093810091B960E070E091E086B30B
:104C3000E82F85FD0AC080FFFACF96BBA8956F5F6D
:104C40007F4F8FE0603A780791F71092810080E201
:104C500086BB20918600309187001AB8809184002D
:104C6000909185002817390730F4E0FF04C081E0F7
:104C700086BB6F5F7F4F87E980937A0080917B00CE
:104C80008F7B80937B001BB84AB99FE0603A79071D
:104C900010F081E086C040E050E0CB01A0E0B0E041
:104CA0008C01FF24EE24E22AF32A042B152BA3E027
:104CB000EA16F1040105110500F18EEF9FEFAFEF49
:104CC000BFEFE80EF91E0A1F1B1F98E3E91699E8CB
:104CD000F90691E4090790E0190778F0C801B701D7
:104CE00028EE33E040E050E00E946947C901DA0154
:104CF0007C018D0197EFD92E02C084EFD82E8091D0
:104D0000E301992787FD90952091980130919901B1
:104D1000820F931F61E00E94941CA0E0B0E0BC01F0
:104D2000CD01A80197010E940A4720ED37E040E03D
:104D300050E00E94694779018A01A4EFDA1619F060
:104D4000A80197011EC08091C3016091C4010E9417
:104D50004C17E82FF0E0EB52FE4F828590E0A0E088
:104D6000B0E0E816F9060A071B0728F420E030E057
:104D700040E050E006C0A8019701281B390B4A0B00
:104D80005B0B8091C40188838091C3018983DA829F
:104D9000EF82F88609871A872B833C834D835E83D5
:104DA00083E0CDB7DEB7E7E00C94CD47A0E0B0E0FC
:104DB000ECEDF6E20C94A8473C0183E0B82EB1E19B
:104DC0009B2E0E94551E80910001813011F4882491
:104DD00047C112B88091D00181B98091CA018BB9C5
:104DE0008AB98091D2010E949D1B7C018091D301E0
:104DF0000E949D1BE81AF90A1BB81AB8CC24DD24BE
:104E00000894C11CD11C8091C901692D0E94221DEA
:104E10008091D2010E949D1BE816F9061CF0C0E0AB
:104E2000D0E003C0EC01CE19DF092EE7C216D10491
:104E300021F480E0CB34D10508F081E091E0CC3260
:104E4000D90708F080E0E4EFCE16E1E0DE0609F4D1
:104E500080E0A8958823A1F6F1E0CC32DF0710F4BA
:104E6000BB24B39421E0C216D10461F485E0C531BE
:104E7000D80740F0892DA9E09A2E84FDA2CFF2E058
:104E80008F2EEEC08B2C93E0B91619F000E010E0E5
:104E900037C0860180E090E00FC08091D2010E946F
:104EA0009D1BE816F9061CF080E090E002C08E1908
:104EB0009F0901501040A8950115110571F78C1735
:104EC0009D0718F000E010E007C08E01081B190BC9
:104ED0000536110508F0BB248091D2010E949D1B6C
:104EE0007C0194FE03C00E94E64602C00E94EB468D
:104EF0008091D2010E949D1B8E159F0520F08B2C66
:104F00004424552404C02701481A590A8B2CE3E095
:104F1000BE1609F0A5C0C8018C0F9D1F62E00E945B
:104F2000941CA0E0B0E0960140E050E0BC01CD014F
:104F30000E940A475B016C01C92DD0E08E0100710F
:104F4000107094FE08C02AE030E040E050E00E947B
:104F50000A475B016C01F8E3AF16F9E8BF06F1E41C
:104F6000CF06F0E0DF0618F4E7EF9E2E0EC0C60174
:104F7000B50128EE33E040E050E00E946947C901E6
:104F8000DA015C016D017AEF972EC601B50128EEBA
:104F900033E040E050E00E940A47012B29F022E470
:104FA00034E040E050E004C020E134E040E050E074
:104FB0000E946947C901DA017C018D018091C40119
:104FC000F30180838091C30181839282A782B0869E
:104FD000C186D286E382F482058316830DC0C801A0
:104FE000B7012AE030E040E050E00E946947C90183
:104FF000DA017C018D019394F1E0EF16F5E3FF06F1
:10500000FCE00F07F0E01F0750F7C3FD93949201F7
:1050100040E050E0C801B7010E940A4728EE33E0A3
:1050200040E050E00E946947C901DA01BC01CD01AE
:105030000BC02AE030E040E050E00E946947C9011F
:10504000DA01BC01CD019394603020E0720721E0C9
:10505000820720E0920768F7F301748763879586DB
:10506000882DCDB7DEB7E0E10C94C447A0E0B0E0F6
:10507000ECE3F8E20C94AE47B82EA62E8EE0489FE3
:105080006001112485E491E0C80ED91EF60110825A
:10509000118284EF82831782108611861286138212
:1050A0001482158216821486138680910001813045
:1050B00009F461C08A3041F5FF24CBE0D1E01DC086
:1050C00098819B1519F489818A1529F09A1599F40C
:1050D00089818B1581F46B817C818D819E814A81D0
:1050E0000AE010E020E030E0EE240E9464128F3FDE
:1050F00011F493E6F92EF394279680910401F816A3
:10510000F8F2F4E6FF16B9F58B2D6A2D0E944F2AAE
:10511000FC01009729F0828193818C5D954058F1C4
:105120008B2D6A2D0E94781CC6010E94D6268230E3
:1051300019F4C6010E94D425809100018431A8F49D
:10514000F60192818A3019F49A3F7CF00BC0953FAA
:105150004CF4F60183819481A581B6810597A10560
:10516000B10518F08BE0809300010E94551E11B824
:1051700012B81AB81BB8CDB7DEB7EAE00C94CA472C
:10518000A4E0B0E0E6ECF8E20C94A6479C838B83A5
:10519000009709F449C1FC0163817481858196817E
:1051A00042810AE010E020E030E057EFE52E0E9457
:1051B000641287FD39C10E94551E80910001813023
:1051C00009F432C1EB81FC81808161810E94231F3F
:1051D000EB81FC81808161810E94781C4090D2012A
:1051E0003090D301F0E84F2A3F2A15BC82E084BDFD
:1051F00085E387BD12B840927C000E94F14612E31D
:10520000812E912C60E070E022242A94B1E0AB2E34
:10521000B12CC12CD12CA1E0EA2EF12C012D112DA5
:10522000F7ED5F2EA8956233710558F48091D00197
:1052300081B98091C9018BB98AB90E9404471AB813
:105240001BB882E38816910458F48091CF0181B98C
:105250008091CA018BB98AB90E9404471AB81BB859
:105260008091CF0181B98091C9018BB98AB94092EF
:105270007C0050927A0080917A0086FDFCCF50929B
:105280007A0080917A0086FDFCCFE0917800F09161
:105290007900FA83E98330927C0050927A00809101
:1052A0007A0086FDFCCF50927A000E9400470E944F
:1052B0001E258091CA018BB98AB90E9404471AB889
:1052C00080917A0086FDFCCF8090780090907900E4
:1052D0008091D00181B98091CA018BB98AB930928D
:1052E0007C0050927A0080917A0086FDFCCF50922B
:1052F0007A0080917A0086FDFCCF609078007090F3
:10530000790040927C0050927A0080917A0086FD6C
:10531000FCCF50927A000E9400470E941E25809187
:10532000C9018BB98AB90E9404471AB880917A00E2
:1053300086FDFCCF6091780070917900C301A0E0F8
:10534000B0E0E981FA819F0140E050E0820F931FB5
:10535000A41FB51FA80EB91ECA1EDB1ECB01A0E0FC
:10536000B0E0940140E050E0820F931FA41FB51FEE
:10537000E80EF91E0A1F1B1F2A9409F053CF11B81B
:105380001BB8AE14BF04C006D10608F045C080911A
:10539000D5019091D6019C01E3E0220F331FEA95DD
:1053A000E1F7880F991F280F391F40E050E0EA18F5
:1053B000FB080C091D09C801B7010E940A47A60194
:1053C00095010E94694789018091C3016091C401E0
:1053D0000E944C17E82FF0E0EE0FFF1FE752FE4F40
:1053E000208131812017310718F4021B130B16C0DE
:1053F000EB81FC816381748185819681428108EE15
:1054000013E020E030E05AEFE52E0E9464121816F7
:105410001CF400E010E002C00FEF1FEF80E8809363
:1054200097010E94551E02C00FEF1FEFC80124967E
:10543000E2E10C94C247809100018032F1F08132A8
:1054400028F48E3141F08F3141F40BC08132E9F004
:10545000843218F416C022E411C020E090E080E00D
:1054600017C08091010186FD04C027E494E483E520
:105470000FC027E498E788E70BC027E493E485E4AE
:1054800007C027E491E483E403C027E492E381E3C7
:105490002093A4019093A5018093A6010895282F3D
:1054A00090910501EFE6F1E008C08081281719F41A
:1054B0008181681731F0915036969923B1F7E0E079
:1054C000F0E0CF0108958091010180FF05C0609157
:1054D000A3018091A20104C06091A2018091A30167
:1054E0000E944F2A892B49F010920001109201016D
:1054F000809102018E7F809302010895EF92FF92C6
:105500000F931F93CF93DF938091D2010E949D1B35
:10551000EC018091D3010E949D1B7C018091D401FC
:105520000E949D1B8C0111B88091CF0182B980919E
:10553000CE018BB99091CA01892B8AB982E390E0A0
:105540000E94FD168091CF0181B98091D3010E9404
:105550009D1B0A97F8F483E2809303018CE080930B
:105560000A018091C501809332018091C30180932B
:1055700033018091C40180933401CE018E199F09BB
:105580009093360180933501C01BD10BD093380125
:10559000C0933701CDB7DEB7E6E00C94CE47A0E06C
:1055A000B0E0E5EDFAE20C94AE47B82E21E08217A8
:1055B000E1F48091CF0181B982B99091CB018091C2
:1055C000CA01892B8AB99BB98091D3010E940F1C13
:1055D000EC0100919A0110919B018091D4010E94ED
:1055E0009D1B9801281B390B1AC012B88091D0015D
:1055F00081B98091C9018BB99091CB01892B8AB96E
:10560000C0919A01D0919B018091D2010E940F1C00
:10561000C81BD90B8091D4010E949D1B9C012115B0
:10562000310511F421E030E0CE01821B930BB9016A
:105630000E9442476B01EE24FF242031310508F01F
:1056400062C031E0B316D9F48091CE019091CA01C5
:10565000982B9AB98BB98091D3010E940F1CEC0151
:1056600000919A0110919B018091D4010E949D1B91
:10567000081B190BA090D501B090D60119C08091DC
:10568000CE019091C901892B8AB9C0919A01D0911C
:105690009B018091D2010E940F1CC81BD90B8091E5
:1056A000D4010E949D1B8C01A090D701B090D8011D
:1056B0000115110511F401E010E0BE0180E090E059
:1056C00020EF3BE247E050E00E940A47980140E0AB
:1056D00050E00E946947CA01B9012AE030E040E089
:1056E00050E00E940A4720E93AE1A20EB31E95015C
:1056F00040E050E00E946947C216D306E406F50672
:1057000010F469017A01B601C701CDB7DEB7EAE04E
:105710000C94CA47DF92EF92FF920F931F93D82EFB
:105720001BB88091CA018AB98091CF0181B982B931
:105730008091D3010E940F1CBC018430910550F16F
:105740008091D5019091D6017C0100E010E085E0C8
:105750006937780780F091E0D91669F41AB880911A
:10576000D0019091CF01892B81B98091D3010E9402
:105770009D1BBC0108C080E99AE1A0E0B0E0E80E02
:10578000F91E0A1F1B1F29EFD22E20EA36E841E03E
:1057900050E015C08091CD018AB98091D3010E945B
:1057A0000F1CBC0197EFD92E20E432E44FE050E00B
:1057B00080EFE82E8BE2F82E87E0082F112D11B82C
:1057C00012B81AB81BB880E090E00E940A47A801FE
:1057D00097010E9469472093B2013093B30140932F
:1057E000B4015093B501D092B6011F910F91FF9073
:1057F000EF90DF900895A0E0B0E0E1E0FCE20C94CF
:10580000B0478091D4010E949D1B7C018091D301FF
:105810000E949D1B6C018091CB0160E10E94221DC2
:105820008091D2010E940F1C8C011BB80E94F2468D
:105830008091C9018BB98091D2010E940F1C26E092
:105840000034120708F05FC08153914108F45BC037
:105850001AB81BB88091D00182B90E94F24680919B
:10586000C9018AB98091D2010E940F1C853F910520
:1058700008F049C08091CB0160E10E94221D809117
:10588000D2010E940F1CEC0182E0CD3DD80760F4EC
:1058900082E2809300018091020181608093020185
:1058A0008AE08093090135C08091C9018BB90E94BB
:1058B000F2461BB88091D2010E940F1C853F9105D2
:1058C00010F580910001813229F4809102018160FC
:1058D0008093020181E2809300018BE080930901B3
:1058E0008091AE019091AF018C179D0720F5CE01FC
:1058F000A0E0B0E08093AE019093AF01A093B0011F
:10590000B093B10106C080E0CDB7DEB7E8E00C94FB
:10591000CC478091C5018093A1018091C301809300
:10592000A2018091C4018093A301EC18FD08F092BC
:10593000A901E092A80181E0E7CFA0E0B0E0E3EAAE
:10594000FCE20C94AC478B5E914020F458E2C52EEB
:10595000D12C04C048EEC42E41E0D42E8091CE015B
:105960009091CA01892B8AB98091D3010E94061CAB
:105970007C018091CE018BB98091D3010E94061CDD
:105980004C01C7018C0D9D1D8815990508F06AC052
:105990008091CB018AB98BB912B88091D00181B9BD
:1059A0008091D4010E94061C11B8C3978958924077
:1059B00028F010E086E0E816F10408F411E0809188
:1059C000CF0181B98091D4010E94061CEC01809125
:1059D000D2010E949D1B11B88C179D0730F4C81B83
:1059E000D90BC25CD14008F411E08091D00182B99A
:1059F00081B98091CE019091C901892B8AB91BB8D8
:105A00008091D2010E94061C5C018091CE018BB96D
:105A10008091D2010E94061CEC0112B88091D00145
:105A200081B98091CE019091C901892B8AB98BB936
:105A30008091D4010E94061C88549F4028F089E17F
:105A40008093010184E006C0112361F489E2809310
:105A5000010186E08093090184010E191F09CA190A
:105A6000DB0977C012B88091D00181B98091CE0155
:105A70009091C901892B8AB98BB98091D2010E947A
:105A8000061C8C018091C9018BB98091D2010E94C2
:105A9000061C7C018C0D9D1D8017910708F009C123
:105AA000C0919A01D0919B018091CB018AB91BB81A
:105AB0008091CF0181B982B98091D4010E94061CE6
:105AC00012B88D5C90418958924028F0BB242C97E5
:105AD0000C171D0710F0BB24B3940E191F098091F9
