:100000000C942C080C9449080C9449080C94490849
:100010000C9449080C9449080C9449080C94121546
:100020000C9449080C9449080C9449080C941C3809
:100030000C9449080C9449080C9449080C944908FC
:100040000C9404380C9449080C9449080C94490801
:100050000C9449080C9449080C9449080C944908DC
:100060000C9449080C94490876147A147C14801472
:1000700083148614A91489148C14A9148F14A91438
:10008000A914A914A914A914A914A9149214A9149F
:1000900095149814A914A914A914A914A914A9149D
:1000A000A914A914A9149B14A914A914A9149E1481
:1000B000A914A114A914A414A914A7147414554CB8
:1000C00054494D4154450054455354455221210053
:1000D00050726F62696E672E2E2E0054696D656FC7
:1000E0007574004E6F20636F6D706F6E656E740077
:1000F000666F756E642100646F6E65210053656CD8
:100100006563740041646A7573746D656E74005341
:10011000617665004C6F61640053686F77205661AB
:100120006C7565730052656D6F766500437265612D
:1001300074650053686F72742043697263756974E3
:100140002100426174746572793F004572726F726A
:1001500021004578697400436865636B73756D00B1
:10016000424A54005343520054726961630050552F
:1001700054004279652100506F776572204D6F6E93
:1001800069746F72004F555400506F776572005656
:100190004D65746572005465737420436F6D706FA4
:1001A0006E656E7400487A003C4D656E752054652E
:1001B00073743E0050574D0053717561726520573E
:1001C00061766500467265712E20436F756E7465A9
:1001D0007200436F6E74726173740052204D6F6EC3
:1001E00069746F720043204D6F6E69746F72004FB7
:1001F000666600436F6E74696E7569747900466C4B
:100200006173686C696768740050686F746F6469C3
:100210006F6465006E6F007265760044696F646597
:100220002F4C4544004D4F5300464554002D636804
:1002300000656E682E006465702E004947425400C8
:10024000436773004E504E00504E500068464500C4
:1002500056626500565F4754004963656F005666F5
:1002600000430056746800495F52005654005672AD
:1002700065660052682D0052682B0052692D0052AD
:10028000692B002B526C2D002B52682D003132202F
:100290003133203233004330005230005663630064
:1002A00041436F6D70002331002332004964737342
:1002B00000495F6C0052647300565F4753286F66B5
:1002C00066290045535200436265002D032D002D21
:1002D000012D002D022D002D06072D0066706E05E4
:1002E0006D006B4DEE59CB52AD4C6047BC42A43E05
:1002F000003BBF37D0342932C02F8C2D872BAC293F
:10030000F5275E26E52485233D220A21EA1FDC1E0F
:10031000DD1DED1C0A1C331B681AA719F0184118C3
:100320009B17FD166516D5154A15C6144714CD132F
:100330005813E7127B121312AE114E11F010000089
:10034000BA03870358032E030703E402C302A4027F
:1003500088028111530F940D260CF40AF00911093B
:100360005008A6070F0789061006A3053F05E404F9
:1003700091044304FC03B9037A033F030703D1024A
:100380009E026D023E020F02E101B20182014E01A6
:100390000F010100080040000001000401020304F5
:1003A00005100401200802020408010203000000F5
:1003B0000000000000000000000000000080F8F0D5
:1003C000E0C080F880000F070301000F0080F88074
:1003D000C0E0F0F880000F000103070F0080F8F87C
:1003E0000000F8F880000F0F00000F0F00E0100869
:1003F000080810E00019121E001E12190000F80073
:100400000000E02000403F0810081F100080F0109E
:10041000101010101000070404040404041010103D
:10042000101010F08004040404040407000000F815
:100430000402FE020070181710101F700002FE0266
:100440000002FE0200101F1010105F300002FE02BA
:10045000F002FE0200101F101F105F30000000E0CD
:100460001008F8080070181710101F70008040283E
:10047000F8284080000708507F5008070008F80857
:100480000008F80800101F1010105F300008F8086E
:10049000C008F80800101F101F105F300000000295
:1004A0000502000000000000000000000000000045
:1004B000000000000000000000000000000000003C
:1004C000FE00000000000000370000000000160ED3
:1004D0000000160E0000000000000000000020F8E0
:1004E0002020F8200000020F02020F020010284412
:1004F000FE840810000304081F08050200182424C5
:1005000098402010000402010C12120C0018A4E202
:10051000A2128C80000708101011120508000000BC
:10052000160E00000000000000000000000000F0B7
:10053000080402000000000304081000000000028C
:100540000408F00000000010080403000090A0C0A0
:10055000F8C0A090000402010F0102040080808016
:10056000F080808000000000070000000000000014
:10057000000000000000000058380000008080806B
:10058000808080800000000000000000000000006B
:10059000000000000000000018180000000000002B
:1005A00080402010000402010000000000F8040256
:1005B000020204F8000708101010080700000804E1
:1005C000FE020000000010101F10100000180402AE
:1005D00002824438001814121110101C000E02423E
:1005E00062528A0600060810101008070080403E7C
:1005F0000000FC000003020202121F12007E221201
:10060000121222C6000408101010080700F8442235
:10061000121224C00007081010100807000E0282F2
:10062000C262321E0000001F000000000018A44239
:100630004242A418000708101010080700F804022E
:10064000020284F8000009121211080700000000DD
:1006500030300000000000000C0C00000000000022
:1006600030300000000000002C1C00000000804022
:10067000201008040000000102040810000040409F
:100680004040404000000202020202020000040852
:10069000102040800000100804020100001804022D
:1006A00002028478000000003601000000F008A477
:1006B000A4C408F00007081312110A090000F0088A
:1006C0000402FE0200101F1202121F100002FE425E
:1006D0004242A41800101F101010080700F804026E
:1006E0000202041E00070810101008060002FE0295
:1006F000020204F800101F10101008070002FE424A
:1007000042F2020E00101F101011101C0002FE42D7
:1007100042F2020E00101F101001000000F8040247
:100720008282849E000708101108041F0002FE4206
:100730004042FE0200101F1000101F1000000202B5
:10074000FE020200000010101F1010000000000246
:1007500002FE0202000C1010100F00000002FEC288
:100760003008060200101F10030418100002FE02D9
:100770000000000000101F101010101E0002FE32BA
:10078000C032FE0200101F1001101F100002FE1ADE
:10079000E002FE0200101F1000131F1000F80402F8
:1007A000020204F800070810101008070002FE02F9
:1007B0000202847800101F110101000000F80402F9
:1007C000020204F8000708101012140B1002FE8237
:1007D0008282443800101F1001021C1000182442AD
:1007E0004242841E0006081010100807000E020284
:1007F000FE02020E000010101F1010000002FE0288
:100800000002FE0200000F1010100F000002FE0296
:100810000002FE020000030E180E03000002FE029A
:10082000F002FE020000071C0F1C070000021EF26F
:1008300040F21E0200101F1100111F100002FE8264
:100840000082FE02000000111F110000000E028253
:100850004222120E001E11101010101E0000FE0287
:100860000202020000003F2020202000000810208B
:1008700040800000000000000000010200000202B1
:100880000202FE000000202020203F00001008048B
:10089000020408100000000000000000000000003A
:1008A0000000000000202020202020200000000068
:1008B0000E1600000000000000000000000090483C
:1008C000484890E0000708101008041F0002FE12BC
:1008D000080810E000101F081010080700E01008BA
:1008E00008081038000708101010080600E010086B
:1008F0000812FE020007081010081F1000E0908880
:10090000888890E000070810101008040040F844A0
:100910004202040800101F101000000000E0100840
:100920000810F8080003244848443F000002FE2055
:100930001008F00000101F1000101F100000080B1E
:10094000FB000000000010101F1010000000000845
:10095000080BFB000000304040403F000002FE80DA
:100960004030081800101F1102040818000000028F
:1009700002FE000000000010101F10100008F80810
:10098000F008F00000101F001F001F100008F810F2
:100990000808F00000101F1000101F1000E01008E1
:1009A000080810E000070810101008070008F810E9
:1009B000080810E000407F481010080700E0100809
:1009C0000810F8080007081010487F400008F820B9
:1009D0001008087000101F10000000000020508850
:1009E000888810380006081010100906002020FE24
:1009F000202000000000000F1010100C0008F80864
:100A00000008F80800000F1010081F100008F80870
:100A10000008F8080000030E180E03000008F8088C
:100A2000C008F80800000F180F180F00000838E081
:100A300080E0380800101F0100011F100008F808AE
:100A40000008F8080000274848443F00003808081C
:100A500088482818001C12111010101E0080403801
:100A6000040202000000010E10202000000000001F
:100A7000FE000000000000003F0000000000020235
:100A80000438408000002020100E0100000080F09B
:100A9000E0C08000000000070301000000FEFEEE41
:100AA000E60202FEFE1F1F1F171010171FFEE6E2D0
:100AB0007A3A82C6FE1F1110161713131FFEF6F2A4
:100AC000BABA0246FE1F1B13171710181FFCCC8C56
:100AD0003C3C8CCCFC1F19181E1E18191FF010105E
:100AE00010101010100F08080808080808F010D09F
:100AF000D0D0D0D0100F080B0B0B0B0B0810101020
:100B000010101070C00808080808080E03D0D0D0D4
:100B1000D0D01070C00B0B0B0B0B080E0300181875
:100B200018FEFEFEFC000C0C0C3F3F3F1FFCF8E0E3
:100B300080808080801F0F030000000000FF010202
:100B400003040506076F707172737475767778FF0A
:100B5000FFFFFFFFFFFFFFFFFFFFFFFFFF1011126F
:100B6000131415161718191A1B1C1D1E1F202122DD
:100B7000232425262728292A2B2C2D2E2F303132CD
:100B8000333435363738393A3B3C3D3E3F404142BD
:100B9000434445464748494A4B4C4D4E4F505152AD
:100BA000535455565758595A5B5C5D5E5F6061629D
:100BB000636465666768696A6B6C6D6EFFFFFFFF53
:100BC000FFFFFFFFFFFFFFFFFFFFFFFFFFFFFFFF35
:100BD000FFFFFFFFFFFFFFFFFFFFFFFFFFFFFFFF25
:100BE000FFFFFFFFFFFFFFFFFFFFFFFFFF0FFFFF05
:100BF000FFFF05FFFFFFFFFFFFFFFFFFFFFFFFFFFF
:100C0000FF08FFFFFFFFFFFFFFFFFFFFFFFFFFFFEB
:100C1000FFFFFF09FFFFFFFFFF0AFFFF0BFFFFFFC3
:100C2000FF0CFFFFFFFFFFFFFFFFFFFFFFFFFFFFC7
:100C3000FFFFFF0DFFFFFFFFFF0EFFFFFF000000A4
:100C4000000000000000E0E00000008040201F00E5
:100C50007C8282820000C848488808080808FFFF94
:100C600014224180C00000000000000000001F129C
:100C7000120D0000000003030000010101027C00CE
:100C80007F49494100000000000000000000E0E052
:100C9000000000E0C0A01F00FE9292820000C84841
:100CA000488808080808FFFF14224180000000005F
:100CB0000000000000001F12120D000000000303DE
:100CC0000000000001027C003E4141410000008024
:100CD00080000000C0C000E0E040404040407F0095
:100CE000FE82827C00001F2028190000FFFF009C6C
:100CF0009C08081C3E08F8000000000000000101EC
:100D000001010101010100030301010101017F0053
:100D1000264949320000404040404040C0C000E009
:100D2000E04040404040FF004C92926400007C82D2
:100D3000A2640000FFFF009C9C08083E1C080F00F6
:100D4000000000000000000000000000010100039E
:100D50000301010101017F007F41413E000000804D
:100D600080000000C0C000E0E040404040407F0004
:100D7000FE82827C00001F2028190000FFFF00FF78
:100D8000FF08081C3E08F8000000000000000101F8
:100D900001010101010100030301010101017F00C3
:100DA000264949320000404040404040C0C000E079
:100DB000E04040404040FF004C92926400007C8242
:100DC000A2640000FFFF00FFFF08083E1C080F00A0
:100DD000000000000000000000000000010100030E
:100DE0000301010101017F007F41413E000080407D
:100DF00040800000000000E0E08080808080FF00F4
:100E0000FE82827C00008F90948C80E0C08080FF06
:100E1000FF808080808080000000000000000000D3
:100E200000000003010000030300000000007F0039
:100E30002649493200008080808080C0E08080E0C8
:100E4000E08080808080FF004C9292640000F80473
:100E500044C80001030000FFFF8080808080800084
:100E6000000000000000000101000000000000037D
:100E70000300000000007F007F41413E00000000B1
:100E800000000000808000E0E000000080403F00A3
:100E90007C8282820000884848880808FFFF00FFA3
:100EA000FF14A2C1E00000000000000000000F10CD
:100EB000140C0000000000030300000000017E008D
:100EC0007F4949410000000000000000808000E0F0
:100ED000E00000C080403F00FE92928200008848FF
:100EE00048880808FFFF00FFFF142241810100002D
:100EF0000000000000000F10140C000000000003B0
:100F00000300000000017E003E414141000000005E
:100F1000000000000000000000FF00007C12127CB6
:100F2000000000000000F00848D00000C1C3C7CF97
:100F3000DFFFDFCFC7C3C1000000000000000809C9
:100F40000908080808080402017F00003C424242E8
:100F500000000000000000000000C0C0C0C0C0C011
:100F6000C0C0FFC0C0CFC0CFC0C0C00000E0109064
:100F7000A00080E0F8FEFFFEF8E080838FBFFFBF97
:100F80008F83800000111212111011110905030145
:100F900001017F01010179010101010000001090B0
:100FA000901010101010204080FF00007C12127C66
:100FB0000000000000000F10140D0000C1C3C7CFD7
:100FC000DFFFDFCFC7C3C10000000000000000004A
:100FD0000000000000000000007F00003C42424290
:100FE000000000000000404040408000000000E0A1
:100FF000E08080808080FF003E003E000000FE9286
:1010000092820005060708FFFF80808080808000B4
:1010100000000000000000000000000000000003CD
:101020000300000000007F00003E000000050A06EB
:1010300005060A050A0609060A050A0609060A053A
:101040000A0609060A050A0605060A050A06050A29
:1010500006090A06090A060011241FBECFEFD8E0D0
:10106000DEBFCDBF11E0A0E0B1E0E2E4FBE702C0EB
:1010700005900D92A030B107D9F711E0A0E0B1E0E2
:1010800001C01D92AC3EB107E1F70E942B0E0C94FB
:101090009F3D0C940000982F8091A801981719F497
:1010A0008091AB0108958091A901981719F480915E
:1010B000AC0108958091AD0108950E94FF3B81E04D
:1010C0000E94171C82E791E00E944D1DF89488E170
:1010D0000FB6F89480936000109260000FBE58988D
:1010E00083B7817F846083BF83B7816083BF889526
:1010F00083B78E7F83BF089582E00E94171C83EE22
:1011000090E00E944D1D80EF90E00E94901E809123
:10111000A7018F5F8093A7010895CF93DF9388EC99
:1011200080939D0185E00E944918EC018B5C9840FA
:10113000835F9140C8F46091A2017091A30180E0A7
:1011400090E023EC39E040E050E00E94533C9E01E7
:1011500040E050E00E94B23C3093A3012093A201F2
:1011600080919B01846003C080919B018B7F809361
:101170009B018EE00E9449189093A1018093A001E9
:1011800088EC80939D018EE00E9449182091DE0139
:10119000332727FD3095280F391F3093A101209365
:1011A000A00189E180939D01DF91CF9108951F9364
:1011B0008091A4019091A5012BE0883B920710F447
:1011C0008CE005C02CE0843E920718F48DE01EE010
:1011D00008C08153914118F48DE01FE002C080E106
:1011E00011E10E94693B812F0E94693B0E94F81C1B
:1011F0008091A4019091A5016AE070E00E948B3C6F
:1012000080E090E04EEF26E50E94241C1F91089597
:1012100086E00E944918A0E0B0E0BC01CD012EEBB1
:101220003FE040E050E00E94533C28EE33E040E0D5
:1012300050E00E94B23C81E12133380718F0245479
:101240003F4F02C0215E3F4F3093A5012093A40180
:1012500084E68093A601285B3B4050F40E94FF3B4C
:101260000E94D70888EB9BE00E94CF140E945D0883
:101270000895FC018181608140E00E94E424609136
:101280005001709151018091520190915301409110
:101290004F0126E40E94241C08950E94F81C8091AE
:1012A000050182FF03C081E392E002C086E392E081
:1012B0000E943F1D08950E94F81C8091050180FF47
:1012C00002C08EE401C080E50E94693B8DE292E09D
:1012D0000E943F1D08951F93162F0E94693B87EDC2
:1012E00092E00E943F1D812F0E94693B0E94F81CE2
:1012F0006091120170911301809114019091150178
:101300004091110124E00E94241C1F9108951F9315
:10131000162F0E94FC1C81E00E94693B812F0E94D5
:10132000FC1C1F9108950F931F93CF93DF9380911F
:10133000050180FF05C00091AA011091A90104C018
:101340000091A9011091AA01802F612F0E94F3261C
:10135000EC01009731F00E94F81C802F612F0E9451
:1013600087098091050182FF3BC08091B101909176
:10137000B201892B81F083E692E00E94821E609187
:10138000B1017091B201882777FD8095982F4DEFBC
:1013900026E50E94D41C80E492E00E94821E6091A7
:1013A000BE017091BF018091C0019091C101409137
:1013B000C20126E40E94241C8091AF019091B001EB
:1013C000892B71F085EB92E00E94821E6091AF0143
:1013D0007091B00180E090E04EEF24E00E94241C68
:1013E000209799F00E941E1E81E00E94693B0E9496
:1013F000F81C8EE592E00E946D1D6A817B8180E081
:1014000090E04DEF26E50E94241CDF91CF911F91C3
:101410000F91089580E00E94011D81E00E94011D4E
:1014200082E00E94011D8DE30E94693B80E00E94E2
:10143000FC1C81E00E94FC1C82E00E94FC1C0895C0
:101440008EE691E00E943F1D0E941E1E0E940A0A25
:101450008BE692E00E94821E60913F0170914001F4
:1014600080E090E04DEF26E50E94241C8EE592E09E
:101470000E94821E60913D0170913E0180E090E0EB
:101480004DEF26E50E94241C0895809104018232CC
:1014900019F484E691E002C088E691E00E943F1DC5
:1014A0000E941E1E0E940A0A8091AF019091B00115
:1014B000892B71F084E592E00E94821E6091AF0159
:1014C0007091B00180E090E04DEF26E50E94241C71
:1014D00008958BE392E00E943F1D0E945B090E94E9
:1014E0004D090E941E1E0E940A0A0E949309089537
:1014F000EF920F931F93CF93DF93EC016091B901AB
:101500007091BA018091BB019091BC014091BD01E5
:101510000AE010E020E030E057EFE52E0E9448108E
:1015200087FD10C0CE010E94821E6091B9017091AA
:10153000BA018091BB019091BC014091BD0121E4B1
:101540000E94241CDF91CF911F910F91EF9008957D
:101550008091050184FF05C085E292E00E943F1D55
:1015600003C08AE40E94693B89E292E00E943F1D29
:101570000E945B098091050184FF02C00E944D0911
:101580000E941E1E0E940A0A0E9493098091050172
:1015900083FF1EC08CEA92E00E94780A8091B3011A
:1015A0009091B401892BA1F089EB92E00E94821EF8
:1015B0000E941E1E0E94F81C6091B3017091B4013C
:1015C000882777FD8095982F4DEF26E50E94D41C43
:1015D0000895EF92FF920F931F93CF93DF93809123
:1015E000050180FF0AC0C4E4D2E0E090A801F090B9
:1015F000AA010091A9011F2D09C0C8E4D2E0E09022
:10160000AA01F090A8011091A9010E2D80E691E0A9
:101610000E946D1DCE010E943F1D8091050182FF39
:1016200003C08BE20E94693B0E941E1E0E940A0AB0
:10163000812F602F0E94F326892B31F00E94F81C25
:10164000812F602F0E9487098F2D6E2D49E10E9406
:10165000BE21813049F40E941E1E82E465E40E948E
:101660006B0984E080932A018CE492E00E94821E40
:101670006091B5017091B6018091B7019091B80168
:101680000E94C71C0E94F81C8091AE0180FF02C01E
:1016900085E603C081FF03C083E60E94693B8E2D6F
:1016A0006F2D0E94F326EC01009781F180E592E016
:1016B0000E94821E2A813B81EC81FD81E090B50170
:1016C000F090B6010091B7011091B80144E6E4161C
:1016D000F1040105110598F0C9018E1B9F0B63E011
:1016E00070E00E949F3C4AEFE416F10401051105E9
:1016F00018F4261B370B03C09B012E0F3F1FB901A7
:1017000080E090E04DEF26E50E94241C89E592E000
:101710000E94780A87EC92E00E94821E6091BE01CE
:101720007091BF018091C0019091C1014091C201AF
:1017300026E40E94241CCDB7DEB7E6E00C94173DEA
:10174000A1E0B0E0E6EAFBE00C94F73C80910901EF
:10175000813069F4F090780175E0C72E65E0D62EEF
:1017600057E7A52E51E0B52E00E010E01BC18230F6
:10177000F1F410917701D0907D011D1549F4C090CE
:101780007801D0907E0145E0F42E81E089834DC040
:10179000F090780180917E01F81611F4C12EFBC003
:1017A000181709F0F2C0FD1409F0EFC038C08330FB
:1017B00061F520E046E0249F50011124E7E7F1E0C5
:1017C000AE0EBF1E30E0349F8001112409581E4F19
:1017D000231741F0F5019181F8018081981711F4E8
:1017E00025E035E03F5F333070F32F5F233018F38F
:1017F000253010F400E010E0F501F18035E0C32E53
:1018000025E0D22E93E0E92ECFC08FEC92E00E942B
:101810006D1D80910901805D0E94693BC8C0F12E59
:1018200085E0C82E05E0D02E19821330A0F48091F7
:1018300078010E94011D83ED92E00E943F1D812FDF
:101840000E94011DE12E17E7A12E11E0B12E8501A6
:101850000A5F1F4F16C0E12EB7E7AB2EB1E0BB2EDB
:1018600085010A5F1F4FF50180810E94011D8FECE9
:1018700092E00E943F1D8F2D0E94011D0115110550
:1018800099F0EF1441F0F3E0FE1528F0F801F18033
:101890008FEC92E004C0F801F08083ED92E00E94AA
:1018A0003F1D8F2D0E94011DF4E0FC1500F18C2DD1
:1018B0006D2D49E10E94BE218130C9F40E94F81CBF
:1018C00082E08E1518F088E492E002C084E492E091
:1018D0000E943F1D8FE30E94693B0E941E1E91E300
:1018E000D90E8C2D8F5C6D2D0E946B0919828EE5AF
:1018F00092E00E94821EF5016281738180E090E097
:101900004DEF26E50E94241C0E94F81C01151105CC
:1019100001F5F501848195818A3F910568F488E29B
:101920000E94693BF5016481758180E090E00E942E
:10193000C71C89E20E94693BF501818160810E9498
:10194000231981E00E942E2887E692E00E94780AFF
:1019500009C0F8016281738180E090E04DEF26E5D7
:101960000E94241CF981F13011F581E692E00E9479
:10197000821EC5010E94390901151105C1F00E949E
:10198000F81CC8010E94390912C0A5E0FA2EF5E042
:10199000CF2EE5E0DE2E77E7A72E71E0B72E85018A
:1019A0000A5F1F4F65E0E62E81E089835CCF2196B8
:1019B000EAE00C94133DEF920F931F93CF93DF93C4
:1019C00060915E0170915F01809160019091610171
:1019D0000091500110915101209152013091530119
:1019E00040915D01E0904F010E944810813019F450
:1019F000CBE5D1E002C0CDE4D1E060916C01709103
:101A00006D0180916E0190916F010B811C812D8180
:101A10003E8140916B01EA800E944810813011F4B0
:101A2000C9E6D1E088810E94011D8BEC92E00E9402
:101A30003F1D89810E94011D0E941E1E6B817C81B9
:101A40008D819E814A8126E40E94241CCE010E9441
:101A50006E258C018FEF0F3F180749F00E94F81C8C
:101A6000B80180E090E04EEF24E00E94241C8B85BA
:101A70009C85892B61F081EB92E00E94821E6B8530
:101A80007C8580E090E04D8521E40E94241CDF915C
:101A9000CF911F910F91EF900895A0E0B0E0E3E5A2
:101AA000FDE00C94FA3C80910801813039F4D0902B
:101AB0000F010FE011E0EE24FF245CC0833031F011
:101AC0000FE011E0A7E0EA2EF12C47C06091190168
:101AD00070911A0180911B0190911C0100911201DB
:101AE00010911301209114013091150140911801BA
:101AF000E09011010E944810813019F4C6E1D1E054
:101B000002C0CFE0D1E0609120017091210180916D
:101B10002201909123010B811C812D813E814091F6
:101B20001F01EA800E944810813011F4CDE1D1E01C
:101B300081E0CF30D80721F48E01095F1F4F02C02A
:101B40000FE011E0F7E0EF2EF12CE00EF11EEC16A5
:101B5000FD0629F4EEE0EE2EF12CE00EF11EF80168
:101B6000D080F7018081D81629F08181D81611F034
:101B7000F801D180F80180818D1511F4F80181817F
:101B80000E94011D87ED92E00E943F1D8D2D0E9455
:101B9000011DE114F10461F087ED92E00E943F1D08
:101BA000F70180818D1511F4F70181810E94011DDB
:101BB0000E941E1EF8016381748185819681428195
:101BC00024E00E94241CE114F10451F00E94F81C4E
:101BD000F7016381748185819681428124E012C07E
:101BE000C8010E94762F813079F40E94F81C609120
:101BF000E3017091E4018091E5019091E60140914B
:101C0000E20128E40E94241CCDB7DEB7E7E00C9483
:101C1000163D809105018130C9F482E491E00E9473
:101C20003F1D0E941E1E80910A010E94011D0E94FC
:101C3000CC1C0E94F81C60910B0170910C0180E09B
:101C400090E04DEF26E50E94241C0895823011F4A7
:101C50000E947C080895EF92FF920F931F93CF93F9
:101C6000DF9391E09AB99BB980E185BF87E88093C3
:101C70007A0014B7187084B7877F84BF88E10FB6E5
:101C8000F89480936000109260000FBE90939B01C7
:101C900082E080939C010E941E390E94A43A112385
:101CA00099F00E94FF3B82E00E94171C8BED90E0B0
:101CB0000E944D1D8BE491E00E94901E80ED97E004
:101CC0000E94CF14589885C14B9B02C010E00FC0F2
:101CD00084E190E00E94CF144B9905C01F5F153638
:101CE000B9F713E07EC1103108F07AC111E080919C
:101CF0009B0180FF05C080919C01806280939C01C4
:101D00000E940D3C109224015C98549A5D98559A5B
:101D1000133019F40E94211504C081E061E00E9493
:101D20000A188091E0010E94FC3A8EEB90E00E943C
:101D3000901E87EC90E00E94901E8CED95E00E9432
:101D4000CF141092A70189E180939D0181E08093D7
:101D50009E0180939F0189E793E19093A301809373
:101D6000A2012FE088E190E00FB6F894A895809347
:101D700060000FBE20936000789416E6FF24F39471
:101D800003E0B2E0EB2EC8EAD1E001C015E6109204
:101D900004011092050110920601109207011092A1
:101DA0000901109208011092AE011092B001109238
:101DB000AF011092B2011092B1011092B4011092D1
:101DC000B3011092B5011092B6011092B7011092B2
:101DD000B8011092B9011092BA011092BB01109291
:101DE000BC0110923E0110923D01109240011092F0
:101DF0003F0110922F01F092310100932A0117B890
:101E0000E09224010E94FF3B0E948D080E94080975
:101E1000163609F4CDC00E9408090E94D70881E057
:101E20000E94171C0E941E1E8091270181508093E2
:101E3000270180ED90E00E944D1D809127018F5F6A
:101E4000809327010E94001B809104018130E1F101
:101E500080E061E042E00E94EC1981E060E042E055
:101E60000E94EC1980E062E041E00E94EC1982E0FF
:101E700060E041E00E94EC1981E062E040E00E94F5
:101E8000EC1982E061E040E00E94EC190E94AC197C
:101E90000E94BF2680910401882311F08A30A1F4AA
:101EA0000E94F81C83E40E94693B82E060E040E00D
:101EB0000E94E42482E061E041E00E94E42481E0A9
:101EC00060E042E00E94E4240E94FF3B0093240172
:101ED0005C9A84E190E00E94CF145C9880910401A8
:101EE0008E3111F18F3160F48A3069F18B3018F442
:101EF000813079F513C08B3049F1843151F511C02F
:101F00008132D9F0823228F48F3189F0803209F59C
:101F100011C0823291F08332E1F412C00E94090EA6
:101F20001AC00E94A00B17C00E94E90A14C00E94A8
:101F3000A80A11C00E94690A0EC00E94450A0BC07F
:101F40000E94200A08C00E944D0D05C00E94DB0CB3
:101F500002C00E947C08809104018E3130F0809193
:101F60002A01882311F00E94431E809104018A30C7
:101F700010F01092A701109224010E94081ED09325
:101F80003701C093360188EB9BE06EE30E944D1150
:101F9000182F882329F48091A7018530C0F4F7CE4B
:101FA000833031F0823099F0853011F0853661F45C
:101FB00090E003C00E945C14982F892F88568230CD
:101FC000C8F79836C1F6E2CE873609F0E0CE0E9417
:101FD0005D0880E090E0CDB7DEB7E6E00C94173DF9
:101FE00012E080919B018E7F80939B0180CEAF9207
:101FF000BF92CF92DF92FF920F931F93DF93CF9305
:1020000000D00F92CDB7DEB789836A834B836E0110
:102010000894C11CD11C860184E0A82EB12CAC0E02
:10202000BD1E802F8C19F801F080FF2049F00E941E
:10203000011D0E94CC1C8F2D0E94693B0E94F81C40
:102040000F5F1F4F0A151B0561F70F900F900F9040
:10205000CF91DF911F910F91FF90DF90CF90BF90B4
:10206000AF9008951F9311E00BC02AE030E040E0EC
:1020700050E00E94B23CC901DA01BC01CD011F5FF2
:102080006A3071058105910580F7812F1F910895B0
:102090006F927F928F929F92AF92BF92CF92DF9278
:1020A000EF92FF920F931F933B014C01F42E5801C6
:1020B00069010E2D0E943210182FC601B5010E9431
:1020C0003210611471048104910491F1A114B104DE
:1020D000C104D10431F1EF2CE10E800F8E1534F1E3
:1020E000E81669F51E2D1F19E01A0BC0C601B501CF
:1020F0002AE030E040E050E00E94533C5B016C017C
:10210000E394E1169CF30BC0C401B3012AE030E074
:1021100040E050E00E94533C3B014C011F5F1E1504
:102120009CF3A614B704C804D90410F481E008C0D5
:102130006A147B048C049D0410F080E001C08FEFD2
:102140001F910F91FF90EF90DF90CF90BF90AF90D5
:102150009F908F907F906F9008950F931F93142FEF
:10216000022F9B01AC0117C0101754F4B901CA012A
:102170002AE030E040E050E00E94B23C1F5F0BC01C
:10218000B901CA012AE030E040E050E00E94533C2F
:102190009B01AC011150101739F7B901CA011F9109
:1021A0000F910895382FE82FF92F01C031969E2FF7
:1021B000931B84918823D1F7892F0895681721F400
:1021C0008AE20E94693B08950E94F81C089503C0AA
:1021D0000E943A3CA8954B9BFBCF84EF91E00E9474
:1021E000CF1408951F931AB18AB1897F8AB90E94CA
:1021F000403C89B182FD02C030E001C032E081FD87
:1022000031601AB980913301813031F43093320159
:10221000109233011092350180913501882329F005
:102220008A3F18F48F5F80933501209132013093FB
:102230003201231779F1832F822780FF8695813021
:1022400031F5220F82E790E002C0959587952A9597
:10225000E2F78370831711F095E001C094E080915C
:1022600034018F5F8093340180913301981729F0F6
:1022700081E0809334018093350190933301809104
:102280003401843038F010923401892F04C081E089
:102290008093330180E01F910895A3E0B0E0E3E56F
:1022A000F1E10C94EF3C5C01162F81E08093330147
:1022B000109234018093300180919C0185FF04C00D
:1022C00060EFC62ED12C02C0CC24DD2412FF08C042
:1022D00080919B0180FF03C0AA24BB2401C01C7F06
:1022E00015FF21C020913601822F90913701FC010A
:1022F00001C031969E2F921B84918823D1F7915073
:1023000080912701981778F4882E891A1C7F882DD0
:10231000609128010E94223B809136019091370103
:102320000E943F1D01C08824812F90E09B838A83F7
:102330003C0193E0692277246114710409F4C9C057
:1023400081E00E94C23BC5C0A114B10451F0E3E09A
:10235000AE16B10410F400E004C08EEF9FEFA80E9B
:10236000B91E4B993CC08EE190E00E94CF1410E062
:1023700009C04B9909C01F5F1B3130F48AE090E01F
:102380000E94CF140023A9F71B3118F052E0F52E5C
:1023900024C0EA81FB81EF2B19F4FF24F3941DC0C4
:1023A00082E390E00E94CF14FF24F39414E14B9950
:1023B0000DC08EE190E00E94CF144B9907C088ECCD
:1023C00090E00E94CF1443E0F42E11E011508AE017
:1023D00090E00E94CF14112351F700E070C00E94DA
:1023E000F210882371F1EE2011F4F82E03C08F153E
:1023F00009F08BC0E394809135016E2D0E94723CF0
:10240000282FF8E18F9FC001112434E0969587951D
:102410003A95E1F7893208F088E2982F96959695DB
:102420009695933010F433E039838981E81621F0D2
:102430009CE0990E920E05C087E0891B80933001C5
:1024400064C0EE2029F080913501891508F05DC047
:1024500082E090E00E94CF141F5F812F68E20E940B
:10246000723C992369F48091A601823020F081505A
:102470008093A60105C04114510411F00E9408097F
:10248000183CE9F42114310459F0013029F480E0BA
:102490000E94C23B02E004C081E00E94C23B01E016
:1024A000C114D10459F0E2E0CE16D10420F497E62D
:1024B000F92E00E003C00894C108D10810E0809113
:1024C0009C0180FF1FC080919C018E7F80939C01A6
:1024D0001CC0FF2401E010E082E3982EEE24F2E01D
:1024E000F9832A803B8032E0232233244A805B80B8
:1024F00080E148225524EA81FB81E870F070FB837B
:10250000EA8322CF002309F01FCF6114710419F070
:1025100080E00E94C23B882041F0882D6091280114
:102520000E94223B80E00E94D13BF0922F01F7E60F
:10253000FF1611F40E945D088F2D2396E2E10C94A2
:102540000B3DA0E0B0E0E7EAF2E10C94F03C362E5F
:102550003A014901D0902801DA94FF24EE2402E0E8
:102560004D2C4A94B82EC82ECA94A82EAD18502EC1
:102570005D1881E0D81611F40F5FEF2CCE2DD0E05E
:10258000CC0FDD1FC60DD71D10E02CC0612F6E5F74
:1025900081E00E94223B81E0D81629F0812F8E0D28
:1025A0006F2D0E94DE100230C0F081E0381629F451
:1025B000888199810E943F1D07C0FE016591749139
:1025C00080E090E00E94C71C8114910419F0C401BE
:1025D0000E943F1D80E00E94D13B1F5FC11608F49E
:1025E0001D2D22961D1590F281E0D81649F4809198
:1025F0002701609128010E94223B8CE30E94693BE5
:1026000080E090E060E10E944D11813011F41F2DB7
:102610003FC0843019F41F2D01E01DC0853019F032
:102620001F2D01E033C0FF2039F4CD1408F444C05D
:10263000EA2C1C2D02E03EC01F2D11501E15E9F59D
:10264000EE20D9F1FD1410F4EE2401C0E50C81E078
:10265000F816D1F402E01C1531F41D1508F00F5FD7
:1026600010E0EE2427C0912F9F5F842D8E0D9817C8
:1026700001F59C15F0F48B2D891B8D1510F0E12EC2
:1026800001C0EA2C0F5F15C08F2D02E0823061F48B
:102690000E94FF3B84EF91E00E94CF14812FCDB7C1
:1026A000DEB7E1E10C940C3D873621F40E945D0811
:1026B00001C0192FF12E5DCF1C2D01E0FBCFACE343
:1026C000B0E0E5E6F3E10C94FF3C86E991E09E8BF7
:1026D0008D8B8CE2898387E791E0988F8F8B8BE2DB
:1026E0008A838EEF91E09A8F898F85E28B8383EFC7
:1026F00091E09C8F8B8F81E28C8384EB91E09E8FA5
:102700008D8F86E08D8388EB91E098A38F8F87E093
:102710008E8383EC92E09AA389A389E08F838BED6B
:1027200091E09CA38BA386E1888785EE91E09EA330
:102730008DA387E1898784EC91E098A78FA38AE035
:102740008A8789E092E09AA789A787E28B878BE145
:1027500092E09CA78BA789E28C8784E091E09EA7FA
:102760008DA782E08D8782ED91E098AB8FA78CE0FA
:102770008E878FE091E09AAB89AB83E08F8784E10D
:1027800091E09CAB8BAB84E0888B89E191E09EABC0
:102790008DAB85E0898B8FEE91E098AF8FAB84E1B4
:1027A0008A8B0E94FF3B0E94D70882E161E0AE0164
:1027B0004B5E5F4F20E030E00E94A112FE01E80F67
:1027C000F11D8181EC96E2E00C941B3DA9E0B0E0A4
:1027D000ECEEF3E10C94FE3C182F86EA92E09D8328
:1027E0008C8389EA92E09F838E8382E591E09987CA
:1027F00088870E94FF3B123019F48FE091E002C0FD
:1028000084E191E00E943F1D83E061E0AE014C5FF6
:102810005F4F20E030E00E94A11291E0998392E0A6
:102820009A831B82FE01E80FF11D6181662319F076
:10283000812F0E940A182996E3E00C941A3D0F9309
:102840001F93CF93DF93082F882321F4C5E2D1E0B3
:1028500010E003C0CCE2D1E013E00E94EB1A811734
:10286000A1F00E94FF3B82E00E94171CCE010E9453
:102870004D1D83E391E00E94901E0E94EB1A811788
:1028800031F488EC90E00E94CF1481E00AC084E625
:1028900090E060E10E944D11013079F7882369F3DF
:1028A00080E0DF91CF911F910F91089588EB9BE01D
:1028B00065E10E944D1108951F930E945F13982FA8
:1028C00080919B0180FF05C080919C018F7D80934A
:1028D0009C01892F90E0FC013297EB32F105C8F59D
:1028E000EC5CFF4F0C94263D18E634C00E94D515D1
:1028F000182F30C082E001C081E00E94E61329C099
:102900000E94501526C00E946B3623C00E94693574
:1029100020C00E9422351DC00E9430381AC00E947B
:10292000CF1D17C00E945D0814C00E94ED3411C075
:102930000E9485340EC00E9430340BC00E94B33018
:1029400008C00E949D3305C00E94623302C00E94ED
:10295000B13111E080919B0180FF05C080919C0105
:10296000806280939C01112361F40E94FF3B81E00F
:102970000E94171C8BE491E00E944D1D0E9456148A
:102980000BC0193649F40E94FF3B81E00E94171CDE
:1029900087EF90E00E944D1D812F1F9108951F9396
:1029A000BC011092B1001092B20082E08093B0009E
:1029B000809370000FB607FC1FC0789410E01DC014
:1029C000A8952F3F31054105510519F010F09FEFF3
:1029D00001C0922F91509093B3009F5F6093B1001C
:1029E00002C0000000008091B1008823D1F7291BAC
:1029F0003109410951090CC011E080E090E024E167
:102A000030E040E050E00E94533C9B01AC0167E0A5
:102A1000211531054105510599F6112309F4F89462
:102A20001F9108951F920F920FB60F9211241092CA
:102A3000B1000F900FBE0F901F9018958150860F18
:102A4000089588EC90E09093D6018093D5018CEDA9
:102A500090E09093D8018093D7018FE090E090931D
:102A6000DA018093D9018FE18093DB018093DC014F
:102A70008093DD011092DE011092DF018FEF8093D1
:102A8000E0010895E5EDF1E090E08191980F81E09B
:102A9000E13EF807D1F7992309F491E0892F0895D1
:102AA00081E0809324010E94FF3B8BE792E00E942B
:102AB0006D1D6091D5017091D60180E090E04FEFDF
:102AC00024E00E94241C8FE792E00E94821E609105
:102AD000D7017091D80180E090E04FEF24E00E9490
:102AE000241C86E992E00E94821E6091DB0170E066
:102AF00080E090E00E94C71C0E94F81C6091DC01FD
:102B000070E080E090E00E94C71C0E94F81C609179
:102B1000DD0170E080E090E044EF26E40E94241C98
:102B200089E992E00E94821E6091D9017091DA01D8
:102B300080E090E04EEF24E00E94241C8EE692E0BC
:102B40000E94821E6091A0017091A10180E090E03E
:102B50004DEF26E50E94241C8CE992E00E94821E23
:102B60006091A2017091A30180E090E04DEF26E515
:102B70000E94241C80919B0182FF05C00E94F81CCA
:102B80008AE20E94693B80EA92E00E94821E609184
:102B9000DF01772767FD7095872F972F4DEF26E58B
:102BA0000E94D41C0E9456140895A8E0B0E0EBEDFA
:102BB000F5E10C94EF3C81E00E941F14882319F486
:102BC000EAE0DE2E02C072E0D72EEE24FF2400E001
:102BD00010E018861F82BB24222433241E821D820B
:102BE0001C821B82AA24882499241A8266247724B2
:102BF0001982442455245FC10E94FF3B81E40E9456
:102C0000693B8D2D805D0E94693B0E94F81C24E089
:102C1000D21609F44FC02D1540F032E0D31671F0F2
:102C200083E0D81609F010C13EC095E0D91609F42A
:102C30006DC0E6E0DE1609F007C1A7C089E992E0A1
:102C40000E946D1D8DE892E00E943F1D81E060E0D2
:102C50000E94231980E00E94A61E7C0186399105FE
:102C600018F4880E991EA39482E060E00E94231954
:102C700080E00E94A61E8C018639910518F4880E0A
:102C8000991EA39482E061E00E94231980E00E94D3
:102C9000A61E98878F838639910508F0D5C0880EC7
:102CA000991EA394D1C080E00E941F1464E6C62E32
:102CB00080E0CBC08BE792E00E943F1D18B822E075
:102CC00027B930E135B934B981E00E94BA187C01E6
:102CD000D7B8D5B8D4B882E00E94BA188C0188E081
:102CE00087B991E095B994B983E00E94BA189887A2
:102CF0008F83C701800F911F680E791EEF81F885C1
:102D00006E0E7F1EFA81FD5FFA839EC08FE792E010
:102D10000E943F1D15B822E028B927B930E134B927
:102D2000E090A201F090A30181E00E94BA18E81A95
:102D3000F90A84E088B987B984B90091A201109199
:102D4000A30182E00E94BA18081B190B98E098B9F9
:102D500097B9E1E0E4B92091A2013091A30138874D
:102D60002F8383E00E94BA18EF81F885E81BF90BE6
:102D7000F887EF83C701800F911F480E591E4E0E32
:102D80005F1EF981FD5FF9835FC086E992E00E94D2
:102D90006D1D8DE892E00E943F1D81E060E040E003
:102DA0000E94E42480914F01843F89F48091540172
:102DB00090915501A0915601B0915701853691052A
:102DC000A105B10520F47C01280E391EB39482E0E0
:102DD00060E041E00E94E42480915D01843FA9F419
:102DE0008091620190916301A0916401B0916501AD
:102DF00085369105A105B10540F48C012D813E81F8
:102E0000280F391F3E832D83B39482E061E042E0B6
:102E10000E94E42480916B01843FB1F480917001A1
:102E200090917101A0917201B09173018536910565
:102E3000A105B10548F498878F83EB81FC81E80FE9
:102E4000F91FFC83EB83B39481E017B818B814B86A
:102E500015B88823B9F00E941E1EB70180E090E0EB
:102E60000E94C71C0E94F81CB80180E090E00E94FC
:102E7000C71C0E94F81C2F813885B90180E090E0C2
:102E80000E94C71C34E6C31681F088EE93E060E12F
:102E90000E944D11882349F0823029F454E6C52E52
:102EA00044E6D42E02C034E6C32EC39485E08C15CC
:102EB00008F0A2CED39496E09D1518F0CC24C394CC
:102EC000F5CFEFE0BE1611F0BB2419C0C10165E0DB
:102ED00070E00E948B3C6093DB018D819E8165E0F8
:102EE00070E00E948B3C6093DC018B819C8165E0EB
:102EF00070E00E948B3C6093DD01BB24B394FFE043
:102F0000AF1651F4C4016FE070E00E948B3C7093E7
:102F1000DA016093D901B3942A812F3009F06EC091
:102F200039813F3009F06AC0C30165E070E00E945A
:102F30008B3C8B01C20165E070E00E948B3C4B0131
:102F40004091A2015091A301CA01880F991F840FDB
:102F5000951F801B910B861B970B6C01EE24FF24A1
:102F600020E030E0C901B80120EA39E041E050E05A
:102F70000E94533CA70196010E94B23CB901CA01CC
:102F80006B5F7F4F8F4F9F4F2AE030E040E050E073
:102F90000E94B23CC901DA018A3F9105A105B10541
:102FA00028F43093D6012093D501B394B40180E086
:102FB00090E020EA39E041E050E00E94533CA70154
:102FC00096010E94B23CB901CA016B5F7F4F8F4FDF
:102FD0009F4F2AE030E040E050E00E94B23CC9013F
:102FE000DA018831E1E09E07E0E0AE07E0E0BE07ED
:102FF00028F43093D8012093D701B394F4E0BF169E
:1030000011F080E003C00E94501581E02896E2E1B3
:103010000C940B3D1F93CF93DF93182F623019F45C
:10302000CDE0D0E002C0C0E0D0E00E944215809325
:10303000E101123041F485ED91E0BE014DE050E038
:103040000E94773D22C085ED91E0BE014DE050E049
:103050000E94673D0E9442159091E1019923A9F0D9
:10306000981799F00E94FF3B82E00E94171C87E5A9
:1030700091E00E944D1D8BE491E00E94901E80ED36
:1030800097E00E94CF140E942115DF91CF911F91EC
:103090000895FF920F931F93182F1F7010641093C1
:1030A0007C00012F007C80919F01081721F00E9475
:1030B000443C00939F0180917A00806480937A0061
:1030C00080917A0086FDFCCFF0909D0170919E0169
:1030D00020E030E040E050E060E020C080917A00E5
:1030E000806480937A0080917A0086FDFCCF809185
:1030F000780090917900A0E0B0E0280F391F4A1FB6
:103100005B1F643051F484E02030380730F4003C19
:1031100021F0713011F4106CC2CF6F5F6F15F0F2B7
:10312000003C29F46091A0017091A10104C060915C
:10313000A2017091A30180E090E00E94533C2AE03C
:1031400096958795779567952A95D1F72F2D30E03D
:1031500040E050E00E94B23CC9011F910F91FF90E6
:1031600008951F93182F0E94393C812F0E944918FF
:103170001F9108951F93182F0E943B3C812F0E949E
:1031800049181F910895CF93DF938093C3016093F3
:10319000C4014093C501A82FB0E081EA93E0FC018F
:1031A000EA0FFB1FE491E093C901262F30E0FC01F8
:1031B000E20FF31FE491E093CA0150E0840F951FE2
:1031C000FC0184918093CB0184EA93E0FC01EA0F37
:1031D000FB1FE491E093CC01FC01E20FF31FE491AB
:1031E000E093CD01840F951FFC0184918093CE0163
:1031F00087EA93E0FC01EA0FFB1FE491E093CF0123
:10320000FC01E20FF31FE491E093D001840F951FBE
:10321000FC0184918093D101CAEAD3E0AC0FBD1FB9
:10322000FD0184918093D2012C0F3D1FF90164911F
:103230006093D301C40FD51FFE0184918093D40104
:10324000DF91CF91089543E0481B461B0E94C318AD
:1032500008958091C6016091C7014091C8010E9404
:10326000C31808958091C3018093C6018091C40161
:103270008093C7018091C5018093C8010895EF92A2
:10328000FF920F931F93CF93DF93AC01613049F40A
:10329000E0E4F3E088EE93E0C2E3D0E027E030E042
:1032A00018C0623049F4E4EEF2E08CE291E0C9E14A
:1032B000D0E02CE230E00DC0633019F020E030E0C7
:1032C00045C0E2E5F3E088EC90E0C9E1D0E02EE112
:1032D00030E04817590718F400E010E003C08A01F5
:1032E000081B190BC801BE010E948B3C862F90E081
:1032F0002817390708F4622F862F90E0880F991F4E
:103300008E0F9F1FFC01259134910296FC01E590E0
:10331000F4902E193F09C801BE010E948B3CAE01FA
:10332000481B842F90E0FC012E9FC0012F9F900D21
:103330003E9F900D11249E0136952795820F931F75
:10334000BE010E948B3C9B012E0D3F1DC901CDB7D4
:10335000DEB7E6E00C94173D909107019923E1F068
:103360008091060180FD18C081FD04C08091040198
:103370008E3190F49093040180913A018093A801DA
:1033800080913B018093A90180913C018093AA0127
:1033900080910E0180930D0108951F93182F60FFF7
:1033A00003C085B1812B03C095B18095892385B970
:1033B00084B1812B84B963FF03C00E943F3C02C0EB
:1033C0000E943A3C84B1912F9095892384B985B1AC
:1033D000982395B91F910895CF93DF93982F8091EB
:1033E0000401813009F4BEC0A895892F0E94C3183A
:1033F00015B88091CA0184B98091CF0187B988B985
:103400008091CB0160E10E94CD198091D3010E948F
:10341000BA18EC018091CB019091CA01892B84B933
:103420008091D3010E94BA189C018091CA0184B98D
:103430002C173D0720F42530310508F4E90123E07D
:10344000C13DD20708F18091CB0161E10E94CD1905
:103450008091D3010E94BA18EC018091CB0185B90B
:103460009091CA01892B84B98091D3010E94BA1826
:103470009C0115B88091CA0184B92C173D0720F42E
:103480002530310508F4E901C031D10538F08091CB
:103490000601882319F4CE010E94412983E0C13D31
:1034A000D80708F042C0809106018823D9F48091A2
:1034B000CA0184B915B88091CF0187B988B90E9433
:1034C0003B3C8091CB019091CA01892B84B98091BA
:1034D000D3010E94BA188F559D4020F082E0BE01B2
:1034E0000E948D2B80910601882339F58091D001AF
:1034F00087B918B88091CB019091C901892B84B903
:1035000085B98091D2010E94BA1880549640A8F4DF
:103510000E949F28882389F480910401813269F0F8
:1035200081E0BE010E948D2B08C080910601882396
:1035300011F40E9422270E94652D809104018823A6
:1035400011F08A3019F40E94701F08C08F3131F4D5
:103550008091050184FF02C00E94072717B818B8A0
:1035600014B815B8DF91CF910895CF93DF930E94DF
:10357000231917B88091C90185B99091CA01892B87
:1035800084B98091D2010E94BA18EC018091D301D4
:103590000E9449182091A2013091A30136952795E8
:1035A000B9016E5170406C177D0778F4A901425E35
:1035B0005F4FC417D50748F46817790730F420E047
:1035C0008417950718F421E001C020E014B8822F79
:1035D000DF91CF9108950F931F9380E061E00E94E7
:1035E000B51A082F80E062E00E94B51A182F81E01A
:1035F00062E00E94B51A100F810F1F910F9108957C
:103600006F927F928F929F92BF92CF92DF92EF92B2
:10361000FF920F931F93DF93CF9300D000D000D081
:10362000CDB7DEB717B818B815B88FE384B981E005
:103630000E9449189A83898382E00E9449189C83DA
:103640008B8383E00E9449189E838D83FF24F3942B
:1036500008E2E02E12E0D12ECC243E010894611C39
:10366000711CB1E08B2E912CD39483E0D81609F411
:10367000DD240D2D10E08C2D90E00D2C02C09595D1
:1036800087950A94E2F780FD70C0F801E655FC4F7B
:10369000B4908B2D0E9449189C01F801EE0FFF1F7A
:1036A000E60DF71D808191812817390770F4318369
:1036B00020838E2D90E08F199109449784F4EAEECF
:1036C000EE1568F0F4E1EF0E0AC02A30310528F457
:1036D00088E2E81611F470E5E72EF39402C0FF24A7
:1036E000F3942330310548F4C401002E02C0880F42
:1036F000991F0A94E2F7C82A0AC02052334038F4CE
:1037000087B1F801E955FC4FE491E82BE7B9F7E000
:10371000CF1671F1EF1420F581E0809304018093BE
:103720000501D0920A01F801E955FC4FE49187B1F7
:10373000E095E823E7B9F801EC55FC4F24910F55CB
:103740001C4FF801849194B1822B8095892384B910
:103750008B2D0E94491890930C0180930B0108C097
:10376000A89582E390E00E94CF14FF2009F07CCF5F
:1037700014B817B826960FB6F894DEBF0FBECDBFAB
:10378000CF91DF911F910F91FF90EF90DF90CF903D
:10379000BF909F908F907F906F900895EF92FF92CF
:1037A0000F931F93E82EF62E17B818B814B815B853
:1037B0000E9423198091CF0187B98091D3010E9483
:1037C00049188C018091D00187B98091D2010E9463
:1037D00049180817190720F48F2D6E2D0E94231900
:1037E0008091CF0187B98091CA0184B901E08091AD
:1037F000D3010E9449189C0181E02039380740F428
:1038000087B19091D001892B87B92832310540F0DA
:103810000F5F033329F084E690E00E94CF14E7CFD6
:1038200017B814B81F910F91FF90EF900895609111
:103830002801861710F061E003C0681B66956F5F72
:1038400081E00E94223B08959F92AF92BF92CF9257
:10385000DF92EF92FF920F931F936B017C01042F75
:10386000922E15C085E090E0A0E0B0E0C80ED91E11
:10387000EA1EFB1EC701B6012AE030E040E050E03E
:103880000E94B23CC901DA016C017D010F5F90E139
:10389000C91697E2D90690E0E90690E0F90610F71C
:1038A000013F1CF4AA24BB2423C0202F215F822FB8
:1038B00063E00E947E3CE82F822F63E00E947E3C02
:1038C000B92E992349F4A8EECA16A3E0DA06A0E0BF
:1038D000EA06A0E0FA0620F0EF5F83E08B19B82E2D
:1038E000E83010F0AA2404C0F0E0E452FD4FA490A8
:1038F00001E411E0C601B8014AE050E00E94513DE8
:10390000F80101900020E9F78F01015010400154A7
:103910001140E02E0B1910165CF080E30E94693B09
:103920008EE20E94693B002319F080E30E94693B0C
:10393000BB2009F40FEF0150FF24C02EDD24C7FC8B
:10394000D0940FC00F2D10E0F801EF5BFE4F808187
:103950000E94693B0C151D0519F48EE20E94693B1B
:10396000F394FE1478F3AA2019F08A2D0E94693B83
:10397000992019F0892D0E94693B1F910F91FF90AA
:10398000EF90DF90CF90BF90AF909F90089540E070
:1039900020E00E94241C08958AE30E94693B089558
:1039A0008DE20E94693B0895CF92DF92EF92FF92E1
:1039B0000F931F937B018C01D42EC22E97FF0BC057
:1039C0008DE20E94693B10950095F094E094E11C13
:1039D000F11C011D111DC801B7014D2D2C2D0E9498
:1039E000241C1F910F91FF90EF90DF90CF900895CE
:1039F00080E20E94693B08950E944B080E94693B47
:103A000008958F5C0E94693B08951F93182FE091E1
:103A10000D0183E0E89FE02D1124F0E0E35DFF4E0F
:103A2000E60FF11D8491882341F120912D01215051
:103A300060912E01982F94FF04C080912C018695EF
:103A4000680F91FF04C080912B018F5F280F92FFB8
:103A500004C080912C018150680F822F0E94223B6C
:103A6000812F0E944B08883721F4812F0E94FC1C73
:103A700004C0812F8F5C0E94693B1F910895CF93F2
:103A8000DF93EC0103C00E94693B2196FE01849103
:103A90008823C9F7DF91CF9108950F931F93182FB3
:103AA000092FFC0101C031969E2F911B8491882320
:103AB000D1F780912701891710F481E003C0891B99
:103AC00086958F5F609126010E94223B812F902F67
:103AD0000E943F1D1F910F9108950E943F1D80E29B
:103AE0000E94693B0895DF92EF92FF920F931F931C
:103AF000F42ED22E01E411E0A8012AE030E00E9469
:103B00002C3DF80101900020E9F78F010150104091
:103B100001541140E02EFF2011F404E60DC00F15F2
:103B200030F00F1911F0FF2407C0FF2401C0F01A74
:103B300080E30E94693B00E010E014C0101751F4CC
:103B40008EE20E94693B04C080E30E94693BFA94C4
:103B5000FF20D1F7E12FF0E0EF5BFE4F80810E9464
:103B6000693B1F5F1E1550F3DD2019F08D2D0E945B
:103B7000693B1F910F91FF90EF90DF90089583E0D4
:103B80000E94D13B81E063E00E94223B089582E0E5
:103B90000E94D13B81E062E00E94223B0895FF92A7
:103BA0000F931F930E94FF3B82ED91E00E946D1DD9
:103BB0001091E001F090290101E00E94C71D612FE2
:103BC00070E080E090E00E94C71C043020F48CE29A
:103BD00091E00E94CF1480E090E068E10E944D11D6
:103BE000082F813031F0833011F400E008C08430B8
:103BF00021F41F1520F41F5F02C011111150812FF5
:103C00000E94FC3A0023C9F61F910F91FF9008957E
:103C10001F931091260180912801181769F40E94C2
:103C20005614812F0E94D13B81E0612F0E94223BDC
:103C300084EF91E00E94CF141F9108951F939091FB
:103C4000240160912601809128016817B1F4192F91
:103C500090FF02C00E94561411FF0CC01091280161
:103C600004C0812F0E94D13B11501230D0F781E067
:103C700062E005C00E94FF3B04C06F5F81E00E94CC
:103C8000223B1F9108951F93382F90912C01209172
:103C90002801892F8F5F281798F140912701403123
:103CA00018F0930F921738F0209326010E941E1EE1
:103CB00032E083E004C080912B01481B842F809365
:103CC0002D0130932E01109126018091A80160E012
:103CD0000E94051D8091A90161E00E94051D80914F
:103CE000AA0162E00E94051D80912D0160912E01C4
:103CF0000E94223B80910D010E94353B10932601CA
:103D00001F9108950F931F938C010E941E1EC801DE
:103D10000E943F1D80E20E94693B1F910F91089510
:103D20000F931F938C010E941E1EC8010E944D1DFF
:103D30001F910F9108950F931F938C010E941E1ED7
:103D4000C8010E943F1D1F910F910895A0E0B0E0AF
:103D5000ECEAFEE10C94F23C582E0E94001B80918C
:103D60000401813019F420E030E0A6C018B8809139
:103D7000D00187B98091C90185B984B90E943A3CC4
:103D800061E0662477244301862F90E0EC01C17046
:103D9000D07060FF03C08091D20102C08091D30136
:103DA000A895806C80937C000E94443C80917A00AE
:103DB000806480937A0080917A0086FDFCCFAA24EB
:103DC000EE24FF24870180917A00806480937A003A
:103DD00080917A0086FDFCCF8091780090917900E7
:103DE000A0E0B0E0E80EF91E0A1F1B1F0E94413C34
:103DF000A39484E6A81639F72091A0013091A1017F
:103E000040E050E0C801B7010E94533C7B018C01A7
:103E10008AE016950795F794E7948A95D1F762E0C2
:103E2000CD2B09F44FC0C701D8013C014D01ACCFE7
:103E30006091A2017091A30180E090E024E630E05F
:103E400040E050E00E94533C6619770988099909BF
:103E50000E94533C5B016C016E187F08800A910A36
:103E6000C401B30128EE33E040E050E00E94533C2F
:103E70007B018C012091D7013091D8012057354E1C
:103E800040E050E0C601B5010E94B23CC801B70154
:103E90000E94B23C81E0581661F48091D901909162
:103EA000DA018217930718F4281B390B02C020E0AF
:103EB00030E080EC80939F01C901CDB7DEB7EFE021
:103EC0000C940E3D15B88091CF019091D001892BB3
:103ED00087B9E614F7040805190508F4A9CFE7CF58
:103EE000A0E0B0E0E6E7FFE10C94F03CA89518B83C
:103EF0008091D00187B98091C90184B985B9809139
:103F0000D3010E94BA187C018091D2010E94491805
:103F10004C0115B88091CC0184B98091D2010E94E6
:103F2000BA18459708F025C28091CC0185B98091D7
:103F3000D2010E94BA182C018091CF0187B988B9AB
:103F400015B88091CA0184B98091D2010E94BA1833
:103F50008C018091D3010E9449183C018091CD01D0
:103F600084B98091D3010E94BA18EC0120E3821633
:103F700021E1920628F482E64816510408F0F9C1BE
:103F80002CE6421623E1520608F0F3C189EA6816CE
:103F9000710408F06EC0C632D10508F4EAC1B2015E
:103FA00080E090E020EF3BE247E050E00E94533C8D
:103FB000E090A201F090A30197012419350940E097
:103FC00050E00E94B23C59016A01EC1AFD0A00E07F
:103FD00010E0C801B70120EF3BE247E050E00E944B
:103FE000533C9E0140E050E00E94B23CB901CA013E
:103FF0002EED421623E0520670F442E0AA0CBB1CE0
:10400000CC1CDD1C4A95D1F7A60EB71EC81ED91EC2
:10401000C601B5010EC0CE5DD340B0F432E0660FEC
:10402000771F881F991F3A95D1F76A0D7B1D8C1D4C
:104030009D1D25E030E040E050E00E94B23CC90107
:10404000DA01BC01CD0108C06A0D7B1D8C1D9D1DD0
:104050009695879577956795625A7E4F8F4F9F4FBC
:104060002AE030E040E050E00E94533C3B014C012C
:10407000A0C08E149F0408F490C00615170508F41C
:104080008CC0C091A201D091A3018C169D0619F499
:104090000894810891082091D7013091D8012057C8
:1040A000354E40E050E0B4016E197F0980E090E0A9
:1040B0000E94533CC819D9099E0140E050E00E947B
:1040C000B23C59016A012091D5013091D6012057A7
:1040D000354E40E050E006191709B80180E090E045
:1040E0000E94533C930140E050E00E94B23C7901B1
:1040F0008A018EED881683E0980640F492E0AA0CBF
:10410000BB1CCC1CDD1C9A95D1F715C02EED621698
:1041100023E07206B8F588EFE81684E2F80681E03D
:10412000080780E0180790F482E0EE0CFF1C001FE7
:10413000111F8A95D1F7AE0CBF1CC01ED11EC6013F
:10414000B50125E030E040E050E015C0C801B701FE
:10415000B3E0660F771F881F991FBA95D1F76E0DD0
:104160007F1D801F911F6A0D7B1D8C1D9D1D2AE0E8
:1041700030E040E050E00E94B23CC901DA013C016D
:104180004D0117C0350146016E0C7F1C801E911E2B
:1041900096948794779467940CC02FE8621622E176
:1041A000720608F4E2C0FAE06F2E712C812C912C7B
:1041B00006C084E6681671048104910478F581E0F4
:1041C0000E94A61E7C0100E010E0C401B301660F4E
:1041D000771F881F991F25E06216710481049104DE
:1041E00020F4660D771D881D991D2AE030E040E01F
:1041F00050E00E94533C611571058105910521F441
:1042000064E670E080E090E0E616F706080719071C
:1042100028F4370148015EEF552E02C055245A9408
:1042200020E047E0342E3AE0432E81C0239DE00198
:104230001124C15FDE4F98818091C301981709F066
:1042400073C099818091C401981709F06DC0C401B1
:10425000B301452D02E010E020E030E0EE240E94A2
:1042600048108F3F91F56B817C818D819E814A81C1
:1042700002E010E020E030E00E9448108F3FF1F4AF
:104280004A81451519F0FF24FA9402C0FF24F394E3
:104290006B817C818D819E8194018301E52C0E943C
:1042A00048108F1531F46B807C808D809E805A8001
:1042B00005C06B827C828D829E825A82640153018A
:1042C000D694C794B794A7940CC0C401B30124E159
:1042D00030E040E050E00E94B23CC901DA015C01EC
:1042E0006D016B817C818D819E81940183010A190E
:1042F0001B092C093D094A81E52C0E94481087FDC5
:1043000015C06B817C818D819E81A60CB71CC81C59
:10431000D91C4A81960185010E944810181634F074
:104320004092040124E603C02F5F01C028EC909165
:104330000801291708F47ACF2436D9F09330C8F44D
:10434000E7E09E9FF0011124E15FFE4F8091C401E0
:1043500080838091C3018183638274828582968287
:1043600052829F5F9093080104C066247724430122
:1043700026CFCDB7DEB7E1E10C940C3DEF920F9361
:104380001F93142F109208010E9423190E94701F7E
:1043900080910801813011F090E017C01123A1F045
:1043A000612F70E080E090E0009112011091130104
:1043B000209114013091150143E0E09011010E9419
:1043C000481090E0813009F491E0892F1F910F91FE
:1043D000EF900895982F813110F480E00895915165
:1043E00015BC82E084BD97BD81E0089516BC81E0D4
:1043F00085BDA99BFECF15BC82E085BB08954F9279
:104400005F926F927F929F92AF92BF92CF92DF9214
:10441000EF92FF920F931F93CF93DF933C010E9483
:10442000001B80910401813011F480E05DC115B85A
:104430008EE087B918B88091CC0184B980E480936C
:104440007B0084E480BF8091D201806480937C00F3
:1044500087E080937A000E94433C10928000109283
:104460008100109285001092840087E286BB8091C3
:10447000CC0185B9809104018F3129F49091CF014D
:1044800090959E7002C09091D00181E08093810050
:1044900097B900E010E091E086B3282F85FD0AC0AF
:1044A00080FFFACF96BBA8950F5F1F4F8FE0003AB1
:1044B000180791F71092810080E286BBC0918600B8
:1044C000D091870014B88091840090918500C8171E
:1044D000D90730F420FF04C081E086BB0F5F1F4F77
:1044E00087E980937A0080917B008F7B80937B00AB
:1044F0008091D2010E9449182C0115B88091CC01FD
:1045000084B99FE0003A190710F081E0EDC09E01E8
:1045100040E050E0C801A0E0B0E08C01FF24EE24B0
:10452000E22AF32A042B152BA3E0EA16F104010575
:10453000110500F18EEF9FEFAFEFBFEFE80EF91E10
:104540000A1F1B1F98E3E91699E8F90691E4090789
:1045500090E0190778F0C801B70128EE33E040E099
:1045600050E00E94B23CC901DA017C018D0197EF55
:10457000992E02C084EF982E8091DF01992787FD44
:1045800090952091A0013091A101820F931F61E0CD
:104590000E943F19A0E0B0E0BC01CD01A801970145
:1045A0000E94533C20ED37E040E050E00E94B23CD6
:1045B00079018A01A4EF9A1619F0570168011DC00C
:1045C0008091C3016091C4010E941E15E82FF0E0A4
:1045D000EB52FE4F868190E0A0E0B0E0E816F906CD
:1045E0000A071B0720F4AA24BB24650106C0570153
:1045F0006801A81AB90ACA0ADB0A8091C401F3014A
:1046000080838091C30181839282D3011796ED92BA
:10461000FD920D931C931A97A382B482C582D68211
:10462000F4EF9F1651F420EAA21626E8B20621E024
:10463000C20620E0D20678F456C087EF981609F03B
:1046400052C091E2A9169EE4B90690E0C90690E036
:10465000D90608F048C08091D2010E944918855DB2
:104660009340C8F714B810929E018091D2010E9425
:1046700049188C0181E080939E018091D2010E94B3
:104680004918EC018091CC0184B90C1B1D0BE09002
:10469000A001F090A101C80104960997D0F0B801DB
:1046A000882777FD8095982F970140E050E00E9481
:1046B000533C9E0140E050E00E94D43C8091DE01DA
:1046C000820F8093DE018A2D992787FD9095E80E51
:1046D000F91E92012E193F09C901C1968336910531
:1046E00010F42093DF0183E0DF91CF911F910F91B0
:1046F000FF90EF90DF90CF90BF90AF909F907F9012
:104700006F905F904F900895A0E0B0E0EAE8F3E288
:104710000C94F13C3C0183E0B82EB1E19B2E0E9449
:10472000001B80910401813011F4882447C118B81E
:104730008091D00187B98091CA0185B984B98091EF
:10474000D2010E9449187C018091D3010E9449182E
:10475000E81AF90A15B814B8CC24DD240894C11C51
:10476000D11C8091C901692D0E94CD198091D2017F
:104770000E944918E816F9061CF0C0E0D0E003C01A
:10478000EC01CE19DF092EE7C216D10421F480E036
:10479000CB34D10508F081E091E0CC32D90708F0A4
:1047A00080E0E4EFCE16E1E0DE0609F480E0A895B3
:1047B0008823A1F6F1E0CC32DF0710F4BB24B394D8
:1047C00021E0C216D10461F485E0C531D80740F07C
:1047D000892DA9E09A2E84FDA2CFF2E08F2EEEC0A3
:1047E0008B2C93E0B91619F000E010E037C0860179
:1047F00080E090E00FC08091D2010E944918E81635
:10480000F9061CF080E090E002C08E199F0901506B
:104810001040A8950115110571F78C179D0718F028
:1048200000E010E007C08E01081B190B05361105CA
:1048300008F0BB248091D2010E9449187C0194FEAB
:1048400003C00E942F3C02C00E94343C8091D201E0
:104850000E9449188E159F0520F08B2C4424552466
:1048600004C02701481A590A8B2CE3E0BE1609F050
:10487000A5C0C8018C0F9D1F62E00E943F19A0E0F7
:10488000B0E0960140E050E0BC01CD010E94533CF5
:104890005B016C01C92DD0E08E010071107094FE97
:1048A00008C02AE030E040E050E00E94533C5B0149
:1048B0006C01F8E3AF16F9E8BF06F1E4CF06F0E0CB
:1048C000DF0618F4E7EF9E2E0EC0C601B50128EEF4
:1048D00033E040E050E00E94B23CC901DA015C01E3
:1048E0006D017AEF972EC601B50128EE33E040E066
:1048F00050E00E94533C012B29F022E434E040E0D8
:1049000050E004C020E134E040E050E00E94B23CBE
:10491000C901DA017C018D018091C401F30180831A
:104920008091C30181839282A782B086C186D2869C
:10493000E382F482058316830DC0C801B7012AE023
:1049400030E040E050E00E94B23CC901DA017C0155
:104950008D019394F1E0EF16F5E3FF06FCE00F07FD
:10496000F0E01F0750F7C3FD9394920140E050E040
:10497000C801B7010E94533C28EE33E040E050E00C
:104980000E94B23CC901DA01BC01CD010BC02AE092
:1049900030E040E050E00E94B23CC901DA01BC01C5
:1049A000CD019394603020E0720721E0820720E07F
:1049B000920768F7F301748763879586882DCDB7D2
:1049C000DEB7E0E10C940D3DA0E0B0E0EAEEF4E2E9
:1049D0000C94F73CB82EA62E8EE0489F600111245F
:1049E0008DE491E0C80ED91EF6011082118284EF89
:1049F0008283178210861186128613821482158292
:104A000016821486138680910401813009F461C0F6
:104A10008A3041F5FF24CFE0D1E01DC098819B157D
:104A200019F489818A1529F09A1599F489818B15D1
:104A300081F46B817C818D819E814A810AE010E046
:104A400020E030E0EE240E9448108F3F11F493E6FE
:104A5000F92EF394279680910801F816F8F2F4E6FF
:104A6000FF16B9F58B2D6A2D0E94F326FC010097E5
:104A700029F0828193818C5D954058F18B2D6A2DB0
:104A80000E942319C6010E948423823019F4C601B2
:104A90000E94FF21809104018431A8F4F6019281E3
:104AA0008A3019F49A3F7CF00BC0953F4CF4F60124
:104AB00083819481A581B6810597A105B10518F080
:104AC0008BE0809304010E94001B17B818B814B83B
:104AD00015B8CDB7DEB7EAE00C94133DA4E0B0E022
:104AE000E4E7F5E20C94EF3C9C838B83009709F498
:104AF0003FC1FC01638174818581968142810AE016
:104B000010E020E030E057EFE52E0E94481087FDCE
:104B10002FC10E94001B80910401813009F428C13B
:104B2000EB81FC81808161810E94CE1BEB81FC8145
:104B3000808161810E9423194090D2013090D3017D
:104B4000F0EC4F2A3F2A15BC82E084BD85E387BD87
:104B500018B840927C000E943A3CB2E38B2E912C14
:104B600060E070E022242A94A1E0AA2EB12CC12C8E
:104B7000D12CF1E0EF2EF12C012D112DE7ED5E2E61
:104B8000A8956233710558F48091D00187B980915E
:104B9000C90185B984B90E944D3C14B815B882E3A7
:104BA0008816910458F48091CF0187B98091CA0189
:104BB00085B984B90E944D3C14B815B88091CF01D5
:104BC00087B98091C90185B984B940927C0050921F
:104BD0007A0080917A0086FDFCCF50927A00809115
:104BE0007A0086FDFCCFE0917800F0917900FA839D
:104BF000E98330927C0050927A0080917A0086FDA1
:104C0000FCCF50927A000E94493C0E94F62180918C
:104C1000CA0185B984B90E944D3C14B880917A00CC
:104C200086FDFCCF80907800909079008091D00133
:104C300087B98091CA0185B984B930927C005092BD
:104C40007A0080917A0086FDFCCF50927A008091A4
:104C50007A0086FDFCCF60907800709079004092D9
:104C60007C0050927A0080917A0086FDFCCF5092B1
:104C70007A000E94493C0E94F6218091C90185B9C1
:104C800084B90E944D3C14B880917A0086FDFCCF17
:104C90006091780070917900C301A0E0B0E0E981F3
:104CA000FA819F0140E050E0820F931FA41FB51FBF
:104CB000A80EB91ECA1EDB1ECB01A0E0B0E0940115
:104CC00040E050E0820F931FA41FB51FE80EF91EAD
:104CD0000A1F1B1F2A9409F053CF17B815B8AE143A
:104CE000BF04C006D106E0F58091D5019091D601B0
:104CF0009C0173E0220F331F7A95E1F7880F991F0B
:104D0000280F391F40E050E0EA18FB080C091D0984
:104D1000C801B7010E94533CA60195010E94B23C14
:104D2000C9012091D9013091DA012817390720F4FF
:104D30008C01021B130B16C0EB81FC816381748113
:104D400085819681428108EE13E020E030E05AEF41
:104D5000E52E0E94481018161CF400E010E002C076
:104D60000FEF1FEF80EC80939F010E94001B02C099
:104D70000FEF1FEFC8012496E2E10C940B3D8091E8
:104D800004018032F1F0813228F48E3141F08F310C
:104D900041F40BC08132E9F0843218F416C022E4E9
:104DA00011C020E090E080E017C08091050186FDF1
:104DB00004C027E494E483E50FC027E498E788E77C
:104DC0000BC027E493E485E407C027E491E483E47F
:104DD00003C027E492E381E32093AB019093AC01FD
:104DE0008093AD010895282F90910901E7E7F1E044
:104DF00008C08081281719F48181681731F091501B
:104E000036969923B1F7E0E0F0E0CF010895809164
:104E1000050180FF05C06091AA018091A90104C02D
:104E20006091A9018091AA010E94F326892B49F083
:104E30001092040110920501809106018E7F8093EB
:104E400006010895EF92FF920F931F93CF93DF9384
:104E50008091D2010E944918EC018091D3010E94F7
:104E600049187C018091D4010E9449188C0117B81F
:104E70008091CF0188B98091CE0185B99091CA0106
:104E8000892B84B982E390E00E94CF148091CF01F6
:104E900087B98091D3010E9449180A97F8F483E2F8
:104EA000809307018CE080930E018091C50180936F
:104EB0003A018091C30180933B018091C4018093AA
:104EC0003C01CE018E199F0990933E0180933D01D4
:104ED000C01BD10BD0934001C0933F01CDB7DEB7CB
:104EE000E6E00C94173DA0E0B0E0E9E7F7E20C94AF
:104EF000F73CB82E21E08217E1F48091CF0187B909
:104F000088B99091CB018091CA01892B84B995B958
:104F10008091D3010E94BA18EC010091A201109176
:104F2000A3018091D4010E9449189801281B390BD4
:104F30001AC018B88091D00187B98091C90185B98C
:104F40009091CB01892B84B9C091A201D091A3018A
:104F50008091D2010E94BA18C81BD90B8091D4014C
:104F60000E9449189C012115310511F421E030E01F
:104F7000CE01821B930BB9010E948B3C6B01EE2486
:104F8000FF242031310508F062C031E0B316D9F4B6
:104F90008091CE019091CA01982B94B985B98091E6
:104FA000D3010E94BA18EC010091A2011091A30153
:104FB0008091D4010E944918081B190BA090D501BB
:104FC000B090D60119C08091CE019091C901892B72
:104FD00084B9C091A201D091A3018091D2010E9415
:104FE000BA18C81BD90B8091D4010E9449188C01B2
:104FF000A090D701B090D8010115110511F401E07E
:1050000010E0BE0180E090E020EF3BE247E050E09E
:105010000E94533C980140E050E00E94B23CCA011B
:10502000B9012AE030E040E050E00E94533C20E922
:105030003AE1A20EB31E950140E050E00E94B23C5E
:10504000C216D306E406F50610F469017A01B6012A
:10505000C701CDB7DEB7EAE00C94133DDF92EF92C3
:10506000FF920F931F93D82E15B88091CA0184B96F
:105070008091CF0187B988B98091D3010E94BA1875
:10508000BC018430910550F18091D5019091D601F9
:105090007C0100E010E085E06937780780F091E05E
:1050A000D91669F414B88091D0019091CF01892B61
:1050B00087B98091D3010E944918BC0108C080E9DA
:1050C0009AE1A0E0B0E0E80EF91E0A1F1B1F20EADB
:1050D00036E841E050E0E9EFDE2E15C08091CD01C9
:1050E00084B98091D3010E94BA18BC0120E432E453
:1050F0004FE050E097EFD92E80EFE82E8BE2F82EAC
:1051000087E0082F112D17B818B814B815B880E02B
:1051100090E00E94533CA80197010E94B23C20936A
:10512000B9013093BA014093BB015093BC01D092B6
:10513000BD011F910F91FF90EF90DF900895A0E0C7
:10514000B0E0E5EAF8E20C94F93C8091D4010E94C9
:1051500049187C018091D3010E9449186C0180910B
:10516000CB0160E10E94CD198091D2010E94BA1852
:105170008C0115B80E943B3C8091C90185B9809192
:10518000D2010E94BA1826E00034120708F05FC06E
:105190008153914108F45BC014B815B88091D001D7
:1051A00088B90E943B3C8091C90184B98091D201A9
:1051B0000E94BA18853F910508F049C08091CB0143
:1051C00060E10E94CD198091D2010E94BA18EC01D1
:1051D00082E0CD3DD80760F482E2809304018091A3
:1051E00006018160809306018AE080930D0135C03D
:1051F0008091C90185B90E943B3C15B88091D201CC
:105200000E94BA18853F910510F580910401813202
:1052100029F48091060181608093060181E28093E8
:1052200004018BE080930D018091B5019091B6014E
:105230008C179D0720F5CE01A0E0B0E08093B5016A
:105240009093B601A093B701B093B80106C080E077
:10525000CDB7DEB7E8E00C94153D8091C501809391
:10526000A8018091C3018093A9018091C40180931A
:10527000AA01EC18FD08F092B001E092AF0181E0C4
:10528000E7CFA0E0B0E0E7E4F9E20C94F53C8B5EF8
:10529000914020F4B8E2CB2ED12C04C0A8EECA2E47
:1052A000A1E0DA2E8091CE019091CA01892B84B9B8
:1052B0008091D3010E94B1187C018091CE0185B903
:1052C0008091D3010E94B1184C01C7018C0D9D1D26
:1052D0008815990508F06AC08091CB0184B985B919
:1052E00018B88091D00187B98091D4010E94B1187B
:1052F00017B8C3978958924028F010E086E0E81666
:10530000F10408F411E08091CF0187B98091D401B4
:105310000E94B118EC018091D2010E94491817B87F
:105320008C179D0730F4C81BD90BC25CD14008F420
:1053300011E08091D00188B987B98091CE01909118
:10534000C901892B84B915B88091D2010E94B11886
:105350005C018091CE0185B98091D2010E94B11883
:10536000EC0118B88091D00187B98091CE0190915D
:10537000C901892B84B985B98091D4010E94B118E3
:1053800088549F4028F089E18093050184E006C09D
:10539000112361F489E28093050186E080930D0179
:1053A00084010E191F09CA19DB0977C018B880914A
:1053B000D00187B98091CE019091C901892B84B920
:1053C00085B98091D2010E94B1188C018091C901E8
:1053D00085B98091D2010E94B1187C018C0D9D1D70
:1053E0008017910708F009C1C091A201D091A301D3
:1053F0008091CB0184B915B88091CF0187B988B964
:105400008091D4010E94B11818B88D5C90418958E0
:10541000924028F0BB242C970C171D0710F0BB24DA
:10542000B3940E191F098091CF0187B98091CE01E5
:105430009091CA01892B84B985B98091D3010E94CA
:10544000B118EC018091CA0185B98091D3010E9405
:10545000B118C81BD90BD694C794CC15DD0518F428
:10546000CE01E8018C0115B88091CF0188B987B9C8
:105470008091D4010E94B118815D934028F48AE1A3
:105480008093050185E007C0BB2009F0B6C08AE221
:105490008093050187E080930D018FE180930401E3
:1054A000809106018160809306014091C50140937F
:1054B000A801C017D10738F48091C3018093A901D6
:1054C0008091C40106C08091C4018093A90180919C
:1054D000C3018093AA01C80162E370E00E948B3C83
:1054E0009B01C801861B970BC817D90750F0200FE6
:1054F000311F2C173D0728F08091050180648093AF
:1055000005018091A9016091AA010E94C3189091A0
:10551000D1018091D001982B97B92091C90124B96C
:105520008091050180FF13C018B825B90091A20130
:105530001091A3018091D2010E94B1189801281BFB
:10554000390BC901C091D701D091D8010AC098B9CF
:1055500015B88091D2010E94B118C091D501D091A7
:10556000D601C057D54EBC0180E090E020E137E283
:1055700040E050E00E94533C9E0140E050E00E9419
:10558000B23C2093B9013093BA014093BB015093D0
:10559000BC018AEF8093BD019091CE018091CD0135
:1055A000982B94B92091CF0127B98091050180FFF4
:1055B00003C015B828B902C095B918B80E943A3C82
:1055C0008091D3010E9449188C018091D4010E94DE
:1055D00049189C01201B310B3093B4012093B30177
:1055E0008091050180FF02C020543D4E215C324174
:1055F00020F01092B4011092B301CDB7DEB7ECE009
:105600000C94113DA0E0B0E0E8E0FBE20C94F53C26
:1056100090E0EC01C170D07080FF07C0C090C9015C
:105620008091CF0130E1A32E06C0C090CA018091C5
:10563000D00121E1A22E9EE0B92EB8228091D401A2
:10564000806480937C000E94443CEE24FF24870108
:10565000DD248FEF882E83E0982EA8958091CB01D2
:105660006A2D0E94CD198091CE018C2984B9209792
:1056700021F086B18B21E9F703C086B18B21E9F3D4
:10568000C4B880917A00806480937A0080917A0017
:1056900086FDFCCF209759F0809178009091790099
:1056A000A0E0B0E0E80EF91E0A1F1B1F0EC080919B
:1056B0007800909179009401281B390BC901A0E072
:1056C000B0E0E81AF90A0A0B1B0BD3943AE0D316A0
:1056D00021F6C801B7012AE030E040E050E00E9426
:1056E000D43CB901CA012091A2013091A30140E04C
:1056F00050E00E94533C20E034E040E050E00E9443
:10570000D43C3093B2012093B10180E480939F0197
:10571000CDB7DEB7ECE00C94113DA0E0B0E0E3E9DA
:10572000FBE20C94F53C982E5B010E94321941E09B
:10573000941641F58091CE019091C901892B84B9CD
:1057400085B90E94363CC090A201D090A3018091FF
:10575000D2010E944918C81AD90A0091A2011091D9
:10576000A3018091D4010E944918081B190BC09114
:10577000D701D091D801FF24F3948DEF99E028E46C
:105780003DE01AC08091CE019091CA01892B84B965
:105790008091D3010E94BA186C018091D4010E94BB
:1057A00049188C01C091D501D091D60172E0F72E35
:1057B00081ED93E020ED37E08017910708F0DBC022
:1057C000809104018E31E9F490910501892D89239E
:1057D00021F49460909305010EC051E0951659F4A0
:1057E0009091A9018091C301981729F49092040126
:1057F00082E080930501809106018160809306011B
:1058000005C08EE18093040190920501AC14BD04A3
:1058100010F4CA18DB08B60180E090E020EF3BE20C
:1058200047E050E00E94533C980140E050E00E9465
:10583000B23CCA01B9012AE030E040E050E00E94E9
:10584000533CC057D54E9E0140E050E00E94B23C10
:10585000C901DA015C016D01892D0E947327A6162A
:10586000B706C806D90628F45B016C0162E0862EF3
:1058700002C088248394E090B501F090B6010091B5
:10588000B7011091B80181E0981629F48091C40104
:105890006091C50104C08091C5016091C30140E0E1
:1058A0000E94E4240E9429198091050182FF1EC0F4
:1058B0006091BE017091BF018091C0019091C101C2
:1058C00000915001109151012091520130915301EA
:1058D0004091C201E0904F010E944810813009F4CC
:1058E000EFC0892D84608093050106C0EA14FB0493
:1058F0000C051D0508F0E4C080E00E942E28A0924F
:10590000B501B092B601C092B701D092B8018092B1
:10591000AE018091500190915101A0915201B0913E
:1059200053018093BE019093BF01A093C001B09337
:10593000C10180914F018093C2018091C501809384
:10594000A80141E0941659F48091C3018093A90104
:105950008091C4018093AA0110920D01B1C0809181
:10596000C4018093A9018091C3018093AA0181E0C1
:1059700080930D01A5C051E6A516B10408F0A0C0A2
:105980002C153D0508F09CC08091D2010E94491859
:105990008C018091D3010E944918081B190B0A3F02
:1059A000110508F044C08FE1809304018F2D8461BC
:1059B0008093050181E0F81641F46091D701709160
:1059C000D8016057754E82E007C06091D501709193
:1059D000D6016057754E83E080930D0180E090E022
:1059E000980153E0220F331F5A95E1F7000F111F62
:1059F000200F311F40E050E00E94533C960140E0F0
:105A000050E00E94B23CC9012091D9013091DA01E5
:105A10002817390718F020E030E004C0AC01421B21
:105A2000530B9A013093B0012093AF010FC080E275
:105A3000809304018F2D84608093050151E0F51659
:105A400011F488E001C089E080930D018F2D0E9440
:105A5000022B809106018160809306019091C5011F
:105A60009093A80181E0F81639F48091C3018093E6
:105A7000A9018091C40106C08091C4018093A9014D
:105A80008091C3018093AA01892F6091AA0140E00F
:105A90000E94E4248091500190915101A091520103
:105AA000B09153018093BE019093BF01A093C001B8
:105AB000B093C10180914F018093C2010E942919C6
:105AC000CDB7DEB7ECE00C94113DA0E0B0E0EBE622
:105AD000FDE20C94F33CA8950E94001B8091040108
