:100000000C942F080C944C080C944C080C944C083D
:100010000C944C080C944C080C944C080C94191536
:100020000C944C080C944C080C944C080C945438C8
:100030000C944C080C944C080C944C080C944C08F0
:100040000C943C380C944C080C944C080C944C08C0
:100050000C944C080C944C080C944C080C944C08D0
:100060000C944C080C944C087D1481148314871450
:100070008A148D14B01490149314B0149614B01400
:10008000B014B014B014B014B014B0149914B01467
:100090009C149F14B014B014B014B014B014B01465
:1000A000B014B014B014A214B014B014B014A51449
:1000B000B014A814B014AB14B014AE147B14554C87
:1000C00054494D4154450054455354455221210053
:1000D00050726F62696E672E2E2E0054696D656FC7
:1000E0007574004E6F20636F6D706F6E656E740077
:1000F000666F756E642100646F6E65210053656CD8
:100100006563740041646A7573746D656E74005341
:10011000617665004C6F61640053686F77205661AB
:100120006C7565730052656D6F766500437265612D
:1001300074650053686F72742043697263756974E3
:100140002100426174746572793F004572726F726A
:1001500021004578697400436865636B73756D00B1
:10016000424A54005343520054726961630050552F
:1001700054004279652100506F776572204D6F6E93
:1001800069746F72004F555400506F776572005656
:100190004D65746572005465737420436F6D706FA4
:1001A0006E656E7400487A003C4D656E752054652E
:1001B00073743E0050574D0053717561726520573E
:1001C00061766500467265712E20436F756E7465A9
:1001D0007200436F6E74726173740052204D6F6EC3
:1001E00069746F720043204D6F6E69746F72004FB7
:1001F000666600436F6E74696E7569747900466C4B
:100200006173686C696768740050686F746F6469C3
:100210006F6465006E6F007265760044696F646597
:100220002F4C45440076312E35346D004D4F530030
:10023000464554002D636800656E682E0064657045
:100240002E004947425400436773004E504E005001
:100250004E50006846450056626500565F475400A0
:100260004963656F00566600430056746800495F35
:100270005200565400567265660052682D0052684E
:100280002B0052692D0052692B002B526C2D002B34
:1002900052682D0031322031332032330043300098
:1002A0005230005663630041436F6D70002331008C
:1002B0002332004964737300495F6C005264730019
:1002C000565F4753286F66662900455352004362C4
:1002D00065002D032D002D012D002D022D002D0672
:1002E000072D0066706E056D006B4DEE59CB52AD5B
:1002F0004C6047BC42A43E003BBF37D0342932C0DB
:100300002F8C2D872BAC29F5275E26E52485233DF0
:10031000220A21EA1FDC1EDD1DED1C0A1C331B68AE
:100320001AA719F01841189B17FD166516D5154A1E
:1003300015C6144714CD135813E7127B121312AECF
:10034000114E11F0100000BA03870358032E030763
:1003500003E402C302A40288028111530F940D2604
:100360000CF40AF00911095008A6070F07890610B6
:1003700006A3053F05E40491044304FC03B9037A92
:10038000033F030703D1029E026D023E020F02E10A
:1003900001B20182014E010F01010008004000007E
:1003A00001000401020304051004012008020204F4
:1003B000080102030000000000000000000000002F
:1003C0000000000080F8F0E0C080F880000F070314
:1003D00001000F0080F880C0E0F0F880000F0001FD
:1003E00003070F0080F8F80000F8F880000F0F00F6
:1003F000000F0F00E01008080810E00019121E009E
:100400001E12190000F8000000E02000403F081014
:10041000081F100080F010101010101000070404C6
:1004200004040404101010101010F08004040404DC
:10043000040407000000F80402FE02007018171000
:10044000101F700002FE020002FE0200101F1010BA
:10045000105F300002FE02F002FE0200101F101FAB
:10046000105F30000000E01008F808007018171046
:10047000101F7000804028F8284080000708507F37
:100480005008070008F8080008F80800101F1010AE
:10049000105F300008F808C008F80800101F101F8F
:1004A000105F3000000002050200000000000000A4
:1004B000000000000000000000000000000000003C
:1004C00000000000000000FE0000000000000037F7
:1004D0000000000000160E0000160E0000000000D4
:1004E000000000000020F82020F8200000020F0289
:1004F000020F0200102844FE840810000304081FA5
:100500000805020018242498402010000402010C61
:1005100012120C0018A4E2A2128C8000070810101E
:1005200011120508000000160E0000000000000077
:10053000000000000000F0080402000000000304B6
:10054000081000000000020408F00000000010087D
:100550000403000090A0C0F8C0A090000402010FA6
:1005600001020400808080F080808000000000078D
:100570000000000000000000000000000000005823
:1005800038000000808080808080800000000000B3
:100590000000000000000000000000000000001843
:1005A000180000000000008040201000040201003C
:1005B00000000000F80402020204F800070810100E
:1005C00010080700000804FE020000000010101FC1
:1005D000101000001804020282443800181412118E
:1005E00010101C000E024262528A0600060810100B
:1005F0001008070080403E0000FC000003020202D9
:10060000121F12007E2212121222C60004081010BD
:1006100010080700F84422121224C0000708101026
:10062000100807000E0282C262321E0000001F0086
:100630000000000018A4424242A41800070810104D
:1006400010080700F80402020284F80000091212E0
:100650001108070000000030300000000000000C0E
:100660000C00000000000030300000000000002CF2
:100670001C0000000080402010080400000001025F
:1006800004081000004040404040400000020202C8
:10069000020202000004081020408000001008043C
:1006A00002010000180402020284780000000036F3
:1006B00001000000F008A4A4C408F0000708131209
:1006C000110A090000F0080402FE0200101F1202C5
:1006D000121F100002FE424242A41800101F101008
:1006E00010080700F804020202041E000708101098
:1006F0001008060002FE02020204F800101F10108B
:100700001008070002FE4242F2020E00101F1010F5
:1007100011101C0002FE4242F2020E00101F1010C7
:1007200001000000F804028282849E000708101174
:1007300008041F0002FE424042FE0200101F10008B
:10074000101F1000000202FE020200000010101F25
:100750001010000000000202FE0202000C10101037
:100760000F00000002FEC23008060200101F100336
:100770000418100002FE020000000000101F1010FC
:1007800010101E0002FE32C032FE0200101F1001C7
:10079000101F100002FE1AE002FE0200101F1000DF
:1007A000131F1000F80402020204F80007081010DA
:1007B0001008070002FE020202847800101F1101D7
:1007C00001000000F80402020204F80007081010FB
:1007D00012140B1002FE828282443800101F100196
:1007E000021C10001824424242841E000608101009
:1007F000100807000E0202FE02020E000010101F79
:100800001010000002FE020002FE0200000F101095
:10081000100F000002FE020002FE020000030E188C
:100820000E03000002FE02F002FE020000071C0F91
:100830001C070000021EF240F21E0200101F1100F1
:10084000111F100002FE820082FE02000000111F34
:10085000110000000E02824222120E001E11101022
:1008600010101E0000FE020202020000003F2020C5
:100870002020000008102040800000000000000040
:10088000000102000002020202FE000000202020FF
:10089000203F0000100804020408100000000000BF
:1008A00000000000000000000000000020202020C8
:1008B000202020000000000E1600000000000000B4
:1008C00000000000009048484890E0000708101021
:1008D00008041F0002FE12080810E000101F081094
:1008E00010080700E010080808103800070810106A
:1008F00010080600E010080812FE02000708101099
:10090000081F1000E09088888890E0000708101009
:100910001008040040F8444202040800101F1010A0
:1009200000000000E010080810F808000324484800
:10093000443F000002FE201008F00000101F1000CD
:10094000101F100000080BFB000000000010101F1B
:1009500010100000000008080BFB000000304040B1
:10096000403F000002FE804030081800101F1102B6
:100970000408180000000202FE0000000000101031
:100980001F10100008F808F008F00000101F001FEA
:10099000001F100008F8100808F00000101F1000D9
:1009A000101F1000E01008080810E00007081010E1
:1009B0001008070008F810080810E000407F4810F1
:1009C00010080700E010080810F8080007081010C9
:1009D000487F400008F8201008087000101F100021
:1009E0000000000020508888881038000608101089
:1009F000100906002020FE202000000000000F103B
:100A000010100C0008F8080008F80800000F10107B
:100A1000081F100008F8080008F8080000030E1866
:100A20000E03000008F808C008F80800000F180FAF
:100A3000180F00000838E080E0380800101F01009F
:100A4000011F100008F8080008F8080000274848AF
:100A5000443F000038080888482818001C1211106C
:100A600010101E00804038040202000000010E1029
:100A700020200000000000FE000000000000003FF9
:100A80000000000000020204384080000020201016
:100A90000E0100000080F0E0C080000000000703AD
:100AA00001000000FEFEEEE60202FEFE1F1F1F1701
:100AB0001010171FFEE6E27A3A82C6FE1F111016CA
:100AC0001713131FFEF6F2BABA0246FE1F1B1317C6
:100AD0001710181FFCCC8C3C3C8CCCFC1F19181E2A
:100AE0001E18191FF0101010101010100F08080811
:100AF00008080808F010D0D0D0D0D0100F080B0B89
:100B00000B0B0B0810101010101070C0080808080C
:100B100008080E03D0D0D0D0D01070C00B0B0B0B38
:100B20000B080E0300181818FEFEFEFC000C0C0C3F
:100B30003F3F3F1FFCF8E080808080801F0F030054
:100B400000000000FF010203040506076F707172C8
:100B5000737475767778FFFFFFFFFFFFFFFFFFFFDE
:100B6000FFFFFFFF101112131415161718191A1B87
:100B70001C1D1E1F202122232425262728292A2B3D
:100B80002C2D2E2F303132333435363738393A3B2D
:100B90003C3D3E3F404142434445464748494A4B1D
:100BA0004C4D4E4F505152535455565758595A5B0D
:100BB0005C5D5E5F606162636465666768696A6BFD
:100BC0006C6D6EFFFFFFFFFFFFFFFFFFFFFFFFFFEB
:100BD000FFFFFFFFFFFFFFFFFFFFFFFFFFFFFFFF25
:100BE000FFFFFFFFFFFFFFFFFFFFFFFFFFFFFFFF15
:100BF000FFFFFFFF0FFFFFFFFF05FFFFFFFFFFFFEF
:100C0000FFFFFFFFFFFFFFFF08FFFFFFFFFFFFFFEB
:100C1000FFFFFFFFFFFFFFFFFFFF09FFFFFFFFFFDA
:100C20000AFFFF0BFFFFFFFF0CFFFFFFFFFFFFFFB0
:100C3000FFFFFFFFFFFFFFFFFFFF0DFFFFFFFFFFB6
:100C40000EFFFFFF000000000000000000E0E000D9
:100C500000008040201F007C8282820000C848483B
:100C60008808080808FFFF14224180C00000000027
:100C700000000000001F12120D000000000303001E
:100C800000010101027C007F494941000000000091
:100C90000000000000E0E0000000E0C0A01F00FE37
:100CA0009292820000C848488808080808FFFF148C
:100CB000224180000000000000000000001F12120E
:100CC0000D0000000003030000000001027C003E54
:100CD0004141410000008080000000C0C000E0E011
:100CE00040404040407F00FE82827C00001F202860
:100CF000190000FFFF009C9C08081C3E08F800003B
:100D000000000000000101010101010101000303D5
:100D100001010101017F00264949320000404040A5
:100D2000404040C0C000E0E04040404040FF004C38
:100D300092926400007C82A2640000FFFF009C9CF1
:100D400008083E1C080F0000000000000000000022
:100D5000000000010100030301010101017F007F88
:100D600041413E0000008080000000C0C000E0E083
:100D700040404040407F00FE82827C00001F2028CF
:100D8000190000FFFF00FFFF08081C3E08F80000E4
:100D90000000000000010101010101010100030345
:100DA00001010101017F0026494932000040404015
:100DB000404040C0C000E0E04040404040FF004CA8
:100DC00092926400007C82A2640000FFFF00FFFF9B
:100DD00008083E1C080F0000000000000000000092
:100DE000000000010100030301010101017F007FF8
:100DF00041413E0000804040800000000000E0E0F3
:100E00008080808080FF00FE82827C00008F909432
:100E10008C80E0C08080FFFF808080808080000028
:100E200000000000000000000000030100000303B8
:100E300000000000007F00264949320000808080C9
:100E40008080C0E08080E0E08080808080FF004C77
:100E50009292640000F80444C80001030000FFFF00
:100E60008080808080800000000000000000010180
:100E7000000000000000030300000000007F007F6E
:100E800041413E0000000000000000808000E0E0E2
:100E900000000080403F007C828282000088484839
:100EA000880808FFFF00FFFF14A2C1E00000000057
:100EB00000000000000F10140C00000000000303ED
:100EC00000000000017E007F494941000000000051
:100ED000000000808000E0E00000C080403F00FE95
:100EE0009292820000884848880808FFFF00FFFFB0
:100EF000142241810100000000000000000F1014C6
:100F00000C0000000000030300000000017E003E12
:100F1000414141000000000000000000000000000E
:100F2000FF00007C12127C000000000000F0084866
:100F3000D00000C1C3C7CFDFFFDFCFC7C3C10000F0
:100F40000000000000080909080808080804020158
:100F50007F00003C42424200000000000000000010
:100F600000C0C0C0C0C0C0C0C0FFC0C0CFC0CFC0E4
:100F7000C0C00000E01090A00080E0F8FEFFFEF886
:100F8000E080838FBFFFBF8F83800000111212119A
:100F90001011110905030101017F0101017901010E
:100FA00001010000001090901010101010204080DF
:100FB000FF00007C12127C0000000000000F1014E3
:100FC0000D0000C1C3C7CFDFFFDFCFC7C3C1000023
:100FD0000000000000000000000000000000000011
:100FE0007F00003C424242000000000000404040C0
:100FF000408000000000E0E08080808080FF003EB4
:10100000003E000000FE9292820005060708FFFFE6
:1010100080808080808000000000000000000000D0
:10102000000000000000030300000000007F00003B
:101030003E000000050A0605060A050A0609060A1A
:10104000050A0609060A050A0609060A050A06052A
:10105000060A050A06050A06090A06090A061124EF
:101060001FBECFEFD8E0DEBFCDBF11E0A0E0B1E002
:10107000E2EBFBE702C005900D92A030B107D9F773
:1010800011E0A0E0B1E001C01D92AC3EB107E1F774
:101090000E94320E0C94D73D0C940000982F809142
:1010A000A801981719F48091AB0108958091A901C6
:1010B000981719F48091AC0108958091AD010895BD
:1010C0000E94373C81E00E941E1C82E791E00E9452
:1010D000541DF89488E10FB6F89480936000109244
:1010E00060000FBE589883B7817F846083BF83B749
:1010F000816083BF889583B78E7F83BF089582E028
:101100000E941E1C83EE90E00E94541D80EF90E030
:101110000E94971E8091A7018F5F8093A701089579
:10112000CF93DF9388EC80939D0185E00E94501857
:10113000EC018B5C9840835F9140C8F46091A20100
:101140007091A30180E090E023EC39E040E050E0B2
:101150000E948B3C9E0140E050E00E94EA3C3093AC
:10116000A3012093A20180919B01846003C0809120
:101170009B018B7F80939B018EE00E94501890937F
:10118000A1018093A00188EC80939D018EE00E94D4
:1011900050182091DE01332727FD3095280F391F85
:1011A0003093A1012093A00189E180939D01DF91FB
:1011B000CF9108951F938091A4019091A5012BE0F8
:1011C000883B920710F48CE005C02CE0843E920727
:1011D00018F48DE01EE008C08153914118F48DE0B1
:1011E0001FE002C080E111E10E94A13B812F0E941B
:1011F000A13B0E94FF1C8091A4019091A5016AE08F
:1012000070E00E94C33C80E090E04EEF26E50E9433
:101210002B1C1F91089586E00E945018A0E0B0E0BA
:10122000BC01CD012EEB3FE040E050E00E948B3C42
:1012300028EE33E040E050E00E94EA3C81E12133B7
:10124000380718F024543F4F02C0215E3F4F3093BF
:10125000A5012093A40184E68093A601285B3B406E
:1012600050F40E94373C0E94DA0888EB9BE00E9411
:10127000D6140E9460080895FC018181608140E0DD
:101280000E94EB24609150017091510180915201B4
:101290009091530140914F0126E40E942B1C089528
:1012A0000E94FF1C8091050182FF03C088E392E049
:1012B00002C08DE392E00E94461D08950E94FF1C2B
:1012C0008091050180FF02C08EE401C080E50E948C
:1012D000A13B84E392E00E94461D08951F93162FC0
:1012E0000E94A13B8EED92E00E94461D812F0E943C
:1012F000A13B0E94FF1C609112017091130180912B
:101300001401909115014091110124E00E942B1CC1
:101310001F9108951F93162F0E94031D81E00E94C4
:10132000A13B812F0E94031D1F9108950F931F93CE
:10133000CF93DF938091050180FF05C00091AA0142
:101340001091A90104C00091A9011091AA01802F58
:10135000612F0E94FA26EC01009731F00E94FF1CD9
:10136000802F612F0E948A098091050182FF3BC076
:101370008091B1019091B201892B81F08AE692E0CF
:101380000E94891E6091B1017091B201882777FD9A
:101390008095982F4DEF26E50E94DB1C87E492E0B4
:1013A0000E94891E6091BE017091BF018091C001B1
:1013B0009091C1014091C20126E40E942B1C8091B2
:1013C000AF019091B001892B71F08CEB92E00E94FB
:1013D000891E6091AF017091B00180E090E04EEF06
:1013E00024E00E942B1C209799F00E94251E81E08A
:1013F0000E94A13B0E94FF1C85E692E00E94741DA2
:101400006A817B8180E090E04DEF26E50E942B1CF5
:10141000DF91CF911F910F91089580E00E94081DE8
:1014200081E00E94081D82E00E94081D8DE30E9459
:10143000A13B80E00E94031D81E00E94031D82E029
:101440000E94031D08958EE691E00E94461D0E94B1
:10145000251E0E940D0A82E792E00E94891E60917B
:101460003F017091400180E090E04DEF26E50E9441
:101470002B1C85E692E00E94891E60913D017091CF
:101480003E0180E090E04DEF26E50E942B1C089580
:1014900080910401823219F484E691E002C088E66A
:1014A00091E00E94461D0E94251E0E940D0A809117
:1014B000AF019091B001892B71F08BE592E00E9411
:1014C000891E6091AF017091B00180E090E04DEF16
:1014D00026E50E942B1C089582E492E00E94461D9E
:1014E0000E945E090E9450090E94251E0E940D0A5A
:1014F0000E9496090895EF920F931F93CF93DF9365
:10150000EC016091B9017091BA018091BB01909199
:10151000BC014091BD010AE010E020E030E057EF4F
:10152000E52E0E944F1087FD10C0CE010E94891E3B
:101530006091B9017091BA018091BB019091BC0199
:101540004091BD0121E40E942B1CDF91CF911F919E
:101550000F91EF9008958091050184FF05C08CE202
:1015600092E00E94461D03C08AE40E94A13B80E3F2
:1015700092E00E94461D0E945E098091050184FF51
:1015800002C00E9450090E94251E0E940D0A0E945E
:1015900096098091050183FF1EC083EB92E00E94B3
:1015A0007B0A8091B3019091B401892BA1F080EC6A
:1015B00092E00E94891E0E94251E0E94FF1C6091DD
:1015C000B3017091B401882777FD8095982F4DEF76
:1015D00026E50E94DB1C0895EF92FF920F931F9364
:1015E000CF93DF938091050180FF0AC0CBE4D2E066
:1015F000E090A801F090AA010091A9011F2D09C057
:10160000CFE4D2E0E090AA01F090A8011091A901E6
:101610000E2D80E691E00E94741DCE010E94461DB1
:101620008091050182FF03C08BE20E94A13B0E94D2
:10163000251E0E940D0A812F602F0E94FA26892BF9
:1016400031F00E94FF1C812F602F0E948A098F2D8C
:101650006E2D49E10E94C521813049F40E94251E6A
:1016600082E465E40E946E0984E080932A0183E5A8
:1016700092E00E94891E6091B5017091B60180913F
:10168000B7019091B8010E94CE1C0E94FF1C80916E
:10169000AE0180FF02C085E603C081FF03C083E680
:1016A0000E94A13B8E2D6F2D0E94FA26EC0100971F
:1016B00081F187E592E00E94891E2A813B81EC81BD
:1016C000FD81E090B501F090B6010091B701109155
:1016D000B80144E6E416F1040105110598F0C901CA
:1016E0008E1B9F0B63E070E00E94D73C4AEFE4162C
:1016F000F1040105110518F4261B370B03C09B01EB
:101700002E0F3F1FB90180E090E04DEF26E50E94CB
:101710002B1C80E692E00E947B0A8EEC92E00E94F5
:10172000891E6091BE017091BF018091C0019091AE
:10173000C1014091C20126E40E942B1CCDB7DEB747
:10174000E6E00C944F3DA1E0B0E0E9EAFBE00C9448
:101750002F3D80910901813079F4F0907801F5E016
:10176000EF2EE5E0CE2E75E0D72E67E7A62E61E0DE
:10177000B62E00E010E01FC1823001F51091770114
:10178000D0907D011D1549F4C0907801D0907E0164
:1017900055E0F52E81E089834FC0F090780180916B
:1017A0007E01F81621F4C12E45E0E42EFDC0181785
:1017B00009F0F2C0FD1409F0EFC038C0833061F5C4
:1017C00020E046E0249F50011124E7E7F1E0AE0E4F
:1017D000BF1E30E0349F8001112409581E4F23178B
:1017E00041F0F5019181F8018081981711F425E00D
:1017F00035E03F5F333070F32F5F233018F325302F
:1018000010F400E010E0F501F18033E0E32E25E074
:10181000C22E95E0D92ECFC086ED92E00E94741DB5
:1018200080910901805D0E94A13BC8C0F12E85E036
:10183000C82E05E0D02E19821330A0F480917801D3
:101840000E94081D8AED92E00E94461D812F0E9491
:10185000081DE12E17E7A12E11E0B12E85010A5FC8
:101860001F4F16C0E12EB7E7AB2EB1E0BB2E8501AE
:101870000A5F1F4FF50180810E94081D86ED92E0EE
:101880000E94461D8F2D0E94081D0115110599F01B
:10189000EF1441F0F3E0FE1528F0F801F18086ED39
:1018A00092E004C0F801F0808AED92E00E94461DAB
:1018B0008F2D0E94081DF4E0FC1500F18C2D6D2D7C
:1018C00049E10E94C5218130C9F40E94FF1C82E0D9
:1018D0008E1518F08FE492E002C08BE492E00E9433
:1018E000461D8FE30E94A13B0E94251E91E3D90E65
:1018F0008C2D8F5C6D2D0E946E09198285E692E019
:101900000E94891EF5016281738180E090E04DEFB5
:1019100026E50E942B1C0E94FF1C0115110501F5F4
:10192000F501848195818A3F910568F488E20E94DF
:10193000A13BF5016481758180E090E00E94CE1C9E
:1019400089E20E94A13BF501818160810E942A19F0
:1019500081E00E9435288EE692E00E947B0A09C051
:10196000F8016281738180E090E04DEF26E50E94EE
:101970002B1CF981F13011F588E692E00E94891E56
:10198000C5010E943C0901151105C1F00E94FF1C10
:10199000C8010E943C0912C0A5E0EA2EF5E0FF2E26
:1019A000E5E0CE2E75E0D72E67E7A62E61E0B62ED5
:1019B00085010A5F1F4F81E089835CCF2196EAE0B1
:1019C0000C944B3DEF920F931F93CF93DF93609155
:1019D0005E0170915F0180916001909161010091C1
:1019E00050011091510120915201309153014091C9
:1019F0005D01E0904F010E944F10813019F4CBE55A
:101A0000D1E002C0CDE4D1E060916C0170916D0134
:101A100080916E0190916F010B811C812D813E811F
:101A200040916B01EA800E944F10813011F4C9E6A9
:101A3000D1E088810E94081D82ED92E00E94461D3F
:101A400089810E94081D0E94251E6B817C818D81E9
:101A50009E814A8126E40E942B1CCE010E9475259E
:101A60008C018FEF0F3F180749F00E94FF1CB8014F
:101A700080E090E04EEF24E00E942B1C8B859C853B
:101A8000892B61F088EB92E00E94891E6B857C8532
:101A900080E090E04D8521E40E942B1CDF91CF91E6
:101AA0001F910F91EF900895A0E0B0E0EAE5FDE00E
:101AB0000C94323D80910801813039F4D0900F01AF
:101AC0000FE011E0EE24FF245CC0833031F00FE022
:101AD00011E087E0E82EF12C47C060911901709168
:101AE0001A0180911B0190911C010091120110912B
:101AF0001301209114013091150140911801E090DB
:101B000011010E944F10813019F4C6E1D1E002C0EA
:101B1000CFE0D1E0609120017091210180912201FC
:101B2000909123010B811C812D813E8140911F01E9
:101B3000EA800E944F10813011F4CDE1D1E081E0C4
:101B4000CF30D80721F48E01095F1F4F02C00FE08C
:101B500011E0B7E0EB2EF12CE00EF11EEC16FD06C5
:101B600029F4AEE0EA2EF12CE00EF11EF801D0804F
:101B7000F7018081D81629F08181D81611F0F8017B
:101B8000D180F80180818D1511F4F80181810E94C6
:101B9000081D8EED92E00E94461D8D2D0E94081DAD
:101BA000E114F10461F08EED92E00E94461DF70110
:101BB00080818D1511F4F70181810E94081D0E941A
:101BC000251EF8016381748185819681428124E01C
:101BD0000E942B1CE114F10451F00E94FF1CF7013C
:101BE0006381748185819681428124E012C0C8019D
:101BF0000E947D2F813079F40E94FF1C6091E301E7
:101C00007091E4018091E5019091E6014091E2013B
:101C100028E40E942B1CCDB7DEB7E7E00C944E3DC4
:101C2000809105018130C9F482E491E00E94461D53
:101C30000E94251E80910A010E94081D0E94D31C4B
:101C40000E94FF1C60910B0170910C0180E090E0FC
:101C50004DEF26E50E942B1C0895823011F40E945E
:101C60007F080895EF92FF920F931F93CF93DF9316
:101C700091E09AB99BB980E185BF87E880937A00AB
:101C800014B7187084B7877F84BF88E10FB6F894C3
:101C900080936000109260000FBE90939B0182E0E1
:101CA00080939C010E9456390E94DC3A112399F0DE
:101CB0000E94373C82E00E941E1C8BED90E00E9447
:101CC000541D8BE491E00E94971E80ED97E00E94E6
:101CD000D614589885C14B9B02C010E00FC084E118
:101CE00090E00E94D6144B9905C01F5F1536B9F7D6
:101CF00013E07EC1103108F07AC111E080919B01A0
:101D000080FF05C080919C01806280939C010E94AD
:101D1000453C109224015C98549A5D98559A133072
:101D200019F40E94281504C081E061E00E94111896
:101D30008091E0010E94343B8EEB90E00E94971E60
:101D400087EC90E00E94971E8CED95E00E94D614DF
:101D50001092A70189E180939D0181E080939E010B
:101D600080939F0189E793E19093A3018093A2015F
:101D70002FE088E190E00FB6F894A895809360007A
:101D80000FBE20936000789416E6FF24F39403E0DE
:101D900092E0E92EC8EAD1E001C015E610920401F4
:101DA000109205011092060110920701109209018C
:101DB000109208011092AE011092B0011092AF0182
:101DC0001092B2011092B1011092B4011092B301BD
:101DD0001092B5011092B6011092B7011092B8019D
:101DE0001092B9011092BA011092BB011092BC017D
:101DF00010923E0110923D011092400110923F015D
:101E000010922F01F092310100932A0117B8E0924D
:101E100024010E94373C0E9490080E940B0916364C
:101E200009F4CDC00E940B090E94DA0881E00E94EB
:101E30001E1C0E94251E809127018150809327013E
:101E400080ED90E00E94541D809127018F5F809368
:101E500027010E94071B809104018130E1F180E09D
:101E600061E042E00E94F31981E060E042E00E94FC
:101E7000F31980E062E041E00E94F31982E060E043
:101E800041E00E94F31981E062E040E00E94F31912
:101E900082E061E040E00E94F3190E94B3190E94C1
:101EA000C62680910401882311F08A30A1F40E9493
:101EB000FF1C83E40E94A13B82E060E040E00E94BE
:101EC000EB2482E061E041E00E94EB2481E060E0ED
:101ED00042E00E94EB240E94373C009324015C9A6C
:101EE00084E190E00E94D6145C98809104018E31C8
:101EF00011F18F3160F48A3069F18B3018F4813040
:101F000079F513C08B3049F1843151F511C081321C
:101F1000D9F0823228F48F3189F0803209F511C06E
:101F2000823291F08332E1F412C00E94100E1AC086
:101F30000E94A30B17C00E94EC0A14C00E94AB0AB7
:101F400011C00E946C0A0EC00E94480A0BC00E9479
:101F5000230A08C00E94540D05C00E94E20C02C072
:101F60000E947F08809104018E3130F080912A0117
:101F7000882311F00E944A1E809104018A3010F0DB
:101F80001092A701109224010E940F1ED0933701D6
:101F9000C093360188EB9BE06EE30E945411182F2A
:101FA000882329F48091A7018530C0F4F7CE8330CF
:101FB00031F0823099F0853011F0853661F490E08F
:101FC00003C00E946314982F892F88568230C8F767
:101FD0009836C1F6E2CE873609F0E0CE0E9460085E
:101FE00080E090E0CDB7DEB7E6E00C944F3D12E024
:101FF00080919B018E7F80939B0180CEAF92BF9298
:10200000CF92DF92FF920F931F93DF93CF9300D075
:102010000F92CDB7DEB789836A834B836E01089434
:10202000C11CD11C860124E0A22EB12CAC0EBD1E19
:10203000802F8C19F801F080FF2049F00E94081DC4
:102040000E94D31C8F2D0E94A13B0E94FF1C0F5F9A
:102050001F4F0A151B0561F70F900F900F90CF913E
:10206000DF911F910F91FF90DF90CF90BF90AF90C5
:1020700008951F9311E00BC02AE030E040E050E0EB
:102080000E94EA3CC901DA01BC01CD011F5F6A3040
:1020900071058105910580F7812F1F9108956F9239
:1020A0007F928F929F92AF92BF92CF92DF92EF92E8
:1020B000FF920F931F933B014C01F42E58016901CD
:1020C0000E2D0E943910182FC601B5010E9439103B
:1020D000611471048104910491F1A114B104C1044B
:1020E000D10431F1EF2CE10E800F8E1534F1E8169A
:1020F00069F51E2D1F19E01A0BC0C601B5012AE0B3
:1021000030E040E050E00E948B3C5B016C01E394C6
:10211000E1169CF30BC0C401B3012AE030E040E0BB
:1021200050E00E948B3C3B014C011F5F1E159CF34D
:10213000A614B704C804D90410F481E008C06A14D6
:102140007B048C049D0410F080E001C08FEF1F9190
:102150000F91FF90EF90DF90CF90BF90AF909F9046
:102160008F907F906F9008950F931F93142F022FDD
:102170009B01AC0117C0101754F4B901CA012AE041
:1021800030E040E050E00E94EA3C1F5F0BC0B90124
:10219000CA012AE030E040E050E00E948B3C9B0105
:1021A000AC011150101739F7B901CA011F910F91F5
:1021B0000895382FE82FF92F01C031969E2F931BD9
:1021C00084918823D1F7892F0895681721F48AE232
:1021D0000E94A13B08950E94FF1C089503C00E9425
:1021E000723CA8954B9BFBCF84EF91E00E94D614E4
:1021F00008951F931AB18AB1897F8AB90E94783CE9
:1022000089B182FD02C030E001C032E081FD316061
:102210001AB980913301813031F430933201109238
:1022200033011092350180913501882329F08A3FCE
:1022300018F48F5F80933501209132013093320181
:10224000231779F1832F822780FF8695813031F51E
:10225000220F82E790E002C0959587952A95E2F7D4
:102260008370831711F095E001C094E080913401F0
:102270008F5F8093340180913301981729F081E0BA
:102280008093340180933501909333018091340120
:10229000843038F010923401892F04C081E080939B
:1022A000330180E01F910895A3E0B0E0EAE5F1E199
:1022B0000C94273D5C01162F81E08093330110922E
:1022C00034018093300180919C0185FF04C060EF50
:1022D000C62ED12C02C0CC24DD2412FF08C0809170
:1022E0009B0180FF03C0AA24BB2401C01C7F15FFF3
:1022F00021C020913601822F90913701FC0101C04D
:1023000031969E2F921B84918823D1F79150809112
:102310002701981778F4882E891A1C7F882D6091E0
:1023200028010E945A3B80913601909137010E940A
:10233000461D01C08824812F90E09B838A833C0145
:1023400093E0692277246114710409F4C9C081E023
:102350000E94FA3BC5C0A114B10451F0E3E0AE16EF
:10236000B10410F400E004C08EEF9FEFA80EB91E78
:102370004B993CC08EE190E00E94D61410E009C059
:102380004B9909C01F5F1B3130F48AE090E00E9436
:10239000D6140023A9F71B3118F052E0F52E24C003
:1023A000EA81FB81EF2B19F4FF24F3941DC082E333
:1023B00090E00E94D614FF24F39414E14B990DC0D1
:1023C0008EE190E00E94D6144B9907C088EC90E013
:1023D0000E94D61443E0F42E11E011508AE090E000
:1023E0000E94D614112351F700E070C00E94F9102A
:1023F000882371F1EE2011F4F82E03C08F1509F037
:102400008BC0E394809135016E2D0E94AA3C282F49
:10241000F8E18F9FC001112434E0969587953A9595
:10242000E1F7893208F088E2982F9695969596956F
:10243000933010F433E039838981E81621F09CE071
:10244000990E920E05C087E0891B8093300164C00D
:10245000EE2029F080913501891508F05DC082E0F9
:1024600090E00E94D6141F5F812F68E20E94AA3C70
:10247000992369F48091A601823020F081508093E5
:10248000A60105C04114510411F00E940B09183C2B
:10249000E9F42114310459F0013029F480E00E945C
:1024A000FA3B02E004C081E00E94FA3B01E0C11463
:1024B000D10459F0E2E0CE16D10420F497E6F92ECB
:1024C00000E003C00894C108D10810E080919C018D
:1024D00080FF1FC080919C018E7F80939C011CC057
:1024E000FF2401E010E082E3982EEE24F2E0F9836D
:1024F0002A803B8032E0232233244A805B8080E1C3
:1025000048225524EA81FB81E870F070FB83EA835E
:1025100022CF002309F01FCF6114710419F080E06D
:102520000E94FA3B882041F0882D609128010E948A
:102530005A3B80E00E94093CF0922F01F7E6FF161B
:1025400011F40E9460088F2D2396E2E10C94433D24
:10255000A0E0B0E0EEEAF2E10C94283D362E3A011C
:102560004901D0902801DA94FF24EE2402E04D2C9A
:102570004A94B82EC82ECA94A82EAD18502E5D18B5
:1025800081E0D81611F40F5FEF2CCE2DD0E0CC0FE8
:10259000DD1FC60DD71D10E02CC0612F6E5F81E0DE
:1025A0000E945A3B81E0D81629F0812F8E0D6F2DA5
:1025B0000E94E5100230C0F081E0381629F48881CD
:1025C00099810E94461D07C0FE016591749180E0CB
:1025D00090E00E94CE1C8114910419F0C4010E9465
:1025E000461D80E00E94093C1F5FC11608F41D2DA6
:1025F00022961D1590F281E0D81649F480912701AA
:10260000609128010E945A3B8CE30E94A13B80E02C
:1026100090E060E10E945411813011F41F2D3FC001
:10262000843019F41F2D01E01DC0853019F01F2DD5
:1026300001E033C0FF2039F4CD1408F444C0EA2C83
:102640001C2D02E03EC01F2D11501E15E9F5EE2095
:10265000D9F1FD1410F4EE2401C0E50C81E0F81668
:10266000D1F402E01C1531F41D1508F00F5F10E0E5
:10267000EE2427C0912F9F5F842D8E0D981701F5B2
:102680009C15F0F48B2D891B8D1510F0E12E01C0E7
:10269000EA2C0F5F15C08F2D02E0823061F40E949A
:1026A000373C84EF91E00E94D614812FCDB7DEB77E
:1026B000E1E10C94443D873621F40E94600801C09A
:1026C000192FF12E5DCF1C2D01E0FBCFACE3B0E064
:1026D000ECE6F3E10C94373D86E991E09E8B8D8B1F
:1026E0008CE2898387E791E0988F8F8B8BE28A83D6
:1026F0008EEF91E09A8F898F85E28B8383EF91E053
:102700009C8F8B8F81E28C8384EB91E09E8F8D8FE9
:1027100086E08D8388EB91E098A38F8F87E08E838E
:102720008AEC92E09AA389A389E08F838BED91E0F4
:102730009CA38BA386E1888785EE91E09EA38DA361
:1027400087E1898784EC91E098A78FA38AE08A8744
:1027500089E092E09AA789A787E28B878BE192E0D4
:102760009CA78BA789E28C8784E091E09EA78DA728
:1027700082E08D8782ED91E098AB8FA78CE08E8709
:102780008FE091E09AAB89AB83E08F8784E191E0A1
:102790009CAB8BAB84E0888B89E191E09EAB8DABE9
:1027A00085E0898B8FEE91E098AF8FAB84E18A8BC7
:1027B0000E94373C0E94DA0882E161E0AE014B5E84
:1027C0005F4F20E030E00E94A812FE01E80FF11DEB
:1027D0008181EC96E2E00C94533DA9E0B0E0E3EF98
:1027E000F3E10C94363D182F8DEA92E09D838C83A3
:1027F00080EB92E09F838E8382E591E099878887C2
:102800000E94373C123019F48FE091E002C084E15D
:1028100091E00E94461D83E061E0AE014C5F5F4F96
:1028200020E030E00E94A81291E0998392E09A8320
:102830001B82FE01E80FF11D6181662319F0812FD3
:102840000E9411182996E3E00C94523D0F931F93B8
:10285000CF93DF93082F882321F4C5E2D1E010E065
:1028600003C0CCE2D1E013E00E94F21A8117A1F07C
:102870000E94373C82E00E941E1CCE010E94541D23
:1028800083E391E00E94971E0E94F21A811731F4AF
:1028900088EC90E00E94D61481E00AC084E690E0C3
:1028A00060E10E945411013079F7882369F380E0D8
:1028B000DF91CF911F910F91089588EB9BE065E127
:1028C0000E94541108951F930E946613982F8091BF
:1028D0009B0180FF05C080919C018F7D80939C01AE
:1028E000892F90E0FC013297EB32F105C8F5EC5CE2
:1028F000FF4F0C945E3D18E634C00E94DC15182F83
:1029000030C082E001C081E00E94ED1329C00E9426
:10291000571526C00E94A33623C00E94A13520C0AF
:102920000E945A351DC00E9468381AC00E94D61DE8
:1029300017C00E94600814C00E94253511C00E9473
:10294000BD340EC00E9468340BC00E94BA3008C06B
:102950000E94D53305C00E949A3302C00E94B8314C
:1029600011E080919B0180FF05C080919C018062F5
:1029700080939C01112361F40E94373C81E00E9406
:102980001E1C8BE491E00E94541D0E945D140BC03C
:10299000193649F40E94373C81E00E941E1C87EFE3
:1029A00090E00E94541D812F1F9108951F93BC0138
:1029B0001092B1001092B20082E08093B000809338
:1029C00070000FB607FC1FC0789410E01DC0A895DA
:1029D0002F3F31054105510519F010F09FEF01C05F
:1029E000922F91509093B3009F5F6093B10002C00B
:1029F000000000008091B1008823D1F7291B310924
:102A0000410951090CC011E080E090E024E130E080
:102A100040E050E00E948B3C9B01AC0167E0211537
:102A200031054105510599F6112309F4F8941F91D8
:102A300008951F920F920FB60F9211241092B100B9
:102A40000F900FBE0F901F9018958150860F08951C
:102A500088EC90E09093D6018093D5018CED90E0C6
:102A60009093D8018093D7018FE090E09093DA01A2
:102A70008093D9018FE18093DB018093DC01809307
:102A8000DD011092DE011092DF018FEF8093E001F3
:102A90000895E5EDF1E090E08191980F81E0E13E4D
:102AA000F807D1F7992309F491E0892F089581E07F
:102AB000809324010E94373C82E892E00E94741DBA
:102AC0006091D5017091D60180E090E04FEF24E055
:102AD0000E942B1C86E892E00E94891E6091D7011B
:102AE0007091D80180E090E04FEF24E00E942B1C11
:102AF0008DE992E00E94891E6091DB0170E080E028
:102B000090E00E94CE1C0E94FF1C6091DC0170E0EE
:102B100080E090E00E94CE1C0E94FF1C6091DD01CD
:102B200070E080E090E044EF26E40E942B1C80EAF5
:102B300092E00E94891E6091D9017091DA0180E0D3
:102B400090E04EEF24E00E942B1C85E792E00E946B
:102B5000891E6091A0017091A10180E090E04DEF8D
:102B600026E50E942B1C83EA92E00E94891E609158
:102B7000A2017091A30180E090E04DEF26E50E9454
:102B80002B1C80919B0182FF05C00E94FF1C8AE2E2
:102B90000E94A13B87EA92E00E94891E6091DF01BA
:102BA000772767FD7095872F972F4DEF26E50E94B9
:102BB000DB1C0E945D140895A8E0B0E0E2EEF5E1B0
:102BC0000C94273D81E00E942614882319F4EAE042
:102BD000DE2E02C072E0D72EEE24FF2400E010E0CB
:102BE00018861F82BB24222433241E821D821C824D
:102BF0001B82AA24882499241A82662477241982A5
:102C0000442455245FC10E94373C81E40E94A13BCB
:102C10008D2D805D0E94A13B0E94FF1C24E0D216F6
:102C200009F44FC02D1540F032E0D31671F083E067
:102C3000D81609F010C13EC095E0D91609F46DC050
:102C4000E6E0DE1609F007C1A7C080EA92E00E9424
:102C5000741D84E992E00E94461D81E060E00E94BC
:102C60002A1980E00E94AD1E7C018639910518F476
:102C7000880E991EA39482E060E00E942A1980E0E9
:102C80000E94AD1E8C018639910518F4880E991E9C
:102C9000A39482E061E00E942A1980E00E94AD1EA8
:102CA00098878F838639910508F0D5C0880E991EC4
:102CB000A394D1C080E00E94261464E6C62E80E072
:102CC000CBC082E892E00E94461D18B822E027B9E6
:102CD00030E135B934B981E00E94C1187C01D7B820
:102CE000D5B8D4B882E00E94C1188C0188E087B9B9
:102CF00091E095B994B983E00E94C11898878F83B9
:102D0000C701800F911F680E791EEF81F8856E0E46
:102D10007F1EFA81FD5FFA839EC086E892E00E94E2
:102D2000461D15B822E028B927B930E134B9E09042
:102D3000A201F090A30181E00E94C118E81AF90AEB
:102D400084E088B987B984B90091A2011091A301E8
:102D500082E00E94C118081B190B98E098B997B936
:102D6000E1E0E4B92091A2013091A30138872F83DB
:102D700083E00E94C118EF81F885E81BF90BF88702
:102D8000EF83C701800F911F480E591E4E0E5F1E24
:102D9000F981FD5FF9835FC08DE992E00E94741DA7
:102DA00084E992E00E94461D81E060E040E00E94DC
:102DB000EB2480914F01843F89F4809154019091DC
:102DC0005501A0915601B091570185369105A10595
:102DD000B10520F47C01280E391EB39482E060E036
:102DE00041E00E94EB2480915D01843FA9F4809131
:102DF000620190916301A0916401B09165018536F3
:102E00009105A105B10540F48C012D813E81280F6B
:102E1000391F3E832D83B39482E061E042E00E943B
:102E2000EB2480916B01843FB1F48091700190910B
:102E30007101A0917201B091730185369105A105D0
:102E4000B10548F498878F83EB81FC81E80FF91F67
:102E5000FC83EB83B39481E017B818B814B815B8A5
:102E60008823B9F00E94251EB70180E090E00E94FF
:102E7000CE1C0E94FF1CB80180E090E00E94CE1C96
:102E80000E94FF1C2F813885B90180E090E00E94EC
:102E9000CE1C34E6C31681F088EE93E060E10E9418
:102EA0005411882349F0823029F454E6C52E44E6B3
:102EB000D42E02C034E6C32EC39485E08C1508F0EE
:102EC000A2CED39496E09D1518F0CC24C394F5CFF0
:102ED000EFE0BE1611F0BB2419C0C10165E070E03F
:102EE0000E94C33C6093DB018D819E8165E070E0B0
:102EF0000E94C33C6093DC018B819C8165E070E0A3
:102F00000E94C33C6093DD01BB24B394FFE0AF1685
:102F100051F4C4016FE070E00E94C33C7093DA0189
:102F20006093D901B3942A812F3009F06EC03981A2
:102F30003F3009F06AC0C30165E070E00E94C33C05
:102F40008B01C20165E070E00E94C33C4B014091DF
:102F5000A2015091A301CA01880F991F840F951FE8
:102F6000801B910B861B970B6C01EE24FF2420E045
:102F700030E0C901B80120EA39E041E050E00E94A8
:102F80008B3CA70196010E94EA3CB901CA016B5F24
:102F90007F4F8F4F9F4F2AE030E040E050E00E948B
:102FA000EA3CC901DA018A3F9105A105B10528F47F
:102FB0003093D6012093D501B394B40180E090E022
:102FC00020EA39E041E050E00E948B3CA7019601E5
:102FD0000E94EA3CB901CA016B5F7F4F8F4F9F4F40
:102FE0002AE030E040E050E00E94EA3CC901DA010A
:102FF0008831E1E09E07E0E0AE07E0E0BE0728F49C
:103000003093D8012093D701B394F4E0BF1611F0A8
:1030100080E003C00E94571581E02896E2E10C94FD
:10302000433D1F93CF93DF93182F623019F4CDE007
:10303000D0E002C0C0E0D0E00E9449158093E101D9
:10304000123041F485ED91E0BE014DE050E00E9468
:10305000AF3D22C085ED91E0BE014DE050E00E9401
:103060009F3D0E9449159091E1019923A9F098177D
:1030700099F00E94373C82E00E941E1C87E591E097
:103080000E94541D8BE491E00E94971E80ED97E012
:103090000E94D6140E942815DF91CF911F910895A8
:1030A000FF920F931F93182F1F70106410937C00D2
:1030B000012F007C80919F01081721F00E947C3C29
:1030C00000939F0180917A00806480937A008091C0
:1030D0007A0086FDFCCFF0909D0170919E0120E06A
:1030E00030E040E050E060E020C080917A008064F1
:1030F00080937A0080917A0086FDFCCF80917800E1
:1031000090917900A0E0B0E0280F391F4A1F5B1FA3
:10311000643051F484E02030380730F4003C21F072
:10312000713011F4106CC2CF6F5F6F15F0F2003C7C
:1031300029F46091A0017091A10104C06091A201E5
:103140007091A30180E090E00E948B3C2AE096956C
:103150008795779567952A95D1F72F2D30E040E038
:1031600050E00E94EA3CC9011F910F91FF90089521
:103170001F93182F0E94713C812F0E9450181F919D
:1031800008951F93182F0E94733C812F0E9450189E
:103190001F910895CF93DF938093C3016093C4017F
:1031A0004093C501A82FB0E088EA93E0FC01EA0F44
:1031B000FB1FE491E093C901262F30E0FC01E20FF0
:1031C000F31FE491E093CA0150E0840F951FFC01C6
:1031D00084918093CB018BEA93E0FC01EA0FFB1F03
:1031E000E491E093CC01FC01E20FF31FE491E09342
:1031F000CD01840F951FFC0184918093CE018EEA4E
:1032000093E0FC01EA0FFB1FE491E093CF01FC0186
:10321000E20FF31FE491E093D001840F951FFC01AE
:1032200084918093D101C1EBD3E0AC0FBD1FFD01B0
:1032300084918093D2012C0F3D1FF901649160931A
:10324000D301C40FD51FFE0184918093D401DF9177
:10325000CF91089543E0481B461B0E94CA18089569
:103260008091C6016091C7014091C8010E94CA18AF
:1032700008958091C3018093C6018091C401809319
:10328000C7018091C5018093C8010895EF92FF9214
:103290000F931F93CF93DF93AC01613049F4E7E4C0
:1032A000F3E088EE93E0C2E3D0E027E030E018C01E
:1032B000623049F4EBEEF2E08CE291E0C9E1D0E05B
:1032C0002CE230E00DC0633019F020E030E045C062
:1032D000E9E5F3E088EC90E0C9E1D0E02EE130E0F0
:1032E0004817590718F400E010E003C08A01081BD2
:1032F000190BC801BE010E94C33C862F90E028171D
:10330000390708F4622F862F90E0880F991F8E0FDF
:103310009F1FFC01259134910296FC01E590F490E9
:103320002E193F09C801BE010E94C33CAE01481BD3
:10333000842F90E0FC012E9FC0012F9F900D3E9F97
:10334000900D11249E0136952795820F931FBE0183
:103350000E94C33C9B012E0D3F1DC901CDB7DEB7B6
:10336000E6E00C944F3D909107019923E1F08091A4
:10337000060180FD18C081FD04C0809104018E31DA
:1033800090F49093040180913A018093A801809178
:103390003B018093A90180913C018093AA01809117
:1033A0000E0180930D0108951F93182F60FF03C035
:1033B00085B1812B03C095B18095892385B984B1EE
:1033C000812B84B963FF03C00E94773C02C00E9436
:1033D000723C84B1912F9095892384B985B198234B
:1033E00095B91F910895CF93DF93982F8091040191
:1033F000813009F4BEC0A895892F0E94CA1815B85B
:103400008091CA0184B98091CF0187B988B9809130
:10341000CB0160E10E94D4198091D3010E94C118B0
:10342000EC018091CB019091CA01892B84B98091E4
:10343000D3010E94C1189C018091CA0184B92C1744
:103440003D0720F42530310508F4E90123E0C13DB2
:10345000D20708F18091CB0161E10E94D4198091DB
:10346000D3010E94C118EC018091CB0185B99091E4
:10347000CA01892B84B98091D3010E94C1189C0193
:1034800015B88091CA0184B92C173D0720F4253066
:10349000310508F4E901C031D10538F08091060109
:1034A000882319F4CE010E94482983E0C13DD80742
:1034B00008F042C0809106018823D9F48091CA01A6
:1034C00084B915B88091CF0187B988B90E94733C3F
:1034D0008091CB019091CA01892B84B98091D3014D
:1034E0000E94C1188F559D4020F082E0BE010E94CD
:1034F000942B80910601882339F58091D00187B9FA
:1035000018B88091CB019091C901892B84B985B9F4
:103510008091D2010E94C11880549640A8F40E9464
:10352000A628882389F480910401813269F081E022
:10353000BE010E94942B08C080910601882311F4DB
:103540000E9429270E946C2D80910401882311F08C
:103550008A3019F40E94771F08C08F3131F48091AE
:10356000050184FF02C00E940E2717B818B814B8CE
:1035700015B8DF91CF910895CF93DF930E942A1958
:1035800017B88091C90185B99091CA01892B84B976
:103590008091D2010E94C118EC018091D3010E9458
:1035A00050182091A2013091A30136952795B901B9
:1035B0006E5170406C177D0778F4A901425E5F4F31
:1035C000C417D50748F46817790730F420E084174A
:1035D000950718F421E001C020E014B8822FDF9194
:1035E000CF9108950F931F9380E061E00E94BC1A71
:1035F000082F80E062E00E94BC1A182F81E062E090
:103600000E94BC1A100F810F1F910F9108956F92A5
:103610007F928F929F92BF92CF92DF92EF92FF9212
:103620000F931F93DF93CF9300D000D000D0CDB77E
:10363000DEB717B818B815B88FE384B981E00E94D7
:1036400050189A83898382E00E9450189C838B8350
:1036500083E00E9450189E838D83FF24F39408E238
:10366000E02E12E0D12ECC243E010894611C711C86
:10367000B1E08B2E912CD39483E0D81609F4DD248D
:103680000D2D10E08C2D90E00D2C02C095958795A6
:103690000A94E2F780FD70C0F801EF54FC4FB4903B
:1036A0008B2D0E9450189C01F801EE0FFF1FE60DB4
:1036B000F71D808191812817390770F431832083A9
:1036C0008E2D90E08F199109449784F4EAEEEE155F
:1036D00068F0F4E1EF0E0AC02A30310528F488E2E0
:1036E000E81611F470E5E72EF39402C0FF24F3947A
:1036F0002330310548F4C401002E02C0880F991F01
:103700000A94E2F7C82A0AC02052334038F487B13D
:10371000F801E255FC4FE491E82BE7B9F7E0CF164A
:1037200071F1EF1420F581E080930401809305018D
:10373000D0920A01F801E255FC4FE49187B1E0957F
:10374000E823E7B9F801E555FC4F249108551C4FD3
:10375000F801849194B1822B8095892384B98B2DB3
:103760000E94501890930C0180930B0108C0A895FB
:1037700082E390E00E94D614FF2009F07CCF14B8B9
:1037800017B826960FB6F894DEBF0FBECDBFCF9107
:10379000DF911F910F91FF90EF90DF90CF90BF903E
:1037A0009F908F907F906F900895EF92FF920F936C
:1037B0001F93E82EF62E17B818B814B815B80E9443
:1037C0002A198091CF0187B98091D3010E945018A6
:1037D0008C018091D00187B98091D2010E9450184C
:1037E0000817190720F48F2D6E2D0E942A19809139
:1037F000CF0187B98091CA0184B901E08091D301DA
:103800000E9450189C0181E02039380740F487B1AC
:103810009091D001892B87B92832310540F00F5F94
:10382000033329F084E690E00E94D614E7CF17B85E
:1038300014B81F910F91FF90EF90089560912801A7
:10384000861710F061E003C0681B66956F5F81E02A
:103850000E945A3B08959F92AF92BF92CF92DF92FF
:10386000EF92FF920F931F936B017C01042F922E16
:1038700015C085E090E0A0E0B0E0C80ED91EEA1EB9
:10388000FB1EC701B6012AE030E040E050E00E9494
:10389000EA3CC901DA016C017D010F5F90E1C916B4
:1038A00097E2D90690E0E90690E0F90610F7013FAB
:1038B0001CF4AA24BB2423C0202F215F822F63E0A5
:1038C0000E94B63CE82F822F63E00E94B63CB92EDE
:1038D000992349F4A8EECA16A3E0DA06A0E0EA06A6
:1038E000A0E0FA0620F0EF5F83E08B19B82EE830F5
:1038F00010F0AA2404C0F0E0ED51FD4FA49001E4C3
:1039000011E0C601B8014AE050E00E94893DF8018B
:1039100001900020E9F78F0101501040015411403F
:10392000E02E0B1910165CF080E30E94A13B8EE2A2
:103930000E94A13B002319F080E30E94A13BBB2021
:1039400009F40FEF0150FF24C02EDD24C7FCD094F2
:103950000FC00F2D10E0F801EF5BFE4F80810E9439
:10396000A13B0C151D0519F48EE20E94A13BF394B6
:10397000FE1478F3AA2019F08A2D0E94A13B992009
:1039800019F0892D0E94A13B1F910F91FF90EF909C
:10399000DF90CF90BF90AF909F90089540E020E0DF
:1039A0000E942B1C08958AE30E94A13B08958DE29A
:1039B0000E94A13B0895CF92DF92EF92FF920F9366
:1039C0001F937B018C01D42EC22E97FF0BC08DE27A
:1039D0000E94A13B10950095F094E094E11CF11C2D
:1039E000011D111DC801B7014D2D2C2D0E942B1C4E
:1039F0001F910F91FF90EF90DF90CF90089580E29C
:103A00000E94A13B08950E944E080E94A13B089588
:103A10008F5C0E94A13B08951F93182FE0910D0128
:103A200083E0E89FE02D1124F0E0EC5CFF4EE60F10
:103A3000F11D8491882341F120912D012150609145
:103A40002E01982F94FF04C080912C018695680F59
:103A500091FF04C080912B018F5F280F92FF04C05B
:103A600080912C018150680F822F0E945A3B812F38
:103A70000E944E08883721F4812F0E94031D04C044
:103A8000812F8F5C0E94A13B1F910895CF93DF93FC
:103A9000EC0103C00E94A13B2196FE018491882382
:103AA000C9F7DF91CF9108950F931F93182F092F16
:103AB000FC0101C031969E2F911B84918823D1F780
:103AC00080912701891710F481E003C0891B869536
:103AD0008F5F609126010E945A3B812F902F0E9498
:103AE000461D1F910F9108950E94461D80E20E947D
:103AF000A13B0895DF92EF92FF920F931F93F42E54
:103B0000D22E01E411E0A8012AE030E00E94643DD9
:103B1000F80101900020E9F78F0101501040015495
:103B20001140E02EFF2011F404E60DC00F1530F017
:103B30000F1911F0FF2407C0FF2401C0F01A80E321
:103B40000E94A13B00E010E014C0101751F48EE277
:103B50000E94A13B04C080E30E94A13BFA94FF2095
:103B6000D1F7E12FF0E0EF5BFE4F80810E94A13B97
:103B70001F5F1E1550F3DD2019F08D2D0E94A13B13
:103B80001F910F91FF90EF90DF90089583E00E94C6
:103B9000093C81E063E00E945A3B089582E00E9464
:103BA000093C81E062E00E945A3B0895FF920F9326
:103BB0001F930E94373C82ED91E00E94741D10918A
:103BC000E001F090290101E00E94CE1D612F70E01C
:103BD00080E090E00E94CE1C043020F48CE291E062
:103BE0000E94D61480E090E068E10E945411082FF2
:103BF000813031F0833011F400E008C0843021F4CA
:103C00001F1520F41F5F02C011111150812F0E9457
:103C1000343B0023C9F61F910F91FF9008951F9325
:103C20001091260180912801181769F40E945D14F3
:103C3000812F0E94093C81E0612F0E945A3B84EF52
:103C400091E00E94D6141F9108951F939091240132
:103C500060912601809128016817B1F4192F90FF17
:103C600002C00E945D1411FF0CC01091280104C015
:103C7000812F0E94093C11501230D0F781E062E0A0
:103C800005C00E94373C04C06F5F81E00E945A3B30
:103C90001F9108951F93382F90912C012091280196
:103CA000892F8F5F281798F140912701403118F034
:103CB000930F921738F0209326010E94251E32E0C0
:103CC00083E004C080912B01481B842F80932D0139
:103CD00030932E01109126018091A80160E00E948E
:103CE0000C1D8091A90161E00E940C1D8091AA0128
:103CF00062E00E940C1D80912D0160912E010E94B6
:103D00005A3B80910D010E946D3B109326011F913B
:103D100008950F931F938C010E94251EC8010E94D5
:103D2000461D80E20E94A13B1F910F9108950F93C1
:103D30001F938C010E94251EC8010E94541D1F91D3
:103D40000F9108950F931F938C010E94251EC801A7
:103D50000E94461D1F910F910895A0E0B0E0E3EB93
:103D6000FEE10C942A3D582E0E94071B809104010D
:103D7000813019F420E030E0A6C018B88091D0015D
:103D800087B98091C90185B984B90E94723C61E00C
:103D9000662477244301862F90E0EC01C170D07037
:103DA00060FF03C08091D20102C08091D301A89529
:103DB000806C80937C000E947C3C80917A008064BF
:103DC00080937A0080917A0086FDFCCFAA24EE24AD
:103DD000FF24870180917A00806480937A0080912B
:103DE0007A0086FDFCCF8091780090917900A0E068
:103DF000B0E0E80EF91E0A1F1B1F0E94793CA39435
:103E000084E6A81639F72091A0013091A10140E085
:103E100050E0C801B7010E948B3C7B018C018AE015
:103E200016950795F794E7948A95D1F762E0CD2B24
:103E300009F44FC0C701D8013C014D01ACCF6091DE
:103E4000A2017091A30180E090E024E630E040E020
:103E500050E00E948B3C66197709880999090E94F5
:103E60008B3C5B016C016E187F08800A910AC401CB
:103E7000B30128EE33E040E050E00E948B3C7B0130
:103E80008C012091D7013091D8012057354E40E068
:103E900050E0C601B5010E94EA3CC801B7010E948A
:103EA000EA3C81E0581661F48091D9019091DA01E1
:103EB0008217930718F4281B390B02C020E030E06A
:103EC00080EC80939F01C901CDB7DEB7EFE00C9481
:103ED000463D15B88091CF019091D001892B87B9CB
:103EE000E614F7040805190508F4A9CFE7CFA0E008
:103EF000B0E0EDE7FFE10C94283DA89518B880915B
:103F0000D00187B98091C90184B985B98091D30165
:103F10000E94C1187C018091D2010E9450184C016E
:103F200015B88091CC0184B98091D2010E94C1184A
:103F3000459708F025C28091CC0185B98091D201C6
:103F40000E94C1182C018091CF0187B988B915B89A
:103F50008091CA0184B98091D2010E94C1188C015C
:103F60008091D3010E9450183C018091CD0184B909
:103F70008091D3010E94C118EC0120E3821621E157
:103F8000920628F482E64816510408F0F9C12CE69E
:103F9000421623E1520608F0F3C189EA681671045B
:103FA00008F06EC0C632D10508F4EAC1B20180E063
:103FB00090E020EF3BE247E050E00E948B3CE09035
:103FC000A201F090A30197012419350940E050E0C7
:103FD0000E94EA3C59016A01EC1AFD0A00E010E077
:103FE000C801B70120EF3BE247E050E00E948B3C64
:103FF0009E0140E050E00E94EA3CB901CA012EED6A
:10400000421623E0520670F442E0AA0CBB1CCC1C02
:10401000DD1C4A95D1F7A60EB71EC81ED91EC601D3
:10402000B5010EC0CE5DD340B0F432E0660F771F0D
:10403000881F991F3A95D1F76A0D7B1D8C1D9D1D18
:1040400025E030E040E050E00E94EA3CC901DA019E
:10405000BC01CD0108C06A0D7B1D8C1D9D1D969570
:10406000879577956795625A7E4F8F4F9F4F2AE0CD
:1040700030E040E050E00E948B3C3B014C01A0C08E
:104080008E149F0408F490C00615170508F48CC020
:10409000C091A201D091A3018C169D0619F4089439
:1040A000810891082091D7013091D8012057354ED1
:1040B00040E050E0B4016E197F0980E090E00E947A
:1040C0008B3CC819D9099E0140E050E00E94EA3CAF
:1040D00059016A012091D5013091D6012057354E02
:1040E00040E050E006191709B80180E090E00E9416
:1040F0008B3C930140E050E00E94EA3C79018A0148
:104100008EED881683E0980640F492E0AA0CBB1C62
:10411000CC1CDD1C9A95D1F715C02EED621623E05C
:104120007206B8F588EFE81684E2F80681E0080721
:1041300080E0180790F482E0EE0CFF1C001F111FB6
:104140008A95D1F7AE0CBF1CC01ED11EC601B501A9
:1041500025E030E040E050E015C0C801B701B3E011
:10416000660F771F881F991FBA95D1F76E0D7F1DB7
:10417000801F911F6A0D7B1D8C1D9D1D2AE030E064
:1041800040E050E00E94EA3CC901DA013C014D01E7
:1041900017C0350146016E0C7F1C801E911E96943F
:1041A0008794779467940CC02FE8621622E1720618
:1041B00008F4E2C0FAE06F2E712C812C912C06C01D
:1041C00084E6681671048104910478F581E00E9408
:1041D000AD1E7C0100E010E0C401B301660F771F43
:1041E000881F991F25E0621671048104910420F450
:1041F000660D771D881D991D2AE030E040E050E0F3
:104200000E948B3C611571058105910521F464E6DE
:1042100070E080E090E0E616F7060807190728F43A
:10422000370148015EEF552E02C055245A9420E014
:1042300047E0342E3AE0432E81C0239DE001112453
:10424000C15FDE4F98818091C301981709F073C058
:1042500099818091C401981709F06DC0C401B30120
:10426000452D02E010E020E030E0EE240E944F10E7
:104270008F3F91F56B817C818D819E814A8102E027
:1042800010E020E030E00E944F108F3FF1F44A81AF
:10429000451519F0FF24FA9402C0FF24F3946B81B2
:1042A0007C818D819E8194018301E52C0E944F10B9
:1042B0008F1531F46B807C808D809E805A8005C084
:1042C0006B827C828D829E825A8264015301D694D5
:1042D000C794B794A7940CC0C401B30124E130E0A3
:1042E00040E050E00E94EA3CC901DA015C016D0146
:1042F0006B817C818D819E81940183010A191B0948
:104300002C093D094A81E52C0E944F1087FD15C0FC
:104310006B817C818D819E81A60CB71CC81CD91C29
:104320004A81960185010E944F10181634F0409280
:10433000040124E603C02F5F01C028EC909108011E
:10434000291708F47ACF2436D9F09330C8F4E7E07F
:104350009E9FF0011124E15FFE4F8091C401808394
:104360008091C301818363827482858296825282A6
:104370009F5F9093080104C066247724430126CFF1
:10438000CDB7DEB7E1E10C94443DEF920F931F935C
:10439000142F109208010E942A190E94771F809101
:1043A0000801813011F090E017C01123A1F0612FB6
:1043B00070E080E090E000911201109113012091D3
:1043C00014013091150143E0E09011010E944F105B
:1043D00090E0813009F491E0892F1F910F91EF90C7
:1043E0000895982F813110F480E00895915115BC03
:1043F00082E084BD97BD81E0089516BC81E085BD53
:10440000A99BFECF15BC82E085BB08954F925F92B9
:104410006F927F929F92AF92BF92CF92DF92EF9274
:10442000FF920F931F93CF93DF933C010E94071BD2
:1044300080910401813011F480E05DC115B88EE0F7
:1044400087B918B88091CC0184B980E480937B004F
:1044500084E480BF8091D201806480937C0087E0F7
:1044600080937A000E947B3C109280001092810021
:10447000109285001092840087E286BB8091CC0167
:1044800085B9809104018F3129F49091CF019095E5
:104490009E7002C09091D00181E08093810097B915
:1044A00000E010E091E086B3282F85FD0AC080FF70
:1044B000FACF96BBA8950F5F1F4F8FE0003A180701
:1044C00091F71092810080E286BBC0918600D09166
:1044D000870014B88091840090918500C817D9078F
:1044E00030F420FF04C081E086BB0F5F1F4F87E9D7
:1044F00080937A0080917B008F7B80937B008091FA
:10450000D2010E9450182C0115B88091CC0184B9B9
:104510009FE0003A190710F081E0EDC09E0140E0F5
:1045200050E0C801A0E0B0E08C01FF24EE24E22AB4
:10453000F32A042B152BA3E0EA16F104010511055B
:1045400000F18EEF9FEFAFEFBFEFE80EF91E0A1FED
:104550001B1F98E3E91699E8F90691E4090790E032
:10456000190778F0C801B70128EE33E040E050E0C9
:104570000E94EA3CC901DA017C018D0197EF992E76
:1045800002C084EF982E8091DF01992787FD9095D6
:104590002091A0013091A101820F931F61E00E9440
:1045A0004619A0E0B0E0BC01CD01A80197010E942E
:1045B0008B3C20ED37E040E050E00E94EA3C79017E
:1045C0008A01A4EF9A1619F0570168011DC0809165
:1045D000C3016091C4010E942515E82FF0E0EB5261
:1045E000FE4F868190E0A0E0B0E0E816F9060A07E9
:1045F0001B0720F4AA24BB24650106C057016801EB
:10460000A81AB90ACA0ADB0A8091C401F30180839F
:104610008091C30181839282D3011796ED92FD921E
:104620000D931C931A97A382B482C582D682F4EFAD
:104630009F1651F420EAA21626E8B20621E0C2062F
:1046400020E0D20678F456C087EF981609F052C0E1
:1046500091E2A9169EE4B90690E0C90690E0D90659
:1046600008F048C08091D2010E945018855D9340A7
:10467000C8F714B810929E018091D2010E94501880
:104680008C0181E080939E018091D2010E9450189C
:10469000EC018091CC0184B90C1B1D0BE090A001B2
:1046A000F090A101C80104960997D0F0B8018827BD
:1046B00077FD8095982F970140E050E00E948B3C59
:1046C0009E0140E050E00E940C3D8091DE01820F8F
:1046D0008093DE018A2D992787FD9095E80EF91EBB
:1046E00092012E193F09C901C1968336910510F434
:1046F0002093DF0183E0DF91CF911F910F91FF9015
:10470000EF90DF90CF90BF90AF909F907F906F9091
:104710005F904F900895A0E0B0E0E1E9F3E20C94DF
:10472000293D3C0183E0B82EB1E19B2E0E94071B7E
:1047300080910401813011F4882447C118B8809118
:10474000D00187B98091CA0185B984B98091D2011D
:104750000E9450187C018091D3010E945018E81AE1
:10476000F90A15B814B8CC24DD240894C11CD11C56
:104770008091C901692D0E94D4198091D2010E94B3
:104780005018E816F9061CF0C0E0D0E003C0EC01B8
:10479000CE19DF092EE7C216D10421F480E0CB3414
:1047A000D10508F081E091E0CC32D90708F080E033
:1047B000E4EFCE16E1E0DE0609F480E0A895882358
:1047C000A1F6F1E0CC32DF0710F4BB24B39421E072
:1047D000C216D10461F485E0C531D80740F0892DB7
:1047E000A9E09A2E84FDA2CFF2E08F2EEEC08B2C92
:1047F00093E0B91619F000E010E037C0860180E0C0
:1048000090E00FC08091D2010E945018E816F9067E
:104810001CF080E090E002C08E199F09015010400A
:10482000A8950115110571F78C179D0718F000E088
:1048300010E007C08E01081B190B0536110508F0A2
:10484000BB248091D2010E9450187C0194FE03C0C9
:104850000E94673C02C00E946C3C8091D2010E9481
:1048600050188E159F0520F08B2C4424552404C02D
:104870002701481A590A8B2CE3E0BE1609F0A5C09F
:10488000C8018C0F9D1F62E00E944619A0E0B0E0B5
:10489000960140E050E0BC01CD010E948B3C5B01E1
:1048A0006C01C92DD0E08E010071107094FE08C01B
:1048B0002AE030E040E050E00E948B3C5B016C015C
:1048C000F8E3AF16F9E8BF06F1E4CF06F0E0DF0643
:1048D00018F4E7EF9E2E0EC0C601B50128EE33E0B6
:1048E00040E050E00E94EA3CC901DA015C016D0140
:1048F0007AEF972EC601B50128EE33E040E050E094
:104900000E948B3C012B29F022E434E040E050E08F
:1049100004C020E134E040E050E00E94EA3CC901DC
:10492000DA017C018D018091C401F30180838091C3
:10493000C30181839282A782B086C186D286E38238
:10494000F482058316830DC0C801B7012AE030E068
:1049500040E050E00E94EA3CC901DA017C018D018F
:104960009394F1E0EF16F5E3FF06FCE00F07F0E0AB
:104970001F0750F7C3FD9394920140E050E0C80137
:10498000B7010E948B3C28EE33E040E050E00E94EB
:10499000EA3CC901DA01BC01CD010BC02AE030E0DC
:1049A00040E050E00E94EA3CC901DA01BC01CD01BF
:1049B0009394603020E0720721E0820720E09207A4
:1049C00068F7F301748763879586882DCDB7DEB7C6
:1049D000E0E10C94453DA0E0B0E0E1EFF4E20C949E
:1049E0002F3DB82EA62E8EE0489F600111248DE445
:1049F00091E0C80ED91EF6011082118284EF8283E5
:104A000017821086118612861382148215821682EE
:104A10001486138680910401813009F461C08A30C4
:104A200041F5FF24CFE0D1E01DC098819B1519F41A
:104A300089818A1529F09A1599F489818B1581F459
:104A40006B817C818D819E814A810AE010E020E0AB
:104A500030E0EE240E944F108F3F11F493E6F92EC0
:104A6000F394279680910801F816F8F2F4E6FF1601
:104A7000B9F58B2D6A2D0E94FA26FC01009729F0CA
:104A8000828193818C5D954058F18B2D6A2D0E9417
:104A90002A19C6010E948B23823019F4C6010E9494
:104AA0000622809104018431A8F4F60192818A30B3
:104AB00019F49A3F7CF00BC0953F4CF4F6018381CA
:104AC0009481A581B6810597A105B10518F08BE009
:104AD000809304010E94071B17B818B814B815B8C2
:104AE000CDB7DEB7EAE00C944B3DA4E0B0E0EBE7D5
:104AF000F5E20C94273D9C838B83009709F43FC11A
:104B0000FC01638174818581968142810AE010E015
:104B100020E030E057EFE52E0E944F1087FD2FC1B7
:104B20000E94071B80910401813009F428C1EB81A8
:104B3000FC81808161810E94D51BEB81FC81808199
:104B400061810E942A194090D2013090D301F0EC8B
:104B50004F2A3F2A15BC82E084BD85E387BD18B883
:104B600040927C000E94723CB2E38B2E912C60E05C
:104B700070E022242A94A1E0AA2EB12CC12CD12CC1
:104B8000F1E0EF2EF12C012D112DE7ED5E2EA89511
:104B90006233710558F48091D00187B98091C901C1
:104BA00085B984B90E94853C14B815B882E388168B
:104BB000910458F48091CF0187B98091CA0185B9D9
:104BC00084B90E94853C14B815B88091CF0187B98B
:104BD0008091C90185B984B940927C0050927A00D5
:104BE00080917A0086FDFCCF50927A0080917A0005
:104BF00086FDFCCFE0917800F0917900FA83E9839B
:104C000030927C0050927A0080917A0086FDFCCF31
:104C100050927A000E94813C0E94FD218091CA013D
:104C200085B984B90E94853C14B880917A0086FDCC
:104C3000FCCF80907800909079008091D00187B966
:104C40008091CA0185B984B930927C0050927A0073
:104C500080917A0086FDFCCF50927A0080917A0094
:104C600086FDFCCF609078007090790040927C00C7
:104C700050927A0080917A0086FDFCCF50927A00A3
:104C80000E94813C0E94FD218091C90185B984B9AF
:104C90000E94853C14B880917A0086FDFCCF60911B
:104CA000780070917900C301A0E0B0E0E981FA8159
:104CB0009F0140E050E0820F931FA41FB51FA80E74
:104CC000B91ECA1EDB1ECB01A0E0B0E0940140E09B
:104CD00050E0820F931FA41FB51FE80EF91E0A1F94
:104CE0001B1F2A9409F053CF17B815B8AE14BF0490
:104CF000C006D106E0F58091D5019091D6019C01C6
:104D000073E0220F331F7A95E1F7880F991F280F60
:104D1000391F40E050E0EA18FB080C091D09C801E2
:104D2000B7010E948B3CA60195010E94EA3CC90193
:104D30002091D9013091DA012817390720F48C012C
:104D4000021B130B16C0EB81FC816381748185818A
:104D50009681428108EE13E020E030E05AEFE52E24
:104D60000E944F1018161CF400E010E002C00FEF74
:104D70001FEF80EC80939F010E94071B02C00FEF82
:104D80001FEFC8012496E2E10C94433D8091040199
:104D90008032F1F0813228F48E3141F08F3141F4CC
:104DA0000BC08132E9F0843218F416C022E411C03D
:104DB00020E090E080E017C08091050186FD04C0EE
:104DC00027E494E483E50FC027E498E788E70BC065
:104DD00027E493E485E407C027E491E483E403C077
:104DE00027E492E381E32093AB019093AC0180939D
:104DF000AD010895282F90910901E7E7F1E008C07F
:104E00008081281719F48181681731F09150369606
:104E10009923B1F7E0E0F0E0CF010895809105011A
:104E200080FF05C06091AA018091A90104C0609132
:104E3000A9018091AA010E94FA26892B49F01092BB
:104E4000040110920501809106018E7F8093060176
:104E50000895EF92FF920F931F93CF93DF9380916A
:104E6000D2010E945018EC018091D3010E94501889
:104E70007C018091D4010E9450188C0117B8809158
:104E8000CF0188B98091CE0185B99091CA01892B53
:104E900084B982E390E00E94D6148091CF0187B953
:104EA0008091D3010E9450180A97F8F483E280930E
:104EB00007018CE080930E018091C50180933A0137
:104EC0008091C30180933B018091C40180933C0198
:104ED000CE018E199F0990933E0180933D01C01B26
:104EE000D10BD0934001C0933F01CDB7DEB7E6E0D0
:104EF0000C944F3DA0E0B0E0E0E8F7E20C942F3DC9
:104F0000B82E21E08217E1F48091CF0187B988B9EA
:104F10009091CB018091CA01892B84B995B9809178
:104F2000D3010E94C118EC010091A2011091A301CC
:104F30008091D4010E9450189801281B390B1AC087
:104F400018B88091D00187B98091C90185B9909135
:104F5000CB01892B84B9C091A201D091A30180918A
:104F6000D2010E94C118C81BD90B8091D4010E94A4
:104F700050189C012115310511F421E030E0CE01DB
:104F8000821B930BB9010E94C33C6B01EE24FF24EA
:104F90002031310508F062C031E0B316D9F48091B8
:104FA000CE019091CA01982B94B985B98091D30113
:104FB0000E94C118EC010091A2011091A3018091FF
:104FC000D4010E945018081B190BA090D501B09075
:104FD000D60119C08091CE019091C901892B84B965
:104FE000C091A201D091A3018091D2010E94C11869
:104FF000C81BD90B8091D4010E9450188C01A0903D
:10500000D701B090D8010115110511F401E010E0AD
:10501000BE0180E090E020EF3BE247E050E00E94DC
:105020008B3C980140E050E00E94EA3CCA01B90183
:105030002AE030E040E050E00E948B3C20E93AE179
:10504000A20EB31E950140E050E00E94EA3CC21659
:10505000D306E406F50610F469017A01B601C7012A
:10506000CDB7DEB7EAE00C944B3DDF92EF92FF92B2
:105070000F931F93D82E15B88091CA0184B98091DF
:10508000CF0187B988B98091D3010E94C118BC01B2
:105090008430910550F18091D5019091D6017C0129
:1050A00000E010E085E06937780780F091E0D916DC
:1050B00069F414B88091D0019091CF01892B87B900
:1050C0008091D3010E945018BC0108C080E99AE188
:1050D000A0E0B0E0E80EF91E0A1F1B1F20EA36E828
:1050E00041E050E0E9EFDE2E15C08091CD0184B99A
:1050F0008091D3010E94C118BC0120E432E44FE04A
:1051000050E097EFD92E80EFE82E8BE2F82E87E063
:10511000082F112D17B818B814B815B880E090E012
:105120000E948B3CA80197010E94EA3C2093B901A0
:105130003093BA014093BB015093BC01D092BD01A2
:105140001F910F91FF90EF90DF900895A0E0B0E0E5
:10515000ECEAF8E20C94313D8091D4010E945018A1
:105160007C018091D3010E9450186C018091CB0189
:1051700060E10E94D4198091D2010E94C1188C0173
:1051800015B80E94733C8091C90185B98091D20104
:105190000E94C11826E00034120708F05FC0815356
:1051A000914108F45BC014B815B88091D00188B95A
:1051B0000E94733C8091C90184B98091D2010E9400
:1051C000C118853F910508F049C08091CB0160E18D
:1051D0000E94D4198091D2010E94C118EC0182E092
:1051E000CD3DD80760F482E28093040180910601EE
:1051F0008160809306018AE080930D0135C0809123
:10520000C90185B90E94733C15B88091D2010E94F2
:10521000C118853F910510F580910401813229F470
:105220008091060181608093060181E280930401F0
:105230008BE080930D018091B5019091B6018C17A0
:105240009D0720F5CE01A0E0B0E08093B5019093DA
:10525000B601A093B701B093B80106C080E0CDB706
:10526000DEB7E8E00C944D3D8091C5018093A80124
:105270008091C3018093A9018091C4018093AA0108
:10528000EC18FD08F092B001E092AF0181E0E7CFA9
:10529000A0E0B0E0EEE4F9E20C942D3D8B5E91408D
:1052A00020F4B8E2CB2ED12C04C0A8EECA2EA1E087
:1052B000DA2E8091CE019091CA01892B84B9809118
:1052C000D3010E94B8187C018091CE0185B98091EC
:1052D000D3010E94B8184C01C7018C0D9D1D881583
:1052E000990508F06AC08091CB0184B985B918B8D6
:1052F0008091D00187B98091D4010E94B81817B865
:10530000C3978958924028F010E086E0E816F1042F
:1053100008F411E08091CF0187B98091D4010E94F7
:10532000B818EC018091D2010E94501817B88C1760
:105330009D0730F4C81BD90BC25CD14008F411E0C2
:105340008091D00188B987B98091CE019091C9012F
:10535000892B84B915B88091D2010E94B8185C01DC
:105360008091CE0185B98091D2010E94B818EC01DC
:1053700018B88091D00187B98091CE019091C90170
:10538000892B84B985B98091D4010E94B8188854BA
:105390009F4028F089E18093050184E006C0112335
:1053A00061F489E28093050186E080930D01840118
:1053B0000E191F09CA19DB0977C018B88091D001EE
:1053C00087B98091CE019091C901892B84B985B9A3
:1053D0008091D2010E94B8188C018091C90185B9D1
:1053E0008091D2010E94B8187C018C0D9D1D801700
:1053F000910708F009C1C091A201D091A301809149
:10540000CB0184B915B88091CF0187B988B9809153
:10541000D4010E94B81818B88D5C90418958924008
:1054200028F0BB242C970C171D0710F0BB24B39455
:105430000E191F098091CF0187B98091CE019091FB
:10544000CA01892B84B985B98091D3010E94B8180B
:10545000EC018091CA0185B98091D3010E94B818EE
:10546000C81BD90BD694C794CC15DD0518F4CE0112
:10547000E8018C0115B88091CF0188B987B9809176
:10548000D4010E94B818815D934028F48AE180938A
:10549000050185E007C0BB2009F0B6C08AE2809311
:1054A000050187E080930D018FE1809304018091D5
:1054B00006018160809306014091C5014093A801D7
:1054C000C017D10738F48091C3018093A90180915E
:1054D000C40106C08091C4018093A9018091C301D9
:1054E0008093AA01C80162E370E00E94C33C9B0163
:1054F000C801861B970BC817D90750F0200F311F22
:105500002C173D0728F080910501806480930501E8
:105510008091A9016091AA010E94CA189091D101BD
:105520008091D001982B97B92091C90124B980911D
:10553000050180FF13C018B825B90091A201109190
:10554000A3018091D2010E94B8189801281B390B41
:10555000C901C091D701D091D8010AC098B915B836
:105560008091D2010E94B818C091D501D091D60186
:10557000C057D54EBC0180E090E020E137E240E02A
:1055800050E00E948B3C9E0140E050E00E94EA3CCB
:105590002093B9013093BA014093BB015093BC01F1
:1055A0008AEF8093BD019091CE018091CD01982B1F
:1055B00094B92091CF0127B98091050180FF03C0E4
:1055C00015B828B902C095B918B80E94723C8091EC
:1055D000D3010E9450188C018091D4010E94501870
:1055E0009C01201B310B3093B4012093B3018091B7
:1055F000050180FF02C020543D4E215C324120F065
:105600001092B4011092B301CDB7DEB7ECE00C9468
:10561000493DA0E0B0E0EFE0FBE20C942D3D90E0CE
:10562000EC01C170D07080FF07C0C090C9018091AB
:10563000CF0130E1A32E06C0C090CA018091D001F5
:1056400021E1A22E9EE0B92EB8228091D40180647F
:1056500080937C000E947C3CEE24FF248701DD24A3
:105660008FEF882E83E0982EA8958091CB016A2D2C
:105670000E94D4198091CE018C2984B9209721F001
:1056800086B18B21E9F703C086B18B21E9F3C4B859
:1056900080917A00806480937A0080917A0086FD00
:1056A000FCCF209759F08091780090917900A0E08C
:1056B000B0E0E80EF91E0A1F1B1F0EC08091780093
:1056C000909179009401281B390BC901A0E0B0E04A
:1056D000E81AF90A0A0B1B0BD3943AE0D31621F609
:1056E000C801B7012AE030E040E050E00E940C3DE4
:1056F000B901CA012091A2013091A30140E050E01C
:105700000E948B3C20E034E040E050E00E940C3DE1
:105710003093B2012093B10180E480939F01CDB713
:10572000DEB7ECE00C94493DA0E0B0E0EAE9FBE232
:105730000C942D3D982E5B010E94391941E094167E
:1057400041F58091CE019091C901892B84B985B929
:105750000E946E3CC090A201D090A3018091D20122
:105760000E945018C81AD90A0091A2011091A301F1
:105770008091D4010E945018081B190BC091D701C9
:10578000D091D801FF24F3948DEF99E028E43DE017
:105790001AC08091CE019091CA01892B84B9809161
:1057A000D3010E94C1186C018091D4010E9450184D
:1057B0008C01C091D501D091D60172E0F72E81ED18
:1057C00093E020ED37E08017910708F0DBC080916F
:1057D00004018E31E9F490910501892D892321F48A
:1057E0009460909305010EC051E0951659F4909184
:1057F000A9018091C301981729F49092040182E0D5
:10580000809305018091060181608093060105C0A7
:105810008EE18093040190920501AC14BD0410F454
:10582000CA18DB08B60180E090E020EF3BE247E0D9
:1058300050E00E948B3C980140E050E00E94EA3C1E
:10584000CA01B9012AE030E040E050E00E948B3C00
:10585000C057D54E9E0140E050E00E94EA3CC9018D
:10586000DA015C016D01892D0E947A27A616B70620
:10587000C806D90628F45B016C0162E0862E02C0DE
:1058800088248394E090B501F090B6010091B701AF
:105890001091B80181E0981629F48091C4016091BB
:1058A000C50104C08091C5016091C30140E00E9420
:1058B000EB240E9430198091050182FF1EC0609187
:1058C000BE017091BF018091C0019091C101009112
:1058D000500110915101209152013091530140919A
:1058E000C201E0904F010E944F10813009F4EFC0D7
:1058F000892D84608093050106C0EA14FB040C0521
:105900001D0508F0E4C080E00E943528A092B50192
:10591000B092B601C092B701D092B8018092AE01A8
:105920008091500190915101A0915201B091530189
:105930008093BE019093BF01A093C001B093C101B9
:1059400080914F018093C2018091C5018093A8018D
:1059500041E0941659F48091C3018093A90180918C
:10596000C4018093AA0110920D01B1C08091C401BD
:105970008093A9018091C3018093AA0181E0809363
:105980000D01A5C051E6A516B10408F0A0C02C1564
:105990003D0508F09CC08091D2010E9450188C01F6
:1059A0008091D3010E945018081B190B0A3F110562
:1059B00008F044C08FE1809304018F2D84618093AF
:1059C000050181E0F81641F46091D7017091D8018A
:1059D0006057754E82E007C06091D5017091D60185
:1059E0006057754E83E080930D0180E090E0980150
:1059F00053E0220F331F5A95E1F7000F111F200FBC
:105A0000311F40E050E00E948B3C960140E050E0A6
:105A10000E94EA3CC9012091D9013091DA0128178E
:105A2000390718F020E030E004C0AC01421B530BF2
:105A30009A013093B0012093AF010FC080E28093B0
:105A400004018F2D84608093050151E0F51611F457
:105A500088E001C089E080930D018F2D0E94092B01
:105A6000809106018160809306019091C501909319
:105A7000A80181E0F81639F48091C3018093A9014F
:105A80008091C40106C08091C4018093A9018091D6
:105A9000C3018093AA01892F6091AA0140E00E946E
:105AA000EB248091500190915101A0915201B0914D
:105AB00053018093BE019093BF01A093C001B093A6
:105AC000C10180914F018093C2010E943019CDB76E
:105AD000DEB7ECE00C94493DA0E0B0E0E2E7FDE287
