:100000000C942B090C9448090C9448090C94480949
:100010000C9448090C9448090C9448090C9448091C
:100020000C9448090C94A2160C9448090C944809A5
:100030000C9448090C941E3E0C9448090C944809F1
:100040000C9448090C9448090C94063E0C944809F9
:100050000C9448090C9448090C9448090C944809DC
:100060000C9448090C9448090C9448090C944809CC
:10007000FA15FE150016041607160A1639160D167F
:100080001016391613163916391639163916391647
:10009000391639161616391619161C163916391648
:1000A00039161F162216391639163916391625161D
:1000B000391639163916281639162B1639162E16F2
:1000C00039163116F81534163716554C54494D412A
:1000D00054450054455354455221210050726F62DB
:1000E000696E672E2E2E0054696D656F7574004E13
:1000F0006F20636F6D706F6E656E7400666F756EE6
:10010000642100646F6E65210053656C6563740043
:1001100041646A7573746D656E7400536176650031
:100120004C6F61640053686F772056616C7565731E
:100130000052656D6F7665004372656174650053AA
:10014000686F72742043697263756974210042613B
:1001500074746572793F004572726F722100457840
:10016000697400436865636B73756D00424A54009F
:1001700053435200547269616300505554004279F0
:10018000652100506F776572204D6F6E69746F72D4
:10019000004F555400506F776572004343004F4342
:1001A000500050470053455400494C494D004D49BB
:1001B0004E004D4158004F4E004F46460054657367
:1001C000742042746E205573616765004C656674D7
:1001D0000052696768740053686F7274004C6F6EE8
:1001E0006700446F75626C65004261636B203D205F
:1001F000446F75626C6520507200507265737300B5
:1002000041626F757400556C74696D6174655465F5
:1002100073746572005F76322E31005765623A0062
:100220006769746875622E636F6D2F706B313772FA
:10023000002F556C74696D6174655F5465737465E6
:1002400072005465737420436F6D706F6E656E74C9
:1002500000487A003C4D656E7520546573743E000D
:1002600050574D0053717561726520576176650076
:10027000467265712E20436F756E74657200436F10
:100280006E74726173740052204D6F6E69746F7278
:100290000043204D6F6E69746F72004C204D6F6E7D
:1002A00069746F720052434C204D6F6E69746F72A7
:1002B000004F666600436F6E74696E7569747900ED
:1002C000466C6173686C696768740050686F746F1E
:1002D00064696F6465006E6F007265760044696FD3
:1002E00064652F4C45440076312E35346D004D4FFA
:1002F0005300464554002D636800656E682E006407
:1003000065702E004947425400436773004E504EBB
:1003100000504E50006846450056626500565F47E3
:1003200054004963656F00566600430056746800C8
:10033000495F5200565400567265660052682D009F
:1003400052682B0052692D0052692B002B526C2DE4
:10035000002B52682D0031322031332032330043DC
:1003600030005230005663630041436F6D700023CC
:1003700031002332004964737300495F6C0052649A
:100380007300565F4753286F666629004553520035
:10039000436265005274005231005232002D032D29
:1003A000002D012D002D022D002D06072D00667059
:1003B0006E056D006B4DEE59CB52AD4C6047BC42A3
:1003C000A43E003BBF37D0342932C02F8C2D872B61
:1003D000AC29F5275E26E52485233D220A21EA1F64
:1003E000DC1EDD1DED1C0A1C331B681AA719F01852
:1003F00041189B17FD166516D5154A15C6144714E6
:10040000CD135813E7127B121312AE114E11F010D8
:100410000000BA03870358032E030703E402C30254
:10042000A40288028111530F940D260CF40AF009DE
:1004300011095008A6070F0789061006A3053F05F6
:10044000E40491044304FC03B9037A033F03070364
:10045000D1029E026D023E020F02E101B201820151
:100460004E010F01010008004000000100040102DC
:10047000030405021040082080010204000102006C
:1004800000000000000000000000000000000080EC
:10049000F8F0E0C080F880000F070301000F008033
:1004A000F880C0E0F0F880000F000103070F008023
:1004B000F8F80000F8F880000F0F00000F0F00E0C0
:1004C0001008080810E00019121E001E1219000082
:1004D000F8000000E02000403F0810081F100080D6
:1004E000F01010101010100007040404040404108D
:1004F0001010101010F0800404040404040700001D
:1005000000F80402FE020070181710101F7000029D
:10051000FE020002FE0200101F1010105F300002E9
:10052000FE02F002FE0200101F101F105F300000DC
:1005300000E01008F8080070181710101F700080F5
:100540004028F8284080000708507F50080700081E
:10055000F8080008F80800101F1010105F3000089D
:10056000F808C008F80800101F101F105F300000C6
:100570000002050200000000000000000000000072
:10058000000000000000000000000000000000006B
:100590000000FE0000000000000037000000000026
:1005A000160E0000160E0000000000000000000003
:1005B00020F82020F8200000020F02020F02001095
:1005C0002844FE840810000304081F0805020018D0
:1005D000242498402010000402010C12120C001870
:1005E000A4E2A2128C800007081010111205080066
:1005F0000000160E000000000000000000000000D7
:1006000000F00804020000000003040810000000CD
:1006100000020408F000000000100804030000902D
:10062000A0C0F8C0A090000402010F0102040080E5
:100630008080F08080800000000007000000000043
:10064000000000000000000000005838000000809A
:10065000808080808080000000000000000000009A
:10066000000000000000000000001818000000005A
:10067000000080402010000402010000000000F88B
:100680000402020204F80007081010100807000016
:100690000804FE020000000010101F1010000018D7
:1006A000040202824438001814121110101C000EAB
:1006B000024262528A0600060810101008070080E5
:1006C000403E0000FC000003020202121F12007EE6
:1006D0002212121222C6000408101010080700F897
:1006E0004422121224C00007081010100807000E40
:1006F0000282C262321E0000001F000000000018CB
:10070000A4424242A418000708101010080700F87D
:100710000402020284F80000091212110807000006
:10072000000030300000000000000C0C0000000051
:10073000000030300000000000002C1C0000000011
:10074000804020100804000000010204081000008E
:10075000404040404040000002020202020200000D
:100760000408102040800000100804020100001856
:10077000040202028478000000003601000000F04C
:1007800008A4A4C408F00007081312110A09000005
:10079000F0080402FE0200101F1202121F100002D5
:1007A000FE424242A41800101F101010080700F863
:1007B00004020202041E00070810101008060002BE
:1007C000FE02020204F800101F10101008070002B9
:1007D000FE4242F2020E00101F101011101C000207
:1007E000FE4242F2020E00101F101001000000F83D
:1007F00004028282849E000708101108041F000270
:10080000FE424042FE0200101F1000101F100000A8
:100810000202FE020200000010101F101000000073
:10082000000202FE0202000C1010100F0000000275
:10083000FEC23008060200101F1003041810000248
:10084000FE020000000000101F101010101E000219
:10085000FE32C032FE0200101F1001101F100002F5
:10086000FE1AE002FE0200101F1000131F1000F815
:100870000402020204F80007081010100807000222
:10088000FE020202847800101F110101000000F82E
:100890000402020204F8000708101012140B1002E0
:1008A000FE828282443800101F1001021C100018C2
:1008B00024424242841E0006081010100807000E51
:1008C0000202FE02020E000010101F1010000002B3
:1008D000FE020002FE0200000F1010100F000002C6
:1008E000FE020002FE020000030E180E03000002CA
:1008F000FE02F002FE020000071C0F1C07000002AF
:100900001EF240F21E0200101F1100111F10000203
:10091000FE820082FE02000000111F110000000E86
:1009200002824222120E001E11101010101E000032
:10093000FE020202020000003F20202020000008EA
:1009400010204080000000000000000001020000B4
:1009500002020202FE000000202020203F000010C2
:10096000080402040810000000000000000000005D
:100970000000000000000020202020202020000097
:1009800000000E1600000000000000000000000043
:100990009048484890E0000708101008041F000223
:1009A000FE12080810E000101F081010080700E0F1
:1009B000100808081038000708101010080600E09A
:1009C00010080812FE020007081010081F1000E0AF
:1009D0009088888890E000070810101008040040F4
:1009E000F8444202040800101F101000000000E04C
:1009F00010080810F8080003244848443F0000028B
:100A0000FE201008F00000101F1000101F10000042
:100A1000080BFB000000000010101F101000000069
:100A20000008080BFB000000304040403F0000027F
:100A3000FE804030081800101F1102040818000042
:100A4000000202FE000000000010101F101000083D
:100A5000F808F008F00000101F001F001F10000829
:100A6000F8100808F00000101F1000101F1000E020
:100A70001008080810E00007081010100807000808
:100A8000F810080810E000407F481010080700E048
:100A900010080810F8080007081010487F400008E8
:100AA000F8201008087000101F100000000000203F
:100AB0005088888810380006081010100906002099
:100AC00020FE202000000000000F1010100C000875
:100AD000F8080008F80800000F1010081F100008A0
:100AE000F8080008F8080000030E180E03000008BC
:100AF000F808C008F80800000F180F180F000008C9
:100B000038E080E0380800101F0100011F100008C5
:100B1000F8080008F8080000274848443F0000385B
:100B2000080888482818001C12111010101E008098
:100B30004038040202000000010E102020000000D6
:100B40000000FE000000000000003F000000000068
:100B500002020438408000002020100E0100000036
:100B600080F0E0C08000000000070301000000FEEC
:100B7000FEEEE60202FEFE1F1F1F171010171FFEDB
:100B8000E6E27A3A82C6FE1F1110161713131FFEF3
:100B9000F6F2BABA0246FE1F1B13171710181FFCF5
:100BA000CC8C3C3C8CCCFC1F19181E1E18191FF055
:100BB000101010101010100F08080808080808F08E
:100BC00010D0D0D0D0D0100F080B0B0B0B0B08108F
:100BD000101010101070C00808080808080E03D084
:100BE000D0D0D0D01070C00B0B0B0B0B080E030035
:100BF000181818FEFEFEFC000C0C0C3F3F3F1FFCBB
:100C0000F8E080808080801F0F030000000000FF5C
:100C1000010203040506076F7071727374757677AD
:100C200078FFFFFFFFFFFFFFFFFFFFFFFFFFFF104A
:100C30001112131415161718191A1B1C1D1E1F202C
:100C40002122232425262728292A2B2C2D2E2F301C
:100C50003132333435363738393A3B3C3D3E3F400C
:100C60004142434445464748494A4B4C4D4E4F50FC
:100C70005152535455565758595A5B5C5D5E5F60EC
:100C80006162636465666768696A6B6C6D6EFFFFBD
:100C9000FFFFFFFFFFFFFFFFFFFFFFFFFFFFFFFF64
:100CA000FFFFFFFFFFFFFFFFFFFFFFFFFFFFFFFF54
:100CB000FFFFFFFFFFFFFFFFFFFFFFFFFFFFFF0F34
:100CC000FFFFFFFF05FFFFFFFFFFFFFFFFFFFFFF2E
:100CD000FFFFFF08FFFFFFFFFFFFFFFFFFFFFFFF1B
:100CE000FFFFFFFFFF09FFFFFFFFFF0AFFFF0BFFF3
:100CF000FFFFFF0CFFFFFFFFFFFFFFFFFFFFFFFFF7
:100D0000FFFFFFFFFF0DFFFFFFFFFF0EFFFFFF00D5
:100D10000000000000000000E0E000000080402033
:100D20001F007C8282820000C848488808080808A2
:100D3000FFFF14224180C0000000000000000000FE
:100D40001F12120D00000000030300000101010248
:100D50007C007F49494100000000000000000000C5
:100D6000E0E0000000E0C0A01F00FE9292820000C0
:100D7000C848488808080808FFFF1422418000007E
:100D800000000000000000001F12120D0000000013
:100D900003030000000001027C003E4141410000CD
:100DA000008080000000C0C000E0E04040404040C3
:100DB0007F00FE82827C00001F2028190000FFFFB8
:100DC000009C9C08081C3E08F80000000000000081
:100DD0000101010101010101000303010101010100
:100DE0007F00264949320000404040404040C0C09A
:100DF00000E0E04040404040FF004C929264000020
:100E00007C82A2640000FFFF009C9C08083E1C0836
:100E10000F000000000000000000000000000101C1
:100E200000030301010101017F007F41413E0000F9
:100E3000008080000000C0C000E0E0404040404032
:100E40007F00FE82827C00001F2028190000FFFF27
:100E500000FFFF08081C3E08F8000000000000002A
:100E6000010101010101010100030301010101016F
:100E70007F00264949320000404040404040C0C009
:100E800000E0E04040404040FF004C92926400008F
:100E90007C82A2640000FFFF00FFFF08083E1C08E0
:100EA0000F00000000000000000000000000010131
:100EB00000030301010101017F007F41413E000069
:100EC000804040800000000000E0E0808080808062
:100ED000FF00FE82827C00008F90948C80E0C080B6
:100EE00080FFFF8080808080800000000000000084
:100EF00000000000000301000003030000000000E8
:100F00007F002649493200008080808080C0E080D8
:100F100080E0E08080808080FF004C92926400003E
:100F2000F80444C80001030000FFFF808080808037
:100F3000800000000000000000010100000000002F
:100F400000030300000000007F007F41413E0000DD
:100F5000000000000000808000E0E0000000804011
:100F60003F007C8282820000884848880808FFFF92
:100F700000FFFF14A2C1E00000000000000000001C
:100F80000F10140C0000000000030300000000011B
:100F90007E007F4949410000000000000000808081
:100FA00000E0E00000C080403F00FE92928200001E
:100FB000884848880808FFFF00FFFF14224181018C
:100FC00000000000000000000F10140C00000000E2
:100FD00000030300000000017E003E41414100008B
:100FE0000000000000000000000000FF00007C1274
:100FF000127C000000000000F00848D00000C1C3CF
:10100000C7CFDFFFDFCFC7C3C10000000000000073
:1010100008090908080808080402017F00003C428A
:10102000424200000000000000000000C0C0C0C03C
:10103000C0C0C0C0FFC0C0CFC0CFC0C0C00000E0B3
:101040001090A00080E0F8FEFFFEF8E080838FBFE4
:10105000FFBF8F83800000111212111011110905BA
:10106000030101017F01010179010101010000007B
:101070001090901010101010204080FF00007C1283
:10108000127C0000000000000F10140D0000C1C30E
:10109000C7CFDFFFDFCFC7C3C100000000000000E3
:1010A00000000000000000000000007F00003C4243
:1010B000424200000000000040404040800000002C
:1010C00000E0E08080808080FF003E003E00000065
:1010D000FE9292820005060708FFFF8080808080D4
:1010E0008000000000000000000000000000000080
:1010F00000030300000000007F00003E000000002D
:1011000000000000000000C0C060606060C0C0005F
:1011100000000000000000000000000000000707C1
:101120000080C0E070381F070000000000000000D1
:101130000000000000000000007373730000000056
:1011400000000000000000000000000000C00000DF
:10115000000000FE003E0814220000000000000015
:10116000000000000081C1E1F1F9FDFFFDF9F1E1AE
:10117000C187000000000000000000000000000027
:101180000000007F007814147800000000000000C8
:101190000000000000000000000000FE0000000051
:1011A0000000000000000000000000003C3CBDBD4D
:1011B000BDBDBDBDBDBDBDBDBD3C3C000000000012
:1011C00000000000000000000000007F00000000A0
:1011D0000000000000000000C040408000E020202F
:1011E000705050505070242E2420FE00000000004B
:1011F00017141413101F1010FF0101010101FF84C7
:10120000848487000000000000000000000000004F
:10121000030202020202232020007F0000000005DA
:101220000A0605060A050A0609060A050A06090647
:101230000A050A0609060A050A0605060A050A0637
:10124000050A06090A06090A060000000000000057
:101250000000110A060011241FBECFEFD0E1DEBF4F
:10126000CDBF12E0A0E0B1E0E6E1F7E902C00590F1
:101270000D92A830B107D9F712E0A8E0B2E001C0A2
:101280001D92A43FB107E1F70E94C30F0C94894B54
:101290000C940000982F8091AD02981719F480915A
:1012A000B00208958091AE02981719F48091B102AE
:1012B00008958091B202089582E00E942D1E8FEE63
:1012C00090E00E94631F8CEF90E00E94A6208EE0C9
:1012D0008093150281E00E9459208091AB028F5FBC
:1012E0008093AB020895CF93DF9388EC8093A102A3
:1012F00083E00E945E1AEC018B5C9840835F914012
:10130000C8F46091A6027091A70280E090E023ECFF
:1013100039E040E050E00E943D4A9E0140E050E04C
:101320000E949C4A3093A7022093A60280919F02BC
:10133000846003C080919F028B7F80939F028EE127
:101340000E945E1A9093A5028093A40288EC809379
:10135000A1028EE10E945E1A2091E702332727FD49
:101360003095280F391F3093A5022093A40289E1FC
:101370008093A102DF91CF9108951F938091A802DD
:101380009091A9022BE0883B920710F48CE005C0F5
:101390002CE0843E920718F48DE01EE008C08B59C3
:1013A000904118F48DE01FE002C080E111E10E943D
:1013B0004245812F0E9442450E940E1F8091A80243
:1013C0009091A9026AE070E00E94754A80E090E086
:1013D0004EEF26E50E943A1E1F910895FC0181817F
:1013E000608140E00E943027609154027091550264
:1013F00080915602909157024091530226E40E9438
:101400003A1E08950E940E1F80910D0282FF03C0B4
:101410008AEF92E002C08FEF92E00E94551F08957C
:101420000E940E1F80910D0280FF02C08EE401C059
:1014300080E50E94424586EF92E00E94551F089584
:101440001F93162F0E94424589EA93E00E94551F80
:10145000812F0E9442450E940E1F60911A027091D6
:101460001B0280911C0290911D024091190224E000
:101470000E943A1E1F9108950E94C2448130B9F41F
:101480000E9454420E94E44585E064E00E94964533
:1014900086E50E94424581E991E00E94551F0E9425
:1014A0000E1F89EB91E00E94551F0E9426460E9464
:1014B000E44581E00E942D1E8EE791E00E94631FAB
:1014C0000E9426460E94E445F89488E10FB6F894FD
:1014D00080936000109260000FBE459883B7817FB3
:1014E000846083BF83B7816083BF889583B78E7F15
:1014F00083BF089586E00E945E1AA0E0B0E0BC01C0
:10150000CD012EEB3FE040E050E00E943D4A28EE46
:1015100033E040E050E00E949C4A80E12B393807DC
:1015200018F0245D3E4F02C0265F3F4F3093A90262
:101530002093A80284E68093AA02285B3B4050F4E3
:101540000E94E4450E94BD0988EB9BE00E945F1663
:101550000E943C0A08951F93162F0E94121F81E0DB
:101560000E944245812F0E94121F1F9108950F93E0
:101570001F93CF93DF9380910D0280FF05C00091F0
:10158000AF021091AE0204C00091AE021091AF0202
:10159000802F612F0E944929EC01009731F00E94B1
:1015A0000E1F802F612F0E94AB0A80910D0282FFD7
:1015B0003BC08091B6029091B702892B81F08CE2FA
:1015C00093E00E9498206091B6027091B70288273C
:1015D00077FD8095982F4DEF26E50E94EA1E89E061
:1015E00093E00E9498206091C3027091C4028091A0
:1015F000C5029091C6024091C70226E40E943A1E9D
:101600008091B4029091B502892B71F08EE793E03E
:101610000E9498206091B4027091B50280E090E041
:101620004EEF24E00E943A1E209799F00E94342049
:1016300081E00E9442450E940E1F87E293E00E94D3
:10164000831F6A817B8180E090E04DEF26E50E9458
:101650003A1EDF91CF911F910F91089580E00E9473
:10166000171F81E00E94171F82E00E94171F8DE361
:101670000E94424580E00E94121F81E00E94121FDA
:1016800082E00E94121F08958AE791E00E94551F90
:101690000E9434200E942E0B84E393E00E94982045
:1016A000609143027091440280E090E04DEF26E5A6
:1016B0000E943A1E87E293E00E94982060914102C6
:1016C0007091420280E090E04DEF26E50E943A1EC4
:1016D000089580910C02823219F480E791E002C0F3
:1016E00084E791E00E94551F0E9434200E942E0B37
:1016F0008091B4029091B502892B71F08DE193E055
:101700000E9498206091B4027091B50280E090E050
:101710004DEF26E50E943A1E089584E093E00E9472
:10172000551F0E94100A0E94020A0E9434200E9443
:101730002E0B0E94B70A0895EF920F931F93CF9339
:10174000DF93EC016091BE027091BF028091C002F4
:101750009091C1024091C2020AE010E020E030E026
:1017600057EFE52E0E94C91187FD10C0CE010E94DF
:1017700098206091BE027091BF028091C00290914A
:10178000C1024091C20221E40E943A1EDF91CF9132
:101790001F910F91EF90089580910D0284FF05C075
:1017A0008EEE92E00E94551F03C08AE40E944245DB
:1017B00082EF92E00E94551F0E94100A80910D0254
:1017C00084FF02C00E94020A0E9434200E942E0B55
:1017D0000E94B70A80910D0283FF1EC085E793E047
:1017E0000E949C0B8091B8029091B902892BA1F0C4
:1017F00082E893E00E9498200E9434200E940E1FED
:101800006091B8027091B902882777FD8095982F72
:101810004DEF26E50E94EA1E0895EF92FF920F9386
:101820001F93CF93DF9380910D0280FF0AC0CDE01C
:10183000D3E0E090AD02F090AF020091AE021F2D18
:1018400009C0C1E1D3E0E090AF02F090AD02109189
:10185000AE020E2D8CE691E00E94831FCE010E9405
:10186000551F80910D0282FF03C08BE20E9442450A
:101870000E9434200E942E0B812F602F0E94492944
:10188000892B31F00E940E1F812F602F0E94AB0A1E
:101890008F2D6E2D49E10E94E023813049F40E9492
:1018A000342082E465E40E94200A84E080933202BE
:1018B00085E193E00E9498206091BA027091BB028A
:1018C0008091BC029091BD020E94DD1E0E940E1FFD
:1018D0008091B30280FF02C085E603C081FF03C090
:1018E00083E60E9442458E2D6F2D0E944929EC010E
:1018F000009781F189E193E00E9498202A813B8141
:10190000EC81FD81E090BA02F090BB020091BC0234
:101910001091BD0244E6E416F1040105110598F0AA
:10192000C9018E1B9F0B63E070E00E94894A4AEF59
:10193000E416F1040105110518F4261B370B03C04A
:101940009B012E0F3F1FB90180E090E04DEF26E58F
:101950000E943A1E82E293E00E949C0B80E993E091
:101960000E9498206091C3027091C4028091C502C8
:101970009091C6024091C70226E40E943A1ECDB75C
:10198000DEB7E6E00C94014BA1E0B0E0EAECFCE04D
:101990000C94E14A80911102813059F4F0907C025C
:1019A0006BE7A62E62E0B62E00E010E055E0E52ED3
:1019B0001EC1823039F510917B02D09081021D1535
:1019C00049F4C0907C02D090820281E0898345E096
:1019D000F42E52C0F0907C0280918202F81659F4E5
:1019E000C12E3BE7A32E32E0B32E85010A5F1F4FC5
:1019F00025E0E22E00C1181709F0EEC0FD1409F031
:101A0000EBC034C0833041F520E046E0249F500114
:101A10001124EBE7F2E0AE0EBF1E30E0349F8001F0
:101A2000112405581D4F231741F0F5019181F8014C
:101A30008081981711F425E035E03F5F333070F373
:101A40002F5F233018F3253010F400E010E0F5018B
:101A5000F18093E0E92ECBC081EA93E00E94831FDE
:101A600080911102805D0E944245C8C0F12E19820A
:101A700085E0C82E05E0D02E1330A0F480917C02C2
:101A80000E94171F85EA93E00E94551F812F0E9434
:101A9000171FE12E1BE7A12E12E0B12E85010A5F70
:101AA0001F4F16C0E12EBBE7AB2EB2E0BB2E850167
:101AB0000A5F1F4FF50180810E94171F81EA93E0A2
:101AC0000E94551F8F2D0E94171F0115110599F0B7
:101AD000EF1441F0F3E0FE1528F0F801F18081EAFF
:101AE00093E004C0F801F08085EA93E00E94551F5E
:101AF0008F2D0E94171FF4E0FC1500F18C2D6D2D29
:101B000049E10E94E0238130C9F40E940E1F82E067
:101B10008E1518F081E193E002C08DE093E00E9401
:101B2000551F8FE30E9442450E94342091E3D90E55
:101B30008C2D8F5C6D2D0E94200A198287E293E024
:101B40000E949820F5016281738180E090E04DEF62
:101B500026E50E943A1E0E940E1F0115110501F58F
:101B6000F501848195818A3F910568F488E20E949D
:101B70004245F5016481758180E090E00E94DD1EA0
:101B800089E20E944245F501818160810E94391BF2
:101B900081E00E94842A80E393E00E949C0B09C0AC
:101BA000F8016281738180E090E04DEF26E50E94AC
:101BB0003A1EF981F13011F58AE293E00E949820F3
:101BC000C5010E94EE0901151105C1F00E940E1F0A
:101BD000C8010E94EE0912C0ABE7AA2EA2E0BA2EFD
:101BE00085010A5F1F4FF5E0EF2EE5E0FE2E75E060
:101BF000C72E65E0D62E81E089835CCF2196EAE08E
:101C00000C94FD4AEF920F931F93CF93DF93609153
:101C1000620270916302809164029091650200916A
:101C20005402109155022091560230915702409172
:101C30006102E09053020E94C911813019F4CFE58E
:101C4000D2E002C0C1E5D2E06091700270917102F1
:101C500080917202909173020B811C812D813E81D3
:101C600040916F02EA800E94C911813011F4CDE6E3
:101C7000D2E088810E94171F8DE993E00E94551FD2
:101C800089810E94171F0E9434206B817C818D8185
:101C90009E814A8126E40E943A1ECE010E94BA2704
:101CA0008C018FEF0F3F180749F00E940E1FB801FB
:101CB00080E090E04EEF24E00E943A1E8B859C85E8
:101CC000892B61F08AE793E00E9498206B857C85E0
:101CD00080E090E04D8521E40E943A1EDF91CF9193
:101CE0001F910F91EF900895A0E0B0E0EAE7FEE0C9
:101CF0000C94DC4A80911002813049F41091170253
:101D000097E1C92E92E0D92EAA24BB2462C0833069
:101D100041F087E1C82E82E0D82E17E0A12EB12C29
:101D20004BC0609121027091220280912302909118
:101D3000240200911A0210911B0220911C02309182
:101D40001D0240912002E09019020E94C9118130C9
:101D500019F4CEE1D2E002C0C7E1D2E060912802DE
:101D60007091290280912A0290912B020B811C8193
:101D70002D813E8140912702EA800E94C911813065
:101D800011F4C5E2D2E082E0C731D80731F4B7E000
:101D9000CB2ED12CCC0EDD1E04C0A7E1CA2EA2E0B2
:101DA000DA2EF7E0AF2EB12CAC0CBD1CAC16BD0684
:101DB00029F4EEE0AE2EB12CAC0CBD1CF601108166
:101DC000F5018081181729F08181181711F0F601AB
:101DD0001181F6018081811711F4F60181810E9441
:101DE000171F89EA93E00E94551F812F0E94171F39
:101DF000A114B10461F089EA93E00E94551FF50136
:101E00008081811711F4F50181810E94171F0E94C2
:101E10003420F6016381748185819681428124E0BA
:101E20000E943A1EA114B10409F472C00E940E1F50
:101E3000F5016381748185819681428124E00E944D
:101E40003A1EF6016381748185819681F5010381D3
:101E5000148125813681F6014281F501E2800E94DC
:101E60005312582EF60163817481858196814281D7
:101E7000252D0E942E123B014C01F50163817481D6
:101E8000858196814281252D0E942E127B018C0135
:101E9000E60CF71C081D191DE114F10401051105DC
:101EA00009F44AC084E993E00E949820C801B70170
:101EB000452D24E00E943A1E87E993E00E94982075
:101EC00074E6A72EB12CC12CD12CC401B30124E699
:101ED00030E040E050E00E943D4AA80197010E9496
:101EE0009C4A79018A01C801B70140E025E20E94BD
:101EF0003A1E0E940E1F8AE993E00E94831FAE18CB
:101F0000BF08C00AD10AC601B50140E025E212C0EF
:101F1000C6010E94D631813079F40E940E1F609173
:101F2000EC027091ED028091EE029091EF024091EF
:101F3000EB0228E40E943A1ECDB7DEB7EFE00C9426
:101F4000F84A80910D028130C9F48EE491E00E943C
:101F5000551F0E943420809112020E94171F0E9478
:101F6000E21E0E940E1F609113027091140280E025
:101F700090E04DEF26E50E943A1E0895823011F45C
:101F80000E945C090895EF92FF920F931F93CF93E5
:101F9000DF9380E287B988B90E944A3F0E946E426F
:101FA00080E185BF87E880937A0014B784B7877F84
:101FB00084BF88E10FB6F8948093600010926000AF
:101FC0000FBE81E080939F0282E08093A0020E9476
:101FD000313F0E94164613FF13C00E94E44582E081
:101FE0000E942D1E87EE90E00E94631F87E591E01E
:101FF0000E94A62080ED97E00E945F16459871C16F
:1020000080919F0280FF05C08091A0028062809332
:10201000A0020E94F24510922C025A98529A5898A7
:10202000509A81E061E00E941F1A8091E9020E94AB
:10203000F34482E00E942D1E8AEC90E00E94631F10
:1020400083ED90E00E94A62084EF91E00E945F164D
:102050001092AB0289E18093A10281E08093A202F9
:102060008093A30284E893E19093A7028093A60251
:102070002FE088E190E00FB6F894A8958093600077
:102080000FBE20936000789416E6EE24E39403E0FC
:1020900022E0F22EC4E5D2E001C015E610920C0257
:1020A00010920D0210920E0210920F021092110265
:1020B000109210021092B3021092B5021092B40264
:1020C0001092B7021092B6021092B9021092B802A2
:1020D0001092BA021092BB021092BC021092BD0282
:1020E0001092BE021092BF021092C0021092C10262
:1020F0001092420210924102109244021092430246
:1021000010923702E09239020093320211B8F09235
:102110002C020E94E4450E9473090E947A0A163636
:1021200009F4CEC00E947A0A0E94BD0981E00E9493
:102130002D1E0E94342080912F02815080932F0207
:102140008CED90E00E94631F80912F028F5F80933F
:102150002F020E94161D80910C028130E1F180E077
:1021600061E042E00E94021C81E060E042E00E94E7
:10217000021C80E062E041E00E94021C82E060E01C
:1021800041E00E94021C81E062E040E00E94021CEB
:1021900082E061E040E00E94021C0E94C21B0E949B
:1021A000152980910C02882311F08A30A1F40E9435
:1021B0000E1F83E40E94424582E060E040E00E94FE
:1021C000302782E061E041E00E94302781E060E05A
:1021D00042E00E9430270E94E44500932C02529A6C
:1021E0005A9A84E190E00E945F165A9880910C02FE
:1021F0008E3111F18F3160F48A3069F18B3018F42F
:10220000813079F513C08B3049F1843151F511C01B
:102210008132D9F0823228F48F3189F0803209F589
:1022200011C0823291F08332E1F412C00E94A10FFA
:102230001AC00E94C40C17C00E940D0C14C00E944A
:10224000CC0B11C00E948D0B0EC00E94690B0BC0FD
:102250000E94440B08C00E94740E05C00E94020E2A
:1022600002C00E945C0980910C028E3130F0809196
:102270003202882311F00E94592080910C028A308A
:1022800010F01092AB0210922C020E941E20D093EC
:102290003B02C0933A0288EB9BE06EE30E94F1128E
:1022A000182F882329F48091AB028530C0F4F6CE34
:1022B000833031F0823099F0853011F0853661F449
:1022C00090E003C00E94DF15982F892F8856823036
:1022D000C8F79836C1F6E1CE873609F0DFCE0E9406
:1022E0003C0A80E090E0CDB7DEB7E6E00C94014B0D
:1022F000AF92BF92CF92DF92FF920F931F93DF9323
:10230000CF9300D00F92CDB7DEB789836A834B831A
:102310006E010894C11CD11C860134E0A32EB12C9F
:10232000AC0EBD1E802F8C19F801F080FF2049F003
:102330000E94171F0E94E21E8F2D0E9442450E949C
:102340000E1F0F5F1F4F0A151B0561F70F900F90AF
:102350000F90CF91DF911F910F91FF90DF90CF9061
:10236000BF90AF9008951F9311E00BC02AE030E0BA
:1023700040E050E00E949C4AC901DA01BC01CD0155
:102380001F5F6A3071058105910580F7812F1F91CC
:1023900008956F927F928F929F92AF92BF92CF9249
:1023A000DF92EF92FF920F931F933B014C01F42EAB
:1023B000580169010E2D0E94B311182FC601B501F5
:1023C0000E94B311611471048104910491F1A1146C
:1023D000B104C104D10431F1EF2CE10E800F8E1550
:1023E00034F1E81669F51E2D1F19E01A0BC0C6015D
:1023F000B5012AE030E040E050E00E943D4A5B0138
:102400006C01E394E1169CF30BC0C401B3012AE014
:1024100030E040E050E00E943D4A3B014C011F5F2C
:102420001E159CF3A614B704C804D90410F481E067
:1024300008C06A147B048C049D0410F080E001C085
:102440008FEF1F910F91FF90EF90DF90CF90BF9093
:10245000AF909F908F907F906F9008950F931F93F0
:10246000142F022F9B01AC0117C0101754F4B901AF
:10247000CA012AE030E040E050E00E949C4A1F5F21
:102480000BC0B901CA012AE030E040E050E00E94F0
:102490003D4A9B01AC011150101739F7B901CA012F
:1024A0001F910F910895AF92BF92CF92DF92EF925A
:1024B000FF920F931F93F42E580169010E2D0E9475
:1024C000B3111F2D180FC601B5010E94B3118E0D57
:1024D000811744F4812F8F1985308CF04F2D445093
:1024E000480F10C0982F9E19181734F495304CF0EF
:1024F0004E2D4450490F06C01F19911714F44F2D4B
:1025000001C0402F842F1F910F91FF90EF90DF901B
:10251000CF90BF90AF900895382FE82FF92F01C0CA
:1025200031969E2F931B84918823D1F7892F08958C
:10253000681721F48AE20E94424508950E940E1F06
:10254000089503C00E943046A895369BFBCF84EFC8
:1025500091E00E945F160895FF920F931F93F7B0CA
:1025600087B1877E87B90E94364610E000E086B1C9
:102570008095887111F420E00EC084FD1F5F83FDFB
:102580000F5F802F810F8A3028F48EE190E00E9447
:102590005F16EDCF22E0112311F094E001C090E02E
:1025A000002321F09430D9F496E002C0992389F0F9
:1025B00080913702981741F4223031F4809139022A
:1025C000873018F48F5F01C081E0809339028093D7
:1025D0003802F7B8892F1F910F91FF90089595E069
:1025E000E7CFA0E0B0E0E7EFF2E10C94DB4A5C015A
:1025F000162F81E0809338028091A00285FF04C0ED
:1026000068E7C62ED12C02C0CC24DD2412FF08C0FE
:1026100080919F0280FF03C0AA24BB2401C01C7FBD
:1026200015FF21C020913A02822F90913B02FC01BC
:1026300001C031969E2F921B84918823D1F791502F
:1026400080912F02981778F4E82EE91A1C7F8E2DBE
:10265000609130020E94964580913A0290913B022F
:102660000E94551F01C0EE24C12FD0E053E0852EFB
:10267000912C8C229D228114910409F494C081E054
:102680000E94AC4590C0A114B10451F086E0A81698
:10269000B10410F400E004C08BEF9FEFA80EB91E48
:1026A00036993AC082E390E00E945F1610E009C0BC
:1026B000369909C01F5F1B3130F48AE090E00E9418
:1026C0005F160023A9F71B3118F042E0F42E22C058
:1026D000209719F4FF24F3941DC082E390E00E9438
:1026E0005F16FF24F39414E136990DC08EE190E05B
:1026F0000E945F16369907C088EC90E00E945F1632
:1027000033E0F32E11E011508AE090E00E945F1652
:10271000112351F700E03DC00E94AC12882311F054
:10272000F82E54C085E090E00E945F161F5F812F55
:1027300064E10E945C4A992369F48091AA02823084
:1027400020F081508093AA0205C06114710411F039
:102750000E947A0A1436E9F44114510459F0013008
:1027600029F480E00E94AC4502E004C081E00E94B0
:10277000AC4501E0C114D10459F092E0C916D1046E
:1027800020F427E6F22E00E003C00894C108D10827
:1027900010E08091A00280FF16C08091A0028E7F81
:1027A0008093A00213C0FF2401E010E092E0492EC4
:1027B000512C4C225D2280E1682E712C6C227D22EE
:1027C000C870D07060CF002309F05DCF81149104F0
:1027D00019F080E00E94AC45EE2041F08E2D609112
:1027E00030020E94964580E00E94BB45F09237027D
:1027F00087E6F81611F40E943C0A8F2DCDB7DEB79C
:10280000E0E10C94F74AA0E0B0E0E9E0F4E10C94D8
:10281000DA4A362E3A014901D0903002DA94FF2488
:10282000EE2402E04D2C4A94B82EC82ECA94A82E4D
:10283000AD18502E5D1881E0D81611F40F5FEF2C03
:10284000CE2DD0E0CC0FDD1FC60DD71D10E02CC063
:10285000612F6E5F81E00E94964581E0D81629F0D5
:10286000812F8E0D6F2D0E9498120230C0F081E0F2
:10287000381629F4888199810E94551F07C0FE01EE
:102880006591749180E090E00E94DD1E81149104B6
:1028900019F0C4010E94551F80E00E94BB451F5FD4
:1028A000C11608F41D2D22961D1590F281E0D81650
:1028B00049F480912F02609130020E9496458CE38A
:1028C0000E94424580E090E060E10E94F112813078
:1028D00011F41F2D3FC0843019F41F2D01E01DC0DD
:1028E000853019F01F2D01E033C0FF2039F4CD14DD
:1028F00008F444C0EA2C1C2D02E03EC01F2D1150EC
:102900001E15E9F5EE20D9F1FD1410F4EE2401C0F6
:10291000E50C81E0F816D1F402E01C1531F41D1528
:1029200008F00F5F10E0EE2427C0912F9F5F842DE9
:102930008E0D981701F59C15F0F48B2D891B8D15C4
:1029400010F0E12E01C0EA2C0F5F15C08F2D02E0C0
:10295000823061F40E94E44584EF91E00E945F16AA
:10296000812FCDB7DEB7E1E10C94F64A873621F42A
:102970000E943C0A01C0192FF12E5DCF1C2D01E0F1
:10298000FBCFA8E4B0E0E7ECF4E10C94E94A83E87B
:1029900091E09A8F898F8BE2898382E492E09C8F09
:1029A0008B8F8CE28A8387E892E09E8F8D8F86E101
:1029B0008B8385EB92E098A38F8F81E28C8380ECF0
:1029C00092E09AA389A385E28D8380E692E09CA39E
:1029D0008BA386E08E8384E692E09EA38DA387E09E
:1029E0008F838CE893E098A78FA389E0888781E99B
:1029F00092E09AA789A787E189878BE992E09CA753
:102A00008BA78BE18A8785EA92E09EA78DA78CE150
:102A10008B8780E792E098AB8FA78AE08C878BEC5E
:102A200092E09AAB89AB87E28D878DED92E09CAB0B
:102A30008BAB89E28E8780E191E09EAB8DAB82E02B
:102A40008F878EE792E098AF8FAB8CE0888B8BE11D
:102A500091E09AAF89AF83E0898B80E291E09CAFEF
:102A60008BAF84E08A8B85E291E09EAF8DAF85E0ED
:102A70008B8BFE01FF968DEB91E0918380838EE23C
:102A80008C8B80E092E0FE01EF5BFF4F91838083AF
:102A90008DE28D8B81EB92E0FE01ED5BFF4F918328
:102AA000808384E18E8B0E94E4450E94BD0986E10B
:102AB00061E0AE01475E5F4F20E030E00E9403140A
:102AC000FE01E80FF11D8181C85BDF4FE2E00C944D
:102AD000054BA9E0B0E0EFE6F5E10C94E84A182FC9
:102AE0008FE693E09D838C8382E793E09F838E83C0
:102AF0008EE591E0998788870E94E445123019F4A9
:102B00008BE191E002C080E291E00E94551F83E0DA
:102B100061E0AE014C5F5F4F20E030E00E940314A3
:102B200091E0998392E09A831B82FE01E80FF11DE8
:102B30006181662319F0812F0E941F1A2996E3E014
:102B40000C94044B0F931F93CF93DF93082F88238C
:102B500021F4C1E3D1E010E003C0C8E3D1E013E009
:102B60000E94011D8117A1F00E94E44582E00E94AD
:102B70002D1ECE010E94631F8FE391E00E94A620CC
:102B80000E94011D811731F488EC90E00E945F16CD
:102B900081E00AC084E690E060E10E94F112013019
:102BA00079F7882369F380E0DF91CF911F910F912E
:102BB000089588EB9BE065E10E94F11208951F9350
:102BC0000E94C114982F80919F0280FF05C08091C0
:102BD000A0028F7D8093A002892F90E0FC013297A4
:102BE000ED32F10508F045C0E85CFF4F0C94104B46
:102BF00018E640C00E948717182F3CC082E001C031
:102C000081E00E94691535C00E94E81632C00E941A
:102C10006D3C2FC00E946B3B2CC00E94243B29C0FE
:102C20000E94323E26C00E94E51F23C00E943C0A3B
:102C300020C00E94EF3A1DC00E94873A1AC00E942D
:102C4000523A17C00E94B83914C00E945F3911C0AF
:102C50000E941D330EC00E94CC380BC00E949138D8
:102C600008C00E94043605C00E94A93302C00E9419
:102C7000E63311E080919F0280FF05C08091A002A1
:102C800080628093A002112361F40E94E44581E0F8
:102C90000E942D1E87E591E00E94631F0E94D915B6
:102CA0000BC0193649F40E94E44581E00E942D1EB4
:102CB00083E091E00E94631F812F1F9108951F936D
:102CC000BC011092B1001092B20082E08093B0007B
:102CD000809370000FB607FC1FC0789410E01DC0F1
:102CE000A8952F3F31054105510519F010F09FEFD0
:102CF00001C0922F91509093B3009F5F6093B100F9
:102D000002C0000000008091B1008823D1F7291B88
:102D10003109410951090CC011E080E090E024E143
:102D200030E040E050E00E943D4A9B01AC0167E08A
:102D3000211531054105510599F6112309F4F8943F
:102D40001F9108951F920F920FB60F9211241092A7
:102D5000B1000F900FBE0F901F9018958150860FF5
:102D6000089588EC90E09093DB028093DA028CED7A
:102D700090E09093DD028093DC028FE090E09093EE
:102D8000DF028093DE029093E1028093E002909351
:102D9000E3028093E2028FE18093E4028093E502F4
:102DA0008093E6021092E7021092E8028FEF809380
:102DB000E9020895EAEDF2E090E08191980F82E057
:102DC000EA3EF807D1F7992309F491E0892F089595
:102DD00081E080932C020E94E44584E493E00E9409
:102DE000831F6091DA027091DB0280E090E04FEF88
:102DF00024E00E943A1E88E493E00E9498206091AB
:102E0000DC027091DD0280E090E04FEF24E00E9450
:102E10003A1E8FE593E00E9498206091E40270E0F2
:102E200080E090E00E94DD1E0E940E1F6091E5028E
:102E300070E080E090E00E94DD1E0E940E1F609115
:102E4000E60270E080E090E044EF26E40E943A1E43
:102E500082E693E00E9498206091DE027091DF028A
:102E600080E090E04EEF20E00E943A1E0E940E1F8C
:102E70006091E0027091E10280E090E04EEF20E08E
:102E80000E943A1E0E9434200E940E1F6091E202AE
:102E90007091E30280E090E04EEF24E00E943A1E41
:102EA00087E393E00E9498206091A4027091A502AC
:102EB00080E090E04DEF26E50E943A1E85E693E023
:102EC0000E9498206091A6027091A70280E090E095
:102ED0004DEF26E50E943A1E80919F0282FF05C0B9
:102EE0000E940E1F8AE20E94424589E693E00E94FA
:102EF00098206091E802772767FD7095872F972FBC
:102F00004DEF26E50E94EA1E0E94D9150895ADE016
:102F1000B0E0EDE8F7E10C94D94A81E00E94A215F7
:102F2000882319F47AE0C72E02C0CC24C3941986F2
:102F3000188666247724EE24FF2400E010E01D8626
:102F40001C86BB2444245524222433241B861A8641
:102F5000AA241F821E821D821C821B821A82882440
:102F600099241982A8C10E94E44581E40E94424547
:102F70008C2D805D0E9442450E940E1FDD24D3945B
:102F800095C123E0C21609F486C02C1540F031E04B
:102F9000C31689F082E0C81609F056C137C095E023
:102FA000C91609F4B0C0C91608F47CC0E6E0CE1614
:102FB00009F04AC1EBC0F1E0DF1641F487E393E08A
:102FC0000E94831F89E693E00E94551F0E942124DE
:102FD0002981280F29830E9434206091E7027727F6
:102FE00067FD7095872F972F4DEF26E50E94EA1E0B
:102FF0000E940E1F6091E802772767FD7095872F6A
:10300000972F4DEF26E50E94EA1E4AC031E0D31605
:1030100041F482E693E00E94831F86E593E00E94DC
:10302000551F81E060E00E94391B80E00E94BC20B7
:103030007C0186E9E816F10438F4E885F985EE0D9F
:10304000FF1DF987E887A39482E060E00E94391BA6
:1030500080E00E94BC208C018639910538F42E81D5
:103060003F81280F391F3F832E83A39482E061E0C4
:103070000E94391B80E00E94BC209D878C87863986
:10308000910508F0E1C0EC81FD81E80FF91FFD8397
:10309000EC83A394D9C080E00E94A21564E6D62EEA
:1030A00080E0D3C0F1E0DF1621F484E493E00E94D5
:1030B000551F12B821E021B932E03BB93AB980E09E
:1030C0000E94D01A7C0182E081B990E19BB99AB943
:1030D00081E00E94D01A8C01E4E0E1B9F0E4FBB990
:1030E000FAB982E00E94D01A9D878C87C701800FB1
:1030F000911F680E791E2C853D85620E731E3B81E3
:103100003D5F3B83A1C081E0D81621F488E493E0C1
:103110000E94551F1BB891E092B991B9E2E0EAB95B
:10312000E090A602F090A70280E00E94D01AE81A70
:10313000F90AF2E0F2B9F1B920E12AB90091A60248
:103140001091A70281E00E94D01A081B190B34E0ED
:1031500032B931B980E48AB9E091A602F091A702B0
:10316000FD87EC8782E00E94D01A2C853D85281BC4
:10317000390B3D872C87C701800F911F880E991E40
:10318000820E931E3A813D5F3A835EC081E0D8167D
:1031900041F48FE593E00E94831F86E593E00E944F
:1031A000551F81E060E040E00E943027809153028B
:1031B000843F89F48091580290915902A0915A025B
:1031C000B0915B0285369105A105B10520F47C0123
:1031D000480E591EB39482E060E041E00E9430271F
:1031E00080916102843F89F4809166029091670228
:1031F000A0916802B091690285369105A105B105DB
:1032000020F48C01280E391EB39482E061E042E084
:103210000E94302780916F02843FB1F48091740244
:1032200090917502A0917602B09177028536910552
:10323000A105B10548F49D878C87EA85FB85E80FD9
:10324000F91FFB87EA87B39481E011B812B81AB866
:103250001BB88823B9F00E943420B70180E090E0C9
:103260000E94DD1E0E940E1FB80180E090E00E94C7
:10327000DD1E0E940E1F2C853D85B90180E090E087
:103280000E94DD1E34E6D31681F088EE93E060E103
:103290000E94F112882349F0823029F454E6D52E99
:1032A00044E6C42E02C034E6D32ED39485E08D15B7
:1032B00008F067CEC39496E09C1508F054CEEFE07A
:1032C000BE1611F0BB2418C0C20165E070E00E9478
:1032D000754A6093E402C10165E070E00E94754A9E
:1032E0006093E5028A859B8565E070E00E94754ADF
:1032F0006093E602BB24B394FFE0AF16F9F488852F
:10330000998565E070E00E94754A7093DF026093D2
:10331000DE028E819F8165E070E00E94754A7093A5
:10332000E1026093E0028C819D8165E070E00E9483
:10333000754A7093E3026093E202B3942B812F30BD
:1033400009F06EC03A813F3009F06AC0C30165E000
:1033500070E00E94754A8B01C40165E070E00E9434
:10336000754A4B014091A6025091A702CA01880FED
:10337000991F840F951F801B910B861B970B6C0167
:10338000EE24FF2420E030E0C901B80120EA39E052
:1033900041E050E00E943D4AA70196010E949C4AEC
:1033A000B901CA016B5F7F4F8F4F9F4F2AE030E01A
:1033B00040E050E00E949C4AC901DA018A3F910531
:1033C000A105B10528F43093DB022093DA02B3940F
:1033D000B40180E090E020EA39E041E050E00E9452
:1033E0003D4AA70196010E949C4AB901CA016B5F40
:1033F0007F4F8F4F9F4F2AE030E040E050E00E9427
:103400009C4AC901DA018831E1E09E07E0E0AE079D
:10341000E0E0BE0728F43093DD022093DC02B39491
:10342000F981F53039F424E0B21621F40E94E8164F
:1034300081E001C080E02D96E2E10C94F54A1F93F3
:10344000CF93DF93182F623019F4C1E1D0E002C0AE
:10345000C0E0D0E00E94DA168093EA02123041F414
:103460008AED92E0BE0141E150E00E94614B22C032
:103470008AED92E0BE0141E150E00E94514B0E9472
:10348000DA169091EA029923A9F0981799F00E9410
:10349000E44582E00E942D1E83E691E00E94631FB6
:1034A00087E591E00E94A62080ED97E00E945F16DC
:1034B0000E94B116DF91CF911F910895FF920F9353
:1034C0001F93182F1F71106410937C00012F007C34
:1034D0008091A302081721F00E943A460093A302AC
:1034E00080917A00806480937A0080917A0086FDD2
:1034F000FCCFF090A1027091A20260E020E030E0E9
:1035000040E050E021C080917A00806480937A008E
:1035100080917A0086FDFCCF8091780090917900AF
:10352000A0E0B0E0280F391F4A1F5B1F643059F438
:1035300084E02030380738F4003829F0713019F46D
:103540001F731068C1CF6F5F6F15E8F2003829F460
:103550006091A4027091A50204C06091A6027091CE
:10356000A70280E090E00E943D4A2AE09695879568
:10357000779567952A95D1F72F2D30E040E050E000
:103580000E949C4AC9011F910F91FF9008951F93BB
:10359000182F0E942F46812F0E945E1A1F910895B6
:1035A0001F93182F0E943146812F0E945E1A1F918F
:1035B0000895CF93DF938093C8026093C90240932C
:1035C000CA02A82FB0E083E794E0FC01EA0FFB1FDA
:1035D000E491E093CE02262F30E0FC01E20FF31FCE
:1035E000E491E093CF0250E0840F951FFC01849199
:1035F0008093D00286E794E0FC01EA0FFB1FE49180
:10360000E093D102FC01E20FF31FE491E093D202B8
:10361000840F951FFC0184918093D30289E794E085
:10362000FC01EA0FFB1FE491E093D402FC01E20FDE
:10363000F31FE491E093D502840F951FFC01849160
:103640008093D602CCE7D4E0AC0FBD1FFD0184917E
:103650008093D7022C0F3D1FF90164916093D8022B
:10366000C40FD51FFE0184918093D902DF91CF91C1
:10367000089543E0481B461B0E94D91A0895809183
:10368000CB026091CC024091CD020E94D91A0895DC
:103690008091C8028093CB028091C9028093CC02B2
:1036A0008091CA028093CD020895EF92FF920F930A
:1036B0001F93CF93DF93AC01613049F4E2E1F4E072
:1036C00088EE93E0C2E3D0E027E030E018C062303B
:1036D00049F4E6EBF3E08CE291E0C9E1D0E02CE2C2
:1036E00030E00DC0633019F020E030E045C0E4E286
:1036F000F4E088EC90E0C9E1D0E02EE130E048173A
:10370000590718F400E010E003C08A01081B190BE8
:10371000C801BE010E94754A862F90E0281739071C
:1037200008F4622F862F90E0880F991F8E0F9F1F3D
:10373000FC01259134910296FC01E590F4902E193C
:103740003F09C801BE010E94754AAE01481B842F83
:1037500090E0FC012E9FC0012F9F900D3E9F900D89
:1037600011249E0136952795820F931FBE010E945A
:10377000754A9B012E0D3F1DC901CDB7DEB7E6E0AE
:103780000C94014B90910F029923E1F080910E026D
:1037900080FD18C081FD04C080910C028E3190F430
:1037A00090930C0280913E028093AD0280913F0283
:1037B0008093AE02809140028093AF028091160206
:1037C0008093150208951F93182F60FF03C08BB1DB
:1037D000812B03C09BB1809589238BB98AB1812B42
:1037E0008AB963FF03C00E94354602C00E9430467A
:1037F0008AB1912F909589238AB98BB198239BB96F
:103800001F910895CF93DF93982F80910C02813000
:1038100009F4BEC0A895892F0E94D91A1BB88091BF
:10382000CF028AB98091D40281B982B98091D00245
:1038300060E10E94E31B8091D8020E94D01AEC0143
:103840008091D0029091CF02892B8AB98091D802C1
:103850000E94D01A9C018091CF028AB92C173D0793
:1038600020F42530310508F4E90123E0C13DD207F9
:1038700008F18091D00261E10E94E31B8091D8029F
:103880000E94D01AEC018091D0028BB99091CF02A6
:10389000892B8AB98091D8020E94D01A9C011BB84A
:1038A0008091CF028AB92C173D0720F425303105CD
:1038B00008F4E901C031D10538F080910E02882367
:1038C00019F4CE010E94972B83E0C13DD80708F080
:1038D00042C080910E028823D9F48091CF028AB928
:1038E0001BB88091D40281B982B90E94314680917F
:1038F000D0029091CF02892B8AB98091D8020E9480
:10390000D01A8F559D4020F082E0BE010E94E32D29
:1039100080910E02882339F58091D50281B912B8C1
:103920008091D0029091CE02892B8AB98BB9809177
:10393000D7020E94D01A80549640A8F40E94F52A1B
:10394000882389F480910C02813269F081E0BE0104
:103950000E94E32D08C080910E02882311F40E947A
:1039600078290E94C52F80910C02882311F08A309B
:1039700019F40E94922108C08F3131F480910D0218
:1039800084FF02C00E945D2911B812B81AB81BB892
:10399000DF91CF910895CF93DF930E94391B11B827
:1039A0008091CE028BB99091CF02892B8AB98091F8
:1039B000D7020E94D01AEC018091D8020E945E1AB0
:1039C0002091A6023091A70236952795B9016E5134
:1039D00070406C177D0778F4A901425E5F4FC417F1
:1039E000D50748F46817790730F420E08417950765
:1039F00018F421E001C020E01AB8822FDF91CF91A6
:103A000008950F931F9380E061E00E94CB1C082F64
:103A100080E062E00E94CB1C182F81E062E00E94EF
:103A2000CB1C100F810F1F910F9108956F927F9201
:103A30008F929F92BF92CF92DF92EF92FF920F935D
:103A40001F93DF93CF9300D000D000D0CDB7DEB767
:103A500011B812B81BB88AEF8AB980E00E945E1ACA
:103A60009A83898381E00E945E1A9C838B8382E023
:103A70000E945E1A9E838D83FF24F39408E2E02E59
:103A800012E0D12ECC243E010894611C711CB1E0DF
:103A90008B2E912CD39483E0D81609F4DD240D2DC0
:103AA00010E08C2D90E00D2C02C0959587950A941E
:103AB000E2F780FD70C0F801E458FB4FB4908B2D05
:103AC0000E945E1A9C01F801EE0FFF1FE60DF71D24
:103AD000808191812817390770F4318320838E2DDE
:103AE00090E08F199109449784F4EAEEEE1568F09E
:103AF000F4E1EF0E0AC02A30310528F488E2E81616
:103B000011F470E5E72EF39402C0FF24F394233000
:103B1000310548F4C401002E02C0880F991F0A9491
:103B2000E2F7C82A0AC02052334038F481B1F801C4
:103B3000E758FB4FE491E82BE1B9F7E0CF1671F1BC
:103B4000EF1420F581E080930C0280930D02D09257
:103B50001202F801E758FB4FE49181B1E095E823A8
:103B6000E1B9F801EA58FB4F24910D581B4FF801B9
:103B700084919AB1822B809589238AB98B2D0E94DA
:103B80005E1A909314028093130208C0A89582E3F2
:103B900090E00E945F16FF2009F07CCF1AB811B8A0
:103BA00026960FB6F894DEBF0FBECDBFCF91DF9142
:103BB0001F910F91FF90EF90DF90CF90BF909F905B
:103BC0008F907F906F900895EF92FF920F931F93C5
:103BD000E82EF62E11B812B81AB81BB80E94391B7D
:103BE0008091D40281B98091D8020E945E1A8C0122
:103BF0008091D50281B98091D7020E945E1A081780
:103C0000190720F48F2D6E2D0E94391B8091D4024C
:103C100081B98091CF028AB901E08091D8020E94D7
:103C20005E1A9C0181E02039380740F481B19091FF
:103C3000D502892B81B92832310540F00F5F03335B
:103C400029F084E690E00E945F16E7CF11B81AB819
:103C50001F910F91FF90EF900895609130028617A9
:103C600010F061E003C0681B66956F5F81E00E9401
:103C7000964508959F92AF92BF92CF92DF92EF92B6
:103C8000FF920F931F936B017C01042F922E15C09E
:103C900085E090E0A0E0B0E0C80ED91EEA1EFB1E51
:103CA000C701B6012AE030E040E050E00E949C4AA3
:103CB000C901DA016C017D010F5F90E1C91697E23D
:103CC000D90690E0E90690E0F90610F7013F1CF4F0
:103CD000AA24BB2423C0202F215F822F63E00E94EF
:103CE000684AE82F822F63E00E94684AB92E992320
:103CF00049F4A8EECA16A3E0DA06A0E0EA06A0E0BE
:103D0000FA0620F0EF5F83E08B19B82EE83010F050
:103D1000AA2404C0F0E0E255FC4FA49005E412E0B0
:103D2000C601B8014AE050E00E943B4BF801019007
:103D30000020E9F78F010150104005541240E02E99
:103D40000B1910165CF080E30E9442458EE20E943F
:103D50004245002319F080E30E944245BB2009F44C
:103D60000FEF0150FF24C02EDD24C7FCD0940FC0FC
:103D70000F2D10E0F801EB5BFD4F80810E94424562
:103D80000C151D0519F48EE20E944245F394FE14B1
:103D900078F3AA2019F08A2D0E944245992019F043
:103DA000892D0E9442451F910F91FF90EF90DF9067
:103DB000CF90BF90AF909F90089540E020E00E9488
:103DC0003A1E08958AE30E94424508958DE20E94BA
:103DD00042450895CF92DF92EF92FF920F931F9387
:103DE0007B018C01D42EC22E97FF0BC08DE20E9466
:103DF000424510950095F094E094E11CF11C011DE2
:103E0000111DC801B7014D2D2C2D0E943A1E1F9186
:103E10000F91FF90EF90DF90CF90089580E20E9485
:103E2000424508950E944A090E94424508958F5CC8
:103E30000E94424508951F93182FE091150283E0D8
:103E4000E89FE02D1124F0E0E15EFD4EE60FF11D4C
:103E50008491882341F120913502215060913602EE
:103E6000982F94FF04C0809134028695680F91FFCB
:103E700004C0809133028F5F280F92FF04C08091AD
:103E800034028150680F822F0E949645812F0E9434
:103E90004A09883721F4812F0E94121F04C0812F04
:103EA0008F5C0E9442451F910895CF93DF93EC01F0
:103EB00003C00E9442452196FE0184918823C9F7E0
:103EC000DF91CF9108950F931F93182F092FFC01B5
:103ED00001C031969E2F911B84918823D1F7809148
:103EE0002F02891710F481E003C0891B86958F5F2C
:103EF00060912E020E949645812F902F0E94551F9F
:103F00001F910F9108950E94551F80E20E94424523
:103F10000895DF92EF92FF920F931F93F42ED22E0B
:103F200005E412E0A8012AE030E00E94164BF801F7
:103F300001900020E9F78F01015010400554124014
:103F4000E02EFF2011F404E60DC00F1530F00F191C
:103F500011F0FF2407C0FF2401C0F01A80E30E9483
:103F6000424500E010E014C0101751F48EE20E94A8
:103F7000424504C080E30E944245FA94FF20D1F7F5
:103F8000E12FF0E0EB5BFD4F80810E9442451F5F17
:103F90001E1550F3DD2019F08D2D0E9442451F9112
:103FA0000F91FF90EF90DF90089583E00E94BB4552
:103FB00081E063E00E949645089582E00E94BB453F
:103FC00081E062E00E9496450895FF920F931F934F
:103FD0000E94E4458EE792E00E94831F1091E9025F
:103FE000F090310201E00E94DD1F612F70E080E05F
:103FF00090E00E94DD1E043020F48CE291E00E94EB
:104000005F1680E090E068E10E94F112082F813095
:1040100031F0833011F400E008C0843021F41F1522
:1040200020F41F5F02C011111150812F0E94F34430
:104030000023C9F61F910F91FF9008951F931091CF
:104040002E0280913002181769F40E94D915812F31
:104050000E94BB4581E0612F0E94964584EF91E06C
:104060000E945F161F9108951F9390912C026091FA
:104070002E02809130026817B1F4192F90FF02C010
:104080000E94D91511FF0CC01091300204C0812F7D
:104090000E94BB4511501230D0F781E062E005C0AC
:1040A0000E94E44504C06F5F81E00E9496451F9125
:1040B00008951F93382F9091340220913002892F58
:1040C0008F5F281798F140912F02403118F0930F1D
:1040D000921738F020932E020E94342032E083E0C1
:1040E00004C080913302481B842F809335023093A3
:1040F000360210912E028091AD0260E00E941B1FDB
:104100008091AE0261E00E941B1F8091AF0262E0CD
:104110000E941B1F80913502609136020E949645D5
:10412000809115020E94134510932E021F9108954D
:104130000F931F938C010E943420C8010E94551FC9
:1041400080E20E9442451F910F9108950F931F93A3
:104150008C010E943420C8010E94631F1F910F919F
:1041600008950F931F938C010E943420C8010E9470
:10417000551F1F910F910895A0E0B0E0E2ECF0E22E
:104180000C94DC4A582E0E94161D80910C0281303E
:1041900019F400E010E0B2C012B88091D50281B9E4
:1041A0008091CE028BB98AB90E94304661E06624C4
:1041B00077244301862F90E0EC01C170D07060FF3E
:1041C00003C08091D70202C08091D802A895806870
:1041D00080937C000E943A4680917A0080648093AC
:1041E0007A0080917A0086FDFCCFAA24EE24FF2479
:1041F000870180917A00806480937A0080917A00B0
:1042000086FDFCCF8091780090917900A0E0B0E02D
:10421000E80EF91E0A1F1B1F0E943746A39484E66E
:10422000A81639F72091A4023091A50240E050E091
:10423000C801B7010E943D4A7B018C019AE01695A6
:104240000795F794E7949A95D1F762E0CD2B09F49E
:104250005BC0C701D8013C014D01ACCF6091A60203
:104260007091A70280E090E024E630E040E050E06A
:104270000E943D4A66197709880999090E943D4ABA
:104280005B016C016E187F08800A910AC401B301BA
:1042900028EE33E040E050E00E943D4A7B018C0173
:1042A0002091DC023091DD022057354E40E050E095
:1042B000C601B5010E949C4AC801B7010E949C4AF0
:1042C000890181E05816B9F48091C8026091C90251
:1042D0000E94AE16E82FF0E0EE0FFF1FE252FD4FF6
:1042E0000190F081E02DE017F10718F40E1B1F0B71
:1042F00002C000E010E080E88093A302C801CDB7BF
:10430000DEB7EFE00C94F84A1BB88091D40290918C
:10431000D502892B81B9E614F7040805190508F4BC
:104320009DCFE7CFA0E0B0E0E8E9F1E20C94DA4AF3
:10433000A89512B88091D50281B98091CE028AB930
:104340008BB98091D8020E94D01A7C018091D7024B
:104350000E945E1A4C011BB88091D1028AB98091EB
:10436000D7020E94D01A459708F025C28091D10249
:104370008BB98091D7020E94D01A2C018091D4026F
:1043800081B982B91BB88091CF028AB98091D702D6
:104390000E94D01A8C018091D8020E945E1A3C01C2
:1043A0008091D2028AB98091D8020E94D01AEC0181
:1043B00020E3821621E1920628F482E64816510491
:1043C00008F0F9C12CE6421623E1520608F0F3C1C9
:1043D00089EA6816710408F06EC0C632D10508F487
:1043E000EAC1B20180E090E020EF3BE247E050E01C
:1043F0000E943D4AE090A602F090A702970124197E
:10440000350940E050E00E949C4A59016A01EC1ACB
:10441000FD0A00E010E0C801B70120EF3BE247E0F1
:1044200050E00E943D4A9E0140E050E00E949C4ABC
:10443000B901CA012EED421623E0520670F442E0A3
:10444000AA0CBB1CCC1CDD1C4A95D1F7A60EB71ECE
:10445000C81ED91EC601B5010EC0CE5DD340B0F452
:1044600032E0660F771F881F991F3A95D1F76A0DC2
:104470007B1D8C1D9D1D25E030E040E050E00E943A
:104480009C4AC901DA01BC01CD0108C06A0D7B1D3F
:104490008C1D9D1D9695879577956795625A7E4FE1
:1044A0008F4F9F4F2AE030E040E050E00E943D4AAD
:1044B0003B014C01A0C08E149F0408F490C0061567
:1044C000170508F48CC0C091A602D091A7028C16E3
:1044D0009D0619F40894810891082091DC0230911E
:1044E000DD022057354E40E050E0B4016E197F09DF
:1044F00080E090E00E943D4AC819D9099E0140E041
:1045000050E00E949C4A59016A012091DA023091E0
:10451000DB022057354E40E050E006191709B8017C
:1045200080E090E00E943D4A930140E050E00E940C
:104530009C4A79018A018EED881683E0980640F442
:1045400092E0AA0CBB1CCC1CDD1C9A95D1F715C0BF
:104550002EED621623E07206B8F588EFE81684E2C5
:10456000F80681E0080780E0180790F482E0EE0C7E
:10457000FF1C001F111F8A95D1F7AE0CBF1CC01E77
:10458000D11EC601B50125E030E040E050E015C085
:10459000C801B701B3E0660F771F881F991FBA954E
:1045A000D1F76E0D7F1D801F911F6A0D7B1D8C1D25
:1045B0009D1D2AE030E040E050E00E949C4AC90185
:1045C000DA013C014D0117C0350146016E0C7F1C1C
:1045D000801E911E96948794779467940CC02FE860
:1045E000621622E1720608F4E2C0FAE06F2E712C26
:1045F000812C912C06C084E6681671048104910414
:1046000078F581E00E94BC207C0100E010E0C4014C
:10461000B301660F771F881F991F25E0621671048A
:104620008104910420F4660D771D881D991D2AE0F0
:1046300030E040E050E00E943D4A6115710581057F
:10464000910521F464E670E080E090E0E616F7065C
:104650000807190728F4370148015EEF552E02C0FC
:1046600055245A9420E047E0342E3AE0432E81C08E
:10467000239DE0011124C95EDD4F98818091C8021D
:10468000981709F073C099818091C902981709F0B1
:104690006DC0C401B301452D02E010E020E030E020
:1046A000EE240E94C9118F3F91F56B817C818D8131
:1046B0009E814A8102E010E020E030E00E94C911B2
:1046C0008F3FF1F44A81451519F0FF24FA9402C096
:1046D000FF24F3946B817C818D819E819401830101
:1046E000E52C0E94C9118F1531F46B807C808D8080
:1046F0009E805A8005C06B827C828D829E825A8207
:1047000064015301D694C794B794A7940CC0C40114
:10471000B30124E130E040E050E00E949C4AC9012E
:10472000DA015C016D016B817C818D819E81940138
:1047300083010A191B092C093D094A81E52C0E94B5
:10474000C91187FD15C06B817C818D819E81A60C6E
:10475000B71CC81CD91C4A81960185010E94C91149
:10476000181634F040920C0224E603C02F5F01C0FB
:1047700028EC90911002291708F47ACF2436D9F04A
:104780009330C8F4E7E09E9FF0011124E95EFD4FED
:104790008091C90280838091C80281836382748280
:1047A0008582968252829F5F9093100204C0662495
:1047B0007724430126CFCDB7DEB7E1E10C94F64A6A
:1047C000EF920F931F93142F109210020E94391B27
:1047D0000E94922180911002813011F090E017C068
:1047E0001123A1F0612F70E080E090E000911A02A7
:1047F00010911B0220911C0230911D0243E0E090B9
:1048000019020E94C91190E0813009F491E0892FCA
:104810001F910F91EF900895982F813110F480E04F
:104820000895915115BC82E084BD97BD81E0089543
:1048300016BC81E085BDA99BFECF15BC82E085BB7F
:104840000895A0E0B0E0E7E2F4E20C94E34A0F98A8
:104850003F9A479800E087E00E945E1A039708F4A9
:104860007EC00F5F84E190E00E945F16033399F7EA
:1048700070C086B385FD09C080FFFBCF96BBA895AD
:1048800021962FE0C03AD207A1F71092810080E272
:1048900086BB3F98B09B02C081E086BB87E98093CE
:1048A0007A0080917B008F7B80937B0087E00E9461
:1048B0005E1A6C0147983F9AC05ADF4008F049C021
:1048C00087E00E945E1A855D9340D0F73F98109272
:1048D000A20287E00E945E1A8C0181E08093A2020E
:1048E00087E00E945E1A7C013F9A9801281B390BD1
:1048F000C091A402D091A502C90104960997E8F0DD
:10490000B901882777FD8095982F9E0140E050E0FF
:104910000E943D4A970140E050E00E94BE4A8091CB
:10492000E702820F8093E702332727FD3095C20FFD
:10493000D31FD093A502C093A40296012C1B3D0B5C
:10494000C901C1968336910510F42093E80281E0F5
:1049500001C080E0CDB7DEB7E8E00C94FF4A80E408
:1049600080937B0084E480BF87E480937C0087E0B1
:1049700080937A000E943946109280001092810044
:10498000109285001092840087E286BB81E08093BC
:104990008100479AC0E0D0E091E06BCFA0E0B0E0AA
:1049A000E4EDF4E20C94E44AEC010E94161D8091BF
:1049B0000C02813011F480E0EEC01BB897E091B991
:1049C00012B88091D1028AB980E480937B0084E49C
:1049D00080BF8091D702806480937C0090937A009E
:1049E0000E9439461092800010928100109285003A
:1049F0001092840087E286BB4091D1024BB980912E
:104A00000C028F3129F49091D4029095977002C0D6
:104A10009091D50281E08093810091B960E070E0CF
:104A200091E086B3E82F85FD0AC080FFFACF96BBE0
:104A3000A8956F5F7F4F8FE0603A780791F71092EB
:104A4000810080E286BB20918600309187001AB8F1
:104A500080918400909185002817390730F4E0FF99
:104A600004C081E086BB6F5F7F4F87E980937A0047
:104A700080917B008F7B80937B001BB84AB99FE0BD
:104A8000603A790710F081E086C040E050E0CB0149
:104A9000A0E0B0E08C01FF24EE24E22AF32A042BEC
:104AA000152BA3E0EA16F1040105110500F18EEFC4
:104AB0009FEFAFEFBFEFE80EF91E0A1F1B1F98E331
:104AC000E91699E8F90691E4090790E0190778F0EA
:104AD000C801B70128EE33E040E050E00E949C4A54
:104AE000C901DA017C018D0197EFD92E02C084EF54
:104AF000D82E8091E802992787FD90952091A402F5
:104B00003091A502820F931F61E00E94551BA0E027
:104B1000B0E0BC01CD01A80197010E943D4A20ED03
:104B200037E040E050E00E949C4A79018A01A4EFFE
:104B3000DA1619F0A80197011EC08091C802609191
:104B4000C9020E94AE16E82FF0E0E652FD4F8285C2
:104B500090E0A0E0B0E0E816F9060A071B0728F489
:104B600020E030E040E050E006C0A8019701281B9B
:104B7000390B4A0B5B0B8091C90288838091C80274
:104B80008983DA82EF82F88609871A872B833C8330
:104B90004D835E8383E0CDB7DEB7E7E00C94004B36
:104BA000A0E0B0E0E6EDF5E20C94DB4A3C0183E0E6
:104BB000B82EB1E19B2E0E94161D80910C0281300F
:104BC00011F4882447C112B88091D50281B980912F
:104BD000CF028BB98AB98091D7020E945E1A7C01FC
:104BE0008091D8020E945E1AE81AF90A1BB81AB816
:104BF000CC24DD240894C11CD11C8091CE02692DE7
:104C00000E94E31B8091D7020E945E1AE816F90603
:104C10001CF0C0E0D0E003C0EC01CE19DF092EE7A4
:104C2000C216D10421F480E0CB34D10508F081E034
:104C300091E0CC32D90708F080E0E4EFCE16E1E055
:104C4000DE0609F480E0A8958823A1F6F1E0CC32D5
:104C5000DF0710F4BB24B39421E0C216D10461F441
:104C600085E0C531D80740F0892DA9E09A2E84FD52
:104C7000A2CFF2E08F2EEEC08B2C93E0B91619F084
:104C800000E010E037C0860180E090E00FC0809126
:104C9000D7020E945E1AE816F9061CF080E090E048
:104CA00002C08E199F0901501040A89501151105E9
:104CB00071F78C179D0718F000E010E007C08E0117
:104CC000081B190B0536110508F0BB248091D7028B
:104CD0000E945E1A7C0194FE03C00E94254602C019
:104CE0000E942A468091D7020E945E1A8E159F0567
:104CF00020F08B2C4424552404C02701481A590A5B
:104D00008B2CE3E0BE1609F0A5C0C8018C0F9D1FD7
:104D100062E00E94551BA0E0B0E0960140E050E048
:104D2000BC01CD010E943D4A5B016C01C92DD0E060
:104D30008E010071107094FE08C02AE030E040E05F
:104D400050E00E943D4A5B016C01F8E3AF16F9E8C0
:104D5000BF06F1E4CF06F0E0DF0618F4E7EF9E2E81
:104D60000EC0C601B50128EE33E040E050E00E94DD
:104D70009C4AC901DA015C016D017AEF972EC601E8
:104D8000B50128EE33E040E050E00E943D4A012B9F
:104D900029F022E434E040E050E004C020E134E0B7
:104DA00040E050E00E949C4AC901DA017C018D017B
:104DB0008091C902F30180838091C802818392822D
:104DC000A782B086C186D286E382F48205831683E9
:104DD0000DC0C801B7012AE030E040E050E00E9479
:104DE0009C4AC901DA017C018D019394F1E0EF1630
:104DF000F5E3FF06FCE00F07F0E01F0750F7C3FDE7
:104E00009394920140E050E0C801B7010E943D4AEE
:104E100028EE33E040E050E00E949C4AC901DA01EC
:104E2000BC01CD010BC02AE030E040E050E00E9420
:104E30009C4AC901DA01BC01CD019394603020E0A5
:104E4000720721E0820720E0920768F7F301748778
:104E500063879586882DCDB7DEB7E0E10C94F74ADD
:104E6000A0E0B0E0E6E3F7E20C94E14AB82EA62E0B
:104E70008EE0489F6001112481E592E0C80ED91EA2
:104E8000F6011082118284EF8283178210861186C8
:104E900012861382148215821682148613868091DC
:104EA0000C02813009F461C08A3041F5FF24C7E16A
:104EB000D2E01DC098819B1519F489818A1529F0CB
:104EC0009A1599F489818B1581F46B817C818D8190
:104ED0009E814A810AE010E020E030E0EE240E944A
:104EE000C9118F3F11F493E6F92EF3942796809120
:104EF0001002F816F8F2F4E6FF16B9F58B2D6A2DBC
:104F00000E944929FC01009729F0828193818C5DE0
:104F1000954058F18B2D6A2D0E94391BC6010E94C5
:104F2000D025823019F4C6010E94CE2480910C0253
:104F30008431A8F4F60192818A3019F49A3F7CF00A
:104F40000BC0953F4CF4F60183819481A581B68115
:104F50000597A105B10518F08BE080930C020E9423
:104F6000161D11B812B81AB81BB8CDB7DEB7EAE0F3
:104F70000C94FD4AA4E0B0E0E0ECF7E20C94D94ACE
:104F80009C838B83009709F449C1FC016381748180
:104F90008581968142810AE010E020E030E057EF01
:104FA000E52E0E94C91187FD39C10E94161D80910E
:104FB0000C02813009F432C1EB81FC818081618176
:104FC0000E94E41DEB81FC81808161810E94391B7C
:104FD0004090D7023090D802F0E84F2A3F2A15BC03
:104FE00082E084BD85E387BD12B840927C000E94B8
:104FF000304612E3812E912C60E070E022242A9446
:10500000B1E0AB2EB12CC12CD12CA1E0EA2EF12CB9
:10501000012D112DF7ED5F2EA8956233710558F41F
:105020008091D50281B98091CE028BB98AB90E9454
:1050300043461AB81BB882E38816910458F480914D
:10504000D40281B98091CF028BB98AB90E944346BC
:105050001AB81BB88091D40281B98091CE028BB965
:105060008AB940927C0050927A0080917A0086FD45
:10507000FCCF50927A0080917A0086FDFCCFE091BF
:105080007800F0917900FA83E98330927C005092A5
:105090007A0080917A0086FDFCCF50927A000E94BF
:1050A0003F460E9418248091CF028BB98AB90E9492
:1050B00043461AB880917A0086FDFCCF8090780034
:1050C000909079008091D50281B98091CF028BB9FF
:1050D0008AB930927C0050927A0080917A0086FDE5
:1050E000FCCF50927A0080917A0086FDFCCF6090D0
:1050F00078007090790040927C0050927A00809104
:105100007A0086FDFCCF50927A000E943F460E94B2
:1051100018248091CE028BB98AB90E9443461AB8EE
:1051200080917A0086FDFCCF6091780070917900C3
:10513000C301A0E0B0E0E981FA819F0140E050E0C6
:10514000820F931FA41FB51FA80EB91ECA1EDB1E17
:10515000CB01A0E0B0E0940140E050E0820F931F4B
:10516000A41FB51FE80EF91E0A1F1B1F2A9409F081
:1051700053CF11B81BB8AE14BF04C006D10608F057
:1051800045C08091DA029091DB029C01E3E0220F9E
:10519000331FEA95E1F7880F991F280F391F40E068
:1051A00050E0EA18FB080C091D09C801B7010E946C
:1051B0003D4AA60195010E949C4A89018091C8023E
:1051C0006091C9020E94AE16E82FF0E0EE0FFF1FBB
:1051D000E252FD4F208131812017310718F4021B64
:1051E000130B16C0EB81FC816381748185819681EC
:1051F000428108EE13E020E030E05AEFE52E0E94F5
:10520000C91118161CF400E010E002C00FEF1FEFE8
:1052100080E88093A3020E94161D02C00FEF1FEFCB
:10522000C8012496E2E10C94F54A80910C02803288
:10523000F1F0813228F48E3141F08F3141F40BC00E
:105240008132E9F0843218F416C022E411C020E063
:1052500090E080E017C080910D0286FD04C027E435
:1052600094E483E50FC027E498E788E70BC027E4C0
:1052700093E485E407C027E491E483E403C027E4D2
:1052800092E381E32093B0029093B1028093B20243
:105290000895282F90911102EBE7F2E008C0808179
:1052A000281719F48181681731F0915036969923A7
:1052B000B1F7E0E0F0E0CF01089580910D0280FFAA
:1052C00005C06091AF028091AE0204C06091AE0251
:1052D0008091AF020E944929892B49F010920C025B
:1052E00010920D0280910E028E7F80930E0208951F
:1052F000EF92FF920F931F93CF93DF938091D7028A
:105300000E945E1AEC018091D8020E945E1A7C0114
:105310008091D9020E945E1A8C0111B88091D4024A
:1053200082B98091D3028BB99091CF02892B8AB92F
:1053300082E390E00E945F168091D40281B980914F
:10534000D8020E945E1A0A97F8F483E280930F0253
:105350008CE0809316028091CA0280933E02809175
:10536000C80280933F028091C90280934002CE011F
:105370008E199F099093420280934102C01BD10B6A
:10538000D0934402C0934302CDB7DEB7E6E00C945D
:10539000014BA0E0B0E0EFECF9E20C94E14AB82E4A
:1053A00021E08217E1F48091D40281B982B9909111
:1053B000D0028091CF02892B8AB99BB98091D80203
:1053C0000E94D01AEC010091A6021091A7028091D0
:1053D000D9020E945E1A9801281B390B1AC012B814
:1053E0008091D50281B98091CE028BB99091D00283
:1053F000892B8AB9C091A602D091A7028091D702C9
:105400000E94D01AC81BD90B8091D9020E945E1A43
:105410009C012115310511F421E030E0CE01821B01
:10542000930BB9010E94754A6B01EE24FF242031D1
:10543000310508F062C031E0B316D9F48091D3028F
:105440009091CF02982B9AB98BB98091D8020E9483
:10545000D01AEC010091A6021091A7028091D90206
:105460000E945E1A081B190BA090DA02B090DB02B2
:1054700019C08091D3029091CE02892B8AB9C09134
:10548000A602D091A7028091D7020E94D01AC81B11
:10549000D90B8091D9020E945E1A8C01A090DC0287
:1054A000B090DD020115110511F401E010E0BE011C
:1054B00080E090E020EF3BE247E050E00E943D4A70
:1054C000980140E050E00E949C4ACA01B9012AE0DC
:1054D00030E040E050E00E943D4A20E93AE1A20E6F
:1054E000B31E950140E050E00E949C4AC216D306CC
:1054F000E406F50610F469017A01B601C701CDB7DB
:10550000DEB7EAE00C94FD4ADF92EF92FF920F9330
:105510001F93D82E1BB88091CF028AB98091D402F4
:1055200081B982B98091D8020E94D01ABC0184301E
:10553000910550F18091DA029091DB027C0100E04C
:1055400010E085E06937780780F091E0D91669F4BA
:105550001AB88091D5029091D402892B81B980919B
:10556000D8020E945E1ABC0108C080E99AE1A0E05E
:10557000B0E0E80EF91E0A1F1B1F29EFD22E20EA09
:1055800036E841E050E015C08091D2028AB980919E
:10559000D8020E94D01ABC0197EFD92E20E432E441
:1055A0004FE050E080EFE82E8BE2F82E87E0082FE6
:1055B000112D11B812B81AB81BB880E090E00E9403
:1055C0003D4AA80197010E949C4A2093BE02309355
:1055D000BF024093C0025093C102D092C2021F91F9
:1055E0000F91FF90EF90DF900895A0E0B0E0EBEF17
:1055F000FAE20C94E34A8091D9020E945E1A7C017F
:105600008091D8020E945E1A6C018091D00260E104
:105610000E94E31B8091D7020E94D01A8C011BB814
:105620000E9431468091CE028BB98091D7020E94B0
:10563000D01A26E00034120708F05FC08153914170
:1056400008F45BC01AB81BB88091D50282B90E94D9
:1056500031468091CE028AB98091D7020E94D01A39
:10566000853F910508F049C08091D00260E10E9419
:10567000E31B8091D7020E94D01AEC0182E0CD3D5D
:10568000D80760F482E280930C0280910E02816060
:1056900080930E028AE08093150235C08091CE027D
:1056A0008BB90E9431461BB88091D7020E94D01A54
:1056B000853F910510F580910C02813229F480918B
:1056C0000E02816080930E0281E280930C028BE0D7
:1056D000809315028091BA029091BB028C179D07AE
:1056E00020F5CE01A0E0B0E08093BA029093BB0217
:1056F000A093BC02B093BD0206C080E0CDB7DEB778
:10570000E8E00C94FF4A8091CA028093AD02809138
:10571000C8028093AE028091C9028093AF02EC1858
:10572000FD08F092B502E092B40281E0E7CFA0E07C
:10573000B0E0EDE9FBE20C94DF4A8B5E914020F48F
:1057400058E2C52ED12C04C048EEC42E41E0D42E20
:105750008091D3029091CF02892B8AB98091D8028F
:105760000E94C71A7C018091D3028BB98091D80224
:105770000E94C71A4C01C7018C0D9D1D8815990503
:1057800008F06AC08091D0028AB98BB912B88091B2
:10579000D50281B98091D9020E94C71A11B8C39766
:1057A0008958924028F010E086E0E816F10408F4E9
:1057B00011E08091D40281B98091D9020E94C71A68
:1057C000EC018091D7020E945E1A11B88C179D07D8
:1057D00030F4C81BD90BC25CD14008F411E08091B1
:1057E000D50282B981B98091D3029091CE02892BE2
:1057F0008AB91BB88091D7020E94C71A5C018091B8
:10580000D3028BB98091D7020E94C71AEC0112B85B
:105810008091D50281B98091D3029091CE02892BDB
:105820008AB98BB98091D9020E94C71A88549F40C7
:1058300028F089E180930D0284E006C0112361F411
:1058400089E280930D0286E08093150284010E198F
:105850001F09CA19DB0977C012B88091D50281B936
:105860008091D3029091CE02892B8AB98BB9809115
:10587000D7020E94C71A8C018091CE028BB9809109
:10588000D7020E94C71A7C018C0D9D1D80179107BD
:1058900008F009C1C091A602D091A7028091D00260
:1058A0008AB91BB88091D40281B982B98091D9029A
:1058B0000E94C71A12B88D5C90418958924028F016
:1058C000BB242C970C171D0710F0BB24B3940E19A2
:1058D0001F098091D40281B98091D3029091CF02A7
:1058E000892B8AB98BB98091D8020E94C71AEC0122
:1058F0008091CF028BB98091D8020E94C71AC81B31
:10590000D90BD694C794CC15DD0518F4CE01E80167
:105910008C011BB88091D40282B981B98091D902DF
:105920000E94C71A815D934028F48AE180930D029A
:1059300085E007C0BB2009F0B6C08AE280930D0263
:1059400087E0809315028FE180930C0280910E0214
:10595000816080930E024091CA024093AD02C0174D
:10596000D10738F48091C8028093AE028091C902B9
:1059700006C08091C9028093AE028091C8028093D4
:10598000AF02C80162E370E00E94754A9B01C80142
:10599000861B970BC817D90750F0200F311F2C1703
:1059A0003D0728F080910D02806480930D02809164
:1059B000AE026091AF020E94D91A9091D6028091F6
:1059C000D502982B91B92091CE022AB980910D026F
:1059D00080FF13C012B82BB90091A6021091A70244
:1059E0008091D7020E94C71A9801281B390BC90160
:1059F000C091DC02D091DD020AC092B91BB880913F
:105A0000D7020E94C71AC091DA02D091DB02C057B8
:105A1000D54EBC0180E090E020E137E240E050E06C
:105A20000E943D4A9E0140E050E00E949C4A209323
:105A3000BE023093BF024093C0025093C1028AEF6E
:105A40008093C2029091D3028091D202982B9AB98E
:105A50002091D40221B980910D0280FF03C01BB8B0
:105A600022B902C09BB912B80E9430468091D80278
:105A70000E945E1A8C018091D9020E945E1A9C01DC
:105A8000201B310B3093B9022093B80280910D0294
:105A900080FF02C020543D4E215C324120F0109224
:105AA000B9021092B802CDB7DEB7ECE00C94FB4A15
:105AB000A0E0B0E0EEE5FDE20C94DF4A90E0EC01FE
:105AC000C170D07080FF07C0C090CE028091D40218
:105AD000F0E1AF2E06C0C090CF028091D502E1E187
