:100000002DC600003DC600003BC6000039C60000FA
:1000100037C600000C94152733C600000C94B40CAE
:100020002FC600002DC600000C94451D0C94F92627
:100030000C9407270C941F1D23C6000021C6000046
:100040000C94D3261DC600001BC6000019C6000074
:1000500017C600000C94B50C13C6000011C60000B2
:100060000FC600000DC60000B200A900A0001008D5
:10007000407E01013E01013E01013E01017E404002
:1000800018000720080808F80000002060A03FA022
:100090006020020202FF0202021010101F00000086
:1000A0000708FFDBBDB5B5CBFF0708FFBB9DADADB6
:1000B000B3FF0708FFFFF7FB81FFFF10100508F8EB
:1000C00078385888091003081C3E7F0D080710FF78
:1000D000818181F1E1C1FF4040404743410D08016A
:1000E00010FFFF11080310F1E1C14743410E000862
:1000F000202121122060E0E0E0FEFE040201000168
:10010000037F7F21C2C4C4C040948400070301025E
:10011000040E080210FEFE7F7F00000000110005A3
:10012000202060E0E0E00201000103C2C4C4C0403E
:1001300007030102040104100102044E6F742063DE
:10014000616C696272617465642100B90387035848
:10015000032E030703E402C302A402880200001472
:100160000029003E005300690080009700AE00C6E1
:1001700000DF00F80012012D01490165018201A094
:1001800001BE01DE01FF012102440268028E02B5B8
:1001900002DE020903350364039403C803FE033738
:1001A000047304B404F90443059305EA054906B34E
:1001B000062907AE074808FF08DE09000000000016
:1001C00000000000000000000000001E212121129C
:1001D00000807F0000007E4A4A4A34000000000090
:1001E00000FC402010080402010000000101010190
:1001F0000101010101010101017F0488D0E0F0F853
:1002000000000000000000000000000000000000EE
:100210000000FC94948400000102FC000000000037
:10022000000000000000001E21212112E0C08040DB
:1002300020100F000000C020202040000000FC0023
:10024000009E9E04030303030200000020202324D9
:100250002525232020203F00007B7B214284048031
:10026000C00000000000000000000000000000FCD2
:1002700094948400040607070708F00000000000BB
:100280000000000000000000803F2121120C00004F
:100290000000FF000000F0084848C80000FE000011
:1002A000E7818181C1E1F18181810100202020214C
:1002B00021212020203F0000F3404040414347409F
:1002C000407FC000000000000000000000000000AF
:1002D00000489494946400000000FF0000000000B7
:1002E00000000000000000000000003F2121120C6F
:1002F0000000FF000000F0084848D00000000000A7
:1003000000FEFE04040404040404070008080809AD
:10031000090908087F3E1C08087F7F202020202034
:100320002020E000000000000000000000000000AD
:1003300000000048949494640000FF000000000056
:10034000000000000000FF003C0A090A3C002231C6
:10035000292926000082868E9EBEFEFEBEDEEFF6B6
:10036000FAFEFEFAF2E2C282000000080808040267
:100370007984A4A46800FF000000000000000000D1
:100380000000000000000000000000000000FF006E
:1003900000F0282428F0001008FC000000000000F5
:1003A0000000000000003C0A090A3C00FF000000B9
:1003B0000000000000000000000000000000000439
:1003C0000C1C3C7CFF7C3C1C0C040000000000006A
:1003D0009EA1A9A99A804323130B0703FF030303DC
:1003E0000303030000000000000000000000788408
:1003F00084844800FF000000000000000000F008B6
:1004000004E2110909090909090909091121C204AC
:100410000810E000000001020404070000000000D2
:1004200080402010884423100804030000000000CE
:10043000000000000000FE0100FC020100000000BE
:1004400000000000000000000000000000007949EA
:100450004979000000000000000000C0F8181818DA
:1004600018F8C00007060606060700C0FCF8F0E012
:10047000DCFCC0000F0703010E0F00C0FCDCE0F045
:10048000F8FCC0000F0E0103070F00C0FCFC0000C9
:10049000FCFCC0000F0F00000F0F00F0F80C0C0C5C
:1004A000F8F0000C0D0F000F0D0C0000FCFC00001C
:1004B000F8F800381F0F03060307060C0C0C0C0C91
:1004C000FCFCC00C0C0C0C0C0F0F00C0FCFC0C0C4A
:1004D0000C0C0C000F0F0C0C0C0C0CC0C0C0C0C0DE
:1004E000C0C0C00000000000000000C0000080008C
:1004F000008000070C0C070C0C070C00800000802B
:100500000000C00C070C0C070C0C0700F8FC46623E
:10051000BC1800381F0F0004070300000000000093
:1005200000000000000000000000000000000000CB
:1005300000000000000000000000000000000000BB
:1005400000000000000000000000000000000000AB
:10055000000000000000000000000000F8FC06029F
:10056000FEFE00381F0F08080F1F38FEFE0000FEB9
:10057000FE00000F0F08080F3F1800FEFE00F800F5
:10058000FEFE000F0F080F080F3F180080E030102C
:10059000F0F000381F0F08080F1F38C0E028F828B7
:1005A000E0C000070F283F280F0700F0F00000F020
:1005B000F000000F0F08080F3F1800F0F000F000E7
:1005C000F0F0000F0F080F080F3F180000000000A8
:1005D000000000000000000000000000000000001B
:1005E000000000000000000000000000000000000B
:1005F00000000000000000000000000000000000FB
:1006000000000000000000000000000000000000EA
:1006100000000000000000000000000000000000DA
:1006200000000000000000000000000000000000CA
:1006300000000000000000000000000000000000BA
:1006400000000000000000000000000000000000AA
:10065000000000000000000000000000000000009A
:10066000000000000000000000000000007CFEFE12
:100670007C00000000001B1B000000000E1E00009C
:100680001E0E00000000000000000020F8F820F816
:10069000F82000020F0F020F0F0200387C4447477A
:1006A000CC9800060C0838380F0700081494C8606E
:1006B000301800060301040A0A040080D87CE4BC58
:1006C000D84000070F0808070F080000080F0700B0
:1006D00000000000000000000000000000F0F80C26
:1006E0000400000000070F181000000000040CF8C0
:1006F000F00000000010180F0700004050F0E0F07C
:100700005040000001010001010000004040F0F0F5
:100710004040000000000101000000000000000057
:1007200000000000002C3C1C000000C0C0C0C0C085
:10073000C0C0000000000000000000000000000039
:1007400000000000000C0C00000000000080C060F1
:100750003018000603010000000000F8FC06020645
:10076000FCF80003070C080C07030000181CFEFE31
:100770000000000008080F0F0808000C0E82C2627B
:100780003E1C000E0F0908080C0C000406424242F1
:10079000FEBC00040C0808080F0700C0E0B098FC7D
:1007A000FE8000000000080F0F08003E3E222222BB
:1007B000E2C200060C0808080F0700F8FC262266B3
:1007C000C4800003070C080C070300060682C262FF
:1007D0003E1E0000000F0F00000000BCFE4242421F
:1007E000FEBC00070F0808080F0700387CC6828689
:1007F000FCF80000040C080C070300000030303047
:100800000000000000060606000000000030303046
:100810000000000020361E0E0000000040E0B0186E
:100820000C06000000000103060C00002020202020
:10083000202000000101010101010000060C18B098
:10084000E04000000C060301000000181C86C26690
:100850003C18000000191900000000F8FC04E4E452
:10086000FCF800070F080B0B0B0100F0F88C868CCE
:10087000F8F0000F0F0000000F0F0002FEFE4242D2
:10088000FEBC00080F0F08080F0700F8FC06020264
:10089000060C0003070C08080C060002FEFE020608
:1008A000FCF800080F0F080C07030002FEFE42E2EE
:1008B000060E00080F0F08080C0E0002FEFE42E2B2
:1008C000060E00080F0F0800000000F8FC068282E8
:1008D000868C0003070C0808070F00FEFE4040400E
:1008E000FEFE000F0F0000000F0F00000002FEFED2
:1008F0000200000000080F0F08000000000002FEC8
:10090000FE0200070F08080F07000002FEFE60F05D
:100910009E0E00080F0F00000F0F0002FEFE0200E7
:10092000000000080F0F08080C0E00FEFE38E0382B
:10093000FEFE000F0F0000000F0F00FEFE38E080EB
:10094000FEFE000F0F0000030F0F00F8FC0602066A
:10095000FCF80003070C080C07030002FEFE4242ED
:100960007E3C00080F0F0800000000FCFE0202029F
:10097000FEFC00070F080E3C3F270002FEFE42C6A9
:10098000FC3800080F0F00000F0F001C3E6242C22F
:100990008E0C00060E0808080F07000E0602FEFE69
:1009A00002060E0000080F0F080000FEFE00000007
:1009B000FEFE00070F0808080F0700FEFE000000FB
:1009C000FEFE000103060C06030100FEFE00F80017
:1009D000FEFE00030F0E030E0F0300069EF8F0F854
:1009E0009E06000E0F0100010F0E00003E7EC0C0EB
:1009F0007E3E000000080F0F0800000682C262322F
:100A00001E0E000E0F090808080C000000FEFE0272
:100A100002000000000F0F080800001C3870E0C042
:100A2000800000000000000103070000000202FE39
:100A3000FE0000000008080F0F0000080C06030667
:100A40000C08000000000000000000000000000092
:100A50000000003030303030303000000003070438
:100A6000000000000000000000000020B09090F0A6
:100A7000E00000070F0808070F080002FEFE103014
:100A8000E0C000000F0F080C070300C0E03010109A
:100A900030200003070C08080C0400C0E03012FEF0
:100AA000FE0000070F0808070F0800C0E0B090B074
:100AB000E0C00003070C08080C04000020FCFE2224
:100AC0000E0C0000080F0F08000000E0F01010E00E
:100AD000F01000133724243F1F000002FEFE2010F8
:100AE000F0E000080F0F00000F0F00000010F6F6F6
:100AF0000000000000080F0F08000000000010F6C2
:100B0000F60000183820203F1F000002FEFEC0E063
:100B1000301000080F0F00010F0E00000002FEFE53
:100B20000000000000080F0F080000F0E030E03087
:100B3000F0E0000F0F0007000F0F0010F0E0103082
:100B4000E0C000000F0F00000F0F00C0E0301030B9
:100B5000E0C00003070C080C07030010F0E01010C1
:100B6000F0E000203F3F28080F0700E0F01010E001
:100B7000F01000070F08283F3F200010F0E0301071
:100B8000706000080F0F08000000002070D09090E7
:100B9000302000040C0808090F06001010FCFE109D
:100BA0001000000000070F080C0400F0F00000F037
:100BB000F00000070F0808070F080000F0F0000021
:100BC000F0F0000003070C0C070300F0F000C00079
:100BD000F0F000070F0C070C0F07003070C080C04A
:100BE0007030000C0F0301030F0C00F0F000000048
:100BF000F0F00013372424243F1F0030301090D031
:100C00007030000C0E0B09080C0C000040E0BE1FF9
:100C10000100000000000F1F100000000000FFFF97
:100C20000000000000003F3F0000000000011FBE68
:100C3000E040000000101F0F000000080C040C082A
:100C40000C0400000000000000000080C060306064
:100C5000C0800007070404040707000011241FBE1A
:100C6000CFEFD8E0DEBFCDBF11E0A0E0B1E001C022
:100C70001D92A63CB107E1F70E940B330C94A03AF9
:100C8000BFC95D98559A80FD599A80FF5998519A2D
:100C9000539A5A9867FD5B9A67FF5B985A9A5A98DD
:100CA00066FD5B9A66FF5B985A9A5A9865FD5B9A57
:100CB00065FF5B985A9A5A9864FD5B9A64FF5B984B
:100CC0005A9A5A9863FD5B9A63FF5B985A9A5A98AE
:100CD00062FD5B9A62FF5B985A9A5A9861FD5B9A33
:100CE00061FF5B985A9A5A9860FD5B9A60FF5B9827
:100CF0005A9A5D9A5A985B9808956093460180933A
:100D0000040186958093AD01660F660F660F6093B0
:100D10000F0108951092AD0160E080E0EECF60E039
:100D200082E0EBCF60E084E0E8CF60E086E0E5CFF2
:100D300080914601809301018091AD018093030170
:100D400008958091030160910101880FD6CFCF9360
:100D5000C82F692F81E095DF6C2F81E092DFCF9162
:100D60000895682F80E08DCF8EEAFBDF85EAF9CF0A
:100D7000CF93DF93C0E080E1F4DF80E0F2DF8C2FDF
:100D8000806BEFDFD4E860E081E07BDFD150D9F702
:100D9000CF5FC83081F7BEDFDF91CF9108955898BB
:100DA0005A985B985D98509A529A539A559AF2D3F2
:100DB0005D9A559A5998519A84E1F3D3589A84E1EF
:100DC000F0D38EEACEDF82EECCDF82EACADF80EAA1
:100DD000C8DF80ECC6DF8FE2C4DF84E2C2DF81E8D7
:100DE000C0DF89E293E00E94623A8F73BADF80E449
:100DF000B8DF84EAB6DF86EAB4DFBADF8FEAB1DFB4
:100E000060E080E07ACF0895582F28E030E090E845
:100E100041E080E0642F652309F0892B440F96950B
:100E20002150310921153105A9F70895A0E0B0E05E
:100E3000ECE1F7E00C94D339EC01C02ED12CC601C3
:100E4000860F911D813891050CF06BC0F12CE40EDA
:100E5000F11C81E4E816F1040CF063C0142F169520
:100E60001695169581E0E81AF10833E0F594E794B9
:100E70003A95E1F7822F8270582E21FF0DC0F701BD
:100E8000FF27E11BF109EC9DC001ED9D900DFC9D3C
:100E9000900D1124C80FD91F87E08E1510F497E02C
:100EA000E92EF62EF2948FE0F8228F2D8061F82E35
:100EB0006F70462E2170322E460181E0881A91080B
:100EC000E11650F1812F806B4CDF8F2D4ADF842D8E
:100ED00048DFA12CB12C3E01680C791CA01698F4B7
:100EE000332021F0F301EA19FB0903C0FE01EA0DEA
:100EF000FB1D8491511088DF682F81E0C2DE8FEFE7
:100F0000A81AB80AEBCF552019F0CC19DD0902C098
:100F1000CC0DDD1D1F5FD4CF809104018F70806BDD
:100F200020DFCDB7DEB7E1E10C94EF39EF920F93FC
:100F3000282F8F7030E6839FC001112485549E4F67
:100F4000322F307324FF02C028E001C028E4209330
:100F50001001303218F01092000108C020E22093F6
:100F60000001209110012D5E2093100140E2E42E3B
:100F700008E120E0409100016091100157DF0F91DE
:100F8000EF900895EF920F93262FFC016491319614
:100F90004491FC0132960491FC013396E490509107
:100FA0000001450F50911001650F04963FDF0F912E
:100FB000EF90089560E0E6CFEF920F939091460195
:100FC0009F5F9093460140910401440F440F440FEA
:100FD00020E1829FC001112450E1E52E08E020E0CD
:100FE00060910F01855A9B4F21DF80910F01885F2F
:100FF00080930F010F91EF9008958F5CDDCF80E219
:10100000DBCFA1E0B0E0E7E0F8E00C94E23918169D
:101010002CF48983F4DF89818150F9CF2196E2E0B5
:101020000C94FE399091460180E1891BEACFA1E042
:10103000B0E0EDE1F8E00C94E2398983F3DF9091C0
:10104000AD019F5F9093AD016981943038F083E0EA
:101050008093AD0181E08093490102C01092490163
:101060008091AD01880F49DE2196E2E00C94FE39B3
:10107000DEDFDAC34FDED6DF4DCE51DED3DF4FCE1B
:101080008DE39ACFCF93DF93EC018991882311F000
:1010900093DFFBCFDF91CF910895CF93DF93EC01E6
:1010A000FE018491982F9F7719F086DF2196F8CF63
:1010B000DF91CF910895CF93DF93EC01CE010E9491
:1010C000623A982F9F7719F077DF2196F7CFDF915B
:1010D000CF910895EF920F93FC0104913196E49023
:1010E0000296A4DE0F91EF9008950F938BE891E0A4
:1010F000E2DF409191014D3F64F460917F01709176
:101100008001809181019091820103E026E4E6D084
:1011100002C08FE351DF0F91089597FF09C08F93AD
:101120009F938DE249DF9F918F91909581959F4F7D
:101130006CE271E04AE050E00E944E3AA3CFEDDF4E
:1011400001C0EBDF5CCFEF92FF920F931F93182F3C
:10115000062FF42E8DE691E0AEDFEE24E0914701FC
:10116000F09148018685E81611F4812F09C0848525
:10117000E81611F4802F04C08585E81611F48F2D30
:101180001BDFE3948E2D833049F71F910F91FF9061
:10119000EF900895EF92FF920F931F93182F062F51
:1011A000F42E80E065DF83E791E085DFEE248E2D6D
:1011B00024DF66DFE0914701F09148018685E8165B
:1011C00011F4812F09C08485E81611F4802F04C022
:1011D0008585E81611F48F2DEFDE11DFE3948E2D57
:1011E000833029F71F910F91FF90EF900895682F9A
:1011F00080E092E0662309F491E0623009F481E036
:1012000008950F93082FEEEAF1E0880F880FE80F9A
:10121000F11D608171818281938164367105810540
:10122000910570F42091020127FD0AC0802FDFDFB5
:10123000692F0E94A3226EEF23E044E03ED104C058
:101240004FEF04E024E04AD0DADE0F9108958630B3
:1012500058F4E1EAF1E0E80FF11DE80FF11D80819B
:10126000918163E035D1CBCE08951F93182F8091E3
:101270007A01882319F0C3DE80E09EDE50DD84E62B
:1012800091E019DF812F82958F70E1DF812F8F70C0
:10129000DEDF1F910895CF93DF9380911101829536
:1012A0008F70C5E9D1E0C80FD11D8881A6DE82E329
:1012B00091E001DF8E81A1DE82E391E0FCDEC5E9F1
:1012C000D1E0809111018370C80FD11D8E8195DE10
:1012D00080911101CADFDF91CF910895AEE0B0E0B7
:1012E000E4E7F9E00C94D239342E222E6B017C0114
:1012F000102F1F7080E389838A838B838C838D8377
:101300008E83F7FE0BC08DE257DEF094E094D0940C
:10131000C094C11CD11CE11CF11C04C005FF02C01B
:101320008BE24ADE133009F4B6C0143009F4BAC0B7
:10133000153051F0163081F01730B1F074E6872E79
:10134000912CA12CB12C17C060EA862E66E8962E4F
:10135000AA24A394B12C0FC050E4852E52E4952EFC
:101360005FE0A52EB12C07C040E8842E46E9942EFC
:1013700048E9A42EB12C3AE0432E512C612C712C5B
:10138000C814D904EA04FB0470F0C701B6016B5F0E
:101390007F4F8F4F9F4FA30192010E943639690101
:1013A0007A013394EDCF81E1830D9BEA899F812CF3
:1013B0001124869486E08319899F912C1124969498
:1013C000992D990F990D982E991A5E0187E0A80E14
:1013D000B11C2AE030E0A501C701B6010E942B3AFA
:1013E000F50101900020E9F7CF0101977C01EA188F
:1013F000FB08AE2C6701DD24892D90E004968C1546
:101400009D051CF4839493E0990E882D90E0895DEE
:101410009F4F0E94623AB82E04FF04C0A11610F438
:101420001E1901C010E0AE2CA918A10E1A1424F048
:101430008EE2C2DD192D1E19911002C028EFA22ED6
:10144000912C012F10E0C00ED11EEA2CFF24E7FCE6
:10145000F094E92DF0E0EC15FD05A4F43696E01BC0
:10146000F10B81E090E08C0F9D1FE80FF91F808148
:10147000A3DD9394892D90E08E159F0551F78EE2A0
:101480009BDDE7CFBB2011F08B2D96DD222089F06C
:10149000822D92DD0EC098EE892E93E0992EA12C1C
:1014A000B12C69CF80E1882E87E2982EA12CB12C37
:1014B00062CF2E96E2E10C94EE390F93362FBC01E9
:1014C00080E090E0022F242F432F08DF0F91089532
:1014D0000F93062FBC0180E090E026E54DEFFEDE85
:1014E0000F9108950F93042F28E440E0F7DE8AE778
:1014F00063DD85DD0F910895E82FF0E0EE0FFF1F0B
:10150000E859FF4F8591949120910001420F20915D
:101510001001620F20E0DECDCF93DF93C82FD62FCE
:10152000E0914701F091480148E16EE18685E4DFF2
:10153000E0914701F09148014D2F6C2F8485DCDF4D
:10154000E0914701F091480140E06EE18585D4DFEC
:10155000DF91CF910895089503D002D001D000D03B
:1015600000D003D002D001D000D000D003D002D0F0
:1015700001D000D000D0A89503D002D001D000D077
:1015800000D003D002D001D000D000D003D002D0D0
:1015900001D000D000D003D002D001D000D0000094
:1015A000089590E0893C28F0885C48EC849FC00155
:1015B0001124009709F4089520918100277019F0F3
:1015C000DADF0197F6CF8130910519F002973EE3FB
:1015D00003C037E180E090E02091B200230F209318
:1015E000B30042E04093700027E023BF889526E0D7
:1015F00023BF10927000A895DCCF8F9384E0D1DFD9
:1016000007C08F9382E0CDDF03C08F9381E0C9DFF5
:101610008F911F93182F106410937C00E12FE078B6
:1016200080913701E81759F0E0933701AEDF8EE97A
:1016300080937A0083E083BF889582E083BF20E0B7
:1016400030E0A901E0E01FC08EE980937A0083E0DA
:1016500083BF889582E083BF6091780070917900A4
:10166000260F371F411D511DE43061F4809139016F
:10167000803041F084E02030380720F417FD02C0AC
:101680001068CACFEF5F80913601E817E8F26091E9
:101690003A0170913B0117FF04C0609138017091CD
:1016A000390180E090E00E94F4382FEF33E040E011
:1016B00050E00E943639B901CA012091360130E06C
:1016C00040E050E00E943639C9011F91089589B168
:1016D000869581704B99826090911C01943050F0F6
:1016E0009EE0909318018093190110921D0191E0E2
:1016F00090931C01E0911C01AE2FB0E0A85EBE4F9C
:101700009C91981721F181111AC0A3E0AE0FA3702C
:1017100020911D01923041F4B0E0A85EBE4F9C9133
:10172000933069F42F5F09C0913049F4B0E0A85EAE
:10173000BE4F9C91933019F4215020931D01EF5F0F
:10174000E370E0931C01F0E0E85EFE4F808380913F
:101750001D0187FD819580931E010895A0E0B0E0F2
:10176000E4EBFBE00C94DB39D82EC92E519853984A
:1017700007DF10921D01E0911C01F0E03196E3704B
:10178000FF27E85EFE4F80EF8083C5E6D9E19FDF4B
:101790004F9905C0F9DED150D1F7C150B9F7CD2D21
:1017A000DC2DF12C05E510E0BB24B394D7FD36C049
:1017B00082E3E82E8CDFE8DEEA94E1F7000F4F9B2E
:1017C0000F5F0F730F3349F4111103C0CD2DDC2DC2
:1017D00014E01F5F163928F021C0011102C0111159
:1017E0001DC0A8951C161D062CF42A97209711F4ED
:1017F000CFEFDFEF80911E01882339F0F3948091C1
:101800007B01811102C0B0927B0184E18F1570F6DB
:1018100080911D01811102C0F12CC8CF812FCDB75D
:10182000DEB7E9E00C94F739CF9382DAC82F8091C4
:101830004901882301F1813051F4C33041F46FE054
:1018400086E05BDA8BE2B8DB6FE086E056DA80E4B4
:101850009FE184DF811104C080911E018111F7CFC7
:10186000C33041F480914901813021F460E086E089
:1018700044DAD8DB66DACF91089582E593E00E94DE
:10188000623A382F83E593E00E94623A20913E014C
:10189000230F30913F01381F209321013093220103
:1018A00083E0283E380720F0C901885E934002C0DB
:1018B00080E090E062E370E00E940F39683008F049
:1018C00067E0EBE4F1E0E60FF11DE60FF11D459155
:1018D00055912591359162E3681B421B530B649F20
:1018E000C001659F900D1124499662E370E00E944B
:1018F0000F39620F731F70937E0160937D0184E541
:1019000093E00E94623A992787FD909560913E018D
:1019100070913F01860F971F909339018093380192
:1019200090937901809378010895CF93DF9324E118
:1019300030E0B9010E940F39DC01EDE5F1E0E60F7E
:10194000F71FE60FF71FC591D591459155914C1B97
:101950004A9FC0011124B9010E940F396C0F7D1FED
:10196000CB01DF91CF91089518951895109225011C
:1019700010922301109273011092590110922401C8
:101980001092450110927A0110925E0110925F014F
:101990001092600110928F0182E08093900110926A
:1019A000020110928E0110928D011092830110920B
:1019B0008401109285011092860181EF809392013B
:1019C0000895D2D95E9880E090E0C8CEA1E0B0E062
:1019D000ECEEFCE00C94E03917B818B8E82FF0E012
:1019E000EB5CFE4F949195B9262F281BE20FF11D59
:1019F00027FDFA95E491E92BE4B969830ADE8C01AD
:101A00006981862F06DE20913A0130913B0136959F
:101A10002795A90143505109B801625E7F4F4617CF
:101A2000570778F4255E3F4F0217130750F4BC01A7
:101A3000625E7F4F4617570720F441E082179307F5
:101A400008F040E014B8842F2196E4E00C94FC39AF
:101A5000CF9361E080E0BADFC82F62E080E0B6DFBC
:101A6000C80F62E081E0B2DF8C0FCF910895A3E14F
:101A7000B0E0EDE3FDE00C94D239B82E10922501D0
:101A8000807FA9F4E5DF833009F0B6C371D98DE515
:101A900092E011DB44D98FE38FDA80ED97E05EDED0
:101AA0008B30C0F465D980E091E005DBA5C306E981
:101AB00010E05ED982EC91E0FEDACADF833021F4D7
:101AC0001F5F143010F006C010E088E26ADD01509C
:101AD00081F763C024D90E94A61D8CEB90E0EBDA5D
:101AE00060E08CE293E00E946F3A60E08DE293E068
:101AF0000E946F3A60E08BE293E00E946F3A60E0F0
:101B000082E00E94A3226C019A83898361E082E0D3
:101B10000E94A3227C019C838B8360E081E00E9471
:101B2000A3228C019E838D8323E040E26EEFC601E9
:101B3000C4DC23E040E26EEFC701BFDC23E044E0F9
:101B40006EEFC801BADC2AE5C216D10424F024E104
:101B500030E03A83298369818CE293E00E946F3AF6
:101B60008AE5E816F10424F024E130E03C832B837D
:101B70006B818DE293E00E946F3A0A35110524F0E3
:101B800024E130E03E832D836D818BE293E00E945F
:101B90006F3A82E08093490147DE9B2D9F709F87BB
:101BA000913009F04DC001E010E058EB252E52EDC8
:101BB000352E57E4452E512C62E0A62E78E0972E64
:101BC000ECE06E2EF4ECCF2EF6E3DF2EE12CF12CC0
:101BD00039C0839423E0281558F14FDA4BDA84E5B5
:101BE000EBD9C801A5DA0BDAE1E0BE1230C08FEE06
:101BF00090E061DA64E080913E0190913F0168DC01
:101C00008ED88AEE90E057DA80917D0190917E0126
:101C10008FDA8EEB8093360117B818B814B815B860
:101C200088EE93E09BDDF4E0BF1699F28B3088F2EA
:101C300088EE93E093DD0F5F1F4F0830110511F41C
:101C400018E71CC1812CB02EB0E27B2EC6CFF2E08B
:101C5000BF1241C020913A0130913B01A8E5BBE1A0
:101C60000E94CF38A70196010E94583981E085B9BA
:101C700085E084B980E0288B398B4A8B5B8BBDDC97
:101C8000288939894A895B89821B930B9A838983C6
:101C900081E184B980E0288B398B4A8B5B8BADDC8A
:101CA000288939894A895B89821B930B9C838B83A2
:101CB00084E085B984E184B981E0288B398B4A8B33
:101CC0005B8B9BDC28893989821B930B9E838D83D8
:101CD00084ED90E0B7C093E0B91229C0A5B8EAE05E
:101CE000E4B980E08ADC20913A0130913B013695DD
:101CF000279538872F83821B930B9A838983F2E27F
:101D0000F4B980E07ADC2F813885821B930B9C83A9
:101D10008B8395B828E224B981E06FDC2F81388568
:101D2000821B930B9E838D8386EC90E08BC084E0B6
:101D3000B81207C08DE492E0BED98ADE811159C283
:101D400087C095E0B91213C015B8A4B880E055DC7F
:101D50009A83898394B881E050DC9C838B8374B828
:101D600082E04BDC9E838D8386EE90E06BC0E6E0E4
:101D7000BE1227C0A4B8A5B880E03FDC20913A018C
:101D800030913B01821B930B9A83898394B895B859
:101D900081E033DC20913A0130913B01821B930BAF
:101DA0009C838B8374B875B882E027DC20913A015C
:101DB00030913B01821B930B9E838D8382EE90E0DA
:101DC00041C0F7E0BF1240C020913A0130913B0181
:101DD000A8E5BBE10E94CF38A20191010E943639EB
:101DE000A5B883E084B980E0288B398B4A8B5B8B64
:101DF00004DC288939894A895B89821B930B9A8381
:101E0000898395B864B881E0288B398B4A8B5B8BCA
:101E1000F4DB288939894A895B89821B930B9C836F
:101E20008B8375B890E394B982E0288B398B4A8B09
:101E30005B8BE3DB28893989821B930B9E838D831F
:101E400080EC90E038D904C0E1E0BE1609F4E4CE9D
:101E50000E948F0689819A8160D9D1D88B819C811B
:101E60005CD9CDD88D819E8158D9D6CE06D98DE446
:101E700092E021D984E695DB115019F0E9DD81115A
:101E8000F5CF0E94B80685EB90E015D923E044E039
:101E90006FEF80913C0190913D010FDB0E948F0616
:101EA0008EEA90E008D923E044E06FEF809143018F
:101EB0009091440102DB82E080934901B5DC1092ED
:101EC00025010E94B8068AEA90E0F5D860E082E039
:101ED0000E94501A8090870190908801A0908901FB
:101EE000B0908A019C868B8661E082E00E94501A45
:101EF000C0908701D0908801E0908901F0908A011C
:101F0000DE86CD8660E081E00E94501A0091870154
:101F1000109188011E830D8362E080E00E94501AB8
:101F200080918701909188019C838B8362E081E09E
:101F30000E94501A80918701909188019A87898721
:101F400061E080E00E94501A8091870190918801A1
:101F50009A838983EF85E13021F02091420122307C
:101F600021F4029698878F8304C098878F831092FC
:101F70004201C401E6D8C601E4D8B801882777FD3C
:101F80008095982F03E026E444EFA8D96E01FFE086
:101F9000CF0ED11CFE013196819191910A97853B1C
:101FA0009105E8F4EC15FD05B9F7ABE4EA2EA3E0E2
:101FB000FA2E8E010F5F1F4FF80160810E5F1F4FD9
:101FC0006E5EC7010E946F3AFFEFEF1AFF0A0C1511
:101FD0001D0591F70E948F0680EB91E06CD882E09E
:101FE0008093490121DC0E94C42F2F85213029F0E4
:101FF00080914201823009F0E4C0E0E4BE2E10E09E
:10200000FAE0CF2ED12CE12CF12CB0DC0E94B806E6
:1020100080E00E94FD0786E591E04DD882E00E94B5
:10202000FD078FE190E047D81092250160E082E043
:102030000E94501A0091910160917F01709180017E
:102040008091810190918201073F44F4A70196019C
:102050000E9436390F5FB901CA01F6CF0093910192
:1020600060937F017093800180938101909382013E
:10207000073F09F091C0DC01CB0180569109A1090D
:10208000B10980399545A105B10508F085C0609179
:10209000930170919401CB018B569F4F8B329140ED
:1020A00008F07AC01F5F153008F477C082E593E02E
:1020B0000E947D3A0E94B80688E190E00E945B0889
:1020C000809193019091940128D8D7DB18B881E0D2
:1020D00087B980E284B982E09CDA853D9340DCF7E1
:1020E00014B8109239011092380182E092DA8C0112
:1020F0008091780190917901909339018093380112
:1021000082E087DA7C01EE0CFF1C109239011092FC
:10211000380182E07EDAC0907801D0907901D092C7
:102120003901C0923801080F191F0E191F090E94AA
:102130008F0681E190E00E945B0884E593E00E94B5
:10214000623A73E0B72EB80E9601D8010E94DE38CD
:102150009701442737FD4095542F0E945839B20EFD
:102160006B2D84E593E00E946F3A8B2D992787FDB4
:1021700090950E948D0881DB82E08093490154DBB9
:10218000109242018BE493E00E94623A682F8EE441
:1021900093E00E946F3A15C010E00E948F06609194
:1021A0007F0170918001809181019091820104E012
:1021B00026E44091910192D888E2F3D9BA9409F0CB
:1021C00024CF89E1809336010E94C9320E94B8066B
:1021D00080E091E00E945B080E948F0684E492E018
:1021E0000E945B081092250182E0809349011CDB6C
:1021F00003C052E0852E2CCE6396E2E10C94EE39BA
:102200008091420181110DC08BE493E00E94623AFB
:1022100061E0680F8EE493E00E946F3A81E0809362
:1022200042010895CF92DF92FF920F931F93CF93B5
:10223000DF931F92CDB7DEB7E82FF0E0E85CFE4FEA
:10224000E491E8B9E7B915B8E62FF0E0EB5CFE4F92
:10225000E491E4B908E813E1FE2EFF0C862F6983B0
:10226000CCD96C01F4B869818017910710F48C0106
:10227000F5CF0097E1F00E94950686E391E00E9479
:102280005B08D60120EA36E841E050E00E94E438DD
:1022900028E937EB40E050E00E943639DA01C90105
:1022A00022E041E467EF09D917B818B814B80F90C5
:1022B000DF91CF911F910F91FF90DF90CF90089504
:1022C0000F931F93CF93DF9385E0A3D985E09DD92A
:1022D000EC018C01000F111F000F111F0A561F4F38
:1022E00010924001043883E0180750F484EA91E02A
:1022F0000E945B080E94120881E08093400123C085
:1023000083EB91E00E945B0862E0C801E1D80E9483
:10231000FF07CA3F86E0D80780F4C333D64050F4A5
:1023200088EB92E00E945B080E9412088DEC39D97C
:1023300048DB09C08FEB92E002C080EB91E00E9485
:102340005B080E941208DF91CF911F910F910895B1
:10235000A5E1B0E0EEEAF1E10C94D239982E862E98
:10236000442EA895E62FF0E0EB5CFE4F5490339698
:10237000E490E42FF0E0EB5CFE4F6490E82FF0E097
:10238000EB5CFE4FF4903396749065B8262D2529AA
:102390002D8324B977B878B8862F37D95C0154B823
:1023A000882D33D91C0114B8E6D815B83D8134B94D
:1023B000882D2BD98A159B05F0F4805E9E4FA816B8
:1023C000B90608F4C2C4E7B818B8F5B88F2D862945
:1023D00084B9A0903A01B0903B01892D16D9A81A72
:1023E000B90AF4B820903A0130903B01892D0DD9FB
:1023F000281A390A07C09501205E3E4F82179307BD
:1024000008F4A3C4209159018091730190E0820FD8
:10241000911D02974CF0213009F097C4909156011C
:1024200080917001981391C4162D110F44E7A416E2
:10243000B10408F49CC0C501880F991F4496281662
:10244000390608F094C077B878B8812F852984B907
:10245000882DD7D86C01842DDCD85C0115B9882D66
:10246000D0D89601295A3D4F1F2918B8E7B814B99A
:1024700015B928173907A8F5842DC3D888349F408B
:1024800028F085E08093250182E204C085E08093F6
:10249000250184E280932401D0924F01C0924E0125
:1024A000AC14BD0440F4C6018A199B0990935501F0
:1024B0008093540104C0109255011092540196016A
:1024C000A0E1B7E20E94CF3820911F013091200196
:1024D00040E050E00E943639309351012093500182
:1024E0002CC4892D8ED88C01842D93D86C01F5B81D
:1024F000892D87D8895A9D4F8017910708F025C4E8
:1025000078B877B8842D7DD8813D934028F485E054
:102510008093250182E304C085E08093250184E354
:10252000809324010C151D0538F4C01AD10AD092ED
:102530006F01C0926E0104C010926F0110926E0183
:1025400020913A0130913B01201B310BA0E1B7E211
:102550000E94CF38209126013091270140E050E0C1
:102560000E94363930936B0120936A01B3C118B8C9
:10257000E7B8F5B80F2D062904B9892D46D89C83F4
:102580008B83C0903A01D0903B01842D42D89A832E
:1025900089830A9768F514B881E003D8812F8F29C1
:1025A00084B9892D32D89C838B8380913A01909194
:1025B0003B01AB81BC818A1B9B0B9D8B8C8B842D3B
:1025C00028D89A83898380912601909127019C01C4
:1025D00040E050E060E871EA83E09CE10E94363917
:1025E000AC89BD890E94E438E981FA819F0112C05B
:1025F00096014B815C81241B350B3D8B2C8B6981B3
:102600007A81261B370BA4E6B0E00E94CF38A9815F
:10261000BA819D0140E050E00E94363929873A870F
:102620004B875C8714B815B878B877B881E00E94FA
:10263000D10AB9EB2B16B7E03B0608F086C3ED8153
:10264000E4B9882D0E94050B8F359D4008F448C1E0
:1026500014B881E00E94D10A2D8124B981E00E9442
:10266000D10A312F35293F8734B9882D0E94050BB7
:102670006C01842D0E94090B9E878D87892D0E94F5
:10268000090B98878F834D855E85413D574008F43F
:10269000AEC084E0809325018DE080932401360153
:1026A0002C143D0410F462187308E0901F01F090A0
:1026B000200100E010E060E871EA83E09CE1A801FD
:1026C00097010E943639D3010E94E438AD85BE855A
:1026D0009D0140E050E00E943639809173018823CB
:1026E00069F08091640190916501A0916601B091BB
:1026F000670182179307A407B50708F520936401C3
:102700003093650140936601509367019601A0E103
:10271000B7E20E94CF38A80197010E943639309362
:102720006B0120936A018F819885ED85FE858E1B54
:102730009F0B909369018093680121E001C020E024
:102740008091640190916501A0916601B09167014B
:1027500049855A856B857C8584179507A607B70739
:1027600038F540936401509365016093660170935E
:1027700067018B819C8169817A81861B970B90937D
:102780006901809368012C893D89A0E1B7E20E942C
:10279000CF38209126013091270140E050E00E947F
:1027A0003639205F384D30936B0120936A0103C0A6
:1027B000222309F48EC39101A0E1B7E20E94CF3831
:1027C000A80197010E94363930936D0120936C0166
:1027D0009501A0E1B7E20E94CF38A80197010E94BD
:1027E000363930936F0120936E0121E072C371E698
:1027F0002716310408F074C081EDC81687E0D806AA
:1028000008F46EC085E08093250182E18093240165
:10281000C60186509F4FAF81B8858A179B0720F469
:1028200083E1809324011CC0EF81F885CE16DF067A
:1028300098F4A0911F01B09120019F012C193D092E
:102840000E94CF38960140E050E00E943639309324
:1028500069012093680104C0109269011092680117
:10286000FE2DF770EF2E842D806480937C007BE03A
:10287000F72E01E010E0CC24CA94E3E0DE2EA89508
:1028800061E0862D2CD52F8524B986B18E21E9F300
:1028900054B880917A00806480937A0080917A00A5
:1028A00086FDFCCF8091780090917900A601481BAD
:1028B000590B040F151FFA9411F7C801880F991FBF
:1028C000880F991F69E070E00E940F3970936F01C3
:1028D00060936E01809173018F5F8093730185CF48
:1028E0005D8154B965B8882D0E94050B9A83898350
:1028F000842D0E94090B9E838D8340913A01509153
:102900003B01481B590B4A30510560F514B881E072
:102910000E94D10A812F852984B915B9882D0E947A
:10292000050B9A838983842D0E94090B9E838D83D6
:1029300080911F01909120019C0140E050E060E8EF
:1029400071EA83E09CE10E943639A981BA810E9434
:10295000E43820913A0130913B01AD81BE812A1BC0
:102960003B0B09C029813A81241B350BA4E6B0E05A
:102970000E94CF389A0140E050E00E943639298702
:102980003A874B875C87E7B818B804B905B9892D31
:102990000E94050B98878F83842D0E94090B9C83CE
:1029A0008B83882D0E94090B6C012F813885203381
:1029B000314108F0C8C1F5B8892D0E94050BAC0162
:1029C000F4B8892D4A8B5B8B0E94050B9C0115B8CE
:1029D00081E0288B398B0E94D10AF5B8892D0E949D
:1029E000050B288939894A895B892034364008F0EB
:1029F00059C08133914108F455C08F8198858A561A
:102A00009F4F4817590708F04DC086E08093250175
:102A1000809159018F5F809359018B819C818C1922
:102A20009D0990934F0180934E012F8038842C187C
:102A30003D08309255012092540114B815B8E8B8F9
:102A400081E00E94D10AF4B8892D0E94050B853FD0
:102A5000910508F04CC204B9842D0E94050B813DFC
:102A6000934008F444C2892D0E94090B8D3D924089
:102A700008F43DC2F4B8892D0E94050B8D3D9240AB
:102A800008F435C2F5B881E00E94D10A15B8892D45
:102A90000E94050B853F910508F029C287E08093CD
:102AA000250125C204B905B981E00E94D10AD12EC1
:102AB000DF28D4B8D5B8892D0E94050BAC01009150
:102AC0003A0110913B01081B190B842D4A8B5B8B3B
:102AD0000E94090B9E878D8720913A0130913B011E
:102AE000281B390B3C832B83882D0E94090B988768
:102AF0008F834A895B896B817C816E3F794008F4C2
:102B0000B1C084E0809325018CE0809324013801DA
:102B10002016310610F462187308809126019091F6
:102B200027016C01E12CF12C60E871EA83E09CE163
:102B3000A70196010E943639D3010E94E438AB8187
:102B4000BC819D0140E050E00E94363980915901DE
:102B5000882369F080914A0190914B01A0914C012A
:102B6000B0914D0182179307A407B50708F520938C
:102B70004A0130934B0140934C0150934D018D8598
:102B80009E85EF81F8858E1B9F0B90934F0180935C
:102B90004E019801A0E1B7E20E94CF38A70196014B
:102BA0000E943639309351012093500121E001C039
:102BB00020E080914A0190914B01A0914C01B0918D
:102BC0004D0149855A856B857C8584179507A60735
:102BD000B70730F540934A0150934B0160934C0185
:102BE00070934D018D819E8169817A81861B970B3F
:102BF00090934F0180934E019B01A0E1B7E20E94A8
:102C0000CF3820911F013091200140E050E00E9418
:102C10003639205F384D309351012093500103C065
:102C2000222309F465C19101A0E1B7E20E94CF38E7
:102C300020911F013091200140E050E00E94363980
:102C400030935301209352019501A0E1B7E20E9415
:102C5000CF38A70196010E94363930935501209351
:102C6000540145C171E62716310408F06CC00934DF
:102C70008DE0180708F467C085E08093250182E0A5
:102C8000809324018F81988586509F4F84179507E4
:102C900020F483E0809324011EC0AF81B885A4177F
:102CA000B507A8F4A0912601B09127019A01EF8100
:102CB000F8852E1B3F0B0E94CF38980140E050E072
:102CC0000E94363930934F0120934E0104C0109278
:102CD0004F0110924E01072D0770842D8064809360
:102CE0007C001BE0AA24A394B12CA89560E0862D5B
:102CF000F6D2D4B8D5B886B18023E9F7F4B880917C
:102D00007A00806480937A0080917A0086FDFCCFFF
:102D10008091780090917900A80EB91E115029F782
:102D2000C501880F991F880F991F69E070E00E9404
:102D30000F397093550160935401809159018F5F51
:102D400080935901D4C017B818B814B815B817B87B
:102D5000F7EC2F16F1E03F0608F4B0C018B818ECF5
:102D6000072D0E2907B981E00E94D10AE7B8892D05
:102D70000E94090B429710F01150A1F7452C440C0A
:102D80003F2C330C34B835B861E0862DA8D2892D9C
:102D90000E94050B8C0144B815B877B878B860E08C
:102DA000862D9DD2A0903A01B0903B01882D0E94C3
:102DB000050B6C0154B8892D0E94050B9A838983F9
:102DC000882D0E94090B29813A81281B390B3A83EF
:102DD000298318B8E7B8F4B8F5B861E0862D7FD23A
:102DE000892D0E94050B7C01882D0E94090BE81A91
:102DF000F90A49815A814E155F0540F434B835B857
:102E0000892D0E94050BFA82E98215C085010C19F3
:102E10001D0944B815B877B878B860E0862D5FD240
:102E2000E0903A01F0903B01882D0E94050BB7011C
:102E3000681B790BCB0129813A812759310929383F
:102E40003141E0F529813A8182179307B8F5C8012D
:102E500033E0969587953A95E1F7893C910510F016
:102E600088EC90E0800F911F49815A818417950763
:102E700028F5CA0124E0969587952A95E1F78017F1
:102E80009107E0F480912501833018F483E080936A
:102E9000250180912301E82FF0E0DF01AB56BE4F02
:102EA0009C9216968C92EE0FFF1FEF55FE4F2981D4
:102EB0003A81318320838F5F80932301682D892D90
:102EC00025D017B818B814B815B86596E2E10C9477
:102ED000EE39809173018F5F80937301222389F310
:102EE000409270018092710190927201EACF21E0CC
:102EF000809159018F5F80935901222311F34092F1
:102F000056019092570180925801DBCFA0E0B0E0CB
:102F1000ECE8F7E10C94D439982E862EA895E62F8C
:102F2000F0E0EB5CFE4F549033962491E82FF0E0F4
:102F3000EB5CFE4FE4903396F490309173018091F6
:102F4000590190E0830F911D892B09F0C3C1A89509
:102F50008091290190912A01880F991F880F991F4C
:102F600090933B0180933A0180917801909179018F
:102F7000880F991F880F991F90933901809338010A
:102F80008EEB8093360118B827B9E4B8E5B858E15C
:102F9000D52EC0E0D0E0882D0E94050B782E692E3A
:102FA000892D0E94090B8C018C1B9D0B97FF03C080
:102FB00091958195910903972CF0A895DA94D1F118
:102FC000E801E9CFEE0C15B8E4B8892D0E94050B95
:102FD0008135910578F5E5B8892D0E94050BEC0146
:102FE000F7B8F8B815B854B888E1482EC12CD12CE0
:102FF000892D0E94050BB82EA92E882D0E94090B41
:103000007C019C012C193D0937FF03C031952195A6
:1030100031092330310514F5550C54B8882D0E9420
:10302000050B6C01003C94E41907E8F4C53881E015
:10303000D807E8F08091290190912A0190933B01F3
:1030400080933A01809178019091790190933901B0
:103050008093380189E1809336013CC1A8954A9458
:1030600049F36701C5CFC03B9DE4D90718F784EA4F
:10307000E81682E0F80608F063C098E9C916D104A2
:10308000C8F200913A0110913B019E01A8E9B7EB0B
:103090000E94CF3898012C1B3D0B40E050E00E946D
:1030A000363929013A0198012C193D09A8E9B7EBF5
:1030B0000E94CF38860120E030E0A90198010E94EB
:1030C0003639C837DF4070F4C301B201B2E0660F91
:1030D000771F881F991FBA95D1F7620F731F841F3E
:1030E000951F12C098E7C9169FE0D906A0F4CA013F
:1030F000B901A2E0660F771F881F991FAA95D1F723
:10310000640D751D861D971D25E030E040E050E000
:103110000E94363908C0240D351D461D571D569591
:10312000479537952795A4E6B0E00E94E4386B01F7
:103130007C018CEAC80E8DE0D81EE11CF11C73C026
:10314000272D362D0217130708F49801CB2DDA2D01
:10315000CE15DF0508F4E70159012017310708F4FF
:103160005801A0912601B0912701C501821B930B44
:103170009C010E94CF3820913A0130913B012A19DD
:103180003B0940E050E00E94363929013A018E01A6
:10319000EC16FD0608F48701A0911F01B0912001F3
:1031A0009E01201B310B0E94CF386801E12CF12CCD
:1031B000A70196010E94363998E7A9169FE0B90643
:1031C00070F4C301B201E2E0660F771F881F991FF8
:1031D000EA95D1F7620F731F841F951F11C008373E
:1031E0008FE01807B0F4CA01B90152E0660F771FEB
:1031F000881F991F5A95D1F7640D751D861D971D5F
:1032000025E030E040E050E00E94363969017A0163
:103210000AC069017A01C40CD51CE61CF71CF6949F
:10322000E794D794C79410912501143008F002CF89
:103230009A94980C892D90E0EC01C25ADE4F2881B7
:10324000880F991F880F991FFC01E255FE4F22231A
:10325000D1F14080518062807380A70196012419CA
:1032600035094609570957FF07C0509540953095D5
:1032700021953F4F4F4F5F4FAAE0B0E00E94E438E6
:10328000A30192012C593F4F4F4F5F4F2C0D3D1D15
:103290004E1D5F1D0E943639232B242B252B09F050
:1032A000C9CE133019F081E08093250182E0888334
:1032B00080917A01E82FF0E0EF59FE4F90828F5F06
:1032C00080937A01B7CEC082D182E282F38281E01C
:1032D0008883B0CECDB7DEB7E0E10C94F039CF9360
:1032E000C82FC09595B160FF02C0982B01C09C23E8
:1032F00095B994B1982B94B982E00E94D10A84B117
:103300008C2384B985B18C2385B9CF910895A0E031
:10331000B0E0EDE8F9E10C94DB398AE0D82E9FE3C8
:10332000B92E29E0C22E17B818B815B8B4B880E085
:103330000E94050B8C0181E00E94090BEC0182E0E8
:103340000E94090B20912501293079F417B814B88F
:103350001093060100930501D0930801C093070163
:1033600090930A018093090156C00430110540F47E
:10337000C430D10558F48430910540F321E00AC0EF
:1033800021E0083E134018F020E001C021E0C83ED3
:10339000D34008F42260883E934008F4246027B9A3
:1033A000C0E0D0E0A89580E00E94FD0A7C0181E0A9
:1033B0000E94090B8C0182E00E94090B24E1E216B5
:1033C00025E0F20608F4389A043135E0130708F4D2
:1033D000399A843125E0920708F43A9A36E0E316E8
:1033E000F10428F40630110510F4069738F0219600
:1033F000C43F81E0D807B1F6C092250100E010E09B
:103400000C171D0729F00E94C00A0F5F1F4FF8CF4D
:10341000DA9409F088CFCDB7DEB7E9E00C94F7393C
:10342000CF92DF92EF92FF92CF9320917F01309164
:1034300080014091810150918201C09191018AE007
:10344000C82ED12CE12CF12C8C2FCF5F213A96E89D
:10345000390791E04907510538F0CA01B901A701C0
:1034600096010E943639F0CF80939101A0913A01E4
:10347000B0913B010E94E43828E833E140E050E09D
:103480000E94363920937F0130938001409381015F
:1034900050938201CF91FF90EF90DF90CF900895ED
:1034A000A4E0B0E0E6E5FAE10C94D839982E862E37
:1034B0008FEF860F992D990F990D890F80935B01DE
:1034C000E92DF0E0EB5CFE4F1491862F90E0FC01BB
:1034D000EB5CFE4FF490FC01E85CFE4F04918091A0
:1034E0002501813009F4A7C2409123018BE991E0C5
:1034F00061EA71E0DC012A2F281B2417A0F42D912A
:1035000028110EC09D0127503109F9012081291190
:1035100007C0FB01208131812C3D354008F48BC26E
:103520006E5F7F4FE8CF10928C0110928B0181EF7C
:103530008093910110927F0110928001109281017D
:1035400010928201E4DE18B807B9F4B8F5B8892DF5
:103550000E94090B7C01882D0E94090BE81AF90AC8
:1035600014B810925D0110925C01C12CD12C2091F5
:103570005C0130915D01243F314050F515B914B91B
:103580000E94BA0A14B815B80E94C10AA895892DDC
:103590000E94090B6C01CE18DF0880915C019091AC
:1035A0005D018E37910528F02BE4C216D1040CF48E
:1035B0003EC25DE2C51651E0D50684F480915C01FF
:1035C00090915D01019690935D0180935C01CFCF56
:1035D000EDE2CE16E1E0DE060CF429C220915C019A
:1035E00030915D01232B21F0C60100E010E006C000
:1035F000F5E1CF16F5E0DF06BCF385C020915C0154
:1036000030915D012017310758F00E94BB0A892DC7
:103610000E94090B8E199F09A8950F5F1F4FEECFCF
:103620008601081B190B1016110694F4093C1105AC
:103630000CF0FDC128EE33E0D8010E94DE3896017F
:10364000442737FD4095542F0E943639790102C036
:10365000E12CF12CA0905C01B0905D012FEFA21A3B
:10366000B20AC501A0E0B0E0809387019093880181
:10367000A0938901B0938A01C601800F911F27D2C0
:103680009C01D5010E94CF38609387017093880117
:103690008093890190938A0160937F0170938001E8
:1036A000809381019093820187EF80939101B8DE2E
:1036B00020917F01309180014091810150918201E0
:1036C0008EE293E029833A834B835C830E94623AC3
:1036D000A8EEB3E0A81BB10987FDB39529813A8113
:1036E0004B815C810E94EE3824E630E040E050E0FF
:1036F0000E94363920937F013093800140938101ED
:103700005093820152C103DE15B887E087B918B81B
:10371000F12EFF0CF4B880E480937B0084E580BF39
:10372000892D806480937C0086E180937A000E94DA
:10373000C40A10925D0110925C01109280001092F8
:1037400085001092840087E286BB81E280936F003F
:1037500081E080937C01F5B89091250180938100F0
:10376000953059F481E090E0092C01C0880F0A944B
:10377000EAF78095877087B901C007B9F89483B7D5
:10378000817F83BF80917C01882389F083B781602A
:1037900083BF7894889583B78E7F83BFF894A8956C
:1037A00080915C0190915D018034964059F7789446
:1037B00010928100E0908600F090870010926F00D8
:1037C00086E980937A0014B815B8892D0E94090BF8
:1037D00020913E0130913F01821B930B0C969093F8
:1037E00094018093930180915C0190915D018032FE
:1037F000934008F01CC180915C0190915D01909311
:103800008A0180938901F0928801E092870184EF18
:103810008093910180915C0190915D0182349105CA
:10382000C8F0609187017091880180918901909121
:103830008A0124E630E040E050E00E9436392093CF
:103840008701309388014093890150938A0186EF64
:1038500080939101A0917D01B0917E01209187011B
:10386000309188014091890150918A010E94E43889
:1038700020E233E040E050E00E9436392093870197
:10388000309388014093890150938A0120937F01EE
:10389000309380014093810150938201C1DD80917A
:1038A0009101843F09F071C0C0907F01D0908001E8
:1038B000E0908101F0908201F0EACF16FFE0DF0690
:1038C000E104F104C0F4A70196012C543F4F4F4F7F
:1038D0005F4F60EA7FE080E090E00E9436392C0D77
:1038E0003D1D4E1D5F1D20937F013093800140934D
:1038F000810150938201C0907F01D0908001E090BF
:103900008101F0908201C114D10421E0E206F104AA
:1039100028F4D092BF01C092BE0106C081E090E0C1
:103920009093BF018093BE0180915B0190E0855B25
:103930009C4F0E94623A482F50E060E070E04C15C6
:103940005D056E057F0568F4C41AD50AE60AF70A14
:10395000C0927F01D0928001E0928101F0928201B9
:1039600014C084E1C80ED11CE11CF11CC416D5069C
:10397000E606F70610F40E94001110927F011092E3
:103980008001109281011092820114B980917F010F
:1039900090918001A0918101B09182014997A10588
:1039A000B10508F444C0E12CF12C80912301882357
:1039B00021F0809125018530D1F588E080932501A3
:1039C00020919101809192018217BCF028132FC0A1
:1039D00040917F015091800160918101709182013D
:1039E0008091830190918401A0918501B09186011D
:1039F00084179507A607B707D0F480917F019091AF
:103A00008001A0918101B091820180938301909304
:103A10008401A0938501B093860120939201F092D6
:103A20008E01E0928D0180928F019092900117B8E3
:103A300018B814B815B82496ECE00C94F4391F9219
:103A40000F920FB60F9211248F939F93B59904C0D4
:103A500080917C01811109C0B59B10C080918600C6
:103A6000909187008A3F910548F480915C01909184
:103A70005D01019690935D0180935C019F918F9110
:103A80000F900FBE0F901F9018951F920F920FB6B8
:103A90000F9211248F939F9310927C01B09B10C0C2
:103AA00080918600909187008A3F910548F480912B
:103AB0005C0190915D01019690935D0180935C01A2
:103AC0009F918F910F900FBE0F901F9018950F929E
:103AD00021E08C32920710F48CE291E08C529140FC
:103AE00069E170E00E940F3999E16B3210F0982F74
:103AF0006BE2981BEFECF2E0E60FF11DE60FF11D13
:103B00009F93CF010E94623A482F3196CF010E94C5
:103B1000623A582F3196CF010E94623A282F31968F
:103B2000CF010E94623A382F6F91421B530B649F62
:103B3000C001659F900D11240C9669E170E00E9410
:103B40000F39620F731FCB010F900895A0E0B0E012
:103B5000ECEAFDE10C94D83988E893E190932A01CE
:103B60008093290190933B0180933A018EEB8093DF
:103B7000360118B880E187B90E94C90A17B884E0F5
:103B80000E94050BAC018B5C9840833F9140A0F4F0
:103B900081E08093450120913A0130913B01AFEBE8
:103BA000B9E00E94CF389A0140E050E00E943639D7
:103BB00030932A01209329018091290190912A01B3
:103BC00090933B0180933A018EE00E94090B8EE0B6
:103BD0000E94050B90933F0180933E010E943D0C93
:103BE00096DB18B8C1E0C7B985E185B9C4B980E0F2
:103BF0000E94050B7C0112E017B984E0982E94B85E
:103C000081E00E94050BE80EF91E97B890E1892E1D
:103C100084B882E00E94050BE80EF91E15B8C8B9F9
:103C2000C7B9C4B9C0913A01D0913B0180E00E946C
:103C3000050B5C0118B917B994B800913A011091BD
:103C40003B0181E00E94050B6C0198B897B884B8DD
:103C500080903A0190903B0182E00E94050BC00FDA
:103C6000D11FC80DD91DCA19DB09CC19DD09C81B24
:103C7000D90B17B818B814B880913A0190913B014C
:103C80004C01880C991C880E991E8E189F088C1A5E
:103C90009D0AA12CB12C9701A0E9BAE10E94CF386E
:103CA000A50194010E94363969017A0130934401DB
:103CB000209343019E01A0E9BAE10E94CF38A501FB
:103CC00094010E94363930933D0120933C012057E6
:103CD000354E309327012093260180E7C81A85EEE0
:103CE000D80AD0922001C0921F0189E18093360149
:103CF000CDB7DEB7ECE00C94F439FF920F931F932D
:103D0000CF93DF93C82FD62FF42E0E94FD0783E1B7
:103D100091E00E945B08E9D16D2F8C2F0E943B310E
:103D2000C1E00091C2011091C3012091C401309102
:103D3000C501011511052105310509F0C0E080918B
:103D4000020187FD02C0C11104C08FE091E00E9412
:103D50005B088D2F0E94FD07C11106C00E94FF075E
:103D6000809161010E940109FF2049F08091460184
:103D70008D3028F490E0815B9C4F0E945B0880E0CE
:103D80000E943808C1111BC06091C2017091C3012B
:103D90008091C4019091C50103E028E447EF0E949F
:103DA0006E0982E291E00E945B0880E693E00E9447
:103DB0006A3A23E046E464EF0E945D0A1AC08091EB
:103DC00061010E940109809102018E3F94F48AE30F
:103DD00091E00E945B0860910B0170910C01809151
:103DE0000D0190910E0103E028E4409102010E9430
:103DF0006E098091BA019091BB01A091BC01B09174
:103E0000BD01892B8A2B8B2BF1F080E00E943808B2
:103E10006091BA017091BB018091BC019091BD018C
:103E200004E028E440E00E946E098DE191E00E94E8
:103E30005B0823E040E26FEF8091C0019091C101E7
:103E40000E945D0A07C080E00E9417088091490126
:103E5000811102C00E941208CDB7DEB7E5E00C94D4
:103E6000FB390F931F93CF93DF93082F0E948A068D
:103E700080918F010E94FD0786E591E00E945B081A
:103E80000AD560918F01809190015DD390938C0150
:103E900080938B0111E08A3F9F4F08F010E0C091A2
:103EA0008D01D0918E01112321F084E191E00E94D7
:103EB0005B08809190010E94FD07002359F09091CA
:103EC00046018DE0891B0E94010884E790E00E9472
:103ED0005B0802C00E9412080E948F066091830155
:103EE00070918401809185019091860104E026E41F
:103EF000409192010E946E09112369F085E491E0DE
:103F00000E945B0822E044E06EEF80918B0190916B
:103F10008C010E945D0A0E9412080E949206CD2B1D
:103F200069F08EE391E00E945B0822E045E26FEFCA
:103F300080918D0190918E010E945D0A0E9412086D
:103F4000DF91CF911F910F9108958F7021F40E94FE
:103F500095060C94601108958F3021F490914001E2
:103F6000913011F08F5F089580E00895CF938FE72F
:103F700090E00E946D2BC0E00E94B60C60E082E0F1
:103F80000E94861762E080E00E9486170E948A06DF
:103F900080917A01882329F041E062E080E0ADDE83
:103FA00012C08FE790E00E945B0889E593E00E94D1
:103FB0005B080E948F068FE30E94DC0780E00E946E
:103FC00017080E9412088C2FC0DF88EE93E00E9431
:103FD000AE0B811109C080911E01843028F48C2F12
:103FE000BBDFC82F8A3F40F20E94B806CF910895E8
:103FF0000F931F93CF93DF93C0E0D8E012EF0DE053
:104000000E94B60C60E082E04BDAD09325018091EB
:104010009101843FE1F440917F01509180016091D2
:10402000810170918201443651056105710578F472
:1040300040E060E082E00E94D32E60937F017093A5
:10404000800180938101909382011093910180916E
:104050009101823FACF08093920140917F01509199
:10406000800160918101709182014093830150939E
:104070008401609385017093860181E0F2DE1CC0AB
:104080000E948A0688E790E00E945B0880914601C2
:10409000902F981B892F0E94010884E790E00E94CE
:1040A0005B080E948F068FE30E94DC070E941208C3
:1040B0000E9492060E9412088C2F47DF88EE93E040
:1040C0000E94AE0B81110AC080911E01843030F431
:1040D0008C2F42DFC82F8A3F08F492CF0E94B80687
:1040E000DF91CF911F910F910895A3E1B0E0EBE72D
:1040F000F0E20C94D23982E0809302018091250194
:10410000813009F01CC280917A01813009F017C218
:104110002090610124E0229EF0011124E255FE4F1F
:1041200080819181A281B381893032E59307A10515
:10413000B10508F004C29B8B8A8B312C61E0822D83
:10414000631528F00E94F708B82EA92E03C00E941C
:10415000F7085C01EA2DF0E0E85CFE4F74908B2DCF
:1041600090E0FC01EB5CFE4FE49115B818B82A8989
:104170003B89203F3105A0F430FC12C000911F01A3
:104180001091200100591A4121E030E00B2C02C0AF
:10419000220F331F0A94E2F7C901872987B906C0A5
:1041A000E4B977B800911F011091200144E1642E19
:1041B0008B2D0E94010B4C018A2D0E94090B34E0CB
:1041C0008316910410F4049710F06A9489F760E460
:1041D00060937B0084E580BF8B2D806480937C009E
:1041E00096E190937A00E12CF12C109280001092CD
:1041F00085001092840087E286BB0E94C40A232DAA
:104200002170298B30FC05C081E88093810078B84B
:1042100008C078B80E94CD0A80E286BB81E880930E
:10422000810046B345FF12C018B81092810080E2A9
:1042300086BB80918600909187006C01209184005C
:10424000309185008217930768F013C040FFE9CFD3
:1042500031E036BBA895C70101967C0180359105F8
:1042600001F7E2CF40FF05C061E066BB8FEFE81ABF
:10427000F80A86E980937A0034E1732E8B2D0E9430
:10428000010B4C018A2D0E94090B24E08216910437
:1042900010F4049710F07A9489F78090430190907D
:1042A00044018A899B89880E991E800E911E209157
:1042B00021013091220100399AE11907B0F461EE31
:1042C000C616D104E104F10438F4C60165E070E0DB
:1042D0000E940F39645101C069E128523109261B3F
:1042E000310967FD339586E009C0C40160EB76E3D0
:1042F0000E940F3987E0860F285D3F4F90E0A0E0D5
:10430000B0E08C159D05AE05BF0528F4C81AD90A82
:10431000EA0AFB0A03C0C12CD12C760189898823C3
:1043200029F092E2C90ED11CE11CF11C60E5E616F1
:10433000F10418F0C12CD12C76018BE0C816D10401
:10434000E104F10428F091E0C91AD108E108F1086C
:1043500040913A0150913B01A12CB12CA8EEB3E061
:104360000E94CF382B013C019801DA010E94CF381E
:10437000A50194010E94363944275527C301B20193
:104380000E943639C9010E94950CFC01A5019401D7
:10439000C701B6010E94F4384B015C01BF0180E007
:1043A00090E023E0660F771F881F991F2A95D1F7A9
:1043B0006B5F7F4F8F4F9F4F2AE030E040E050E02F
:1043C0000E943639C501B4010E943639832D90E030
:1043D000E1E0F0E0EC0FFD1F64E0369EE00DF11D22
:1043E000112420833183428353836989611117C06B
:1043F0006CE0C616D104E104F10488F0FC013196AA
:10440000EE0FFF1FEE0FFF1F81E090E08C0F9D1F4E
:10441000E80FF91F20833183428353833394A89597
:10442000339493E0931508F089CE18B884E00E9485
:10443000D10A21E04D815E816F81788589819A81E1
:10444000AB81BC8184179507A607B70708F020E069
:104450004D855E856F85788989859A85AB85BC8514
:1044600084179507A607B70710F032E001C033E0C4
:10447000E22FF0E0EE0FFF1FEE0FFF1F81E090E054
:104480008C0F9D1FE80FF91FDC0194E0399FA00DF0
:10449000B11D11244D915D916D917C91808191812F
:1044A000A281B381481759076A077B0708F0322FAA
:1044B000E1E0F0E0EC0FFD1F24E0329FE00DF11D84
:1044C000112480819181A281B38180930B0190930B
:1044D0000C01A0930D01B0930E0130FD09C02A8993
:1044E0003B89203F310520F48BEF8093020117C0F8
:1044F0002CEF20930201BC01CD016B5F7F4F8F4FEA
:104500009F4F2AE030E040E050E00E94363920938F
:104510000B0130930C0140930D0150930E018091DB
:104520000B0190910C01A0910D01B0910E01892B0E
:104530008A2B8B2B11F41092020117B814B86396D2
:10454000E2E10C94EE39AEE1B0E0E9EAF2E20C947B
:10455000D239662EB82E860F898320912501283006
:1045600059F520918301309184014091850150914A
:10457000860157FD15C01091920109C0CA01B90109
:104580002AE0312D412D512D0E9436391F5F173FF2
:10459000ACF391F4243160E036074105510518F47D
:1045A0008FEF9FEF45C1173F39F480E028178DE763
:1045B00038074105410510F020E03DE72C8B3D8B8D
:1045C00026EDA22EE8E3F1E0E60DF11D8591806075
:1045D0008E87E8E3F1E0EB0DF11D859180608F8718
:1045E000E5E3F1E0E60DF11D7590E5E3F1E0EB0D9B
:1045F000F11DC59090EC692AB92A81E0E82EF12CD2
:10460000012D112D8E831F82188619861A861B860E
:104610001C861D86188E198E1B8E1A8E0E94871975
:1046200080E088B960927C000E94C50A3F8537B956
:1046300075B874B852E05A95F1F70000000014B84C
:1046400015B8DD243E8537B975B874B860927C0022
:10465000A895A0927A0080917A0086FDFCCF2090E8
:10466000780030907900B0927C004C2DE5D02091FC
:10467000780030917900288B398B3F8537B9C5B8E0
:10468000C4B8A895B0927C00A0927A0080917A007C
:1046900086FDFCCF609178007091790060927C007B
:1046A000472DCAD0409178005091790014B8CB01C1
:1046B000820D931DE80EF91E011D111DEA82FB8279
:1046C0000C831D8388899989840F951F2E813F81D2
:1046D00068857985280F391F611D711D2E833F83E1
:1046E0006887798722E32417150650F075B874B8E7
:1046F0000E94CF0A14B815B8888D8395888F07C09B
:10470000483E73E0570718F08A8D83958A8F888911
:1047100099892817190660F03E8537B9C5B8C4B81D
:104720000E94CF0A14B815B8898D8395898F07C068
:10473000883E73E0970718F08B8D83958B8FD39409
:104740005D2D5F3F49F05F3731F45C2D550FC50E8D
:10475000572D550F750E76CF409043015090440170
:10476000440C551C9201E4E0240D351DEA95E1F757
:104770002901570168016E807F8088849984209187
:1047800025012830C1F46C897D89812D912D6550DA
:104790007040804090409B01AC010E94F4389B0126
:1047A000AC0160E779E786E190E00E943639621A51
:1047B000730A840A950AA614B704C804D90428F415
:1047C0006A187B088C089D0803C06624772443017F
:1047D000B20180E090E09301A4010E94F4389501B9
:1047E000A6010E9436398AE293E07981870F911DF4
:1047F0000E94623A682EC90160E170E00E940F39A0
:10480000260F371FC9016816190618F48619910971
:104810000FC08C5E9F4F8615910540F48C899D8951
:10482000843981E1980710F00E940011812D912DAB
:104830006E96E2E10C94EE391092810010928000A5
:1048400010926F0010928B0010928A0057E056BBB6
:104850005FEF509385005093840055E050937B00A8
:1048600056EB50937A0051E05093810058E25A95EC
:10487000F1F7000045B944B955E05A95F1F7000049
:1048800014B815B81092810080917A0084FFFCCF93
:1048900080937A000895A4E0B0E0E1E5F4E20C949E
:1048A000DA3980918D0190918E01892B09F0B2C087
:1048B000E0918F01F0E0E85CFE4F0491E0919001FF
:1048C000F0E0EB5CFE4F14910E94871918B815B800
:1048D00007B914B9809190010E94090B5C01009105
:1048E00092018CE0800F843008F094C0015F8091C9
:1048F000830190918401A0918501B09186012AE005
:10490000C22ED12CE12CF12CBC01CD016B5F7F4F6D
:104910008F4F9F4FA70196010E9436390F5F0730D6
:1049200019F0DA01C901F0CF293883E138074105D0
:10493000510508F06FC02530310508F46BC015B97A
:1049400014B900E010E00217130768F429833A83D2
:104950004B835C830E94CB0A0E5F1F4F5C814B81AF
:104960003A812981F0CF14B815B8A89585E08093D5
:1049700036018091900129833A834B835C830E94A6
:10498000090B29813A814B815C81A816B90620F474
:104990007C01EA18FB0802C0E12CF12C00E010E0D9
:1049A0000217130768F429833A834B835C830E94C0
:1049B000CB0A0F5F1F4F5C814B813A812981F0CF79
:1049C000809190010E94090B29E120933601A8955E
:1049D000A816B90618F48A199B0902C080E090E075
:1049E0008E159F0588F49701281B390B69F0A4EFF9
:1049F000B1E00E94CF38970140E050E00E94363984
:104A000030938E0120938D010E94871917B818B832
:104A100014B815B82496EAE00C94F639A5E0B0E095
:104A2000E4E1F5E20C94D23984E292E056D620EF2C
:104A30002A8354980E94C00A14BC16BC109212011A
:104A400010921301109214011092150131E035BB40
:104A500030936E001092800083E19AE790938B0070
:104A600080938A00E1E0F0E0F0938900E093880011
:104A7000109285001092840083B5816083BDF6E0BA
:104A8000F6BBF0936F00789424E02093810012E34A
:104A900019820E94B90AA8954F9902C031E0398362
:104AA00085B5811127C015BC86B5809312010E947F
:104AB00092060E9412080E9495060E9412080E9407
:104AC0003D0886E60E94DC070E94400860911201C2
:104AD00070911301809114019091150147E00E949B
:104AE000720A549880918100882339F08FE30E94E4
:104AF000DC0703C0115069F6D6CF109281001092E6
:104B00006F002091120130911301409114015091D6
:104B10001501DA01C9010197A109B109893D914641
:104B2000A105B10508F029C1AAE0B0E00E94E4386F
:104B3000685F7F4F8F4F9F4F23E0969587957795BE
:104B400067952A95D1F7660F771F7093750160936B
:104B5000740154980E94C00A16BC1092120110925F
:104B60001301109214011092150181E085BB80930E
:104B70006E00109277011092760194E09BBB8091B9
:104B80006800846080936800789480916D008061F3
:104B900080936D001D820E94B90AA8954F9902C0AA
:104BA000E1E0E98380916D0084FF05C0FD81FF5F36
:104BB000FD83FA3F81F715BC80916D008F7E809355
:104BC0006D00809168008B7F8093680086B580932C
:104BD00012010E94920684E50E94DC070E944008B0
:104BE0008091120190911301A0911401B0911501CF
:104BF00020917401309175013C832B831C012D01A0
:104C00009C01A20160E070E080E090E003E00E947F
:104C1000093A51016201E12CF12C00E010E00E9400
:104C2000223A59016A017B01E82F192F03E00E9403
:104C3000093A0E2F0E94223A03E00E94093A5101DC
:104C40006201E12CF12C00E010E00E94223A02E027
:104C50000E94093A00E00E94223A01E00E94093ACB
:104C600000E00E94223A03E00E94093AEB81FC81B5
:104C70005F01C12CD12C00E00E946E3939014A013C
:104C80001B012C012B813C812038310530F007E0DD
:104C900023E745EFB301C40116C084E6A82EB12C6A
:104CA000C12CD12CE12CF12C00E010E09301C201C9
:104CB0000E946E39E22FF42F07E023E747EF6E2FB3
:104CC000732F8F2F952F0E946E093D813A3F21F45B
:104CD0008FE30E94DC0751C09301A401B101C2011E
:104CE0002C393E4C43405105610571058105910504
:104CF00009F008F442C00E94950686E60E94DC078F
:104D00000E9440089301A401B101C2015301640152
:104D10007101820121153A4C4A495B4361057105D5
:104D20008105910589F080F020E030E04AE85DE5FA
:104D300068E775E483E691E00E946E39E22FF42F74
:104D400007E028E44AEF0FC020E030E846EC54EAE0
:104D50006EE77DE883E090E00E946E39E22FF42F49
:104D600007E028E44CEF6E2F732F8F2F952F0E94B2
:104D70006E098AE70E94DC07549810926E0080ED5D
:104D800097E00E94AE0B2981820F49F480911E01A9
:104D9000833028F43A8131503A8331114ACE259636
:104DA000E2E10C94EE391F920F920FB60F9211248C
:104DB0008F939F93AF93BF937894809112019091BA
:104DC0001301A0911401B09115019F5FAF4FBF4F28
:104DD0008093120190931301A0931401B0931501D5
:104DE000BF91AF919F918F910F900FBE0F901F9029
:104DF00018951F920F920FB60F9211248F9386E091
:104E000085BD8F910F900FBE0F901F9018951F9228
:104E10000F920FB60F921124A8951092810015BC25
:104E20000F900FBE0F901F9018951F920F920FB604
:104E30000F9211242F933F938F939F93809176012C
:104E400090917701892B11F481E085BD2091760145
:104E5000309177018091740190917501281739077D
:104E600030F015BC80916D008F7E80936D00809135
:104E70007601909177010196909377018093760166
:104E80009F918F913F912F910F900FBE0F901F9088
:104E900018958C3008F08C50811103C08EE292E09E
:104EA00036C0813019F484E292E031C0823019F4C6
:104EB0008BEF91E02CC0833019F480EF91E027C094
:104EC000843019F48AE890E022C0853019F48FE725
:104ED00090E01DC0863019F488E790E018C0873054
:104EE00019F48FED91E013C0883019F480ED91E052
:104EF0000EC0893019F489EB91E009C08A3019F4A9
:104F000082E192E004C08B3021F487E092E00E94BD
:104F10005B080C9412080F93CF938AE890E0DDD3DE
:104F2000C0E01092250160E082E0F3D3809125017A
:104F30008830C1F50E948F0683E40E94DC070E943E
:104F40004008609183017091840180918501909166
:104F5000860103E026E4409192010E946E090E94BE
:104F6000120860918F0180919001EDDA90938C018D
:104F700080938B010E94920686E491E00E945B0878
:104F800080918B0190918C018A3F2FEF920730F432
:104F900022E044E06EEF0E945D0A08C08FE30E94A9
:104FA000DC0704C00E943D080E9492060E9412087D
:104FB0008C2F0E94A51F88EE93E00E94AE0B8111FA
:104FC0000BC080911E01843038F48C2F0E94AC1FDE
:104FD000C82F8A3F08F4A5CFCF910F910895089567
:104FE000A5E0B0E0E6EFF7E20C94D2398BEF91E068
:104FF00074D380E18093800010926F0081E090E094
:10500000909389008093880010928B0010928A0000
:1050100083E086BB1092820088E08093810015B8FF
:1050200081E184B918B881E087B9229A89E0809338
:105030008100212C1B822AE0298333243394812C84
:10504000912C5401839411E1822D90E00A966EE137
:1050500070E00E942339662E562E3B81631789F03B
:105060000E948A068BEF91E00E945B08712C7514F8
:1050700028F48EE20E94DC077394F9CF0E94120894
:105080006B821231C8F0C701B601A50194010E94DC
:1050900036392B013C01832D69810E940339A92FE8
:1050A000B0E0A50194010E94E4386B017C01C40CBE
:1050B000D51CE61CF71C0CC0832D69810E940339A6
:1050C000A92FB0E0A50194010E94E4386B017C0196
:1050D0000E948F068981381208C081E0123108F4DD
:1050E00080E08A83811106C001C01A82163120F443
:1050F0008EE303C08CE301C082E50E94DC070E94BE
:10510000FF07412FC701B6010E94720AC701B6010D
:105110007E5E85489F4FA7019601220F331F441FD3
:10512000551F0E943639CA014F3F510539F030F002
:105130008DE08093810080E094E01FC040345105F1
:1051400030F08CE08093810080E091E016C0483020
:10515000510530F09BE09093810080E490E00DC019
:10516000892B31F0EAE0E093810088E090E005C00F
:10517000F9E0F093810081E090E02C01612C712C2A
:10518000CA01B901A30192010E943639C9010197F0
:105190009093890080938800809188009091890085
:1051A000892B31F421E030E030938900209388008E
:1051B0000E9412080E94920686E60E94DC070E9466
:1051C000FF0780918800909189009D838C8360E027
:1051D00079E08DE390E0A30192010E943639A4E6C4
:1051E000B0E00E94E438EC81FD8131969F0140E0FF
:1051F00050E00E94363929013A01A4E6B0E0A70147
:1052000096010E94E438461A570A680A790A05E2AC
:1052100028E44EEFC301B2010E946E098AE70E94A2
:10522000DC070E9412088CED95E00E94AE0B811104
:1052300005C080911E01811142C042C0863958F0DC
:10524000109281001092800017B814B82298259609
:10525000E2E10C94EE39813578F1FA81FF23D9F03F
:105260001150C501B4012AE030E040E050E00E9456
:10527000363949015A01C701B6010E943639CA01BF
:10528000B9012AE030E040E050E00E943639362E85
:105290002AE029833DC0163190F51F5F163111F4C5
:1052A00035E13983AAE0B0E0A50194010E94E43819
:1052B0004B015C01312C2CC08B3008F03394212C35
:1052C00080911E018B3008F0BBCF80911D0187FFBC
:1052D00003C08F5F9981890F830D90E0E9816E2F64
:1052E00070E06F5F7F4F0E942339382E822D0E941D
:1052F000AC1F282EFFEEF81708F0A6CEA1CF2AE0AB
:10530000298333243394812C912C5401839411E10B
:10531000212C9ACEA4E0B0E0E0E9F9E20C94D63971
:1053200080EF91E0DAD183E28093800010926F00E9
:105330008FEF90E090938B0080938A0083E086BB90
:105340001092820015B881E184B918B881E087B95C
:10535000229A81E090E0909389008093880089E010
:105360008093810010E000E0A2E37A2E612CB4E685
:10537000CB2ED12CE12CF12C88248A9483E0982E1A
:10538000A12CB12C7016E9F183E6871510F4ECE935
:105390007E0E272D30E0AFEFB3E00E94CF386E5C79
:1053A0007F4F8F4F9F4FA70196010E943639309350
:1053B0008B0020938A0029833A834B835C830E946D
:1053C0008F06A8EEB3E029813A814B815C810E946F
:1053D000E43861507E4F8F4F9F4FA50194010E948A
:1053E0003639DA01C90125E045E26FEF0E945D0A16
:1053F0000E941208F8E2F61518F48CE30E94D10A14
:10540000072D80E496E00E94AE0B682E82E8861598
:1054100058F417B8109281001092800014B82298A6
:105420002496EEE00C94F23990911E019B3088F79F
:1054300080911D0187FD8C59780EE2E3E61518F482
:10544000FAE07F0E03C0662051F0739410E0812FC4
:105450000E94AC1F182F803F08F494CFDACF91112F
:10546000F5CFF5CFCF93DF9389EB91E036D189E289
:1054700093E00E94623AC82FD0E081E80E94B10612
:105480008C2F0E94B1060E948F0624E040E260E06B
:105490008C2F90E00E945D0A0E94120880E496E042
:1054A0000E94AE0B811105C090911E01911103C0A5
:1054B00003C08238C8F4D0E090911E019B30A0F464
:1054C00090911D0197FD90589C0F882329F08932F7
:1054D00010F09F5F01C09158C92FCF778D2F0E9488
:1054E000AC1FD82F803F48F26C2F89E293E00E94D6
:1054F0006F3ADF91CF9108950F931F93CF93DF936E
:105500008FED91E0EAD08EE293E00E94623A182F8C
:1055100000E00E948F06C12FDD27C7FDD09517FF41
:105520000BC08DE20E94DC0723E045E26FEF882785
:1055300099278C1B9D0B04C023E045E26FEFCE0141
:105540000E945D0A0E94120880E496E00E94AE0B61
:10555000811105C090911E01911103C003C08238D2
:1055600000F500E090911E019B30D8F490911D0150
:10557000910F811102C0192F06C0893210F011E07D
:1055800001C01FEF190F113514F0155603C01C3E52
:105590000CF41B59802F0E94AC1F082F803F08F489
:1055A000B8CF612F8EE293E00E946F3ADF91CF91E6
:1055B0001F910F910895813011F480E02FCA82303D
:1055C00009F40ECD833009F4A5CE843009F4A3CCC0
:1055D000853011F40C94B61F863021F40E94B80671
:1055E0000C94F81F873009F487CF883019F481E1D3
:1055F0000C94370D893009F435CF8A3009F4C8C1CD
:105600008B3011F40C94E10C0895FF920F931F93CB
:10561000CF93DF9389E392E060D0D0E0C0E01BE05D
:105620001C0FF12C01E00F0D60E0802F880F0E940D
:105630007D0681E0F81204C08EE30E94DC0702C000
:105640000E94FF071C3018F084EF810F01C0812FEA
:1056500020DC1F5F033011F0F02EE4CF80E49FE1E7
:105660000E94AE0B8111D0E090914001913009F47D
:10567000D0E0823330F490917B01992371F088233C
:1056800061F0CC2321F18C2F96DF10921E01109235
:105690001D0189E392E021D080E090911E019A30B3
:1056A000B0F490911D01992319F097FD03C0D0E04B
:1056B000C90F03C0945FC90FD0E08111CF5FDF5FD6
:1056C000D83728F4CC3008F4AACFCC50A8CF80E04B
:1056D000CDB7DEB7E5E00C94FB39A2E0B0E0E3E73C
:1056E000FBE20C94E13989839A830E94B806898190
:1056F0009A810E945B0814E682E00E94D10A4F99C9
:1057000002C01150C9F70E948F062296E3E00C9464
:10571000FD39A4E0B0E0EFE8FBE20C94D739882E25
:10572000762E862F90E0FC01E85CFE4F0491E82D78
:10573000F0E0EB5CFE4FB490FC01EB5CFE4F14918B
:1057400010928C0110928B0110927F0110928001B7
:10575000109281011092820187EF809391010E9443
:10576000871918B807B914B915B9882D0E94090B03
:105770008C01872D0E94090B081B190B14B810927D
:105780005D0110925C0120E030E09CE2E92EFF24F4
:10579000F3944AE0A42E54E6952E80915C019091FA
:1057A0005D01843D904308F069C0B5B880915C010B
:1057B00090915D01892B89F06701C21AD30A60912B
:1057C0005C0170915D01A29EC001A39E900D112409
:1057D0000E940F39C616D70650F4B4B80E94C40A06
:1057E00014B880915C0190915D01019628C0809170
:1057F0005C0190915D010B97C8F060915C01709124
:105800005D01929EC001939E900D11240E940F395C
:105810006C157D0558F4B4B80E94B90A14B880918B
:105820005C0190915D018C599F4F09C0B4B80E94F2
:10583000BF0A14B880915C0190915D010A96909323
:105840005D0180935C0115B80E94C60AA895882D59
:105850000E94090B9C01201B310B80915C019091EF
:105860005D018B31964020F0253231050CF488C063
:105870002D3281E038070CF490CF05C02D32F1E0D5
:105880003F070CF47DC080915C0190915D01019710
:1058900029F4253145E034070CF072C000915C0119
:1058A00010915D01000F111FA80160E070E04093AE
:1058B0008701509388016093890170938A01C9011F
:1058C00068E270E00E942339C901860F971F0E9489
:1058D000671D9C01D8010E94CF38609387017093A7
:1058E00088018093890190938A0160937F0170936E
:1058F000800180938101909382010E94101A20916F
:105900007F013091800140918101509182018EE2AE
:1059100093E029833A834B835C830E94623AA8EE2A
:10592000B3E0A81BB10987FDB39529813A814B816A
:105930005C810E94EE3820E137E240E050E00E94B6
:10594000363920937F013093800140938101509339
:10595000820188E0809325012093830130938401A4
:10596000409385015093860180919101809392012B
:1059700010928E0110928D0170928F018092900191
:1059800017B818B814B815B82496EDE00C94F3398C
:10599000A0E0B0E0EEECFCE20C94DD390E94B80629
:1059A00080E091E00E945B080E948F068CEB90E003
:1059B0000E945B088CE293E00E94623A23E040E29E
:1059C0006EEF90E00E945D0A8DE293E00E94623AE1
:1059D00023E040E26EEF90E00E945D0A8BE293E0EC
:1059E0000E94623A23E044E06EEF90E00E945D0A7C
:1059F0000E94920685EB90E00E945B0823E044E061
:105A00006FEF80913C0190913D010E945D0A0E94E0
:105A100095068EEA90E00E945B0823E044E06FEF79
:105A200080914301909144010E945D0A88E99AE3C4
:105A30000E94AE0B80911E018B3008F0C1C0809196
:105A40001D0187FDABCF0E94B8068AEA90E00E9454
:105A50005B0880E593E00E94623A90E042970E94E2
:105A6000A10881E593E00E94623A90E042970E948B
:105A7000A1088DE493E00E94623A90E023E046E4BE
:105A800064EF42970E945D0A0E948F0683E00E94A5
:105A900001088CE493E00E94623A90E042970E94F1
:105AA000A1088FE493E00E94623A90E042970E943E
:105AB000A1088BE493E00E94623A90E023E046E480
:105AC00064EF42970E945D0A0E94920688E190E08E
:105AD0000E945B0882E593E00E946A3A0E948D086A
