:100000000C9434000C9451000C9451000C94510049
:100010000C9451000C9451000C9451000C9451001C
:100020000C9451000C9451000C9451000C9451000C
:100030000C9451000C9451000C9451000C945100FC
:100040000C9451000C9451000C9451000C945100EC
:100050000C9451000C9451000C9451000C945100DC
:100060000C9451000C94510011241FBECFEFD8E026
:10007000DEBFCDBF11E0A0E0B1E0EEE1F3E102C0F0
:1000800005900D92A231B107D9F711E0A2E1B1E0DC
:1000900001C01D92A035B107E1F70E94E9040C945C
:1000A0008D090C940000482F440F662359F025B1A8
:1000B00081E090E0042E02C0880F991F0A94E2F7B5
:1000C000282B25B984B121E030E002C0220F331F74
:1000D0004A95E2F7822B84B980E29EE40197F1F71A
:1000E00084B12095822384B9662319F085B1282331
:1000F00025B90895682F8AE440E020E030E00E94AE
:10010000BA0808952F923F924F925F927F928F92FA
:100110009F92AF92BF92CF92DF92EF92FF920F9396
:100120001F93CF93DF93982E762E842E462E862F04
:10013000880FC1E0D0E09E0102C0220F331F8A95D4
:10014000E2F7122F24B915B8C92CDD24CE01092CF1
:1001500002C0880F991F0A94E2F7382E87B988B930
:1001600080E197E20197F1F7842F60E00E9453004D
:100170008AE4672D40E020E030E00E94BA08895010
:10018000924078F0882D61E00E9453008AE4672D48
:1001900040E020E030E00E94BA088950924008F028
:1001A0007FC1E82CEE0C24B1C1E0D0E0CE010E2CD2
:1001B00002C0880F991F0A94E2F7582E282B24B901
:1001C00080EA9FE00197F1F78AE4672D40E020E0A4
:1001D00030E00E94BA088754974408F453C014B919
:1001E00084B1E3940E2C02C0CC0FDD1F0A94E2F719
:1001F000EA948C2B84B980E29EE40197F1F78AE4BB
:10020000672D40E020E030E00E94BA08EC018AE46B
:10021000682D40E020E030E00E94BA08AC0114B93B
:1002200020911601822F8250823018F481E0809351
:100230001301E0911301F0E0EE0FFF1FDF01AE5C50
:10024000BE4FCD93DC93E65DFE4F518340834E5508
:10025000544130F0253061F082E08093160106C0F1
:10026000253031F083E08093160182E08093150100
:1002700080911601853031F0809212017092210137
:100280009092360118B88C2D880F21E030E0E901FA
:1002900002C0CC0FDD1F8A95E2F7852D8C2B84B927
:1002A00085B9690102C0CC0CDD1C4A94E2F7C7B8DD
:1002B00000E21EE4C8010197F1F78AE4692D40E0ED
:1002C00020E030E00E94BA08895E924308F0E5C061
:1002D00080911301813009F4A9C24C2EC5B9C8011F
:1002E0000197F1F7C4B9B0E1AB2EB7E2BB2EC5015F
:1002F0000197F1F78AE4692D40E020E030E00E94A8
:10030000BA088C0115B8C5010197F1F7C5B9C50147
:100310000197F1F78AE4692D40E020E030E00E9487
:10032000BA08095E124308F061C0845A9B4508F47C
:100330005DC085E08093160114B815B8C8B8C50132
:100340000197F1F7C4B9C5010197F1F78AE4692D66
:1003500040E020E030E00E94BA088851954008F063
:1003600096C084B1582A54B8C5010197F1F78AE4C0
:10037000682D40E020E030E00E94BA088D5594419D
:1003800008F485C08AE4692D40E020E030E00E9456
:10039000BA0886549F4008F47AC0C4B9C5010197D1
:1003A000F1F78AE4692D40E020E030E00E94BA08CD
:1003B00086549F4008F46BC0C5B9C5010197F1F799
:1003C00015B8C5010197F1F78AE4692D40E020E0F6
:1003D00030E00E94BA088851954008F058C084E087
:1003E0008093160181E08093130151C084B1E3949E
:1003F00021E030E002C0220F331FEA94E2F7822BA3
:1004000084B985B1282B25B984EF91E028EC30E040
:10041000F9013197F1F70197D9F78AE4692D40E0A6
:1004200020E030E00E94BA08EC018AE4682D40E048
:1004300020E030E00E94BA08AC0145B844B8809191
:1004400016018250823018F481E080931301E0910C
:100450001301F0E0EE0FFF1FDF01AE5CBE4F8AE23A
:1004600098E69C012C1B3D0B2D933C93E65DFE4FC3
:10047000841B950B91838083495E524310F482E084
:1004800001C083E08093160181E080931501809282
:100490001201909221017092360117B818B8C6C1A6
:1004A00084B1982D990F02E010E002C0000F111FD7
:1004B0009A95E2F7802B84B9E0E4AE2EECE9BE2EEB
:1004C000C5010197F1F78AE4672D40E020E030E0B4
:1004D0000E94BA087C0185B1082B05B9C5010197B6
:1004E000F1F78AE4672D40E020E030E00E94BA088E
:1004F0004EE25AE0E40EF51EE816F906B8F518B813
:10050000CE01072C02C0880F991F0A94E2F787B921
:1005100094B1892D880F02C0CC0FDD1F8A95E2F7B8
:100520008C2F9C2B94B995B1892B85B9C501019766
:10053000F1F78AE4682D40E020E030E00E94BA083C
:100540008657914520F083E08093160104C083E034
:100550008093160185E08093150181E0809313015B
:1005600080921201909221017092360118B801E038
:1005700010E0C80102C0880F991F4A94E2F7582E74
:1005800087B95601AA0CBB1C84B10A2C02C0000F0B
:10059000111F0A94E2F7902F802B84B985B1982B14
:1005A00095B9C0E4DCE9CE010197F1F78AE4692D41
:1005B00040E020E030E00E94BA087C0105B9CE019D
:1005C0000197F1F78AE4692D40E020E030E00E94D5
:1005D000BA08825D954F8E159F0518F538B837B863
:1005E000CE010197F1F78AE4682D40E020E030E089
:1005F0000E94BA088D55944128F483E08093160137
:1006000084E004C083E08093160186E080931501A6
:1006100081E08093130180921201709221019092E7
:10062000360102E010E00A2C02C0000F111F0A94EC
:10063000E2F761E0E62EF12C02C0EE0CFF1CAA945A
:10064000E2F718B857B8882D61E00E94530050E1D6
:10065000C52E57E2D52EC6010197F1F78AE4692D20
:1006600040E020E030E00E94BA085C018AE4672D97
:1006700040E020E030E00E94BA08A81AB90A04B9A4
:1006800005B9C6010197F1F78AE4692D40E020E041
:1006900030E00E94BA081C018AE4672D40E020E0A7
:1006A00030E00E94BA082C01E4B8E5B8882D60E07B
:1006B0000E945300C6010197F1F78AE4692D40E0DA
:1006C00020E030E00E94BA08EC018AE4672D40E0A7
:1006D00020E030E00E94BA08C81BD90B04B905B964
:1006E000C6010197F1F78AE4692D40E020E030E08F
:1006F0000E94BA088C018AE4672D40E020E030E0D7
:100700000E94BA08CA15DB0520F4810104191509F5
:1007100003C0081B190B5E01C5018F5093408C5A12
:100720009D4508F083C080911601882311F0863022
:1007300019F481E08093160120911401E22FF0E07A
:10074000EE0FFF1FEE0FFF1FDF01A95CBE4F9C9253
:1007500011967C92E75CFE4F86E390E0AC01A49E8C
:10076000C001A59E900DB49E900D11246BE070E029
:100770000E94080971836083E22EE394680126E0F9
:10078000CC0CDD1C2A95E1F7C50165E070E00E9404
:1007900008098B0170E045C0E72FF0E0EE0FFF1F66
:1007A000EE0FFF1FE95CFE4F80818715C9F581813F
:1007B0008915B1F5C016D10698F5672F4E2D50E07A
:1007C0004150504026C0FE013196CC0FDD1FCC0FAA
:1007D000DD1F9E01295C3E4FEE0FFF1FEE0FFF1F36
:1007E000A7E3AA2EA1E0BA2EAE0EBF1ED5018C91B2
:1007F000D9018C93D50111968C91D90111968C93C6
:10080000C75CDE4FE75CFE4F8081918199838883CE
:100810006F5FC62FD0E0C417D507ACF2BEEFEB0E6A
:100820007F5F7E1508F4B8CFE092140117B818B8AE
:1008300014B815B8DF91CF911F910F91FF90EF90F1
:10084000DF90CF90BF90AF909F908F907F905F9000
:100850004F903F902F9008950F931F93CF93DF9366
:1008600080912101E82FF0E09F01220F331FA1E0CA
:10087000B0E0AD0102C0440F551F2A95E2F79A017E
:1008800000911201602F70E0AB01440F551F82E010
:1008900090E002C0880F991F4A95E2F7982F922B9B
:1008A00090931701322F2093200194B9AD0100904D
:1008B000360102C0440F551F0A94E2F7ED01002EE5
:1008C00002C0CC0FDD1F0A94E2F7BE01642B67B9AA
:1008D00080911601833009F04BC080911501813061
:1008E000F1F418B895B9CD0102C0880F991FEA95A7
:1008F000E2F7982F80931701E0E2FEE43197F1F7D9
:1009000047B9C0E0D0E010E005C0219619F41F5FA0
:10091000183019F086B18923C1F735B91FC082306C
:1009200039F568B915B8CD0102C0880F991FEA954D
:10093000E2F7982F80931701E0E2FEE43197F1F798
:1009400047B948B9C0E0D0E010E005C0219619F4DD
:100950001F5F183019F086B18923C1F334B98AE4D6
:10096000602F40E020E030E00E94BA089C0105C002
:10097000C0E0D0E020E030E010E014B815B817B8BF
:1009800018B8CD2B11F41123F9F0809115018230A4
:1009900031F48AE298E6AC01421B530B9A0187E2DC
:1009A00090E0EC012C9FC0012D9F900D3C9F900D7D
:1009B000112403E0969587950A95E1F768E171E0C7
:1009C0004AE050E00E945F09DF91CF911F910F91A3
:1009D000089580E88BB983E880937A000E94990794
:1009E0001092160110924F011092140110921301EF
:1009F000109215010E94910780E090E00E94E707A5
:100A000080E061E042E00E94820080E062E041E03C
:100A10000E94820081E060E042E00E94820081E06A
:100A200062E040E00E94820082E061E040E00E94DB
:100A3000820082E060E041E00E9482000E942C047B
:100A40000E94910780911601813009F0E5C08091E4
:100A50001401813061F588E590E00E94E7078DEE92
:100A600090E00E94E707809137018F5C0E94870722
:100A700080E091E00E94DA07809138018F5C0E944B
:100A8000870780EC0E94830782EE90E00E94E707D0
:100A90008091390190913A0168E171E04AE050E0BB
:100AA0000E943E090E94DA078AEE90E0F9C1823086
:100AB00009F064C03091370120913B01321721F5D4
:100AC00080E690E00E94E70784E091E00E94DA0768
:100AD00080EC0E9483078DEE90E00E94E7078091F2
:100AE00037018F5C0E9487078AEB90E00E94E7073E
:100AF000809138018F5C0E9487078FEB90E00E9405
:100B0000E70780913C01BBC18091380190913C0185
:100B1000891721F580E690E00E94E70787E091E0E1
:100B20000E94DA0780EC0E9483078AE091E00E942D
:100B3000DA07809138018F5C0E94870780EB90E094
:100B40000E94E707809137018F5C0E94870785EB41
:100B500090E00E94E70780913B0191C1821709F064
:100B600092C1931709F08FC18DE690E00E94E707CC
:100B700080EC0E94830786E790E092C1833009F001
:100B800082C180931201809321019091370180915D
:100B90003B01981721F080913F01981711F4909331
:100BA000120190913B0180913F01981711F49093AD
:100BB00012019091380180913C01981721F08091A9
:100BC0004001981711F49093210190913C0180917C
:100BD0004001981711F49093210180911201833004
:100BE00008F051C180912101833008F04CC18DE69D
:100BF00090E00E94E70780EC0E94830783E890E082
:100C00000E94E707809112018F5C0E94870780E0B5
:100C100091E00E94DA0731C1823009F0AAC08091C8
:100C20001301882381F480913201909133019093D4
:100C300035018093340180912A0190912B0190938A
:100C40002D0180932C01209132013091330180914C
:100C500034019091350182179307A0F43093350148
:100C60002093340180912A0190912B0190932D01C2
:100C700080932C0190912101809136018093210174
:100C80009093360180911501813019F489EC90E040
:100C900002C08DEC90E00E94E70781ED90E00E9499
:100CA000E707809112018F5C0E94870785ED90E035
:100CB0000E94E707809121018F5C0E94870789EDE0
:100CC00090E00E94E707809136018F5C0E948707C1
:100CD00080EC0E948307609134017091350180E0BF
:100CE00090E023EB32E040E050E00E94E90860939E
:100CF0002E0170932F0180933001909331018091E8
:100D00002C0190912D010B9730F48BE090E09093A3
:100D10002D0180932C0120912C0130912D0140E078
:100D200050E060912E0170912F01809130019091DF
:100D300031010E941C0920932E0130932F01409312
:100D4000300150933101C901209334019093350152
:100D500084EC90E00E94E707809134019091350186
:100D600068E171E04AE050E00E945F090E94DA0702
:100D700099C0833009F048C08091150180FF02C0FE
:100D80008EE401C080E50E94870790911501892FAC
:100D90008350823018F487E990E008C09550923073
:100DA00018F48AE990E006C084E990E00E94E70721
:100DB0008FE890E00E94E70780EC0E9483078DEDAA
:100DC00090E00E94E707809112018F5C0E948707E4
:100DD000809121018F5C0E948707809136018F5C92
:100DE0000E94870780E20E94870780911501833067
:100DF00008F058C086EE90E00E94E70788E191E095
:100E00000E94DA078DE63CC08530C1F480EA90E0AC
:100E10000E94E70780EC0E9483078DE091E00E942A
:100E2000DA07809112018F5C0E948707809121016F
:100E30008F5C0E9487078091360121C0843019F5AC
:100E40008AEA90E00E94E70780EC0E94830780EF27
:100E500090E00E94E707809112018F5C0E94870753
:100E600080EB90E00E94E707809136018F5C0E9442
:100E7000870785EB90E00E94E707809121018F5C56
:100E80000E9487070FC085E290E00E94E70780EC90
:100E90000E94830786E390E00E94E70787E490E0E2
:100EA0000E94E7074F9BFECF80ED97E028EC30E0F3
:100EB000F9013197F1F70197D9F74F99FECF90CD0E
:100EC0009BB1282F22952F70907F292B2BB93DE0C5
:100ED000932F9A95F1F75D9A2AE1922F9A95F1F75F
:100EE0005D989BB18F70907F982B9BB93A95F1F7E5
:100EF0005D9A2A95F1F75D9880EA8A95F1F78BB1B2
:100F0000807F8BB908955C980E94600708955C9A71
:100F10000E94600708955D9A8AE18A95F1F75D98CD
:100F2000089581E00E94830780E197E20197F1F73D
:100F300008958AB18F638AB980E69AEE0197F1F736
:100F40008BB1807E83608BB95D9A9AE1892F8A95F7
:100F5000F1F75D98E0E1F7E23197F1F75D9A892FBB
:100F60008A95F1F75D9820ED37E0F9013197F1F7B7
:100F70005D9A892F8A95F1F75D98F9013197F1F71C
:100F80008BB1807E82608BB9F9013197F1F75D9A60
:100F90009A95F1F75D98C9010197F1F788E20E94EF
:100FA00083078CE00E94830786E00E9483070E94EB
:100FB00091070895CF93DF93EC0103C021960E941F
:100FC000870788818823D1F7DF91CF910895CF9348
:100FD000DF93EC0121960E947509882321F00E947D
:100FE0008707CE01F6CFDF91CF91089580E388B9CE
:100FF0001092B90080E28093B8000895982F84EA97
:101000008093BC008091BC0087FFFCCF8091B90029
:10101000887F883021F0803111F081E0089590932D
:10102000BB0084E88093BC008091BC0087FFFCCFAC
:101030009091B900987F983111F480E0089580E094
:10104000903409F081E00895982F44EA34E824E9C7
:101050004093BC008091BC0087FFFCCF8091B90019
:10106000887F883011F0803199F79093BB003093DE
:10107000BC008091BC0087FFFCCF8091B900887FC5
:10108000803211F0883539F42093BC008091BC0087
:1010900084FDFCCFDDCF08950E94FE07089584E90A
:1010A0008093BC008091BC0084FDFCCF08958093A8
:1010B000BB0084E88093BC008091BC0087FFFCCF1C
:1010C0008091B90090E0887F883209F091E0892F03
:1010D000089584EC8093BC008091BC0087FFFCCF16
:1010E0008091BB00089584E88093BC008091BC008F
:1010F00087FFFCCF8091BB000895FF920F931F9351
:10110000162FF42E052F880F0E942408812F0E948D
:101110005708802F0E9457088F2D0E9457080E9461
:101120004F0880E01F910F91FF900895FF920F9359
:101130001F93162F082F000F802F0E942408812F45
:101140000E9457080E944F08802F8F5F0E944C0812
:101150000E946908F82E0E947308082F0E944F0809
:101160009F2D80E010E0082B192BC8011F910F91D3
:10117000FF9008951F93182F643018F020E030E09E
:1011800025C031604360842F90E0282B392B6623E3
:1011900019F4A90150640CC0613019F4A90150651B
:1011A00007C0623019F4A901506602C0A901506756
:1011B0005068812F61E00E947D0880E89EE30197DE
:1011C000F1F7812F60E00E9496089C01C9011F91F0
:1011D0000895629FD001739FF001829FE00DF11D81
:1011E000649FE00DF11D929FF00D839FF00D749FA1
:1011F000F00D659FF00D9927729FB00DE11DF91F4D
:10120000639FB00DE11DF91FBD01CF0111240895A9
:10121000AA1BBB1B51E107C0AA1FBB1FA617B7071C
:1012200010F0A61BB70B881F991F5A95A9F7809538
:101230009095BC01CD010895A1E21A2EAA1BBB1BFB
:10124000FD010DC0AA1FBB1FEE1FFF1FA217B30792
:10125000E407F50720F0A21BB30BE40BF50B661FA8
:10126000771F881F991F1A9469F76095709580956C
:1012700090959B01AC01BD01CF010895FB019F0139
:10128000E8944230C4F04532B4F44A3029F497FB74
:101290001EF4909581959F4F642F77270E9408092F
:1012A000805D8A330CF0895D8193CB010097A1F7B3
:1012B00016F45DE251931082C9010C947D09FB0183
:1012C0009F01423074F0453264F4642F77270E9406
:1012D0000809805D8A330CF0895D8193CB0100970A
:1012E000A1F71082C9010C947D09F999FECF92BD36
:1012F00081BDF89A992780B50895DC01FC01672F1C
:1013000071917723E1F7329704C07C916D937083DC
:0E1310006291AE17BF07C8F30895F894FFCF9F
:10131E003B4B3D004341004343004B3D0047414B97
:02132E003D0080
:00000001FF
